{
  "_format": "hh-sol-artifact-1",
  "contractName": "PhasedTest",
  "sourceName": "contracts/test/PhasedTest.sol",
  "abi": [
    {
      "anonymous": false,
      "inputs": [
        {
          "indexed": true,
          "internalType": "uint32",
          "name": "newPhaseBlock_",
          "type": "uint32"
        }
      ],
      "name": "PhaseShiftScheduled",
      "type": "event"
    },
    {
      "inputs": [],
      "name": "UNINITIALIZED",
      "outputs": [
        {
          "internalType": "uint32",
          "name": "",
          "type": "uint32"
        }
      ],
      "stateMutability": "view",
      "type": "function"
    },
    {
      "inputs": [
        {
          "internalType": "uint32[8]",
          "name": "phaseBlocks_",
          "type": "uint32[8]"
        },
        {
          "internalType": "enum Phase",
          "name": "phase_",
          "type": "uint8"
        }
      ],
      "name": "blockNumberForPhase",
      "outputs": [
        {
          "internalType": "uint32",
          "name": "",
          "type": "uint32"
        }
      ],
      "stateMutability": "pure",
      "type": "function"
    },
    {
      "inputs": [],
      "name": "currentPhase",
      "outputs": [
        {
          "internalType": "enum Phase",
          "name": "",
          "type": "uint8"
        }
      ],
      "stateMutability": "view",
      "type": "function"
    },
    {
      "inputs": [],
      "name": "hookCondition",
      "outputs": [
        {
          "internalType": "bool",
          "name": "",
          "type": "bool"
        }
      ],
      "stateMutability": "view",
      "type": "function"
    },
    {
      "inputs": [
        {
          "internalType": "uint32[8]",
          "name": "phaseBlocks_",
          "type": "uint32[8]"
        },
        {
          "internalType": "uint32",
          "name": "blockNumber_",
          "type": "uint32"
        }
      ],
      "name": "phaseAtBlockNumber",
      "outputs": [
        {
          "internalType": "enum Phase",
          "name": "",
          "type": "uint8"
        }
      ],
      "stateMutability": "pure",
      "type": "function"
    },
    {
      "inputs": [
        {
          "internalType": "uint256",
          "name": "",
          "type": "uint256"
        }
      ],
      "name": "phaseBlocks",
      "outputs": [
        {
          "internalType": "uint32",
          "name": "",
          "type": "uint32"
        }
      ],
      "stateMutability": "view",
      "type": "function"
    },
    {
      "inputs": [
        {
          "internalType": "enum Phase",
          "name": "phase_",
          "type": "uint8"
        }
      ],
      "name": "runsOnlyAtLeastPhase",
      "outputs": [
        {
          "internalType": "bool",
          "name": "",
          "type": "bool"
        }
      ],
      "stateMutability": "view",
      "type": "function"
    },
    {
      "inputs": [
        {
          "internalType": "enum Phase",
          "name": "phase_",
          "type": "uint8"
        }
      ],
      "name": "runsOnlyPhase",
      "outputs": [
        {
          "internalType": "bool",
          "name": "",
          "type": "bool"
        }
      ],
      "stateMutability": "view",
      "type": "function"
    },
    {
      "inputs": [
        {
          "internalType": "uint32",
          "name": "nextPhaseBlock_",
          "type": "uint32"
        }
      ],
      "name": "testScheduleNextPhase",
      "outputs": [],
      "stateMutability": "nonpayable",
      "type": "function"
    },
    {
      "inputs": [],
      "name": "toggleHookCondition",
      "outputs": [],
      "stateMutability": "nonpayable",
      "type": "function"
    }
  ],
  "bytecode": "0x60806040526001805460ff19168117905534801561001c57600080fd5b5060005b600881101561007d5763ffffffff6000826008811061004157610041610083565b600891828204019190066004026101000a81548163ffffffff021916908363ffffffff160217905550808061007590610099565b915050610020565b506100c2565b634e487b7160e01b600052603260045260246000fd5b60006000198214156100bb57634e487b7160e01b600052601160045260246000fd5b5060010190565b6109c8806100d16000396000f3fe608060405234801561001057600080fd5b50600436106100be5760003560e01c80636932f6b71161007657806381e45d9a1161005b57806381e45d9a1461019c5780639923c94b146101a7578063abec2f81146101ba57600080fd5b80636932f6b714610154578063791f211f1461016757600080fd5b80633bd126dc116100a75780633bd126dc146100f457806345bdfa8a1461010957806348a8b7df1461013157600080fd5b8063055ad42e146100c357806334c1df75146100e1575b600080fd5b6100cb6101c7565b6040516100d8919061072c565b60405180910390f35b6100cb6100ef3660046107b5565b610231565b61010761010236600461084a565b6102a1565b005b61011c610117366004610874565b6102ad565b60405163ffffffff90911681526020016100d8565b61014461013f3660046108b0565b610310565b60405190151581526020016100d8565b6101446101623660046108b0565b6103b3565b610107600180547fffffffffffffffffffffffffffffffffffffffffffffffffffffffffffffff00811660ff90911615179055565b61011c63ffffffff81565b61011c6101b53660046108cb565b610449565b6001546101449060ff1681565b6040805161010081019182905260009161022c919083906008908280855b82829054906101000a900463ffffffff1663ffffffff16815260200190600401906020826003010492830192600103820291508084116101e5579050505050505043610231565b905090565b6000805b600881101561029457838160088110610250576102506108e4565b602002015163ffffffff168363ffffffff1610156102825780600881111561027a5761027a6106fd565b91505061029b565b8061028c81610942565b915050610235565b5060085b90505b92915050565b6102aa81610479565b50565b6000808260088111156102c2576102c26106fd565b116102ce576000610298565b8260018360088111156102e3576102e36106fd565b6102ed919061097b565b600881106102fd576102fd6108e4565b602002016020810190610298919061084a565b600081806008811115610325576103256106fd565b61032d6101c7565b600881111561033e5761033e6106fd565b146103aa576040517f08c379a000000000000000000000000000000000000000000000000000000000815260206004820152600960248201527f4241445f5048415345000000000000000000000000000000000000000000000060448201526064015b60405180910390fd5b50600192915050565b6000818060088111156103c8576103c86106fd565b6103d06101c7565b60088111156103e1576103e16106fd565b10156103aa576040517f08c379a000000000000000000000000000000000000000000000000000000000815260206004820152600960248201527f4d494e5f5048415345000000000000000000000000000000000000000000000060448201526064016103a1565b6000816008811061045957600080fd5b60089182820401919006600402915054906101000a900463ffffffff1681565b8063ffffffff164363ffffffff1611156104ef576040517f08c379a000000000000000000000000000000000000000000000000000000000815260206004820152600f60248201527f4e4558545f424c4f434b5f50415354000000000000000000000000000000000060448201526064016103a1565b63ffffffff8181161061055e576040517f08c379a000000000000000000000000000000000000000000000000000000000815260206004820152601860248201527f4e4558545f424c4f434b5f554e494e495449414c495a4544000000000000000060448201526064016103a1565b60006105686101c7565b6008811115610579576105796106fd565b90506000816008811061058e5761058e6108e4565b60088104919091015460079091166004026101000a900463ffffffff90811614610614576040517f08c379a000000000000000000000000000000000000000000000000000000000815260206004820152600e60248201527f4e4558545f424c4f434b5f53455400000000000000000000000000000000000060448201526064016103a1565b61061d82610691565b8160008260088110610631576106316108e4565b600891828204019190066004026101000a81548163ffffffff021916908363ffffffff1602179055508163ffffffff167f260aac5b840edc27b89fdf50e91311a413363a400959466e1049e6d071b8cee260405160405180910390a25050565b60015460ff166102aa576040517f08c379a000000000000000000000000000000000000000000000000000000000815260206004820152600e60248201527f484f4f4b5f434f4e444954494f4e00000000000000000000000000000000000060448201526064016103a1565b7f4e487b7100000000000000000000000000000000000000000000000000000000600052602160045260246000fd5b6020810160098310610767577f4e487b7100000000000000000000000000000000000000000000000000000000600052602160045260246000fd5b91905290565b7f4e487b7100000000000000000000000000000000000000000000000000000000600052604160045260246000fd5b803563ffffffff811681146107b057600080fd5b919050565b60008061012083850312156107c957600080fd5b83601f8401126107d857600080fd5b60405161010080820182811067ffffffffffffffff821117156107fd576107fd61076d565b6040528401818682111561081057600080fd5b855b82811015610831576108238161079c565b825260209182019101610812565b505081935061083f8161079c565b925050509250929050565b60006020828403121561085c57600080fd5b6102988261079c565b8035600981106107b057600080fd5b600080610120838503121561088857600080fd5b61010083018481111561089a57600080fd5b8392506108a681610865565b9150509250929050565b6000602082840312156108c257600080fd5b61029882610865565b6000602082840312156108dd57600080fd5b5035919050565b7f4e487b7100000000000000000000000000000000000000000000000000000000600052603260045260246000fd5b7f4e487b7100000000000000000000000000000000000000000000000000000000600052601160045260246000fd5b60007fffffffffffffffffffffffffffffffffffffffffffffffffffffffffffffffff82141561097457610974610913565b5060010190565b60008282101561098d5761098d610913565b50039056fea2646970667358221220b8eacc683dac3557ee89440db6008dee02eb8ead5fab627fce843946be30f86c64736f6c634300080a0033",
  "linkReferences": {},
  "deployedLinkReferences": {}
}