{
  "_format": "hh-sol-artifact-1",
  "contractName": "PhasedTest",
  "sourceName": "contracts/test/PhasedTest.sol",
  "abi": [
    {
      "anonymous": false,
      "inputs": [
        {
          "indexed": true,
          "internalType": "uint32",
          "name": "newPhaseBlock_",
          "type": "uint32"
        }
      ],
      "name": "PhaseShiftScheduled",
      "type": "event"
    },
    {
      "inputs": [],
      "name": "UNINITIALIZED",
      "outputs": [
        {
          "internalType": "uint32",
          "name": "",
          "type": "uint32"
        }
      ],
      "stateMutability": "view",
      "type": "function"
    },
    {
      "inputs": [
        {
          "internalType": "uint32[8]",
          "name": "phaseBlocks_",
          "type": "uint32[8]"
        },
        {
          "internalType": "enum Phase",
          "name": "phase_",
          "type": "uint8"
        }
      ],
      "name": "blockNumberForPhase",
      "outputs": [
        {
          "internalType": "uint32",
          "name": "",
          "type": "uint32"
        }
      ],
      "stateMutability": "pure",
      "type": "function"
    },
    {
      "inputs": [],
      "name": "currentPhase",
      "outputs": [
        {
          "internalType": "enum Phase",
          "name": "",
          "type": "uint8"
        }
      ],
      "stateMutability": "view",
      "type": "function"
    },
    {
      "inputs": [],
      "name": "hookCondition",
      "outputs": [
        {
          "internalType": "bool",
          "name": "",
          "type": "bool"
        }
      ],
      "stateMutability": "view",
      "type": "function"
    },
    {
      "inputs": [
        {
          "internalType": "uint32[8]",
          "name": "phaseBlocks_",
          "type": "uint32[8]"
        },
        {
          "internalType": "uint32",
          "name": "blockNumber_",
          "type": "uint32"
        }
      ],
      "name": "phaseAtBlockNumber",
      "outputs": [
        {
          "internalType": "enum Phase",
          "name": "",
          "type": "uint8"
        }
      ],
      "stateMutability": "pure",
      "type": "function"
    },
    {
      "inputs": [
        {
          "internalType": "uint256",
          "name": "",
          "type": "uint256"
        }
      ],
      "name": "phaseBlocks",
      "outputs": [
        {
          "internalType": "uint32",
          "name": "",
          "type": "uint32"
        }
      ],
      "stateMutability": "view",
      "type": "function"
    },
    {
      "inputs": [
        {
          "internalType": "enum Phase",
          "name": "phase_",
          "type": "uint8"
        }
      ],
      "name": "runsOnlyAtLeastPhase",
      "outputs": [
        {
          "internalType": "bool",
          "name": "",
          "type": "bool"
        }
      ],
      "stateMutability": "view",
      "type": "function"
    },
    {
      "inputs": [
        {
          "internalType": "enum Phase",
          "name": "phase_",
          "type": "uint8"
        }
      ],
      "name": "runsOnlyPhase",
      "outputs": [
        {
          "internalType": "bool",
          "name": "",
          "type": "bool"
        }
      ],
      "stateMutability": "view",
      "type": "function"
    },
    {
      "inputs": [
        {
          "internalType": "uint32",
          "name": "nextPhaseBlock_",
          "type": "uint32"
        }
      ],
      "name": "testScheduleNextPhase",
      "outputs": [],
      "stateMutability": "nonpayable",
      "type": "function"
    },
    {
      "inputs": [],
      "name": "toggleHookCondition",
      "outputs": [],
      "stateMutability": "nonpayable",
      "type": "function"
    }
  ],
  "bytecode": "0x61018060405263ffffffff608081815260a082905260c082905260e082905261010082905261012082905261014082905261016091909152610045906000906008610064565b506001805460ff19168117905534801561005e57600080fd5b5061011c565b6001830191839082156100f05791602002820160005b838211156100be57835183826101000a81548163ffffffff021916908363ffffffff160217905550926020019260040160208160030104928301926001030261007a565b80156100ee5782816101000a81549063ffffffff02191690556004016020816003010492830192600103026100be565b505b506100fc929150610100565b5090565b5b808211156100fc57805463ffffffff19168155600101610101565b6106768061012b6000396000f3fe608060405234801561001057600080fd5b506004361061009e5760003560e01c80636932f6b7116100665780636932f6b7146101be578063791f211f146101de57806381e45d9a146101e65780639923c94b146101ee578063abec2f811461020b5761009e565b8063055ad42e146100a357806334c1df75146100cc5780633bd126dc1461012657806345bdfa8a1461014b57806348a8b7df1461018a575b600080fd5b6100ab610213565b604051808260088111156100bb57fe5b815260200191505060405180910390f35b6100ab60048036036101208110156100e357600080fd5b81019080806101000190600880602002604051908101604052809291908260086020028082843760009201919091525091945050503563ffffffff16905061027d565b6101496004803603602081101561013c57600080fd5b503563ffffffff166102d7565b005b610171600480360361012081101561016257600080fd5b5060ff610100820135166102e3565b6040805163ffffffff9092168252519081900360200190f35b6101aa600480360360208110156101a057600080fd5b503560ff1661032b565b604080519115158252519081900360200190f35b6101aa600480360360208110156101d457600080fd5b503560ff16610394565b6101496103f5565b610171610409565b6101716004803603602081101561020457600080fd5b503561040f565b6101aa61043c565b60408051610100810191829052600091610278919083906008908280855b82829054906101000a900463ffffffff1663ffffffff168152602001906004019060208260030104928301926001038202915080841161023157905050505050504361027d565b905090565b6000805b60088110156102ca5783816008811061029657fe5b602002015163ffffffff168363ffffffff1610156102c2578060088111156102ba57fe5b9150506102d1565b600101610281565b5060085b90505b92915050565b6102e081610445565b50565b6000808260088111156102f257fe5b116102fe5760006102ce565b82600183600881111561030d57fe5b036008811061031857fe5b602002013563ffffffff16905092915050565b60008180600881111561033a57fe5b610342610213565b600881111561034d57fe5b1461038b576040805162461bcd60e51b81526020600482015260096024820152684241445f504841534560b81b604482015290519081900360640190fd5b50600192915050565b6000818060088111156103a357fe5b6103ab610213565b60088111156103b657fe5b101561038b576040805162461bcd60e51b81526020600482015260096024820152684d494e5f504841534560b81b604482015290519081900360640190fd5b6001805460ff19811660ff90911615179055565b60001981565b6000816008811061041c57fe5b60089182820401919006600402915054906101000a900463ffffffff1681565b60015460ff1681565b8063ffffffff164363ffffffff161115610498576040805162461bcd60e51b815260206004820152600f60248201526e1391561517d09313d0d2d7d41054d5608a1b604482015290519081900360640190fd5b63ffffffff818116106104f2576040805162461bcd60e51b815260206004820152601860248201527f4e4558545f424c4f434b5f554e494e495449414c495a45440000000000000000604482015290519081900360640190fd5b60006104fc610213565b600881111561050757fe5b90506000816008811061051657fe5b60088104919091015460079091166004026101000a900463ffffffff90811614610578576040805162461bcd60e51b815260206004820152600e60248201526d1391561517d09313d0d2d7d4d15560921b604482015290519081900360640190fd5b610581826105ef565b816000826008811061058f57fe5b600891828204019190066004026101000a81548163ffffffff021916908363ffffffff1602179055508163ffffffff167f260aac5b840edc27b89fdf50e91311a413363a400959466e1049e6d071b8cee260405160405180910390a25050565b60015460ff16610637576040805162461bcd60e51b815260206004820152600e60248201526d2427a7a5afa1a7a72224aa24a7a760911b604482015290519081900360640190fd5b6102e0816102e056fea2646970667358221220ffc8901132224fc5f1d007096da68bee9ed6c07e9729ebd04b05a684b095557064736f6c634300060c0033",
  "linkReferences": {},
  "deployedLinkReferences": {}
}