{
  "_format": "hh-sol-artifact-1",
  "contractName": "RedeemableERC20Factory",
  "sourceName": "contracts/rain-protocol/contracts/redeemableERC20/RedeemableERC20Factory.sol",
  "abi": [
    {
      "anonymous": false,
      "inputs": [
        {
          "indexed": true,
          "internalType": "address",
          "name": "_contract",
          "type": "address"
        }
      ],
      "name": "NewContract",
      "type": "event"
    },
    {
      "inputs": [
        {
          "internalType": "bytes",
          "name": "data_",
          "type": "bytes"
        }
      ],
      "name": "createChild",
      "outputs": [
        {
          "internalType": "address",
          "name": "",
          "type": "address"
        }
      ],
      "stateMutability": "nonpayable",
      "type": "function"
    },
    {
      "inputs": [
        {
          "components": [
            {
              "internalType": "address",
              "name": "admin",
              "type": "address"
            },
            {
              "internalType": "string",
              "name": "name",
              "type": "string"
            },
            {
              "internalType": "string",
              "name": "symbol",
              "type": "string"
            },
            {
              "internalType": "contract ITier",
              "name": "tier",
              "type": "address"
            },
            {
              "internalType": "enum ITier.Tier",
              "name": "minimumStatus",
              "type": "uint8"
            },
            {
              "internalType": "uint256",
              "name": "totalSupply",
              "type": "uint256"
            }
          ],
          "internalType": "struct RedeemableERC20Config",
          "name": "config_",
          "type": "tuple"
        }
      ],
      "name": "createChild",
      "outputs": [
        {
          "internalType": "address",
          "name": "",
          "type": "address"
        }
      ],
      "stateMutability": "nonpayable",
      "type": "function"
    },
    {
      "inputs": [
        {
          "internalType": "address",
          "name": "maybeChild_",
          "type": "address"
        }
      ],
      "name": "isChild",
      "outputs": [
        {
          "internalType": "bool",
          "name": "",
          "type": "bool"
        }
      ],
      "stateMutability": "nonpayable",
      "type": "function"
    }
  ],
  "bytecode": "0x608060405234801561001057600080fd5b506001600055614516806100256000396000f3fe60806040523480156200001157600080fd5b5060043610620000465760003560e01c80632ea72a49146200004b5780639bfa20bb146200007a578063fc91a8971462000091575b600080fd5b620000626200005c36600462000415565b620000b7565b60405162000071919062000667565b60405180910390f35b620000626200008b36600462000487565b6200019d565b620000a8620000a2366004620003d0565b62000257565b60405162000071919062000688565b60006002600054141562000102576040517f08c379a0000000000000000000000000000000000000000000000000000000008152600401620000f990620006a8565b60405180910390fd5b6002600090815562000115848462000282565b73ffffffffffffffffffffffffffffffffffffffff8116600081815260016020819052604080832080547fffffffffffffffffffffffffffffffffffffffffffffffffffffffffffffff00169092179091555192935090917f387ea218537e939551af33bbc2dd6c53b1fee55d377a0dce288258f972cb3a9c9190a260016000559392505050565b60003073ffffffffffffffffffffffffffffffffffffffff16632ea72a4983604051602001620001ce9190620006df565b6040516020818303038152906040526040518263ffffffff1660e01b8152600401620001fb919062000693565b602060405180830381600087803b1580156200021657600080fd5b505af11580156200022b573d6000803e3d6000fd5b505050506040513d601f19601f82011682018060405250810190620002519190620003f6565b92915050565b73ffffffffffffffffffffffffffffffffffffffff1660009081526001602052604090205460ff1690565b60006200028e620002e2565b6200029c83850185620004c2565b9050600081604051620002af9062000319565b620002bb9190620007d2565b604051809103906000f080158015620002d8573d6000803e3d6000fd5b5095945050505050565b6040805160c08101825260008082526060602083018190529282018390529181018290529060808201908152602001600081525090565b613b9d806200094483390190565b803562000251816200091d565b8035600981106200025157600080fd5b600082601f83011262000355578081fd5b813567ffffffffffffffff8111156200036c578182fd5b6200039f60207fffffffffffffffffffffffffffffffffffffffffffffffffffffffffffffffe0601f8401160162000888565b9150808252836020828501011115620003b757600080fd5b8060208401602084013760009082016020015292915050565b600060208284031215620003e2578081fd5b8135620003ef816200091d565b9392505050565b60006020828403121562000408578081fd5b8151620003ef816200091d565b6000806020838503121562000428578081fd5b823567ffffffffffffffff8082111562000440578283fd5b818501915085601f83011262000454578283fd5b81358181111562000463578384fd5b86602082850101111562000475578384fd5b60209290920196919550909350505050565b60006020828403121562000499578081fd5b813567ffffffffffffffff811115620004b0578182fd5b820160c08185031215620003ef578182fd5b600060208284031215620004d4578081fd5b813567ffffffffffffffff80821115620004ec578283fd5b9083019060c0828603121562000500578283fd5b6200050c60c062000888565b62000518868462000327565b81526020830135828111156200052c578485fd5b6200053a8782860162000344565b60208301525060408301358281111562000552578485fd5b620005608782860162000344565b60408301525062000575866060850162000327565b606082015262000589866080850162000334565b608082015260a083013560a082015280935050505092915050565b60008151808452815b81811015620005cb57602081850181015186830182015201620005ad565b81811115620005dd5782602083870101525b50601f017fffffffffffffffffffffffffffffffffffffffffffffffffffffffffffffffe0169290920160200192915050565b600981106200061b57fe5b9052565b600082845282826020860137806020848601015260207fffffffffffffffffffffffffffffffffffffffffffffffffffffffffffffffe0601f85011685010190509392505050565b73ffffffffffffffffffffffffffffffffffffffff91909116815260200190565b901515815260200190565b600060208252620003ef6020830184620005a4565b6020808252601f908201527f5265656e7472616e637947756172643a207265656e7472616e742063616c6c00604082015260600190565b6000602082528235620006f2816200091d565b73ffffffffffffffffffffffffffffffffffffffff80821660208501526200071e6020860186620008b0565b925060c060408601526200073760e0860184836200061f565b925050620007496040860186620008b0565b7fffffffffffffffffffffffffffffffffffffffffffffffffffffffffffffffe0868503016060870152620007808482846200061f565b93505050606085013562000794816200091d565b8181166080860152505060a08401620007b1816080870162000334565b620007c060a086018262000610565b503560c0939093019290925250919050565b60006020825273ffffffffffffffffffffffffffffffffffffffff808451166020840152602084015160c060408501526200081160e0850182620005a4565b905060408501517fffffffffffffffffffffffffffffffffffffffffffffffffffffffffffffffe08583030160608601526200084e8282620005a4565b915050816060860151166080850152608085015191506200087360a085018362000610565b60a085015160c0850152809250505092915050565b60405181810167ffffffffffffffff81118282101715620008a857600080fd5b604052919050565b60008083357fffffffffffffffffffffffffffffffffffffffffffffffffffffffffffffffe1843603018112620008e5578283fd5b830160208101925035905067ffffffffffffffff8111156200090657600080fd5b8036038313156200091657600080fd5b9250929050565b73ffffffffffffffffffffffffffffffffffffffff811681146200094057600080fd5b5056fe61018060405263ffffffff608081815260a082905260c082905260e08290526101008290526101208290526101408290526101609190915262000047906001906008620006f9565b503480156200005557600080fd5b5060405162003b9d38038062003b9d833981016040819052620000789162000909565b60208181015160408301516060840151600280546001600160a01b0319166001600160a01b0390921691909117905543600355815191929091620000c391600791908501906200079c565b508051620000d99060089060208401906200079c565b50506009805460ff19166012179055506001600a5560a0810151670de0b6b3a76400001115620001265760405162461bcd60e51b81526004016200011d9062000ab9565b60405180910390fd5b6080810151600c805460ff191660018360088111156200014257fe5b0217905550805162000157906000906200018f565b8051620001759060008051602062003b7d833981519152906200018f565b805160a08201516200018891906200019f565b5062000b57565b6200019b828262000284565b5050565b6001600160a01b038216620001c85760405162461bcd60e51b81526004016200011d9062000af0565b620001d660008383620002fd565b620001f2816006546200044a60201b6200136c1790919060201c565b6006556001600160a01b038216600090815260046020908152604090912054620002279183906200136c6200044a821b17901c565b6001600160a01b0383166000818152600460205260408082209390935591519091907fddf252ad1be2c89b69c2b068fc378daa952ba7f163c4a11628f55a4df523b3ef906200027890859062000b27565b60405180910390a35050565b600082815260208181526040909120620002a9918390620013ab6200047b821b17901c565b156200019b57620002b962000492565b6001600160a01b0316816001600160a01b0316837f2f8788117e7eff1d82e926ec794901d17c78024a50270940304540a733656f0d60405160405180910390a45050565b620003158383836200044560201b62000b791760201c565b6001600160a01b038216301415620003415760405162461bcd60e51b81526004016200011d9062000a90565b6000811180156200039d5750620003797fcf2b1209506b76f140fb1bc5fe66d6e42627c4b9703a951d65552f50f14c9ee78462000496565b806200039b57506200039b60008051602062003b7d8339815191528362000496565b155b1562000445576000620003af620004ba565b6008811115620003bb57fe5b1415620003fa57600c54620003d590839060ff1662000529565b620003f45760405162461bcd60e51b81526004016200011d9062000a17565b62000445565b600162000406620004ba565b60088111156200041257fe5b141562000443576001600160a01b03821615620003f45760405162461bcd60e51b81526004016200011d9062000a70565bfe5b505050565b600082820183811015620004725760405162461bcd60e51b81526004016200011d9062000a39565b90505b92915050565b600062000472836001600160a01b038416620005d5565b3390565b600082815260208181526040822062000472918490620013cd62000624821b17901c565b604080516101008101918290526000916200052491906001906008908286855b82829054906101000a900463ffffffff1663ffffffff1681526020019060040190602082600301049283019260010382029150808411620004da5750439450506200063b92505050565b905090565b60025460405163e053ea3160e01b8152600091620005c9916001600160a01b039091169063e053ea31906200056390879060040162000a03565b60206040518083038186803b1580156200057c57600080fd5b505afa15801562000591573d6000803e3d6000fd5b505050506040513d601f19601f82011682018060405250810190620005b79190620009ea565b836200069760201b620013ef1760201c565b60035410159392505050565b6000620005e38383620006e1565b6200061b5750815460018181018455600084815260208082209093018490558454848252828601909352604090209190915562000475565b50600062000475565b600062000472836001600160a01b038416620006e1565b6000805b60088110156200068e578381600881106200065657fe5b602002015163ffffffff168363ffffffff16101562000685578060088111156200067c57fe5b91505062000475565b6001016200063f565b50600862000472565b600080826008811115620006a757fe5b1415620006b75750600062000475565b60006001836008811115620006c857fe5b0360200290508084901c63ffffffff1691505092915050565b60009081526001919091016020526040902054151590565b6001830191839082156200078a5791602002820160005b838211156200075657835183826101000a81548163ffffffff021916908363ffffffff160217905550926020019260040160208160030104928301926001030262000710565b8015620007885782816101000a81549063ffffffff021916905560040160208160030104928301926001030262000756565b505b50620007989291506200081d565b5090565b828054600181600116156101000203166002900490600052602060002090601f016020900481019282601f10620007df57805160ff19168380011785556200080f565b828001600101855582156200080f579182015b828111156200080f578251825591602001919060010190620007f2565b50620007989291506200083b565b5b808211156200079857805463ffffffff191681556001016200081e565b5b808211156200079857600081556001016200083c565b80516001600160a01b03811681146200047557600080fd5b8051600981106200047557600080fd5b600082601f8301126200088b578081fd5b81516001600160401b03811115620008a1578182fd5b6020620008b7601f8301601f1916820162000b30565b92508183528481838601011115620008ce57600080fd5b60005b82811015620008ee578481018201518482018301528101620008d1565b82811115620009005760008284860101525b50505092915050565b6000602082840312156200091b578081fd5b81516001600160401b038082111562000932578283fd5b9083019060c0828603121562000946578283fd5b6200095260c062000b30565b6200095e868462000852565b815260208301518281111562000972578485fd5b62000980878286016200087a565b60208301525060408301518281111562000998578485fd5b620009a6878286016200087a565b604083015250620009bb866060850162000852565b6060820152620009cf86608085016200086a565b608082015260a083015160a082015280935050505092915050565b600060208284031215620009fc578081fd5b5051919050565b6001600160a01b0391909116815260200190565b60208082526008908201526726a4a72faa24a2a960c11b604082015260600190565b6020808252601b908201527f536166654d6174683a206164646974696f6e206f766572666c6f770000000000604082015260600190565b602080825260069082015265232927ad22a760d11b604082015260600190565b6020808252600f908201526e2a27a5a2a72fa9a2a7222fa9a2a62360891b604082015260600190565b60208082526016908201527f4d494e494d554d5f494e495449414c5f535550504c5900000000000000000000604082015260600190565b6020808252601f908201527f45524332303a206d696e7420746f20746865207a65726f206164647265737300604082015260600190565b90815260200190565b6040518181016001600160401b038111828210171562000b4f57600080fd5b604052919050565b6130168062000b676000396000f3fe608060405234801561001057600080fd5b50600436106102d35760003560e01c806381e45d9a11610186578063a9059cbb116100e3578063d547741f11610097578063de1533ba11610071578063de1533ba14610578578063f1ebd5dd1461058b578063fa5070a014610593576102d3565b8063d547741f1461053f578063db006a7514610552578063dd62ed3e14610565576102d3565b8063ad7430cc116100c8578063ad7430cc14610511578063c5c97ece14610519578063ca15c8731461052c576102d3565b8063a9059cbb146104f6578063ad3cb10314610509576102d3565b80639923c94b1161013a578063a217fddf1161011f578063a217fddf146104d3578063a30872db146104db578063a457c2d7146104e3576102d3565b80639923c94b146104ad5780639e46cb42146104c0576102d3565b806391d148541161016b57806391d148541461048a57806395d89b411461049d57806396773ebe146104a5576102d3565b806381e45d9a146104625780639010d07c1461046a576102d3565b806334c1df751161023457806353bcb325116101e857806370a08231116101cd57806370a082311461042957806377544f331461043c57806379cc67901461044f576102d3565b806353bcb325146104195780636050f2f814610421576102d3565b8063395093511161021957806339509351146103d357806342966c68146103e657806345bdfa8a146103f9576102d3565b806334c1df75146103ad57806336568abe146103c0576102d3565b80631c77bb2c1161028b578063248a9ca311610270578063248a9ca3146103705780632f2ff15d14610383578063313ce56714610398576102d3565b80631c77bb2c1461034857806323b872dd1461035d576102d3565b8063095ea7b3116102bc578063095ea7b31461030b5780630f0af57f1461032b57806318160ddd14610340576102d3565b8063055ad42e146102d857806306fdde03146102f6575b600080fd5b6102e061059b565b6040516102ed9190612616565b60405180910390f35b6102fe610606565b6040516102ed9190612629565b61031e6103193660046122fa565b6106ba565b6040516102ed9190612602565b6103336106d8565b6040516102ed919061260d565b6103336106de565b6103506106e4565b6040516102ed9190612592565b61031e61036b36600461228d565b61076a565b61033361037e36600461249e565b61080c565b6103966103913660046124b6565b610821565b005b6103a061088c565b6040516102ed9190612e57565b6102e06103bb3660046123fa565b610895565b6103966103ce3660046124b6565b6108ec565b61031e6103e13660046122fa565b610962565b6103966103f436600461249e565b6109bd565b61040c6104073660046123c9565b6109d1565b6040516102ed9190612e46565b6103a0610a19565b610333610a1e565b610333610437366004612239565b610a42565b61031e61044a3660046122cd565b610a6a565b61039661045d3660046122fa565b610b29565b61040c610b7e565b61047d6104783660046124da565b610ba2565b6040516102ed919061254b565b61031e6104983660046124b6565b610bba565b6102fe610bd2565b610333610c51565b61040c6104bb36600461249e565b610c75565b6103966104ce366004612239565b610ca2565b610333610e6f565b61047d610e74565b61031e6104f13660046122fa565b610e90565b61031e6105043660046122fa565b610f05565b610333610f19565b610333610f25565b610396610527366004612325565b610f49565b61033361053a36600461249e565b611163565b61039661054d3660046124b6565b61117a565b61039661056036600461249e565b6111ce565b610333610573366004612255565b61123f565b610396610586366004612239565b611277565b6102e061133f565b610333611348565b6040805161010081019182905260009161060191906001906008908286855b82829054906101000a900463ffffffff1663ffffffff16815260200190600401906020826003010492830192600103820291508084116105ba579050505050505043610895565b905090565b60078054604080516020601f60027fffffffffffffffffffffffffffffffffffffffffffffffffffffffffffffffff6101006001881615020190951694909404938401819004810282018101909252828152606093909290918301828280156106b05780601f10610685576101008083540402835291602001916106b0565b820191906000526020600020905b81548152906001019060200180831161069357829003601f168201915b5050505050905090565b60006106ce6106c7611435565b8484611439565b5060015b92915050565b60035481565b60065490565b6106ec61220f565b6106f461220f565b60005b600b5481101561076457600b818154811061070e57fe5b60009182526020909120015473ffffffffffffffffffffffffffffffffffffffff1682826008811061073c57fe5b73ffffffffffffffffffffffffffffffffffffffff90921660209290920201526001016106f7565b50905090565b6000610777848484611548565b61080184610783611435565b6107fc85604051806060016040528060288152602001612f706028913973ffffffffffffffffffffffffffffffffffffffff8a166000908152600560205260408120906107ce611435565b73ffffffffffffffffffffffffffffffffffffffff16815260208101919091526040016000205491906116d2565b611439565b5060015b9392505050565b60009081526020819052604090206002015490565b60008281526020819052604090206002015461083f90610498611435565b61087e576040517f08c379a000000000000000000000000000000000000000000000000000000000815260040161087590612734565b60405180910390fd5b6108888282611718565b5050565b60095460ff1690565b6000805b60088110156108e2578381600881106108ae57fe5b602002015163ffffffff168363ffffffff1610156108da578060088111156108d257fe5b9150506106d2565b600101610899565b5060089392505050565b6108f4611435565b73ffffffffffffffffffffffffffffffffffffffff168173ffffffffffffffffffffffffffffffffffffffff1614610958576040517f08c379a000000000000000000000000000000000000000000000000000000000815260040161087590612de9565b610888828261179b565b60006106ce61096f611435565b846107fc8560056000610980611435565b73ffffffffffffffffffffffffffffffffffffffff908116825260208083019390935260409182016000908120918c16815292529020549061136c565b6109ce6109c8611435565b8261181e565b50565b6000808260088111156109e057fe5b116109ec576000610805565b8260018360088111156109fb57fe5b0360088110610a0657fe5b6020020160208101906108059190612513565b600881565b7fcf2b1209506b76f140fb1bc5fe66d6e42627c4b9703a951d65552f50f14c9ee781565b73ffffffffffffffffffffffffffffffffffffffff1660009081526004602052604090205490565b6002546040517fe053ea31000000000000000000000000000000000000000000000000000000008152600091610b1d9173ffffffffffffffffffffffffffffffffffffffff9091169063e053ea3190610ac790879060040161254b565b60206040518083038186803b158015610adf57600080fd5b505afa158015610af3573d6000803e3d6000fd5b505050506040513d601f19601f82011682018060405250810190610b1791906124fb565b836113ef565b60035410159392505050565b6000610b5b82604051806060016040528060248152602001612f9860249139610b5486610573611435565b91906116d2565b9050610b6f83610b69611435565b83611439565b610b79838361181e565b505050565b7fffffffffffffffffffffffffffffffffffffffffffffffffffffffffffffffff81565b6000828152602081905260408120610805908361194e565b600082815260208190526040812061080590836113cd565b60088054604080516020601f60027fffffffffffffffffffffffffffffffffffffffffffffffffffffffffffffffff6101006001881615020190951694909404938401819004810282018101909252828152606093909290918301828280156106b05780601f10610685576101008083540402835291602001916106b0565b7fa67ce9b482cd7c7b30f4cea2f7e71abe8f7040cc572c570552199c488f160ad181565b60018160088110610c8257fe5b60089182820401919006600402915054906101000a900463ffffffff1681565b610ccc7fa638e6d52802f3ab217de611c9b2d0023a709998a8ce9b01094ec3fdb3ded4e233610bba565b610d02576040517f08c379a000000000000000000000000000000000000000000000000000000000815260040161087590612db2565b600b54600811610d3e576040517f08c379a000000000000000000000000000000000000000000000000000000000815260040161087590612d7b565b60005b600b54811015610dd1578173ffffffffffffffffffffffffffffffffffffffff16600b8281548110610d6f57fe5b60009182526020909120015473ffffffffffffffffffffffffffffffffffffffff161415610dc9576040517f08c379a000000000000000000000000000000000000000000000000000000000815260040161087590612901565b600101610d41565b50600b805460018101825560009182527f0175b7a638427703f0dbe7bb9bbf987a2551717b34e79f33b5b1008d1fa01db90180547fffffffffffffffffffffffff00000000000000000000000000000000000000001673ffffffffffffffffffffffffffffffffffffffff841690811790915560405190917fb13f4607b593ea2604915d68327d3eeebd48b806422db6340770caa204b0a8d391a250565b600081565b60025473ffffffffffffffffffffffffffffffffffffffff1681565b60006106ce610e9d611435565b846107fc85604051806060016040528060258152602001612fbc6025913960056000610ec7611435565b73ffffffffffffffffffffffffffffffffffffffff908116825260208083019390935260409182016000908120918d168152925290205491906116d2565b60006106ce610f12611435565b8484611548565b670de0b6b3a764000081565b7f94201143cc0a32610f14f8f185ebb23e4ca60f1758e49668647d0879b1e81f0b81565b600180610f5461059b565b6008811115610f5f57fe5b14610f96576040517f08c379a0000000000000000000000000000000000000000000000000000000008152600401610875906128ca565b6002600a541415610fd3576040517f08c379a000000000000000000000000000000000000000000000000000000000815260040161087590612d44565b6002600a556000610fe26106de565b9050610fee338461181e565b60005b845181101561115757600085828151811061100857fe5b6020026020010151905060006110b1846110ab888573ffffffffffffffffffffffffffffffffffffffff166370a08231306040518263ffffffff1660e01b8152600401611055919061254b565b60206040518083038186803b15801561106d57600080fd5b505afa158015611081573d6000803e3d6000fd5b505050506040513d601f19601f820116820180604052508101906110a591906124fb565b9061195a565b906119ae565b90508173ffffffffffffffffffffffffffffffffffffffff163373ffffffffffffffffffffffffffffffffffffffff167ff8eb02c03b445447861a4fda33b7470adf3b693b314b35a1efb8203edc28d65660405180604001604052808a81526020018581525060405161112491906125da565b60405180910390a361114d73ffffffffffffffffffffffffffffffffffffffff831633836119fa565b5050600101610ff1565b50506001600a55505050565b60008181526020819052604081206106d290611a9b565b60008281526020819052604090206002015461119890610498611435565b610958576040517f08c379a000000000000000000000000000000000000000000000000000000000815260040161087590612a03565b6109ce600b80548060200260200160405190810160405280929190818152602001828054801561123457602002820191906000526020600020905b815473ffffffffffffffffffffffffffffffffffffffff168152600190910190602001808311611209575b505050505082610f49565b73ffffffffffffffffffffffffffffffffffffffff918216600090815260056020908152604080832093909416825291909152205490565b60008061128261059b565b600881111561128d57fe5b146112c4576040517f08c379a0000000000000000000000000000000000000000000000000000000008152600401610875906128ca565b6112ee7fa67ce9b482cd7c7b30f4cea2f7e71abe8f7040cc572c570552199c488f160ad133610bba565b611324576040517f08c379a000000000000000000000000000000000000000000000000000000000815260040161087590612d0d565b61132d43611aa6565b6108888261133a84610a42565b61181e565b600c5460ff1681565b7fa638e6d52802f3ab217de611c9b2d0023a709998a8ce9b01094ec3fdb3ded4e281565b600082820183811015610805576040517f08c379a00000000000000000000000000000000000000000000000000000000081526004016108759061285c565b60006108058373ffffffffffffffffffffffffffffffffffffffff8416611c1c565b60006108058373ffffffffffffffffffffffffffffffffffffffff8416611c66565b6000808260088111156113fe57fe5b141561140c575060006106d2565b6000600183600881111561141c57fe5b0360200290508084901c63ffffffff1691505092915050565b3390565b73ffffffffffffffffffffffffffffffffffffffff8316611486576040517f08c379a000000000000000000000000000000000000000000000000000000000815260040161087590612c1c565b73ffffffffffffffffffffffffffffffffffffffff82166114d3576040517f08c379a0000000000000000000000000000000000000000000000000000000008152600401610875906127c8565b73ffffffffffffffffffffffffffffffffffffffff80841660008181526005602090815260408083209487168084529490915290819020849055517f8c5be1e5ebec7d5bd14f71427d1e84f3dd0314c0f7b2291e5b200ac8c7c3b9259061153b90859061260d565b60405180910390a3505050565b73ffffffffffffffffffffffffffffffffffffffff8316611595576040517f08c379a000000000000000000000000000000000000000000000000000000000815260040161087590612b88565b73ffffffffffffffffffffffffffffffffffffffff82166115e2576040517f08c379a0000000000000000000000000000000000000000000000000000000008152600401610875906126d7565b6115ed838383611c7e565b61163781604051806060016040528060268152602001612f4a6026913973ffffffffffffffffffffffffffffffffffffffff861660009081526004602052604090205491906116d2565b73ffffffffffffffffffffffffffffffffffffffff8085166000908152600460205260408082209390935590841681522054611673908261136c565b73ffffffffffffffffffffffffffffffffffffffff80841660008181526004602052604090819020939093559151908516907fddf252ad1be2c89b69c2b068fc378daa952ba7f163c4a11628f55a4df523b3ef9061153b90859061260d565b60008184841115611710576040517f08c379a00000000000000000000000000000000000000000000000000000000081526004016108759190612629565b505050900390565b600082815260208190526040902061173090826113ab565b156108885761173d611435565b73ffffffffffffffffffffffffffffffffffffffff168173ffffffffffffffffffffffffffffffffffffffff16837f2f8788117e7eff1d82e926ec794901d17c78024a50270940304540a733656f0d60405160405180910390a45050565b60008281526020819052604090206117b39082611e17565b15610888576117c0611435565b73ffffffffffffffffffffffffffffffffffffffff168173ffffffffffffffffffffffffffffffffffffffff16837ff6391f5c32d9c69d2a47ea670b442974b53935d1edc7fd64eb21e047a839171b60405160405180910390a45050565b73ffffffffffffffffffffffffffffffffffffffff821661186b576040517f08c379a000000000000000000000000000000000000000000000000000000000815260040161087590612b2b565b61187782600083611c7e565b6118c181604051806060016040528060228152602001612f286022913973ffffffffffffffffffffffffffffffffffffffff851660009081526004602052604090205491906116d2565b73ffffffffffffffffffffffffffffffffffffffff83166000908152600460205260409020556006546118f49082611e39565b60065560405160009073ffffffffffffffffffffffffffffffffffffffff8416907fddf252ad1be2c89b69c2b068fc378daa952ba7f163c4a11628f55a4df523b3ef9061194290859061260d565b60405180910390a35050565b60006108058383611e7b565b600082611969575060006106d2565b8282028284828161197657fe5b0414610805576040517f08c379a000000000000000000000000000000000000000000000000000000000815260040161087590612ace565b60008082116119e9576040517f08c379a0000000000000000000000000000000000000000000000000000000008152600401610875906129cc565b8183816119f257fe5b049392505050565b610b798363a9059cbb60e01b8484604051602401611a1992919061256c565b604080517fffffffffffffffffffffffffffffffffffffffffffffffffffffffffffffffe08184030181529190526020810180517bffffffffffffffffffffffffffffffffffffffffffffffffffffffff167fffffffff0000000000000000000000000000000000000000000000000000000090931692909217909152611eda565b60006106d282611f90565b8063ffffffff164363ffffffff161115611aec576040517f08c379a000000000000000000000000000000000000000000000000000000000815260040161087590612791565b63ffffffff81811610611b2b576040517f08c379a000000000000000000000000000000000000000000000000000000000815260040161087590612893565b6000611b3561059b565b6008811115611b4057fe5b905060018160088110611b4f57fe5b60088104919091015460079091166004026101000a900463ffffffff90811614611ba5576040517f08c379a000000000000000000000000000000000000000000000000000000000815260040161087590612be5565b611bae82611f94565b8160018260088110611bbc57fe5b600891828204019190066004026101000a81548163ffffffff021916908363ffffffff1602179055508163ffffffff167f260aac5b840edc27b89fdf50e91311a413363a400959466e1049e6d071b8cee260405160405180910390a25050565b6000611c288383611c66565b611c5e575081546001818101845560008481526020808220909301849055845484825282860190935260409020919091556106d2565b5060006106d2565b60009081526001919091016020526040902054151590565b611c89838383610b79565b73ffffffffffffffffffffffffffffffffffffffff8216301415611cd9576040517f08c379a000000000000000000000000000000000000000000000000000000000815260040161087590612a97565b600081118015611d405750611d0e7fcf2b1209506b76f140fb1bc5fe66d6e42627c4b9703a951d65552f50f14c9ee784610bba565b80611d3e5750611d3e7f94201143cc0a32610f14f8f185ebb23e4ca60f1758e49668647d0879b1e81f0b83610bba565b155b15610b79576000611d4f61059b565b6008811115611d5a57fe5b1415611dac57600c54611d7190839060ff16610a6a565b611da7576040517f08c379a000000000000000000000000000000000000000000000000000000000815260040161087590612825565b610b79565b6001611db661059b565b6008811115611dc157fe5b1415611e155773ffffffffffffffffffffffffffffffffffffffff821615611da7576040517f08c379a000000000000000000000000000000000000000000000000000000000815260040161087590612a60565bfe5b60006108058373ffffffffffffffffffffffffffffffffffffffff8416611fb9565b600082821115611e75576040517f08c379a000000000000000000000000000000000000000000000000000000000815260040161087590612938565b50900390565b81546000908210611eb8576040517f08c379a00000000000000000000000000000000000000000000000000000000081526004016108759061267a565b826000018281548110611ec757fe5b9060005260206000200154905092915050565b6060611f3c826040518060400160405280602081526020017f5361666545524332303a206c6f772d6c6576656c2063616c6c206661696c65648152508573ffffffffffffffffffffffffffffffffffffffff1661209d9092919063ffffffff16565b805190915015610b795780806020019051810190611f5a919061247e565b610b79576040517f08c379a000000000000000000000000000000000000000000000000000000000815260040161087590612cb0565b5490565b611f9d816109ce565b6002611fa761059b565b6008811115611fb257fe5b106109ce57fe5b600081815260018301602052604081205480156120935783547fffffffffffffffffffffffffffffffffffffffffffffffffffffffffffffffff808301919081019060009087908390811061200a57fe5b906000526020600020015490508087600001848154811061202757fe5b60009182526020808320909101929092558281526001898101909252604090209084019055865487908061205757fe5b600190038181906000526020600020016000905590558660010160008781526020019081526020016000206000905560019450505050506106d2565b60009150506106d2565b60606120ac84846000856120b4565b949350505050565b6060824710156120f0576040517f08c379a00000000000000000000000000000000000000000000000000000000081526004016108759061296f565b6120f9856121b6565b61212f576040517f08c379a000000000000000000000000000000000000000000000000000000000815260040161087590612c79565b600060608673ffffffffffffffffffffffffffffffffffffffff168587604051612159919061252f565b60006040518083038185875af1925050503d8060008114612196576040519150601f19603f3d011682016040523d82523d6000602084013e61219b565b606091505b50915091506121ab8282866121bc565b979650505050505050565b3b151590565b606083156121cb575081610805565b8251156121db5782518084602001fd5b816040517f08c379a00000000000000000000000000000000000000000000000000000000081526004016108759190612629565b6040518061010001604052806008906020820280368337509192915050565b80356106d281612ee6565b60006020828403121561224a578081fd5b813561080581612ee6565b60008060408385031215612267578081fd5b823561227281612ee6565b9150602083013561228281612ee6565b809150509250929050565b6000806000606084860312156122a1578081fd5b83356122ac81612ee6565b925060208401356122bc81612ee6565b929592945050506040919091013590565b600080604083850312156122df578182fd5b82356122ea81612ee6565b9150602083013561228281612f08565b6000806040838503121561230c578182fd5b823561231781612ee6565b946020939093013593505050565b60008060408385031215612337578182fd5b823567ffffffffffffffff81111561234d578283fd5b8301601f8101851361235d578283fd5b803561237061236b82612e8c565b612e65565b808282526020808301925080850189828387028801011115612390578788fd5b8795505b848610156123ba576123a68a8261222e565b845260019590950194928101928101612394565b50909896013596505050505050565b60008061012083850312156123dc578182fd5b6101008301848111156123ed578283fd5b8392503561228281612f08565b600080610120838503121561240d578182fd5b83601f84011261241b578182fd5b61010061242781612e65565b90840190808587841115612439578586fd5b855b600881101561246c57813563ffffffff81168114612457578788fd5b8452602093840193919091019060010161243b565b50909450509035905061228281612f15565b60006020828403121561248f578081fd5b81518015158114610805578182fd5b6000602082840312156124af578081fd5b5035919050565b600080604083850312156124c8578182fd5b82359150602083013561228281612ee6565b600080604083850312156124ec578182fd5b50508035926020909101359150565b60006020828403121561250c578081fd5b5051919050565b600060208284031215612524578081fd5b813561080581612f15565b60008251612541818460208701612eac565b9190910192915050565b73ffffffffffffffffffffffffffffffffffffffff91909116815260200190565b73ffffffffffffffffffffffffffffffffffffffff929092168252602082015260400190565b6101008101818360005b60088110156125d157815173ffffffffffffffffffffffffffffffffffffffff1683526020928301929091019060010161259c565b50505092915050565b60408101818360005b60028110156125d15781518352602092830192909101906001016125e3565b901515815260200190565b90815260200190565b6020810161262383612edc565b91905290565b6000602082528251806020840152612648816040850160208701612eac565b601f017fffffffffffffffffffffffffffffffffffffffffffffffffffffffffffffffe0169190910160400192915050565b60208082526022908201527f456e756d657261626c655365743a20696e646578206f7574206f6620626f756e60408201527f6473000000000000000000000000000000000000000000000000000000000000606082015260800190565b60208082526023908201527f45524332303a207472616e7366657220746f20746865207a65726f206164647260408201527f6573730000000000000000000000000000000000000000000000000000000000606082015260800190565b6020808252602f908201527f416363657373436f6e74726f6c3a2073656e646572206d75737420626520616e60408201527f2061646d696e20746f206772616e740000000000000000000000000000000000606082015260800190565b6020808252600f908201527f4e4558545f424c4f434b5f504153540000000000000000000000000000000000604082015260600190565b60208082526022908201527f45524332303a20617070726f766520746f20746865207a65726f20616464726560408201527f7373000000000000000000000000000000000000000000000000000000000000606082015260800190565b60208082526008908201527f4d494e5f54494552000000000000000000000000000000000000000000000000604082015260600190565b6020808252601b908201527f536166654d6174683a206164646974696f6e206f766572666c6f770000000000604082015260600190565b60208082526018908201527f4e4558545f424c4f434b5f554e494e495449414c495a45440000000000000000604082015260600190565b60208082526009908201527f4241445f50484153450000000000000000000000000000000000000000000000604082015260600190565b60208082526014908201527f4455504c49434154455f52454445454d41424c45000000000000000000000000604082015260600190565b6020808252601e908201527f536166654d6174683a207375627472616374696f6e206f766572666c6f770000604082015260600190565b60208082526026908201527f416464726573733a20696e73756666696369656e742062616c616e636520666f60408201527f722063616c6c0000000000000000000000000000000000000000000000000000606082015260800190565b6020808252601a908201527f536166654d6174683a206469766973696f6e206279207a65726f000000000000604082015260600190565b60208082526030908201527f416363657373436f6e74726f6c3a2073656e646572206d75737420626520616e60408201527f2061646d696e20746f207265766f6b6500000000000000000000000000000000606082015260800190565b60208082526006908201527f46524f5a454e0000000000000000000000000000000000000000000000000000604082015260600190565b6020808252600f908201527f544f4b454e5f53454e445f53454c460000000000000000000000000000000000604082015260600190565b60208082526021908201527f536166654d6174683a206d756c7469706c69636174696f6e206f766572666c6f60408201527f7700000000000000000000000000000000000000000000000000000000000000606082015260800190565b60208082526021908201527f45524332303a206275726e2066726f6d20746865207a65726f2061646472657360408201527f7300000000000000000000000000000000000000000000000000000000000000606082015260800190565b60208082526025908201527f45524332303a207472616e736665722066726f6d20746865207a65726f20616460408201527f6472657373000000000000000000000000000000000000000000000000000000606082015260800190565b6020808252600e908201527f4e4558545f424c4f434b5f534554000000000000000000000000000000000000604082015260600190565b60208082526024908201527f45524332303a20617070726f76652066726f6d20746865207a65726f2061646460408201527f7265737300000000000000000000000000000000000000000000000000000000606082015260800190565b6020808252601d908201527f416464726573733a2063616c6c20746f206e6f6e2d636f6e7472616374000000604082015260600190565b6020808252602a908201527f5361666545524332303a204552433230206f7065726174696f6e20646964206e60408201527f6f74207375636365656400000000000000000000000000000000000000000000606082015260800190565b60208082526017908201527f4f4e4c595f4449535452494255544f525f4255524e4552000000000000000000604082015260600190565b6020808252601f908201527f5265656e7472616e637947756172643a207265656e7472616e742063616c6c00604082015260600190565b6020808252600f908201527f4d41585f52454445454d41424c45530000000000000000000000000000000000604082015260600190565b60208082526015908201527f4f4e4c595f52454445454d41424c455f41444445520000000000000000000000604082015260600190565b6020808252602f908201527f416363657373436f6e74726f6c3a2063616e206f6e6c792072656e6f756e636560408201527f20726f6c657320666f722073656c660000000000000000000000000000000000606082015260800190565b63ffffffff91909116815260200190565b60ff91909116815260200190565b60405181810167ffffffffffffffff81118282101715612e8457600080fd5b604052919050565b600067ffffffffffffffff821115612ea2578081fd5b5060209081020190565b60005b83811015612ec7578181015183820152602001612eaf565b83811115612ed6576000848401525b50505050565b600981106109ce57fe5b73ffffffffffffffffffffffffffffffffffffffff811681146109ce57600080fd5b600981106109ce57600080fd5b63ffffffff811681146109ce57600080fdfe45524332303a206275726e20616d6f756e7420657863656564732062616c616e636545524332303a207472616e7366657220616d6f756e7420657863656564732062616c616e636545524332303a207472616e7366657220616d6f756e74206578636565647320616c6c6f77616e636545524332303a206275726e20616d6f756e74206578636565647320616c6c6f77616e636545524332303a2064656372656173656420616c6c6f77616e63652062656c6f77207a65726fa264697066735822122097785d1a59c4a0d7e4c121d7b36b16decf63adf5b8293aa587043d8f3ae7737964736f6c634300060c003394201143cc0a32610f14f8f185ebb23e4ca60f1758e49668647d0879b1e81f0ba264697066735822122078d384ab7558e524e0c871ce7ac9342033c1ce0ae772c9b823e343d2d958018964736f6c634300060c0033",
  "linkReferences": {},
  "deployedLinkReferences": {}
}