{
  "_format": "hh-sol-artifact-1",
  "contractName": "ClaimERC1155Test",
  "sourceName": "contracts/test/ClaimERC1155Test.sol",
  "abi": [
    {
      "inputs": [
        {
          "internalType": "contract IERC20",
          "name": "redeemableToken_",
          "type": "address"
        },
        {
          "internalType": "uint256[8]",
          "name": "tierValues_",
          "type": "uint256[8]"
        }
      ],
      "stateMutability": "nonpayable",
      "type": "constructor"
    },
    {
      "anonymous": false,
      "inputs": [
        {
          "indexed": true,
          "internalType": "address",
          "name": "account",
          "type": "address"
        },
        {
          "indexed": true,
          "internalType": "address",
          "name": "operator",
          "type": "address"
        },
        {
          "indexed": false,
          "internalType": "bool",
          "name": "approved",
          "type": "bool"
        }
      ],
      "name": "ApprovalForAll",
      "type": "event"
    },
    {
      "anonymous": false,
      "inputs": [
        {
          "indexed": true,
          "internalType": "address",
          "name": "account",
          "type": "address"
        },
        {
          "indexed": false,
          "internalType": "bytes",
          "name": "data",
          "type": "bytes"
        }
      ],
      "name": "Claim",
      "type": "event"
    },
    {
      "anonymous": false,
      "inputs": [
        {
          "indexed": true,
          "internalType": "address",
          "name": "account",
          "type": "address"
        },
        {
          "indexed": true,
          "internalType": "enum ITier.Tier",
          "name": "startTier",
          "type": "uint8"
        },
        {
          "indexed": true,
          "internalType": "enum ITier.Tier",
          "name": "endTier",
          "type": "uint8"
        }
      ],
      "name": "TierChange",
      "type": "event"
    },
    {
      "anonymous": false,
      "inputs": [
        {
          "indexed": true,
          "internalType": "address",
          "name": "operator",
          "type": "address"
        },
        {
          "indexed": true,
          "internalType": "address",
          "name": "from",
          "type": "address"
        },
        {
          "indexed": true,
          "internalType": "address",
          "name": "to",
          "type": "address"
        },
        {
          "indexed": false,
          "internalType": "uint256[]",
          "name": "ids",
          "type": "uint256[]"
        },
        {
          "indexed": false,
          "internalType": "uint256[]",
          "name": "values",
          "type": "uint256[]"
        }
      ],
      "name": "TransferBatch",
      "type": "event"
    },
    {
      "anonymous": false,
      "inputs": [
        {
          "indexed": true,
          "internalType": "address",
          "name": "operator",
          "type": "address"
        },
        {
          "indexed": true,
          "internalType": "address",
          "name": "from",
          "type": "address"
        },
        {
          "indexed": true,
          "internalType": "address",
          "name": "to",
          "type": "address"
        },
        {
          "indexed": false,
          "internalType": "uint256",
          "name": "id",
          "type": "uint256"
        },
        {
          "indexed": false,
          "internalType": "uint256",
          "name": "value",
          "type": "uint256"
        }
      ],
      "name": "TransferSingle",
      "type": "event"
    },
    {
      "anonymous": false,
      "inputs": [
        {
          "indexed": false,
          "internalType": "string",
          "name": "value",
          "type": "string"
        },
        {
          "indexed": true,
          "internalType": "uint256",
          "name": "id",
          "type": "uint256"
        }
      ],
      "name": "URI",
      "type": "event"
    },
    {
      "inputs": [],
      "name": "ART",
      "outputs": [
        {
          "internalType": "uint256",
          "name": "",
          "type": "uint256"
        }
      ],
      "stateMutability": "view",
      "type": "function"
    },
    {
      "inputs": [],
      "name": "GOOD_ART",
      "outputs": [
        {
          "internalType": "uint256",
          "name": "",
          "type": "uint256"
        }
      ],
      "stateMutability": "view",
      "type": "function"
    },
    {
      "inputs": [
        {
          "internalType": "address",
          "name": "account",
          "type": "address"
        },
        {
          "internalType": "uint256",
          "name": "id",
          "type": "uint256"
        }
      ],
      "name": "balanceOf",
      "outputs": [
        {
          "internalType": "uint256",
          "name": "",
          "type": "uint256"
        }
      ],
      "stateMutability": "view",
      "type": "function"
    },
    {
      "inputs": [
        {
          "internalType": "address[]",
          "name": "accounts",
          "type": "address[]"
        },
        {
          "internalType": "uint256[]",
          "name": "ids",
          "type": "uint256[]"
        }
      ],
      "name": "balanceOfBatch",
      "outputs": [
        {
          "internalType": "uint256[]",
          "name": "",
          "type": "uint256[]"
        }
      ],
      "stateMutability": "view",
      "type": "function"
    },
    {
      "inputs": [
        {
          "internalType": "address",
          "name": "account_",
          "type": "address"
        },
        {
          "internalType": "bytes",
          "name": "data_",
          "type": "bytes"
        }
      ],
      "name": "claim",
      "outputs": [],
      "stateMutability": "nonpayable",
      "type": "function"
    },
    {
      "inputs": [
        {
          "internalType": "address",
          "name": "",
          "type": "address"
        }
      ],
      "name": "claims",
      "outputs": [
        {
          "internalType": "bool",
          "name": "",
          "type": "bool"
        }
      ],
      "stateMutability": "view",
      "type": "function"
    },
    {
      "inputs": [],
      "name": "constructionBlock",
      "outputs": [
        {
          "internalType": "uint256",
          "name": "",
          "type": "uint256"
        }
      ],
      "stateMutability": "view",
      "type": "function"
    },
    {
      "inputs": [],
      "name": "erc20",
      "outputs": [
        {
          "internalType": "contract IERC20",
          "name": "",
          "type": "address"
        }
      ],
      "stateMutability": "view",
      "type": "function"
    },
    {
      "inputs": [
        {
          "internalType": "address",
          "name": "account",
          "type": "address"
        },
        {
          "internalType": "address",
          "name": "operator",
          "type": "address"
        }
      ],
      "name": "isApprovedForAll",
      "outputs": [
        {
          "internalType": "bool",
          "name": "",
          "type": "bool"
        }
      ],
      "stateMutability": "view",
      "type": "function"
    },
    {
      "inputs": [
        {
          "internalType": "address",
          "name": "account_",
          "type": "address"
        },
        {
          "internalType": "enum ITier.Tier",
          "name": "minimumTier_",
          "type": "uint8"
        }
      ],
      "name": "isTier",
      "outputs": [
        {
          "internalType": "bool",
          "name": "",
          "type": "bool"
        }
      ],
      "stateMutability": "view",
      "type": "function"
    },
    {
      "inputs": [],
      "name": "minimumTier",
      "outputs": [
        {
          "internalType": "enum ITier.Tier",
          "name": "",
          "type": "uint8"
        }
      ],
      "stateMutability": "view",
      "type": "function"
    },
    {
      "inputs": [
        {
          "internalType": "address",
          "name": "account_",
          "type": "address"
        }
      ],
      "name": "report",
      "outputs": [
        {
          "internalType": "uint256",
          "name": "",
          "type": "uint256"
        }
      ],
      "stateMutability": "view",
      "type": "function"
    },
    {
      "inputs": [
        {
          "internalType": "address",
          "name": "from",
          "type": "address"
        },
        {
          "internalType": "address",
          "name": "to",
          "type": "address"
        },
        {
          "internalType": "uint256[]",
          "name": "ids",
          "type": "uint256[]"
        },
        {
          "internalType": "uint256[]",
          "name": "amounts",
          "type": "uint256[]"
        },
        {
          "internalType": "bytes",
          "name": "data",
          "type": "bytes"
        }
      ],
      "name": "safeBatchTransferFrom",
      "outputs": [],
      "stateMutability": "nonpayable",
      "type": "function"
    },
    {
      "inputs": [
        {
          "internalType": "address",
          "name": "from",
          "type": "address"
        },
        {
          "internalType": "address",
          "name": "to",
          "type": "address"
        },
        {
          "internalType": "uint256",
          "name": "id",
          "type": "uint256"
        },
        {
          "internalType": "uint256",
          "name": "amount",
          "type": "uint256"
        },
        {
          "internalType": "bytes",
          "name": "data",
          "type": "bytes"
        }
      ],
      "name": "safeTransferFrom",
      "outputs": [],
      "stateMutability": "nonpayable",
      "type": "function"
    },
    {
      "inputs": [
        {
          "internalType": "address",
          "name": "operator",
          "type": "address"
        },
        {
          "internalType": "bool",
          "name": "approved",
          "type": "bool"
        }
      ],
      "name": "setApprovalForAll",
      "outputs": [],
      "stateMutability": "nonpayable",
      "type": "function"
    },
    {
      "inputs": [
        {
          "internalType": "address",
          "name": "",
          "type": "address"
        },
        {
          "internalType": "enum ITier.Tier",
          "name": "",
          "type": "uint8"
        },
        {
          "internalType": "bytes",
          "name": "",
          "type": "bytes"
        }
      ],
      "name": "setTier",
      "outputs": [],
      "stateMutability": "pure",
      "type": "function"
    },
    {
      "inputs": [
        {
          "internalType": "bytes4",
          "name": "interfaceId",
          "type": "bytes4"
        }
      ],
      "name": "supportsInterface",
      "outputs": [
        {
          "internalType": "bool",
          "name": "",
          "type": "bool"
        }
      ],
      "stateMutability": "view",
      "type": "function"
    },
    {
      "inputs": [],
      "name": "tierContract",
      "outputs": [
        {
          "internalType": "contract ITier",
          "name": "",
          "type": "address"
        }
      ],
      "stateMutability": "view",
      "type": "function"
    },
    {
      "inputs": [],
      "name": "tierValues",
      "outputs": [
        {
          "internalType": "uint256[8]",
          "name": "tierValues_",
          "type": "uint256[8]"
        }
      ],
      "stateMutability": "view",
      "type": "function"
    },
    {
      "inputs": [
        {
          "internalType": "uint256",
          "name": "",
          "type": "uint256"
        }
      ],
      "name": "uri",
      "outputs": [
        {
          "internalType": "string",
          "name": "",
          "type": "string"
        }
      ],
      "stateMutability": "view",
      "type": "function"
    }
  ],
  "bytecode": "0x6101c06040523480156200001257600080fd5b5060405162002bf738038062002bf78339810160408190526200003591620001c2565b604080518082018252601d81527f68747470733a2f2f6578616d706c652e636f6d2f7b69647d2e6a736f6e000000602080830191909152835160809081529084015160a09081529284015160c0908152606085015160e090815291850151610100529284015161012052918301516101405290820151610160526001600160a01b03831661018052600080546001600160a01b031916301790554360015560036101a052620000e481620000ed565b505050620002a8565b80516200010290600590602084019062000106565b5050565b82805462000114906200026b565b90600052602060002090601f01602090048101928262000138576000855562000183565b82601f106200015357805160ff191683800117855562000183565b8280016001018555821562000183579182015b828111156200018357825182559160200191906001019062000166565b506200019192915062000195565b5090565b5b8082111562000191576000815560010162000196565b634e487b7160e01b600052604160045260246000fd5b600080610120808486031215620001d857600080fd5b83516001600160a01b0381168114620001f057600080fd5b92506020603f850186136200020457600080fd5b60405161010081016001600160401b03811182821017156200022a576200022a620001ac565b6040529185019180878411156200024057600080fd5b8287015b848110156200025d578051825290830190830162000244565b509497909650945050505050565b600181811c908216806200028057607f821691505b60208210811415620002a257634e487b7160e01b600052602260045260246000fd5b50919050565b60805160a05160c05160e05161010051610120516101405161016051610180516101a0516128c562000332600039600081816103780152610bde01526000818161025f0152610e52015260006109a7015260006109810152600061095b015260006109350152600061090f015260006108e9015260006108c3015260006108a001526128c56000f3fe608060405234801561001057600080fd5b506004361061016b5760003560e01c8063785e9e86116100cd578063c6788bdd11610081578063e985e9c511610066578063e985e9c51461032a578063f1ebd5dd14610373578063f242432a146103a757600080fd5b8063c6788bdd146102f4578063e053ea311461031757600080fd5b8063a22cb465116100b2578063a22cb465146102ae578063a30872db146102c1578063bb1757cf146102e157600080fd5b8063785e9e861461025a5780639cb84a01146102a657600080fd5b80633acf301b1161012457806352dab69d1161010957806352dab69d1461021f57806370230b391461023257806377544f331461024757600080fd5b80633acf301b146101f75780634e1273f4146101ff57600080fd5b80630e89341c116101555780630e89341c146101b95780630f0af57f146101d95780632eb2c2d6146101e257600080fd5b8062fdd58e1461017057806301ffc9a714610196575b600080fd5b61018361017e366004611e76565b6103ba565b6040519081526020015b60405180910390f35b6101a96101a4366004611ed1565b61049c565b604051901515815260200161018d565b6101cc6101c7366004611eee565b61057f565b60405161018d9190611f72565b61018360015481565b6101f56101f0366004612126565b610613565b005b610183600181565b61021261020d3660046121d0565b6106dc565b60405161018d91906122d6565b6101f561022d3660046122f8565b610834565b61023a610896565b60405161018d9190612356565b6101a9610255366004612388565b6109ce565b6102817f000000000000000000000000000000000000000000000000000000000000000081565b60405173ffffffffffffffffffffffffffffffffffffffff909116815260200161018d565b610183600081565b6101f56102bc3660046123bb565b610a77565b6000546102819073ffffffffffffffffffffffffffffffffffffffff1681565b6101f56102ef3660046123f7565b610bb4565b6101a961030236600461243b565b60026020526000908152604090205460ff1681565b61018361032536600461243b565b610e03565b6101a9610338366004612456565b73ffffffffffffffffffffffffffffffffffffffff918216600090815260046020908152604080832093909416825291909152205460ff1690565b61039a7f000000000000000000000000000000000000000000000000000000000000000081565b60405161018d91906124af565b6101f56103b53660046124f0565b610ec9565b600073ffffffffffffffffffffffffffffffffffffffff8316610464576040517f08c379a000000000000000000000000000000000000000000000000000000000815260206004820152602b60248201527f455243313135353a2062616c616e636520717565727920666f7220746865207a60448201527f65726f206164647265737300000000000000000000000000000000000000000060648201526084015b60405180910390fd5b50600081815260036020908152604080832073ffffffffffffffffffffffffffffffffffffffff861684529091529020545b92915050565b60007fffffffff0000000000000000000000000000000000000000000000000000000082167fd9b67a2600000000000000000000000000000000000000000000000000000000148061052f57507fffffffff0000000000000000000000000000000000000000000000000000000082167f0e89341c00000000000000000000000000000000000000000000000000000000145b8061049657507f01ffc9a7000000000000000000000000000000000000000000000000000000007fffffffff00000000000000000000000000000000000000000000000000000000831614610496565b60606005805461058e90612555565b80601f01602080910402602001604051908101604052809291908181526020018280546105ba90612555565b80156106075780601f106105dc57610100808354040283529160200191610607565b820191906000526020600020905b8154815290600101906020018083116105ea57829003601f168201915b50505050509050919050565b73ffffffffffffffffffffffffffffffffffffffff851633148061063c575061063c8533610338565b6106c8576040517f08c379a000000000000000000000000000000000000000000000000000000000815260206004820152603260248201527f455243313135353a207472616e736665722063616c6c6572206973206e6f742060448201527f6f776e6572206e6f7220617070726f7665640000000000000000000000000000606482015260840161045b565b6106d58585858585610f8b565b5050505050565b6060815183511461076f576040517f08c379a000000000000000000000000000000000000000000000000000000000815260206004820152602960248201527f455243313135353a206163636f756e747320616e6420696473206c656e67746860448201527f206d69736d617463680000000000000000000000000000000000000000000000606482015260840161045b565b6000835167ffffffffffffffff81111561078b5761078b611f85565b6040519080825280602002602001820160405280156107b4578160200160208202803683370190505b50905060005b845181101561082c576107ff8582815181106107d8576107d86125a9565b60200260200101518583815181106107f2576107f26125a9565b60200260200101516103ba565b828281518110610811576108116125a9565b602090810291909101015261082581612607565b90506107ba565b509392505050565b6040517f08c379a000000000000000000000000000000000000000000000000000000000815260206004820152600860248201527f5345545f54494552000000000000000000000000000000000000000000000000604482015260640161045b565b61089e611e2e565b7f000000000000000000000000000000000000000000000000000000000000000081527f000000000000000000000000000000000000000000000000000000000000000060208201527f000000000000000000000000000000000000000000000000000000000000000060408201527f000000000000000000000000000000000000000000000000000000000000000060608201527f000000000000000000000000000000000000000000000000000000000000000060808201527f000000000000000000000000000000000000000000000000000000000000000060a08201527f000000000000000000000000000000000000000000000000000000000000000060c08201527f000000000000000000000000000000000000000000000000000000000000000060e082015290565b600080546040517fe053ea3100000000000000000000000000000000000000000000000000000000815273ffffffffffffffffffffffffffffffffffffffff8581166004830152610a6b92169063e053ea3190602401602060405180830381865afa158015610a41573d6000803e3d6000fd5b505050506040513d601f19601f82011682018060405250810190610a659190612640565b836112c8565b60015410159392505050565b3373ffffffffffffffffffffffffffffffffffffffff83161415610b1d576040517f08c379a000000000000000000000000000000000000000000000000000000000815260206004820152602960248201527f455243313135353a2073657474696e6720617070726f76616c2073746174757360448201527f20666f722073656c660000000000000000000000000000000000000000000000606482015260840161045b565b33600081815260046020908152604080832073ffffffffffffffffffffffffffffffffffffffff87168085529083529281902080547fffffffffffffffffffffffffffffffffffffffffffffffffffffffffffffff001686151590811790915590519081529192917f17307eab39ab6107e8899845ad3d59bd9653f200f220920489ca2b5937696c31910160405180910390a35050565b73ffffffffffffffffffffffffffffffffffffffff821660009081526002602052604090205482907f00000000000000000000000000000000000000000000000000000000000000009060ff1615610c68576040517f08c379a000000000000000000000000000000000000000000000000000000000815260206004820152600f60248201527f4455504c49434154455f434c41494d0000000000000000000000000000000000604482015260640161045b565b73ffffffffffffffffffffffffffffffffffffffff84166000818152600260205260409081902080547fffffffffffffffffffffffffffffffffffffffffffffffffffffffffffffff00166001179055517fa16751aa65ef03fb7261c0a125a84854295c191657bda7151d4396246b1bbeb490610ce6908690611f72565b60405180910390a26000546040517fe053ea3100000000000000000000000000000000000000000000000000000000815273ffffffffffffffffffffffffffffffffffffffff8087166004830152610d8d92879291169063e053ea3190602401602060405180830381865afa158015610d63573d6000803e3d6000fd5b505050506040513d601f19601f82011682018060405250810190610d879190612640565b85611327565b610d9782826109ce565b610dfd576040517f08c379a000000000000000000000000000000000000000000000000000000000815260206004820152600c60248201527f4d494e494d554d5f544945520000000000000000000000000000000000000000604482015260640161045b565b50505050565b6000610496816040517f70a0823100000000000000000000000000000000000000000000000000000000815273ffffffffffffffffffffffffffffffffffffffff8581166004830152610ec4917f0000000000000000000000000000000000000000000000000000000000000000909116906370a0823190602401602060405180830381865afa158015610e9b573d6000803e3d6000fd5b505050506040513d601f19601f82011682018060405250810190610ebf9190612640565b61143d565b6114a3565b73ffffffffffffffffffffffffffffffffffffffff8516331480610ef25750610ef28533610338565b610f7e576040517f08c379a000000000000000000000000000000000000000000000000000000000815260206004820152602960248201527f455243313135353a2063616c6c6572206973206e6f74206f776e6572206e6f7260448201527f20617070726f7665640000000000000000000000000000000000000000000000606482015260840161045b565b6106d585858585856114f3565b815183511461101c576040517f08c379a000000000000000000000000000000000000000000000000000000000815260206004820152602860248201527f455243313135353a2069647320616e6420616d6f756e7473206c656e6774682060448201527f6d69736d61746368000000000000000000000000000000000000000000000000606482015260840161045b565b73ffffffffffffffffffffffffffffffffffffffff84166110bf576040517f08c379a000000000000000000000000000000000000000000000000000000000815260206004820152602560248201527f455243313135353a207472616e7366657220746f20746865207a65726f20616460448201527f6472657373000000000000000000000000000000000000000000000000000000606482015260840161045b565b3360005b84518110156112335760008582815181106110e0576110e06125a9565b6020026020010151905060008583815181106110fe576110fe6125a9565b602090810291909101810151600084815260038352604080822073ffffffffffffffffffffffffffffffffffffffff8e1683529093529190912054909150818110156111cc576040517f08c379a000000000000000000000000000000000000000000000000000000000815260206004820152602a60248201527f455243313135353a20696e73756666696369656e742062616c616e636520666f60448201527f72207472616e7366657200000000000000000000000000000000000000000000606482015260840161045b565b600083815260036020908152604080832073ffffffffffffffffffffffffffffffffffffffff8e8116855292528083208585039055908b16825281208054849290611218908490612659565b925050819055505050508061122c90612607565b90506110c3565b508473ffffffffffffffffffffffffffffffffffffffff168673ffffffffffffffffffffffffffffffffffffffff168273ffffffffffffffffffffffffffffffffffffffff167f4a39dc06d4c0dbc64b70af90fd698a233a518aa5d07e595d983b8c0526c8f7fb87876040516112aa929190612671565b60405180910390a46112c0818787878787611731565b505050505050565b6000808260088111156112dd576112dd612480565b14156112eb57506000610496565b6000600183600881111561130157611301612480565b61130b919061269f565b6113169060206126b6565b9390931c63ffffffff169392505050565b60006113348460056109ce565b6040805160028082526060820183529293506000929091602083019080368337505060408051600280825260608201835293945060009390925090602083019080368337019050509050600082600081518110611393576113936125a9565b6020026020010181815250506001826001815181106113b4576113b46125a9565b602002602001018181525050826113cc5760016113cf565b60025b60ff16816000815181106113e5576113e56125a9565b602002602001018181525050826113fd576000611400565b60015b60ff1681600181518110611416576114166125a9565b6020026020010181815250506112c0868383604051806020016040528060008152506119bc565b6000805b600881101561149a57611452610896565b8160088110611463576114636125a9565b60200201518310156114885780600881111561148157611481612480565b9392505050565b8061149281612607565b915050611441565b50600892915050565b6000808260088111156114b8576114b8612480565b6114c39060206126b6565b7fffffffffffffffffffffffffffffffffffffffffffffffffffffffffffffffff811c901b841791505092915050565b73ffffffffffffffffffffffffffffffffffffffff8416611596576040517f08c379a000000000000000000000000000000000000000000000000000000000815260206004820152602560248201527f455243313135353a207472616e7366657220746f20746865207a65726f20616460448201527f6472657373000000000000000000000000000000000000000000000000000000606482015260840161045b565b336115af8187876115a688611c36565b6106d588611c36565b600084815260036020908152604080832073ffffffffffffffffffffffffffffffffffffffff8a1684529091529020548381101561166f576040517f08c379a000000000000000000000000000000000000000000000000000000000815260206004820152602a60248201527f455243313135353a20696e73756666696369656e742062616c616e636520666f60448201527f72207472616e7366657200000000000000000000000000000000000000000000606482015260840161045b565b600085815260036020908152604080832073ffffffffffffffffffffffffffffffffffffffff8b81168552925280832087850390559088168252812080548692906116bb908490612659565b9091555050604080518681526020810186905273ffffffffffffffffffffffffffffffffffffffff808916928a821692918616917fc3d58168c5ae7397731d063d5bbf3d657854427343f4c083240f7aacaa2d0f62910160405180910390a4611728828888888888611c81565b50505050505050565b73ffffffffffffffffffffffffffffffffffffffff84163b156112c0576040517fbc197c8100000000000000000000000000000000000000000000000000000000815273ffffffffffffffffffffffffffffffffffffffff85169063bc197c81906117a890899089908890889088906004016126f3565b6020604051808303816000875af1925050508015611801575060408051601f3d9081017fffffffffffffffffffffffffffffffffffffffffffffffffffffffffffffffe01682019092526117fe9181019061275e565b60015b6118eb5761180d61277b565b806308c379a014156118615750611822612797565b8061182d5750611863565b806040517f08c379a000000000000000000000000000000000000000000000000000000000815260040161045b9190611f72565b505b6040517f08c379a000000000000000000000000000000000000000000000000000000000815260206004820152603460248201527f455243313135353a207472616e7366657220746f206e6f6e204552433131353560448201527f526563656976657220696d706c656d656e746572000000000000000000000000606482015260840161045b565b7fffffffff0000000000000000000000000000000000000000000000000000000081167fbc197c810000000000000000000000000000000000000000000000000000000014611728576040517f08c379a000000000000000000000000000000000000000000000000000000000815260206004820152602860248201527f455243313135353a204552433131353552656365697665722072656a6563746560448201527f6420746f6b656e73000000000000000000000000000000000000000000000000606482015260840161045b565b73ffffffffffffffffffffffffffffffffffffffff8416611a5f576040517f08c379a000000000000000000000000000000000000000000000000000000000815260206004820152602160248201527f455243313135353a206d696e7420746f20746865207a65726f2061646472657360448201527f7300000000000000000000000000000000000000000000000000000000000000606482015260840161045b565b8151835114611af0576040517f08c379a000000000000000000000000000000000000000000000000000000000815260206004820152602860248201527f455243313135353a2069647320616e6420616d6f756e7473206c656e6774682060448201527f6d69736d61746368000000000000000000000000000000000000000000000000606482015260840161045b565b3360005b8451811015611ba757838181518110611b0f57611b0f6125a9565b602002602001015160036000878481518110611b2d57611b2d6125a9565b6020026020010151815260200190815260200160002060008873ffffffffffffffffffffffffffffffffffffffff1673ffffffffffffffffffffffffffffffffffffffff1681526020019081526020016000206000828254611b8f9190612659565b90915550819050611b9f81612607565b915050611af4565b508473ffffffffffffffffffffffffffffffffffffffff16600073ffffffffffffffffffffffffffffffffffffffff168273ffffffffffffffffffffffffffffffffffffffff167f4a39dc06d4c0dbc64b70af90fd698a233a518aa5d07e595d983b8c0526c8f7fb8787604051611c1f929190612671565b60405180910390a46106d581600087878787611731565b60408051600180825281830190925260609160009190602080830190803683370190505090508281600081518110611c7057611c706125a9565b602090810291909101015292915050565b73ffffffffffffffffffffffffffffffffffffffff84163b156112c0576040517ff23a6e6100000000000000000000000000000000000000000000000000000000815273ffffffffffffffffffffffffffffffffffffffff85169063f23a6e6190611cf8908990899088908890889060040161283f565b6020604051808303816000875af1925050508015611d51575060408051601f3d9081017fffffffffffffffffffffffffffffffffffffffffffffffffffffffffffffffe0168201909252611d4e9181019061275e565b60015b611d5d5761180d61277b565b7fffffffff0000000000000000000000000000000000000000000000000000000081167ff23a6e610000000000000000000000000000000000000000000000000000000014611728576040517f08c379a000000000000000000000000000000000000000000000000000000000815260206004820152602860248201527f455243313135353a204552433131353552656365697665722072656a6563746560448201527f6420746f6b656e73000000000000000000000000000000000000000000000000606482015260840161045b565b6040518061010001604052806008906020820280368337509192915050565b803573ffffffffffffffffffffffffffffffffffffffff81168114611e7157600080fd5b919050565b60008060408385031215611e8957600080fd5b611e9283611e4d565b946020939093013593505050565b7fffffffff0000000000000000000000000000000000000000000000000000000081168114611ece57600080fd5b50565b600060208284031215611ee357600080fd5b813561148181611ea0565b600060208284031215611f0057600080fd5b5035919050565b6000815180845260005b81811015611f2d57602081850181015186830182015201611f11565b81811115611f3f576000602083870101525b50601f017fffffffffffffffffffffffffffffffffffffffffffffffffffffffffffffffe0169290920160200192915050565b6020815260006114816020830184611f07565b7f4e487b7100000000000000000000000000000000000000000000000000000000600052604160045260246000fd5b7fffffffffffffffffffffffffffffffffffffffffffffffffffffffffffffffe0601f830116810181811067ffffffffffffffff82111715611ff857611ff8611f85565b6040525050565b600067ffffffffffffffff82111561201957612019611f85565b5060051b60200190565b600082601f83011261203457600080fd5b8135602061204182611fff565b60405161204e8282611fb4565b83815260059390931b850182019282810191508684111561206e57600080fd5b8286015b848110156120895780358352918301918301612072565b509695505050505050565b600082601f8301126120a557600080fd5b813567ffffffffffffffff8111156120bf576120bf611f85565b6040516120f460207fffffffffffffffffffffffffffffffffffffffffffffffffffffffffffffffe0601f8501160182611fb4565b81815284602083860101111561210957600080fd5b816020850160208301376000918101602001919091529392505050565b600080600080600060a0868803121561213e57600080fd5b61214786611e4d565b945061215560208701611e4d565b9350604086013567ffffffffffffffff8082111561217257600080fd5b61217e89838a01612023565b9450606088013591508082111561219457600080fd5b6121a089838a01612023565b935060808801359150808211156121b657600080fd5b506121c388828901612094565b9150509295509295909350565b600080604083850312156121e357600080fd5b823567ffffffffffffffff808211156121fb57600080fd5b818501915085601f83011261220f57600080fd5b8135602061221c82611fff565b6040516122298282611fb4565b83815260059390931b850182019282810191508984111561224957600080fd5b948201945b8386101561226e5761225f86611e4d565b8252948201949082019061224e565b9650508601359250508082111561228457600080fd5b5061229185828601612023565b9150509250929050565b600081518084526020808501945080840160005b838110156122cb578151875295820195908201906001016122af565b509495945050505050565b602081526000611481602083018461229b565b803560098110611e7157600080fd5b60008060006060848603121561230d57600080fd5b61231684611e4d565b9250612324602085016122e9565b9150604084013567ffffffffffffffff81111561234057600080fd5b61234c86828701612094565b9150509250925092565b6101008101818360005b600881101561237f578151835260209283019290910190600101612360565b50505092915050565b6000806040838503121561239b57600080fd5b6123a483611e4d565b91506123b2602084016122e9565b90509250929050565b600080604083850312156123ce57600080fd5b6123d783611e4d565b9150602083013580151581146123ec57600080fd5b809150509250929050565b6000806040838503121561240a57600080fd5b61241383611e4d565b9150602083013567ffffffffffffffff81111561242f57600080fd5b61229185828601612094565b60006020828403121561244d57600080fd5b61148182611e4d565b6000806040838503121561246957600080fd5b61247283611e4d565b91506123b260208401611e4d565b7f4e487b7100000000000000000000000000000000000000000000000000000000600052602160045260246000fd5b60208101600983106124ea577f4e487b7100000000000000000000000000000000000000000000000000000000600052602160045260246000fd5b91905290565b600080600080600060a0868803121561250857600080fd5b61251186611e4d565b945061251f60208701611e4d565b93506040860135925060608601359150608086013567ffffffffffffffff81111561254957600080fd5b6121c388828901612094565b600181811c9082168061256957607f821691505b602082108114156125a3577f4e487b7100000000000000000000000000000000000000000000000000000000600052602260045260246000fd5b50919050565b7f4e487b7100000000000000000000000000000000000000000000000000000000600052603260045260246000fd5b7f4e487b7100000000000000000000000000000000000000000000000000000000600052601160045260246000fd5b60007fffffffffffffffffffffffffffffffffffffffffffffffffffffffffffffffff821415612639576126396125d8565b5060010190565b60006020828403121561265257600080fd5b5051919050565b6000821982111561266c5761266c6125d8565b500190565b604081526000612684604083018561229b565b8281036020840152612696818561229b565b95945050505050565b6000828210156126b1576126b16125d8565b500390565b6000817fffffffffffffffffffffffffffffffffffffffffffffffffffffffffffffffff04831182151516156126ee576126ee6125d8565b500290565b600073ffffffffffffffffffffffffffffffffffffffff808816835280871660208401525060a0604083015261272c60a083018661229b565b828103606084015261273e818661229b565b905082810360808401526127528185611f07565b98975050505050505050565b60006020828403121561277057600080fd5b815161148181611ea0565b600060033d11156127945760046000803e5060005160e01c5b90565b600060443d10156127a55790565b6040517ffffffffffffffffffffffffffffffffffffffffffffffffffffffffffffffffc803d016004833e81513d67ffffffffffffffff81602484011181841117156127f357505050505090565b828501915081518181111561280b5750505050505090565b843d87010160208285010111156128255750505050505090565b61283460208286010187611fb4565b509095945050505050565b600073ffffffffffffffffffffffffffffffffffffffff808816835280871660208401525084604083015283606083015260a0608083015261288460a0830184611f07565b97965050505050505056fea26469706673582212203c85196e7ad979798d717e7548923f6b507c46abc5845d17473b19e9489cd51d64736f6c634300080a0033",
  "linkReferences": {},
  "deployedLinkReferences": {}
}