{
  "address": "0x49f2FA2A024a0EddC6bb39D034cd4A535a869944",
  "abi": [
    {
      "inputs": [],
      "stateMutability": "nonpayable",
      "type": "constructor"
    },
    {
      "anonymous": false,
      "inputs": [
        {
          "indexed": false,
          "internalType": "address",
          "name": "sender",
          "type": "address"
        },
        {
          "components": [
            {
              "internalType": "address",
              "name": "expressionDeployer",
              "type": "address"
            },
            {
              "internalType": "address",
              "name": "interpreter",
              "type": "address"
            },
            {
              "internalType": "uint256",
              "name": "combinedTiersLength",
              "type": "uint256"
            },
            {
              "components": [
                {
                  "internalType": "bytes[]",
                  "name": "sources",
                  "type": "bytes[]"
                },
                {
                  "internalType": "uint256[]",
                  "name": "constants",
                  "type": "uint256[]"
                }
              ],
              "internalType": "struct StateConfig",
              "name": "stateConfig",
              "type": "tuple"
            }
          ],
          "indexed": false,
          "internalType": "struct CombineTierConfig",
          "name": "config",
          "type": "tuple"
        }
      ],
      "name": "Initialize",
      "type": "event"
    },
    {
      "anonymous": false,
      "inputs": [
        {
          "indexed": false,
          "internalType": "uint8",
          "name": "version",
          "type": "uint8"
        }
      ],
      "name": "Initialized",
      "type": "event"
    },
    {
      "inputs": [
        {
          "components": [
            {
              "internalType": "address",
              "name": "expressionDeployer",
              "type": "address"
            },
            {
              "internalType": "address",
              "name": "interpreter",
              "type": "address"
            },
            {
              "internalType": "uint256",
              "name": "combinedTiersLength",
              "type": "uint256"
            },
            {
              "components": [
                {
                  "internalType": "bytes[]",
                  "name": "sources",
                  "type": "bytes[]"
                },
                {
                  "internalType": "uint256[]",
                  "name": "constants",
                  "type": "uint256[]"
                }
              ],
              "internalType": "struct StateConfig",
              "name": "stateConfig",
              "type": "tuple"
            }
          ],
          "internalType": "struct CombineTierConfig",
          "name": "config_",
          "type": "tuple"
        }
      ],
      "name": "initialize",
      "outputs": [],
      "stateMutability": "nonpayable",
      "type": "function"
    },
    {
      "inputs": [
        {
          "internalType": "address",
          "name": "account_",
          "type": "address"
        },
        {
          "internalType": "uint256[]",
          "name": "callerContext_",
          "type": "uint256[]"
        }
      ],
      "name": "report",
      "outputs": [
        {
          "internalType": "uint256",
          "name": "",
          "type": "uint256"
        }
      ],
      "stateMutability": "view",
      "type": "function"
    },
    {
      "inputs": [
        {
          "internalType": "address",
          "name": "account_",
          "type": "address"
        },
        {
          "internalType": "uint256",
          "name": "tier_",
          "type": "uint256"
        },
        {
          "internalType": "uint256[]",
          "name": "callerContext_",
          "type": "uint256[]"
        }
      ],
      "name": "reportTimeForTier",
      "outputs": [
        {
          "internalType": "uint256",
          "name": "",
          "type": "uint256"
        }
      ],
      "stateMutability": "view",
      "type": "function"
    },
    {
      "inputs": [
        {
          "internalType": "bytes4",
          "name": "interfaceId_",
          "type": "bytes4"
        }
      ],
      "name": "supportsInterface",
      "outputs": [
        {
          "internalType": "bool",
          "name": "",
          "type": "bool"
        }
      ],
      "stateMutability": "view",
      "type": "function"
    }
  ],
  "transactionHash": "0x38ae4bd8169aaf9075c8cfd2daaa8be18b6d6d427f32b5b83f33103fc156f8ab",
  "args": [],
  "numDeployments": 1,
  "bytecode": "0x608060405234801561001057600080fd5b5061001961001e565b6100de565b600054610100900460ff161561008a5760405162461bcd60e51b815260206004820152602760248201527f496e697469616c697a61626c653a20636f6e747261637420697320696e697469604482015266616c697a696e6760c81b606482015260840160405180910390fd5b60005460ff90811610156100dc576000805460ff191660ff9081179091556040519081527f7f26b83ff96e1f2b6a682f133852f6798a09c465da95921460cefb38474024989060200160405180910390a15b565b611b86806100ed6000396000f3fe608060405234801561001057600080fd5b506004361061004c5760003560e01c806301ffc9a71461005157806388d6860414610079578063caa0eb3b1461009a578063e264df5d146100ad575b600080fd5b61006461005f366004611225565b6100c2565b60405190151581526020015b60405180910390f35b61008c61008736600461138e565b61015b565b604051908152602001610070565b61008c6100a83660046113de565b6102fa565b6100c06100bb366004611437565b610463565b005b60007fffffffff0000000000000000000000000000000000000000000000000000000082167f42766d3f00000000000000000000000000000000000000000000000000000000148061015557507f01ffc9a7000000000000000000000000000000000000000000000000000000007fffffffff000000000000000000000000000000000000000000000000000000008316145b92915050565b603354603454600091829173ffffffffffffffffffffffffffffffffffffffff909116906390e7d00b9060201b77ffffffffffffffffffffffffffffffffffffffff00000000166001176102396101cf6101ca8973ffffffffffffffffffffffffffffffffffffffff16610851565b610883565b604080516000808252602082019092528991610233565b6102206040518060600160405280600073ffffffffffffffffffffffffffffffffffffffff16815260200160608152602001606081525090565b8152602001906001900390816101e65790505b506108c1565b6040518363ffffffff1660e01b8152600401610256929190611472565b600060405180830381865afa158015610273573d6000803e3d6000fd5b505050506040513d6000823e601f3d9081017fffffffffffffffffffffffffffffffffffffffffffffffffffffffffffffffe01682016040526102b9919081019061157d565b5080519091506102f29060209081028301015b7fffffffffffffffffffffffffffffffffffffffffffffffffffffffffffffffe0015190565b949350505050565b603354603454600091829173ffffffffffffffffffffffffffffffffffffffff909116906390e7d00b906201000160209190911b77ffffffffffffffffffffffffffffffffffffffff0000000016176103c16101cf6101ca8a73ffffffffffffffffffffffffffffffffffffffff168a610c58565b6103a96040518060600160405280600073ffffffffffffffffffffffffffffffffffffffff16815260200160608152602001606081525090565b81526020019060019003908161036f579050506108c1565b6040518363ffffffff1660e01b81526004016103de929190611472565b600060405180830381865afa1580156103fb573d6000803e3d6000fd5b505050506040513d6000823e601f3d9081017fffffffffffffffffffffffffffffffffffffffffffffffffffffffffffffffe0168201604052610441919081019061157d565b5080519091506104589060209081028301016102cc565b9150505b9392505050565b600054610100900460ff16158080156104835750600054600160ff909116105b8061049d5750303b15801561049d575060005460ff166001145b61052e576040517f08c379a000000000000000000000000000000000000000000000000000000000815260206004820152602e60248201527f496e697469616c697a61626c653a20636f6e747261637420697320616c72656160448201527f647920696e697469616c697a656400000000000000000000000000000000000060648201526084015b60405180910390fd5b600080547fffffffffffffffffffffffffffffffffffffffffffffffffffffffffffffff00166001179055801561058c57600080547fffffffffffffffffffffffffffffffffffffffffffffffffffffffffffff00ff166101001790555b610594610c8c565b6105a460408301602084016115d7565b603380547fffffffffffffffffffffffff00000000000000000000000000000000000000001673ffffffffffffffffffffffffffffffffffffffff929092169190911790556105f660208301836115d7565b73ffffffffffffffffffffffffffffffffffffffff16631ed061d961061e60608501856115f4565b610629600180610c58565b6040518363ffffffff1660e01b8152600401610646929190611838565b6020604051808303816000875af1158015610665573d6000803e3d6000fd5b505050506040513d601f19601f82011682018060405250810190610689919061188f565b603480547fffffffffffffffffffffffff00000000000000000000000000000000000000001673ffffffffffffffffffffffffffffffffffffffff9290921691909117905560005b82604001358110156107b0576107386106ed60608501856115f4565b6106fb9060208101906118ac565b8381811061070b5761070b611914565b905060200201357f42766d3f00000000000000000000000000000000000000000000000000000000610d2d565b61079e576040517f08c379a000000000000000000000000000000000000000000000000000000000815260206004820152600d60248201527f4552433136355f544945525632000000000000000000000000000000000000006044820152606401610525565b806107a881611943565b9150506106d1565b507fad7ea6ddb5e5e1fe4978dd3efc0dcd8185585afe500bff3f3f903108083646f033836040516107e29291906119a2565b60405180910390a1801561084d57600080547fffffffffffffffffffffffffffffffffffffffffffffffffffffffffffff00ff169055604051600181527f7f26b83ff96e1f2b6a682f133852f6798a09c465da95921460cefb38474024989060200160405180910390a15b5050565b604080516001808252818301909252606091600091906020808301908036833750505060208101939093525090919050565b60408051600180825281830190925260609160009190816020015b606081526020019060019003908161089e57505060208101939093525090919050565b60606000825167ffffffffffffffff8111156108df576108df61128c565b604051908082528060200260200182016040528015610908578160200160208202803683370190505b50905060008084511161091c576000610922565b83516001015b865101600201905060008167ffffffffffffffff8111156109455761094561128c565b60405190808252806020026020018201604052801561097857816020015b60608152602001906001900390816109635790505b5090506000610985610d49565b82828151811061099757610997611914565b602002602001018190525060005b88518110156109f55781806001019250508881815181106109c8576109c8611914565b60200260200101518383815181106109e2576109e2611914565b60209081029190910101526001016109a5565b50808060010191505086828281518110610a1157610a11611914565b6020908102919091010152855115610c4d57808060010191505083828281518110610a3e57610a3e611914565b602002602001018190525060005b8651811015610c4b57610b48878281518110610a6a57610a6a611914565b602002602001015160000151610b25898481518110610a8b57610a8b611914565b602002602001015160400151604051602001610aa79190611a44565b604080517fffffffffffffffffffffffffffffffffffffffffffffffffffffffffffffffe081840301815282825280516020918201207f19457468657265756d205369676e6564204d6573736167653a0a33320000000084830152603c8085019190915282518085039091018152605c909301909152815191012090565b898481518110610b3757610b37611914565b602002602001015160200151610d5a565b610bae576040517f08c379a000000000000000000000000000000000000000000000000000000000815260206004820152601160248201527f494e56414c49445f5349474e41545552450000000000000000000000000000006044820152606401610525565b868181518110610bc057610bc0611914565b60200260200101516000015173ffffffffffffffffffffffffffffffffffffffff16858281518110610bf457610bf4611914565b6020026020010181815250508180600101925050868181518110610c1a57610c1a611914565b602002602001015160400151838381518110610c3857610c38611914565b6020908102919091010152600101610a4c565b505b509695505050505050565b6040805160028082526060808301845292600092919060208301908036833750505060208101949094525050604082015290565b600054610100900460ff16610d23576040517f08c379a000000000000000000000000000000000000000000000000000000000815260206004820152602b60248201527f496e697469616c697a61626c653a20636f6e7472616374206973206e6f74206960448201527f6e697469616c697a696e670000000000000000000000000000000000000000006064820152608401610525565b610d2b610f27565b565b6000610d3883610fbe565b801561045c575061045c8383611022565b6060610d553330610c58565b905090565b6000806000610d6985856110f1565b90925090506000816004811115610d8257610d82611a7a565b148015610dba57508573ffffffffffffffffffffffffffffffffffffffff168273ffffffffffffffffffffffffffffffffffffffff16145b15610dca5760019250505061045c565b6000808773ffffffffffffffffffffffffffffffffffffffff16631626ba7e60e01b8888604051602401610dff929190611acd565b604080517fffffffffffffffffffffffffffffffffffffffffffffffffffffffffffffffe08184030181529181526020820180517bffffffffffffffffffffffffffffffffffffffffffffffffffffffff167fffffffff00000000000000000000000000000000000000000000000000000000909416939093179092529051610e889190611b25565b600060405180830381855afa9150503d8060008114610ec3576040519150601f19603f3d011682016040523d82523d6000602084013e610ec8565b606091505b5091509150818015610edb575080516020145b8015610f1b575080517f1626ba7e0000000000000000000000000000000000000000000000000000000090610f199083016020908101908401611b37565b145b98975050505050505050565b600054610100900460ff16610d2b576040517f08c379a000000000000000000000000000000000000000000000000000000000815260206004820152602b60248201527f496e697469616c697a61626c653a20636f6e7472616374206973206e6f74206960448201527f6e697469616c697a696e670000000000000000000000000000000000000000006064820152608401610525565b6000610fea827f01ffc9a700000000000000000000000000000000000000000000000000000000611022565b8015610155575061101b827fffffffff00000000000000000000000000000000000000000000000000000000611022565b1592915050565b604080517fffffffff000000000000000000000000000000000000000000000000000000008316602480830191909152825180830390910181526044909101909152602080820180517bffffffffffffffffffffffffffffffffffffffffffffffffffffffff167f01ffc9a700000000000000000000000000000000000000000000000000000000178152825160009392849283928392918391908a617530fa92503d915060005190508280156110da575060208210155b80156110e65750600081115b979650505050505050565b60008082516041036111275760208301516040840151606085015160001a61111b87828585611136565b9450945050505061112f565b506000905060025b9250929050565b6000807f7fffffffffffffffffffffffffffffff5d576e7357a4501ddfe92f46681b20a083111561116d575060009050600361121c565b6040805160008082526020820180845289905260ff881692820192909252606081018690526080810185905260019060a0016020604051602081039080840390855afa1580156111c1573d6000803e3d6000fd5b50506040517fffffffffffffffffffffffffffffffffffffffffffffffffffffffffffffffe0015191505073ffffffffffffffffffffffffffffffffffffffff81166112155760006001925092505061121c565b9150600090505b94509492505050565b60006020828403121561123757600080fd5b81357fffffffff000000000000000000000000000000000000000000000000000000008116811461045c57600080fd5b73ffffffffffffffffffffffffffffffffffffffff8116811461128957600080fd5b50565b7f4e487b7100000000000000000000000000000000000000000000000000000000600052604160045260246000fd5b604051601f82017fffffffffffffffffffffffffffffffffffffffffffffffffffffffffffffffe016810167ffffffffffffffff811182821017156113025761130261128c565b604052919050565b600067ffffffffffffffff8211156113245761132461128c565b5060051b60200190565b600082601f83011261133f57600080fd5b8135602061135461134f8361130a565b6112bb565b82815260059290921b8401810191818101908684111561137357600080fd5b8286015b84811015610c4d5780358352918301918301611377565b600080604083850312156113a157600080fd5b82356113ac81611267565b9150602083013567ffffffffffffffff8111156113c857600080fd5b6113d48582860161132e565b9150509250929050565b6000806000606084860312156113f357600080fd5b83356113fe81611267565b925060208401359150604084013567ffffffffffffffff81111561142157600080fd5b61142d8682870161132e565b9150509250925092565b60006020828403121561144957600080fd5b813567ffffffffffffffff81111561146057600080fd5b82016080818503121561045c57600080fd5b600060408201848352602060408185015281855180845260608601915060608160051b87010193508287016000805b83811015611513578887037fffffffffffffffffffffffffffffffffffffffffffffffffffffffffffffffa0018552825180518089529087019087890190845b818110156114fd578351835292890192918901916001016114e1565b50909850505093850193918501916001016114a1565b50949998505050505050505050565b600082601f83011261153357600080fd5b8151602061154361134f8361130a565b82815260059290921b8401810191818101908684111561156257600080fd5b8286015b84811015610c4d5780518352918301918301611566565b6000806040838503121561159057600080fd5b825167ffffffffffffffff808211156115a857600080fd5b6115b486838701611522565b935060208501519150808211156115ca57600080fd5b506113d485828601611522565b6000602082840312156115e957600080fd5b813561045c81611267565b600082357fffffffffffffffffffffffffffffffffffffffffffffffffffffffffffffffc183360301811261162857600080fd5b9190910192915050565b60008083357fffffffffffffffffffffffffffffffffffffffffffffffffffffffffffffffe184360301811261166757600080fd5b830160208101925035905067ffffffffffffffff81111561168757600080fd5b8060051b360382131561112f57600080fd5b8183528181602085013750600060208284010152600060207fffffffffffffffffffffffffffffffffffffffffffffffffffffffffffffffe0601f840116840101905092915050565b81835260007f07ffffffffffffffffffffffffffffffffffffffffffffffffffffffffffffff83111561171457600080fd5b8260051b80836020870137939093016020019392505050565b60006040830161173d8384611632565b604086528281845260608701905060608260051b88010193508260005b83811015611809577fffffffffffffffffffffffffffffffffffffffffffffffffffffffffffffffa089870301835281357fffffffffffffffffffffffffffffffffffffffffffffffffffffffffffffffe18636030181126117bb57600080fd5b8501602081810191359067ffffffffffffffff8211156117da57600080fd5b8136038313156117e957600080fd5b6117f4898385611699565b9850948501949390930192505060010161175a565b505050505061181b6020840184611632565b858303602087015261182e8382846116e2565b9695505050505050565b60408152600061184b604083018561172d565b82810360208481019190915284518083528582019282019060005b8181101561188257845183529383019391830191600101611866565b5090979650505050505050565b6000602082840312156118a157600080fd5b815161045c81611267565b60008083357fffffffffffffffffffffffffffffffffffffffffffffffffffffffffffffffe18436030181126118e157600080fd5b83018035915067ffffffffffffffff8211156118fc57600080fd5b6020019150600581901b360382131561112f57600080fd5b7f4e487b7100000000000000000000000000000000000000000000000000000000600052603260045260246000fd5b60007fffffffffffffffffffffffffffffffffffffffffffffffffffffffffffffffff820361199b577f4e487b7100000000000000000000000000000000000000000000000000000000600052601160045260246000fd5b5060010190565b600073ffffffffffffffffffffffffffffffffffffffff80851683526040602084015283356119d081611267565b8116604084015260208401356119e581611267565b818116606085015250506040830135608083015260608301357fffffffffffffffffffffffffffffffffffffffffffffffffffffffffffffffc1843603018112611a2e57600080fd5b608060a084015261045860c0840185830161172d565b815160009082906020808601845b83811015611a6e57815185529382019390820190600101611a52565b50929695505050505050565b7f4e487b7100000000000000000000000000000000000000000000000000000000600052602160045260246000fd5b60005b83811015611ac4578181015183820152602001611aac565b50506000910152565b8281526040602082015260008251806040840152611af2816060850160208701611aa9565b601f017fffffffffffffffffffffffffffffffffffffffffffffffffffffffffffffffe016919091016060019392505050565b60008251611628818460208701611aa9565b600060208284031215611b4957600080fd5b505191905056fea264697066735822122094b929f3a17f414be1924c8ccea5a58a08c01caad08b425f0145fe687b94d0d364736f6c63430008110033",
  "devdoc": {
    "kind": "dev",
    "methods": {},
    "title": "CombineTier",
    "version": 1
  },
  "userdoc": {
    "kind": "user",
    "methods": {
      "report(address,uint256[])": {
        "notice": "Returns an 8 tier encoded report of 32 bit timestamps for the given account. Same as `ITier` (legacy interface) but with a list of values for `context` which allows a single underlying state to present many different reports dynamically. For example: - Staking ledgers can calculate different tier thresholds - NFTs can give different tiers based on different IDs - Snapshot ERC20s can give different reports based on snapshot ID `context` supercedes `setTier` function and `TierChange` event from `ITier` at the interface level."
      },
      "reportTimeForTier(address,uint256,uint256[])": {
        "notice": "Same as report but only returns the time for a single tier. Often the implementing contract can calculate a single tier more efficiently than all 8 tiers. If the consumer only needs one or a few tiers it MAY be much cheaper to request only those tiers individually. This DOES NOT apply to all contracts, an obvious example is token balance based tiers which always return `ALWAYS` or `NEVER` for all tiers so no efficiency is gained. The return value is a `uint256` for gas efficiency but the values will be bounded by `type(uint32).max` as no single tier can report a value higher than this."
      }
    },
    "notice": "Allows combining the reports from any `ITierV2` contracts. The value at the top of the stack after executing the Rain expression will be used as the return of all `ITierV2` functions exposed by `CombineTier`.",
    "version": 1
  }
}