{
  "address": "0x2d140b156f70dC9701eDbC9951B97cF0C5C6dF2b",
  "abi": [
    {
      "inputs": [],
      "stateMutability": "nonpayable",
      "type": "constructor"
    },
    {
      "anonymous": false,
      "inputs": [
        {
          "indexed": false,
          "internalType": "address",
          "name": "sender",
          "type": "address"
        },
        {
          "indexed": false,
          "internalType": "address",
          "name": "implementation",
          "type": "address"
        }
      ],
      "name": "Implementation",
      "type": "event"
    },
    {
      "anonymous": false,
      "inputs": [
        {
          "indexed": false,
          "internalType": "uint8",
          "name": "version",
          "type": "uint8"
        }
      ],
      "name": "Initialized",
      "type": "event"
    },
    {
      "anonymous": false,
      "inputs": [
        {
          "indexed": false,
          "internalType": "address",
          "name": "sender",
          "type": "address"
        },
        {
          "indexed": false,
          "internalType": "address",
          "name": "child",
          "type": "address"
        }
      ],
      "name": "NewChild",
      "type": "event"
    },
    {
      "inputs": [
        {
          "internalType": "bytes",
          "name": "data_",
          "type": "bytes"
        }
      ],
      "name": "createChild",
      "outputs": [
        {
          "internalType": "address",
          "name": "",
          "type": "address"
        }
      ],
      "stateMutability": "nonpayable",
      "type": "function"
    },
    {
      "inputs": [
        {
          "components": [
            {
              "components": [
                {
                  "internalType": "bytes[]",
                  "name": "sources",
                  "type": "bytes[]"
                },
                {
                  "internalType": "uint256[]",
                  "name": "constants",
                  "type": "uint256[]"
                }
              ],
              "internalType": "struct StateConfig",
              "name": "stateConfig",
              "type": "tuple"
            },
            {
              "components": [
                {
                  "internalType": "address",
                  "name": "expressionDeployer",
                  "type": "address"
                },
                {
                  "internalType": "address",
                  "name": "interpreter",
                  "type": "address"
                },
                {
                  "components": [
                    {
                      "internalType": "bytes[]",
                      "name": "sources",
                      "type": "bytes[]"
                    },
                    {
                      "internalType": "uint256[]",
                      "name": "constants",
                      "type": "uint256[]"
                    }
                  ],
                  "internalType": "struct StateConfig[]",
                  "name": "flows",
                  "type": "tuple[]"
                }
              ],
              "internalType": "struct FlowCommonConfig",
              "name": "flowConfig",
              "type": "tuple"
            }
          ],
          "internalType": "struct FlowConfig",
          "name": "config_",
          "type": "tuple"
        }
      ],
      "name": "createChildTyped",
      "outputs": [
        {
          "internalType": "contract Flow",
          "name": "",
          "type": "address"
        }
      ],
      "stateMutability": "nonpayable",
      "type": "function"
    },
    {
      "inputs": [],
      "name": "implementation",
      "outputs": [
        {
          "internalType": "address",
          "name": "",
          "type": "address"
        }
      ],
      "stateMutability": "view",
      "type": "function"
    },
    {
      "inputs": [
        {
          "internalType": "address",
          "name": "maybeChild_",
          "type": "address"
        }
      ],
      "name": "isChild",
      "outputs": [
        {
          "internalType": "bool",
          "name": "",
          "type": "bool"
        }
      ],
      "stateMutability": "view",
      "type": "function"
    }
  ],
  "transactionHash": "0xd2d58a1788030f8298b60bfe445d8dd2ae02087cf62a2afe59e65234f5232290",
  "args": [],
  "numDeployments": 1,
  "solcInputHash": "1fa6bfe645f535814f43adf1e3e7e059",
  "bytecode": "0x60a060405234801561001057600080fd5b50610019610099565b600060405161002790610159565b604051809103906000f080158015610043573d6000803e3d6000fd5b50604080513381526001600160a01b03831660208201529192507f7fac34ecf0b1b374cd9659e3d17db602659d53f1162b1f20142e6c02694aed70910160405180910390a16001600160a01b0316608052610166565b600054610100900460ff16156101055760405162461bcd60e51b815260206004820152602760248201527f496e697469616c697a61626c653a20636f6e747261637420697320696e697469604482015266616c697a696e6760c81b606482015260840160405180910390fd5b60005460ff9081161015610157576000805460ff191660ff9081179091556040519081527f7f26b83ff96e1f2b6a682f133852f6798a09c465da95921460cefb38474024989060200160405180910390a15b565b6138f180610fdb83390190565b608051610e54610187600039600081816093015261031a0152610e546000f3fe608060405234801561001057600080fd5b506004361061004c5760003560e01c80632ea72a49146100515780635c60da1b1461008e578063745e1b1b146100b5578063fc91a897146100c8575b600080fd5b61006461005f3660046105f6565b610111565b60405173ffffffffffffffffffffffffffffffffffffffff90911681526020015b60405180910390f35b6100647f000000000000000000000000000000000000000000000000000000000000000081565b6100646100c33660046107c2565b610257565b6101016100d6366004610918565b73ffffffffffffffffffffffffffffffffffffffff1660009081526033602052604090205460ff1690565b6040519015158152602001610085565b600061011b610287565b6000610126836102fa565b73ffffffffffffffffffffffffffffffffffffffff811660009081526033602052604090205490915060ff16156101be576040517f08c379a000000000000000000000000000000000000000000000000000000000815260206004820152600f60248201527f4455504c49434154455f4348494c44000000000000000000000000000000000060448201526064015b60405180910390fd5b73ffffffffffffffffffffffffffffffffffffffff811660008181526033602090815260409182902080547fffffffffffffffffffffffffffffffffffffffffffffffffffffffffffffff001660011790558151338152908101929092527f7da70c4e5387d7038610b79ca7d304caaef815826e51e67cf247135387a79bce910160405180910390a1905061025260018055565b919050565b60006102818260405160200161026d9190610a6e565b604051602081830303815290604052610111565b92915050565b6002600154036102f3576040517f08c379a000000000000000000000000000000000000000000000000000000000815260206004820152601f60248201527f5265656e7472616e637947756172643a207265656e7472616e742063616c6c0060448201526064016101b5565b6002600155565b600080828060200190518101906103119190610ce1565b9050600061033e7f00000000000000000000000000000000000000000000000000000000000000006103cd565b6040517f81e6a71100000000000000000000000000000000000000000000000000000000815290915073ffffffffffffffffffffffffffffffffffffffff8216906381e6a71190610393908590600401610a6e565b600060405180830381600087803b1580156103ad57600080fd5b505af11580156103c1573d6000803e3d6000fd5b50929695505050505050565b6000763d602d80600a3d3981f3363d3d373d3d3d363d730000008260601b60e81c176000526e5af43d82803e903d91602b57fd5bf38260781b17602052603760096000f0905073ffffffffffffffffffffffffffffffffffffffff8116610252576040517f08c379a000000000000000000000000000000000000000000000000000000000815260206004820152601660248201527f455243313136373a20637265617465206661696c65640000000000000000000060448201526064016101b5565b7f4e487b7100000000000000000000000000000000000000000000000000000000600052604160045260246000fd5b6040805190810167ffffffffffffffff811182821017156104e2576104e2610490565b60405290565b6040516060810167ffffffffffffffff811182821017156104e2576104e2610490565b604051601f82017fffffffffffffffffffffffffffffffffffffffffffffffffffffffffffffffe016810167ffffffffffffffff8111828210171561055257610552610490565b604052919050565b600067ffffffffffffffff82111561057457610574610490565b50601f017fffffffffffffffffffffffffffffffffffffffffffffffffffffffffffffffe01660200190565b600082601f8301126105b157600080fd5b81356105c46105bf8261055a565b61050b565b8181528460208386010111156105d957600080fd5b816020850160208301376000918101602001919091529392505050565b60006020828403121561060857600080fd5b813567ffffffffffffffff81111561061f57600080fd5b61062b848285016105a0565b949350505050565b600067ffffffffffffffff82111561064d5761064d610490565b5060051b60200190565b600082601f83011261066857600080fd5b813560206106786105bf83610633565b82815260059290921b8401810191818101908684111561069757600080fd5b8286015b848110156106b2578035835291830191830161069b565b509695505050505050565b6000604082840312156106cf57600080fd5b6106d76104bf565b9050813567ffffffffffffffff808211156106f157600080fd5b818401915084601f83011261070557600080fd5b813560206107156105bf83610633565b82815260059290921b8401810191818101908884111561073457600080fd5b8286015b8481101561076c578035868111156107505760008081fd5b61075e8b86838b01016105a0565b845250918301918301610738565b508652508581013593508284111561078357600080fd5b61078f87858801610657565b818601525050505092915050565b73ffffffffffffffffffffffffffffffffffffffff811681146107bf57600080fd5b50565b600060208083850312156107d557600080fd5b823567ffffffffffffffff808211156107ed57600080fd5b908401906040828703121561080157600080fd5b6108096104bf565b82358281111561081857600080fd5b610824888286016106bd565b825250838301358281111561083857600080fd5b92909201916060838803121561084d57600080fd5b6108556104e8565b83356108608161079d565b81528385013561086f8161079d565b8186015260408401358381111561088557600080fd5b80850194505087601f85011261089a57600080fd5b83356108a86105bf82610633565b81815260059190911b8501860190868101908a8311156108c757600080fd5b8787015b838110156108ff578035878111156108e35760008081fd5b6108f18d8b838c01016106bd565b8452509188019188016108cb565b5060408401525050938101939093525090949350505050565b60006020828403121561092a57600080fd5b81356109358161079d565b9392505050565b60005b8381101561095757818101518382015260200161093f565b50506000910152565b600081518084526020808501945080840160005b8381101561099057815187529582019590820190600101610974565b509495945050505050565b60006040830182516040855281815180845260608701915060608160051b88010193506020808401935060005b82811015610a4a577fffffffffffffffffffffffffffffffffffffffffffffffffffffffffffffffa089870301845284518051808852610a0d81858a0186850161093c565b601f017fffffffffffffffffffffffffffffffffffffffffffffffffffffffffffffffe016969096018201955093810193928101926001016109c8565b5080870151935087850381890152505050610a658282610960565b95945050505050565b600060208083528351604082850152610a8a606085018261099b565b9050818501517fffffffffffffffffffffffffffffffffffffffffffffffffffffffffffffffe08583030160408601526060820173ffffffffffffffffffffffffffffffffffffffff8083511684528085840151168585015250604082015191506060604084015280825180835260808501915060808160051b8601019250858401935060005b81811015610b5d577fffffffffffffffffffffffffffffffffffffffffffffffffffffffffffffff80868503018352610b4b84865161099b565b94870194935091860191600101610b11565b509198975050505050505050565b600082601f830112610b7c57600080fd5b81516020610b8c6105bf83610633565b82815260059290921b84018101918181019086841115610bab57600080fd5b8286015b848110156106b25780518352918301918301610baf565b60006040808385031215610bd957600080fd5b610be16104bf565b9150825167ffffffffffffffff80821115610bfb57600080fd5b818501915085601f830112610c0f57600080fd5b81516020610c1f6105bf83610633565b82815260059290921b84018101918181019089841115610c3e57600080fd5b8286015b84811015610caf57805186811115610c5a5760008081fd5b8701603f81018c13610c6c5760008081fd5b84810151610c7c6105bf8261055a565b8181528d8b838501011115610c915760008081fd5b610ca0828883018d860161093c565b85525050918301918301610c42565b5087525086810151945082851115610cc657600080fd5b610cd288868901610b6b565b81870152505050505092915050565b60006020808385031215610cf457600080fd5b825167ffffffffffffffff80821115610d0c57600080fd5b9084019060408287031215610d2057600080fd5b610d286104bf565b825182811115610d3757600080fd5b610d4388828601610bc6565b8252508383015182811115610d5757600080fd5b929092019160608388031215610d6c57600080fd5b610d746104e8565b8351610d7f8161079d565b815283850151610d8e8161079d565b81860152604084015183811115610da457600080fd5b80850194505087601f850112610db957600080fd5b8351610dc76105bf82610633565b81815260059190911b8501860190868101908a831115610de657600080fd5b8787015b838110156108ff57805187811115610e025760008081fd5b610e108d8b838c0101610bc6565b845250918801918801610dea56fea2646970667358221220819730667f9f1eb2497ca38cae7c2e587832ea423d83828c09a001e785285d6864736f6c6343000811003360806040523480156200001157600080fd5b506200001c62000022565b620000e4565b600054610100900460ff16156200008f5760405162461bcd60e51b815260206004820152602760248201527f496e697469616c697a61626c653a20636f6e747261637420697320696e697469604482015266616c697a696e6760c81b606482015260840160405180910390fd5b60005460ff9081161015620000e2576000805460ff191660ff9081179091556040519081527f7f26b83ff96e1f2b6a682f133852f6798a09c465da95921460cefb38474024989060200160405180910390a15b565b6137fd80620000f46000396000f3fe60806040526004361061007f5760003560e01c8063ac9650d81161004e578063ac9650d814610146578063ae910b3d14610173578063bc197c81146101a0578063f23a6e61146101e557600080fd5b806301ffc9a71461008b578063150b7a02146100c0578063522fb10b1461011157806381e6a7111461012657600080fd5b3661008657005b600080fd5b34801561009757600080fd5b506100ab6100a636600461254d565b61022a565b60405190151581526020015b60405180910390f35b3480156100cc57600080fd5b506100e06100db36600461270c565b6102c3565b6040517fffffffff0000000000000000000000000000000000000000000000000000000090911681526020016100b7565b61012461011f3660046127fc565b6102ed565b005b34801561013257600080fd5b50610124610141366004612968565b61033e565b34801561015257600080fd5b506101666101613660046129a3565b610527565b6040516100b79190612adb565b34801561017f57600080fd5b5061019361018e3660046127fc565b61061c565b6040516100b79190612bdd565b3480156101ac57600080fd5b506100e06101bb366004612cd2565b7fbc197c810000000000000000000000000000000000000000000000000000000095945050505050565b3480156101f157600080fd5b506100e0610200366004612d80565b7ff23a6e610000000000000000000000000000000000000000000000000000000095945050505050565b60007fffffffff0000000000000000000000000000000000000000000000000000000082167f4e2312e00000000000000000000000000000000000000000000000000000000014806102bd57507f01ffc9a7000000000000000000000000000000000000000000000000000000007fffffffff000000000000000000000000000000000000000000000000000000008316145b92915050565b7f150b7a02000000000000000000000000000000000000000000000000000000005b949350505050565b6102f5610660565b6000806103038585856106d3565b61012d54919350915061032e90839073ffffffffffffffffffffffffffffffffffffffff168361072d565b505061033960018055565b505050565b600054610100900460ff161580801561035e5750600054600160ff909116105b806103785750303b158015610378575060005460ff166001145b610409576040517f08c379a000000000000000000000000000000000000000000000000000000000815260206004820152602e60248201527f496e697469616c697a61626c653a20636f6e747261637420697320616c72656160448201527f647920696e697469616c697a656400000000000000000000000000000000000060648201526084015b60405180910390fd5b600080547fffffffffffffffffffffffffffffffffffffffffffffffffffffffffffffff00166001179055801561046757600080547fffffffffffffffffffffffffffffffffffffffffffffffffffffffffffff00ff166101001790555b6104876104776020840184612de9565b61048090612e27565b60046107dd565b7fb8d34ea9112583c0d2407f9fed96f7cead0ef0015a7c3e6da620e7b95e13eb8d33836040516104b8929190613221565b60405180910390a1801561052357600080547fffffffffffffffffffffffffffffffffffffffffffffffffffffffffffff00ff169055604051600181527f7f26b83ff96e1f2b6a682f133852f6798a09c465da95921460cefb38474024989060200160405180910390a15b5050565b60608167ffffffffffffffff811115610542576105426125b4565b60405190808252806020026020018201604052801561057557816020015b60608152602001906001900390816105605790505b50905060005b82811015610615576105e53085858481811061059957610599613382565b90506020028101906105ab91906133b1565b8080601f016020809104026020016040519081016040528093929190818152602001838380828437600092019190915250610aab92505050565b8282815181106105f7576105f7613382565b6020026020010181905250808061060d90613416565b91505061057b565b5092915050565b6106476040518060800160405280606081526020016060815260200160608152602001606081525090565b60006106548585856106d3565b509150505b9392505050565b6002600154036106cc576040517f08c379a000000000000000000000000000000000000000000000000000000000815260206004820152601f60248201527f5265656e7472616e637947756172643a207265656e7472616e742063616c6c006044820152606401610400565b6002600155565b6106fe6040518060800160405280606081526020016060815260200160608152602001606081525090565b60606000806000610710888888610bea565b9250925092506107208383610d72565b9890975095505050505050565b8051156107b9576040517fce0dd62800000000000000000000000000000000000000000000000000000000815273ffffffffffffffffffffffffffffffffffffffff83169063ce0dd628906107869084906004016134a5565b600060405180830381600087803b1580156107a057600080fd5b505af11580156107b4573d6000803e3d6000fd5b505050505b6107c283610f7e565b6107cb836111b2565b6107d483611340565b610339836114fd565b600054610100900460ff16610874576040517f08c379a000000000000000000000000000000000000000000000000000000000815260206004820152602b60248201527f496e697469616c697a61626c653a20636f6e7472616374206973206e6f74206960448201527f6e697469616c697a696e670000000000000000000000000000000000000000006064820152608401610400565b61087c6116d9565b6108846116d9565b61088c6116d9565b60048110156108f7576040517f08c379a000000000000000000000000000000000000000000000000000000000815260206004820152601560248201527f424144204d494e20535441434b53204c454e47544800000000000000000000006044820152606401610400565b602082015161012d80547fffffffffffffffffffffffff00000000000000000000000000000000000000001673ffffffffffffffffffffffffffffffffffffffff90921691909117905560005b826040015151811015610339576000836000015173ffffffffffffffffffffffffffffffffffffffff16631ed061d98560400151848151811061098957610989613382565b602002602001015161099a86611772565b6040518363ffffffff1660e01b81526004016109b79291906134b8565b6020604051808303816000875af11580156109d6573d6000803e3d6000fd5b505050506040513d601f19601f820116820180604052508101906109fa9190613523565b90506000602082901b77ffffffffffffffffffffffffffffffffffffffff000000001661ffff17600081815261012e60209081526040918290206001905587810151825133815273ffffffffffffffffffffffffffffffffffffffff909116918101919091529081018290529091507f0392789afa55e5b564b41f5e52285c849fc771b31ccc0e222999b6de72bc55949060600160405180910390a150508080610aa390613416565b915050610944565b606073ffffffffffffffffffffffffffffffffffffffff83163b610b51576040517f08c379a000000000000000000000000000000000000000000000000000000000815260206004820152602660248201527f416464726573733a2064656c65676174652063616c6c20746f206e6f6e2d636f60448201527f6e747261637400000000000000000000000000000000000000000000000000006064820152608401610400565b6000808473ffffffffffffffffffffffffffffffffffffffff1684604051610b799190613540565b600060405180830381855af49150503d8060008114610bb4576040519150601f19603f3d011682016040523d82523d6000602084013e610bb9565b606091505b5091509150610be182826040518060600160405280602781526020016137a1602791396117a4565b95945050505050565b600083815261012e602052604081205481906060908690610c67576040517f08c379a000000000000000000000000000000000000000000000000000000000815260206004820152601160248201527f554e524547495354455245445f464c4f570000000000000000000000000000006044820152606401610400565b61012d54600090819073ffffffffffffffffffffffffffffffffffffffff166390e7d00b8a610ccb84604051908082528060200260200182016040528015610cc357816020015b6060815260200190600190039081610cae5790505b508c8c6117bd565b6040518363ffffffff1660e01b8152600401610ce8929190613552565b600060405180830381865afa158015610d05573d6000803e3d6000fd5b505050506040513d6000823e601f3d9081017fffffffffffffffffffffffffffffffffffffffffffffffffffffffffffffffe0168201604052610d4b9190810190613635565b91509150610d598260200190565b8251909a60209182029093010198509650945050505050565b610d9d6040518060800160405280606081526020016060815260200160608152602001606081525090565b610dc86040518060800160405280606081526020016060815260200160608152602001606081525090565b60408051808201909152601281527f5241494e5f464c4f575f53454e54494e454c00000000000000000000000000006020909101526060610e2c84867ffea74d0c9bf4a3c28f0dd0674db22a3d7f8bf259c56af19f4ac1e735b156974f6003611b54565b80845260408051808201909152601281527f5241494e5f464c4f575f53454e54494e454c00000000000000000000000000006020909101529094509050610e9684867ffea74d0c9bf4a3c28f0dd0674db22a3d7f8bf259c56af19f4ac1e735b156974f6004611b54565b602084810182905260408051808201909152601281527f5241494e5f464c4f575f53454e54494e454c00000000000000000000000000009101529094509050610f0284867ffea74d0c9bf4a3c28f0dd0674db22a3d7f8bf259c56af19f4ac1e735b156974f6004611b54565b60408481018290528051808201909152601281527f5241494e5f464c4f575f53454e54494e454c00000000000000000000000000006020909101529094509050610f6f84867ffea74d0c9bf4a3c28f0dd0674db22a3d7f8bf259c56af19f4ac1e735b156974f6005611b54565b60608401525090949350505050565b60408051606081018252600080825260208201819052918101829052819060005b84515181101561118d578451805182908110610fbd57610fbd613382565b602002602001015191503373ffffffffffffffffffffffffffffffffffffffff16826000015173ffffffffffffffffffffffffffffffffffffffff160361108f57602082015173ffffffffffffffffffffffffffffffffffffffff163014611081576040517f08c379a000000000000000000000000000000000000000000000000000000000815260206004820152601760248201527f554e535550504f525445445f4e41544956455f464c4f570000000000000000006044820152606401610400565b816040015184019350611185565b815173ffffffffffffffffffffffffffffffffffffffff16301461110f576040517f08c379a000000000000000000000000000000000000000000000000000000000815260206004820152601760248201527f554e535550504f525445445f4e41544956455f464c4f570000000000000000006044820152606401610400565b3373ffffffffffffffffffffffffffffffffffffffff16826020015173ffffffffffffffffffffffffffffffffffffffff160361115457816040015183019250611185565b6111858260400151836020015173ffffffffffffffffffffffffffffffffffffffff16611c0690919063ffffffff16565b600101610f9f565b50821561119c57823403820191505b81156111ac576111ac3383611c06565b50505050565b6040805160808101825260008082526020820181905291810182905260608101829052905b82602001515181101561033957826020015181815181106111fa576111fa613382565b602002602001015191503373ffffffffffffffffffffffffffffffffffffffff16826020015173ffffffffffffffffffffffffffffffffffffffff16036112715760408201516060830151835161126c9273ffffffffffffffffffffffffffffffffffffffff90911691339190611d60565b611338565b3073ffffffffffffffffffffffffffffffffffffffff16826020015173ffffffffffffffffffffffffffffffffffffffff16036112d65760408201516060830151835161126c9273ffffffffffffffffffffffffffffffffffffffff90911691611e3c565b6040517f08c379a000000000000000000000000000000000000000000000000000000000815260206004820152601660248201527f554e535550504f525445445f45524332305f464c4f57000000000000000000006044820152606401610400565b6001016111d7565b6040805160808101825260008082526020820181905291810182905260608101829052905b826040015151811015610339578260400151818151811061138857611388613382565b602002602001015191503373ffffffffffffffffffffffffffffffffffffffff16826020015173ffffffffffffffffffffffffffffffffffffffff1614806113e95750602082015173ffffffffffffffffffffffffffffffffffffffff1630145b61144f576040517f08c379a000000000000000000000000000000000000000000000000000000000815260206004820152601760248201527f554e535550504f525445445f4552433732315f464c4f570000000000000000006044820152606401610400565b81516020830151604080850151606086015191517f42842e0e00000000000000000000000000000000000000000000000000000000815273ffffffffffffffffffffffffffffffffffffffff9384166004820152908316602482015260448101919091529116906342842e0e90606401600060405180830381600087803b1580156114d957600080fd5b505af11580156114ed573d6000803e3d6000fd5b5050600190920191506113659050565b6040805160a0810182526000808252602082018190529181018290526060810182905260808101829052905b826060015151811015610339578260600151818151811061154c5761154c613382565b602002602001015191503373ffffffffffffffffffffffffffffffffffffffff16826020015173ffffffffffffffffffffffffffffffffffffffff1614806115ad5750602082015173ffffffffffffffffffffffffffffffffffffffff1630145b611613576040517f08c379a000000000000000000000000000000000000000000000000000000000815260206004820152601860248201527f554e535550504f525445445f455243313135355f464c4f5700000000000000006044820152606401610400565b815160208301516040808501516060860151608087015192517ff242432a00000000000000000000000000000000000000000000000000000000815273ffffffffffffffffffffffffffffffffffffffff948516600482015291841660248301526044820152606481019190915260a06084820152600060a482015291169063f242432a9060c401600060405180830381600087803b1580156116b557600080fd5b505af11580156116c9573d6000803e3d6000fd5b5050600190920191506115299050565b600054610100900460ff16611770576040517f08c379a000000000000000000000000000000000000000000000000000000000815260206004820152602b60248201527f496e697469616c697a61626c653a20636f6e7472616374206973206e6f74206960448201527f6e697469616c697a696e670000000000000000000000000000000000000000006064820152608401610400565b565b604080516001808252818301909252606091600091906020808301908036833750505060208101939093525090919050565b606083156117b3575081610659565b6106598383611e92565b60606000825167ffffffffffffffff8111156117db576117db6125b4565b604051908082528060200260200182016040528015611804578160200160208202803683370190505b50905060008084511161181857600061181e565b83516001015b865101600201905060008167ffffffffffffffff811115611841576118416125b4565b60405190808252806020026020018201604052801561187457816020015b606081526020019060019003908161185f5790505b5090506000611881611ed6565b82828151811061189357611893613382565b602002602001018190525060005b88518110156118f15781806001019250508881815181106118c4576118c4613382565b60200260200101518383815181106118de576118de613382565b60209081029190910101526001016118a1565b5080806001019150508682828151811061190d5761190d613382565b6020908102919091010152855115611b495780806001019150508382828151811061193a5761193a613382565b602002602001018190525060005b8651811015611b4757611a4487828151811061196657611966613382565b602002602001015160000151611a2189848151811061198757611987613382565b6020026020010151604001516040516020016119a39190613699565b604080517fffffffffffffffffffffffffffffffffffffffffffffffffffffffffffffffe081840301815282825280516020918201207f19457468657265756d205369676e6564204d6573736167653a0a33320000000084830152603c8085019190915282518085039091018152605c909301909152815191012090565b898481518110611a3357611a33613382565b602002602001015160200151611ee7565b611aaa576040517f08c379a000000000000000000000000000000000000000000000000000000000815260206004820152601160248201527f494e56414c49445f5349474e41545552450000000000000000000000000000006044820152606401610400565b868181518110611abc57611abc613382565b60200260200101516000015173ffffffffffffffffffffffffffffffffffffffff16858281518110611af057611af0613382565b6020026020010181815250508180600101925050868181518110611b1657611b16613382565b602002602001015160400151838381518110611b3457611b34613382565b6020908102919091010152600101611948565b505b509695505050505050565b6000606080611b65878787876120b4565b80519198509150600090611b7a9086906136cf565b905060008167ffffffffffffffff811115611b9757611b976125b4565b604051908082528060200260200182016040528015611bc0578160200160208202803683370190505b5090506020810160208302810160208501602089025b82841015611bf05781845260209093019290810190611bd6565b508b975092955050505050505b94509492505050565b80471015611c70576040517f08c379a000000000000000000000000000000000000000000000000000000000815260206004820152601d60248201527f416464726573733a20696e73756666696369656e742062616c616e63650000006044820152606401610400565b60008273ffffffffffffffffffffffffffffffffffffffff168260405160006040518083038185875af1925050503d8060008114611cca576040519150601f19603f3d011682016040523d82523d6000602084013e611ccf565b606091505b5050905080610339576040517f08c379a000000000000000000000000000000000000000000000000000000000815260206004820152603a60248201527f416464726573733a20756e61626c6520746f2073656e642076616c75652c207260448201527f6563697069656e74206d617920686176652072657665727465640000000000006064820152608401610400565b60405173ffffffffffffffffffffffffffffffffffffffff808516602483015283166044820152606481018290526111ac9085907f23b872dd00000000000000000000000000000000000000000000000000000000906084015b604080517fffffffffffffffffffffffffffffffffffffffffffffffffffffffffffffffe08184030181529190526020810180517bffffffffffffffffffffffffffffffffffffffffffffffffffffffff167fffffffff0000000000000000000000000000000000000000000000000000000090931692909217909152612114565b60405173ffffffffffffffffffffffffffffffffffffffff83166024820152604481018290526103399084907fa9059cbb0000000000000000000000000000000000000000000000000000000090606401611dba565b815115611ea25781518083602001fd5b806040517f08c379a0000000000000000000000000000000000000000000000000000000008152600401610400919061370a565b6060611ee23330612220565b905090565b6000806000611ef68585612254565b90925090506000816004811115611f0f57611f0f61371d565b148015611f4757508573ffffffffffffffffffffffffffffffffffffffff168273ffffffffffffffffffffffffffffffffffffffff16145b15611f5757600192505050610659565b6000808773ffffffffffffffffffffffffffffffffffffffff16631626ba7e60e01b8888604051602401611f8c92919061374c565b604080517fffffffffffffffffffffffffffffffffffffffffffffffffffffffffffffffe08184030181529181526020820180517bffffffffffffffffffffffffffffffffffffffffffffffffffffffff167fffffffff000000000000000000000000000000000000000000000000000000009094169390931790925290516120159190613540565b600060405180830381855afa9150503d8060008114612050576040519150601f19603f3d011682016040523d82523d6000602084013e612055565b606091505b5091509150818015612068575080516020145b80156120a8575080517f1626ba7e00000000000000000000000000000000000000000000000000000000906120a69083016020908101908401613765565b145b98975050505050505050565b6000606080856120c357600080fd5b6000806020860260208a039950602089035b808b11156120fb578a5189036120ed578a93506120fb565b9981900399918701916120d5565b50508161210757600080fd5b8152969795505050505050565b6000612176826040518060400160405280602081526020017f5361666545524332303a206c6f772d6c6576656c2063616c6c206661696c65648152508573ffffffffffffffffffffffffffffffffffffffff166122999092919063ffffffff16565b8051909150156103395780806020019051810190612194919061377e565b610339576040517f08c379a000000000000000000000000000000000000000000000000000000000815260206004820152602a60248201527f5361666545524332303a204552433230206f7065726174696f6e20646964206e60448201527f6f742073756363656564000000000000000000000000000000000000000000006064820152608401610400565b6040805160028082526060808301845292600092919060208301908036833750505060208101949094525050604082015290565b600080825160410361228a5760208301516040840151606085015160001a61227e878285856122a8565b94509450505050612292565b506000905060025b9250929050565b60606102e58484600085612394565b6000807f7fffffffffffffffffffffffffffffff5d576e7357a4501ddfe92f46681b20a08311156122df5750600090506003611bfd565b6040805160008082526020820180845289905260ff881692820192909252606081018690526080810185905260019060a0016020604051602081039080840390855afa158015612333573d6000803e3d6000fd5b50506040517fffffffffffffffffffffffffffffffffffffffffffffffffffffffffffffffe0015191505073ffffffffffffffffffffffffffffffffffffffff811661238757600060019250925050611bfd565b9660009650945050505050565b606082471015612426576040517f08c379a000000000000000000000000000000000000000000000000000000000815260206004820152602660248201527f416464726573733a20696e73756666696369656e742062616c616e636520666f60448201527f722063616c6c00000000000000000000000000000000000000000000000000006064820152608401610400565b6000808673ffffffffffffffffffffffffffffffffffffffff16858760405161244f9190613540565b60006040518083038185875af1925050503d806000811461248c576040519150601f19603f3d011682016040523d82523d6000602084013e612491565b606091505b50915091506124a2878383876124ad565b979650505050505050565b6060831561254357825160000361253c5773ffffffffffffffffffffffffffffffffffffffff85163b61253c576040517f08c379a000000000000000000000000000000000000000000000000000000000815260206004820152601d60248201527f416464726573733a2063616c6c20746f206e6f6e2d636f6e74726163740000006044820152606401610400565b50816102e5565b6102e58383611e92565b60006020828403121561255f57600080fd5b81357fffffffff000000000000000000000000000000000000000000000000000000008116811461065957600080fd5b73ffffffffffffffffffffffffffffffffffffffff811681146125b157600080fd5b50565b7f4e487b7100000000000000000000000000000000000000000000000000000000600052604160045260246000fd5b6040516060810167ffffffffffffffff81118282101715612606576126066125b4565b60405290565b6040805190810167ffffffffffffffff81118282101715612606576126066125b4565b604051601f82017fffffffffffffffffffffffffffffffffffffffffffffffffffffffffffffffe016810167ffffffffffffffff81118282101715612676576126766125b4565b604052919050565b600082601f83011261268f57600080fd5b813567ffffffffffffffff8111156126a9576126a96125b4565b6126da60207fffffffffffffffffffffffffffffffffffffffffffffffffffffffffffffffe0601f8401160161262f565b8181528460208386010111156126ef57600080fd5b816020850160208301376000918101602001919091529392505050565b6000806000806080858703121561272257600080fd5b843561272d8161258f565b9350602085013561273d8161258f565b925060408501359150606085013567ffffffffffffffff81111561276057600080fd5b61276c8782880161267e565b91505092959194509250565b600067ffffffffffffffff821115612792576127926125b4565b5060051b60200190565b600082601f8301126127ad57600080fd5b813560206127c26127bd83612778565b61262f565b82815260059290921b840181019181810190868411156127e157600080fd5b8286015b84811015611b4957803583529183019183016127e5565b60008060006060848603121561281157600080fd5b8335925060208085013567ffffffffffffffff8082111561283157600080fd5b61283d8883890161279c565b9450604087013591508082111561285357600080fd5b818701915087601f83011261286757600080fd5b81356128756127bd82612778565b81815260059190911b8301840190848101908a83111561289457600080fd5b8585015b83811015612957578035858111156128b05760008081fd5b86016060818e037fffffffffffffffffffffffffffffffffffffffffffffffffffffffffffffffe00112156128e55760008081fd5b6128ed6125e3565b888201356128fa8161258f565b815260408201358781111561290f5760008081fd5b61291d8f8b8386010161267e565b8a830152506060820135878111156129355760008081fd5b6129438f8b8386010161279c565b604083015250845250918601918601612898565b508096505050505050509250925092565b60006020828403121561297a57600080fd5b813567ffffffffffffffff81111561299157600080fd5b82016040818503121561065957600080fd5b600080602083850312156129b657600080fd5b823567ffffffffffffffff808211156129ce57600080fd5b818501915085601f8301126129e257600080fd5b8135818111156129f157600080fd5b8660208260051b8501011115612a0657600080fd5b60209290920196919550909350505050565b60005b83811015612a33578181015183820152602001612a1b565b50506000910152565b60008151808452612a54816020860160208601612a18565b601f017fffffffffffffffffffffffffffffffffffffffffffffffffffffffffffffffe0169290920160200192915050565b600081518084526020808501808196508360051b8101915082860160005b85811015612ace578284038952612abc848351612a3c565b98850198935090840190600101612aa4565b5091979650505050505050565b6020815260006106596020830184612a86565b600081518084526020808501945080840160005b83811015612b5b578151805173ffffffffffffffffffffffffffffffffffffffff9081168952848201518116858a0152604080830151909116908901526060908101519088015260809096019590820190600101612b02565b509495945050505050565b600081518084526020808501945080840160005b83811015612b5b578151805173ffffffffffffffffffffffffffffffffffffffff9081168952848201518116858a015260408083015190911690890152606080820151908901526080908101519088015260a09096019590820190600101612b7a565b60208082528251608083830152805160a0840181905260009291820190839060c08601905b80831015612c51578351805173ffffffffffffffffffffffffffffffffffffffff9081168452868201511686840152604090810151908301529284019260019290920191606090910190612c02565b508387015193507fffffffffffffffffffffffffffffffffffffffffffffffffffffffffffffffe0925082868203016040870152612c8f8185612aee565b93505050604085015181858403016060860152612cac8382612aee565b925050606085015181858403016080860152612cc88382612b66565b9695505050505050565b600080600080600060a08688031215612cea57600080fd5b8535612cf58161258f565b94506020860135612d058161258f565b9350604086013567ffffffffffffffff80821115612d2257600080fd5b612d2e89838a0161279c565b94506060880135915080821115612d4457600080fd5b612d5089838a0161279c565b93506080880135915080821115612d6657600080fd5b50612d738882890161267e565b9150509295509295909350565b600080600080600060a08688031215612d9857600080fd5b8535612da38161258f565b94506020860135612db38161258f565b93506040860135925060608601359150608086013567ffffffffffffffff811115612ddd57600080fd5b612d738882890161267e565b600082357fffffffffffffffffffffffffffffffffffffffffffffffffffffffffffffffa1833603018112612e1d57600080fd5b9190910192915050565b600060608236031215612e3957600080fd5b612e416125e3565b612e4b833561258f565b82358152602080840135612e5e8161258f565b8282015260408481013567ffffffffffffffff80821115612e7e57600080fd5b9086019036601f830112612e9157600080fd5b8135612e9f6127bd82612778565b81815260059190911b83018501908581019036831115612ebe57600080fd5b8685015b83811015612fd4578481351115612ed857600080fd5b80358601877fffffffffffffffffffffffffffffffffffffffffffffffffffffffffffffffe0823603011215612f0d57600080fd5b612f1561260c565b8982013587811115612f2657600080fd5b820136603f820112612f3757600080fd5b8a810135612f476127bd82612778565b81815260059190911b82018b01908c81019036831115612f6657600080fd5b8c84015b83811015612f9c578b81351115612f8057600080fd5b612f8f368f833588010161267e565b8352918e01918e01612f6a565b5084525050508189013587811115612fb357600080fd5b612fc1368c8386010161279c565b828c015250845250918701918701612ec2565b509487019490945250939695505050505050565b600082357fffffffffffffffffffffffffffffffffffffffffffffffffffffffffffffffc183360301811261301c57600080fd5b90910192915050565b60008083357fffffffffffffffffffffffffffffffffffffffffffffffffffffffffffffffe184360301811261305a57600080fd5b830160208101925035905067ffffffffffffffff81111561307a57600080fd5b8060051b360382131561229257600080fd5b8183528181602085013750600060208284010152600060207fffffffffffffffffffffffffffffffffffffffffffffffffffffffffffffffe0601f840116840101905092915050565b81835260007f07ffffffffffffffffffffffffffffffffffffffffffffffffffffffffffffff83111561310757600080fd5b8260051b80836020870137939093016020019392505050565b6000604083016131308384613025565b604086528281845260608701905060608260051b88010193508260005b838110156131fc577fffffffffffffffffffffffffffffffffffffffffffffffffffffffffffffffa089870301835281357fffffffffffffffffffffffffffffffffffffffffffffffffffffffffffffffe18636030181126131ae57600080fd5b8501602081810191359067ffffffffffffffff8211156131cd57600080fd5b8136038313156131dc57600080fd5b6131e789838561308c565b9850948501949390930192505060010161314d565b505050505061320e6020840184613025565b8583036020870152612cc88382846130d5565b600073ffffffffffffffffffffffffffffffffffffffff8085168352602060408185015261324f8586612fe8565b6040808601526132626080860182613120565b9050818601357fffffffffffffffffffffffffffffffffffffffffffffffffffffffffffffffa187360301811261329857600080fd5b86810190507fffffffffffffffffffffffffffffffffffffffffffffffffffffffffffffffc08683030160608701526060820181356132d68161258f565b85168352818401356132e78161258f565b8516838501526132fa6040830183613025565b95509150606060408401528085825260808401905060808660051b85010191508260005b87811015613372577fffffffffffffffffffffffffffffffffffffffffffffffffffffffffffffff808685030183526133608461335b8488612fe8565b613120565b9350918601919086019060010161331e565b50919a9950505050505050505050565b7f4e487b7100000000000000000000000000000000000000000000000000000000600052603260045260246000fd5b60008083357fffffffffffffffffffffffffffffffffffffffffffffffffffffffffffffffe18436030181126133e657600080fd5b83018035915067ffffffffffffffff82111561340157600080fd5b60200191503681900382131561229257600080fd5b60007fffffffffffffffffffffffffffffffffffffffffffffffffffffffffffffffff820361346e577f4e487b7100000000000000000000000000000000000000000000000000000000600052601160045260246000fd5b5060010190565b600081518084526020808501945080840160005b83811015612b5b57815187529582019590820190600101613489565b6020815260006106596020830184613475565b60408152600083516040808401526134d36080840182612a86565b905060208501517fffffffffffffffffffffffffffffffffffffffffffffffffffffffffffffffc084830301606085015261350e8282613475565b9150508281036020840152610be18185613475565b60006020828403121561353557600080fd5b81516106598161258f565b60008251612e1d818460208701612a18565b600060408201848352602060408185015281855180845260608601915060608160051b870101935082870160005b828110156135cc577fffffffffffffffffffffffffffffffffffffffffffffffffffffffffffffffa08887030184526135ba868351613475565b95509284019290840190600101613580565b509398975050505050505050565b600082601f8301126135eb57600080fd5b815160206135fb6127bd83612778565b82815260059290921b8401810191818101908684111561361a57600080fd5b8286015b84811015611b49578051835291830191830161361e565b6000806040838503121561364857600080fd5b825167ffffffffffffffff8082111561366057600080fd5b61366c868387016135da565b9350602085015191508082111561368257600080fd5b5061368f858286016135da565b9150509250929050565b815160009082906020808601845b838110156136c3578151855293820193908201906001016136a7565b50929695505050505050565b600082613705577f4e487b7100000000000000000000000000000000000000000000000000000000600052601260045260246000fd5b500490565b6020815260006106596020830184612a3c565b7f4e487b7100000000000000000000000000000000000000000000000000000000600052602160045260246000fd5b8281526040602082015260006102e56040830184612a3c565b60006020828403121561377757600080fd5b5051919050565b60006020828403121561379057600080fd5b8151801515811461065957600080fdfe416464726573733a206c6f772d6c6576656c2064656c65676174652063616c6c206661696c6564a264697066735822122078a9345fae71d6d594b5a749d5793ddb90158651c3d2c33fe9b1080ddb36be5064736f6c63430008110033",
  "devdoc": {
    "kind": "dev",
    "methods": {
      "createChild(bytes)": {
        "params": {
          "data_": "Encoded data to pass down to child contract constructor."
        },
        "returns": {
          "_0": "New child contract address."
        }
      },
      "createChildTyped(((bytes[],uint256[]),(address,address,(bytes[],uint256[])[])))": {
        "params": {
          "config_": "`Flow` constructor configuration."
        },
        "returns": {
          "_0": "New `Flow` child contract address."
        }
      },
      "isChild(address)": {
        "params": {
          "maybeChild_": "Address of child contract to look up."
        },
        "returns": {
          "_0": "Returns `true` if address is a contract created by this contract factory, otherwise `false`."
        }
      }
    },
    "title": "FlowFactory",
    "version": 1
  },
  "userdoc": {
    "events": {
      "Implementation(address,address)": {
        "notice": "Factories that clone a template contract MUST emit an event any time they set the implementation being cloned. Factories that deploy new contracts without cloning do NOT need to emit this."
      },
      "NewChild(address,address)": {
        "notice": "Whenever a new child contract is deployed, a `NewChild` event containing the new child contract address MUST be emitted."
      }
    },
    "kind": "user",
    "methods": {
      "constructor": {
        "notice": "Build the reference implementation to clone for each child."
      },
      "createChild(bytes)": {
        "notice": "Implements `IFactory`. Calls the `_createChild` hook that inheriting contracts must override. Registers child contract address such that `isChild` is `true`. Emits `NewChild` event."
      },
      "createChildTyped(((bytes[],uint256[]),(address,address,(bytes[],uint256[])[])))": {
        "notice": "Allows calling `createChild` with `StateConfig` struct. Use original `Factory` `createChild` function signature if function parameters are already encoded."
      },
      "implementation()": {
        "notice": "Template contract to clone. Deployed by the constructor."
      },
      "isChild(address)": {
        "notice": "Implements `IFactory`. Checks if address is registered as a child contract of this factory."
      }
    },
    "notice": "Factory for deploying and registering `Flow` contracts.",
    "version": 1
  },
  "storageLayout": {
    "storage": [
      {
        "astId": 855,
        "contract": "contracts/flow/basic/FlowFactory.sol:FlowFactory",
        "label": "_initialized",
        "offset": 0,
        "slot": "0",
        "type": "t_uint8"
      },
      {
        "astId": 858,
        "contract": "contracts/flow/basic/FlowFactory.sol:FlowFactory",
        "label": "_initializing",
        "offset": 1,
        "slot": "0",
        "type": "t_bool"
      },
      {
        "astId": 1031,
        "contract": "contracts/flow/basic/FlowFactory.sol:FlowFactory",
        "label": "_status",
        "offset": 0,
        "slot": "1",
        "type": "t_uint256"
      },
      {
        "astId": 1089,
        "contract": "contracts/flow/basic/FlowFactory.sol:FlowFactory",
        "label": "__gap",
        "offset": 0,
        "slot": "2",
        "type": "t_array(t_uint256)49_storage"
      },
      {
        "astId": 12103,
        "contract": "contracts/flow/basic/FlowFactory.sol:FlowFactory",
        "label": "contracts",
        "offset": 0,
        "slot": "51",
        "type": "t_mapping(t_address,t_bool)"
      }
    ],
    "types": {
      "t_address": {
        "encoding": "inplace",
        "label": "address",
        "numberOfBytes": "20"
      },
      "t_array(t_uint256)49_storage": {
        "base": "t_uint256",
        "encoding": "inplace",
        "label": "uint256[49]",
        "numberOfBytes": "1568"
      },
      "t_bool": {
        "encoding": "inplace",
        "label": "bool",
        "numberOfBytes": "1"
      },
      "t_mapping(t_address,t_bool)": {
        "encoding": "mapping",
        "key": "t_address",
        "label": "mapping(address => bool)",
        "numberOfBytes": "32",
        "value": "t_bool"
      },
      "t_uint256": {
        "encoding": "inplace",
        "label": "uint256",
        "numberOfBytes": "32"
      },
      "t_uint8": {
        "encoding": "inplace",
        "label": "uint8",
        "numberOfBytes": "1"
      }
    }
  }
}