{
  "address": "0xaE2580ddEe0e1f29147E6c133eFe62089ADAA3E9",
  "abi": [
    {
      "inputs": [
        {
          "internalType": "uint256",
          "name": "maxTimeoutDuration_",
          "type": "uint256"
        }
      ],
      "stateMutability": "nonpayable",
      "type": "constructor"
    },
    {
      "anonymous": false,
      "inputs": [
        {
          "indexed": false,
          "internalType": "address",
          "name": "sender",
          "type": "address"
        },
        {
          "indexed": false,
          "internalType": "uint256",
          "name": "share",
          "type": "uint256"
        },
        {
          "indexed": false,
          "internalType": "uint256",
          "name": "amount",
          "type": "uint256"
        }
      ],
      "name": "Claim",
      "type": "event"
    },
    {
      "anonymous": false,
      "inputs": [
        {
          "indexed": false,
          "internalType": "address",
          "name": "sender",
          "type": "address"
        },
        {
          "indexed": false,
          "internalType": "address",
          "name": "token",
          "type": "address"
        },
        {
          "indexed": false,
          "internalType": "uint256",
          "name": "amount",
          "type": "uint256"
        }
      ],
      "name": "Deposit",
      "type": "event"
    },
    {
      "anonymous": false,
      "inputs": [
        {
          "indexed": false,
          "internalType": "address",
          "name": "sender",
          "type": "address"
        },
        {
          "components": [
            {
              "internalType": "bool",
              "name": "refMustAgree",
              "type": "bool"
            },
            {
              "internalType": "address",
              "name": "ref",
              "type": "address"
            },
            {
              "internalType": "address",
              "name": "expressionDeployer",
              "type": "address"
            },
            {
              "internalType": "address",
              "name": "interpreter",
              "type": "address"
            },
            {
              "internalType": "address",
              "name": "token",
              "type": "address"
            },
            {
              "components": [
                {
                  "internalType": "bytes[]",
                  "name": "sources",
                  "type": "bytes[]"
                },
                {
                  "internalType": "uint256[]",
                  "name": "constants",
                  "type": "uint256[]"
                }
              ],
              "internalType": "struct StateConfig",
              "name": "stateConfig",
              "type": "tuple"
            },
            {
              "internalType": "bytes",
              "name": "description",
              "type": "bytes"
            },
            {
              "internalType": "uint256",
              "name": "timeoutDuration",
              "type": "uint256"
            }
          ],
          "indexed": false,
          "internalType": "struct LobbyConfig",
          "name": "config",
          "type": "tuple"
        }
      ],
      "name": "Initialize",
      "type": "event"
    },
    {
      "anonymous": false,
      "inputs": [
        {
          "indexed": false,
          "internalType": "uint8",
          "name": "version",
          "type": "uint8"
        }
      ],
      "name": "Initialized",
      "type": "event"
    },
    {
      "anonymous": false,
      "inputs": [
        {
          "indexed": false,
          "internalType": "address",
          "name": "sender",
          "type": "address"
        },
        {
          "indexed": false,
          "internalType": "uint256[]",
          "name": "callerContext",
          "type": "uint256[]"
        },
        {
          "components": [
            {
              "internalType": "address",
              "name": "signer",
              "type": "address"
            },
            {
              "internalType": "bytes",
              "name": "signature",
              "type": "bytes"
            },
            {
              "internalType": "uint256[]",
              "name": "context",
              "type": "uint256[]"
            }
          ],
          "indexed": false,
          "internalType": "struct SignedContext[]",
          "name": "signedContext",
          "type": "tuple[]"
        }
      ],
      "name": "Invalid",
      "type": "event"
    },
    {
      "anonymous": false,
      "inputs": [
        {
          "indexed": false,
          "internalType": "address",
          "name": "sender",
          "type": "address"
        }
      ],
      "name": "Join",
      "type": "event"
    },
    {
      "anonymous": false,
      "inputs": [
        {
          "indexed": false,
          "internalType": "address",
          "name": "sender",
          "type": "address"
        },
        {
          "indexed": false,
          "internalType": "address",
          "name": "token",
          "type": "address"
        },
        {
          "indexed": false,
          "internalType": "uint256",
          "name": "deposit",
          "type": "uint256"
        },
        {
          "indexed": false,
          "internalType": "uint256",
          "name": "amount",
          "type": "uint256"
        }
      ],
      "name": "Leave",
      "type": "event"
    },
    {
      "anonymous": false,
      "inputs": [
        {
          "indexed": false,
          "internalType": "address",
          "name": "sender",
          "type": "address"
        },
        {
          "indexed": false,
          "internalType": "uint256",
          "name": "newPhase",
          "type": "uint256"
        },
        {
          "indexed": false,
          "internalType": "uint256",
          "name": "scheduledTime",
          "type": "uint256"
        }
      ],
      "name": "PhaseScheduled",
      "type": "event"
    },
    {
      "anonymous": false,
      "inputs": [
        {
          "indexed": false,
          "internalType": "address",
          "name": "sender",
          "type": "address"
        }
      ],
      "name": "PlayersFinalised",
      "type": "event"
    },
    {
      "anonymous": false,
      "inputs": [
        {
          "indexed": false,
          "internalType": "address",
          "name": "sender",
          "type": "address"
        },
        {
          "indexed": false,
          "internalType": "uint256",
          "name": "amount",
          "type": "uint256"
        }
      ],
      "name": "Refund",
      "type": "event"
    },
    {
      "inputs": [
        {
          "internalType": "uint256[]",
          "name": "callerContext_",
          "type": "uint256[]"
        },
        {
          "components": [
            {
              "internalType": "address",
              "name": "signer",
              "type": "address"
            },
            {
              "internalType": "bytes",
              "name": "signature",
              "type": "bytes"
            },
            {
              "internalType": "uint256[]",
              "name": "context",
              "type": "uint256[]"
            }
          ],
          "internalType": "struct SignedContext[]",
          "name": "signedContexts_",
          "type": "tuple[]"
        }
      ],
      "name": "claim",
      "outputs": [],
      "stateMutability": "nonpayable",
      "type": "function"
    },
    {
      "inputs": [
        {
          "internalType": "uint256[]",
          "name": "callerContext_",
          "type": "uint256[]"
        },
        {
          "components": [
            {
              "internalType": "address",
              "name": "signer",
              "type": "address"
            },
            {
              "internalType": "bytes",
              "name": "signature",
              "type": "bytes"
            },
            {
              "internalType": "uint256[]",
              "name": "context",
              "type": "uint256[]"
            }
          ],
          "internalType": "struct SignedContext[]",
          "name": "signedContexts_",
          "type": "tuple[]"
        }
      ],
      "name": "complete",
      "outputs": [],
      "stateMutability": "nonpayable",
      "type": "function"
    },
    {
      "inputs": [],
      "name": "currentPhase",
      "outputs": [
        {
          "internalType": "uint256",
          "name": "phase_",
          "type": "uint256"
        }
      ],
      "stateMutability": "view",
      "type": "function"
    },
    {
      "inputs": [
        {
          "internalType": "uint256",
          "name": "amount_",
          "type": "uint256"
        }
      ],
      "name": "deposit",
      "outputs": [],
      "stateMutability": "nonpayable",
      "type": "function"
    },
    {
      "inputs": [
        {
          "components": [
            {
              "internalType": "bool",
              "name": "refMustAgree",
              "type": "bool"
            },
            {
              "internalType": "address",
              "name": "ref",
              "type": "address"
            },
            {
              "internalType": "address",
              "name": "expressionDeployer",
              "type": "address"
            },
            {
              "internalType": "address",
              "name": "interpreter",
              "type": "address"
            },
            {
              "internalType": "address",
              "name": "token",
              "type": "address"
            },
            {
              "components": [
                {
                  "internalType": "bytes[]",
                  "name": "sources",
                  "type": "bytes[]"
                },
                {
                  "internalType": "uint256[]",
                  "name": "constants",
                  "type": "uint256[]"
                }
              ],
              "internalType": "struct StateConfig",
              "name": "stateConfig",
              "type": "tuple"
            },
            {
              "internalType": "bytes",
              "name": "description",
              "type": "bytes"
            },
            {
              "internalType": "uint256",
              "name": "timeoutDuration",
              "type": "uint256"
            }
          ],
          "internalType": "struct LobbyConfig",
          "name": "config_",
          "type": "tuple"
        }
      ],
      "name": "initialize",
      "outputs": [],
      "stateMutability": "nonpayable",
      "type": "function"
    },
    {
      "inputs": [
        {
          "internalType": "uint256[]",
          "name": "callerContext_",
          "type": "uint256[]"
        },
        {
          "components": [
            {
              "internalType": "address",
              "name": "signer",
              "type": "address"
            },
            {
              "internalType": "bytes",
              "name": "signature",
              "type": "bytes"
            },
            {
              "internalType": "uint256[]",
              "name": "context",
              "type": "uint256[]"
            }
          ],
          "internalType": "struct SignedContext[]",
          "name": "signedContexts_",
          "type": "tuple[]"
        }
      ],
      "name": "invalid",
      "outputs": [],
      "stateMutability": "nonpayable",
      "type": "function"
    },
    {
      "inputs": [
        {
          "internalType": "uint256[]",
          "name": "callerContext_",
          "type": "uint256[]"
        },
        {
          "components": [
            {
              "internalType": "address",
              "name": "signer",
              "type": "address"
            },
            {
              "internalType": "bytes",
              "name": "signature",
              "type": "bytes"
            },
            {
              "internalType": "uint256[]",
              "name": "context",
              "type": "uint256[]"
            }
          ],
          "internalType": "struct SignedContext[]",
          "name": "signedContexts_",
          "type": "tuple[]"
        }
      ],
      "name": "join",
      "outputs": [],
      "stateMutability": "nonpayable",
      "type": "function"
    },
    {
      "inputs": [
        {
          "internalType": "uint256[]",
          "name": "callerContext_",
          "type": "uint256[]"
        },
        {
          "components": [
            {
              "internalType": "address",
              "name": "signer",
              "type": "address"
            },
            {
              "internalType": "bytes",
              "name": "signature",
              "type": "bytes"
            },
            {
              "internalType": "uint256[]",
              "name": "context",
              "type": "uint256[]"
            }
          ],
          "internalType": "struct SignedContext[]",
          "name": "signedContext_",
          "type": "tuple[]"
        }
      ],
      "name": "leave",
      "outputs": [],
      "stateMutability": "nonpayable",
      "type": "function"
    },
    {
      "inputs": [
        {
          "internalType": "uint32[8]",
          "name": "phaseTimes_",
          "type": "uint32[8]"
        },
        {
          "internalType": "uint256",
          "name": "timestamp_",
          "type": "uint256"
        }
      ],
      "name": "phaseAtTime",
      "outputs": [
        {
          "internalType": "uint256",
          "name": "phase_",
          "type": "uint256"
        }
      ],
      "stateMutability": "pure",
      "type": "function"
    },
    {
      "inputs": [
        {
          "internalType": "uint256",
          "name": "",
          "type": "uint256"
        }
      ],
      "name": "phaseTimes",
      "outputs": [
        {
          "internalType": "uint32",
          "name": "",
          "type": "uint32"
        }
      ],
      "stateMutability": "view",
      "type": "function"
    },
    {
      "inputs": [],
      "name": "refAgrees",
      "outputs": [],
      "stateMutability": "nonpayable",
      "type": "function"
    },
    {
      "inputs": [],
      "name": "refund",
      "outputs": [],
      "stateMutability": "nonpayable",
      "type": "function"
    },
    {
      "inputs": [
        {
          "internalType": "uint32[8]",
          "name": "phaseTimes_",
          "type": "uint32[8]"
        },
        {
          "internalType": "uint256",
          "name": "phase_",
          "type": "uint256"
        }
      ],
      "name": "timeForPhase",
      "outputs": [
        {
          "internalType": "uint256",
          "name": "timestamp_",
          "type": "uint256"
        }
      ],
      "stateMutability": "pure",
      "type": "function"
    }
  ],
  "transactionHash": "0xaa468a5fd9a3e4dd5552fa36273dad67ce36ee63136023679f44de54cbafe69e",
  "args": [
    15000000
  ],
  "numDeployments": 1,
  "bytecode": "0x60a06040523480156200001157600080fd5b50604051620034ed380380620034ed83398101604081905262000034916200003d565b60805262000057565b6000602082840312156200005057600080fd5b5051919050565b60805161347a620000736000396000610ec4015261347a6000f3fe608060405234801561001057600080fd5b50600436106100df5760003560e01c80637b3d9fb81161008c578063a03e60dd11610066578063a03e60dd146101a3578063b6b55f25146101b6578063cf8fd726146101c9578063d47b5fa4146101d157600080fd5b80637b3d9fb81461015557806393c9655714610168578063997b359e1461019057600080fd5b8063500db45e116100bd578063500db45e14610127578063590e1ae31461013a5780635d521c101461014257600080fd5b806301a4acfa146100e4578063055ad42e146100f95780631cf355e814610114575b600080fd5b6100f76100f2366004612a86565b6101e4565b005b6101016105c1565b6040519081526020015b60405180910390f35b610101610122366004612afe565b61062b565b6100f7610135366004612a86565b61066a565b6100f76107bb565b610101610150366004612afe565b6108ab565b6100f7610163366004612a86565b6108f2565b61017b610176366004612b94565b610cae565b60405163ffffffff909116815260200161010b565b6100f761019e366004612bad565b610cde565b6100f76101b1366004612a86565b611102565b6100f76101c4366004612b94565b611426565b6100f76114e2565b6100f76101df366004612c2e565b6115e0565b6001806101ef6105c1565b1461025b576040517f08c379a000000000000000000000000000000000000000000000000000000000815260206004820152600960248201527f4241445f5048415345000000000000000000000000000000000000000000000060448201526064015b60405180910390fd5b336000908152603d6020526040902054156102d2576040517f08c379a000000000000000000000000000000000000000000000000000000000815260206004820152600f60248201527f4f4e4c595f4e4f4e5f504c4159455200000000000000000000000000000000006044820152606401610252565b60365473ffffffffffffffffffffffffffffffffffffffff163303610353576040517f08c379a000000000000000000000000000000000000000000000000000000000815260206004820152600c60248201527f4f4e4c595f4e4f4e5f52454600000000000000000000000000000000000000006044820152606401610252565b61035b6116bc565b60385460395473ffffffffffffffffffffffffffffffffffffffff90911690600090819083906390e7d00b906103c7845b6040519080825280602002602001820160405280156103bf57816020015b60608152602001906001900390816103aa5790505b508a8a61172d565b6040518363ffffffff1660e01b81526004016103e4929190612cd5565b600060405180830381865afa158015610401573d6000803e3d6000fd5b505050506040513d6000823e601f3d9081017fffffffffffffffffffffffffffffffffffffffffffffffffffffffffffffffe01682016040526104479190810190612db8565b9150915060008260028451038151811061046357610463612e12565b6020026020010151905060008360018551038151811061048557610485612e12565b602090810291909101810151336000908152603d9092526040918290206001905590517fce0dd62800000000000000000000000000000000000000000000000000000000815290915073ffffffffffffffffffffffffffffffffffffffff86169063ce0dd628906104fa908690600401612e41565b600060405180830381600087803b15801561051457600080fd5b505af1158015610528573d6000803e3d6000fd5b5050505061053581611426565b6040513381527f0764c80c4165f118547b301a0b4b91eac21bd2f2d9b61d0ac723ff0aab27bb799060200160405180910390a181156105ad57610579600242611a63565b6040513381527f90918ab0d30e0330d3f5458a4e53d30ec3c03a164673a0a736814dc9fddcb71f9060200160405180910390a15b50505050506105bc6001600255565b505050565b60408051610100810191829052600091610626919083906008908280855b82829054906101000a900463ffffffff1663ffffffff16815260200190600401906020826003010492830192600103820291508084116105df5790505050505050426108ab565b905090565b600080821161063b57600061065d565b82610647600184612e83565b6008811061065757610657612e12565b60200201515b63ffffffff169392505050565b60036106746105c1565b036106db576040517f08c379a000000000000000000000000000000000000000000000000000000000815260206004820152600960248201527f4241445f504841534500000000000000000000000000000000000000000000006044820152606401610252565b6106e58282611d0c565b61074b576040517f08c379a000000000000000000000000000000000000000000000000000000000815260206004820152600b60248201527f4e4f545f494e56414c49440000000000000000000000000000000000000000006044820152606401610252565b60046107556105c1565b101561077c576107776107666105c1565b610771906001612e96565b42611a63565b61074b565b7f105efb54c1671406f08698f3253405ad85182c2f493d5c6f5f7e03aff28839b43383836040516107af93929190612fb3565b60405180910390a15050565b6004806107c66105c1565b1461082d576040517f08c379a000000000000000000000000000000000000000000000000000000000815260206004820152600960248201527f4241445f504841534500000000000000000000000000000000000000000000006044820152606401610252565b336000818152603e602052604090205460375490916108639173ffffffffffffffffffffffffffffffffffffffff169083611e92565b336000818152603e6020908152604080832092909255815192835282018390527fbb28353e4598c3b9199101a66e0989549b659a59a54d2c27fbb183f1932c8e6d91016107af565b60005b60088110156108ec578281600881106108c9576108c9612e12565b602002015163ffffffff1682106108ec57806108e481612ffe565b9150506108ae565b92915050565b6003806108fd6105c1565b14610964576040517f08c379a000000000000000000000000000000000000000000000000000000000815260206004820152600960248201527f4241445f504841534500000000000000000000000000000000000000000000006044820152606401610252565b61096c6116bc565b61097582611f66565b603554146109df576040517f08c379a000000000000000000000000000000000000000000000000000000000815260206004820152600860248201527f4241445f484153480000000000000000000000000000000000000000000000006044820152606401610252565b336000908152604060208190528120549003610bd857603854603b54604080516000808252602082019092529092839273ffffffffffffffffffffffffffffffffffffffff909116916390e7d00b9190610a569085610a4e565b6060815260200190600190039081610a395790505b50898961172d565b6040518363ffffffff1660e01b8152600401610a73929190612cd5565b600060405180830381865afa158015610a90573d6000803e3d6000fd5b505050506040513d6000823e601f3d9081017fffffffffffffffffffffffffffffffffffffffffffffffffffffffffffffffe0168201604052610ad69190810190612db8565b91509150610b35610afa604154670de0b6b3a7640000611f9690919063ffffffff16565b8351610b2f9060209081028601015b7fffffffffffffffffffffffffffffffffffffffffffffffffffffffffffffffe0015190565b90611fac565b33600090815260406020819052902055805115610bd5576038546040517fce0dd62800000000000000000000000000000000000000000000000000000000815273ffffffffffffffffffffffffffffffffffffffff9091169063ce0dd62890610ba2908490600401612e41565b600060405180830381600087803b158015610bbc57600080fd5b505af1158015610bd0573d6000803e3d6000fd5b505050505b50505b3360009081526040602081905290205415610ca4573360009081526040602081815281832054604290915290822054603f54610c1e9291610c1891612e83565b90611fc2565b603754909150610c459073ffffffffffffffffffffffffffffffffffffffff163383611e92565b603f543360008181526042602090815260408083209490945583815290839020548351928352908201529081018290527f34fcbac0073d7c3d388e51312faf357774904998eeb8fca628b9e6f65ee1cbf79060600160405180910390a1505b6105bc6001600255565b60008160088110610cbe57600080fd5b60089182820401919006600402915054906101000a900463ffffffff1681565b600154610100900460ff1615808015610cfb57506001805460ff16105b80610d145750303b158015610d1457506001805460ff16145b610da0576040517f08c379a000000000000000000000000000000000000000000000000000000000815260206004820152602e60248201527f496e697469616c697a61626c653a20636f6e747261637420697320616c72656160448201527f647920696e697469616c697a65640000000000000000000000000000000000006064820152608401610252565b600180547fffffffffffffffffffffffffffffffffffffffffffffffffffffffffffffff0016811790558015610dfd57600180547fffffffffffffffffffffffffffffffffffffffffffffffffffffffffffff00ff166101001790555b610e0a6020830183613044565b610e1957610e19600142611a63565b6000610e2b6060840160408501613061565b73ffffffffffffffffffffffffffffffffffffffff16631ed061d9610e5360a086018661307e565b610e606002600180611fd7565b6040518363ffffffff1660e01b8152600401610e7d9291906131b7565b6020604051808303816000875af1158015610e9c573d6000803e3d6000fd5b505050506040513d601f19601f82011682018060405250810190610ec091906132ff565b90507f00000000000000000000000000000000000000000000000000000000000000008360e001351115610f50576040517f08c379a000000000000000000000000000000000000000000000000000000000815260206004820152600b60248201527f4d41585f54494d454f55540000000000000000000000000000000000000000006044820152606401610252565b610f5e60e084013542612e96565b603455610f716040840160208501613061565b603680547fffffffffffffffffffffffff00000000000000000000000000000000000000001673ffffffffffffffffffffffffffffffffffffffff92909216919091179055610fc660a0840160808501613061565b603780547fffffffffffffffffffffffff00000000000000000000000000000000000000001673ffffffffffffffffffffffffffffffffffffffff9290921691909117905561101b6080840160608501613061565b6038805473ffffffffffffffffffffffffffffffffffffffff929092167fffffffffffffffffffffffff000000000000000000000000000000000000000090921691909117905560201b77ffffffffffffffffffffffffffffffffffffffff000000001660028117603955620100028117603a55620200018117603b556203000117603c5580156110fe57600180547fffffffffffffffffffffffffffffffffffffffffffffffffffffffffffff00ff1681556040519081527f7f26b83ff96e1f2b6a682f133852f6798a09c465da95921460cefb3847402498906020016107af565b5050565b60018061110d6105c1565b14611174576040517f08c379a000000000000000000000000000000000000000000000000000000000815260206004820152600960248201527f4241445f504841534500000000000000000000000000000000000000000000006044820152606401610252565b336000908152603d60205260409020546111ea576040517f08c379a000000000000000000000000000000000000000000000000000000000815260206004820152600b60248201527f4f4e4c595f504c415945520000000000000000000000000000000000000000006044820152606401610252565b6111f26116bc565b336000908152603d60209081526040808320839055603e909152812054603854603a54919291829173ffffffffffffffffffffffffffffffffffffffff16906390e7d00b906112408461038c565b6040518363ffffffff1660e01b815260040161125d929190612cd5565b600060405180830381865afa15801561127a573d6000803e3d6000fd5b505050506040513d6000823e601f3d9081017fffffffffffffffffffffffffffffffffffffffffffffffffffffffffffffffe01682016040526112c09190810190612db8565b9150915060006112df84610b2f610b0986805160209081029091010190565b6037549091506113069073ffffffffffffffffffffffffffffffffffffffff163383611e92565b336000908152603e60205260408120819055603f805483929061132a908490612e83565b90915550506038546040517fce0dd62800000000000000000000000000000000000000000000000000000000815273ffffffffffffffffffffffffffffffffffffffff9091169063ce0dd62890611385908590600401612e41565b600060405180830381600087803b15801561139f57600080fd5b505af11580156113b3573d6000803e3d6000fd5b50506037546040805133815273ffffffffffffffffffffffffffffffffffffffff90921660208301528101879052606081018490527f788e2ff2e7a5d83f7f128f5d44d44a080dc83e52de350a6f04d5c548017ba1189250608001905060405180910390a1505050506105bc6001600255565b61142e6116bc565b336000908152603e60205260408120829055603f8054839290611452908490612e96565b909155505060375461147c9073ffffffffffffffffffffffffffffffffffffffff16333084612014565b6037546040805133815273ffffffffffffffffffffffffffffffffffffffff909216602083015281018290527f5548c837ab068cf56a2c2479df0882a4922fd203edb7517321831d95078c5f629060600160405180910390a16114df6001600255565b50565b60365473ffffffffffffffffffffffffffffffffffffffff163314611563576040517f08c379a000000000000000000000000000000000000000000000000000000000815260206004820152600860248201527f4f4e4c595f5245460000000000000000000000000000000000000000000000006044820152606401610252565b60008061156e6105c1565b146115d5576040517f08c379a000000000000000000000000000000000000000000000000000000000815260206004820152600960248201527f4241445f504841534500000000000000000000000000000000000000000000006044820152606401610252565b6114df600142611a63565b6002806115eb6105c1565b14611652576040517f08c379a000000000000000000000000000000000000000000000000000000000815260206004820152600960248201527f4241445f504841534500000000000000000000000000000000000000000000006044820152606401610252565b61166461165f838561331c565b611f66565b603555611672600342611a63565b6116b5858580806020026020016040519081016040528093929190818152602001838360200280828437600092019190915250610163925086915087905061331c565b5050505050565b6002805403611727576040517f08c379a000000000000000000000000000000000000000000000000000000000815260206004820152601f60248201527f5265656e7472616e637947756172643a207265656e7472616e742063616c6c006044820152606401610252565b60028055565b60606000825167ffffffffffffffff81111561174b5761174b6127dc565b604051908082528060200260200182016040528015611774578160200160208202803683370190505b50905060008084511161178857600061178e565b83516001015b865101600201905060008167ffffffffffffffff8111156117b1576117b16127dc565b6040519080825280602002602001820160405280156117e457816020015b60608152602001906001900390816117cf5790505b50905060006117f1612078565b82828151811061180357611803612e12565b602002602001018190525060005b885181101561186157818060010192505088818151811061183457611834612e12565b602002602001015183838151811061184e5761184e612e12565b6020908102919091010152600101611811565b5080806001019150508682828151811061187d5761187d612e12565b6020908102919091010152855115611a56578080600101915050838282815181106118aa576118aa612e12565b602002602001018190525060005b8651811015611a54576119518782815181106118d6576118d6612e12565b60200260200101516000015161192e8984815181106118f7576118f7612e12565b6020026020010151604001516040516020016119139190613329565b60405160208183030381529060405280519060200120612084565b89848151811061194057611940612e12565b6020026020010151602001516120bf565b6119b7576040517f08c379a000000000000000000000000000000000000000000000000000000000815260206004820152601160248201527f494e56414c49445f5349474e41545552450000000000000000000000000000006044820152606401610252565b8681815181106119c9576119c9612e12565b60200260200101516000015173ffffffffffffffffffffffffffffffffffffffff168582815181106119fd576119fd612e12565b6020026020010181815250508180600101925050868181518110611a2357611a23612e12565b602002602001015160400151838381518110611a4157611a41612e12565b60209081029190910101526001016118b8565b505b50925050505b9392505050565b80421115611acd576040517f08c379a000000000000000000000000000000000000000000000000000000000815260206004820152600e60248201527f4e4558545f54494d455f504153540000000000000000000000000000000000006044820152606401610252565b63ffffffff8110611b3a576040517f08c379a000000000000000000000000000000000000000000000000000000000815260206004820152601760248201527f4e4558545f54494d455f554e494e495449414c495a45440000000000000000006044820152606401610252565b7fffffffffffffffffffffffffffffffffffffffffffffffffffffffffffffffff820180611b666105c1565b14611bcd576040517f08c379a000000000000000000000000000000000000000000000000000000000815260206004820152600a60248201527f4e4558545f5048415345000000000000000000000000000000000000000000006044820152606401610252565b60008160088110611be057611be0612e12565b60088104919091015460079091166004026101000a900463ffffffff90811614611c66576040517f08c379a000000000000000000000000000000000000000000000000000000000815260206004820152600d60248201527f4e4558545f54494d455f534554000000000000000000000000000000000000006044820152606401610252565b8160008260088110611c7a57611c7a612e12565b600891828204019190066004026101000a81548163ffffffff021916908363ffffffff1602179055507fba85f6676f17ca992195e3cb204ae48c68666b109edc14a794e5d894387d25d3338484604051611cff9392919073ffffffffffffffffffffffffffffffffffffffff9390931683526020830191909152604082015260600190565b60405180910390a1505050565b6000603454421115611d20575060016108ec565b603854603c5473ffffffffffffffffffffffffffffffffffffffff90911690600090819083906390e7d00b90611d558461038c565b6040518363ffffffff1660e01b8152600401611d72929190612cd5565b600060405180830381865afa158015611d8f573d6000803e3d6000fd5b505050506040513d6000823e601f3d9081017fffffffffffffffffffffffffffffffffffffffffffffffffffffffffffffffe0168201604052611dd59190810190612db8565b8051919350915015611e66576040517fce0dd62800000000000000000000000000000000000000000000000000000000815273ffffffffffffffffffffffffffffffffffffffff84169063ce0dd62890611e33908490600401612e41565b600060405180830381600087803b158015611e4d57600080fd5b505af1158015611e61573d6000803e3d6000fd5b505050505b600082600184510381518110611e7e57611e7e612e12565b602002602001015111935050505092915050565b60405173ffffffffffffffffffffffffffffffffffffffff83166024820152604481018290526105bc9084907fa9059cbb00000000000000000000000000000000000000000000000000000000906064015b604080517fffffffffffffffffffffffffffffffffffffffffffffffffffffffffffffffe08184030181529190526020810180517bffffffffffffffffffffffffffffffffffffffffffffffffffffffff167fffffffff000000000000000000000000000000000000000000000000000000009093169290921790915261228c565b600081604051602001611f79919061335f565b604051602081830303815290604052805190602001209050919050565b6000818311611fa6576000611a5c565b50900390565b6000818310611fbb5781611a5c565b5090919050565b6000611a5c8383670de0b6b3a7640000612398565b6040805160038082526080820190925260609160009190602082018480368337505050602081019590955250506040830191909152606082015290565b60405173ffffffffffffffffffffffffffffffffffffffff808516602483015283166044820152606481018290526120729085907f23b872dd0000000000000000000000000000000000000000000000000000000090608401611ee4565b50505050565b60606106263330612465565b6040517f19457468657265756d205369676e6564204d6573736167653a0a3332000000006020820152603c8101829052600090605c01611f79565b60008060006120ce8585612499565b909250905060008160048111156120e7576120e7613372565b14801561211f57508573ffffffffffffffffffffffffffffffffffffffff168273ffffffffffffffffffffffffffffffffffffffff16145b1561212f57600192505050611a5c565b6000808773ffffffffffffffffffffffffffffffffffffffff16631626ba7e60e01b88886040516024016121649291906133a1565b604080517fffffffffffffffffffffffffffffffffffffffffffffffffffffffffffffffe08184030181529181526020820180517bffffffffffffffffffffffffffffffffffffffffffffffffffffffff167fffffffff000000000000000000000000000000000000000000000000000000009094169390931790925290516121ed91906133ba565b600060405180830381855afa9150503d8060008114612228576040519150601f19603f3d011682016040523d82523d6000602084013e61222d565b606091505b5091509150818015612240575080516020145b8015612280575080517f1626ba7e000000000000000000000000000000000000000000000000000000009061227e90830160209081019084016133cc565b145b98975050505050505050565b60006122ee826040518060400160405280602081526020017f5361666545524332303a206c6f772d6c6576656c2063616c6c206661696c65648152508573ffffffffffffffffffffffffffffffffffffffff166124de9092919063ffffffff16565b8051909150156105bc578080602001905181019061230c91906133e5565b6105bc576040517f08c379a000000000000000000000000000000000000000000000000000000000815260206004820152602a60248201527f5361666545524332303a204552433230206f7065726174696f6e20646964206e60448201527f6f742073756363656564000000000000000000000000000000000000000000006064820152608401610252565b600080807fffffffffffffffffffffffffffffffffffffffffffffffffffffffffffffffff858709858702925082811083820303915050806000036123f0578382816123e6576123e6613402565b0492505050611a5c565b8084116123fc57600080fd5b60008486880960026001871981018816978890046003810283188082028403028082028403028082028403028082028403028082028403029081029092039091026000889003889004909101858311909403939093029303949094049190911702949350505050565b6040805160028082526060808301845292600092919060208301908036833750505060208101949094525050604082015290565b60008082516041036124cf5760208301516040840151606085015160001a6124c3878285856124f5565b945094505050506124d7565b506000905060025b9250929050565b60606124ed84846000856125e4565b949350505050565b6000807f7fffffffffffffffffffffffffffffff5d576e7357a4501ddfe92f46681b20a083111561252c57506000905060036125db565b6040805160008082526020820180845289905260ff881692820192909252606081018690526080810185905260019060a0016020604051602081039080840390855afa158015612580573d6000803e3d6000fd5b50506040517fffffffffffffffffffffffffffffffffffffffffffffffffffffffffffffffe0015191505073ffffffffffffffffffffffffffffffffffffffff81166125d4576000600192509250506125db565b9150600090505b94509492505050565b606082471015612676576040517f08c379a000000000000000000000000000000000000000000000000000000000815260206004820152602660248201527f416464726573733a20696e73756666696369656e742062616c616e636520666f60448201527f722063616c6c00000000000000000000000000000000000000000000000000006064820152608401610252565b6000808673ffffffffffffffffffffffffffffffffffffffff16858760405161269f91906133ba565b60006040518083038185875af1925050503d80600081146126dc576040519150601f19603f3d011682016040523d82523d6000602084013e6126e1565b606091505b50915091506126f2878383876126fd565b979650505050505050565b6060831561279357825160000361278c5773ffffffffffffffffffffffffffffffffffffffff85163b61278c576040517f08c379a000000000000000000000000000000000000000000000000000000000815260206004820152601d60248201527f416464726573733a2063616c6c20746f206e6f6e2d636f6e74726163740000006044820152606401610252565b50816124ed565b6124ed83838151156127a85781518083602001fd5b806040517f08c379a00000000000000000000000000000000000000000000000000000000081526004016102529190613431565b7f4e487b7100000000000000000000000000000000000000000000000000000000600052604160045260246000fd5b6040516060810167ffffffffffffffff8111828210171561282e5761282e6127dc565b60405290565b604051601f82017fffffffffffffffffffffffffffffffffffffffffffffffffffffffffffffffe016810167ffffffffffffffff8111828210171561287b5761287b6127dc565b604052919050565b600067ffffffffffffffff82111561289d5761289d6127dc565b5060051b60200190565b600082601f8301126128b857600080fd5b813560206128cd6128c883612883565b612834565b82815260059290921b840181019181810190868411156128ec57600080fd5b8286015b8481101561290757803583529183019183016128f0565b509695505050505050565b73ffffffffffffffffffffffffffffffffffffffff811681146114df57600080fd5b60006129426128c884612883565b8381529050602080820190600585901b84018681111561296157600080fd5b845b81811015612a7b57803567ffffffffffffffff808211156129845760008081fd5b908701906060828b0312156129995760008081fd5b6129a161280b565b82356129ac81612912565b815282860135828111156129c05760008081fd5b8301601f8082018d136129d35760008081fd5b8135848111156129e5576129e56127dc565b612a14897fffffffffffffffffffffffffffffffffffffffffffffffffffffffffffffffe08484011601612834565b91508082528d89828501011115612a2b5760008081fd5b808984018a84013760009250828982840101525080888401525060408085013584811115612a57578283fd5b612a638e8288016128a7565b91840191909152505086525050928201928201612963565b505050509392505050565b60008060408385031215612a9957600080fd5b823567ffffffffffffffff80821115612ab157600080fd5b612abd868387016128a7565b93506020850135915080821115612ad357600080fd5b508301601f81018513612ae557600080fd5b612af485823560208401612934565b9150509250929050565b6000806101208385031215612b1257600080fd5b83601f840112612b2157600080fd5b60405161010080820182811067ffffffffffffffff82111715612b4657612b466127dc565b60405284018186821115612b5957600080fd5b855b82811015612b8657803563ffffffff81168114612b785760008081fd5b825260209182019101612b5b565b509196903595509350505050565b600060208284031215612ba657600080fd5b5035919050565b600060208284031215612bbf57600080fd5b813567ffffffffffffffff811115612bd657600080fd5b82016101008185031215611a5c57600080fd5b60008083601f840112612bfb57600080fd5b50813567ffffffffffffffff811115612c1357600080fd5b6020830191508360208260051b85010111156124d757600080fd5b60008060008060408587031215612c4457600080fd5b843567ffffffffffffffff80821115612c5c57600080fd5b612c6888838901612be9565b90965094506020870135915080821115612c8157600080fd5b50612c8e87828801612be9565b95989497509550505050565b600081518084526020808501945080840160005b83811015612cca57815187529582019590820190600101612cae565b509495945050505050565b600060408201848352602060408185015281855180845260608601915060608160051b870101935082870160005b82811015612d4f577fffffffffffffffffffffffffffffffffffffffffffffffffffffffffffffffa0888703018452612d3d868351612c9a565b95509284019290840190600101612d03565b509398975050505050505050565b600082601f830112612d6e57600080fd5b81516020612d7e6128c883612883565b82815260059290921b84018101918181019086841115612d9d57600080fd5b8286015b848110156129075780518352918301918301612da1565b60008060408385031215612dcb57600080fd5b825167ffffffffffffffff80821115612de357600080fd5b612def86838701612d5d565b93506020850151915080821115612e0557600080fd5b50612af485828601612d5d565b7f4e487b7100000000000000000000000000000000000000000000000000000000600052603260045260246000fd5b602081526000611a5c6020830184612c9a565b7f4e487b7100000000000000000000000000000000000000000000000000000000600052601160045260246000fd5b818103818111156108ec576108ec612e54565b808201808211156108ec576108ec612e54565b60005b83811015612ec4578181015183820152602001612eac565b50506000910152565b60008151808452612ee5816020860160208601612ea9565b601f017fffffffffffffffffffffffffffffffffffffffffffffffffffffffffffffffe0169290920160200192915050565b600081518084526020808501808196508360051b8101915082860160005b85811015612fa65782840389528151606073ffffffffffffffffffffffffffffffffffffffff8251168652868201518188880152612f7582880182612ecd565b91505060408083015192508682038188015250612f928183612c9a565b9a87019a9550505090840190600101612f35565b5091979650505050505050565b73ffffffffffffffffffffffffffffffffffffffff84168152606060208201526000612fe26060830185612c9a565b8281036040840152612ff48185612f17565b9695505050505050565b60007fffffffffffffffffffffffffffffffffffffffffffffffffffffffffffffffff820361302f5761302f612e54565b5060010190565b80151581146114df57600080fd5b60006020828403121561305657600080fd5b8135611a5c81613036565b60006020828403121561307357600080fd5b8135611a5c81612912565b600082357fffffffffffffffffffffffffffffffffffffffffffffffffffffffffffffffc18336030181126130b257600080fd5b9190910192915050565b60008083357fffffffffffffffffffffffffffffffffffffffffffffffffffffffffffffffe18436030181126130f157600080fd5b830160208101925035905067ffffffffffffffff81111561311157600080fd5b8060051b36038213156124d757600080fd5b8183528181602085013750600060208284010152600060207fffffffffffffffffffffffffffffffffffffffffffffffffffffffffffffffe0601f840116840101905092915050565b81835260007f07ffffffffffffffffffffffffffffffffffffffffffffffffffffffffffffff83111561319e57600080fd5b8260051b80836020870137939093016020019392505050565b604081526000608082016131cb85866130bc565b6040808601528281845260a08601905060a08260051b87010193508260005b83811015613299577fffffffffffffffffffffffffffffffffffffffffffffffffffffffffffffff6088870301835281357fffffffffffffffffffffffffffffffffffffffffffffffffffffffffffffffe186360301811261324b57600080fd5b8501602081810191359067ffffffffffffffff82111561326a57600080fd5b81360383131561327957600080fd5b613284898385613123565b985094850194939093019250506001016131ea565b50505050506132ab60208601866130bc565b7fffffffffffffffffffffffffffffffffffffffffffffffffffffffffffffffc08584030160608601526132e083828461316c565b9250505082810360208401526132f68185612c9a565b95945050505050565b60006020828403121561331157600080fd5b8151611a5c81612912565b6000611a5c368484612934565b815160009082906020808601845b8381101561335357815185529382019390820190600101613337565b50929695505050505050565b602081526000611a5c6020830184612f17565b7f4e487b7100000000000000000000000000000000000000000000000000000000600052602160045260246000fd5b8281526040602082015260006124ed6040830184612ecd565b600082516130b2818460208701612ea9565b6000602082840312156133de57600080fd5b5051919050565b6000602082840312156133f757600080fd5b8151611a5c81613036565b7f4e487b7100000000000000000000000000000000000000000000000000000000600052601260045260246000fd5b602081526000611a5c6020830184612ecd56fea2646970667358221220da4b0d1d965ece5f0cac80f334da39d0cc59d78729fa8f908add35bfc20c766764736f6c63430008110033",
  "devdoc": {
    "events": {
      "Refund(address,uint256)": {
        "params": {
          "sender": "`msg.sender` that the refund is processed for."
        }
      }
    },
    "kind": "dev",
    "methods": {
      "phaseAtTime(uint32[8],uint256)": {
        "params": {
          "phaseTimes_": "Fixed array of phase times to compare against.",
          "timestamp_": "Determine the relevant phase relative to this time."
        },
        "returns": {
          "phase_": "The \"current\" phase relative to the timestamp and phase times list."
        }
      },
      "timeForPhase(uint32[8],uint256)": {
        "params": {
          "phaseTimes_": "Fixed array of phase blocks to compare against.",
          "phase_": "Determine the relevant block number for this phase."
        },
        "returns": {
          "timestamp_": "The timestamp for the phase according to `phaseTimes_`."
        }
      }
    },
    "version": 1
  },
  "userdoc": {
    "events": {
      "Invalid(address,uint256[],(address,bytes,uint256[])[])": {
        "notice": "Emitted when a `Lobby` is declared invalid by a ref or some other condition such as the timeout being reached."
      },
      "PhaseScheduled(address,uint256,uint256)": {
        "notice": "`PhaseScheduled` is emitted when the next phase is scheduled."
      },
      "Refund(address,uint256)": {
        "notice": "Emitted when a refund is processed for `msg.sender` MAY be less than the original deposit if the `leave` expression reduces it. MAY NOT be greater than the original deposit."
      }
    },
    "kind": "user",
    "methods": {
      "constructor": {
        "notice": "A max timeout is enforced in the constructor so that all cloned proxies share it, which prevents an initiator from setting a far future timeout and effectively disabling it to trap funds."
      },
      "currentPhase()": {
        "notice": "Impure read-only function to return the \"current\" phase from internal contract state. Simply wraps `phaseAtTime` for current values of `phaseTimes` and `block.timestamp`."
      },
      "phaseAtTime(uint32[8],uint256)": {
        "notice": "Pure function to reduce an array of phase times and block timestamp to a specific `Phase`. The phase will be the highest attained even if several phases have the same timestamp. If every phase block is after the timestamp then `0` is returned. If every phase block is before the timestamp then `MAX_PHASE` is returned."
      },
      "phaseTimes(uint256)": {
        "notice": "8 phases each as 32 bits to fit a single 32 byte word."
      },
      "refAgrees()": {
        "notice": "Allow the ref to agree to the lobby. This is optionally required by the init config. If it is required then players cannot join until this is called."
      },
      "timeForPhase(uint32[8],uint256)": {
        "notice": "Pure function to reduce an array of phase times and phase to a specific timestamp. `Phase.ZERO` will always return block `0`. Every other phase will map to a time in `phaseTimes_`."
      }
    },
    "version": 1
  }
}