{
  "address": "0x30c0331340CffE54c402d27Aa854894F618ceC9B",
  "abi": [
    {
      "anonymous": false,
      "inputs": [
        {
          "indexed": true,
          "internalType": "address",
          "name": "owner",
          "type": "address"
        },
        {
          "indexed": true,
          "internalType": "address",
          "name": "spender",
          "type": "address"
        },
        {
          "indexed": false,
          "internalType": "uint256",
          "name": "value",
          "type": "uint256"
        }
      ],
      "name": "Approval",
      "type": "event"
    },
    {
      "anonymous": false,
      "inputs": [
        {
          "indexed": false,
          "internalType": "uint8",
          "name": "version",
          "type": "uint8"
        }
      ],
      "name": "Initialized",
      "type": "event"
    },
    {
      "anonymous": false,
      "inputs": [
        {
          "indexed": true,
          "internalType": "address",
          "name": "from",
          "type": "address"
        },
        {
          "indexed": true,
          "internalType": "address",
          "name": "to",
          "type": "address"
        },
        {
          "indexed": false,
          "internalType": "uint256",
          "name": "value",
          "type": "uint256"
        }
      ],
      "name": "Transfer",
      "type": "event"
    },
    {
      "inputs": [],
      "name": "DECIMALS",
      "outputs": [
        {
          "internalType": "uint256",
          "name": "",
          "type": "uint256"
        }
      ],
      "stateMutability": "view",
      "type": "function"
    },
    {
      "inputs": [],
      "name": "TOTAL_SUPPLY",
      "outputs": [
        {
          "internalType": "uint256",
          "name": "",
          "type": "uint256"
        }
      ],
      "stateMutability": "view",
      "type": "function"
    },
    {
      "inputs": [
        {
          "internalType": "address",
          "name": "account_",
          "type": "address"
        }
      ],
      "name": "addFreezable",
      "outputs": [],
      "stateMutability": "nonpayable",
      "type": "function"
    },
    {
      "inputs": [
        {
          "internalType": "address",
          "name": "owner",
          "type": "address"
        },
        {
          "internalType": "address",
          "name": "spender",
          "type": "address"
        }
      ],
      "name": "allowance",
      "outputs": [
        {
          "internalType": "uint256",
          "name": "",
          "type": "uint256"
        }
      ],
      "stateMutability": "view",
      "type": "function"
    },
    {
      "inputs": [
        {
          "internalType": "address",
          "name": "spender",
          "type": "address"
        },
        {
          "internalType": "uint256",
          "name": "amount",
          "type": "uint256"
        }
      ],
      "name": "approve",
      "outputs": [
        {
          "internalType": "bool",
          "name": "",
          "type": "bool"
        }
      ],
      "stateMutability": "nonpayable",
      "type": "function"
    },
    {
      "inputs": [
        {
          "internalType": "address",
          "name": "account",
          "type": "address"
        }
      ],
      "name": "balanceOf",
      "outputs": [
        {
          "internalType": "uint256",
          "name": "",
          "type": "uint256"
        }
      ],
      "stateMutability": "view",
      "type": "function"
    },
    {
      "inputs": [
        {
          "internalType": "uint256",
          "name": "amount",
          "type": "uint256"
        }
      ],
      "name": "burn",
      "outputs": [],
      "stateMutability": "nonpayable",
      "type": "function"
    },
    {
      "inputs": [
        {
          "internalType": "address",
          "name": "account",
          "type": "address"
        },
        {
          "internalType": "uint256",
          "name": "amount",
          "type": "uint256"
        }
      ],
      "name": "burnFrom",
      "outputs": [],
      "stateMutability": "nonpayable",
      "type": "function"
    },
    {
      "inputs": [],
      "name": "decimals",
      "outputs": [
        {
          "internalType": "uint8",
          "name": "",
          "type": "uint8"
        }
      ],
      "stateMutability": "pure",
      "type": "function"
    },
    {
      "inputs": [
        {
          "internalType": "address",
          "name": "spender",
          "type": "address"
        },
        {
          "internalType": "uint256",
          "name": "subtractedValue",
          "type": "uint256"
        }
      ],
      "name": "decreaseAllowance",
      "outputs": [
        {
          "internalType": "bool",
          "name": "",
          "type": "bool"
        }
      ],
      "stateMutability": "nonpayable",
      "type": "function"
    },
    {
      "inputs": [
        {
          "internalType": "address",
          "name": "",
          "type": "address"
        }
      ],
      "name": "freezables",
      "outputs": [
        {
          "internalType": "bool",
          "name": "",
          "type": "bool"
        }
      ],
      "stateMutability": "view",
      "type": "function"
    },
    {
      "inputs": [
        {
          "internalType": "address",
          "name": "spender",
          "type": "address"
        },
        {
          "internalType": "uint256",
          "name": "addedValue",
          "type": "uint256"
        }
      ],
      "name": "increaseAllowance",
      "outputs": [
        {
          "internalType": "bool",
          "name": "",
          "type": "bool"
        }
      ],
      "stateMutability": "nonpayable",
      "type": "function"
    },
    {
      "inputs": [],
      "name": "initialize",
      "outputs": [],
      "stateMutability": "nonpayable",
      "type": "function"
    },
    {
      "inputs": [],
      "name": "name",
      "outputs": [
        {
          "internalType": "string",
          "name": "",
          "type": "string"
        }
      ],
      "stateMutability": "view",
      "type": "function"
    },
    {
      "inputs": [],
      "name": "symbol",
      "outputs": [
        {
          "internalType": "string",
          "name": "",
          "type": "string"
        }
      ],
      "stateMutability": "view",
      "type": "function"
    },
    {
      "inputs": [],
      "name": "totalSupply",
      "outputs": [
        {
          "internalType": "uint256",
          "name": "",
          "type": "uint256"
        }
      ],
      "stateMutability": "view",
      "type": "function"
    },
    {
      "inputs": [
        {
          "internalType": "address",
          "name": "to",
          "type": "address"
        },
        {
          "internalType": "uint256",
          "name": "amount",
          "type": "uint256"
        }
      ],
      "name": "transfer",
      "outputs": [
        {
          "internalType": "bool",
          "name": "",
          "type": "bool"
        }
      ],
      "stateMutability": "nonpayable",
      "type": "function"
    },
    {
      "inputs": [
        {
          "internalType": "address",
          "name": "from",
          "type": "address"
        },
        {
          "internalType": "address",
          "name": "to",
          "type": "address"
        },
        {
          "internalType": "uint256",
          "name": "amount",
          "type": "uint256"
        }
      ],
      "name": "transferFrom",
      "outputs": [
        {
          "internalType": "bool",
          "name": "",
          "type": "bool"
        }
      ],
      "stateMutability": "nonpayable",
      "type": "function"
    }
  ],
  "transactionHash": "0xccedcc7038a2f0221d6c75e02eadc82e3d6114ffe2b83010198a5fb3d083a6ff",
  "args": [],
  "numDeployments": 1,
  "solcInputHash": "1fa6bfe645f535814f43adf1e3e7e059",
  "bytecode": "0x608060405234801561001057600080fd5b5061164d806100206000396000f3fe608060405234801561001057600080fd5b50600436106101365760003560e01c80635bb9058b116100b2578063902d55a511610081578063a457c2d711610066578063a457c2d7146102c1578063a9059cbb146102d4578063dd62ed3e146102e757600080fd5b8063902d55a5146102b157806395d89b41146102b957600080fd5b80635bb9058b1461020357806370a082311461026057806379cc6790146102965780638129fc1c146102a957600080fd5b80632e0f26251161010957806339509351116100ee57806339509351146101b857806342966c68146101cb57806348422faa146101e057600080fd5b80632e0f2625146101a1578063313ce567146101a957600080fd5b806306fdde031461013b578063095ea7b31461015957806318160ddd1461017c57806323b872dd1461018e575b600080fd5b61014361032d565b6040516101509190611156565b60405180910390f35b61016c6101673660046111eb565b6103bf565b6040519015158152602001610150565b6035545b604051908152602001610150565b61016c61019c366004611215565b6103d9565b610180600681565b60405160068152602001610150565b61016c6101c63660046111eb565b6103fd565b6101de6101d9366004611251565b610449565b005b61016c6101ee36600461126a565b60976020526000908152604090205460ff1681565b6101de61021136600461126a565b73ffffffffffffffffffffffffffffffffffffffff16600090815260976020526040902080547fffffffffffffffffffffffffffffffffffffffffffffffffffffffffffffff00166001179055565b61018061026e36600461126a565b73ffffffffffffffffffffffffffffffffffffffff1660009081526033602052604090205490565b6101de6102a43660046111eb565b610456565b6101de61046f565b610180610691565b6101436106ab565b61016c6102cf3660046111eb565b6106ba565b61016c6102e23660046111eb565b61078b565b6101806102f536600461128c565b73ffffffffffffffffffffffffffffffffffffffff918216600090815260346020908152604080832093909416825291909152205490565b60606036805461033c906112bf565b80601f0160208091040260200160405190810160405280929190818152602001828054610368906112bf565b80156103b55780601f1061038a576101008083540402835291602001916103b5565b820191906000526020600020905b81548152906001019060200180831161039857829003601f168201915b5050505050905090565b6000336103cd818585610799565b60019150505b92915050565b6000336103e785828561094d565b6103f2858585610a24565b506001949350505050565b33600081815260346020908152604080832073ffffffffffffffffffffffffffffffffffffffff871684529091528120549091906103cd9082908690610444908790611341565b610799565b6104533382610ca5565b50565b61046182338361094d565b61046b8282610ca5565b5050565b600054610100900460ff161580801561048f5750600054600160ff909116105b806104a95750303b1580156104a9575060005460ff166001145b61053a576040517f08c379a000000000000000000000000000000000000000000000000000000000815260206004820152602e60248201527f496e697469616c697a61626c653a20636f6e747261637420697320616c72656160448201527f647920696e697469616c697a656400000000000000000000000000000000000060648201526084015b60405180910390fd5b600080547fffffffffffffffffffffffffffffffffffffffffffffffffffffffffffffff00166001179055801561059857600080547fffffffffffffffffffffffffffffffffffffffffffffffffffffffffffff00ff166101001790555b61060c6040518060400160405280600b81526020017f55534420436c61737369630000000000000000000000000000000000000000008152506040518060400160405280600581526020017f5553444343000000000000000000000000000000000000000000000000000000815250610e74565b61062c3361061c60066009611341565b61062790600a611474565b610f15565b801561045357600080547fffffffffffffffffffffffffffffffffffffffffffffffffffffffffffff00ff169055604051600181527f7f26b83ff96e1f2b6a682f133852f6798a09c465da95921460cefb38474024989060200160405180910390a150565b61069d60066009611341565b6106a890600a611474565b81565b60606037805461033c906112bf565b33600081815260346020908152604080832073ffffffffffffffffffffffffffffffffffffffff871684529091528120549091908381101561077e576040517f08c379a000000000000000000000000000000000000000000000000000000000815260206004820152602560248201527f45524332303a2064656372656173656420616c6c6f77616e63652062656c6f7760448201527f207a65726f0000000000000000000000000000000000000000000000000000006064820152608401610531565b6103f28286868403610799565b6000336103cd818585610a24565b73ffffffffffffffffffffffffffffffffffffffff831661083b576040517f08c379a0000000000000000000000000000000000000000000000000000000008152602060048201526024808201527f45524332303a20617070726f76652066726f6d20746865207a65726f2061646460448201527f72657373000000000000000000000000000000000000000000000000000000006064820152608401610531565b73ffffffffffffffffffffffffffffffffffffffff82166108de576040517f08c379a000000000000000000000000000000000000000000000000000000000815260206004820152602260248201527f45524332303a20617070726f766520746f20746865207a65726f20616464726560448201527f73730000000000000000000000000000000000000000000000000000000000006064820152608401610531565b73ffffffffffffffffffffffffffffffffffffffff83811660008181526034602090815260408083209487168084529482529182902085905590518481527f8c5be1e5ebec7d5bd14f71427d1e84f3dd0314c0f7b2291e5b200ac8c7c3b92591015b60405180910390a3505050565b73ffffffffffffffffffffffffffffffffffffffff8381166000908152603460209081526040808320938616835292905220547fffffffffffffffffffffffffffffffffffffffffffffffffffffffffffffffff8114610a1e5781811015610a11576040517f08c379a000000000000000000000000000000000000000000000000000000000815260206004820152601d60248201527f45524332303a20696e73756666696369656e7420616c6c6f77616e63650000006044820152606401610531565b610a1e8484848403610799565b50505050565b73ffffffffffffffffffffffffffffffffffffffff8316610ac7576040517f08c379a000000000000000000000000000000000000000000000000000000000815260206004820152602560248201527f45524332303a207472616e736665722066726f6d20746865207a65726f20616460448201527f64726573730000000000000000000000000000000000000000000000000000006064820152608401610531565b73ffffffffffffffffffffffffffffffffffffffff8216610b6a576040517f08c379a000000000000000000000000000000000000000000000000000000000815260206004820152602360248201527f45524332303a207472616e7366657220746f20746865207a65726f206164647260448201527f65737300000000000000000000000000000000000000000000000000000000006064820152608401610531565b610b75838383611016565b73ffffffffffffffffffffffffffffffffffffffff831660009081526033602052604090205481811015610c2b576040517f08c379a000000000000000000000000000000000000000000000000000000000815260206004820152602660248201527f45524332303a207472616e7366657220616d6f756e742065786365656473206260448201527f616c616e636500000000000000000000000000000000000000000000000000006064820152608401610531565b73ffffffffffffffffffffffffffffffffffffffff80851660008181526033602052604080822086860390559286168082529083902080548601905591517fddf252ad1be2c89b69c2b068fc378daa952ba7f163c4a11628f55a4df523b3ef90610c989086815260200190565b60405180910390a3610a1e565b73ffffffffffffffffffffffffffffffffffffffff8216610d48576040517f08c379a000000000000000000000000000000000000000000000000000000000815260206004820152602160248201527f45524332303a206275726e2066726f6d20746865207a65726f2061646472657360448201527f73000000000000000000000000000000000000000000000000000000000000006064820152608401610531565b610d5482600083611016565b73ffffffffffffffffffffffffffffffffffffffff821660009081526033602052604090205481811015610e0a576040517f08c379a000000000000000000000000000000000000000000000000000000000815260206004820152602260248201527f45524332303a206275726e20616d6f756e7420657863656564732062616c616e60448201527f63650000000000000000000000000000000000000000000000000000000000006064820152608401610531565b73ffffffffffffffffffffffffffffffffffffffff831660008181526033602090815260408083208686039055603580548790039055518581529192917fddf252ad1be2c89b69c2b068fc378daa952ba7f163c4a11628f55a4df523b3ef9101610940565b505050565b600054610100900460ff16610f0b576040517f08c379a000000000000000000000000000000000000000000000000000000000815260206004820152602b60248201527f496e697469616c697a61626c653a20636f6e7472616374206973206e6f74206960448201527f6e697469616c697a696e670000000000000000000000000000000000000000006064820152608401610531565b61046b82826110a6565b73ffffffffffffffffffffffffffffffffffffffff8216610f92576040517f08c379a000000000000000000000000000000000000000000000000000000000815260206004820152601f60248201527f45524332303a206d696e7420746f20746865207a65726f2061646472657373006044820152606401610531565b610f9e60008383611016565b8060356000828254610fb09190611341565b909155505073ffffffffffffffffffffffffffffffffffffffff82166000818152603360209081526040808320805486019055518481527fddf252ad1be2c89b69c2b068fc378daa952ba7f163c4a11628f55a4df523b3ef910160405180910390a35050565b73ffffffffffffffffffffffffffffffffffffffff821660009081526097602052604090205460ff1615610e6f576040517f08c379a000000000000000000000000000000000000000000000000000000000815260206004820152600660248201527f46524f5a454e00000000000000000000000000000000000000000000000000006044820152606401610531565b600054610100900460ff1661113d576040517f08c379a000000000000000000000000000000000000000000000000000000000815260206004820152602b60248201527f496e697469616c697a61626c653a20636f6e7472616374206973206e6f74206960448201527f6e697469616c697a696e670000000000000000000000000000000000000000006064820152608401610531565b603661114983826114fd565b506037610e6f82826114fd565b600060208083528351808285015260005b8181101561118357858101830151858201604001528201611167565b5060006040828601015260407fffffffffffffffffffffffffffffffffffffffffffffffffffffffffffffffe0601f8301168501019250505092915050565b803573ffffffffffffffffffffffffffffffffffffffff811681146111e657600080fd5b919050565b600080604083850312156111fe57600080fd5b611207836111c2565b946020939093013593505050565b60008060006060848603121561122a57600080fd5b611233846111c2565b9250611241602085016111c2565b9150604084013590509250925092565b60006020828403121561126357600080fd5b5035919050565b60006020828403121561127c57600080fd5b611285826111c2565b9392505050565b6000806040838503121561129f57600080fd5b6112a8836111c2565b91506112b6602084016111c2565b90509250929050565b600181811c908216806112d357607f821691505b60208210810361130c577f4e487b7100000000000000000000000000000000000000000000000000000000600052602260045260246000fd5b50919050565b7f4e487b7100000000000000000000000000000000000000000000000000000000600052601160045260246000fd5b808201808211156103d3576103d3611312565b600181815b808511156113ad57817fffffffffffffffffffffffffffffffffffffffffffffffffffffffffffffffff0482111561139357611393611312565b808516156113a057918102915b93841c9390800290611359565b509250929050565b6000826113c4575060016103d3565b816113d1575060006103d3565b81600181146113e757600281146113f15761140d565b60019150506103d3565b60ff84111561140257611402611312565b50506001821b6103d3565b5060208310610133831016604e8410600b8410161715611430575081810a6103d3565b61143a8383611354565b807fffffffffffffffffffffffffffffffffffffffffffffffffffffffffffffffff0482111561146c5761146c611312565b029392505050565b600061128583836113b5565b7f4e487b7100000000000000000000000000000000000000000000000000000000600052604160045260246000fd5b601f821115610e6f57600081815260208120601f850160051c810160208610156114d65750805b601f850160051c820191505b818110156114f5578281556001016114e2565b505050505050565b815167ffffffffffffffff81111561151757611517611480565b61152b8161152584546112bf565b846114af565b602080601f83116001811461157e57600084156115485750858301515b7fffffffffffffffffffffffffffffffffffffffffffffffffffffffffffffffff600386901b1c1916600185901b1785556114f5565b6000858152602081207fffffffffffffffffffffffffffffffffffffffffffffffffffffffffffffffe08616915b828110156115cb578886015182559484019460019091019084016115ac565b508582101561160757878501517fffffffffffffffffffffffffffffffffffffffffffffffffffffffffffffffff600388901b60f8161c191681555b5050505050600190811b0190555056fea2646970667358221220c12719f03e1940d1f447ce00d7ccb335ce712b648f08e094603f44d46eed7c3e64736f6c63430008110033",
  "devdoc": {
    "kind": "dev",
    "methods": {
      "addFreezable(address)": {
        "params": {
          "account_": "The account to freeze."
        }
      },
      "allowance(address,address)": {
        "details": "See {IERC20-allowance}."
      },
      "approve(address,uint256)": {
        "details": "See {IERC20-approve}. NOTE: If `amount` is the maximum `uint256`, the allowance is not updated on `transferFrom`. This is semantically equivalent to an infinite approval. Requirements: - `spender` cannot be the zero address."
      },
      "balanceOf(address)": {
        "details": "See {IERC20-balanceOf}."
      },
      "burn(uint256)": {
        "details": "Destroys `amount` tokens from the caller. See {ERC20-_burn}."
      },
      "burnFrom(address,uint256)": {
        "details": "Destroys `amount` tokens from `account`, deducting from the caller's allowance. See {ERC20-_burn} and {ERC20-allowance}. Requirements: - the caller must have allowance for ``accounts``'s tokens of at least `amount`."
      },
      "decimals()": {
        "details": "Returns the number of decimals used to get its user representation. For example, if `decimals` equals `2`, a balance of `505` tokens should be displayed to a user as `5.05` (`505 / 10 ** 2`). Tokens usually opt for a value of 18, imitating the relationship between Ether and Wei. This is the value {ERC20} uses, unless this function is overridden; NOTE: This information is only used for _display_ purposes: it in no way affects any of the arithmetic of the contract, including {IERC20-balanceOf} and {IERC20-transfer}."
      },
      "decreaseAllowance(address,uint256)": {
        "details": "Atomically decreases the allowance granted to `spender` by the caller. This is an alternative to {approve} that can be used as a mitigation for problems described in {IERC20-approve}. Emits an {Approval} event indicating the updated allowance. Requirements: - `spender` cannot be the zero address. - `spender` must have allowance for the caller of at least `subtractedValue`."
      },
      "increaseAllowance(address,uint256)": {
        "details": "Atomically increases the allowance granted to `spender` by the caller. This is an alternative to {approve} that can be used as a mitigation for problems described in {IERC20-approve}. Emits an {Approval} event indicating the updated allowance. Requirements: - `spender` cannot be the zero address."
      },
      "name()": {
        "details": "Returns the name of the token."
      },
      "symbol()": {
        "details": "Returns the symbol of the token, usually a shorter version of the name."
      },
      "totalSupply()": {
        "details": "See {IERC20-totalSupply}."
      },
      "transfer(address,uint256)": {
        "details": "See {IERC20-transfer}. Requirements: - `to` cannot be the zero address. - the caller must have a balance of at least `amount`."
      },
      "transferFrom(address,address,uint256)": {
        "details": "See {IERC20-transferFrom}. Emits an {Approval} event indicating the updated allowance. This is not required by the EIP. See the note at the beginning of {ERC20}. NOTE: Does not update the allowance if the current allowance is the maximum `uint256`. Requirements: - `from` and `to` cannot be the zero address. - `from` must have a balance of at least `amount`. - the caller must have allowance for ``from``'s tokens of at least `amount`."
      }
    },
    "title": "ReserveToken A test token that can be used as a reserve asset. On mainnet this would likely be some brand of stablecoin but can be anything. Notably mimics 6 decimals commonly used by stables in production.",
    "version": 1
  },
  "userdoc": {
    "kind": "user",
    "methods": {
      "addFreezable(address)": {
        "notice": "Add an account to the freezables list."
      },
      "freezables(address)": {
        "notice": "Accounts to freeze during testing."
      },
      "initialize()": {
        "notice": "Define and mint the erc20 token."
      }
    },
    "version": 1
  },
  "storageLayout": {
    "storage": [
      {
        "astId": 855,
        "contract": "contracts/test/testToken/ReserveToken.sol:ReserveToken",
        "label": "_initialized",
        "offset": 0,
        "slot": "0",
        "type": "t_uint8"
      },
      {
        "astId": 858,
        "contract": "contracts/test/testToken/ReserveToken.sol:ReserveToken",
        "label": "_initializing",
        "offset": 1,
        "slot": "0",
        "type": "t_bool"
      },
      {
        "astId": 6585,
        "contract": "contracts/test/testToken/ReserveToken.sol:ReserveToken",
        "label": "__gap",
        "offset": 0,
        "slot": "1",
        "type": "t_array(t_uint256)50_storage"
      },
      {
        "astId": 2746,
        "contract": "contracts/test/testToken/ReserveToken.sol:ReserveToken",
        "label": "_balances",
        "offset": 0,
        "slot": "51",
        "type": "t_mapping(t_address,t_uint256)"
      },
      {
        "astId": 2752,
        "contract": "contracts/test/testToken/ReserveToken.sol:ReserveToken",
        "label": "_allowances",
        "offset": 0,
        "slot": "52",
        "type": "t_mapping(t_address,t_mapping(t_address,t_uint256))"
      },
      {
        "astId": 2754,
        "contract": "contracts/test/testToken/ReserveToken.sol:ReserveToken",
        "label": "_totalSupply",
        "offset": 0,
        "slot": "53",
        "type": "t_uint256"
      },
      {
        "astId": 2756,
        "contract": "contracts/test/testToken/ReserveToken.sol:ReserveToken",
        "label": "_name",
        "offset": 0,
        "slot": "54",
        "type": "t_string_storage"
      },
      {
        "astId": 2758,
        "contract": "contracts/test/testToken/ReserveToken.sol:ReserveToken",
        "label": "_symbol",
        "offset": 0,
        "slot": "55",
        "type": "t_string_storage"
      },
      {
        "astId": 3338,
        "contract": "contracts/test/testToken/ReserveToken.sol:ReserveToken",
        "label": "__gap",
        "offset": 0,
        "slot": "56",
        "type": "t_array(t_uint256)45_storage"
      },
      {
        "astId": 3480,
        "contract": "contracts/test/testToken/ReserveToken.sol:ReserveToken",
        "label": "__gap",
        "offset": 0,
        "slot": "101",
        "type": "t_array(t_uint256)50_storage"
      },
      {
        "astId": 39738,
        "contract": "contracts/test/testToken/ReserveToken.sol:ReserveToken",
        "label": "freezables",
        "offset": 0,
        "slot": "151",
        "type": "t_mapping(t_address,t_bool)"
      }
    ],
    "types": {
      "t_address": {
        "encoding": "inplace",
        "label": "address",
        "numberOfBytes": "20"
      },
      "t_array(t_uint256)45_storage": {
        "base": "t_uint256",
        "encoding": "inplace",
        "label": "uint256[45]",
        "numberOfBytes": "1440"
      },
      "t_array(t_uint256)50_storage": {
        "base": "t_uint256",
        "encoding": "inplace",
        "label": "uint256[50]",
        "numberOfBytes": "1600"
      },
      "t_bool": {
        "encoding": "inplace",
        "label": "bool",
        "numberOfBytes": "1"
      },
      "t_mapping(t_address,t_bool)": {
        "encoding": "mapping",
        "key": "t_address",
        "label": "mapping(address => bool)",
        "numberOfBytes": "32",
        "value": "t_bool"
      },
      "t_mapping(t_address,t_mapping(t_address,t_uint256))": {
        "encoding": "mapping",
        "key": "t_address",
        "label": "mapping(address => mapping(address => uint256))",
        "numberOfBytes": "32",
        "value": "t_mapping(t_address,t_uint256)"
      },
      "t_mapping(t_address,t_uint256)": {
        "encoding": "mapping",
        "key": "t_address",
        "label": "mapping(address => uint256)",
        "numberOfBytes": "32",
        "value": "t_uint256"
      },
      "t_string_storage": {
        "encoding": "bytes",
        "label": "string",
        "numberOfBytes": "32"
      },
      "t_uint256": {
        "encoding": "inplace",
        "label": "uint256",
        "numberOfBytes": "32"
      },
      "t_uint8": {
        "encoding": "inplace",
        "label": "uint8",
        "numberOfBytes": "1"
      }
    }
  }
}