{
  "_format": "hh-sol-artifact-1",
  "contractName": "SeedERC20Reentrant",
  "sourceName": "contracts/test/SeedERC20Reentrant.sol",
  "abi": [
    {
      "anonymous": false,
      "inputs": [
        {
          "indexed": true,
          "internalType": "address",
          "name": "owner",
          "type": "address"
        },
        {
          "indexed": true,
          "internalType": "address",
          "name": "spender",
          "type": "address"
        },
        {
          "indexed": false,
          "internalType": "uint256",
          "name": "value",
          "type": "uint256"
        }
      ],
      "name": "Approval",
      "type": "event"
    },
    {
      "anonymous": false,
      "inputs": [
        {
          "indexed": true,
          "internalType": "address",
          "name": "from",
          "type": "address"
        },
        {
          "indexed": true,
          "internalType": "address",
          "name": "to",
          "type": "address"
        },
        {
          "indexed": false,
          "internalType": "uint256",
          "name": "value",
          "type": "uint256"
        }
      ],
      "name": "Transfer",
      "type": "event"
    },
    {
      "inputs": [],
      "name": "DECIMALS",
      "outputs": [
        {
          "internalType": "uint8",
          "name": "",
          "type": "uint8"
        }
      ],
      "stateMutability": "view",
      "type": "function"
    },
    {
      "inputs": [],
      "name": "TOTAL_SUPPLY",
      "outputs": [
        {
          "internalType": "uint256",
          "name": "",
          "type": "uint256"
        }
      ],
      "stateMutability": "view",
      "type": "function"
    },
    {
      "inputs": [
        {
          "internalType": "address",
          "name": "account_",
          "type": "address"
        }
      ],
      "name": "addFreezable",
      "outputs": [],
      "stateMutability": "nonpayable",
      "type": "function"
    },
    {
      "inputs": [
        {
          "internalType": "contract SeedERC20",
          "name": "seedERC20Contract_",
          "type": "address"
        }
      ],
      "name": "addReentrantTarget",
      "outputs": [],
      "stateMutability": "nonpayable",
      "type": "function"
    },
    {
      "inputs": [
        {
          "internalType": "address",
          "name": "owner",
          "type": "address"
        },
        {
          "internalType": "address",
          "name": "spender",
          "type": "address"
        }
      ],
      "name": "allowance",
      "outputs": [
        {
          "internalType": "uint256",
          "name": "",
          "type": "uint256"
        }
      ],
      "stateMutability": "view",
      "type": "function"
    },
    {
      "inputs": [
        {
          "internalType": "address",
          "name": "spender",
          "type": "address"
        },
        {
          "internalType": "uint256",
          "name": "amount",
          "type": "uint256"
        }
      ],
      "name": "approve",
      "outputs": [
        {
          "internalType": "bool",
          "name": "",
          "type": "bool"
        }
      ],
      "stateMutability": "nonpayable",
      "type": "function"
    },
    {
      "inputs": [
        {
          "internalType": "address",
          "name": "account",
          "type": "address"
        }
      ],
      "name": "balanceOf",
      "outputs": [
        {
          "internalType": "uint256",
          "name": "",
          "type": "uint256"
        }
      ],
      "stateMutability": "view",
      "type": "function"
    },
    {
      "inputs": [
        {
          "internalType": "uint256",
          "name": "amount",
          "type": "uint256"
        }
      ],
      "name": "burn",
      "outputs": [],
      "stateMutability": "nonpayable",
      "type": "function"
    },
    {
      "inputs": [
        {
          "internalType": "address",
          "name": "account",
          "type": "address"
        },
        {
          "internalType": "uint256",
          "name": "amount",
          "type": "uint256"
        }
      ],
      "name": "burnFrom",
      "outputs": [],
      "stateMutability": "nonpayable",
      "type": "function"
    },
    {
      "inputs": [],
      "name": "decimals",
      "outputs": [
        {
          "internalType": "uint8",
          "name": "",
          "type": "uint8"
        }
      ],
      "stateMutability": "pure",
      "type": "function"
    },
    {
      "inputs": [
        {
          "internalType": "address",
          "name": "spender",
          "type": "address"
        },
        {
          "internalType": "uint256",
          "name": "subtractedValue",
          "type": "uint256"
        }
      ],
      "name": "decreaseAllowance",
      "outputs": [
        {
          "internalType": "bool",
          "name": "",
          "type": "bool"
        }
      ],
      "stateMutability": "nonpayable",
      "type": "function"
    },
    {
      "inputs": [
        {
          "internalType": "address",
          "name": "",
          "type": "address"
        }
      ],
      "name": "freezables",
      "outputs": [
        {
          "internalType": "bool",
          "name": "",
          "type": "bool"
        }
      ],
      "stateMutability": "view",
      "type": "function"
    },
    {
      "inputs": [
        {
          "internalType": "address",
          "name": "spender",
          "type": "address"
        },
        {
          "internalType": "uint256",
          "name": "addedValue",
          "type": "uint256"
        }
      ],
      "name": "increaseAllowance",
      "outputs": [
        {
          "internalType": "bool",
          "name": "",
          "type": "bool"
        }
      ],
      "stateMutability": "nonpayable",
      "type": "function"
    },
    {
      "inputs": [],
      "name": "methodTarget",
      "outputs": [
        {
          "internalType": "enum SeedERC20Reentrant.Method",
          "name": "",
          "type": "uint8"
        }
      ],
      "stateMutability": "view",
      "type": "function"
    },
    {
      "inputs": [],
      "name": "name",
      "outputs": [
        {
          "internalType": "string",
          "name": "",
          "type": "string"
        }
      ],
      "stateMutability": "view",
      "type": "function"
    },
    {
      "inputs": [
        {
          "internalType": "enum SeedERC20Reentrant.Method",
          "name": "methodTarget_",
          "type": "uint8"
        }
      ],
      "name": "setMethodTarget",
      "outputs": [],
      "stateMutability": "nonpayable",
      "type": "function"
    },
    {
      "inputs": [],
      "name": "symbol",
      "outputs": [
        {
          "internalType": "string",
          "name": "",
          "type": "string"
        }
      ],
      "stateMutability": "view",
      "type": "function"
    },
    {
      "inputs": [],
      "name": "totalSupply",
      "outputs": [
        {
          "internalType": "uint256",
          "name": "",
          "type": "uint256"
        }
      ],
      "stateMutability": "view",
      "type": "function"
    },
    {
      "inputs": [
        {
          "internalType": "address",
          "name": "recipient",
          "type": "address"
        },
        {
          "internalType": "uint256",
          "name": "amount",
          "type": "uint256"
        }
      ],
      "name": "transfer",
      "outputs": [
        {
          "internalType": "bool",
          "name": "",
          "type": "bool"
        }
      ],
      "stateMutability": "nonpayable",
      "type": "function"
    },
    {
      "inputs": [
        {
          "internalType": "address",
          "name": "sender",
          "type": "address"
        },
        {
          "internalType": "address",
          "name": "recipient",
          "type": "address"
        },
        {
          "internalType": "uint256",
          "name": "amount",
          "type": "uint256"
        }
      ],
      "name": "transferFrom",
      "outputs": [
        {
          "internalType": "bool",
          "name": "",
          "type": "bool"
        }
      ],
      "stateMutability": "nonpayable",
      "type": "function"
    }
  ],
  "bytecode": "0x60806040523480156200001157600080fd5b50604080518082018252600b81526a55534420436c617373696360a81b602080830191825283518085019094526005845264555344434360d81b9084015281519192916200006291600391620003db565b50805162000078906004906020840190620003db565b50620000a39150339050620000906006600962000497565b6200009d90600a620005b1565b620000a9565b62000619565b6001600160a01b038216620001055760405162461bcd60e51b815260206004820152601f60248201527f45524332303a206d696e7420746f20746865207a65726f20616464726573730060448201526064015b60405180910390fd5b6200011360008383620001a0565b806002600082825462000127919062000497565b90915550506001600160a01b038216600090815260208190526040812080548392906200015690849062000497565b90915550506040518181526001600160a01b038316906000907fddf252ad1be2c89b69c2b068fc378daa952ba7f163c4a11628f55a4df523b3ef9060200160405180910390a35050565b620001b88383836200036f60201b620006671760201c565b6001600654600160a01b900460ff166003811115620001db57620001db620005c6565b148015620001f657506006546001600160a01b038381169116145b15620002695760065460405163059a803960e21b815260006004820152600160248201526001600160a01b039091169063166a00e4906044015b600060405180830381600087803b1580156200024b57600080fd5b505af115801562000260573d6000803e3d6000fd5b50505050505050565b6002600654600160a01b900460ff1660038111156200028c576200028c620005c6565b148015620002a757506006546001600160a01b038481169116145b15620002df576006546040516304a4484b60e11b8152600160048201526001600160a01b039091169063094890969060240162000230565b6003600654600160a01b900460ff166003811115620003025762000302620005c6565b1480156200031d57506006546001600160a01b038481169116145b156200036a5760065460405163db006a7560e01b8152600160048201526001600160a01b039091169063db006a7590602401600060405180830381600087803b1580156200024b57600080fd5b505050565b620003878383836200036a60201b620005661760201c565b6001600160a01b03821660009081526005602052604090205460ff16156200036a5760405162461bcd60e51b8152602060048201526006602482015265232927ad22a760d11b6044820152606401620000fc565b828054620003e990620005dc565b90600052602060002090601f0160209004810192826200040d576000855562000458565b82601f106200042857805160ff191683800117855562000458565b8280016001018555821562000458579182015b82811115620004585782518255916020019190600101906200043b565b50620004669291506200046a565b5090565b5b808211156200046657600081556001016200046b565b634e487b7160e01b600052601160045260246000fd5b60008219821115620004ad57620004ad62000481565b500190565b600181815b80851115620004f3578160001904821115620004d757620004d762000481565b80851615620004e557918102915b93841c9390800290620004b7565b509250929050565b6000826200050c57506001620005ab565b816200051b57506000620005ab565b81600181146200053457600281146200053f576200055f565b6001915050620005ab565b60ff84111562000553576200055362000481565b50506001821b620005ab565b5060208310610133831016604e8410600b841016171562000584575081810a620005ab565b620005908383620004b2565b8060001904821115620005a757620005a762000481565b0290505b92915050565b6000620005bf8383620004fb565b9392505050565b634e487b7160e01b600052602160045260246000fd5b600181811c90821680620005f157607f821691505b602082108114156200061357634e487b7160e01b600052602260045260246000fd5b50919050565b610ff880620006296000396000f3fe608060405234801561001057600080fd5b506004361061012c5760003560e01c80635bb9058b116100ad578063902d55a511610071578063902d55a5146102d557806395d89b41146102dd578063a457c2d7146102e5578063a9059cbb146102f8578063dd62ed3e1461030b57600080fd5b80635bb9058b1461023357806370a082311461026557806379cc67901461028e5780637cc4129a146102a157806385b75f5f146102c257600080fd5b8063313ce567116100f4578063313ce567146101b157806339509351146101b857806342966c68146101cb57806348422faa146101e057806348ea30da1461020357600080fd5b806306fdde0314610131578063095ea7b31461014f57806318160ddd1461017257806323b872dd146101845780632e0f262514610197575b600080fd5b610139610344565b6040516101469190610ca6565b60405180910390f35b61016261015d366004610d10565b6103d6565b6040519015158152602001610146565b6002545b604051908152602001610146565b610162610192366004610d3c565b6103ed565b61019f600681565b60405160ff9091168152602001610146565b600661019f565b6101626101c6366004610d10565b61049c565b6101de6101d9366004610d7d565b6104d8565b005b6101626101ee366004610d96565b60056020526000908152604090205460ff1681565b6101de610211366004610d96565b600680546001600160a01b0319166001600160a01b0392909216919091179055565b6101de610241366004610d96565b6001600160a01b03166000908152600560205260409020805460ff19166001179055565b610176610273366004610d96565b6001600160a01b031660009081526020819052604090205490565b6101de61029c366004610d10565b6104e5565b6006546102b590600160a01b900460ff1681565b6040516101469190610dd0565b6101de6102d0366004610df8565b61056b565b610176610598565b6101396105b2565b6101626102f3366004610d10565b6105c1565b610162610306366004610d10565b61065a565b610176610319366004610e19565b6001600160a01b03918216600090815260016020908152604080832093909416825291909152205490565b60606003805461035390610e52565b80601f016020809104026020016040519081016040528092919081815260200182805461037f90610e52565b80156103cc5780601f106103a1576101008083540402835291602001916103cc565b820191906000526020600020905b8154815290600101906020018083116103af57829003601f168201915b5050505050905090565b60006103e33384846106b9565b5060015b92915050565b60006103fa8484846107dd565b6001600160a01b0384166000908152600160209081526040808320338452909152902054828110156104845760405162461bcd60e51b815260206004820152602860248201527f45524332303a207472616e7366657220616d6f756e74206578636565647320616044820152676c6c6f77616e636560c01b60648201526084015b60405180910390fd5b61049185338584036106b9565b506001949350505050565b3360008181526001602090815260408083206001600160a01b038716845290915281205490916103e39185906104d3908690610ea3565b6106b9565b6104e233826109b7565b50565b60006104f18333610319565b90508181101561054f5760405162461bcd60e51b8152602060048201526024808201527f45524332303a206275726e20616d6f756e74206578636565647320616c6c6f77604482015263616e636560e01b606482015260840161047b565b61055c83338484036106b9565b61056683836109b7565b505050565b6006805482919060ff60a01b1916600160a01b83600381111561059057610590610dba565b021790555050565b6105a460066009610ea3565b6105af90600a610f9f565b81565b60606004805461035390610e52565b3360009081526001602090815260408083206001600160a01b0386168452909152812054828110156106435760405162461bcd60e51b815260206004820152602560248201527f45524332303a2064656372656173656420616c6c6f77616e63652062656c6f77604482015264207a65726f60d81b606482015260840161047b565b61065033858584036106b9565b5060019392505050565b60006103e33384846107dd565b6001600160a01b03821660009081526005602052604090205460ff16156105665760405162461bcd60e51b8152602060048201526006602482015265232927ad22a760d11b604482015260640161047b565b6001600160a01b03831661071b5760405162461bcd60e51b8152602060048201526024808201527f45524332303a20617070726f76652066726f6d20746865207a65726f206164646044820152637265737360e01b606482015260840161047b565b6001600160a01b03821661077c5760405162461bcd60e51b815260206004820152602260248201527f45524332303a20617070726f766520746f20746865207a65726f206164647265604482015261737360f01b606482015260840161047b565b6001600160a01b0383811660008181526001602090815260408083209487168084529482529182902085905590518481527f8c5be1e5ebec7d5bd14f71427d1e84f3dd0314c0f7b2291e5b200ac8c7c3b925910160405180910390a3505050565b6001600160a01b0383166108415760405162461bcd60e51b815260206004820152602560248201527f45524332303a207472616e736665722066726f6d20746865207a65726f206164604482015264647265737360d81b606482015260840161047b565b6001600160a01b0382166108a35760405162461bcd60e51b815260206004820152602360248201527f45524332303a207472616e7366657220746f20746865207a65726f206164647260448201526265737360e81b606482015260840161047b565b6108ae838383610b11565b6001600160a01b038316600090815260208190526040902054818110156109265760405162461bcd60e51b815260206004820152602660248201527f45524332303a207472616e7366657220616d6f756e7420657863656564732062604482015265616c616e636560d01b606482015260840161047b565b6001600160a01b0380851660009081526020819052604080822085850390559185168152908120805484929061095d908490610ea3565b92505081905550826001600160a01b0316846001600160a01b03167fddf252ad1be2c89b69c2b068fc378daa952ba7f163c4a11628f55a4df523b3ef846040516109a991815260200190565b60405180910390a350505050565b6001600160a01b038216610a175760405162461bcd60e51b815260206004820152602160248201527f45524332303a206275726e2066726f6d20746865207a65726f206164647265736044820152607360f81b606482015260840161047b565b610a2382600083610b11565b6001600160a01b03821660009081526020819052604090205481811015610a975760405162461bcd60e51b815260206004820152602260248201527f45524332303a206275726e20616d6f756e7420657863656564732062616c616e604482015261636560f01b606482015260840161047b565b6001600160a01b0383166000908152602081905260408120838303905560028054849290610ac6908490610fab565b90915550506040518281526000906001600160a01b038516907fddf252ad1be2c89b69c2b068fc378daa952ba7f163c4a11628f55a4df523b3ef9060200160405180910390a3505050565b610b1c838383610667565b6001600654600160a01b900460ff166003811115610b3c57610b3c610dba565b148015610b5657506006546001600160a01b038381169116145b15610bc65760065460405163059a803960e21b815260006004820152600160248201526001600160a01b039091169063166a00e4906044015b600060405180830381600087803b158015610ba957600080fd5b505af1158015610bbd573d6000803e3d6000fd5b50505050505050565b6002600654600160a01b900460ff166003811115610be657610be6610dba565b148015610c0057506006546001600160a01b038481169116145b15610c36576006546040516304a4484b60e11b8152600160048201526001600160a01b0390911690630948909690602401610b8f565b6003600654600160a01b900460ff166003811115610c5657610c56610dba565b148015610c7057506006546001600160a01b038481169116145b156105665760065460405163db006a7560e01b8152600160048201526001600160a01b039091169063db006a7590602401610b8f565b600060208083528351808285015260005b81811015610cd357858101830151858201604001528201610cb7565b81811115610ce5576000604083870101525b50601f01601f1916929092016040019392505050565b6001600160a01b03811681146104e257600080fd5b60008060408385031215610d2357600080fd5b8235610d2e81610cfb565b946020939093013593505050565b600080600060608486031215610d5157600080fd5b8335610d5c81610cfb565b92506020840135610d6c81610cfb565b929592945050506040919091013590565b600060208284031215610d8f57600080fd5b5035919050565b600060208284031215610da857600080fd5b8135610db381610cfb565b9392505050565b634e487b7160e01b600052602160045260246000fd5b6020810160048310610df257634e487b7160e01b600052602160045260246000fd5b91905290565b600060208284031215610e0a57600080fd5b813560048110610db357600080fd5b60008060408385031215610e2c57600080fd5b8235610e3781610cfb565b91506020830135610e4781610cfb565b809150509250929050565b600181811c90821680610e6657607f821691505b60208210811415610e8757634e487b7160e01b600052602260045260246000fd5b50919050565b634e487b7160e01b600052601160045260246000fd5b60008219821115610eb657610eb6610e8d565b500190565b600181815b80851115610ef6578160001904821115610edc57610edc610e8d565b80851615610ee957918102915b93841c9390800290610ec0565b509250929050565b600082610f0d575060016103e7565b81610f1a575060006103e7565b8160018114610f305760028114610f3a57610f56565b60019150506103e7565b60ff841115610f4b57610f4b610e8d565b50506001821b6103e7565b5060208310610133831016604e8410600b8410161715610f79575081810a6103e7565b610f838383610ebb565b8060001904821115610f9757610f97610e8d565b029392505050565b6000610db38383610efe565b600082821015610fbd57610fbd610e8d565b50039056fea264697066735822122093e1302ce326b68ef477f54f51b96965ba24234391a0184ba765266022ba971864736f6c634300080a0033",
  "linkReferences": {},
  "deployedLinkReferences": {}
}