{
  "_format": "hh-sol-artifact-1",
  "contractName": "ValueTier",
  "sourceName": "contracts/tier/ValueTier.sol",
  "abi": [
    {
      "inputs": [
        {
          "internalType": "uint256[8]",
          "name": "tierValues_",
          "type": "uint256[8]"
        }
      ],
      "stateMutability": "nonpayable",
      "type": "constructor"
    },
    {
      "inputs": [],
      "name": "tierValues",
      "outputs": [
        {
          "internalType": "uint256[8]",
          "name": "tierValues_",
          "type": "uint256[8]"
        }
      ],
      "stateMutability": "view",
      "type": "function"
    }
  ],
  "bytecode": "0x61018060405234801561001157600080fd5b5060405161037038038061037083398101604081905261003091610077565b80516080908152602082015160a0908152604083015160c0908152606084015160e09081529284015161010052908301516101205282015161014052015161016052610103565b600061010080838503121561008b57600080fd5b83601f84011261009a57600080fd5b6040518181016001600160401b03811182821017156100c957634e487b7160e01b600052604160045260246000fd5b6040529083019080858311156100de57600080fd5b845b838110156100f85780518252602091820191016100e0565b509095945050505050565b60805160a05160c05160e0516101005161012051610140516101605161020d610163600039600061015f01526000610139015260006101130152600060ed0152600060c70152600060a101526000607b015260006058015261020d6000f3fe608060405234801561001057600080fd5b506004361061002b5760003560e01c806370230b3914610030575b600080fd5b61003861004e565b60405161004591906101a5565b60405180910390f35b610056610186565b7f000000000000000000000000000000000000000000000000000000000000000081527f000000000000000000000000000000000000000000000000000000000000000060208201527f000000000000000000000000000000000000000000000000000000000000000060408201527f000000000000000000000000000000000000000000000000000000000000000060608201527f000000000000000000000000000000000000000000000000000000000000000060808201527f000000000000000000000000000000000000000000000000000000000000000060a08201527f000000000000000000000000000000000000000000000000000000000000000060c08201527f000000000000000000000000000000000000000000000000000000000000000060e082015290565b6040518061010001604052806008906020820280368337509192915050565b6101008101818360005b60088110156101ce5781518352602092830192909101906001016101af565b5050509291505056fea2646970667358221220edd7f7b73e462a55cbb479689623997e4d729dfb9823ca54ffa5043d87e9f84564736f6c634300080a0033",
  "linkReferences": {},
  "deployedLinkReferences": {}
}