{
  "_format": "hh-sol-artifact-1",
  "contractName": "NeverTier",
  "sourceName": "contracts/tier/NeverTier.sol",
  "abi": [
    {
      "anonymous": false,
      "inputs": [
        {
          "indexed": true,
          "internalType": "address",
          "name": "account",
          "type": "address"
        },
        {
          "indexed": true,
          "internalType": "enum ITier.Tier",
          "name": "startTier",
          "type": "uint8"
        },
        {
          "indexed": true,
          "internalType": "enum ITier.Tier",
          "name": "endTier",
          "type": "uint8"
        }
      ],
      "name": "TierChange",
      "type": "event"
    },
    {
      "inputs": [
        {
          "internalType": "address",
          "name": "",
          "type": "address"
        }
      ],
      "name": "report",
      "outputs": [
        {
          "internalType": "uint256",
          "name": "",
          "type": "uint256"
        }
      ],
      "stateMutability": "pure",
      "type": "function"
    },
    {
      "inputs": [
        {
          "internalType": "address",
          "name": "",
          "type": "address"
        },
        {
          "internalType": "enum ITier.Tier",
          "name": "",
          "type": "uint8"
        },
        {
          "internalType": "bytes",
          "name": "",
          "type": "bytes"
        }
      ],
      "name": "setTier",
      "outputs": [],
      "stateMutability": "pure",
      "type": "function"
    }
  ],
  "bytecode": "0x608060405234801561001057600080fd5b506102a1806100206000396000f3fe608060405234801561001057600080fd5b50600436106100365760003560e01c806352dab69d1461003b578063e053ea3114610050575b600080fd5b61004e610049366004610153565b610095565b005b61008361005e366004610249565b507fffffffffffffffffffffffffffffffffffffffffffffffffffffffffffffffff90565b60405190815260200160405180910390f35b6040517f08c379a000000000000000000000000000000000000000000000000000000000815260206004820152600860248201527f5345545f54494552000000000000000000000000000000000000000000000000604482015260640160405180910390fd5b803573ffffffffffffffffffffffffffffffffffffffff8116811461011f57600080fd5b919050565b7f4e487b7100000000000000000000000000000000000000000000000000000000600052604160045260246000fd5b60008060006060848603121561016857600080fd5b610171846100fb565b925060208401356009811061018557600080fd5b9150604084013567ffffffffffffffff808211156101a257600080fd5b818601915086601f8301126101b657600080fd5b8135818111156101c8576101c8610124565b604051601f82017fffffffffffffffffffffffffffffffffffffffffffffffffffffffffffffffe0908116603f0116810190838211818310171561020e5761020e610124565b8160405282815289602084870101111561022757600080fd5b8260208601602083013760006020848301015280955050505050509250925092565b60006020828403121561025b57600080fd5b610264826100fb565b939250505056fea2646970667358221220ab4f639d9444b35682ef02e148dd73fc295c6f557a42ea40b495468066f26fa564736f6c634300080a0033",
  "linkReferences": {},
  "deployedLinkReferences": {}
}