{
  "address": "0x09f91AC0215AFa0533Bf3212FBe59086300c3165",
  "abi": [
    {
      "inputs": [],
      "stateMutability": "nonpayable",
      "type": "constructor"
    },
    {
      "anonymous": false,
      "inputs": [
        {
          "indexed": false,
          "internalType": "address",
          "name": "sender",
          "type": "address"
        },
        {
          "indexed": false,
          "internalType": "address",
          "name": "implementation",
          "type": "address"
        }
      ],
      "name": "Implementation",
      "type": "event"
    },
    {
      "anonymous": false,
      "inputs": [
        {
          "indexed": false,
          "internalType": "address",
          "name": "sender",
          "type": "address"
        },
        {
          "indexed": false,
          "internalType": "address",
          "name": "child",
          "type": "address"
        }
      ],
      "name": "NewChild",
      "type": "event"
    },
    {
      "inputs": [
        {
          "internalType": "bytes",
          "name": "data_",
          "type": "bytes"
        }
      ],
      "name": "createChild",
      "outputs": [
        {
          "internalType": "address",
          "name": "",
          "type": "address"
        }
      ],
      "stateMutability": "nonpayable",
      "type": "function"
    },
    {
      "inputs": [
        {
          "components": [
            {
              "internalType": "bytes[]",
              "name": "sources",
              "type": "bytes[]"
            },
            {
              "internalType": "uint256[]",
              "name": "constants",
              "type": "uint256[]"
            },
            {
              "internalType": "uint256",
              "name": "stackLength",
              "type": "uint256"
            },
            {
              "internalType": "uint256",
              "name": "argumentsLength",
              "type": "uint256"
            }
          ],
          "internalType": "struct StateConfig",
          "name": "config_",
          "type": "tuple"
        }
      ],
      "name": "createChildTyped",
      "outputs": [
        {
          "internalType": "contract CombineTier",
          "name": "",
          "type": "address"
        }
      ],
      "stateMutability": "nonpayable",
      "type": "function"
    },
    {
      "inputs": [
        {
          "internalType": "address",
          "name": "maybeChild_",
          "type": "address"
        }
      ],
      "name": "isChild",
      "outputs": [
        {
          "internalType": "bool",
          "name": "",
          "type": "bool"
        }
      ],
      "stateMutability": "view",
      "type": "function"
    }
  ],
  "transactionHash": "0x7f8f9956ec4dc0f37435f6484e2117eb1b95e71833447f3b887f49182a707263",
  "args": [],
  "numDeployments": 1,
  "solcInputHash": "9e85ba39dabcbad721cb8b95134928f1",
  "bytecode": "0x608060405234801561001057600080fd5b5060016000908155604051610024906100aa565b604051809103906000f080158015610040573d6000803e3d6000fd5b50604080513381526001600160a01b03831660208201529192507f7fac34ecf0b1b374cd9659e3d17db602659d53f1162b1f20142e6c02694aed70910160405180910390a1600280546001600160a01b0319166001600160a01b03929092169190911790556100b7565b611eb380610cf983390190565b610c33806100c66000396000f3fe608060405234801561001057600080fd5b50600436106100415760003560e01c80632ea72a491461004657806384e0ecdb14610083578063fc91a89714610096575b600080fd5b610059610054366004610449565b6100df565b60405173ffffffffffffffffffffffffffffffffffffffff90911681526020015b60405180910390f35b6100596100913660046104bb565b6101fd565b6100cf6100a4366004610522565b73ffffffffffffffffffffffffffffffffffffffff1660009081526001602052604090205460ff1690565b604051901515815260200161007a565b600060026000541415610153576040517f08c379a000000000000000000000000000000000000000000000000000000000815260206004820152601f60248201527f5265656e7472616e637947756172643a207265656e7472616e742063616c6c0060448201526064015b60405180910390fd5b6002600090815561016484846102a0565b73ffffffffffffffffffffffffffffffffffffffff811660008181526001602081815260409283902080547fffffffffffffffffffffffffffffffffffffffffffffffffffffffffffffff00169092179091558151338152908101929092529192507f7da70c4e5387d7038610b79ca7d304caaef815826e51e67cf247135387a79bce910160405180910390a160016000559392505050565b60003073ffffffffffffffffffffffffffffffffffffffff16632ea72a498360405160200161022c9190610645565b6040516020818303038152906040526040518263ffffffff1660e01b815260040161025791906107f8565b6020604051808303816000875af1158015610276573d6000803e3d6000fd5b505050506040513d601f19601f8201168201806040525081019061029a919061080b565b92915050565b6000806102af8385018561095e565b6002549091506000906102d79073ffffffffffffffffffffffffffffffffffffffff16610367565b6040517fe684b6d600000000000000000000000000000000000000000000000000000000815290915073ffffffffffffffffffffffffffffffffffffffff82169063e684b6d69061032c908590600401610b21565b600060405180830381600087803b15801561034657600080fd5b505af115801561035a573d6000803e3d6000fd5b5092979650505050505050565b60006040517f3d602d80600a3d3981f3363d3d373d3d3d363d7300000000000000000000000081528260601b60148201527f5af43d82803e903d91602b57fd5bf3000000000000000000000000000000000060288201526037816000f091505073ffffffffffffffffffffffffffffffffffffffff8116610444576040517f08c379a000000000000000000000000000000000000000000000000000000000815260206004820152601660248201527f455243313136373a20637265617465206661696c656400000000000000000000604482015260640161014a565b919050565b6000806020838503121561045c57600080fd5b823567ffffffffffffffff8082111561047457600080fd5b818501915085601f83011261048857600080fd5b81358181111561049757600080fd5b8660208285010111156104a957600080fd5b60209290920196919550909350505050565b6000602082840312156104cd57600080fd5b813567ffffffffffffffff8111156104e457600080fd5b8201608081850312156104f657600080fd5b9392505050565b73ffffffffffffffffffffffffffffffffffffffff8116811461051f57600080fd5b50565b60006020828403121561053457600080fd5b81356104f6816104fd565b60008083357fffffffffffffffffffffffffffffffffffffffffffffffffffffffffffffffe184360301811261057457600080fd5b830160208101925035905067ffffffffffffffff81111561059457600080fd5b8060051b36038313156105a657600080fd5b9250929050565b8183528181602085013750600060208284010152600060207fffffffffffffffffffffffffffffffffffffffffffffffffffffffffffffffe0601f840116840101905092915050565b81835260007f07ffffffffffffffffffffffffffffffffffffffffffffffffffffffffffffff83111561062857600080fd5b8260051b8083602087013760009401602001938452509192915050565b6000602080835260a0830161065a858661053f565b6080848701528281845260c08701905060c08260051b88010193508260005b83811015610723577fffffffffffffffffffffffffffffffffffffffffffffffffffffffffffffff4089870301835281357fffffffffffffffffffffffffffffffffffffffffffffffffffffffffffffffe18636030181126106da57600080fd5b8501803567ffffffffffffffff8111156106f357600080fd5b80360387131561070257600080fd5b61070f88828b85016105ad565b975050509186019190860190600101610679565b50505050506107348286018661053f565b92507fffffffffffffffffffffffffffffffffffffffffffffffffffffffffffffffe085830301604086015261076b8284836105f6565b9250505060408401356060840152606084013560808401528091505092915050565b6000815180845260005b818110156107b357602081850181015186830182015201610797565b818111156107c5576000602083870101525b50601f017fffffffffffffffffffffffffffffffffffffffffffffffffffffffffffffffe0169290920160200192915050565b6020815260006104f6602083018461078d565b60006020828403121561081d57600080fd5b81516104f6816104fd565b7f4e487b7100000000000000000000000000000000000000000000000000000000600052604160045260246000fd5b6040516080810167ffffffffffffffff8111828210171561087a5761087a610828565b60405290565b604051601f82017fffffffffffffffffffffffffffffffffffffffffffffffffffffffffffffffe016810167ffffffffffffffff811182821017156108c7576108c7610828565b604052919050565b600067ffffffffffffffff8211156108e9576108e9610828565b5060051b60200190565b600082601f83011261090457600080fd5b81356020610919610914836108cf565b610880565b82815260059290921b8401810191818101908684111561093857600080fd5b8286015b84811015610953578035835291830191830161093c565b509695505050505050565b6000602080838503121561097157600080fd5b823567ffffffffffffffff8082111561098957600080fd5b908401906080828703121561099d57600080fd5b6109a5610857565b8235828111156109b457600080fd5b8301601f810188136109c557600080fd5b80356109d3610914826108cf565b81815260059190911b8201860190868101908a8311156109f257600080fd5b8784015b83811015610a9d57803587811115610a0e5760008081fd5b8501603f81018d13610a205760008081fd5b89810135604089821115610a3657610a36610828565b610a668c7fffffffffffffffffffffffffffffffffffffffffffffffffffffffffffffffe0601f85011601610880565b8281528f82848601011115610a7b5760008081fd5b828285018e83013760009281018d0192909252508452509188019188016109f6565b5084525050508284013582811115610ab457600080fd5b610ac0888286016108f3565b858301525060408301356040820152606083013560608201528094505050505092915050565b600081518084526020808501945080840160005b83811015610b1657815187529582019590820190600101610afa565b509495945050505050565b6000602080835260a08301845160808386015281815180845260c08701915060c08160051b8801019350848301925060005b81811015610b9f577fffffffffffffffffffffffffffffffffffffffffffffffffffffffffffffff40888603018352610b8d85855161078d565b94509285019291850191600101610b53565b50505050908401518382037fffffffffffffffffffffffffffffffffffffffffffffffffffffffffffffffe001604085015290610bdc8183610ae6565b9150506040840151606084015260608401516080840152809150509291505056fea264697066735822122027032a2958023730a3aa5c22f6809cc7a2e2956fc1e267d7f72b3c433956c76564736f6c634300080a003360e060405234801561001057600080fd5b50600460808190526100249060029061003d565b60a08190526100359060069061003d565b60c052610063565b6000821982111561005e57634e487b7160e01b600052601160045260246000fd5b500190565b60805160a05160c051611e12620000a16000396000818161084001526108960152600081816107e5015261086d015260006108120152611e126000f3fe608060405234801561001057600080fd5b50600436106100415760003560e01c80638a200fff14610046578063e053ea311461005b578063e684b6d614610080575b600080fd5b6100596100543660046116cc565b610093565b005b61006e610069366004611725565b6100fa565b60405190815260200160405180910390f35b61005961008e3660046117cc565b610197565b6040517f08c379a000000000000000000000000000000000000000000000000000000000815260206004820152600860248201527f5345545f5449455200000000000000000000000000000000000000000000000060448201526064015b60405180910390fd5b6000805481906101259062010000900473ffffffffffffffffffffffffffffffffffffffff16610305565b6040805173ffffffffffffffffffffffffffffffffffffffff861660208201529192506101649101604051602081830303815290604052826000610359565b60208101518151610177906001906118e1565b815181106101875761018761191f565b6020026020010151915050919050565b600054610100900460ff166101b25760005460ff16156101b6565b303b155b610242576040517f08c379a000000000000000000000000000000000000000000000000000000000815260206004820152602e60248201527f496e697469616c697a61626c653a20636f6e747261637420697320616c72656160448201527f647920696e697469616c697a656400000000000000000000000000000000000060648201526084016100f1565b600054610100900460ff1615801561028157600080547fffffffffffffffffffffffffffffffffffffffffffffffffffffffffffff0000166101011790555b61029261028d836104ee565b6105e1565b600060026101000a81548173ffffffffffffffffffffffffffffffffffffffff021916908373ffffffffffffffffffffffffffffffffffffffff160217905550801561030157600080547fffffffffffffffffffffffffffffffffffffffffffffffffffffffffffff00ff1690555b5050565b6103376040518060a0016040528060008152602001606081526020016060815260200160608152602001606081525090565b6103408261064f565b8060200190518101906103539190611a91565b92915050565b602082810151604084015183830201909101516060840151608085015182516000948594859492939092915b848810156104e1576002880197508784015180601e1a975080601f1a96505060048710156104d55760018714156103e85781608087166103c25750825b8a516020607f89160260200182015160208202602001840152600181018c525050610385565b60028714156104135789516020870260200182015160208202602001830152600181018b5250610385565b600387141561042c576104278b8b8861067d565b610385565b607f6101fe600188901b161786166080871615610498578a517fffffffffffffffffffffffffffffffffffffffffffffffffffffffffffffffff01808c5260208c0151805190919081106104825761048261191f565b6020026020010151600014156104985750610385565b8060000b6000146104cf5760008160000b12156104c357801960020160020260ff16890398506104cf565b8060020260ff16890198505b50610385565b6104278b8b89896107e3565b5050505050505050505050565b6105206040518060a0016040528060008152602001606081526020016060815260200160608152602001606081525090565b6040518060a0016040528060008152602001836040015167ffffffffffffffff81111561054f5761054f611566565b604051908082528060200260200182016040528015610578578160200160208202803683370190505b5081526020018360000151815260200183602001518152602001836060015167ffffffffffffffff8111156105af576105af611566565b6040519080825280602002602001820160405280156105d8578160200160208202803683370190505b50905292915050565b60008061060c836040516020016105f89190611c9d565b60405160208183030381529060405261098b565b90507ff95eed63f55d96a35306669cc3b5f652f8d44552e3e4b17b2f78f13571114abd33828560405161064193929190611cb0565b60405180910390a192915050565b60606103538260017fffffffffffffffffffffffffffffffffffffffffffffffffffffffffffffffff610a16565b81517fffffffffffffffffffffffffffffffffffffffffffffffffffffffffffffffff600583901c918290030183526007821690610100600384811c1681901c91908290039060010160008167ffffffffffffffff8111156106e1576106e1611566565b60405190808252806020026020018201604052801561070a578160200160208202803683370190505b50905060005b8281101561076157876020015181896000015101815181106107345761073461191f565b602002602001015182828151811061074e5761074e61191f565b6020908102919091010152600101610710565b5060005b6101008110156107d85760005b838110156107c557848286038483815181106107905761079061191f565b6020026020010151901b901c896080015182815181106107b2576107b261191f565b6020908102919091010152600101610772565b506107d1898988610359565b8401610765565b505050505050505050565b7f000000000000000000000000000000000000000000000000000000000000000082101561083e5761083984847f0000000000000000000000000000000000000000000000000000000000000000850384610aff565b610985565b7f00000000000000000000000000000000000000000000000000000000000000008210156108945761083984847f0000000000000000000000000000000000000000000000000000000000000000850384610bdb565b7f00000000000000000000000000000000000000000000000000000000000000008203915060018210610923576040517f08c379a000000000000000000000000000000000000000000000000000000000815260206004820152600a60248201527f4d41585f4f50434f44450000000000000000000000000000000000000000000060448201526064016100f1565b816109855760008480602001905181019061093e9190611ce9565b90508073ffffffffffffffffffffffffffffffffffffffff1684602001518560000151815181106109715761097161191f565b602090810291909101015250825160010183525b50505050565b6000806109b6836040516020016109a29190611d06565b6040516020818303038152906040526110d8565b90508051602082016000f0915073ffffffffffffffffffffffffffffffffffffffff8216610a10576040517f08d4abb600000000000000000000000000000000000000000000000000000000815260040160405180910390fd5b50919050565b6060833b80610a35575050604080516020810190915260008152610af8565b80841115610a53575050604080516020810190915260008152610af8565b83831015610a9e576040517f2c4a89fa0000000000000000000000000000000000000000000000000000000081526004810182905260248101859052604481018490526064016100f1565b8383038482036000828210610ab35782610ab5565b815b60408051603f83017fffffffffffffffffffffffffffffffffffffffffffffffffffffffffffffffe0168101909152818152955090508087602087018a3c505050505b9392505050565b60028210610b69576040517f08c379a000000000000000000000000000000000000000000000000000000000815260206004820152600a60248201527f4d41585f4f50434f44450000000000000000000000000000000000000000000060448201526064016100f1565b81610ba057438360200151846000015181518110610b8957610b8961191f565b602090810291909101015282516001018352610985565b600182141561098557428360200151846000015181518110610bc457610bc461191f565b602090810291909101015250508051600101905250565b60068210610c45576040517f08c379a000000000000000000000000000000000000000000000000000000000815260206004820152600a60248201527f4d41585f4f50434f44450000000000000000000000000000000000000000000060448201526064016100f1565b600082610d94575082517fffffffffffffffffffffffffffffffffffffffffffffffffffffffffffffffff81018452602084015180517ffffffffffffffffffffffffffffffffffffffffffffffffffffffffffffffffe9092019182908110610cb057610cb061191f565b602002602001015173ffffffffffffffffffffffffffffffffffffffff1663e053ea3185602001518360010181518110610cec57610cec61191f565b60200260200101516040518263ffffffff1660e01b8152600401610d2c919073ffffffffffffffffffffffffffffffffffffffff91909116815260200190565b602060405180830381865afa158015610d49573d6000803e3d6000fd5b505050506040513d601f19601f82011682018060405250810190610d6d9190611d2c565b84602001518281518110610d8357610d8361191f565b6020026020010181815250506110d1565b6001831415610def577fffffffffffffffffffffffffffffffffffffffffffffffffffffffffffffffff8460200151856000015181518110610dd857610dd861191f565b6020908102919091010152835160010184526110d1565b6002831415610e145760008460200151856000015181518110610dd857610dd861191f565b6003831415610ec8575082517ffffffffffffffffffffffffffffffffffffffffffffffffffffffffffffffffe01808452602084015180516000919083908110610e6057610e6061191f565b60200260200101519050600085602001518360010181518110610e8557610e8561191f565b60200260200101519050610e998282611104565b86602001518481518110610eaf57610eaf61191f565b60209081029190910101525050835160010184526110d1565b6004831415610f90575082517ffffffffffffffffffffffffffffffffffffffffffffffffffffffffffffffffe0180845260208401518051600f80851692600486901c909116916000919085908110610f2357610f2361191f565b60200260200101519050600087602001518560010181518110610f4857610f4861191f565b60200260200101519050610f5e82858584611163565b88602001518681518110610f7457610f7461191f565b6020908102919091010152505085516001018652506110d19050565b60058314156110d1575082517fffffffffffffffffffffffffffffffffffffffffffffffffffffffffffffffff601f8316918290030180855290600783901c906003600585901c16908360008267ffffffffffffffff811115610ff557610ff5611566565b60405190808252806020026020018201604052801561101e578160200160208202803683370190505b50905060005b8381101561107357896020015183815181106110425761104261191f565b602002602001015182828151811061105c5761105c61191f565b602090810291909101015260019283019201611024565b5060008960200151838151811061108c5761108c61191f565b602002602001015190506110a282828888611276565b8a6020015188815181106110b8576110b861191f565b6020908102919091010152505087516001018852505050505b5050505050565b60608151826040516020016110ee929190611d45565b6040516020818303038152906040529050919050565b60008060015b6008811161115b57600061111e86836113c6565b9050600061112c86846113c6565b9050600061113a838361147b565b905061114a856001860383611491565b9450506001909201915061110a9050565b509392505050565b60008360088111156111d1576040517f08c379a000000000000000000000000000000000000000000000000000000000815260206004820152600860248201527f4d41585f5449455200000000000000000000000000000000000000000000000060448201526064016100f1565b83600881111561123d576040517f08c379a000000000000000000000000000000000000000000000000000000000815260206004820152600860248201527f4d41585f5449455200000000000000000000000000000000000000000000000060448201526064016100f1565b6000865b868110156112695763ffffffff6020820290811b1999909916868a1b17989150600101611241565b5096979650505050505050565b835160009081908190819060015b600881116113b8576000925082876112bd57507fffffffffffffffffffffffffffffffffffffffffffffffffffffffffffffffff6112c1565b5060005b60005b83811015611376576112ef8c82815181106112e1576112e161191f565b6020026020010151846113c6565b95508a8611611341578861130e57611307868361151b565b9150611338565b6001891415611321576113078683611531565b60028914801561132f575084155b15611338578591505b6001945061136e565b8961136e577fffffffffffffffffffffffffffffffffffffffffffffffffffffffffffffffff9150611376565b6001016112c4565b508361139f57507fffffffffffffffffffffffffffffffffffffffffffffffffffffffffffffffff5b6113ad866001840383611491565b955050600101611284565b509298975050505050505050565b6000816008811115611434576040517f08c379a000000000000000000000000000000000000000000000000000000000815260206004820152600860248201527f4d41585f5449455200000000000000000000000000000000000000000000000060448201526064016100f1565b826114425760009150611474565b63ffffffff60207fffffffffffffffffffffffffffffffffffffffffffffffffffffffffffffffff85010285901c1691505b5092915050565b600081831161148b576000610af8565b50900390565b60008260088111156114ff576040517f08c379a000000000000000000000000000000000000000000000000000000000815260206004820152600860248201527f4d41585f5449455200000000000000000000000000000000000000000000000060448201526064016100f1565b505060209190910290811b63ffffffff90911b19919091161790565b600081831061152a5781610af8565b5090919050565b60008183101561152a5781610af8565b73ffffffffffffffffffffffffffffffffffffffff8116811461156357600080fd5b50565b7f4e487b7100000000000000000000000000000000000000000000000000000000600052604160045260246000fd5b6040516080810167ffffffffffffffff811182821017156115b8576115b8611566565b60405290565b60405160a0810167ffffffffffffffff811182821017156115b8576115b8611566565b604051601f82017fffffffffffffffffffffffffffffffffffffffffffffffffffffffffffffffe016810167ffffffffffffffff8111828210171561162857611628611566565b604052919050565b600067ffffffffffffffff82111561164a5761164a611566565b50601f017fffffffffffffffffffffffffffffffffffffffffffffffffffffffffffffffe01660200190565b600082601f83011261168757600080fd5b813561169a61169582611630565b6115e1565b8181528460208386010111156116af57600080fd5b816020850160208301376000918101602001919091529392505050565b6000806000606084860312156116e157600080fd5b83356116ec81611541565b925060208401359150604084013567ffffffffffffffff81111561170f57600080fd5b61171b86828701611676565b9150509250925092565b60006020828403121561173757600080fd5b8135610af881611541565b600067ffffffffffffffff82111561175c5761175c611566565b5060051b60200190565b600082601f83011261177757600080fd5b8135602061178761169583611742565b82815260059290921b840181019181810190868411156117a657600080fd5b8286015b848110156117c157803583529183019183016117aa565b509695505050505050565b600060208083850312156117df57600080fd5b823567ffffffffffffffff808211156117f757600080fd5b908401906080828703121561180b57600080fd5b611813611595565b82358281111561182257600080fd5b8301601f8101881361183357600080fd5b803561184161169582611742565b81815260059190911b8201860190868101908a83111561186057600080fd5b8784015b838110156118985780358781111561187c5760008081fd5b61188a8d8b83890101611676565b845250918801918801611864565b50845250505082840135828111156118af57600080fd5b6118bb88828601611766565b858301525060408301356040820152606083013560608201528094505050505092915050565b60008282101561191a577f4e487b7100000000000000000000000000000000000000000000000000000000600052601160045260246000fd5b500390565b7f4e487b7100000000000000000000000000000000000000000000000000000000600052603260045260246000fd5b600082601f83011261195f57600080fd5b8151602061196f61169583611742565b82815260059290921b8401810191818101908684111561198e57600080fd5b8286015b848110156117c15780518352918301918301611992565b60005b838110156119c45781810151838201526020016119ac565b838111156109855750506000910152565b600082601f8301126119e657600080fd5b815160206119f661169583611742565b82815260059290921b84018101918181019086841115611a1557600080fd5b8286015b848110156117c157805167ffffffffffffffff811115611a395760008081fd5b8701603f81018913611a4b5760008081fd5b848101516040611a5d61169583611630565b8281528b82848601011115611a725760008081fd5b611a81838983018487016119a9565b8652505050918301918301611a19565b600060208284031215611aa357600080fd5b815167ffffffffffffffff80821115611abb57600080fd5b9083019060a08286031215611acf57600080fd5b611ad76115be565b82518152602083015182811115611aed57600080fd5b611af98782860161194e565b602083015250604083015182811115611b1157600080fd5b611b1d878286016119d5565b604083015250606083015182811115611b3557600080fd5b611b418782860161194e565b606083015250608083015182811115611b5957600080fd5b611b658782860161194e565b60808301525095945050505050565b600081518084526020808501945080840160005b83811015611ba457815187529582019590820190600101611b88565b509495945050505050565b80518252600060208083015160a082860152611bce60a0860182611b74565b9050604084015185820360408701528181518084528484019150848160051b850101858401935060005b82811015611c5c577fffffffffffffffffffffffffffffffffffffffffffffffffffffffffffffffe08087840301855285518051808552611c3e818b87018c85016119a9565b9689019695890195601f019091169290920187019150600101611bf8565b506060880151955088810360608a0152611c768187611b74565b9550505050505060808301518482036080860152611c948282611b74565b95945050505050565b602081526000610af86020830184611baf565b600073ffffffffffffffffffffffffffffffffffffffff808616835280851660208401525060606040830152611c946060830184611baf565b600060208284031215611cfb57600080fd5b8151610af881611541565b6000815260008251611d1f8160018501602087016119a9565b9190910160010192915050565b600060208284031215611d3e57600080fd5b5051919050565b7f630000000000000000000000000000000000000000000000000000000000000081527fffffffff000000000000000000000000000000000000000000000000000000008360e01b1660018201527f80600e6000396000f30000000000000000000000000000000000000000000000600582015260008251611dce81600e8501602087016119a9565b91909101600e01939250505056fea26469706673582212209e60c61c8840d8c74f4bd6d0dea7ef02ef09038b71e8be919f1f4ec7465950e364736f6c634300080a0033",
  "devdoc": {
    "kind": "dev",
    "methods": {
      "createChild(bytes)": {
        "params": {
          "data_": "Encoded data to pass down to child contract constructor."
        },
        "returns": {
          "_0": "New child contract address."
        }
      },
      "createChildTyped((bytes[],uint256[],uint256,uint256))": {
        "params": {
          "config_": "`ImmutableSourceConfig` of the `CombineTier` logic."
        },
        "returns": {
          "_0": "New `CombineTier` child contract address."
        }
      },
      "isChild(address)": {
        "params": {
          "maybeChild_": "Address of child contract to look up."
        },
        "returns": {
          "_0": "Returns `true` if address is a contract created by this contract factory, otherwise `false`."
        }
      }
    },
    "title": "CombineTierFactory",
    "version": 1
  },
  "userdoc": {
    "events": {
      "Implementation(address,address)": {
        "notice": "Factories that clone a template contract MUST emit an event any time they set the implementation being cloned. Factories that deploy new contracts without cloning do NOT need to emit this."
      },
      "NewChild(address,address)": {
        "notice": "Whenever a new child contract is deployed, a `NewChild` event containing the new child contract address MUST be emitted."
      }
    },
    "kind": "user",
    "methods": {
      "constructor": {
        "notice": "Build the reference implementation to clone for each child."
      },
      "createChild(bytes)": {
        "notice": "Implements `IFactory`. Calls the `_createChild` hook that inheriting contracts must override. Registers child contract address such that `isChild` is `true`. Emits `NewChild` event."
      },
      "createChildTyped((bytes[],uint256[],uint256,uint256))": {
        "notice": "Typed wrapper for `createChild` with Source. Use original `Factory` `createChild` function signature if function parameters are already encoded."
      },
      "isChild(address)": {
        "notice": "Implements `IFactory`. Checks if address is registered as a child contract of this factory."
      }
    },
    "notice": "Factory for creating and deploying `CombineTier` contracts.",
    "version": 1
  },
  "storageLayout": {
    "storage": [
      {
        "astId": 3812,
        "contract": "contracts/tier/CombineTierFactory.sol:CombineTierFactory",
        "label": "_status",
        "offset": 0,
        "slot": "0",
        "type": "t_uint256"
      },
      {
        "astId": 10285,
        "contract": "contracts/tier/CombineTierFactory.sol:CombineTierFactory",
        "label": "contracts",
        "offset": 0,
        "slot": "1",
        "type": "t_mapping(t_address,t_bool)"
      },
      {
        "astId": 16885,
        "contract": "contracts/tier/CombineTierFactory.sol:CombineTierFactory",
        "label": "implementation",
        "offset": 0,
        "slot": "2",
        "type": "t_address"
      }
    ],
    "types": {
      "t_address": {
        "encoding": "inplace",
        "label": "address",
        "numberOfBytes": "20"
      },
      "t_bool": {
        "encoding": "inplace",
        "label": "bool",
        "numberOfBytes": "1"
      },
      "t_mapping(t_address,t_bool)": {
        "encoding": "mapping",
        "key": "t_address",
        "label": "mapping(address => bool)",
        "numberOfBytes": "32",
        "value": "t_bool"
      },
      "t_uint256": {
        "encoding": "inplace",
        "label": "uint256",
        "numberOfBytes": "32"
      }
    }
  }
}