{
  "address": "0x2C3eF82d2Fb716DD11b510d74e4455E2D56CC7e6",
  "abi": [
    {
      "inputs": [
        {
          "internalType": "uint256",
          "name": "maxTimeout_",
          "type": "uint256"
        }
      ],
      "stateMutability": "nonpayable",
      "type": "constructor"
    },
    {
      "anonymous": false,
      "inputs": [
        {
          "indexed": false,
          "internalType": "address",
          "name": "sender",
          "type": "address"
        },
        {
          "indexed": false,
          "internalType": "uint256",
          "name": "share",
          "type": "uint256"
        },
        {
          "indexed": false,
          "internalType": "uint256",
          "name": "amount",
          "type": "uint256"
        }
      ],
      "name": "Claim",
      "type": "event"
    },
    {
      "anonymous": false,
      "inputs": [
        {
          "indexed": false,
          "internalType": "address",
          "name": "sender",
          "type": "address"
        },
        {
          "indexed": false,
          "internalType": "address",
          "name": "token",
          "type": "address"
        },
        {
          "indexed": false,
          "internalType": "uint256",
          "name": "amount",
          "type": "uint256"
        }
      ],
      "name": "Deposit",
      "type": "event"
    },
    {
      "anonymous": false,
      "inputs": [
        {
          "indexed": false,
          "internalType": "uint8",
          "name": "version",
          "type": "uint8"
        }
      ],
      "name": "Initialized",
      "type": "event"
    },
    {
      "anonymous": false,
      "inputs": [
        {
          "indexed": false,
          "internalType": "address",
          "name": "sender",
          "type": "address"
        }
      ],
      "name": "Join",
      "type": "event"
    },
    {
      "anonymous": false,
      "inputs": [
        {
          "indexed": false,
          "internalType": "address",
          "name": "sender",
          "type": "address"
        },
        {
          "indexed": false,
          "internalType": "address",
          "name": "token",
          "type": "address"
        },
        {
          "indexed": false,
          "internalType": "uint256",
          "name": "deposit",
          "type": "uint256"
        },
        {
          "indexed": false,
          "internalType": "uint256",
          "name": "amount",
          "type": "uint256"
        }
      ],
      "name": "Leave",
      "type": "event"
    },
    {
      "anonymous": false,
      "inputs": [
        {
          "indexed": false,
          "internalType": "address",
          "name": "sender",
          "type": "address"
        },
        {
          "indexed": false,
          "internalType": "uint256",
          "name": "newPhase",
          "type": "uint256"
        },
        {
          "indexed": false,
          "internalType": "uint256",
          "name": "scheduledTime",
          "type": "uint256"
        }
      ],
      "name": "PhaseScheduled",
      "type": "event"
    },
    {
      "anonymous": false,
      "inputs": [
        {
          "indexed": false,
          "internalType": "address",
          "name": "sender",
          "type": "address"
        }
      ],
      "name": "PlayersFinalised",
      "type": "event"
    },
    {
      "anonymous": false,
      "inputs": [
        {
          "indexed": false,
          "internalType": "address",
          "name": "sender",
          "type": "address"
        },
        {
          "indexed": false,
          "internalType": "uint256",
          "name": "amount",
          "type": "uint256"
        }
      ],
      "name": "Refund",
      "type": "event"
    },
    {
      "anonymous": false,
      "inputs": [
        {
          "indexed": false,
          "internalType": "address",
          "name": "sender",
          "type": "address"
        }
      ],
      "name": "Timeout",
      "type": "event"
    },
    {
      "inputs": [
        {
          "internalType": "uint256[]",
          "name": "callerContext_",
          "type": "uint256[]"
        },
        {
          "components": [
            {
              "internalType": "address",
              "name": "signer",
              "type": "address"
            },
            {
              "internalType": "bytes",
              "name": "signature",
              "type": "bytes"
            },
            {
              "internalType": "uint256[]",
              "name": "context",
              "type": "uint256[]"
            }
          ],
          "internalType": "struct SignedContext",
          "name": "signedContext_",
          "type": "tuple"
        }
      ],
      "name": "claim",
      "outputs": [],
      "stateMutability": "nonpayable",
      "type": "function"
    },
    {
      "inputs": [
        {
          "internalType": "uint256[]",
          "name": "callerContext_",
          "type": "uint256[]"
        },
        {
          "components": [
            {
              "internalType": "address",
              "name": "signer",
              "type": "address"
            },
            {
              "internalType": "bytes",
              "name": "signature",
              "type": "bytes"
            },
            {
              "internalType": "uint256[]",
              "name": "context",
              "type": "uint256[]"
            }
          ],
          "internalType": "struct SignedContext",
          "name": "signedContext_",
          "type": "tuple"
        }
      ],
      "name": "complete",
      "outputs": [],
      "stateMutability": "nonpayable",
      "type": "function"
    },
    {
      "inputs": [],
      "name": "currentPhase",
      "outputs": [
        {
          "internalType": "uint256",
          "name": "phase_",
          "type": "uint256"
        }
      ],
      "stateMutability": "view",
      "type": "function"
    },
    {
      "inputs": [
        {
          "internalType": "uint256",
          "name": "amount_",
          "type": "uint256"
        }
      ],
      "name": "deposit",
      "outputs": [],
      "stateMutability": "nonpayable",
      "type": "function"
    },
    {
      "inputs": [
        {
          "components": [
            {
              "internalType": "bool",
              "name": "refMustAgree",
              "type": "bool"
            },
            {
              "internalType": "address",
              "name": "ref",
              "type": "address"
            },
            {
              "internalType": "address",
              "name": "expressionDeployer",
              "type": "address"
            },
            {
              "internalType": "address",
              "name": "interpreter",
              "type": "address"
            },
            {
              "internalType": "address",
              "name": "token",
              "type": "address"
            },
            {
              "components": [
                {
                  "internalType": "bytes[]",
                  "name": "sources",
                  "type": "bytes[]"
                },
                {
                  "internalType": "uint256[]",
                  "name": "constants",
                  "type": "uint256[]"
                }
              ],
              "internalType": "struct StateConfig",
              "name": "stateConfig",
              "type": "tuple"
            },
            {
              "internalType": "bytes",
              "name": "description",
              "type": "bytes"
            },
            {
              "internalType": "uint256",
              "name": "timeout",
              "type": "uint256"
            }
          ],
          "internalType": "struct Config",
          "name": "config_",
          "type": "tuple"
        }
      ],
      "name": "initialize",
      "outputs": [],
      "stateMutability": "nonpayable",
      "type": "function"
    },
    {
      "inputs": [
        {
          "internalType": "uint256[]",
          "name": "callerContext_",
          "type": "uint256[]"
        },
        {
          "components": [
            {
              "internalType": "address",
              "name": "signer",
              "type": "address"
            },
            {
              "internalType": "bytes",
              "name": "signature",
              "type": "bytes"
            },
            {
              "internalType": "uint256[]",
              "name": "context",
              "type": "uint256[]"
            }
          ],
          "internalType": "struct SignedContext[]",
          "name": "signedContext_",
          "type": "tuple[]"
        }
      ],
      "name": "join",
      "outputs": [],
      "stateMutability": "nonpayable",
      "type": "function"
    },
    {
      "inputs": [
        {
          "internalType": "uint256[]",
          "name": "callerContext_",
          "type": "uint256[]"
        },
        {
          "components": [
            {
              "internalType": "address",
              "name": "signer",
              "type": "address"
            },
            {
              "internalType": "bytes",
              "name": "signature",
              "type": "bytes"
            },
            {
              "internalType": "uint256[]",
              "name": "context",
              "type": "uint256[]"
            }
          ],
          "internalType": "struct SignedContext[]",
          "name": "signedContext_",
          "type": "tuple[]"
        }
      ],
      "name": "leave",
      "outputs": [],
      "stateMutability": "nonpayable",
      "type": "function"
    },
    {
      "inputs": [
        {
          "internalType": "uint32[8]",
          "name": "phaseTimes_",
          "type": "uint32[8]"
        },
        {
          "internalType": "uint256",
          "name": "timestamp_",
          "type": "uint256"
        }
      ],
      "name": "phaseAtTime",
      "outputs": [
        {
          "internalType": "uint256",
          "name": "phase_",
          "type": "uint256"
        }
      ],
      "stateMutability": "pure",
      "type": "function"
    },
    {
      "inputs": [
        {
          "internalType": "uint256",
          "name": "",
          "type": "uint256"
        }
      ],
      "name": "phaseTimes",
      "outputs": [
        {
          "internalType": "uint32",
          "name": "",
          "type": "uint32"
        }
      ],
      "stateMutability": "view",
      "type": "function"
    },
    {
      "inputs": [],
      "name": "refAgrees",
      "outputs": [],
      "stateMutability": "nonpayable",
      "type": "function"
    },
    {
      "inputs": [],
      "name": "refund",
      "outputs": [],
      "stateMutability": "nonpayable",
      "type": "function"
    },
    {
      "inputs": [
        {
          "internalType": "uint32[8]",
          "name": "phaseTimes_",
          "type": "uint32[8]"
        },
        {
          "internalType": "uint256",
          "name": "phase_",
          "type": "uint256"
        }
      ],
      "name": "timeForPhase",
      "outputs": [
        {
          "internalType": "uint256",
          "name": "timestamp_",
          "type": "uint256"
        }
      ],
      "stateMutability": "pure",
      "type": "function"
    },
    {
      "inputs": [],
      "name": "timeout",
      "outputs": [],
      "stateMutability": "nonpayable",
      "type": "function"
    }
  ],
  "transactionHash": "0xb5d3c835c84060e2bbc7f8f489c27382d7e48ed82b1d7948e6a52327f62ccd50",
  "args": [
    15000000
  ],
  "numDeployments": 1,
  "solcInputHash": "70a3268f510111d09c684b56ecb9e890",
  "bytecode": "0x60a06040523480156200001157600080fd5b50604051620033d1380380620033d183398101604081905262000034916200003d565b60805262000057565b6000602082840312156200005057600080fd5b5051919050565b60805161335e620000736000396000611070015261335e6000f3fe608060405234801561001057600080fd5b50600436106100df5760003560e01c80635d521c101161008c578063997b359e11610066578063997b359e14610198578063a03e60dd146101ab578063b6b55f25146101be578063cf8fd726146101d157600080fd5b80635d521c101461015557806370dea79a1461016857806393c965571461017057600080fd5b80634cab7296116100bd5780634cab72961461012757806354e1aa721461013a578063590e1ae31461014d57600080fd5b806301a4acfa146100e4578063055ad42e146100f95780631cf355e814610114575b600080fd5b6100f76100f2366004612916565b6101d9565b005b6101016105cf565b6040519081526020015b60405180910390f35b6101016101223660046129eb565b610639565b6100f7610135366004612a81565b610678565b6100f7610148366004612b1f565b61083b565b6100f7610c7d565b6101016101633660046129eb565b610d75565b6100f7610dbc565b61018361017e366004612b83565b610e5a565b60405163ffffffff909116815260200161010b565b6100f76101a6366004612b9c565b610e8a565b6100f76101b9366004612916565b611248565b6100f76101cc366004612b83565b611586565b6100f7611642565b6001806101e46105cf565b14610250576040517f08c379a000000000000000000000000000000000000000000000000000000000815260206004820152600960248201527f4241445f5048415345000000000000000000000000000000000000000000000060448201526064015b60405180910390fd5b336000908152603c6020526040902054156102c7576040517f08c379a000000000000000000000000000000000000000000000000000000000815260206004820152600f60248201527f4f4e4c595f4e4f4e5f504c4159455200000000000000000000000000000000006044820152606401610247565b60365473ffffffffffffffffffffffffffffffffffffffff163303610348576040517f08c379a000000000000000000000000000000000000000000000000000000000815260206004820152600c60248201527f4f4e4c595f4e4f4e5f52454600000000000000000000000000000000000000006044820152606401610247565b610350611740565b603854603954604080516000808252602082019092529092839273ffffffffffffffffffffffffffffffffffffffff909116916390e7d00b91906103b190856103a9565b60608152602001906001900390816103945790505b5089896117b1565b6040518363ffffffff1660e01b81526004016103ce929190612bd8565b600060405180830381865afa1580156103eb573d6000803e3d6000fd5b505050506040513d6000823e601f3d9081017fffffffffffffffffffffffffffffffffffffffffffffffffffffffffffffffe01682016040526104319190810190612ce3565b9150915060008061049a61044d85805160209081029091010190565b7fffffffffffffffffffffffffffffffffffffffffffffffffffffffffffffffc08101517fffffffffffffffffffffffffffffffffffffffffffffffffffffffffffffffe0909101519091565b336000908152603c6020526040908190206001905560385490517fce0dd62800000000000000000000000000000000000000000000000000000000815292945090925073ffffffffffffffffffffffffffffffffffffffff169063ce0dd62890610508908690600401612d78565b600060405180830381600087803b15801561052257600080fd5b505af1158015610536573d6000803e3d6000fd5b5050505061054381611586565b6040513381527f0764c80c4165f118547b301a0b4b91eac21bd2f2d9b61d0ac723ff0aab27bb799060200160405180910390a181156105bc57610587600242611a32565b6040513381527f90918ab0d30e0330d3f5458a4e53d30ec3c03a164673a0a736814dc9fddcb71f906020015b60405180910390a15b505050506105ca6001600255565b505050565b60408051610100810191829052600091610634919083906008908280855b82829054906101000a900463ffffffff1663ffffffff16815260200190600401906020826003010492830192600103820291508084116105ed579050505050505042610d75565b905090565b600080821161064957600061066b565b82610655600184612dba565b6008811061066557610665612dcd565b60200201515b63ffffffff169392505050565b6002806106836105cf565b146106ea576040517f08c379a000000000000000000000000000000000000000000000000000000000815260206004820152600960248201527f4241445f504841534500000000000000000000000000000000000000000000006044820152606401610247565b60365473ffffffffffffffffffffffffffffffffffffffff166107106020840184612dfc565b73ffffffffffffffffffffffffffffffffffffffff161461078d576040517f08c379a000000000000000000000000000000000000000000000000000000000815260206004820152600760248201527f4241445f524546000000000000000000000000000000000000000000000000006044820152606401610247565b61079e61079983612e19565b611cdb565b6107e56107ae6040840184612e25565b80806020026020016040519081016040528093929190818152602001838360200280828437600092019190915250611d8692505050565b6035556107f3600342611a32565b6108358484808060200260200160405190810160405280939291908181526020018383602002808284376000920191909152506101489250869150612e199050565b50505050565b6003806108466105cf565b146108ad576040517f08c379a000000000000000000000000000000000000000000000000000000000815260206004820152600960248201527f4241445f504841534500000000000000000000000000000000000000000000006044820152606401610247565b6108b5611740565b6108c28260400151611d86565b6035541461092c576040517f08c379a000000000000000000000000000000000000000000000000000000000815260206004820152600860248201527f4241445f484153480000000000000000000000000000000000000000000000006044820152606401610247565b336000908152603f60205260408120549003610ba557604080516001808252818301909252600091816020015b6109936040518060600160405280600073ffffffffffffffffffffffffffffffffffffffff16815260200160608152602001606081525090565b81526020019060019003908161095957905050905082816000815181106109bc576109bc612dcd565b602090810291909101810191909152603854603b54604080516000808252948101909152839273ffffffffffffffffffffffffffffffffffffffff16916390e7d00b91610a269085610a1e565b6060815260200190600190039081610a095790505b508a886117b1565b6040518363ffffffff1660e01b8152600401610a43929190612bd8565b600060405180830381865afa158015610a60573d6000803e3d6000fd5b505050506040513d6000823e601f3d9081017fffffffffffffffffffffffffffffffffffffffffffffffffffffffffffffffe0168201604052610aa69190810190612ce3565b91509150610b05610aca604054670de0b6b3a7640000611db690919063ffffffff16565b8351610aff9060209081028601015b7fffffffffffffffffffffffffffffffffffffffffffffffffffffffffffffffe0015190565b90611dcc565b336000908152603f6020526040908190209190915560385490517fce0dd62800000000000000000000000000000000000000000000000000000000815273ffffffffffffffffffffffffffffffffffffffff9091169063ce0dd62890610b6f908490600401612d78565b600060405180830381600087803b158015610b8957600080fd5b505af1158015610b9d573d6000803e3d6000fd5b505050505050505b336000908152603f602052604090205415610c7357336000908152603f60209081526040808320546041909252822054603e54610bec9291610be691612dba565b90611de2565b603754909150610c139073ffffffffffffffffffffffffffffffffffffffff163383611df7565b603e5433600081815260416020908152604080832094909455603f815290839020548351928352908201529081018290527f34fcbac0073d7c3d388e51312faf357774904998eeb8fca628b9e6f65ee1cbf79060600160405180910390a1505b6105ca6001600255565b600480610c886105cf565b14610cef576040517f08c379a000000000000000000000000000000000000000000000000000000000815260206004820152600960248201527f4241445f504841534500000000000000000000000000000000000000000000006044820152606401610247565b336000818152603d60205260409020546037549091610d259173ffffffffffffffffffffffffffffffffffffffff169083611df7565b336000818152603d6020908152604080832092909255815192835282018390527fbb28353e4598c3b9199101a66e0989549b659a59a54d2c27fbb183f1932c8e6d91015b60405180910390a15050565b60005b6008811015610db657828160088110610d9357610d93612dcd565b602002015163ffffffff168210610db65780610dae81612e8d565b915050610d78565b92915050565b6003610dc66105cf565b03610dd057600080fd5b6034544211610dde57600080fd5b6002610de86105cf565b1015610e0f57610e0a610df96105cf565b610e04906001612ec5565b42611a32565b610dde565b610e1a600342611a32565b610e25600442611a32565b6040513381527f71b8d288b6b795cd40378095d6a9c6466eb4a081c0238dfd691b0b1f5868f1809060200160405180910390a1565b60008160088110610e6a57600080fd5b60089182820401919006600402915054906101000a900463ffffffff1681565b600154610100900460ff1615808015610ea757506001805460ff16105b80610ec05750303b158015610ec057506001805460ff16145b610f4c576040517f08c379a000000000000000000000000000000000000000000000000000000000815260206004820152602e60248201527f496e697469616c697a61626c653a20636f6e747261637420697320616c72656160448201527f647920696e697469616c697a65640000000000000000000000000000000000006064820152608401610247565b600180547fffffffffffffffffffffffffffffffffffffffffffffffffffffffffffffff0016811790558015610fa957600180547fffffffffffffffffffffffffffffffffffffffffffffffffffffffffffff00ff166101001790555b610fb66020830183612ee6565b610fc557610fc5600142611a32565b6000610fd76060840160408501612dfc565b73ffffffffffffffffffffffffffffffffffffffff16631ed061d9610fff60a0860186612f03565b61100c6002600180611ecb565b6040518363ffffffff1660e01b815260040161102992919061303c565b60408051808303816000875af1158015611047573d6000803e3d6000fd5b505050506040513d601f19601f8201168201806040525081019061106b9190613184565b5090507f00000000000000000000000000000000000000000000000000000000000000008360e00135111561109f57600080fd5b6110ad60e084013542612ec5565b6034556110c06040840160208501612dfc565b603680547fffffffffffffffffffffffff00000000000000000000000000000000000000001673ffffffffffffffffffffffffffffffffffffffff9290921691909117905561111560a0840160808501612dfc565b603780547fffffffffffffffffffffffff00000000000000000000000000000000000000001673ffffffffffffffffffffffffffffffffffffffff9290921691909117905561116a6080840160608501612dfc565b6038805473ffffffffffffffffffffffffffffffffffffffff929092167fffffffffffffffffffffffff000000000000000000000000000000000000000090921691909117905560201b77ffffffffffffffffffffffffffffffffffffffff000000001660028117603955620100028117603a556202000117603b55801561124457600180547fffffffffffffffffffffffffffffffffffffffffffffffffffffffffffff00ff1681556040519081527f7f26b83ff96e1f2b6a682f133852f6798a09c465da95921460cefb384740249890602001610d69565b5050565b6001806112536105cf565b146112ba576040517f08c379a000000000000000000000000000000000000000000000000000000000815260206004820152600960248201527f4241445f504841534500000000000000000000000000000000000000000000006044820152606401610247565b336000908152603c6020526040902054611330576040517f08c379a000000000000000000000000000000000000000000000000000000000815260206004820152600b60248201527f4f4e4c595f504c415945520000000000000000000000000000000000000000006044820152606401610247565b611338611740565b336000908152603c60209081526040808320839055603d825280832054603854603a548351868152948501909352909392839273ffffffffffffffffffffffffffffffffffffffff909216916390e7d00b916113b190856113a9565b60608152602001906001900390816113945790505b508a8a6117b1565b6040518363ffffffff1660e01b81526004016113ce929190612bd8565b600060405180830381865afa1580156113eb573d6000803e3d6000fd5b505050506040513d6000823e601f3d9081017fffffffffffffffffffffffffffffffffffffffffffffffffffffffffffffffe01682016040526114319190810190612ce3565b91509150600061145084610aff610ad986805160209081029091010190565b6037549091506114779073ffffffffffffffffffffffffffffffffffffffff163383611df7565b336000908152603d60205260408120819055603e805483929061149b908490612dba565b90915550506038546040517fce0dd62800000000000000000000000000000000000000000000000000000000815273ffffffffffffffffffffffffffffffffffffffff9091169063ce0dd628906114f6908590600401612d78565b600060405180830381600087803b15801561151057600080fd5b505af1158015611524573d6000803e3d6000fd5b50506037546040805133815273ffffffffffffffffffffffffffffffffffffffff90921660208301528101879052606081018490527f788e2ff2e7a5d83f7f128f5d44d44a080dc83e52de350a6f04d5c548017ba118925060800190506105b3565b61158e611740565b336000908152603d60205260408120829055603e80548392906115b2908490612ec5565b90915550506037546115dc9073ffffffffffffffffffffffffffffffffffffffff16333084611f08565b6037546040805133815273ffffffffffffffffffffffffffffffffffffffff909216602083015281018290527f5548c837ab068cf56a2c2479df0882a4922fd203edb7517321831d95078c5f629060600160405180910390a161163f6001600255565b50565b60365473ffffffffffffffffffffffffffffffffffffffff1633146116c3576040517f08c379a000000000000000000000000000000000000000000000000000000000815260206004820152600860248201527f4f4e4c595f5245460000000000000000000000000000000000000000000000006044820152606401610247565b6000806116ce6105cf565b14611735576040517f08c379a000000000000000000000000000000000000000000000000000000000815260206004820152600960248201527f4241445f504841534500000000000000000000000000000000000000000000006044820152606401610247565b61163f600142611a32565b60028054036117ab576040517f08c379a000000000000000000000000000000000000000000000000000000000815260206004820152601f60248201527f5265656e7472616e637947756172643a207265656e7472616e742063616c6c006044820152606401610247565b60028055565b60606000825167ffffffffffffffff8111156117cf576117cf6126ca565b6040519080825280602002602001820160405280156117f8578160200160208202803683370190505b50905060008084511161180c576000611812565b83516001015b6000865111611822576000611825565b60015b60ff1687516001010101905060008167ffffffffffffffff81111561184c5761184c6126ca565b60405190808252806020026020018201604052801561187f57816020015b606081526020019060019003908161186a5790505b509050600061188c611f66565b82828151811061189e5761189e612dcd565b602002602001018190525060005b88518110156118fc5781806001019250508881815181106118cf576118cf612dcd565b60200260200101518383815181106118e9576118e9612dcd565b60209081029190910101526001016118ac565b5086511561192b5780806001019150508682828151811061191f5761191f612dcd565b60200260200101819052505b855115611a255780806001019150508382828151811061194d5761194d612dcd565b602002602001018190525060005b8651811015611a235761198687828151811061197957611979612dcd565b6020026020010151611cdb565b86818151811061199857611998612dcd565b60200260200101516000015173ffffffffffffffffffffffffffffffffffffffff168582815181106119cc576119cc612dcd565b60200260200101818152505081806001019250508681815181106119f2576119f2612dcd565b602002602001015160400151838381518110611a1057611a10612dcd565b602090810291909101015260010161195b565b505b50925050505b9392505050565b80421115611a9c576040517f08c379a000000000000000000000000000000000000000000000000000000000815260206004820152600e60248201527f4e4558545f54494d455f504153540000000000000000000000000000000000006044820152606401610247565b63ffffffff8110611b09576040517f08c379a000000000000000000000000000000000000000000000000000000000815260206004820152601760248201527f4e4558545f54494d455f554e494e495449414c495a45440000000000000000006044820152606401610247565b7fffffffffffffffffffffffffffffffffffffffffffffffffffffffffffffffff820180611b356105cf565b14611b9c576040517f08c379a000000000000000000000000000000000000000000000000000000000815260206004820152600a60248201527f4e4558545f5048415345000000000000000000000000000000000000000000006044820152606401610247565b60008160088110611baf57611baf612dcd565b60088104919091015460079091166004026101000a900463ffffffff90811614611c35576040517f08c379a000000000000000000000000000000000000000000000000000000000815260206004820152600d60248201527f4e4558545f54494d455f534554000000000000000000000000000000000000006044820152606401610247565b8160008260088110611c4957611c49612dcd565b600891828204019190066004026101000a81548163ffffffff021916908363ffffffff1602179055507fba85f6676f17ca992195e3cb204ae48c68666b109edc14a794e5d894387d25d3338484604051611cce9392919073ffffffffffffffffffffffffffffffffffffffff9390931683526020830191909152604082015260600190565b60405180910390a1505050565b611d208160000151611d168360400151604051602001611cfb91906131b2565b60405160208183030381529060405280519060200120611f72565b8360200151611fad565b61163f576040517f08c379a000000000000000000000000000000000000000000000000000000000815260206004820152601160248201527f494e56414c49445f5349474e41545552450000000000000000000000000000006044820152606401610247565b600081604051602001611d9991906131b2565b604051602081830303815290604052805190602001209050919050565b6000818311611dc6576000611a2b565b50900390565b6000818310611ddb5781611a2b565b5090919050565b6000611a2b8383670de0b6b3a764000061217a565b60405173ffffffffffffffffffffffffffffffffffffffff83166024820152604481018290526105ca9084907fa9059cbb00000000000000000000000000000000000000000000000000000000906064015b604080517fffffffffffffffffffffffffffffffffffffffffffffffffffffffffffffffe08184030181529190526020810180517bffffffffffffffffffffffffffffffffffffffffffffffffffffffff167fffffffff0000000000000000000000000000000000000000000000000000000090931692909217909152612247565b6040805160038082526080820190925260609160009190602082018480368337505050602081019590955250506040830191909152606082015290565b60405173ffffffffffffffffffffffffffffffffffffffff808516602483015283166044820152606481018290526108359085907f23b872dd0000000000000000000000000000000000000000000000000000000090608401611e49565b60606106343330612353565b6040517f19457468657265756d205369676e6564204d6573736167653a0a3332000000006020820152603c8101829052600090605c01611d99565b6000806000611fbc8585612387565b90925090506000816004811115611fd557611fd56131e8565b14801561200d57508573ffffffffffffffffffffffffffffffffffffffff168273ffffffffffffffffffffffffffffffffffffffff16145b1561201d57600192505050611a2b565b6000808773ffffffffffffffffffffffffffffffffffffffff16631626ba7e60e01b8888604051602401612052929190613285565b604080517fffffffffffffffffffffffffffffffffffffffffffffffffffffffffffffffe08184030181529181526020820180517bffffffffffffffffffffffffffffffffffffffffffffffffffffffff167fffffffff000000000000000000000000000000000000000000000000000000009094169390931790925290516120db919061329e565b600060405180830381855afa9150503d8060008114612116576040519150601f19603f3d011682016040523d82523d6000602084013e61211b565b606091505b509150915081801561212e575080516020145b801561216e575080517f1626ba7e000000000000000000000000000000000000000000000000000000009061216c90830160209081019084016132b0565b145b98975050505050505050565b600080807fffffffffffffffffffffffffffffffffffffffffffffffffffffffffffffffff858709858702925082811083820303915050806000036121d2578382816121c8576121c86132c9565b0492505050611a2b565b8084116121de57600080fd5b60008486880960026001871981018816978890046003810283188082028403028082028403028082028403028082028403028082028403029081029092039091026000889003889004909101858311909403939093029303949094049190911702949350505050565b60006122a9826040518060400160405280602081526020017f5361666545524332303a206c6f772d6c6576656c2063616c6c206661696c65648152508573ffffffffffffffffffffffffffffffffffffffff166123cc9092919063ffffffff16565b8051909150156105ca57808060200190518101906122c791906132f8565b6105ca576040517f08c379a000000000000000000000000000000000000000000000000000000000815260206004820152602a60248201527f5361666545524332303a204552433230206f7065726174696f6e20646964206e60448201527f6f742073756363656564000000000000000000000000000000000000000000006064820152608401610247565b6040805160028082526060808301845292600092919060208301908036833750505060208101949094525050604082015290565b60008082516041036123bd5760208301516040840151606085015160001a6123b1878285856123e3565b945094505050506123c5565b506000905060025b9250929050565b60606123db84846000856124d2565b949350505050565b6000807f7fffffffffffffffffffffffffffffff5d576e7357a4501ddfe92f46681b20a083111561241a57506000905060036124c9565b6040805160008082526020820180845289905260ff881692820192909252606081018690526080810185905260019060a0016020604051602081039080840390855afa15801561246e573d6000803e3d6000fd5b50506040517fffffffffffffffffffffffffffffffffffffffffffffffffffffffffffffffe0015191505073ffffffffffffffffffffffffffffffffffffffff81166124c2576000600192509250506124c9565b9150600090505b94509492505050565b606082471015612564576040517f08c379a000000000000000000000000000000000000000000000000000000000815260206004820152602660248201527f416464726573733a20696e73756666696369656e742062616c616e636520666f60448201527f722063616c6c00000000000000000000000000000000000000000000000000006064820152608401610247565b6000808673ffffffffffffffffffffffffffffffffffffffff16858760405161258d919061329e565b60006040518083038185875af1925050503d80600081146125ca576040519150601f19603f3d011682016040523d82523d6000602084013e6125cf565b606091505b50915091506125e0878383876125eb565b979650505050505050565b6060831561268157825160000361267a5773ffffffffffffffffffffffffffffffffffffffff85163b61267a576040517f08c379a000000000000000000000000000000000000000000000000000000000815260206004820152601d60248201527f416464726573733a2063616c6c20746f206e6f6e2d636f6e74726163740000006044820152606401610247565b50816123db565b6123db83838151156126965781518083602001fd5b806040517f08c379a00000000000000000000000000000000000000000000000000000000081526004016102479190613315565b7f4e487b7100000000000000000000000000000000000000000000000000000000600052604160045260246000fd5b6040516060810167ffffffffffffffff8111828210171561271c5761271c6126ca565b60405290565b604051601f82017fffffffffffffffffffffffffffffffffffffffffffffffffffffffffffffffe016810167ffffffffffffffff81118282101715612769576127696126ca565b604052919050565b600067ffffffffffffffff82111561278b5761278b6126ca565b5060051b60200190565b600082601f8301126127a657600080fd5b813560206127bb6127b683612771565b612722565b82815260059290921b840181019181810190868411156127da57600080fd5b8286015b848110156127f557803583529183019183016127de565b509695505050505050565b73ffffffffffffffffffffffffffffffffffffffff8116811461163f57600080fd5b60006060828403121561283457600080fd5b61283c6126f9565b9050813561284981612800565b815260208281013567ffffffffffffffff8082111561286757600080fd5b818501915085601f83011261287b57600080fd5b81358181111561288d5761288d6126ca565b6128bd847fffffffffffffffffffffffffffffffffffffffffffffffffffffffffffffffe0601f84011601612722565b81815287858386010111156128d157600080fd5b818585018683013760008583830101528085870152505060408501359250808311156128fc57600080fd5b505061290a84828501612795565b60408301525092915050565b6000806040838503121561292957600080fd5b823567ffffffffffffffff8082111561294157600080fd5b61294d86838701612795565b935060209150818501358181111561296457600080fd5b8501601f8101871361297557600080fd5b80356129836127b682612771565b81815260059190911b820184019084810190898311156129a257600080fd5b8584015b838110156129da578035868111156129be5760008081fd5b6129cc8c8983890101612822565b8452509186019186016129a6565b508096505050505050509250929050565b60008061012083850312156129ff57600080fd5b83601f840112612a0e57600080fd5b60405161010080820182811067ffffffffffffffff82111715612a3357612a336126ca565b60405284018186821115612a4657600080fd5b855b82811015612a7357803563ffffffff81168114612a655760008081fd5b825260209182019101612a48565b509196903595509350505050565b600080600060408486031215612a9657600080fd5b833567ffffffffffffffff80821115612aae57600080fd5b818601915086601f830112612ac257600080fd5b813581811115612ad157600080fd5b8760208260051b8501011115612ae657600080fd5b602092830195509350908501359080821115612b0157600080fd5b50840160608187031215612b1457600080fd5b809150509250925092565b60008060408385031215612b3257600080fd5b823567ffffffffffffffff80821115612b4a57600080fd5b612b5686838701612795565b93506020850135915080821115612b6c57600080fd5b50612b7985828601612822565b9150509250929050565b600060208284031215612b9557600080fd5b5035919050565b600060208284031215612bae57600080fd5b813567ffffffffffffffff811115612bc557600080fd5b82016101008185031215611a2b57600080fd5b600060408201848352602060408185015281855180845260608601915060608160051b87010193508287016000805b83811015612c79578887037fffffffffffffffffffffffffffffffffffffffffffffffffffffffffffffffa0018552825180518089529087019087890190845b81811015612c6357835183529289019291890191600101612c47565b5090985050509385019391850191600101612c07565b50949998505050505050505050565b600082601f830112612c9957600080fd5b81516020612ca96127b683612771565b82815260059290921b84018101918181019086841115612cc857600080fd5b8286015b848110156127f55780518352918301918301612ccc565b60008060408385031215612cf657600080fd5b825167ffffffffffffffff80821115612d0e57600080fd5b612d1a86838701612c88565b93506020850151915080821115612d3057600080fd5b50612b7985828601612c88565b600081518084526020808501945080840160005b83811015612d6d57815187529582019590820190600101612d51565b509495945050505050565b602081526000611a2b6020830184612d3d565b7f4e487b7100000000000000000000000000000000000000000000000000000000600052601160045260246000fd5b81810381811115610db657610db6612d8b565b7f4e487b7100000000000000000000000000000000000000000000000000000000600052603260045260246000fd5b600060208284031215612e0e57600080fd5b8135611a2b81612800565b6000610db63683612822565b60008083357fffffffffffffffffffffffffffffffffffffffffffffffffffffffffffffffe1843603018112612e5a57600080fd5b83018035915067ffffffffffffffff821115612e7557600080fd5b6020019150600581901b36038213156123c557600080fd5b60007fffffffffffffffffffffffffffffffffffffffffffffffffffffffffffffffff8203612ebe57612ebe612d8b565b5060010190565b80820180821115610db657610db6612d8b565b801515811461163f57600080fd5b600060208284031215612ef857600080fd5b8135611a2b81612ed8565b600082357fffffffffffffffffffffffffffffffffffffffffffffffffffffffffffffffc1833603018112612f3757600080fd5b9190910192915050565b60008083357fffffffffffffffffffffffffffffffffffffffffffffffffffffffffffffffe1843603018112612f7657600080fd5b830160208101925035905067ffffffffffffffff811115612f9657600080fd5b8060051b36038213156123c557600080fd5b8183528181602085013750600060208284010152600060207fffffffffffffffffffffffffffffffffffffffffffffffffffffffffffffffe0601f840116840101905092915050565b81835260007f07ffffffffffffffffffffffffffffffffffffffffffffffffffffffffffffff83111561302357600080fd5b8260051b80836020870137939093016020019392505050565b604081526000608082016130508586612f41565b6040808601528281845260a08601905060a08260051b87010193508260005b8381101561311e577fffffffffffffffffffffffffffffffffffffffffffffffffffffffffffffff6088870301835281357fffffffffffffffffffffffffffffffffffffffffffffffffffffffffffffffe18636030181126130d057600080fd5b8501602081810191359067ffffffffffffffff8211156130ef57600080fd5b8136038313156130fe57600080fd5b613109898385612fa8565b9850948501949390930192505060010161306f565b50505050506131306020860186612f41565b7fffffffffffffffffffffffffffffffffffffffffffffffffffffffffffffffc0858403016060860152613165838284612ff1565b92505050828103602084015261317b8185612d3d565b95945050505050565b6000806040838503121561319757600080fd5b82516131a281612800565b6020939093015192949293505050565b815160009082906020808601845b838110156131dc578151855293820193908201906001016131c0565b50929695505050505050565b7f4e487b7100000000000000000000000000000000000000000000000000000000600052602160045260246000fd5b60005b8381101561323257818101518382015260200161321a565b50506000910152565b60008151808452613253816020860160208601613217565b601f017fffffffffffffffffffffffffffffffffffffffffffffffffffffffffffffffe0169290920160200192915050565b8281526040602082015260006123db604083018461323b565b60008251612f37818460208701613217565b6000602082840312156132c257600080fd5b5051919050565b7f4e487b7100000000000000000000000000000000000000000000000000000000600052601260045260246000fd5b60006020828403121561330a57600080fd5b8151611a2b81612ed8565b602081526000611a2b602083018461323b56fea26469706673582212206d0598dd3d996e6adfc1aa46d22b2436c30ec2776eb385a7c72ab7400a3bf49764736f6c63430008110033",
  "devdoc": {
    "events": {
      "Refund(address,uint256)": {
        "params": {
          "sender": "`msg.sender` that the refund is processed for."
        }
      }
    },
    "kind": "dev",
    "methods": {
      "phaseAtTime(uint32[8],uint256)": {
        "params": {
          "phaseTimes_": "Fixed array of phase times to compare against.",
          "timestamp_": "Determine the relevant phase relative to this time."
        },
        "returns": {
          "phase_": "The \"current\" phase relative to the timestamp and phase times list."
        }
      },
      "timeForPhase(uint32[8],uint256)": {
        "params": {
          "phaseTimes_": "Fixed array of phase blocks to compare against.",
          "phase_": "Determine the relevant block number for this phase."
        },
        "returns": {
          "timestamp_": "The timestamp for the phase according to `phaseTimes_`."
        }
      }
    },
    "version": 1
  },
  "userdoc": {
    "events": {
      "PhaseScheduled(address,uint256,uint256)": {
        "notice": "`PhaseScheduled` is emitted when the next phase is scheduled."
      },
      "Refund(address,uint256)": {
        "notice": "Emitted when a refund is processed for `msg.sender` MAY be less than the original deposit if the `leave` expression reduces it. MAY NOT be greater than the original deposit."
      }
    },
    "kind": "user",
    "methods": {
      "currentPhase()": {
        "notice": "Impure read-only function to return the \"current\" phase from internal contract state. Simply wraps `phaseAtTime` for current values of `phaseTimes` and `block.timestamp`."
      },
      "phaseAtTime(uint32[8],uint256)": {
        "notice": "Pure function to reduce an array of phase times and block timestamp to a specific `Phase`. The phase will be the highest attained even if several phases have the same timestamp. If every phase block is after the timestamp then `0` is returned. If every phase block is before the timestamp then `MAX_PHASE` is returned."
      },
      "phaseTimes(uint256)": {
        "notice": "8 phases each as 32 bits to fit a single 32 byte word."
      },
      "timeForPhase(uint32[8],uint256)": {
        "notice": "Pure function to reduce an array of phase times and phase to a specific timestamp. `Phase.ZERO` will always return block `0`. Every other phase will map to a time in `phaseTimes_`."
      }
    },
    "version": 1
  },
  "storageLayout": {
    "storage": [
      {
        "astId": 28991,
        "contract": "contracts/lobby/Lobby.sol:Lobby",
        "label": "phaseTimes",
        "offset": 0,
        "slot": "0",
        "type": "t_array(t_uint32)8_storage"
      },
      {
        "astId": 855,
        "contract": "contracts/lobby/Lobby.sol:Lobby",
        "label": "_initialized",
        "offset": 0,
        "slot": "1",
        "type": "t_uint8"
      },
      {
        "astId": 858,
        "contract": "contracts/lobby/Lobby.sol:Lobby",
        "label": "_initializing",
        "offset": 1,
        "slot": "1",
        "type": "t_bool"
      },
      {
        "astId": 1031,
        "contract": "contracts/lobby/Lobby.sol:Lobby",
        "label": "_status",
        "offset": 0,
        "slot": "2",
        "type": "t_uint256"
      },
      {
        "astId": 1089,
        "contract": "contracts/lobby/Lobby.sol:Lobby",
        "label": "__gap",
        "offset": 0,
        "slot": "3",
        "type": "t_array(t_uint256)49_storage"
      },
      {
        "astId": 25400,
        "contract": "contracts/lobby/Lobby.sol:Lobby",
        "label": "timeoutAt",
        "offset": 0,
        "slot": "52",
        "type": "t_uint256"
      },
      {
        "astId": 25402,
        "contract": "contracts/lobby/Lobby.sol:Lobby",
        "label": "resultHash",
        "offset": 0,
        "slot": "53",
        "type": "t_bytes32"
      },
      {
        "astId": 25404,
        "contract": "contracts/lobby/Lobby.sol:Lobby",
        "label": "ref",
        "offset": 0,
        "slot": "54",
        "type": "t_address"
      },
      {
        "astId": 25407,
        "contract": "contracts/lobby/Lobby.sol:Lobby",
        "label": "token",
        "offset": 0,
        "slot": "55",
        "type": "t_contract(IERC20Upgradeable)3328"
      },
      {
        "astId": 25410,
        "contract": "contracts/lobby/Lobby.sol:Lobby",
        "label": "interpreter",
        "offset": 0,
        "slot": "56",
        "type": "t_contract(IInterpreterV1)21868"
      },
      {
        "astId": 25413,
        "contract": "contracts/lobby/Lobby.sol:Lobby",
        "label": "joinEncodedDispatch",
        "offset": 0,
        "slot": "57",
        "type": "t_userDefinedValueType(EncodedDispatch)21810"
      },
      {
        "astId": 25416,
        "contract": "contracts/lobby/Lobby.sol:Lobby",
        "label": "leaveEncodedDispatch",
        "offset": 0,
        "slot": "58",
        "type": "t_userDefinedValueType(EncodedDispatch)21810"
      },
      {
        "astId": 25419,
        "contract": "contracts/lobby/Lobby.sol:Lobby",
        "label": "claimEncodedDispatch",
        "offset": 0,
        "slot": "59",
        "type": "t_userDefinedValueType(EncodedDispatch)21810"
      },
      {
        "astId": 25423,
        "contract": "contracts/lobby/Lobby.sol:Lobby",
        "label": "players",
        "offset": 0,
        "slot": "60",
        "type": "t_mapping(t_address,t_uint256)"
      },
      {
        "astId": 25427,
        "contract": "contracts/lobby/Lobby.sol:Lobby",
        "label": "deposits",
        "offset": 0,
        "slot": "61",
        "type": "t_mapping(t_address,t_uint256)"
      },
      {
        "astId": 25429,
        "contract": "contracts/lobby/Lobby.sol:Lobby",
        "label": "totalDeposited",
        "offset": 0,
        "slot": "62",
        "type": "t_uint256"
      },
      {
        "astId": 25433,
        "contract": "contracts/lobby/Lobby.sol:Lobby",
        "label": "shares",
        "offset": 0,
        "slot": "63",
        "type": "t_mapping(t_address,t_uint256)"
      },
      {
        "astId": 25435,
        "contract": "contracts/lobby/Lobby.sol:Lobby",
        "label": "totalShares",
        "offset": 0,
        "slot": "64",
        "type": "t_uint256"
      },
      {
        "astId": 25439,
        "contract": "contracts/lobby/Lobby.sol:Lobby",
        "label": "withdrawals",
        "offset": 0,
        "slot": "65",
        "type": "t_mapping(t_address,t_uint256)"
      }
    ],
    "types": {
      "t_address": {
        "encoding": "inplace",
        "label": "address",
        "numberOfBytes": "20"
      },
      "t_array(t_uint256)49_storage": {
        "base": "t_uint256",
        "encoding": "inplace",
        "label": "uint256[49]",
        "numberOfBytes": "1568"
      },
      "t_array(t_uint32)8_storage": {
        "base": "t_uint32",
        "encoding": "inplace",
        "label": "uint32[8]",
        "numberOfBytes": "32"
      },
      "t_bool": {
        "encoding": "inplace",
        "label": "bool",
        "numberOfBytes": "1"
      },
      "t_bytes32": {
        "encoding": "inplace",
        "label": "bytes32",
        "numberOfBytes": "32"
      },
      "t_contract(IERC20Upgradeable)3328": {
        "encoding": "inplace",
        "label": "contract IERC20Upgradeable",
        "numberOfBytes": "20"
      },
      "t_contract(IInterpreterV1)21868": {
        "encoding": "inplace",
        "label": "contract IInterpreterV1",
        "numberOfBytes": "20"
      },
      "t_mapping(t_address,t_uint256)": {
        "encoding": "mapping",
        "key": "t_address",
        "label": "mapping(address => uint256)",
        "numberOfBytes": "32",
        "value": "t_uint256"
      },
      "t_uint256": {
        "encoding": "inplace",
        "label": "uint256",
        "numberOfBytes": "32"
      },
      "t_uint32": {
        "encoding": "inplace",
        "label": "uint32",
        "numberOfBytes": "4"
      },
      "t_uint8": {
        "encoding": "inplace",
        "label": "uint8",
        "numberOfBytes": "1"
      },
      "t_userDefinedValueType(EncodedDispatch)21810": {
        "encoding": "inplace",
        "label": "EncodedDispatch",
        "numberOfBytes": "32"
      }
    }
  }
}