{
  "_format": "hh-sol-artifact-1",
  "contractName": "VerifyTier",
  "sourceName": "contracts/rain-protocol/contracts/tier/VerifyTier.sol",
  "abi": [
    {
      "inputs": [
        {
          "internalType": "contract Verify",
          "name": "verify_",
          "type": "address"
        }
      ],
      "stateMutability": "nonpayable",
      "type": "constructor"
    },
    {
      "anonymous": false,
      "inputs": [
        {
          "indexed": true,
          "internalType": "address",
          "name": "account",
          "type": "address"
        },
        {
          "indexed": true,
          "internalType": "enum ITier.Tier",
          "name": "startTier",
          "type": "uint8"
        },
        {
          "indexed": true,
          "internalType": "enum ITier.Tier",
          "name": "endTier",
          "type": "uint8"
        }
      ],
      "name": "TierChange",
      "type": "event"
    },
    {
      "inputs": [
        {
          "internalType": "address",
          "name": "account_",
          "type": "address"
        }
      ],
      "name": "report",
      "outputs": [
        {
          "internalType": "uint256",
          "name": "",
          "type": "uint256"
        }
      ],
      "stateMutability": "view",
      "type": "function"
    },
    {
      "inputs": [
        {
          "internalType": "address",
          "name": "",
          "type": "address"
        },
        {
          "internalType": "enum ITier.Tier",
          "name": "",
          "type": "uint8"
        },
        {
          "internalType": "bytes",
          "name": "",
          "type": "bytes"
        }
      ],
      "name": "setTier",
      "outputs": [],
      "stateMutability": "nonpayable",
      "type": "function"
    },
    {
      "inputs": [],
      "name": "verify",
      "outputs": [
        {
          "internalType": "contract Verify",
          "name": "",
          "type": "address"
        }
      ],
      "stateMutability": "view",
      "type": "function"
    }
  ],
  "bytecode": "0x60a060405234801561001057600080fd5b506040516106dd3803806106dd83398101604081905261002f91610044565b60601b6001600160601b031916608052610072565b600060208284031215610055578081fd5b81516001600160a01b038116811461006b578182fd5b9392505050565b60805160601c6106446100996000398061011b52806101e152806102c552506106446000f3fe608060405234801561001057600080fd5b50600436106100415760003560e01c806352dab69d14610046578063e053ea311461005b578063fc735e9914610084575b600080fd5b6100596100543660046103b5565b610099565b005b61006e61006936600461037a565b6100d4565b60405161007b919061056b565b60405180910390f35b61008c6102c3565b60405161007b91906104d2565b6040517f08c379a00000000000000000000000000000000000000000000000000000000081526004016100cb906104f3565b60405180910390fd5b60006100de610339565b6040517f31e658a500000000000000000000000000000000000000000000000000000000815273ffffffffffffffffffffffffffffffffffffffff7f000000000000000000000000000000000000000000000000000000000000000016906331e658a5906101509086906004016104d2565b60806040518083038186803b15801561016857600080fd5b505afa15801561017c573d6000803e3d6000fd5b505050506040513d601f19601f820116820180604052508101906101a09190610476565b905060026040517f6be018c300000000000000000000000000000000000000000000000000000000815273ffffffffffffffffffffffffffffffffffffffff7f00000000000000000000000000000000000000000000000000000000000000001690636be018c390610218908590439060040161052a565b60206040518083038186803b15801561023057600080fd5b505afa158015610244573d6000803e3d6000fd5b505050506040513d601f19601f820116820180604052508101906102689190610457565b600381111561027357fe5b1415610299576102916000806008846040015163ffffffff166102e7565b9150506102be565b7fffffffffffffffffffffffffffffffffffffffffffffffffffffffffffffffff9150505b919050565b7f000000000000000000000000000000000000000000000000000000000000000081565b60008060008560088111156102f857fe5b90505b84600881111561030757fe5b81101561032e5763ffffffff6020820290811b199790971684881b179691506001016102fb565b509495945050505050565b60408051608081018252600080825260208201819052918101829052606081019190915290565b805163ffffffff8116811461037457600080fd5b92915050565b60006020828403121561038b578081fd5b813573ffffffffffffffffffffffffffffffffffffffff811681146103ae578182fd5b9392505050565b6000806000606084860312156103c9578182fd5b83356103d4816105e9565b92506020840135600981106103e7578283fd5b9150604084013567ffffffffffffffff811115610402578182fd5b8401601f81018613610412578182fd5b80356104256104208261059b565b610574565b818152876020838501011115610439578384fd5b61044a8260208301602086016105dd565b8093505050509250925092565b600060208284031215610468578081fd5b8151600481106103ae578182fd5b600060808284031215610487578081fd5b6104916080610574565b825181526104a28460208501610360565b60208201526104b48460408501610360565b60408201526104c68460608501610360565b60608201529392505050565b73ffffffffffffffffffffffffffffffffffffffff91909116815260200190565b60208082526008908201527f5345545f54494552000000000000000000000000000000000000000000000000604082015260600190565b8251815260208084015163ffffffff908116918301919091526040808501518216908301526060938401518116938201939093529116608082015260a00190565b90815260200190565b60405181810167ffffffffffffffff8111828210171561059357600080fd5b604052919050565b600067ffffffffffffffff8211156105b1578081fd5b50601f017fffffffffffffffffffffffffffffffffffffffffffffffffffffffffffffffe01660200190565b82818337506000910152565b73ffffffffffffffffffffffffffffffffffffffff8116811461060b57600080fd5b5056fea26469706673582212201d024ac126d64272215cb666a5b1a344f6d2165a37bdb7aa61e7ae07ed79380364736f6c634300060c0033",
  "linkReferences": {},
  "deployedLinkReferences": {}
}