{
  "_format": "hh-sol-artifact-1",
  "contractName": "TierByConstructionTest",
  "sourceName": "contracts/test/TierByConstructionTest.sol",
  "abi": [
    {
      "inputs": [
        {
          "internalType": "contract ITier",
          "name": "tier_",
          "type": "address"
        }
      ],
      "stateMutability": "nonpayable",
      "type": "constructor"
    },
    {
      "inputs": [],
      "name": "constructionBlock",
      "outputs": [
        {
          "internalType": "uint256",
          "name": "",
          "type": "uint256"
        }
      ],
      "stateMutability": "view",
      "type": "function"
    },
    {
      "inputs": [],
      "name": "ifEight",
      "outputs": [],
      "stateMutability": "view",
      "type": "function"
    },
    {
      "inputs": [],
      "name": "ifFive",
      "outputs": [],
      "stateMutability": "view",
      "type": "function"
    },
    {
      "inputs": [],
      "name": "ifFour",
      "outputs": [],
      "stateMutability": "view",
      "type": "function"
    },
    {
      "inputs": [],
      "name": "ifOne",
      "outputs": [],
      "stateMutability": "view",
      "type": "function"
    },
    {
      "inputs": [],
      "name": "ifSeven",
      "outputs": [],
      "stateMutability": "view",
      "type": "function"
    },
    {
      "inputs": [],
      "name": "ifSix",
      "outputs": [],
      "stateMutability": "view",
      "type": "function"
    },
    {
      "inputs": [],
      "name": "ifThree",
      "outputs": [],
      "stateMutability": "view",
      "type": "function"
    },
    {
      "inputs": [],
      "name": "ifTwo",
      "outputs": [],
      "stateMutability": "view",
      "type": "function"
    },
    {
      "inputs": [],
      "name": "ifZero",
      "outputs": [],
      "stateMutability": "view",
      "type": "function"
    },
    {
      "inputs": [
        {
          "internalType": "address",
          "name": "account_",
          "type": "address"
        },
        {
          "internalType": "enum ITier.Tier",
          "name": "minimumTier_",
          "type": "uint8"
        }
      ],
      "name": "isTier",
      "outputs": [
        {
          "internalType": "bool",
          "name": "",
          "type": "bool"
        }
      ],
      "stateMutability": "view",
      "type": "function"
    },
    {
      "inputs": [],
      "name": "tierContract",
      "outputs": [
        {
          "internalType": "contract ITier",
          "name": "",
          "type": "address"
        }
      ],
      "stateMutability": "view",
      "type": "function"
    },
    {
      "inputs": [],
      "name": "unlimited",
      "outputs": [],
      "stateMutability": "view",
      "type": "function"
    }
  ],
  "bytecode": "0x608060405234801561001057600080fd5b5060405161058938038061058983398101604081905261002f91610058565b600080546001600160a01b0319166001600160a01b039290921691909117905543600155610088565b60006020828403121561006a57600080fd5b81516001600160a01b038116811461008157600080fd5b9392505050565b6104f2806100976000396000f3fe608060405234801561001057600080fd5b50600436106100df5760003560e01c80637922deb51161008c578063cb457d4711610066578063cb457d4714610108578063d1abd2de1461019a578063d78aafde146101a2578063e149ceb5146101aa57600080fd5b80637922deb5146101455780637bcd3dc51461014d578063a30872db1461015557600080fd5b80636bdfcec6116100bd5780636bdfcec61461011257806375bf27871461011a57806377544f331461012257600080fd5b80630f0af57f146100e45780631fb3d151146101005780633f1522511461010a575b600080fd5b6100ed60015481565b6040519081526020015b60405180910390f35b6101086101b2565b005b61010861022d565b61010861023a565b610108610247565b61013561013036600461039b565b610250565b60405190151581526020016100f7565b6101086102fb565b610108610308565b6000546101759073ffffffffffffffffffffffffffffffffffffffff1681565b60405173ffffffffffffffffffffffffffffffffffffffff90911681526020016100f7565b610108610315565b610108610322565b61010861032f565b3360086101bf8282610250565b610229576040517f08c379a000000000000000000000000000000000000000000000000000000000815260206004820152600c60248201527f4d494e494d554d5f544945520000000000000000000000000000000000000000604482015260640160405180910390fd5b5050565b3360046101bf8282610250565b3360066101bf8282610250565b3360036101bf82825b600080546040517fe053ea3100000000000000000000000000000000000000000000000000000000815273ffffffffffffffffffffffffffffffffffffffff85811660048301526102ed92169063e053ea3190602401602060405180830381865afa1580156102c3573d6000803e3d6000fd5b505050506040513d601f19601f820116820180604052508101906102e791906103f1565b8361033c565b600154101590505b92915050565b3360076101bf8282610250565b3360006101bf8282610250565b3360016101bf8282610250565b3360056101bf8282610250565b3360026101bf8282610250565b6000808260088111156103515761035161040a565b141561035f575060006102f5565b600060018360088111156103755761037561040a565b61037f9190610468565b61038a90602061047f565b9390931c63ffffffff169392505050565b600080604083850312156103ae57600080fd5b823573ffffffffffffffffffffffffffffffffffffffff811681146103d257600080fd5b91506020830135600981106103e657600080fd5b809150509250929050565b60006020828403121561040357600080fd5b5051919050565b7f4e487b7100000000000000000000000000000000000000000000000000000000600052602160045260246000fd5b7f4e487b7100000000000000000000000000000000000000000000000000000000600052601160045260246000fd5b60008282101561047a5761047a610439565b500390565b6000817fffffffffffffffffffffffffffffffffffffffffffffffffffffffffffffffff04831182151516156104b7576104b7610439565b50029056fea26469706673582212203f06bd589bf4ab14f05bda5a8c5bab1052bc3ad94490d46c820df113ea44b8c364736f6c634300080a0033",
  "linkReferences": {},
  "deployedLinkReferences": {}
}