{
  "_format": "hh-sol-artifact-1",
  "contractName": "VerifyFactory",
  "sourceName": "contracts/verify/VerifyFactory.sol",
  "abi": [
    {
      "anonymous": false,
      "inputs": [
        {
          "indexed": true,
          "internalType": "address",
          "name": "_contract",
          "type": "address"
        }
      ],
      "name": "NewContract",
      "type": "event"
    },
    {
      "inputs": [
        {
          "internalType": "bytes",
          "name": "data_",
          "type": "bytes"
        }
      ],
      "name": "createChild",
      "outputs": [
        {
          "internalType": "address",
          "name": "",
          "type": "address"
        }
      ],
      "stateMutability": "nonpayable",
      "type": "function"
    },
    {
      "inputs": [
        {
          "internalType": "address",
          "name": "admin_",
          "type": "address"
        }
      ],
      "name": "createChild",
      "outputs": [
        {
          "internalType": "address",
          "name": "",
          "type": "address"
        }
      ],
      "stateMutability": "nonpayable",
      "type": "function"
    },
    {
      "inputs": [
        {
          "internalType": "address",
          "name": "maybeChild_",
          "type": "address"
        }
      ],
      "name": "isChild",
      "outputs": [
        {
          "internalType": "bool",
          "name": "",
          "type": "bool"
        }
      ],
      "stateMutability": "nonpayable",
      "type": "function"
    }
  ],
  "bytecode": "0x608060405234801561001057600080fd5b50600160005561251b806100256000396000f3fe608060405234801561001057600080fd5b50600436106100415760003560e01c80632ea72a4914610046578063eaa744d714610083578063fc91a89714610096575b600080fd5b6100596100543660046102fb565b6100df565b60405173ffffffffffffffffffffffffffffffffffffffff90911681526020015b60405180910390f35b610059610091366004610392565b6101eb565b6100cf6100a4366004610392565b73ffffffffffffffffffffffffffffffffffffffff1660009081526001602052604090205460ff1690565b604051901515815260200161007a565b600060026000541415610152576040517f08c379a000000000000000000000000000000000000000000000000000000000815260206004820152601f60248201527f5265656e7472616e637947756172643a207265656e7472616e742063616c6c00604482015260640160405180910390fd5b60026000908155610163848461028b565b73ffffffffffffffffffffffffffffffffffffffff8116600081815260016020819052604080832080547fffffffffffffffffffffffffffffffffffffffffffffffffffffffffffffff00169092179091555192935090917f387ea218537e939551af33bbc2dd6c53b1fee55d377a0dce288258f972cb3a9c9190a260016000559392505050565b6040805173ffffffffffffffffffffffffffffffffffffffff831660208201526000913091632ea72a4991016040516020818303038152906040526040518263ffffffff1660e01b815260040161024291906103b6565b6020604051808303816000875af1158015610261573d6000803e3d6000fd5b505050506040513d601f19601f820116820180604052508101906102859190610429565b92915050565b60008061029a83850185610392565b90506000816040516102ab906102ee565b73ffffffffffffffffffffffffffffffffffffffff9091168152602001604051809103906000f0801580156102e4573d6000803e3d6000fd5b5095945050505050565b61209f8061044783390190565b6000806020838503121561030e57600080fd5b823567ffffffffffffffff8082111561032657600080fd5b818501915085601f83011261033a57600080fd5b81358181111561034957600080fd5b86602082850101111561035b57600080fd5b60209290920196919550909350505050565b73ffffffffffffffffffffffffffffffffffffffff8116811461038f57600080fd5b50565b6000602082840312156103a457600080fd5b81356103af8161036d565b9392505050565b600060208083528351808285015260005b818110156103e3578581018301518582016040015282016103c7565b818111156103f5576000604083870101525b50601f017fffffffffffffffffffffffffffffffffffffffffffffffffffffffffffffffe016929092016040019392505050565b60006020828403121561043b57600080fd5b81516103af8161036d56fe60806040523480156200001157600080fd5b506040516200209f3803806200209f8339810160408190526200003491620002d0565b6200004f6000805160206200203f83398151915280620001d5565b6200008a7f5ff1fb0ce9089603e6e193667ed17164e0360a6148f4a39fc194055588948a316000805160206200203f833981519152620001d5565b620000a56000805160206200207f83398151915280620001d5565b620000e07f794e4221ebb6dd4e460d558b4ec709511d44017d6610ba89daa896c0684ddfac6000805160206200207f833981519152620001d5565b620000fb6000805160206200205f83398151915280620001d5565b620001367f5a686c9d070917be517818979fb56f451f007e3ae83e96fb5a22a304929b070d6000805160206200205f833981519152620001d5565b620001516000805160206200203f8339815191528262000220565b6200016c6000805160206200207f8339815191528262000220565b620001876000805160206200205f8339815191528262000220565b6001600160a01b038116620001ce5760405162461bcd60e51b81526020600482015260096024820152680c17d050d0d3d5539560ba1b604482015260640160405180910390fd5b5062000302565b600082815260208190526040808220600101805490849055905190918391839186917fbd79b86ffe0ab8e8776151514217cd7cacd52c909f66475c3af44e129f0b00ff9190a4505050565b6200022c828262000230565b5050565b6000828152602081815260408083206001600160a01b038516845290915290205460ff166200022c576000828152602081815260408083206001600160a01b03851684529091529020805460ff191660011790556200028c3390565b6001600160a01b0316816001600160a01b0316837f2f8788117e7eff1d82e926ec794901d17c78024a50270940304540a733656f0d60405160405180910390a45050565b600060208284031215620002e357600080fd5b81516001600160a01b0381168114620002fb57600080fd5b9392505050565b611d2d80620003126000396000f3fe608060405234801561001057600080fd5b506004361061018d5760003560e01c806349200777116100e357806391d148541161008c578063ba65811111610066578063ba658111146104f3578063d547741f14610506578063f14e1c321461051957600080fd5b806391d1485414610480578063a217fddf146104c4578063b8c55bfa146104cc57600080fd5b80637547a867116100bd5780637547a8671461041257806381792e441461043957806381e45d9a1461046057600080fd5b806349200777146103cc57806350ec42da146103df57806368fcae0c146103ff57600080fd5b80631e2109121161014557806331e658a51161011f57806331e658a5146102dd57806336568abe146103925780633d111c7e146103a557600080fd5b80631e21091214610280578063248a9ca3146102a75780632f2ff15d146102ca57600080fd5b806302a223371161017657806302a22337146101cf5780630523522e14610238578063100ec9981461024b57600080fd5b8063014647f41461019257806301ffc9a7146101a7575b600080fd5b6101a56101a036600461182b565b61052c565b005b6101ba6101b536600461187e565b6108b1565b60405190151581526020015b60405180910390f35b6102116101dd3660046118c0565b60016020526000908152604090205463ffffffff808216916401000000008104821691680100000000000000009091041683565b6040805163ffffffff948516815292841660208401529216918101919091526060016101c6565b6101a561024636600461182b565b61094a565b6102727f9d65f741849e7609dd1e2c70f0d7da5f5433b36bfcf3ba4d27d2bb08ad2155b181565b6040519081526020016101c6565b6102727f2d4d1d70bd81797c3479f5c3f873a5c9203d249659c3b317cdad46367472783c81565b6102726102b53660046118db565b60009081526020819052604090206001015490565b6101a56102d83660046118f4565b610a7b565b6103636102eb3660046118c0565b60408051606080820183526000808352602080840182905292840181905273ffffffffffffffffffffffffffffffffffffffff9490941684526001825292829020825193840183525463ffffffff80821685526401000000008204811692850192909252680100000000000000009004169082015290565b60408051825163ffffffff908116825260208085015182169083015292820151909216908201526060016101c6565b6101a56103a03660046118f4565b610aa6565b6102727f5ff1fb0ce9089603e6e193667ed17164e0360a6148f4a39fc194055588948a3181565b6101a56103da36600461182b565b610b59565b6103f26103ed366004611963565b610e33565b6040516101c69190611a3d565b6101a561040d36600461182b565b610eaa565b6102727f794e4221ebb6dd4e460d558b4ec709511d44017d6610ba89daa896c0684ddfac81565b6102727fbb496ca6fee71a17f78592fbc6fc7f04a436edb9c709c4289d6bbfbc5fd45f4d81565b61046b63ffffffff81565b60405163ffffffff90911681526020016101c6565b6101ba61048e3660046118f4565b60009182526020828152604080842073ffffffffffffffffffffffffffffffffffffffff93909316845291905290205460ff1690565b610272600081565b6102727f5a686c9d070917be517818979fb56f451f007e3ae83e96fb5a22a304929b070d81565b6101a5610501366004611a7e565b61103e565b6101a56105143660046118f4565b6111a1565b6101a561052736600461182b565b6111c7565b73ffffffffffffffffffffffffffffffffffffffff83166105ae576040517f08c379a000000000000000000000000000000000000000000000000000000000815260206004820152600960248201527f305f41444452455353000000000000000000000000000000000000000000000060448201526064015b60405180910390fd5b3360009081527fc21e5385eb0f0a5f01809eb1bc7004c565b4b7a3930450ce3f47ca195f3fbfa8602052604090205460ff16610646576040517f08c379a000000000000000000000000000000000000000000000000000000000815260206004820152600d60248201527f4f4e4c595f415050524f5645520000000000000000000000000000000000000060448201526064016105a5565b73ffffffffffffffffffffffffffffffffffffffff831660009081526001602052604090205463ffffffff166106d8576040517f08c379a000000000000000000000000000000000000000000000000000000000815260206004820152600960248201527f4e4f545f4144444544000000000000000000000000000000000000000000000060448201526064016105a5565b73ffffffffffffffffffffffffffffffffffffffff8316600090815260016020526040902054640100000000900463ffffffff90811614610775576040517f08c379a000000000000000000000000000000000000000000000000000000000815260206004820152600d60248201527f5052494f525f415050524f56450000000000000000000000000000000000000060448201526064016105a5565b73ffffffffffffffffffffffffffffffffffffffff831660009081526001602052604090205468010000000000000000900463ffffffff90811614610816576040517f08c379a000000000000000000000000000000000000000000000000000000000815260206004820152600960248201527f5052494f525f42414e000000000000000000000000000000000000000000000060448201526064016105a5565b73ffffffffffffffffffffffffffffffffffffffff83166000818152600160205260409081902080547fffffffffffffffffffffffffffffffffffffffffffffffff00000000ffffffff166401000000004363ffffffff16021790555133907fd260a8fc3d84d9b8ae82c111d0dbf676366876cecaf3bb0fac9239f870796071906108a49086908690611ac0565b60405180910390a3505050565b60007fffffffff0000000000000000000000000000000000000000000000000000000082167f7965db0b00000000000000000000000000000000000000000000000000000000148061094457507f01ffc9a7000000000000000000000000000000000000000000000000000000007fffffffff000000000000000000000000000000000000000000000000000000008316145b92915050565b6002336000908152600160209081526040918290208251606081018452905463ffffffff80821683526401000000008204811693830193909352680100000000000000009004909116918101919091526109a49043610e33565b60038111156109b5576109b5611a0e565b14610a1c576040517f08c379a000000000000000000000000000000000000000000000000000000000815260206004820152600d60248201527f4f4e4c595f415050524f5645440000000000000000000000000000000000000060448201526064016105a5565b8273ffffffffffffffffffffffffffffffffffffffff163373ffffffffffffffffffffffffffffffffffffffff167f71328722ac2b1340de5247b509492d26bc509171013057a549e9d4fe12a248d584846040516108a4929190611ac0565b600082815260208190526040902060010154610a9781336112f8565b610aa183836113c8565b505050565b73ffffffffffffffffffffffffffffffffffffffff81163314610b4b576040517f08c379a000000000000000000000000000000000000000000000000000000000815260206004820152602f60248201527f416363657373436f6e74726f6c3a2063616e206f6e6c792072656e6f756e636560448201527f20726f6c657320666f722073656c66000000000000000000000000000000000060648201526084016105a5565b610b5582826114b8565b5050565b73ffffffffffffffffffffffffffffffffffffffff8316610bd6576040517f08c379a000000000000000000000000000000000000000000000000000000000815260206004820152600960248201527f305f41444452455353000000000000000000000000000000000000000000000060448201526064016105a5565b3360009081527f735f115fb46a48f193bc767158a2a2b7e8e8df9661580761de47a27880ba3345602052604090205460ff16610c6e576040517f08c379a000000000000000000000000000000000000000000000000000000000815260206004820152600b60248201527f4f4e4c595f42414e4e455200000000000000000000000000000000000000000060448201526064016105a5565b73ffffffffffffffffffffffffffffffffffffffff831660009081526001602052604090205463ffffffff16610d00576040517f08c379a000000000000000000000000000000000000000000000000000000000815260206004820152600960248201527f4e4f545f4144444544000000000000000000000000000000000000000000000060448201526064016105a5565b73ffffffffffffffffffffffffffffffffffffffff831660009081526001602052604090205468010000000000000000900463ffffffff90811614610da1576040517f08c379a000000000000000000000000000000000000000000000000000000000815260206004820152600960248201527f5052494f525f42414e000000000000000000000000000000000000000000000060448201526064016105a5565b73ffffffffffffffffffffffffffffffffffffffff83166000818152600160205260409081902080547fffffffffffffffffffffffffffffffffffffffff00000000ffffffffffffffff16680100000000000000004363ffffffff16021790555133907fb3e42de04a4943505b60c2b56736d694e459a13041abbcdb422043ffe0fb836d906108a49086908690611ac0565b815160009063ffffffff16610e4a57506000610944565b8163ffffffff16836040015163ffffffff1611610e6957506003610944565b8163ffffffff16836020015163ffffffff1611610e8857506002610944565b825163ffffffff808416911611610ea157506001610944565b50600092915050565b73ffffffffffffffffffffffffffffffffffffffff8316610f27576040517f08c379a000000000000000000000000000000000000000000000000000000000815260206004820152600960248201527f305f41444452455353000000000000000000000000000000000000000000000060448201526064016105a5565b3360009081527fd9d764858b43a233bf46227b55581d0d561bf145f134f1bef79ffaf13a4cbe5b602052604090205460ff16610fbf576040517f08c379a000000000000000000000000000000000000000000000000000000000815260206004820152600c60248201527f4f4e4c595f52454d4f564552000000000000000000000000000000000000000060448201526064016105a5565b73ffffffffffffffffffffffffffffffffffffffff83166000818152600160205260409081902080547fffffffffffffffffffffffffffffffffffffffff0000000000000000000000001690555133907f6802229665770c6e87ad6caf1462f48ffd48ebbd15c350d3e8c4e25121d19e69906108a49086908690611ac0565b3360009081526001602081905260409091205463ffffffff16106110be576040517f08c379a000000000000000000000000000000000000000000000000000000000815260206004820152600960248201527f5052494f525f414444000000000000000000000000000000000000000000000060448201526064016105a5565b6040805160608101825263ffffffff438116825260208083018281528385018381523360008181526001909452928690209451855492519151851668010000000000000000027fffffffffffffffffffffffffffffffffffffffff00000000ffffffffffffffff928616640100000000027fffffffffffffffffffffffffffffffffffffffffffffffff0000000000000000909416919095161791909117169190911790915590517fdf270d8e96e7a44420c5141f6addd45d3142335608b710893e9e4ea5704e6a63906111959085908590611ac0565b60405180910390a25050565b6000828152602081905260409020600101546111bd81336112f8565b610aa183836114b8565b6002336000908152600160209081526040918290208251606081018452905463ffffffff80821683526401000000008204811693830193909352680100000000000000009004909116918101919091526112219043610e33565b600381111561123257611232611a0e565b14611299576040517f08c379a000000000000000000000000000000000000000000000000000000000815260206004820152600d60248201527f4f4e4c595f415050524f5645440000000000000000000000000000000000000060448201526064016105a5565b8273ffffffffffffffffffffffffffffffffffffffff163373ffffffffffffffffffffffffffffffffffffffff167f84980d28674a2fa3c0451d5e92a72556e899c0a11d162890acdb914a6d99633684846040516108a4929190611ac0565b60008281526020818152604080832073ffffffffffffffffffffffffffffffffffffffff8516845290915290205460ff16610b555761134e8173ffffffffffffffffffffffffffffffffffffffff16601461156f565b61135983602061156f565b60405160200161136a929190611b3d565b604080517fffffffffffffffffffffffffffffffffffffffffffffffffffffffffffffffe0818403018152908290527f08c379a00000000000000000000000000000000000000000000000000000000082526105a591600401611bbe565b60008281526020818152604080832073ffffffffffffffffffffffffffffffffffffffff8516845290915290205460ff16610b555760008281526020818152604080832073ffffffffffffffffffffffffffffffffffffffff85168452909152902080547fffffffffffffffffffffffffffffffffffffffffffffffffffffffffffffff0016600117905561145a3390565b73ffffffffffffffffffffffffffffffffffffffff168173ffffffffffffffffffffffffffffffffffffffff16837f2f8788117e7eff1d82e926ec794901d17c78024a50270940304540a733656f0d60405160405180910390a45050565b60008281526020818152604080832073ffffffffffffffffffffffffffffffffffffffff8516845290915290205460ff1615610b555760008281526020818152604080832073ffffffffffffffffffffffffffffffffffffffff8516808552925280832080547fffffffffffffffffffffffffffffffffffffffffffffffffffffffffffffff0016905551339285917ff6391f5c32d9c69d2a47ea670b442974b53935d1edc7fd64eb21e047a839171b9190a45050565b6060600061157e836002611c3e565b611589906002611c7b565b67ffffffffffffffff8111156115a1576115a1611920565b6040519080825280601f01601f1916602001820160405280156115cb576020820181803683370190505b5090507f30000000000000000000000000000000000000000000000000000000000000008160008151811061160257611602611c93565b60200101907effffffffffffffffffffffffffffffffffffffffffffffffffffffffffffff1916908160001a9053507f78000000000000000000000000000000000000000000000000000000000000008160018151811061166557611665611c93565b60200101907effffffffffffffffffffffffffffffffffffffffffffffffffffffffffffff1916908160001a90535060006116a1846002611c3e565b6116ac906001611c7b565b90505b6001811115611749577f303132333435363738396162636465660000000000000000000000000000000085600f16601081106116ed576116ed611c93565b1a60f81b82828151811061170357611703611c93565b60200101907effffffffffffffffffffffffffffffffffffffffffffffffffffffffffffff1916908160001a90535060049490941c9361174281611cc2565b90506116af565b5083156117b2576040517f08c379a000000000000000000000000000000000000000000000000000000000815260206004820181905260248201527f537472696e67733a20686578206c656e67746820696e73756666696369656e7460448201526064016105a5565b9392505050565b803573ffffffffffffffffffffffffffffffffffffffff811681146117dd57600080fd5b919050565b60008083601f8401126117f457600080fd5b50813567ffffffffffffffff81111561180c57600080fd5b60208301915083602082850101111561182457600080fd5b9250929050565b60008060006040848603121561184057600080fd5b611849846117b9565b9250602084013567ffffffffffffffff81111561186557600080fd5b611871868287016117e2565b9497909650939450505050565b60006020828403121561189057600080fd5b81357fffffffff00000000000000000000000000000000000000000000000000000000811681146117b257600080fd5b6000602082840312156118d257600080fd5b6117b2826117b9565b6000602082840312156118ed57600080fd5b5035919050565b6000806040838503121561190757600080fd5b82359150611917602084016117b9565b90509250929050565b7f4e487b7100000000000000000000000000000000000000000000000000000000600052604160045260246000fd5b803563ffffffff811681146117dd57600080fd5b600080828403608081121561197757600080fd5b606081121561198557600080fd5b506040516060810181811067ffffffffffffffff821117156119d0577f4e487b7100000000000000000000000000000000000000000000000000000000600052604160045260246000fd5b6040526119dc8461194f565b81526119ea6020850161194f565b60208201526119fb6040850161194f565b604082015291506119176060840161194f565b7f4e487b7100000000000000000000000000000000000000000000000000000000600052602160045260246000fd5b6020810160048310611a78577f4e487b7100000000000000000000000000000000000000000000000000000000600052602160045260246000fd5b91905290565b60008060208385031215611a9157600080fd5b823567ffffffffffffffff811115611aa857600080fd5b611ab4858286016117e2565b90969095509350505050565b60208152816020820152818360408301376000818301604090810191909152601f9092017fffffffffffffffffffffffffffffffffffffffffffffffffffffffffffffffe0160101919050565b60005b83811015611b28578181015183820152602001611b10565b83811115611b37576000848401525b50505050565b7f416363657373436f6e74726f6c3a206163636f756e7420000000000000000000815260008351611b75816017850160208801611b0d565b7f206973206d697373696e6720726f6c65200000000000000000000000000000006017918401918201528351611bb2816028840160208801611b0d565b01602801949350505050565b6020815260008251806020840152611bdd816040850160208701611b0d565b601f017fffffffffffffffffffffffffffffffffffffffffffffffffffffffffffffffe0169190910160400192915050565b7f4e487b7100000000000000000000000000000000000000000000000000000000600052601160045260246000fd5b6000817fffffffffffffffffffffffffffffffffffffffffffffffffffffffffffffffff0483118215151615611c7657611c76611c0f565b500290565b60008219821115611c8e57611c8e611c0f565b500190565b7f4e487b7100000000000000000000000000000000000000000000000000000000600052603260045260246000fd5b600081611cd157611cd1611c0f565b507fffffffffffffffffffffffffffffffffffffffffffffffffffffffffffffffff019056fea2646970667358221220874ff28d17709b24501869f291629be4ad3863e0895cf233dc52558ad322016864736f6c634300080a00332d4d1d70bd81797c3479f5c3f873a5c9203d249659c3b317cdad46367472783cbb496ca6fee71a17f78592fbc6fc7f04a436edb9c709c4289d6bbfbc5fd45f4d9d65f741849e7609dd1e2c70f0d7da5f5433b36bfcf3ba4d27d2bb08ad2155b1a26469706673582212207a19addf9088872647c531e52c1fd8b24878f1d74da1be745a799c147a76ad4664736f6c634300080a0033",
  "linkReferences": {},
  "deployedLinkReferences": {}
}