{
  "_format": "hh-sol-artifact-1",
  "contractName": "ClaimERC1155Test",
  "sourceName": "contracts/rain-protocol/contracts/test/ClaimERC1155Test.sol",
  "abi": [
    {
      "inputs": [
        {
          "internalType": "contract IERC20",
          "name": "redeemableToken_",
          "type": "address"
        },
        {
          "internalType": "uint256[8]",
          "name": "tierValues_",
          "type": "uint256[8]"
        }
      ],
      "stateMutability": "nonpayable",
      "type": "constructor"
    },
    {
      "anonymous": false,
      "inputs": [
        {
          "indexed": true,
          "internalType": "address",
          "name": "account",
          "type": "address"
        },
        {
          "indexed": true,
          "internalType": "address",
          "name": "operator",
          "type": "address"
        },
        {
          "indexed": false,
          "internalType": "bool",
          "name": "approved",
          "type": "bool"
        }
      ],
      "name": "ApprovalForAll",
      "type": "event"
    },
    {
      "anonymous": false,
      "inputs": [
        {
          "indexed": true,
          "internalType": "address",
          "name": "account",
          "type": "address"
        },
        {
          "indexed": false,
          "internalType": "bytes",
          "name": "data",
          "type": "bytes"
        }
      ],
      "name": "Claim",
      "type": "event"
    },
    {
      "anonymous": false,
      "inputs": [
        {
          "indexed": true,
          "internalType": "address",
          "name": "account",
          "type": "address"
        },
        {
          "indexed": true,
          "internalType": "enum ITier.Tier",
          "name": "startTier",
          "type": "uint8"
        },
        {
          "indexed": true,
          "internalType": "enum ITier.Tier",
          "name": "endTier",
          "type": "uint8"
        }
      ],
      "name": "TierChange",
      "type": "event"
    },
    {
      "anonymous": false,
      "inputs": [
        {
          "indexed": true,
          "internalType": "address",
          "name": "operator",
          "type": "address"
        },
        {
          "indexed": true,
          "internalType": "address",
          "name": "from",
          "type": "address"
        },
        {
          "indexed": true,
          "internalType": "address",
          "name": "to",
          "type": "address"
        },
        {
          "indexed": false,
          "internalType": "uint256[]",
          "name": "ids",
          "type": "uint256[]"
        },
        {
          "indexed": false,
          "internalType": "uint256[]",
          "name": "values",
          "type": "uint256[]"
        }
      ],
      "name": "TransferBatch",
      "type": "event"
    },
    {
      "anonymous": false,
      "inputs": [
        {
          "indexed": true,
          "internalType": "address",
          "name": "operator",
          "type": "address"
        },
        {
          "indexed": true,
          "internalType": "address",
          "name": "from",
          "type": "address"
        },
        {
          "indexed": true,
          "internalType": "address",
          "name": "to",
          "type": "address"
        },
        {
          "indexed": false,
          "internalType": "uint256",
          "name": "id",
          "type": "uint256"
        },
        {
          "indexed": false,
          "internalType": "uint256",
          "name": "value",
          "type": "uint256"
        }
      ],
      "name": "TransferSingle",
      "type": "event"
    },
    {
      "anonymous": false,
      "inputs": [
        {
          "indexed": false,
          "internalType": "string",
          "name": "value",
          "type": "string"
        },
        {
          "indexed": true,
          "internalType": "uint256",
          "name": "id",
          "type": "uint256"
        }
      ],
      "name": "URI",
      "type": "event"
    },
    {
      "inputs": [],
      "name": "ART",
      "outputs": [
        {
          "internalType": "uint256",
          "name": "",
          "type": "uint256"
        }
      ],
      "stateMutability": "view",
      "type": "function"
    },
    {
      "inputs": [],
      "name": "GOOD_ART",
      "outputs": [
        {
          "internalType": "uint256",
          "name": "",
          "type": "uint256"
        }
      ],
      "stateMutability": "view",
      "type": "function"
    },
    {
      "inputs": [
        {
          "internalType": "address",
          "name": "account",
          "type": "address"
        },
        {
          "internalType": "uint256",
          "name": "id",
          "type": "uint256"
        }
      ],
      "name": "balanceOf",
      "outputs": [
        {
          "internalType": "uint256",
          "name": "",
          "type": "uint256"
        }
      ],
      "stateMutability": "view",
      "type": "function"
    },
    {
      "inputs": [
        {
          "internalType": "address[]",
          "name": "accounts",
          "type": "address[]"
        },
        {
          "internalType": "uint256[]",
          "name": "ids",
          "type": "uint256[]"
        }
      ],
      "name": "balanceOfBatch",
      "outputs": [
        {
          "internalType": "uint256[]",
          "name": "",
          "type": "uint256[]"
        }
      ],
      "stateMutability": "view",
      "type": "function"
    },
    {
      "inputs": [
        {
          "internalType": "address",
          "name": "account_",
          "type": "address"
        },
        {
          "internalType": "bytes",
          "name": "data_",
          "type": "bytes"
        }
      ],
      "name": "claim",
      "outputs": [],
      "stateMutability": "nonpayable",
      "type": "function"
    },
    {
      "inputs": [
        {
          "internalType": "address",
          "name": "",
          "type": "address"
        }
      ],
      "name": "claims",
      "outputs": [
        {
          "internalType": "bool",
          "name": "",
          "type": "bool"
        }
      ],
      "stateMutability": "view",
      "type": "function"
    },
    {
      "inputs": [],
      "name": "constructionBlock",
      "outputs": [
        {
          "internalType": "uint256",
          "name": "",
          "type": "uint256"
        }
      ],
      "stateMutability": "view",
      "type": "function"
    },
    {
      "inputs": [],
      "name": "erc20",
      "outputs": [
        {
          "internalType": "contract IERC20",
          "name": "",
          "type": "address"
        }
      ],
      "stateMutability": "view",
      "type": "function"
    },
    {
      "inputs": [
        {
          "internalType": "address",
          "name": "account",
          "type": "address"
        },
        {
          "internalType": "address",
          "name": "operator",
          "type": "address"
        }
      ],
      "name": "isApprovedForAll",
      "outputs": [
        {
          "internalType": "bool",
          "name": "",
          "type": "bool"
        }
      ],
      "stateMutability": "view",
      "type": "function"
    },
    {
      "inputs": [
        {
          "internalType": "address",
          "name": "account_",
          "type": "address"
        },
        {
          "internalType": "enum ITier.Tier",
          "name": "minimumTier_",
          "type": "uint8"
        }
      ],
      "name": "isTier",
      "outputs": [
        {
          "internalType": "bool",
          "name": "",
          "type": "bool"
        }
      ],
      "stateMutability": "view",
      "type": "function"
    },
    {
      "inputs": [],
      "name": "minimumTier",
      "outputs": [
        {
          "internalType": "enum ITier.Tier",
          "name": "",
          "type": "uint8"
        }
      ],
      "stateMutability": "view",
      "type": "function"
    },
    {
      "inputs": [
        {
          "internalType": "address",
          "name": "account_",
          "type": "address"
        }
      ],
      "name": "report",
      "outputs": [
        {
          "internalType": "uint256",
          "name": "",
          "type": "uint256"
        }
      ],
      "stateMutability": "view",
      "type": "function"
    },
    {
      "inputs": [
        {
          "internalType": "address",
          "name": "from",
          "type": "address"
        },
        {
          "internalType": "address",
          "name": "to",
          "type": "address"
        },
        {
          "internalType": "uint256[]",
          "name": "ids",
          "type": "uint256[]"
        },
        {
          "internalType": "uint256[]",
          "name": "amounts",
          "type": "uint256[]"
        },
        {
          "internalType": "bytes",
          "name": "data",
          "type": "bytes"
        }
      ],
      "name": "safeBatchTransferFrom",
      "outputs": [],
      "stateMutability": "nonpayable",
      "type": "function"
    },
    {
      "inputs": [
        {
          "internalType": "address",
          "name": "from",
          "type": "address"
        },
        {
          "internalType": "address",
          "name": "to",
          "type": "address"
        },
        {
          "internalType": "uint256",
          "name": "id",
          "type": "uint256"
        },
        {
          "internalType": "uint256",
          "name": "amount",
          "type": "uint256"
        },
        {
          "internalType": "bytes",
          "name": "data",
          "type": "bytes"
        }
      ],
      "name": "safeTransferFrom",
      "outputs": [],
      "stateMutability": "nonpayable",
      "type": "function"
    },
    {
      "inputs": [
        {
          "internalType": "address",
          "name": "operator",
          "type": "address"
        },
        {
          "internalType": "bool",
          "name": "approved",
          "type": "bool"
        }
      ],
      "name": "setApprovalForAll",
      "outputs": [],
      "stateMutability": "nonpayable",
      "type": "function"
    },
    {
      "inputs": [
        {
          "internalType": "address",
          "name": "",
          "type": "address"
        },
        {
          "internalType": "enum ITier.Tier",
          "name": "",
          "type": "uint8"
        },
        {
          "internalType": "bytes",
          "name": "",
          "type": "bytes"
        }
      ],
      "name": "setTier",
      "outputs": [],
      "stateMutability": "nonpayable",
      "type": "function"
    },
    {
      "inputs": [
        {
          "internalType": "bytes4",
          "name": "interfaceId",
          "type": "bytes4"
        }
      ],
      "name": "supportsInterface",
      "outputs": [
        {
          "internalType": "bool",
          "name": "",
          "type": "bool"
        }
      ],
      "stateMutability": "view",
      "type": "function"
    },
    {
      "inputs": [],
      "name": "tierContract",
      "outputs": [
        {
          "internalType": "contract ITier",
          "name": "",
          "type": "address"
        }
      ],
      "stateMutability": "view",
      "type": "function"
    },
    {
      "inputs": [],
      "name": "tierValues",
      "outputs": [
        {
          "internalType": "uint256[8]",
          "name": "tierValues_",
          "type": "uint256[8]"
        }
      ],
      "stateMutability": "view",
      "type": "function"
    },
    {
      "inputs": [
        {
          "internalType": "uint256",
          "name": "",
          "type": "uint256"
        }
      ],
      "name": "uri",
      "outputs": [
        {
          "internalType": "string",
          "name": "",
          "type": "string"
        }
      ],
      "stateMutability": "view",
      "type": "function"
    }
  ],
  "bytecode": "0x6101c06040523480156200001257600080fd5b50604051620025773803806200257783398181016040526101208110156200003957600080fd5b508051604080518082018252601d81527f68747470733a2f2f6578616d706c652e636f6d2f7b69647d2e6a736f6e0000006020808301919091528401805160809081529285015160a090815260608087015160c09081529487015160e090815291870151610100908152948701516101205290860151610140529290940151610160529082901b6001600160601b0319166101805260008054306001600160a01b031990911617905543600155600360f81b6101a052909190620001046301ffc9a760e01b6200013c565b6200010f81620001c1565b62000121636cdb3d1360e11b6200013c565b620001336303a24d0760e21b6200013c565b50505062000276565b6001600160e01b031980821614156200019c576040805162461bcd60e51b815260206004820152601c60248201527f4552433136353a20696e76616c696420696e7465726661636520696400000000604482015290519081900360640190fd5b6001600160e01b0319166000908152600360205260409020805460ff19166001179055565b8051620001d6906006906020840190620001da565b5050565b828054600181600116156101000203166002900490600052602060002090601f016020900481019282601f106200021d57805160ff19168380011785556200024d565b828001600101855582156200024d579182015b828111156200024d57825182559160200191906001019062000230565b506200025b9291506200025f565b5090565b5b808211156200025b576000815560010162000260565b60805160a05160c05160e051610100516101205161014051610160516101805160601c6101a05160f81c61227f620002f86000398061119c528061148252508061105a52806113b1525080610f9f525080610f79525080610f53525080610f2d525080610f07525080610ee1525080610ebb525080610e98525061227f6000f3fe608060405234801561001057600080fd5b506004361061012b5760003560e01c8063785e9e86116100ad578063c6788bdd11610071578063c6788bdd146107c3578063e053ea31146107e9578063e985e9c51461080f578063f1ebd5dd1461083d578063f242432a146108665761012b565b8063785e9e86146106ad5780639cb84a01146106d1578063a22cb465146106d9578063a30872db14610707578063bb1757cf1461070f5761012b565b80633acf301b116100f45780633acf301b146104065780634e1273f41461040e57806352dab69d1461058157806370230b391461063d57806377544f331461067e5761012b565b8062fdd58e1461013057806301ffc9a71461016e5780630e89341c146101a95780630f0af57f1461023b5780632eb2c2d614610243575b600080fd5b61015c6004803603604081101561014657600080fd5b506001600160a01b03813516906020013561092f565b60408051918252519081900360200190f35b6101956004803603602081101561018457600080fd5b50356001600160e01b0319166109a1565b604080519115158252519081900360200190f35b6101c6600480360360208110156101bf57600080fd5b50356109c4565b6040805160208082528351818301528351919283929083019185019080838360005b838110156102005781810151838201526020016101e8565b50505050905090810190601f16801561022d5780820380516001836020036101000a031916815260200191505b509250505060405180910390f35b61015c610a5c565b610404600480360360a081101561025957600080fd5b6001600160a01b038235811692602081013590911691810190606081016040820135600160201b81111561028c57600080fd5b82018360208201111561029e57600080fd5b803590602001918460208302840111600160201b831117156102bf57600080fd5b9190808060200260200160405190810160405280939291908181526020018383602002808284376000920191909152509295949360208101935035915050600160201b81111561030e57600080fd5b82018360208201111561032057600080fd5b803590602001918460208302840111600160201b8311171561034157600080fd5b9190808060200260200160405190810160405280939291908181526020018383602002808284376000920191909152509295949360208101935035915050600160201b81111561039057600080fd5b8201836020820111156103a257600080fd5b803590602001918460018302840111600160201b831117156103c357600080fd5b91908080601f016020809104026020016040519081016040528093929190818152602001838380828437600092019190915250929550610a62945050505050565b005b61015c610d65565b6105316004803603604081101561042457600080fd5b810190602081018135600160201b81111561043e57600080fd5b82018360208201111561045057600080fd5b803590602001918460208302840111600160201b8311171561047157600080fd5b9190808060200260200160405190810160405280939291908181526020018383602002808284376000920191909152509295949360208101935035915050600160201b8111156104c057600080fd5b8201836020820111156104d257600080fd5b803590602001918460208302840111600160201b831117156104f357600080fd5b919080806020026020016040519081016040528093929190818152602001838360200280828437600092019190915250929550610d6a945050505050565b60408051602080825283518183015283519192839290830191858101910280838360005b8381101561056d578181015183820152602001610555565b505050509050019250505060405180910390f35b6104046004803603606081101561059757600080fd5b6001600160a01b038235169160ff60208201351691810190606081016040820135600160201b8111156105c957600080fd5b8201836020820111156105db57600080fd5b803590602001918460018302840111600160201b831117156105fc57600080fd5b91908080601f016020809104026020016040519081016040528093929190818152602001838380828437600092019190915250929550610e56945050505050565b610645610e8e565b604051808261010080838360005b8381101561066b578181015183820152602001610653565b5050505090500191505060405180910390f35b6101956004803603604081101561069457600080fd5b5080356001600160a01b0316906020013560ff16610fc7565b6106b5611058565b604080516001600160a01b039092168252519081900360200190f35b61015c61107c565b610404600480360360408110156106ef57600080fd5b506001600160a01b0381351690602001351515611081565b6106b5611170565b6104046004803603604081101561072557600080fd5b6001600160a01b038235169190810190604081016020820135600160201b81111561074f57600080fd5b82018360208201111561076157600080fd5b803590602001918460018302840111600160201b8311171561078257600080fd5b91908080601f01602080910402602001604051908101604052809392919081815260200183838082843760009201919091525092955061117f945050505050565b610195600480360360208110156107d957600080fd5b50356001600160a01b0316611391565b61015c600480360360208110156107ff57600080fd5b50356001600160a01b03166113a6565b6101956004803603604081101561082557600080fd5b506001600160a01b0381358116916020013516611452565b610845611480565b6040518082600881111561085557fe5b815260200191505060405180910390f35b610404600480360360a081101561087c57600080fd5b6001600160a01b03823581169260208101359091169160408201359160608101359181019060a081016080820135600160201b8111156108bb57600080fd5b8201836020820111156108cd57600080fd5b803590602001918460018302840111600160201b831117156108ee57600080fd5b91908080601f0160208091040260200160405190810160405280939291908181526020018383808284376000920191909152509295506114a4945050505050565b60006001600160a01b0383166109765760405162461bcd60e51b815260040180806020018281038252602b8152602001806120da602b913960400191505060405180910390fd5b5060008181526004602090815260408083206001600160a01b03861684529091529020545b92915050565b6001600160e01b0319811660009081526003602052604090205460ff165b919050565b60068054604080516020601f6002600019610100600188161502019095169490940493840181900481028201810190925282815260609390929091830182828015610a505780601f10610a2557610100808354040283529160200191610a50565b820191906000526020600020905b815481529060010190602001808311610a3357829003601f168201915b50505050509050919050565b60015481565b8151835114610aa25760405162461bcd60e51b81526004018080602001828103825260288152602001806122016028913960400191505060405180910390fd5b6001600160a01b038416610ae75760405162461bcd60e51b815260040180806020018281038252602581526020018061212e6025913960400191505060405180910390fd5b610aef61166f565b6001600160a01b0316856001600160a01b03161480610b1a5750610b1a85610b1561166f565b611452565b610b555760405162461bcd60e51b81526004018080602001828103825260328152602001806121536032913960400191505060405180910390fd5b6000610b5f61166f565b9050610b6f818787878787610d5d565b60005b8451811015610c75576000858281518110610b8957fe5b602002602001015190506000858381518110610ba157fe5b60200260200101519050610c0e816040518060600160405280602a8152602001612185602a91396004600086815260200190815260200160002060008d6001600160a01b03166001600160a01b03168152602001908152602001600020546116739092919063ffffffff16565b60008381526004602090815260408083206001600160a01b038e811685529252808320939093558a1681522054610c45908261170a565b60009283526004602090815260408085206001600160a01b038c1686529091529092209190915550600101610b72565b50846001600160a01b0316866001600160a01b0316826001600160a01b03167f4a39dc06d4c0dbc64b70af90fd698a233a518aa5d07e595d983b8c0526c8f7fb8787604051808060200180602001838103835285818151815260200191508051906020019060200280838360005b83811015610cfb578181015183820152602001610ce3565b50505050905001838103825284818151815260200191508051906020019060200280838360005b83811015610d3a578181015183820152602001610d22565b5050505090500194505050505060405180910390a4610d5d81878787878761176b565b505050505050565b600181565b60608151835114610dac5760405162461bcd60e51b81526004018080602001828103825260298152602001806121d86029913960400191505060405180910390fd5b6060835167ffffffffffffffff81118015610dc657600080fd5b50604051908082528060200260200182016040528015610df0578160200160208202803683370190505b50905060005b8451811015610e4e57610e2f858281518110610e0e57fe5b6020026020010151858381518110610e2257fe5b602002602001015161092f565b828281518110610e3b57fe5b6020908102919091010152600101610df6565b509392505050565b6040805162461bcd60e51b815260206004820152600860248201526729a2aa2faa24a2a960c11b604482015290519081900360640190fd5b610e96611fb3565b7f000000000000000000000000000000000000000000000000000000000000000081527f000000000000000000000000000000000000000000000000000000000000000060208201527f000000000000000000000000000000000000000000000000000000000000000060408201527f000000000000000000000000000000000000000000000000000000000000000060608201527f000000000000000000000000000000000000000000000000000000000000000060808201527f000000000000000000000000000000000000000000000000000000000000000060a08201527f000000000000000000000000000000000000000000000000000000000000000060c08201527f000000000000000000000000000000000000000000000000000000000000000060e08201525b90565b600080546040805163e053ea3160e01b81526001600160a01b038681166004830152915161104c93929092169163e053ea3191602480820192602092909190829003018186803b15801561101a57600080fd5b505afa15801561102e573d6000803e3d6000fd5b505050506040513d602081101561104457600080fd5b5051836119ea565b60015410159392505050565b7f000000000000000000000000000000000000000000000000000000000000000081565b600081565b816001600160a01b031661109361166f565b6001600160a01b031614156110d95760405162461bcd60e51b81526004018080602001828103825260298152602001806121af6029913960400191505060405180910390fd5b80600560006110e661166f565b6001600160a01b03908116825260208083019390935260409182016000908120918716808252919093529120805460ff19169215159290921790915561112a61166f565b6001600160a01b03167f17307eab39ab6107e8899845ad3d59bd9653f200f220920489ca2b5937696c318360405180821515815260200191505060405180910390a35050565b6000546001600160a01b031681565b6001600160a01b03821660009081526002602052604090205482907f00000000000000000000000000000000000000000000000000000000000000009060ff1615611203576040805162461bcd60e51b815260206004820152600f60248201526e4455504c49434154455f434c41494d60881b604482015290519081900360640190fd5b6001600160a01b0384166000818152600260209081526040808320805460ff19166001179055805182815287518184015287517fa16751aa65ef03fb7261c0a125a84854295c191657bda7151d4396246b1bbeb49489949293849390840192908601918190849084905b8381101561128557818101518382015260200161126d565b50505050905090810190601f1680156112b25780820380516001836020036101000a031916815260200191505b509250505060405180910390a26000546040805163e053ea3160e01b81526001600160a01b0380881660048301529151611341938893169163e053ea31916024808301926020929190829003018186803b15801561130f57600080fd5b505afa158015611323573d6000803e3d6000fd5b505050506040513d602081101561133957600080fd5b505185611a30565b61134b8282610fc7565b61138b576040805162461bcd60e51b815260206004820152600c60248201526b26a4a724a6aaa6afaa24a2a960a11b604482015290519081900360640190fd5b50505050565b60026020526000908152604090205460ff1681565b600061099b8161144d7f00000000000000000000000000000000000000000000000000000000000000006001600160a01b03166370a08231866040518263ffffffff1660e01b815260040180826001600160a01b0316815260200191505060206040518083038186803b15801561141c57600080fd5b505afa158015611430573d6000803e3d6000fd5b505050506040513d602081101561144657600080fd5b5051611b2a565b611b7b565b6001600160a01b03918216600090815260056020908152604080832093909416825291909152205460ff1690565b7f000000000000000000000000000000000000000000000000000000000000000081565b6001600160a01b0384166114e95760405162461bcd60e51b815260040180806020018281038252602581526020018061212e6025913960400191505060405180910390fd5b6114f161166f565b6001600160a01b0316856001600160a01b03161480611517575061151785610b1561166f565b6115525760405162461bcd60e51b81526004018080602001828103825260298152602001806121056029913960400191505060405180910390fd5b600061155c61166f565b905061157c81878761156d88611ba3565b61157688611ba3565b87610d5d565b6115c3836040518060600160405280602a8152602001612185602a913960008781526004602090815260408083206001600160a01b038d1684529091529020549190611673565b60008581526004602090815260408083206001600160a01b038b811685529252808320939093558716815220546115fa908461170a565b60008581526004602090815260408083206001600160a01b03808b168086529184529382902094909455805188815291820187905280518a8416938616927fc3d58168c5ae7397731d063d5bbf3d657854427343f4c083240f7aacaa2d0f6292908290030190a4610d5d818787878787611be7565b3390565b600081848411156117025760405162461bcd60e51b81526004018080602001828103825283818151815260200191508051906020019080838360005b838110156116c75781810151838201526020016116af565b50505050905090810190601f1680156116f45780820380516001836020036101000a031916815260200191505b509250505060405180910390fd5b505050900390565b600082820183811015611764576040805162461bcd60e51b815260206004820152601b60248201527f536166654d6174683a206164646974696f6e206f766572666c6f770000000000604482015290519081900360640190fd5b9392505050565b61177d846001600160a01b0316611d58565b15610d5d57836001600160a01b031663bc197c8187878686866040518663ffffffff1660e01b815260040180866001600160a01b03168152602001856001600160a01b03168152602001806020018060200180602001848103845287818151815260200191508051906020019060200280838360005b8381101561180b5781810151838201526020016117f3565b50505050905001848103835286818151815260200191508051906020019060200280838360005b8381101561184a578181015183820152602001611832565b50505050905001848103825285818151815260200191508051906020019080838360005b8381101561188657818101518382015260200161186e565b50505050905090810190601f1680156118b35780820380516001836020036101000a031916815260200191505b5098505050505050505050602060405180830381600087803b1580156118d857600080fd5b505af19250505080156118fd57506040513d60208110156118f857600080fd5b505160015b61199257611909611fd8565b80611914575061195b565b60405162461bcd60e51b81526020600482018181528351602484015283518493919283926044019190850190808383600083156116c75781810151838201526020016116af565b60405162461bcd60e51b815260040180806020018281038252603481526020018061207e6034913960400191505060405180910390fd5b6001600160e01b0319811663bc197c8160e01b146119e15760405162461bcd60e51b81526004018080602001828103825260288152602001806120b26028913960400191505060405180910390fd5b50505050505050565b6000808260088111156119f957fe5b1415611a075750600061099b565b60006001836008811115611a1757fe5b0360200290508084901c63ffffffff1691505092915050565b6000611a3d846005610fc7565b60408051600280825260608083018452939450909160208301908036833750506040805160028082526060808301845294955090925090602083019080368337019050509050600082600081518110611a9257fe5b602002602001018181525050600182600181518110611aad57fe5b60200260200101818152505082611ac5576001611ac8565b60025b60ff1681600081518110611ad857fe5b60200260200101818152505082611af0576000611af3565b60015b60ff1681600181518110611b0357fe5b602002602001018181525050610d5d86838360405180602001604052806000815250611d5e565b6000805b6008811015611b7257611b3f610e8e565b8160088110611b4a57fe5b6020020151831015611b6a57806008811115611b6257fe5b9150506109bf565b600101611b2e565b50600892915050565b600080826008811115611b8a57fe5b60001960209190910290811c901b841791505092915050565b604080516001808252818301909252606091829190602080830190803683370190505090508281600081518110611bd657fe5b602090810291909101015292915050565b611bf9846001600160a01b0316611d58565b15610d5d57836001600160a01b031663f23a6e6187878686866040518663ffffffff1660e01b815260040180866001600160a01b03168152602001856001600160a01b0316815260200184815260200183815260200180602001828103825283818151815260200191508051906020019080838360005b83811015611c88578181015183820152602001611c70565b50505050905090810190601f168015611cb55780820380516001836020036101000a031916815260200191505b509650505050505050602060405180830381600087803b158015611cd857600080fd5b505af1925050508015611cfd57506040513d6020811015611cf857600080fd5b505160015b611d0957611909611fd8565b6001600160e01b0319811663f23a6e6160e01b146119e15760405162461bcd60e51b81526004018080602001828103825260288152602001806120b26028913960400191505060405180910390fd5b3b151590565b6001600160a01b038416611da35760405162461bcd60e51b81526004018080602001828103825260218152602001806122296021913960400191505060405180910390fd5b8151835114611de35760405162461bcd60e51b81526004018080602001828103825260288152602001806122016028913960400191505060405180910390fd5b6000611ded61166f565b9050611dfe81600087878787610d5d565b60005b8451811015611ec257611e7960046000878481518110611e1d57fe5b602002602001015181526020019081526020016000206000886001600160a01b03166001600160a01b0316815260200190815260200160002054858381518110611e6357fe5b602002602001015161170a90919063ffffffff16565b60046000878481518110611e8957fe5b602090810291909101810151825281810192909252604090810160009081206001600160a01b038b168252909252902055600101611e01565b50846001600160a01b031660006001600160a01b0316826001600160a01b03167f4a39dc06d4c0dbc64b70af90fd698a233a518aa5d07e595d983b8c0526c8f7fb8787604051808060200180602001838103835285818151815260200191508051906020019060200280838360005b83811015611f49578181015183820152602001611f31565b50505050905001838103825284818151815260200191508051906020019060200280838360005b83811015611f88578181015183820152602001611f70565b5050505090500194505050505060405180910390a4611fac8160008787878761176b565b5050505050565b6040518061010001604052806008906020820280368337509192915050565b60e01c90565b600060443d1015611fe857610fc4565b600481823e6308c379a0611ffc8251611fd2565b1461200657610fc4565b6040513d600319016004823e80513d67ffffffffffffffff81602484011181841117156120365750505050610fc4565b828401925082519150808211156120505750505050610fc4565b503d8301602082840101111561206857505050610fc4565b601f01601f191681016020016040529150509056fe455243313135353a207472616e7366657220746f206e6f6e2045524331313535526563656976657220696d706c656d656e746572455243313135353a204552433131353552656365697665722072656a656374656420746f6b656e73455243313135353a2062616c616e636520717565727920666f7220746865207a65726f2061646472657373455243313135353a2063616c6c6572206973206e6f74206f776e6572206e6f7220617070726f766564455243313135353a207472616e7366657220746f20746865207a65726f2061646472657373455243313135353a207472616e736665722063616c6c6572206973206e6f74206f776e6572206e6f7220617070726f766564455243313135353a20696e73756666696369656e742062616c616e636520666f72207472616e73666572455243313135353a2073657474696e6720617070726f76616c2073746174757320666f722073656c66455243313135353a206163636f756e747320616e6420696473206c656e677468206d69736d61746368455243313135353a2069647320616e6420616d6f756e7473206c656e677468206d69736d61746368455243313135353a206d696e7420746f20746865207a65726f2061646472657373a26469706673582212203095c6543861daeee31935eb4e5be80b1de3d1e4be83e1c0e80076f1b55f3a1d64736f6c634300060c0033",
  "linkReferences": {},
  "deployedLinkReferences": {}
}