{
  "_format": "hh-sol-artifact-1",
  "contractName": "RedeemableERC20Factory",
  "sourceName": "contracts/rain-protocol/contracts/redeemableERC20/RedeemableERC20Factory.sol",
  "abi": [
    {
      "anonymous": false,
      "inputs": [
        {
          "indexed": true,
          "internalType": "address",
          "name": "_contract",
          "type": "address"
        }
      ],
      "name": "NewContract",
      "type": "event"
    },
    {
      "inputs": [
        {
          "internalType": "bytes",
          "name": "data_",
          "type": "bytes"
        }
      ],
      "name": "createChild",
      "outputs": [
        {
          "internalType": "address",
          "name": "",
          "type": "address"
        }
      ],
      "stateMutability": "nonpayable",
      "type": "function"
    },
    {
      "inputs": [
        {
          "components": [
            {
              "internalType": "address",
              "name": "admin",
              "type": "address"
            },
            {
              "internalType": "string",
              "name": "name",
              "type": "string"
            },
            {
              "internalType": "string",
              "name": "symbol",
              "type": "string"
            },
            {
              "internalType": "contract ITier",
              "name": "tier",
              "type": "address"
            },
            {
              "internalType": "enum ITier.Tier",
              "name": "minimumStatus",
              "type": "uint8"
            },
            {
              "internalType": "uint256",
              "name": "totalSupply",
              "type": "uint256"
            }
          ],
          "internalType": "struct RedeemableERC20Config",
          "name": "config_",
          "type": "tuple"
        }
      ],
      "name": "createChild",
      "outputs": [
        {
          "internalType": "address",
          "name": "",
          "type": "address"
        }
      ],
      "stateMutability": "nonpayable",
      "type": "function"
    },
    {
      "inputs": [
        {
          "internalType": "address",
          "name": "maybeChild_",
          "type": "address"
        }
      ],
      "name": "isChild",
      "outputs": [
        {
          "internalType": "bool",
          "name": "",
          "type": "bool"
        }
      ],
      "stateMutability": "nonpayable",
      "type": "function"
    }
  ],
  "bytecode": "0x608060405234801561001057600080fd5b506001600055614107806100256000396000f3fe60806040523480156200001157600080fd5b5060043610620000465760003560e01c80632ea72a49146200004b5780639bfa20bb146200007a578063fc91a8971462000091575b600080fd5b620000626200005c36600462000415565b620000b7565b60405162000071919062000658565b60405180910390f35b620000626200008b36600462000487565b6200019d565b620000a8620000a2366004620003d0565b62000257565b60405162000071919062000679565b60006002600054141562000102576040517f08c379a0000000000000000000000000000000000000000000000000000000008152600401620000f99062000699565b60405180910390fd5b6002600090815562000115848462000282565b73ffffffffffffffffffffffffffffffffffffffff8116600081815260016020819052604080832080547fffffffffffffffffffffffffffffffffffffffffffffffffffffffffffffff00169092179091555192935090917f387ea218537e939551af33bbc2dd6c53b1fee55d377a0dce288258f972cb3a9c9190a260016000559392505050565b60003073ffffffffffffffffffffffffffffffffffffffff16632ea72a4983604051602001620001ce9190620006d0565b6040516020818303038152906040526040518263ffffffff1660e01b8152600401620001fb919062000684565b602060405180830381600087803b1580156200021657600080fd5b505af11580156200022b573d6000803e3d6000fd5b505050506040513d601f19601f82011682018060405250810190620002519190620003f6565b92915050565b73ffffffffffffffffffffffffffffffffffffffff1660009081526001602052604090205460ff1690565b60006200028e620002e2565b6200029c83850185620004c2565b9050600081604051620002af9062000319565b620002bb9190620007c2565b604051809103906000f080158015620002d8573d6000803e3d6000fd5b5095945050505050565b6040805160c08101825260008082526060602083018190529282018390529181018290529060808201908152602001600081525090565b613793806200093f83390190565b803562000251816200091b565b8035600981106200025157600080fd5b600082601f83011262000355578081fd5b813567ffffffffffffffff8111156200036c578182fd5b6200039f60207fffffffffffffffffffffffffffffffffffffffffffffffffffffffffffffffe0601f8401160162000878565b9150808252836020828501011115620003b757600080fd5b8060208401602084013760009082016020015292915050565b600060208284031215620003e2578081fd5b8135620003ef816200091b565b9392505050565b60006020828403121562000408578081fd5b8151620003ef816200091b565b6000806020838503121562000428578081fd5b823567ffffffffffffffff8082111562000440578283fd5b818501915085601f83011262000454578283fd5b81358181111562000463578384fd5b86602082850101111562000475578384fd5b60209290920196919550909350505050565b60006020828403121562000499578081fd5b813567ffffffffffffffff811115620004b0578182fd5b820160c08185031215620003ef578182fd5b600060208284031215620004d4578081fd5b813567ffffffffffffffff80821115620004ec578283fd5b9083019060c0828603121562000500578283fd5b6200050c60c062000878565b62000518868462000327565b81526020830135828111156200052c578485fd5b6200053a8782860162000344565b60208301525060408301358281111562000552578485fd5b620005608782860162000344565b60408301525062000575866060850162000327565b606082015262000589866080850162000334565b608082015260a083013560a082015280935050505092915050565b60008151808452815b81811015620005cb57602081850181015186830182015201620005ad565b81811115620005dd5782602083870101525b50601f017fffffffffffffffffffffffffffffffffffffffffffffffffffffffffffffffe0169290920160200192915050565b600082845282826020860137806020848601015260207fffffffffffffffffffffffffffffffffffffffffffffffffffffffffffffffe0601f85011685010190509392505050565b73ffffffffffffffffffffffffffffffffffffffff91909116815260200190565b901515815260200190565b600060208252620003ef6020830184620005a4565b6020808252601f908201527f5265656e7472616e637947756172643a207265656e7472616e742063616c6c00604082015260600190565b6000602082528235620006e3816200091b565b73ffffffffffffffffffffffffffffffffffffffff80821660208501526200070f6020860186620008a0565b925060c060408601526200072860e08601848362000610565b9250506200073a6040860186620008a0565b7fffffffffffffffffffffffffffffffffffffffffffffffffffffffffffffffe08685030160608701526200077184828462000610565b93505050606085013562000785816200091b565b8181166080860152505060a08401620007a2816080870162000334565b620007ad816200090d565b60a08501523560c09093019290925250919050565b60006020825273ffffffffffffffffffffffffffffffffffffffff808451166020840152602084015160c060408501526200080160e0850182620005a4565b905060408501517fffffffffffffffffffffffffffffffffffffffffffffffffffffffffffffffe08583030160608601526200083e8282620005a4565b915050816060860151166080850152608085015191506200085f826200090d565b60a08481019290925293015160c0909201919091525090565b60405181810167ffffffffffffffff811182821017156200089857600080fd5b604052919050565b60008083357fffffffffffffffffffffffffffffffffffffffffffffffffffffffffffffffe1843603018112620008d5578283fd5b830160208101925035905067ffffffffffffffff811115620008f657600080fd5b8036038313156200090657600080fd5b9250929050565b600981106200091857fe5b50565b73ffffffffffffffffffffffffffffffffffffffff811681146200091857600080fdfe61018060405263ffffffff608081815260a082905260c082905260e0829052610100829052610120829052610140829052610160919091526200004790600190600862000720565b503480156200005557600080fd5b506040516200379338038062003793833981016040819052620000789162000930565b60208181015160408301516060840151600280546001600160a01b0319166001600160a01b0390921691909117905543600355815191929091620000c39160079190850190620007c3565b508051620000d9906008906020840190620007c3565b50506009805460ff19166012179055506001600a5560a0810151670de0b6b3a76400001115620001265760405162461bcd60e51b81526004016200011d9062000ae0565b60405180910390fd5b6080810151600b805460ff191660018360088111156200014257fe5b021790555080516200015790600090620001c7565b805162000175906000805160206200377383398151915290620001c7565b62000191600080516020620037538339815191526000620001c7565b620001ad600080516020620037738339815191526000620001c7565b805160a0820151620001c09190620001d7565b5062000b7e565b620001d38282620002bc565b5050565b6001600160a01b038216620002005760405162461bcd60e51b81526004016200011d9062000b17565b6200020e6000838362000335565b6200022a816006546200047160201b620010311790919060201c565b6006556001600160a01b0382166000908152600460209081526040909120546200025f9183906200103162000471821b17901c565b6001600160a01b0383166000818152600460205260408082209390935591519091907fddf252ad1be2c89b69c2b068fc378daa952ba7f163c4a11628f55a4df523b3ef90620002b090859062000b4e565b60405180910390a35050565b600082815260208181526040909120620002e191839062001070620004a2821b17901c565b15620001d357620002f1620004b9565b6001600160a01b0316816001600160a01b0316837f2f8788117e7eff1d82e926ec794901d17c78024a50270940304540a733656f0d60405160405180910390a45050565b6200034d8383836200046c60201b62000aa01760201c565b6001600160a01b038216301415620003795760405162461bcd60e51b81526004016200011d9062000ab7565b600081118015620003c45750620003a06000805160206200375383398151915284620004bd565b80620003c25750620003c26000805160206200377383398151915283620004bd565b155b156200046c576000620003d6620004e1565b6008811115620003e257fe5b14156200042157600b54620003fc90839060ff1662000550565b6200041b5760405162461bcd60e51b81526004016200011d9062000a3e565b6200046c565b60016200042d620004e1565b60088111156200043957fe5b14156200046a576001600160a01b038216156200041b5760405162461bcd60e51b81526004016200011d9062000a97565bfe5b505050565b600082820183811015620004995760405162461bcd60e51b81526004016200011d9062000a60565b90505b92915050565b600062000499836001600160a01b038416620005fc565b3390565b600082815260208181526040822062000499918490620010926200064b821b17901c565b604080516101008101918290526000916200054b91906001906008908286855b82829054906101000a900463ffffffff1663ffffffff1681526020019060040190602082600301049283019260010382029150808411620005015750439450506200066292505050565b905090565b60025460405163e053ea3160e01b8152600091620005f0916001600160a01b039091169063e053ea31906200058a90879060040162000a2a565b60206040518083038186803b158015620005a357600080fd5b505afa158015620005b8573d6000803e3d6000fd5b505050506040513d601f19601f82011682018060405250810190620005de919062000a11565b83620006be60201b620010b41760201c565b60035410159392505050565b60006200060a838362000708565b62000642575081546001818101845560008481526020808220909301849055845484825282860190935260409020919091556200049c565b5060006200049c565b600062000499836001600160a01b03841662000708565b6000805b6008811015620006b5578381600881106200067d57fe5b602002015163ffffffff168363ffffffff161015620006ac57806008811115620006a357fe5b9150506200049c565b60010162000666565b50600862000499565b600080826008811115620006ce57fe5b1415620006de575060006200049c565b60006001836008811115620006ef57fe5b0360200290508084901c63ffffffff1691505092915050565b60009081526001919091016020526040902054151590565b600183019183908215620007b15791602002820160005b838211156200077d57835183826101000a81548163ffffffff021916908363ffffffff160217905550926020019260040160208160030104928301926001030262000737565b8015620007af5782816101000a81549063ffffffff02191690556004016020816003010492830192600103026200077d565b505b50620007bf92915062000844565b5090565b828054600181600116156101000203166002900490600052602060002090601f016020900481019282601f106200080657805160ff191683800117855562000836565b8280016001018555821562000836579182015b828111156200083657825182559160200191906001019062000819565b50620007bf92915062000862565b5b80821115620007bf57805463ffffffff1916815560010162000845565b5b80821115620007bf576000815560010162000863565b80516001600160a01b03811681146200049c57600080fd5b8051600981106200049c57600080fd5b600082601f830112620008b2578081fd5b81516001600160401b03811115620008c8578182fd5b6020620008de601f8301601f1916820162000b57565b92508183528481838601011115620008f557600080fd5b60005b8281101562000915578481018201518482018301528101620008f8565b82811115620009275760008284860101525b50505092915050565b60006020828403121562000942578081fd5b81516001600160401b038082111562000959578283fd5b9083019060c082860312156200096d578283fd5b6200097960c062000b57565b62000985868462000879565b815260208301518281111562000999578485fd5b620009a787828601620008a1565b602083015250604083015182811115620009bf578485fd5b620009cd87828601620008a1565b604083015250620009e2866060850162000879565b6060820152620009f6866080850162000891565b608082015260a083015160a082015280935050505092915050565b60006020828403121562000a23578081fd5b5051919050565b6001600160a01b0391909116815260200190565b60208082526008908201526726a4a72faa24a2a960c11b604082015260600190565b6020808252601b908201527f536166654d6174683a206164646974696f6e206f766572666c6f770000000000604082015260600190565b602080825260069082015265232927ad22a760d11b604082015260600190565b6020808252600f908201526e2a27a5a2a72fa9a2a7222fa9a2a62360891b604082015260600190565b60208082526016908201527f4d494e494d554d5f494e495449414c5f535550504c5900000000000000000000604082015260600190565b6020808252601f908201527f45524332303a206d696e7420746f20746865207a65726f206164647265737300604082015260600190565b90815260200190565b6040518181016001600160401b038111828210171562000b7657600080fd5b604052919050565b612bc58062000b8e6000396000f3fe608060405234801561001057600080fd5b50600436106102775760003560e01c806379cc679011610160578063a457c2d7116100d8578063d547741f1161008c578063de1533ba11610071578063de1533ba146104d9578063f1ebd5dd146104ec578063f677de96146104f457610277565b8063d547741f146104b3578063dd62ed3e146104c657610277565b8063ad3cb103116100bd578063ad3cb10314610490578063ad7430cc14610498578063ca15c873146104a057610277565b8063a457c2d71461046a578063a9059cbb1461047d57610277565b806395d89b411161012f5780639923c94b116101145780639923c94b14610447578063a217fddf1461045a578063a30872db1461046257610277565b806395d89b411461043757806396773ebe1461043f57610277565b806379cc6790146103e957806381e45d9a146103fc5780639010d07c1461040457806391d148541461042457610277565b8063313ce567116101f357806342966c68116101c25780636050f2f8116101a75780636050f2f8146103bb57806370a08231146103c357806377544f33146103d657610277565b806342966c681461038857806345bdfa8a1461039b57610277565b8063313ce5671461033a57806334c1df751461034f57806336568abe14610362578063395093511461037557610277565b80630f0af57f1161024a57806323b872dd1161022f57806323b872dd14610301578063248a9ca3146103145780632f2ff15d1461032757610277565b80630f0af57f146102e457806318160ddd146102f957610277565b8063038ef03e1461027c578063055ad42e1461029157806306fdde03146102af578063095ea7b3146102c4575b600080fd5b61028f61028a366004611edf565b610507565b005b61029961054d565b6040516102a6919061228a565b60405180910390f35b6102b76105b8565b6040516102a6919061229d565b6102d76102d2366004611fa0565b61066c565b6040516102a69190612276565b6102ec61068a565b6040516102a69190612281565b6102ec610690565b6102d761030f366004611f33565b610696565b6102ec610322366004612151565b610738565b61028f610335366004612169565b61074d565b6103426107b8565b6040516102a69190612a26565b61029961035d3660046120ad565b6107c1565b61028f610370366004612169565b610818565b6102d7610383366004611fa0565b61088e565b61028f610396366004612151565b6108e9565b6103ae6103a936600461207c565b6108fd565b6040516102a69190612a15565b6102ec610945565b6102ec6103d1366004611edf565b610969565b6102d76103e4366004611f73565b610991565b61028f6103f7366004611fa0565b610a50565b6103ae610aa5565b61041761041236600461218d565b610ac9565b6040516102a691906121fe565b6102d7610432366004612169565b610ae1565b6102b7610af9565b6102ec610b78565b6103ae610455366004612151565b610b9c565b6102ec610bc9565b610417610bce565b6102d7610478366004611fa0565b610bea565b6102d761048b366004611fa0565b610c5f565b6102ec610c73565b6102ec610c7f565b6102ec6104ae366004612151565b610ca3565b61028f6104c1366004612169565b610cba565b6102ec6104d4366004611efb565b610d0e565b61028f6104e7366004611edf565b610d46565b610299610e0e565b61028f610502366004611fcb565b610e17565b60405173ffffffffffffffffffffffffffffffffffffffff82169033907f2ab01e95cf254bfe2f3e7e2a70a40262c15f0c753a586568529e3b109c567d5690600090a350565b604080516101008101918290526000916105b391906001906008908286855b82829054906101000a900463ffffffff1663ffffffff168152602001906004019060208260030104928301926001038202915080841161056c5790505050505050436107c1565b905090565b60078054604080516020601f60027fffffffffffffffffffffffffffffffffffffffffffffffffffffffffffffffff6101006001881615020190951694909404938401819004810282018101909252828152606093909290918301828280156106625780601f1061063757610100808354040283529160200191610662565b820191906000526020600020905b81548152906001019060200180831161064557829003601f168201915b5050505050905090565b60006106806106796110fa565b84846110fe565b5060015b92915050565b60035481565b60065490565b60006106a384848461120d565b61072d846106af6110fa565b61072885604051806060016040528060288152602001612b1f6028913973ffffffffffffffffffffffffffffffffffffffff8a166000908152600560205260408120906106fa6110fa565b73ffffffffffffffffffffffffffffffffffffffff1681526020810191909152604001600020549190611397565b6110fe565b5060015b9392505050565b60009081526020819052604090206002015490565b60008281526020819052604090206002015461076b906104326110fa565b6107aa576040517f08c379a00000000000000000000000000000000000000000000000000000000081526004016107a1906123a8565b60405180910390fd5b6107b482826113dd565b5050565b60095460ff1690565b6000805b600881101561080e578381600881106107da57fe5b602002015163ffffffff168363ffffffff161015610806578060088111156107fe57fe5b915050610684565b6001016107c5565b5060089392505050565b6108206110fa565b73ffffffffffffffffffffffffffffffffffffffff168173ffffffffffffffffffffffffffffffffffffffff1614610884576040517f08c379a00000000000000000000000000000000000000000000000000000000081526004016107a1906129b8565b6107b48282611460565b600061068061089b6110fa565b8461072885600560006108ac6110fa565b73ffffffffffffffffffffffffffffffffffffffff908116825260208083019390935260409182016000908120918c168152925290205490611031565b6108fa6108f46110fa565b826114e3565b50565b60008082600881111561090c57fe5b11610918576000610731565b82600183600881111561092757fe5b036008811061093257fe5b60200201602081019061073191906121c6565b7fcf2b1209506b76f140fb1bc5fe66d6e42627c4b9703a951d65552f50f14c9ee781565b73ffffffffffffffffffffffffffffffffffffffff1660009081526004602052604090205490565b6002546040517fe053ea31000000000000000000000000000000000000000000000000000000008152600091610a449173ffffffffffffffffffffffffffffffffffffffff9091169063e053ea31906109ee9087906004016121fe565b60206040518083038186803b158015610a0657600080fd5b505afa158015610a1a573d6000803e3d6000fd5b505050506040513d601f19601f82011682018060405250810190610a3e91906121ae565b836110b4565b60035410159392505050565b6000610a8282604051806060016040528060248152602001612b4760249139610a7b866104d46110fa565b9190611397565b9050610a9683610a906110fa565b836110fe565b610aa083836114e3565b505050565b7fffffffffffffffffffffffffffffffffffffffffffffffffffffffffffffffff81565b60008281526020819052604081206107319083611613565b60008281526020819052604081206107319083611092565b60088054604080516020601f60027fffffffffffffffffffffffffffffffffffffffffffffffffffffffffffffffff6101006001881615020190951694909404938401819004810282018101909252828152606093909290918301828280156106625780601f1061063757610100808354040283529160200191610662565b7fa67ce9b482cd7c7b30f4cea2f7e71abe8f7040cc572c570552199c488f160ad181565b60018160088110610ba957fe5b60089182820401919006600402915054906101000a900463ffffffff1681565b600081565b60025473ffffffffffffffffffffffffffffffffffffffff1681565b6000610680610bf76110fa565b8461072885604051806060016040528060258152602001612b6b6025913960056000610c216110fa565b73ffffffffffffffffffffffffffffffffffffffff908116825260208083019390935260409182016000908120918d16815292529020549190611397565b6000610680610c6c6110fa565b848461120d565b670de0b6b3a764000081565b7f94201143cc0a32610f14f8f185ebb23e4ca60f1758e49668647d0879b1e81f0b81565b60008181526020819052604081206106849061161f565b600082815260208190526040902060020154610cd8906104326110fa565b610884576040517f08c379a00000000000000000000000000000000000000000000000000000000081526004016107a190612640565b73ffffffffffffffffffffffffffffffffffffffff918216600090815260056020908152604080832093909416825291909152205490565b600080610d5161054d565b6008811115610d5c57fe5b14610d93576040517f08c379a00000000000000000000000000000000000000000000000000000000081526004016107a19061253e565b610dbd7fa67ce9b482cd7c7b30f4cea2f7e71abe8f7040cc572c570552199c488f160ad133610ae1565b610df3576040517f08c379a00000000000000000000000000000000000000000000000000000000081526004016107a19061294a565b610dfc4361162a565b6107b482610e0984610969565b6114e3565b600b5460ff1681565b600180610e2261054d565b6008811115610e2d57fe5b14610e64576040517f08c379a00000000000000000000000000000000000000000000000000000000081526004016107a19061253e565b6002600a541415610ea1576040517f08c379a00000000000000000000000000000000000000000000000000000000081526004016107a190612981565b6002600a556000610eb0610690565b9050610ebc33846114e3565b60005b8451811015611025576000858281518110610ed657fe5b602002602001015190506000610f7f84610f79888573ffffffffffffffffffffffffffffffffffffffff166370a08231306040518263ffffffff1660e01b8152600401610f2391906121fe565b60206040518083038186803b158015610f3b57600080fd5b505afa158015610f4f573d6000803e3d6000fd5b505050506040513d601f19601f82011682018060405250810190610f7391906121ae565b906117a0565b906117f4565b90508173ffffffffffffffffffffffffffffffffffffffff163373ffffffffffffffffffffffffffffffffffffffff167ff8eb02c03b445447861a4fda33b7470adf3b693b314b35a1efb8203edc28d65660405180604001604052808a815260200185815250604051610ff29190612245565b60405180910390a361101b73ffffffffffffffffffffffffffffffffffffffff83163383611840565b5050600101610ebf565b50506001600a55505050565b600082820183811015610731576040517f08c379a00000000000000000000000000000000000000000000000000000000081526004016107a1906124d0565b60006107318373ffffffffffffffffffffffffffffffffffffffff84166118e1565b60006107318373ffffffffffffffffffffffffffffffffffffffff841661192b565b6000808260088111156110c357fe5b14156110d157506000610684565b600060018360088111156110e157fe5b0360200290508084901c63ffffffff1691505092915050565b3390565b73ffffffffffffffffffffffffffffffffffffffff831661114b576040517f08c379a00000000000000000000000000000000000000000000000000000000081526004016107a190612859565b73ffffffffffffffffffffffffffffffffffffffff8216611198576040517f08c379a00000000000000000000000000000000000000000000000000000000081526004016107a19061243c565b73ffffffffffffffffffffffffffffffffffffffff80841660008181526005602090815260408083209487168084529490915290819020849055517f8c5be1e5ebec7d5bd14f71427d1e84f3dd0314c0f7b2291e5b200ac8c7c3b92590611200908590612281565b60405180910390a3505050565b73ffffffffffffffffffffffffffffffffffffffff831661125a576040517f08c379a00000000000000000000000000000000000000000000000000000000081526004016107a1906127c5565b73ffffffffffffffffffffffffffffffffffffffff82166112a7576040517f08c379a00000000000000000000000000000000000000000000000000000000081526004016107a19061234b565b6112b2838383611943565b6112fc81604051806060016040528060268152602001612af96026913973ffffffffffffffffffffffffffffffffffffffff86166000908152600460205260409020549190611397565b73ffffffffffffffffffffffffffffffffffffffff80851660009081526004602052604080822093909355908416815220546113389082611031565b73ffffffffffffffffffffffffffffffffffffffff80841660008181526004602052604090819020939093559151908516907fddf252ad1be2c89b69c2b068fc378daa952ba7f163c4a11628f55a4df523b3ef90611200908590612281565b600081848411156113d5576040517f08c379a00000000000000000000000000000000000000000000000000000000081526004016107a1919061229d565b505050900390565b60008281526020819052604090206113f59082611070565b156107b4576114026110fa565b73ffffffffffffffffffffffffffffffffffffffff168173ffffffffffffffffffffffffffffffffffffffff16837f2f8788117e7eff1d82e926ec794901d17c78024a50270940304540a733656f0d60405160405180910390a45050565b60008281526020819052604090206114789082611adc565b156107b4576114856110fa565b73ffffffffffffffffffffffffffffffffffffffff168173ffffffffffffffffffffffffffffffffffffffff16837ff6391f5c32d9c69d2a47ea670b442974b53935d1edc7fd64eb21e047a839171b60405160405180910390a45050565b73ffffffffffffffffffffffffffffffffffffffff8216611530576040517f08c379a00000000000000000000000000000000000000000000000000000000081526004016107a190612768565b61153c82600083611943565b61158681604051806060016040528060228152602001612ad76022913973ffffffffffffffffffffffffffffffffffffffff85166000908152600460205260409020549190611397565b73ffffffffffffffffffffffffffffffffffffffff83166000908152600460205260409020556006546115b99082611afe565b60065560405160009073ffffffffffffffffffffffffffffffffffffffff8416907fddf252ad1be2c89b69c2b068fc378daa952ba7f163c4a11628f55a4df523b3ef90611607908590612281565b60405180910390a35050565b60006107318383611b40565b600061068482611b9f565b8063ffffffff164363ffffffff161115611670576040517f08c379a00000000000000000000000000000000000000000000000000000000081526004016107a190612405565b63ffffffff818116106116af576040517f08c379a00000000000000000000000000000000000000000000000000000000081526004016107a190612507565b60006116b961054d565b60088111156116c457fe5b9050600181600881106116d357fe5b60088104919091015460079091166004026101000a900463ffffffff90811614611729576040517f08c379a00000000000000000000000000000000000000000000000000000000081526004016107a190612822565b61173282611ba3565b816001826008811061174057fe5b600891828204019190066004026101000a81548163ffffffff021916908363ffffffff1602179055508163ffffffff167f260aac5b840edc27b89fdf50e91311a413363a400959466e1049e6d071b8cee260405160405180910390a25050565b6000826117af57506000610684565b828202828482816117bc57fe5b0414610731576040517f08c379a00000000000000000000000000000000000000000000000000000000081526004016107a19061270b565b600080821161182f576040517f08c379a00000000000000000000000000000000000000000000000000000000081526004016107a190612609565b81838161183857fe5b049392505050565b610aa08363a9059cbb60e01b848460405160240161185f92919061221f565b604080517fffffffffffffffffffffffffffffffffffffffffffffffffffffffffffffffe08184030181529190526020810180517bffffffffffffffffffffffffffffffffffffffffffffffffffffffff167fffffffff0000000000000000000000000000000000000000000000000000000090931692909217909152611bc8565b60006118ed838361192b565b61192357508154600181810184556000848152602080822090930184905584548482528286019093526040902091909155610684565b506000610684565b60009081526001919091016020526040902054151590565b61194e838383610aa0565b73ffffffffffffffffffffffffffffffffffffffff821630141561199e576040517f08c379a00000000000000000000000000000000000000000000000000000000081526004016107a1906126d4565b600081118015611a0557506119d37fcf2b1209506b76f140fb1bc5fe66d6e42627c4b9703a951d65552f50f14c9ee784610ae1565b80611a035750611a037f94201143cc0a32610f14f8f185ebb23e4ca60f1758e49668647d0879b1e81f0b83610ae1565b155b15610aa0576000611a1461054d565b6008811115611a1f57fe5b1415611a7157600b54611a3690839060ff16610991565b611a6c576040517f08c379a00000000000000000000000000000000000000000000000000000000081526004016107a190612499565b610aa0565b6001611a7b61054d565b6008811115611a8657fe5b1415611ada5773ffffffffffffffffffffffffffffffffffffffff821615611a6c576040517f08c379a00000000000000000000000000000000000000000000000000000000081526004016107a19061269d565bfe5b60006107318373ffffffffffffffffffffffffffffffffffffffff8416611c7e565b600082821115611b3a576040517f08c379a00000000000000000000000000000000000000000000000000000000081526004016107a190612575565b50900390565b81546000908210611b7d576040517f08c379a00000000000000000000000000000000000000000000000000000000081526004016107a1906122ee565b826000018281548110611b8c57fe5b9060005260206000200154905092915050565b5490565b611bac816108fa565b6002611bb661054d565b6008811115611bc157fe5b106108fa57fe5b6060611c2a826040518060400160405280602081526020017f5361666545524332303a206c6f772d6c6576656c2063616c6c206661696c65648152508573ffffffffffffffffffffffffffffffffffffffff16611d629092919063ffffffff16565b805190915015610aa05780806020019051810190611c489190612131565b610aa0576040517f08c379a00000000000000000000000000000000000000000000000000000000081526004016107a1906128ed565b60008181526001830160205260408120548015611d585783547fffffffffffffffffffffffffffffffffffffffffffffffffffffffffffffffff8083019190810190600090879083908110611ccf57fe5b9060005260206000200154905080876000018481548110611cec57fe5b600091825260208083209091019290925582815260018981019092526040902090840190558654879080611d1c57fe5b60019003818190600052602060002001600090559055866001016000878152602001908152602001600020600090556001945050505050610684565b6000915050610684565b6060611d718484600085611d79565b949350505050565b606082471015611db5576040517f08c379a00000000000000000000000000000000000000000000000000000000081526004016107a1906125ac565b611dbe85611e7b565b611df4576040517f08c379a00000000000000000000000000000000000000000000000000000000081526004016107a1906128b6565b600060608673ffffffffffffffffffffffffffffffffffffffff168587604051611e1e91906121e2565b60006040518083038185875af1925050503d8060008114611e5b576040519150601f19603f3d011682016040523d82523d6000602084013e611e60565b606091505b5091509150611e70828286611e81565b979650505050505050565b3b151590565b60608315611e90575081610731565b825115611ea05782518084602001fd5b816040517f08c379a00000000000000000000000000000000000000000000000000000000081526004016107a1919061229d565b803561068481612a95565b600060208284031215611ef0578081fd5b813561073181612a95565b60008060408385031215611f0d578081fd5b8235611f1881612a95565b91506020830135611f2881612a95565b809150509250929050565b600080600060608486031215611f47578081fd5b8335611f5281612a95565b92506020840135611f6281612a95565b929592945050506040919091013590565b60008060408385031215611f85578182fd5b8235611f9081612a95565b91506020830135611f2881612ab7565b60008060408385031215611fb2578182fd5b8235611fbd81612a95565b946020939093013593505050565b60008060408385031215611fdd578182fd5b823567ffffffffffffffff80821115611ff4578384fd5b818501915085601f830112612007578384fd5b813581811115612015578485fd5b60209150818102612027838201612a34565b8281528381019085850183870186018b1015612041578889fd5b8896505b8487101561206b576120578b82611ed4565b835260019690960195918501918501612045565b509997909301359750505050505050565b600080610120838503121561208f578182fd5b6101008301848111156120a0578283fd5b83925035611f2881612ab7565b60008061012083850312156120c0578182fd5b83601f8401126120ce578182fd5b6101006120da81612a34565b908401908085878411156120ec578586fd5b855b600881101561211f57813563ffffffff8116811461210a578788fd5b845260209384019391909101906001016120ee565b509094505090359050611f2881612ac4565b600060208284031215612142578081fd5b81518015158114610731578182fd5b600060208284031215612162578081fd5b5035919050565b6000806040838503121561217b578182fd5b823591506020830135611f2881612a95565b6000806040838503121561219f578182fd5b50508035926020909101359150565b6000602082840312156121bf578081fd5b5051919050565b6000602082840312156121d7578081fd5b813561073181612ac4565b600082516121f4818460208701612a5b565b9190910192915050565b73ffffffffffffffffffffffffffffffffffffffff91909116815260200190565b73ffffffffffffffffffffffffffffffffffffffff929092168252602082015260400190565b60408101818360005b600281101561226d57815183526020928301929091019060010161224e565b50505092915050565b901515815260200190565b90815260200190565b6020810161229783612a8b565b91905290565b60006020825282518060208401526122bc816040850160208701612a5b565b601f017fffffffffffffffffffffffffffffffffffffffffffffffffffffffffffffffe0169190910160400192915050565b60208082526022908201527f456e756d657261626c655365743a20696e646578206f7574206f6620626f756e60408201527f6473000000000000000000000000000000000000000000000000000000000000606082015260800190565b60208082526023908201527f45524332303a207472616e7366657220746f20746865207a65726f206164647260408201527f6573730000000000000000000000000000000000000000000000000000000000606082015260800190565b6020808252602f908201527f416363657373436f6e74726f6c3a2073656e646572206d75737420626520616e60408201527f2061646d696e20746f206772616e740000000000000000000000000000000000606082015260800190565b6020808252600f908201527f4e4558545f424c4f434b5f504153540000000000000000000000000000000000604082015260600190565b60208082526022908201527f45524332303a20617070726f766520746f20746865207a65726f20616464726560408201527f7373000000000000000000000000000000000000000000000000000000000000606082015260800190565b60208082526008908201527f4d494e5f54494552000000000000000000000000000000000000000000000000604082015260600190565b6020808252601b908201527f536166654d6174683a206164646974696f6e206f766572666c6f770000000000604082015260600190565b60208082526018908201527f4e4558545f424c4f434b5f554e494e495449414c495a45440000000000000000604082015260600190565b60208082526009908201527f4241445f50484153450000000000000000000000000000000000000000000000604082015260600190565b6020808252601e908201527f536166654d6174683a207375627472616374696f6e206f766572666c6f770000604082015260600190565b60208082526026908201527f416464726573733a20696e73756666696369656e742062616c616e636520666f60408201527f722063616c6c0000000000000000000000000000000000000000000000000000606082015260800190565b6020808252601a908201527f536166654d6174683a206469766973696f6e206279207a65726f000000000000604082015260600190565b60208082526030908201527f416363657373436f6e74726f6c3a2073656e646572206d75737420626520616e60408201527f2061646d696e20746f207265766f6b6500000000000000000000000000000000606082015260800190565b60208082526006908201527f46524f5a454e0000000000000000000000000000000000000000000000000000604082015260600190565b6020808252600f908201527f544f4b454e5f53454e445f53454c460000000000000000000000000000000000604082015260600190565b60208082526021908201527f536166654d6174683a206d756c7469706c69636174696f6e206f766572666c6f60408201527f7700000000000000000000000000000000000000000000000000000000000000606082015260800190565b60208082526021908201527f45524332303a206275726e2066726f6d20746865207a65726f2061646472657360408201527f7300000000000000000000000000000000000000000000000000000000000000606082015260800190565b60208082526025908201527f45524332303a207472616e736665722066726f6d20746865207a65726f20616460408201527f6472657373000000000000000000000000000000000000000000000000000000606082015260800190565b6020808252600e908201527f4e4558545f424c4f434b5f534554000000000000000000000000000000000000604082015260600190565b60208082526024908201527f45524332303a20617070726f76652066726f6d20746865207a65726f2061646460408201527f7265737300000000000000000000000000000000000000000000000000000000606082015260800190565b6020808252601d908201527f416464726573733a2063616c6c20746f206e6f6e2d636f6e7472616374000000604082015260600190565b6020808252602a908201527f5361666545524332303a204552433230206f7065726174696f6e20646964206e60408201527f6f74207375636365656400000000000000000000000000000000000000000000606082015260800190565b60208082526017908201527f4f4e4c595f4449535452494255544f525f4255524e4552000000000000000000604082015260600190565b6020808252601f908201527f5265656e7472616e637947756172643a207265656e7472616e742063616c6c00604082015260600190565b6020808252602f908201527f416363657373436f6e74726f6c3a2063616e206f6e6c792072656e6f756e636560408201527f20726f6c657320666f722073656c660000000000000000000000000000000000606082015260800190565b63ffffffff91909116815260200190565b60ff91909116815260200190565b60405181810167ffffffffffffffff81118282101715612a5357600080fd5b604052919050565b60005b83811015612a76578181015183820152602001612a5e565b83811115612a85576000848401525b50505050565b600981106108fa57fe5b73ffffffffffffffffffffffffffffffffffffffff811681146108fa57600080fd5b600981106108fa57600080fd5b63ffffffff811681146108fa57600080fdfe45524332303a206275726e20616d6f756e7420657863656564732062616c616e636545524332303a207472616e7366657220616d6f756e7420657863656564732062616c616e636545524332303a207472616e7366657220616d6f756e74206578636565647320616c6c6f77616e636545524332303a206275726e20616d6f756e74206578636565647320616c6c6f77616e636545524332303a2064656372656173656420616c6c6f77616e63652062656c6f77207a65726fa2646970667358221220ca7826192d927d2f82ef7df37fae32feab083bdad9c783861848a8b5e6c05bd164736f6c634300060c0033cf2b1209506b76f140fb1bc5fe66d6e42627c4b9703a951d65552f50f14c9ee794201143cc0a32610f14f8f185ebb23e4ca60f1758e49668647d0879b1e81f0ba26469706673582212209ceee84a7a834a0baaeb88349cb9e315ab8e2d9c4d1e1b85c282850a2dfb4e2064736f6c634300060c0033",
  "linkReferences": {},
  "deployedLinkReferences": {}
}