{
  "address": "0xa018eAB945De7e8073d1995284b78FC0cfE45B76",
  "abi": [
    {
      "inputs": [],
      "stateMutability": "nonpayable",
      "type": "constructor"
    },
    {
      "anonymous": false,
      "inputs": [
        {
          "indexed": false,
          "internalType": "address",
          "name": "sender",
          "type": "address"
        },
        {
          "indexed": false,
          "internalType": "address",
          "name": "implementation",
          "type": "address"
        }
      ],
      "name": "Implementation",
      "type": "event"
    },
    {
      "anonymous": false,
      "inputs": [
        {
          "indexed": false,
          "internalType": "address",
          "name": "sender",
          "type": "address"
        },
        {
          "indexed": false,
          "internalType": "address",
          "name": "child",
          "type": "address"
        }
      ],
      "name": "NewChild",
      "type": "event"
    },
    {
      "inputs": [
        {
          "internalType": "bytes",
          "name": "data_",
          "type": "bytes"
        }
      ],
      "name": "createChild",
      "outputs": [
        {
          "internalType": "address",
          "name": "",
          "type": "address"
        }
      ],
      "stateMutability": "nonpayable",
      "type": "function"
    },
    {
      "inputs": [
        {
          "components": [
            {
              "internalType": "contract IERC721",
              "name": "erc721",
              "type": "address"
            },
            {
              "internalType": "uint256[8]",
              "name": "tierValues",
              "type": "uint256[8]"
            }
          ],
          "internalType": "struct ERC721BalanceTierConfig",
          "name": "config_",
          "type": "tuple"
        }
      ],
      "name": "createChildTyped",
      "outputs": [
        {
          "internalType": "contract ERC721BalanceTier",
          "name": "",
          "type": "address"
        }
      ],
      "stateMutability": "nonpayable",
      "type": "function"
    },
    {
      "inputs": [
        {
          "internalType": "address",
          "name": "maybeChild_",
          "type": "address"
        }
      ],
      "name": "isChild",
      "outputs": [
        {
          "internalType": "bool",
          "name": "",
          "type": "bool"
        }
      ],
      "stateMutability": "view",
      "type": "function"
    }
  ],
  "transactionHash": "0x7c5b1195dde4e6ecf6d1e41714cf0b73a9f7d6fcb55a91247039525511737981",
  "args": [],
  "numDeployments": 1,
  "solcInputHash": "51f8c0eb364ac8ebbc6da111363b0c63",
  "bytecode": "0x608060405234801561001057600080fd5b5060016000908155604051610024906100aa565b604051809103906000f080158015610040573d6000803e3d6000fd5b50604080513381526001600160a01b03831660208201529192507f7fac34ecf0b1b374cd9659e3d17db602659d53f1162b1f20142e6c02694aed70910160405180910390a1600280546001600160a01b0319166001600160a01b03929092169190911790556100b7565b610d438061086b83390190565b6107a5806100c66000396000f3fe608060405234801561001057600080fd5b50600436106100415760003560e01c80632ea72a4914610046578063ab43ea1f14610083578063fc91a89714610096575b600080fd5b6100596100543660046104d9565b6100df565b60405173ffffffffffffffffffffffffffffffffffffffff90911681526020015b60405180910390f35b6100596100913660046105c9565b61028d565b6100cf6100a4366004610667565b73ffffffffffffffffffffffffffffffffffffffff1660009081526001602052604090205460ff1690565b604051901515815260200161007a565b600060026000541415610153576040517f08c379a000000000000000000000000000000000000000000000000000000000815260206004820152601f60248201527f5265656e7472616e637947756172643a207265656e7472616e742063616c6c0060448201526064015b60405180910390fd5b600260009081556101648484610330565b73ffffffffffffffffffffffffffffffffffffffff811660009081526001602052604090205490915060ff16156101f7576040517f08c379a000000000000000000000000000000000000000000000000000000000815260206004820152600f60248201527f4455504c49434154455f4348494c440000000000000000000000000000000000604482015260640161014a565b73ffffffffffffffffffffffffffffffffffffffff811660008181526001602081815260409283902080547fffffffffffffffffffffffffffffffffffffffffffffffffffffffffffffff00169092179091558151338152908101929092527f7da70c4e5387d7038610b79ca7d304caaef815826e51e67cf247135387a79bce910160405180910390a160016000559392505050565b60003073ffffffffffffffffffffffffffffffffffffffff16632ea72a49836040516020016102bc919061068b565b6040516020818303038152906040526040518263ffffffff1660e01b81526004016102e791906106df565b6020604051808303816000875af1158015610306573d6000803e3d6000fd5b505050506040513d601f19601f8201168201806040525081019061032a9190610752565b92915050565b60008061033f838501856105c9565b6002549091506000906103679073ffffffffffffffffffffffffffffffffffffffff166103f7565b6040517fa61e331500000000000000000000000000000000000000000000000000000000815290915073ffffffffffffffffffffffffffffffffffffffff82169063a61e3315906103bc90859060040161068b565b600060405180830381600087803b1580156103d657600080fd5b505af11580156103ea573d6000803e3d6000fd5b5092979650505050505050565b60006040517f3d602d80600a3d3981f3363d3d373d3d3d363d7300000000000000000000000081528260601b60148201527f5af43d82803e903d91602b57fd5bf3000000000000000000000000000000000060288201526037816000f091505073ffffffffffffffffffffffffffffffffffffffff81166104d4576040517f08c379a000000000000000000000000000000000000000000000000000000000815260206004820152601660248201527f455243313136373a20637265617465206661696c656400000000000000000000604482015260640161014a565b919050565b600080602083850312156104ec57600080fd5b823567ffffffffffffffff8082111561050457600080fd5b818501915085601f83011261051857600080fd5b81358181111561052757600080fd5b86602082850101111561053957600080fd5b60209290920196919550909350505050565b7f4e487b7100000000000000000000000000000000000000000000000000000000600052604160045260246000fd5b604051610100810167ffffffffffffffff8111828210171561059e5761059e61054b565b60405290565b73ffffffffffffffffffffffffffffffffffffffff811681146105c657600080fd5b50565b60006101208083850312156105dd57600080fd5b6040516040810181811067ffffffffffffffff821117156106005761060061054b565b604052833561060e816105a4565b81526020603f8501861361062157600080fd5b61062961057a565b92850192808785111561063b57600080fd5b8287015b85811015610656578035835291830191830161063f565b509183019190915250949350505050565b60006020828403121561067957600080fd5b8135610684816105a4565b9392505050565b815173ffffffffffffffffffffffffffffffffffffffff1681526020808301516101208301919081840160005b60088110156106d5578251825291830191908301906001016106b8565b5050505092915050565b600060208083528351808285015260005b8181101561070c578581018301518582016040015282016106f0565b8181111561071e576000604083870101525b50601f017fffffffffffffffffffffffffffffffffffffffffffffffffffffffffffffffe016929092016040019392505050565b60006020828403121561076457600080fd5b8151610684816105a456fea2646970667358221220209ec87fa7760f5db49683456a8ed70339b85afc804f2bec8876158245ded64664736f6c634300080a0033608060405234801561001057600080fd5b50610d23806100206000396000f3fe608060405234801561001057600080fd5b50600436106100675760003560e01c8063a61e331511610050578063a61e33151461009f578063bca6ce64146100b2578063e053ea31146100f757600080fd5b806370230b391461006c5780638a200fff1461008a575b600080fd5b610074610118565b60405161008191906108e8565b60405180910390f35b61009d61009836600461093f565b61015a565b005b61009d6100ad366004610a21565b6101c1565b6001546100d29073ffffffffffffffffffffffffffffffffffffffff1681565b60405173ffffffffffffffffffffffffffffffffffffffff9091168152602001610081565b61010a610105366004610abf565b6103be565b604051908152602001610081565b6101206108c9565b6000546101429073ffffffffffffffffffffffffffffffffffffffff16610474565b8060200190518101906101559190610adc565b905090565b6040517f08c379a000000000000000000000000000000000000000000000000000000000815260206004820152600860248201527f5345545f5449455200000000000000000000000000000000000000000000000060448201526064015b60405180910390fd5b6000547501000000000000000000000000000000000000000000900460ff166102085760005474010000000000000000000000000000000000000000900460ff161561020c565b303b155b610298576040517f08c379a000000000000000000000000000000000000000000000000000000000815260206004820152602e60248201527f496e697469616c697a61626c653a20636f6e747261637420697320616c72656160448201527f647920696e697469616c697a656400000000000000000000000000000000000060648201526084016101b8565b6000547501000000000000000000000000000000000000000000900460ff161580156102ff57600080547fffffffffffffffffffff0000ffffffffffffffffffffffffffffffffffffffff1675010100000000000000000000000000000000000000001790555b61030c82602001516104a2565b8151600180547fffffffffffffffffffffffff00000000000000000000000000000000000000001673ffffffffffffffffffffffffffffffffffffffff90921691821790556040805133815260208101929092527fdc90fed0326ba91706deeac7eb34ac9f8b680734f9d782864dc29704d23bed6a910160405180910390a180156103ba57600080547fffffffffffffffffffff00ffffffffffffffffffffffffffffffffffffffffff1690555b5050565b600061046e60006104696103d0610118565b6001546040517f70a0823100000000000000000000000000000000000000000000000000000000815273ffffffffffffffffffffffffffffffffffffffff8881166004830152909116906370a0823190602401602060405180830381865afa158015610440573d6000803e3d6000fd5b505050506040513d601f19601f820116820180604052508101906104649190610b3d565b61063b565b610689565b92915050565b606061046e8260017fffffffffffffffffffffffffffffffffffffffffffffffffffffffffffffffff610729565b60005473ffffffffffffffffffffffffffffffffffffffff16156104c8576104c8610b56565b6000805b600881101561057657818382600881106104e8576104e8610b85565b60200201511015610555576040517f08c379a000000000000000000000000000000000000000000000000000000000815260206004820152601860248201527f4f55545f4f465f4f524445525f544945525f56414c554553000000000000000060448201526064016101b8565b82816008811061056757610567610b85565b602002015191506001016104cc565b505060006105a28260405160200161058e91906108e8565b604051602081830303815290604052610812565b6040805133815273ffffffffffffffffffffffffffffffffffffffff831660208201529192507f18ebb958e85030233374c8eb79c1a72ee418770db7fb47a7de05d30c868ec958910160405180910390a1600080547fffffffffffffffffffffffff00000000000000000000000000000000000000001673ffffffffffffffffffffffffffffffffffffffff9290921691909117905550565b6000805b600881101561067f5783816008811061065a5761065a610b85565b602002015183101561066d57905061046e565b8061067781610bb4565b91505061063f565b5060089392505050565b60008160088111156106f7576040517f08c379a000000000000000000000000000000000000000000000000000000000815260206004820152600860248201527f4d41585f5449455200000000000000000000000000000000000000000000000060448201526064016101b8565b50507fffffffffffffffffffffffffffffffffffffffffffffffffffffffffffffffff60209190910290811c901b1790565b6060833b8061074857505060408051602081019091526000815261080b565b8084111561076657505060408051602081019091526000815261080b565b838310156107b1576040517f2c4a89fa0000000000000000000000000000000000000000000000000000000081526004810182905260248101859052604481018490526064016101b8565b83830384820360008282106107c657826107c8565b815b60408051603f83017fffffffffffffffffffffffffffffffffffffffffffffffffffffffffffffffe0168101909152818152955090508087602087018a3c505050505b9392505050565b60008061083d836040516020016108299190610c4f565b60405160208183030381529060405261089d565b90508051602082016000f0915073ffffffffffffffffffffffffffffffffffffffff8216610897576040517f08d4abb600000000000000000000000000000000000000000000000000000000815260040160405180910390fd5b50919050565b60608151826040516020016108b3929190610c62565b6040516020818303038152906040529050919050565b6040518061010001604052806008906020820280368337509192915050565b6101008101818360005b60088110156109115781518352602092830192909101906001016108f2565b50505092915050565b73ffffffffffffffffffffffffffffffffffffffff8116811461093c57600080fd5b50565b6000806000806060858703121561095557600080fd5b84356109608161091a565b935060208501359250604085013567ffffffffffffffff8082111561098457600080fd5b818701915087601f83011261099857600080fd5b8135818111156109a757600080fd5b8860208285010111156109b957600080fd5b95989497505060200194505050565b7f4e487b7100000000000000000000000000000000000000000000000000000000600052604160045260246000fd5b604051610100810167ffffffffffffffff81118282101715610a1b57610a1b6109c8565b60405290565b6000610120808385031215610a3557600080fd5b6040516040810181811067ffffffffffffffff82111715610a5857610a586109c8565b6040528335610a668161091a565b81526020603f85018613610a7957600080fd5b610a816109f7565b928501928087851115610a9357600080fd5b8287015b85811015610aae5780358352918301918301610a97565b509183019190915250949350505050565b600060208284031215610ad157600080fd5b813561080b8161091a565b6000610100808385031215610af057600080fd5b83601f840112610aff57600080fd5b610b076109f7565b908301908085831115610b1957600080fd5b845b83811015610b33578051835260209283019201610b1b565b5095945050505050565b600060208284031215610b4f57600080fd5b5051919050565b7f4e487b7100000000000000000000000000000000000000000000000000000000600052600160045260246000fd5b7f4e487b7100000000000000000000000000000000000000000000000000000000600052603260045260246000fd5b60007fffffffffffffffffffffffffffffffffffffffffffffffffffffffffffffffff821415610c0d577f4e487b7100000000000000000000000000000000000000000000000000000000600052601160045260246000fd5b5060010190565b6000815160005b81811015610c355760208185018101518683015201610c1b565b81811115610c44576000828601525b509290920192915050565b60008152600061080b6001830184610c14565b7f630000000000000000000000000000000000000000000000000000000000000081527fffffffff000000000000000000000000000000000000000000000000000000008360e01b1660018201527f80600e6000396000f3000000000000000000000000000000000000000000000060058201526000610ce5600e830184610c14565b94935050505056fea264697066735822122004bdfaa709e0710cf4d55d305bc8a4895c540e85df7d66bb36040a9389f38d7564736f6c634300080a0033",
  "devdoc": {
    "kind": "dev",
    "methods": {
      "createChild(bytes)": {
        "params": {
          "data_": "Encoded data to pass down to child contract constructor."
        },
        "returns": {
          "_0": "New child contract address."
        }
      },
      "createChildTyped((address,uint256[8]))": {
        "params": {
          "config_": "Constructor config for `ERC721BalanceTier`."
        },
        "returns": {
          "_0": "New `ERC721BalanceTier` child contract address."
        }
      },
      "isChild(address)": {
        "params": {
          "maybeChild_": "Address of child contract to look up."
        },
        "returns": {
          "_0": "Returns `true` if address is a contract created by this contract factory, otherwise `false`."
        }
      }
    },
    "title": "ERC721BalanceTierFactory",
    "version": 1
  },
  "userdoc": {
    "events": {
      "Implementation(address,address)": {
        "notice": "Factories that clone a template contract MUST emit an event any time they set the implementation being cloned. Factories that deploy new contracts without cloning do NOT need to emit this."
      },
      "NewChild(address,address)": {
        "notice": "Whenever a new child contract is deployed, a `NewChild` event containing the new child contract address MUST be emitted."
      }
    },
    "kind": "user",
    "methods": {
      "createChild(bytes)": {
        "notice": "Implements `IFactory`. Calls the `_createChild` hook that inheriting contracts must override. Registers child contract address such that `isChild` is `true`. Emits `NewChild` event."
      },
      "createChildTyped((address,uint256[8]))": {
        "notice": "Typed wrapper for `createChild` with `ERC721BalanceTierConfig`. Use original `Factory` `createChild` function signature if function parameters are already encoded."
      },
      "isChild(address)": {
        "notice": "Implements `IFactory`. Checks if address is registered as a child contract of this factory."
      }
    },
    "notice": "Factory for creating and deploying `ERC721BalanceTier` contracts.",
    "version": 1
  },
  "storageLayout": {
    "storage": [
      {
        "astId": 3818,
        "contract": "contracts/tier/ERC721BalanceTierFactory.sol:ERC721BalanceTierFactory",
        "label": "_status",
        "offset": 0,
        "slot": "0",
        "type": "t_uint256"
      },
      {
        "astId": 10061,
        "contract": "contracts/tier/ERC721BalanceTierFactory.sol:ERC721BalanceTierFactory",
        "label": "contracts",
        "offset": 0,
        "slot": "1",
        "type": "t_mapping(t_address,t_bool)"
      },
      {
        "astId": 17940,
        "contract": "contracts/tier/ERC721BalanceTierFactory.sol:ERC721BalanceTierFactory",
        "label": "implementation",
        "offset": 0,
        "slot": "2",
        "type": "t_address"
      }
    ],
    "types": {
      "t_address": {
        "encoding": "inplace",
        "label": "address",
        "numberOfBytes": "20"
      },
      "t_bool": {
        "encoding": "inplace",
        "label": "bool",
        "numberOfBytes": "1"
      },
      "t_mapping(t_address,t_bool)": {
        "encoding": "mapping",
        "key": "t_address",
        "label": "mapping(address => bool)",
        "numberOfBytes": "32",
        "value": "t_bool"
      },
      "t_uint256": {
        "encoding": "inplace",
        "label": "uint256",
        "numberOfBytes": "32"
      }
    }
  }
}