{
  "_format": "hh-sol-artifact-1",
  "contractName": "RedeemableERC20Pool",
  "sourceName": "contracts/pool/RedeemableERC20Pool.sol",
  "abi": [
    {
      "inputs": [
        {
          "components": [
            {
              "internalType": "address",
              "name": "crpFactory",
              "type": "address"
            },
            {
              "internalType": "address",
              "name": "balancerFactory",
              "type": "address"
            },
            {
              "internalType": "contract IERC20",
              "name": "reserve",
              "type": "address"
            },
            {
              "internalType": "contract RedeemableERC20",
              "name": "token",
              "type": "address"
            },
            {
              "internalType": "uint256",
              "name": "reserveInit",
              "type": "uint256"
            },
            {
              "internalType": "uint256",
              "name": "initialValuation",
              "type": "uint256"
            },
            {
              "internalType": "uint256",
              "name": "finalValuation",
              "type": "uint256"
            },
            {
              "internalType": "uint256",
              "name": "minimumTradingDuration",
              "type": "uint256"
            }
          ],
          "internalType": "struct RedeemableERC20PoolConfig",
          "name": "config_",
          "type": "tuple"
        }
      ],
      "stateMutability": "nonpayable",
      "type": "constructor"
    },
    {
      "anonymous": false,
      "inputs": [
        {
          "indexed": true,
          "internalType": "address",
          "name": "previousOwner",
          "type": "address"
        },
        {
          "indexed": true,
          "internalType": "address",
          "name": "newOwner",
          "type": "address"
        }
      ],
      "name": "OwnershipTransferred",
      "type": "event"
    },
    {
      "anonymous": false,
      "inputs": [
        {
          "indexed": true,
          "internalType": "uint32",
          "name": "newPhaseBlock_",
          "type": "uint32"
        }
      ],
      "name": "PhaseShiftScheduled",
      "type": "event"
    },
    {
      "inputs": [],
      "name": "MIN_BALANCER_POOL_BALANCE",
      "outputs": [
        {
          "internalType": "uint256",
          "name": "",
          "type": "uint256"
        }
      ],
      "stateMutability": "view",
      "type": "function"
    },
    {
      "inputs": [],
      "name": "MIN_RESERVE_INIT",
      "outputs": [
        {
          "internalType": "uint256",
          "name": "",
          "type": "uint256"
        }
      ],
      "stateMutability": "view",
      "type": "function"
    },
    {
      "inputs": [],
      "name": "UNINITIALIZED",
      "outputs": [
        {
          "internalType": "uint32",
          "name": "",
          "type": "uint32"
        }
      ],
      "stateMutability": "view",
      "type": "function"
    },
    {
      "inputs": [
        {
          "internalType": "uint32[8]",
          "name": "phaseBlocks_",
          "type": "uint32[8]"
        },
        {
          "internalType": "enum Phase",
          "name": "phase_",
          "type": "uint8"
        }
      ],
      "name": "blockNumberForPhase",
      "outputs": [
        {
          "internalType": "uint32",
          "name": "",
          "type": "uint32"
        }
      ],
      "stateMutability": "pure",
      "type": "function"
    },
    {
      "inputs": [],
      "name": "crp",
      "outputs": [
        {
          "internalType": "contract IConfigurableRightsPool",
          "name": "",
          "type": "address"
        }
      ],
      "stateMutability": "view",
      "type": "function"
    },
    {
      "inputs": [],
      "name": "currentPhase",
      "outputs": [
        {
          "internalType": "enum Phase",
          "name": "",
          "type": "uint8"
        }
      ],
      "stateMutability": "view",
      "type": "function"
    },
    {
      "inputs": [],
      "name": "finalValuation",
      "outputs": [
        {
          "internalType": "uint256",
          "name": "",
          "type": "uint256"
        }
      ],
      "stateMutability": "view",
      "type": "function"
    },
    {
      "inputs": [],
      "name": "finalWeight",
      "outputs": [
        {
          "internalType": "uint256",
          "name": "",
          "type": "uint256"
        }
      ],
      "stateMutability": "view",
      "type": "function"
    },
    {
      "inputs": [],
      "name": "minimumTradingDuration",
      "outputs": [
        {
          "internalType": "uint256",
          "name": "",
          "type": "uint256"
        }
      ],
      "stateMutability": "view",
      "type": "function"
    },
    {
      "inputs": [],
      "name": "owner",
      "outputs": [
        {
          "internalType": "address",
          "name": "",
          "type": "address"
        }
      ],
      "stateMutability": "view",
      "type": "function"
    },
    {
      "inputs": [],
      "name": "ownerEndDutchAuction",
      "outputs": [],
      "stateMutability": "nonpayable",
      "type": "function"
    },
    {
      "inputs": [
        {
          "internalType": "uint32[8]",
          "name": "phaseBlocks_",
          "type": "uint32[8]"
        },
        {
          "internalType": "uint32",
          "name": "blockNumber_",
          "type": "uint32"
        }
      ],
      "name": "phaseAtBlockNumber",
      "outputs": [
        {
          "internalType": "enum Phase",
          "name": "",
          "type": "uint8"
        }
      ],
      "stateMutability": "pure",
      "type": "function"
    },
    {
      "inputs": [
        {
          "internalType": "uint256",
          "name": "",
          "type": "uint256"
        }
      ],
      "name": "phaseBlocks",
      "outputs": [
        {
          "internalType": "uint32",
          "name": "",
          "type": "uint32"
        }
      ],
      "stateMutability": "view",
      "type": "function"
    },
    {
      "inputs": [],
      "name": "renounceOwnership",
      "outputs": [],
      "stateMutability": "nonpayable",
      "type": "function"
    },
    {
      "inputs": [],
      "name": "reserve",
      "outputs": [
        {
          "internalType": "contract IERC20",
          "name": "",
          "type": "address"
        }
      ],
      "stateMutability": "view",
      "type": "function"
    },
    {
      "inputs": [],
      "name": "reserveInit",
      "outputs": [
        {
          "internalType": "uint256",
          "name": "",
          "type": "uint256"
        }
      ],
      "stateMutability": "view",
      "type": "function"
    },
    {
      "inputs": [],
      "name": "startDutchAuction",
      "outputs": [],
      "stateMutability": "nonpayable",
      "type": "function"
    },
    {
      "inputs": [],
      "name": "token",
      "outputs": [
        {
          "internalType": "contract RedeemableERC20",
          "name": "",
          "type": "address"
        }
      ],
      "stateMutability": "view",
      "type": "function"
    },
    {
      "inputs": [
        {
          "internalType": "address",
          "name": "newOwner",
          "type": "address"
        }
      ],
      "name": "transferOwnership",
      "outputs": [],
      "stateMutability": "nonpayable",
      "type": "function"
    }
  ],
  "bytecode": "0x6101606040523480156200001257600080fd5b50604051620029d7380380620029d7833981016040819052620000359162000917565b62000040336200078f565b60005b6008811015620000a75763ffffffff60018260088110620000685762000068620009da565b600891828204019190066004026101000a81548163ffffffff021916908363ffffffff16021790555080806200009e9062000a06565b91505062000043565b506305f5e10081608001511015620001065760405162461bcd60e51b815260206004820152601460248201527f524553455256455f494e49545f4d494e494d554d00000000000000000000000060448201526064015b60405180910390fd5b8060c001518160a001511015620001605760405162461bcd60e51b815260206004820152601460248201527f4d494e5f494e495449414c5f56414c5554494f4e0000000000000000000000006044820152606401620000fd565b60608101516001600160a01b039081166080908152604083015190911660c0908152908201805160e05251908201516200019b9190620007df565b6101205260c08101516101405260e0810151620001f05760405162461bcd60e51b8152602060048201526012602482015271182faa2920a224a723afa22aa920aa24a7a760711b6044820152606401620000fd565b60e081015160a052604080516002808252606082018352600092602083019080368337019050509050816040015181600081518110620002345762000234620009da565b60200260200101906001600160a01b031690816001600160a01b0316815250508160600151816001815181106200026f576200026f620009da565b6001600160a01b03929092166020928302919091018201526040805160028082526060820183526000939192909183019080368337019050509050826080015181600081518110620002c557620002c5620009da565b60200260200101818152505082606001516001600160a01b03166318160ddd6040518163ffffffff1660e01b8152600401602060405180830381865afa15801562000314573d6000803e3d6000fd5b505050506040513d601f19601f820116820180604052508101906200033a919062000a24565b81600181518110620003505762000350620009da565b602002602001018181525050600081600181518110620003745762000374620009da565b602002602001015111620003ba5760405162461bcd60e51b815260206004820152600c60248201526b0544f4b454e5f494e49545f360a41b6044820152606401620000fd565b604080516002808252606082018352600092602083019080368337019050509050670de0b6b3a764000081600081518110620003fa57620003fa620009da565b6020026020010181815250506200042084608001518560a00151620007df60201b60201c565b81600181518110620004365762000436620009da565b602002602001018181525050600084600001516001600160a01b0316634420002b86602001516040518060c00160405280604051806040016040528060048152602001630523230560e41b81525081526020016040518060400160405280601381526020017f52656465656d61626c654552433230506f6f6c000000000000000000000000008152508152602001888152602001878152602001868152602001620f4240670de0b6b3a7640000620004ef919062000a3e565b90526040805160c081018252600080825260208201819052600182840181905260608301829052608083015260a082015290516001600160e01b031960e086901b168152620005449392919060040162000aee565b6020604051808303816000875af115801562000564573d6000803e3d6000fd5b505050506040513d601f19601f820116820180604052508101906200058a919062000c30565b6001600160a01b0381811661010081905260408881015160808a0151915163095ea7b360e01b81526004810193909352602483019190915292935091169063095ea7b3906044016020604051808303816000875af1158015620005f1573d6000803e3d6000fd5b505050506040513d601f19601f8201168201806040525081019062000617919062000c50565b620006575760405162461bcd60e51b815260206004820152600f60248201526e524553455256455f415050524f564560881b6044820152606401620000fd565b84606001516001600160a01b031663095ea7b38287606001516001600160a01b03166318160ddd6040518163ffffffff1660e01b8152600401602060405180830381865afa158015620006ae573d6000803e3d6000fd5b505050506040513d601f19601f82011682018060405250810190620006d4919062000a24565b6040516001600160e01b031960e085901b1681526001600160a01b03909216600483015260248201526044016020604051808303816000875af115801562000720573d6000803e3d6000fd5b505050506040513d601f19601f8201168201806040525081019062000746919062000c50565b620007845760405162461bcd60e51b815260206004820152600d60248201526c544f4b454e5f415050524f564560981b6044820152606401620000fd565b505050505062000ccb565b600080546001600160a01b038381166001600160a01b0319831681178455604051919092169283917f8be0079c531659141344cd1fd0a4f28419497f9722a3daafe3b4186f6b6457e09190a35050565b60008083620007f7670de0b6b3a76400008562000c74565b62000803919062000a3e565b9050670de0b6b3a76400008110156200085f5760405162461bcd60e51b815260206004820152601460248201527f4d494e5f5745494748545f56414c554154494f4e0000000000000000000000006044820152606401620000fd565b6200087381670de0b6b3a764000062000c96565b670de0b6b3a76400006200088981603262000c74565b62000895919062000cb1565b1015620008e55760405162461bcd60e51b815260206004820152601460248201527f4d41585f5745494748545f56414c554154494f4e0000000000000000000000006044820152606401620000fd565b9392505050565b6001600160a01b03811681146200090257600080fd5b50565b80516200091281620008ec565b919050565b60006101008083850312156200092c57600080fd5b604051908101906001600160401b03821181831017156200095d57634e487b7160e01b600052604160045260246000fd5b816040526200096c8462000905565b81526200097c6020850162000905565b60208201526200098f6040850162000905565b6040820152620009a26060850162000905565b60608201526080840151608082015260a084015160a082015260c084015160c082015260e084015160e0820152809250505092915050565b634e487b7160e01b600052603260045260246000fd5b634e487b7160e01b600052601160045260246000fd5b600060001982141562000a1d5762000a1d620009f0565b5060010190565b60006020828403121562000a3757600080fd5b5051919050565b60008262000a5c57634e487b7160e01b600052601260045260246000fd5b500490565b6000815180845260005b8181101562000a895760208185018101518683018201520162000a6b565b8181111562000a9c576000602083870101525b50601f01601f19169290920160200192915050565b600081518084526020808501945080840160005b8381101562000ae35781518752958201959082019060010162000ac5565b509495945050505050565b600061010060018060a01b03808716845260208281860152865160c08487015262000b1e6101c087018262000a61565b9350508087015160ff19808786030161012088015262000b3f858362000a61565b60408a015188820383016101408a01528051808352908501965060009350908401905b8084101562000b865786518616825295840195600193909301929084019062000b62565b5060608a01519550818882030161016089015262000ba5818762000ab1565b95505060808901519350808786030161018088015250505062000bc9828262000ab1565b60a08701516101a0860152925062000c28915050604083018480511515825260208101511515602083015260408101511515604083015260608101511515606083015260808101511515608083015260a0810151151560a08301525050565b949350505050565b60006020828403121562000c4357600080fd5b8151620008e581620008ec565b60006020828403121562000c6357600080fd5b81518015158114620008e557600080fd5b600081600019048311821515161562000c915762000c91620009f0565b500290565b6000821982111562000cac5762000cac620009f0565b500190565b60008282101562000cc65762000cc6620009f0565b500390565b60805160a05160c05160e051610100516101205161014051611c5d62000d7a60003960006102710152600081816101ae01526106890152600081816101e8015281816106dd015281816107ca0152818161098901528181610b120152610cc2015260006102e601526000818161030d0152818161094d01528181610f040152610f9b01526000818161017901526105fc01526000818161034f01528181610ad60152610dda0152611c5d6000f3fe608060405234801561001057600080fd5b50600436106101515760003560e01c8063715018a6116100cd578063bb06997211610081578063e52ecbfb11610066578063e52ecbfb1461032f578063f2fde38b14610337578063fc0c546a1461034a57600080fd5b8063bb069972146102e1578063cd3293de1461030857600080fd5b80638da5cb5b116100b25780638da5cb5b146102a85780639923c94b146102c6578063b45ba718146102d957600080fd5b8063715018a61461029357806381e45d9a1461029d57600080fd5b80633fd8108e116101245780634ea2cb19116101095780634ea2cb19146102575780636ba85bd6146102625780636d0023471461026c57600080fd5b80633fd8108e146101e357806345bdfa8a1461022f57600080fd5b8063055ad42e1461015657806318fd663f1461017457806324ee2f4d146101a957806334c1df75146101d0575b600080fd5b61015e610371565b60405161016b919061177d565b60405180910390f35b61019b7f000000000000000000000000000000000000000000000000000000000000000081565b60405190815260200161016b565b61019b7f000000000000000000000000000000000000000000000000000000000000000081565b61015e6101de366004611806565b6103dc565b61020a7f000000000000000000000000000000000000000000000000000000000000000081565b60405173ffffffffffffffffffffffffffffffffffffffff909116815260200161016b565b61024261023d36600461189b565b61044c565b60405163ffffffff909116815260200161016b565b61019b6305f5e10081565b61019b620f424081565b61019b7f000000000000000000000000000000000000000000000000000000000000000081565b61029b6104af565b005b61024263ffffffff81565b60005473ffffffffffffffffffffffffffffffffffffffff1661020a565b6102426102d43660046118dd565b610541565b61029b610571565b61019b7f000000000000000000000000000000000000000000000000000000000000000081565b61020a7f000000000000000000000000000000000000000000000000000000000000000081565b61029b61083c565b61029b610345366004611918565b610fc8565b61020a7f000000000000000000000000000000000000000000000000000000000000000081565b604080516101008101918290526000916103d791906001906008908286855b82829054906101000a900463ffffffff1663ffffffff16815260200190600401906020826003010492830192600103820291508084116103905790505050505050436103dc565b905090565b6000805b600881101561043f578381600881106103fb576103fb611935565b602002015163ffffffff168363ffffffff16101561042d578060088111156104255761042561174e565b915050610446565b8061043781611993565b9150506103e0565b5060085b90505b92915050565b6000808260088111156104615761046161174e565b1161046d576000610443565b8260018360088111156104825761048261174e565b61048c91906119cc565b6008811061049c5761049c611935565b60200201602081019061044391906119e3565b60005473ffffffffffffffffffffffffffffffffffffffff163314610535576040517f08c379a000000000000000000000000000000000000000000000000000000000815260206004820181905260248201527f4f776e61626c653a2063616c6c6572206973206e6f7420746865206f776e657260448201526064015b60405180910390fd5b61053f60006110f8565b565b6001816008811061055157600080fd5b60089182820401919006600402915054906101000a900463ffffffff1681565b60008061057c610371565b600881111561058d5761058d61174e565b146105f4576040517f08c379a000000000000000000000000000000000000000000000000000000000815260206004820152600960248201527f4241445f50484153450000000000000000000000000000000000000000000000604482015260640161052c565b6000610620437f00000000000000000000000000000000000000000000000000000000000000006119fe565b905061062b4361116d565b61063e6106398260016119fe565b61116d565b604080516002808252606082018352600092602083019080368337019050509050670de0b6b3a76400008160008151811061067b5761067b611935565b6020026020010181815250507f0000000000000000000000000000000000000000000000000000000000000000816001815181106106bb576106bb611935565b602090810291909101015273ffffffffffffffffffffffffffffffffffffffff7f00000000000000000000000000000000000000000000000000000000000000001663c3391d27610718670de0b6b3a7640000633b9aca00611a16565b6040517fffffffff0000000000000000000000000000000000000000000000000000000060e084901b16815260048101919091526000602482018190526044820152606401600060405180830381600087803b15801561077757600080fd5b505af115801561078b573d6000803e3d6000fd5b50506040517f246bc19b00000000000000000000000000000000000000000000000000000000815273ffffffffffffffffffffffffffffffffffffffff7f000000000000000000000000000000000000000000000000000000000000000016925063246bc19b915061080590849043908790600401611a8e565b600060405180830381600087803b15801561081f57600080fd5b505af1158015610833573d6000803e3d6000fd5b50505050505050565b60005473ffffffffffffffffffffffffffffffffffffffff1633146108bd576040517f08c379a000000000000000000000000000000000000000000000000000000000815260206004820181905260248201527f4f776e61626c653a2063616c6c6572206973206e6f7420746865206f776e6572604482015260640161052c565b6002806108c8610371565b60088111156108d9576108d961174e565b14610940576040517f08c379a000000000000000000000000000000000000000000000000000000000815260206004820152600960248201527f4241445f50484153450000000000000000000000000000000000000000000000604482015260640161052c565b6109494361116d565b60007f000000000000000000000000000000000000000000000000000000000000000073ffffffffffffffffffffffffffffffffffffffff166370a082317f000000000000000000000000000000000000000000000000000000000000000073ffffffffffffffffffffffffffffffffffffffff1663b64ef17b6040518163ffffffff1660e01b8152600401602060405180830381865afa1580156109f2573d6000803e3d6000fd5b505050506040513d601f19601f82011682018060405250810190610a169190611ab3565b6040517fffffffff0000000000000000000000000000000000000000000000000000000060e084901b16815273ffffffffffffffffffffffffffffffffffffffff9091166004820152602401602060405180830381865afa158015610a7f573d6000803e3d6000fd5b505050506040513d601f19601f82011682018060405250810190610aa39190611ad0565b610ab9670de0b6b3a7640000633b9aca00611a16565b610ac690620f4240611a16565b610ad09190611ae9565b905060007f000000000000000000000000000000000000000000000000000000000000000073ffffffffffffffffffffffffffffffffffffffff166370a082317f000000000000000000000000000000000000000000000000000000000000000073ffffffffffffffffffffffffffffffffffffffff1663b64ef17b6040518163ffffffff1660e01b8152600401602060405180830381865afa158015610b7b573d6000803e3d6000fd5b505050506040513d601f19601f82011682018060405250810190610b9f9190611ab3565b6040517fffffffff0000000000000000000000000000000000000000000000000000000060e084901b16815273ffffffffffffffffffffffffffffffffffffffff9091166004820152602401602060405180830381865afa158015610c08573d6000803e3d6000fd5b505050506040513d601f19601f82011682018060405250810190610c2c9190611ad0565b610c42670de0b6b3a7640000633b9aca00611a16565b610c4f90620f4240611a16565b610c599190611ae9565b90506000610c7c82610c768581670de0b6b3a76400006064611a16565b90611385565b6040517f70a0823100000000000000000000000000000000000000000000000000000000815230600482015290915073ffffffffffffffffffffffffffffffffffffffff7f0000000000000000000000000000000000000000000000000000000000000000169063b02f0b7390839083906370a0823190602401602060405180830381865afa158015610d13573d6000803e3d6000fd5b505050506040513d601f19601f82011682018060405250810190610d379190611ad0565b610d4191906119cc565b6040805160028082526060820183529091602083019080368337019050506040518363ffffffff1660e01b8152600401610d7c929190611b24565b600060405180830381600087803b158015610d9657600080fd5b505af1158015610daa573d6000803e3d6000fd5b50506040517f70a082310000000000000000000000000000000000000000000000000000000081523060048201527f000000000000000000000000000000000000000000000000000000000000000073ffffffffffffffffffffffffffffffffffffffff1692506342966c68915082906370a0823190602401602060405180830381865afa158015610e40573d6000803e3d6000fd5b505050506040513d601f19601f82011682018060405250810190610e649190611ad0565b6040518263ffffffff1660e01b8152600401610e8291815260200190565b600060405180830381600087803b158015610e9c57600080fd5b505af1158015610eb0573d6000803e3d6000fd5b50505050610fc2610ed660005473ffffffffffffffffffffffffffffffffffffffff1690565b6040517f70a082310000000000000000000000000000000000000000000000000000000081523060048201527f000000000000000000000000000000000000000000000000000000000000000073ffffffffffffffffffffffffffffffffffffffff16906370a0823190602401602060405180830381865afa158015610f60573d6000803e3d6000fd5b505050506040513d601f19601f82011682018060405250810190610f849190611ad0565b73ffffffffffffffffffffffffffffffffffffffff7f000000000000000000000000000000000000000000000000000000000000000016919061139c565b50505050565b60005473ffffffffffffffffffffffffffffffffffffffff163314611049576040517f08c379a000000000000000000000000000000000000000000000000000000000815260206004820181905260248201527f4f776e61626c653a2063616c6c6572206973206e6f7420746865206f776e6572604482015260640161052c565b73ffffffffffffffffffffffffffffffffffffffff81166110ec576040517f08c379a000000000000000000000000000000000000000000000000000000000815260206004820152602660248201527f4f776e61626c653a206e6577206f776e657220697320746865207a65726f206160448201527f6464726573730000000000000000000000000000000000000000000000000000606482015260840161052c565b6110f5816110f8565b50565b6000805473ffffffffffffffffffffffffffffffffffffffff8381167fffffffffffffffffffffffff0000000000000000000000000000000000000000831681178455604051919092169283917f8be0079c531659141344cd1fd0a4f28419497f9722a3daafe3b4186f6b6457e09190a35050565b8063ffffffff164363ffffffff1611156111e3576040517f08c379a000000000000000000000000000000000000000000000000000000000815260206004820152600f60248201527f4e4558545f424c4f434b5f504153540000000000000000000000000000000000604482015260640161052c565b63ffffffff81811610611252576040517f08c379a000000000000000000000000000000000000000000000000000000000815260206004820152601860248201527f4e4558545f424c4f434b5f554e494e495449414c495a45440000000000000000604482015260640161052c565b600061125c610371565b600881111561126d5761126d61174e565b90506001816008811061128257611282611935565b60088104919091015460079091166004026101000a900463ffffffff90811614611308576040517f08c379a000000000000000000000000000000000000000000000000000000000815260206004820152600e60248201527f4e4558545f424c4f434b5f534554000000000000000000000000000000000000604482015260640161052c565b6113118261142e565b816001826008811061132557611325611935565b600891828204019190066004026101000a81548163ffffffff021916908363ffffffff1602179055508163ffffffff167f260aac5b840edc27b89fdf50e91311a413363a400959466e1049e6d071b8cee260405160405180910390a25050565b6000818310156113955781610443565b5090919050565b6040805173ffffffffffffffffffffffffffffffffffffffff8416602482015260448082018490528251808303909101815260649091019091526020810180517bffffffffffffffffffffffffffffffffffffffffffffffffffffffff167fa9059cbb00000000000000000000000000000000000000000000000000000000179052611429908490611456565b505050565b6003611438610371565b60088111156114495761144961174e565b106110f5576110f5611b3d565b60006114b8826040518060400160405280602081526020017f5361666545524332303a206c6f772d6c6576656c2063616c6c206661696c65648152508573ffffffffffffffffffffffffffffffffffffffff166115629092919063ffffffff16565b80519091501561142957808060200190518101906114d69190611b6c565b611429576040517f08c379a000000000000000000000000000000000000000000000000000000000815260206004820152602a60248201527f5361666545524332303a204552433230206f7065726174696f6e20646964206e60448201527f6f74207375636365656400000000000000000000000000000000000000000000606482015260840161052c565b6060611571848460008561157b565b90505b9392505050565b60608247101561160d576040517f08c379a000000000000000000000000000000000000000000000000000000000815260206004820152602660248201527f416464726573733a20696e73756666696369656e742062616c616e636520666f60448201527f722063616c6c0000000000000000000000000000000000000000000000000000606482015260840161052c565b843b611675576040517f08c379a000000000000000000000000000000000000000000000000000000000815260206004820152601d60248201527f416464726573733a2063616c6c20746f206e6f6e2d636f6e7472616374000000604482015260640161052c565b6000808673ffffffffffffffffffffffffffffffffffffffff16858760405161169e9190611bba565b60006040518083038185875af1925050503d80600081146116db576040519150601f19603f3d011682016040523d82523d6000602084013e6116e0565b606091505b50915091506116f08282866116fb565b979650505050505050565b6060831561170a575081611574565b82511561171a5782518084602001fd5b816040517f08c379a000000000000000000000000000000000000000000000000000000000815260040161052c9190611bd6565b7f4e487b7100000000000000000000000000000000000000000000000000000000600052602160045260246000fd5b60208101600983106117b8577f4e487b7100000000000000000000000000000000000000000000000000000000600052602160045260246000fd5b91905290565b7f4e487b7100000000000000000000000000000000000000000000000000000000600052604160045260246000fd5b803563ffffffff8116811461180157600080fd5b919050565b600080610120838503121561181a57600080fd5b83601f84011261182957600080fd5b60405161010080820182811067ffffffffffffffff8211171561184e5761184e6117be565b6040528401818682111561186157600080fd5b855b8281101561188257611874816117ed565b825260209182019101611863565b5050819350611890816117ed565b925050509250929050565b60008061012083850312156118af57600080fd5b6101008301848111156118c157600080fd5b83925035600981106118d257600080fd5b809150509250929050565b6000602082840312156118ef57600080fd5b5035919050565b73ffffffffffffffffffffffffffffffffffffffff811681146110f557600080fd5b60006020828403121561192a57600080fd5b8135611574816118f6565b7f4e487b7100000000000000000000000000000000000000000000000000000000600052603260045260246000fd5b7f4e487b7100000000000000000000000000000000000000000000000000000000600052601160045260246000fd5b60007fffffffffffffffffffffffffffffffffffffffffffffffffffffffffffffffff8214156119c5576119c5611964565b5060010190565b6000828210156119de576119de611964565b500390565b6000602082840312156119f557600080fd5b610443826117ed565b60008219821115611a1157611a11611964565b500190565b6000817fffffffffffffffffffffffffffffffffffffffffffffffffffffffffffffffff0483118215151615611a4e57611a4e611964565b500290565b600081518084526020808501945080840160005b83811015611a8357815187529582019590820190600101611a67565b509495945050505050565b606081526000611aa16060830186611a53565b60208301949094525060400152919050565b600060208284031215611ac557600080fd5b8151611574816118f6565b600060208284031215611ae257600080fd5b5051919050565b600082611b1f577f4e487b7100000000000000000000000000000000000000000000000000000000600052601260045260246000fd5b500490565b8281526040602082015260006115716040830184611a53565b7f4e487b7100000000000000000000000000000000000000000000000000000000600052600160045260246000fd5b600060208284031215611b7e57600080fd5b8151801515811461157457600080fd5b60005b83811015611ba9578181015183820152602001611b91565b83811115610fc25750506000910152565b60008251611bcc818460208701611b8e565b9190910192915050565b6020815260008251806020840152611bf5816040850160208701611b8e565b601f017fffffffffffffffffffffffffffffffffffffffffffffffffffffffffffffffe016919091016040019291505056fea26469706673582212203c11d0b237e0efe4f4d81635e0e5e0cac162e708090d9abdd4abb36bd16160d064736f6c634300080a0033",
  "linkReferences": {},
  "deployedLinkReferences": {}
}