{
  "address": "0x84B0C7744B439303db0b5b7708849EAEF6375f5D",
  "abi": [
    {
      "inputs": [],
      "stateMutability": "nonpayable",
      "type": "constructor"
    },
    {
      "inputs": [
        {
          "internalType": "uint256",
          "name": "i",
          "type": "uint256"
        }
      ],
      "name": "InvalidSignature",
      "type": "error"
    },
    {
      "anonymous": false,
      "inputs": [
        {
          "indexed": false,
          "internalType": "address",
          "name": "sender",
          "type": "address"
        },
        {
          "components": [
            {
              "internalType": "address",
              "name": "expressionDeployer",
              "type": "address"
            },
            {
              "internalType": "address",
              "name": "interpreter",
              "type": "address"
            },
            {
              "internalType": "uint256",
              "name": "combinedTiersLength",
              "type": "uint256"
            },
            {
              "components": [
                {
                  "internalType": "bytes[]",
                  "name": "sources",
                  "type": "bytes[]"
                },
                {
                  "internalType": "uint256[]",
                  "name": "constants",
                  "type": "uint256[]"
                }
              ],
              "internalType": "struct StateConfig",
              "name": "stateConfig",
              "type": "tuple"
            }
          ],
          "indexed": false,
          "internalType": "struct CombineTierConfig",
          "name": "config",
          "type": "tuple"
        }
      ],
      "name": "Initialize",
      "type": "event"
    },
    {
      "anonymous": false,
      "inputs": [
        {
          "indexed": false,
          "internalType": "uint8",
          "name": "version",
          "type": "uint8"
        }
      ],
      "name": "Initialized",
      "type": "event"
    },
    {
      "inputs": [
        {
          "components": [
            {
              "internalType": "address",
              "name": "expressionDeployer",
              "type": "address"
            },
            {
              "internalType": "address",
              "name": "interpreter",
              "type": "address"
            },
            {
              "internalType": "uint256",
              "name": "combinedTiersLength",
              "type": "uint256"
            },
            {
              "components": [
                {
                  "internalType": "bytes[]",
                  "name": "sources",
                  "type": "bytes[]"
                },
                {
                  "internalType": "uint256[]",
                  "name": "constants",
                  "type": "uint256[]"
                }
              ],
              "internalType": "struct StateConfig",
              "name": "stateConfig",
              "type": "tuple"
            }
          ],
          "internalType": "struct CombineTierConfig",
          "name": "config_",
          "type": "tuple"
        }
      ],
      "name": "initialize",
      "outputs": [],
      "stateMutability": "nonpayable",
      "type": "function"
    },
    {
      "inputs": [
        {
          "internalType": "address",
          "name": "account_",
          "type": "address"
        },
        {
          "internalType": "uint256[]",
          "name": "callerContext_",
          "type": "uint256[]"
        }
      ],
      "name": "report",
      "outputs": [
        {
          "internalType": "uint256",
          "name": "",
          "type": "uint256"
        }
      ],
      "stateMutability": "view",
      "type": "function"
    },
    {
      "inputs": [
        {
          "internalType": "address",
          "name": "account_",
          "type": "address"
        },
        {
          "internalType": "uint256",
          "name": "tier_",
          "type": "uint256"
        },
        {
          "internalType": "uint256[]",
          "name": "callerContext_",
          "type": "uint256[]"
        }
      ],
      "name": "reportTimeForTier",
      "outputs": [
        {
          "internalType": "uint256",
          "name": "",
          "type": "uint256"
        }
      ],
      "stateMutability": "view",
      "type": "function"
    },
    {
      "inputs": [
        {
          "internalType": "bytes4",
          "name": "interfaceId_",
          "type": "bytes4"
        }
      ],
      "name": "supportsInterface",
      "outputs": [
        {
          "internalType": "bool",
          "name": "",
          "type": "bool"
        }
      ],
      "stateMutability": "view",
      "type": "function"
    }
  ],
  "transactionHash": "0x18d7a079d1b80aa033112c314ec50107a185f2233bc7d998a78a4cf986d31de6",
  "args": [],
  "numDeployments": 1,
  "bytecode": "0x608060405234801561001057600080fd5b5061001961001e565b6100de565b600054610100900460ff161561008a5760405162461bcd60e51b815260206004820152602760248201527f496e697469616c697a61626c653a20636f6e747261637420697320696e697469604482015266616c697a696e6760c81b606482015260840160405180910390fd5b60005460ff90811610156100dc576000805460ff191660ff9081179091556040519081527f7f26b83ff96e1f2b6a682f133852f6798a09c465da95921460cefb38474024989060200160405180910390a15b565b611b59806100ed6000396000f3fe608060405234801561001057600080fd5b506004361061004c5760003560e01c806301ffc9a71461005157806388d6860414610079578063caa0eb3b1461009a578063e264df5d146100ad575b600080fd5b61006461005f3660046111f8565b6100c2565b60405190151581526020015b60405180910390f35b61008c610087366004611361565b61015b565b604051908152602001610070565b61008c6100a83660046113b1565b6102fa565b6100c06100bb36600461140a565b610463565b005b60007fffffffff0000000000000000000000000000000000000000000000000000000082167f42766d3f00000000000000000000000000000000000000000000000000000000148061015557507f01ffc9a7000000000000000000000000000000000000000000000000000000007fffffffff000000000000000000000000000000000000000000000000000000008316145b92915050565b603354603454600091829173ffffffffffffffffffffffffffffffffffffffff909116906390e7d00b9060201b77ffffffffffffffffffffffffffffffffffffffff00000000166001176102396101cf6101ca8973ffffffffffffffffffffffffffffffffffffffff16610851565b610883565b604080516000808252602082019092528991610233565b6102206040518060600160405280600073ffffffffffffffffffffffffffffffffffffffff16815260200160608152602001606081525090565b8152602001906001900390816101e65790505b506108c1565b6040518363ffffffff1660e01b8152600401610256929190611445565b600060405180830381865afa158015610273573d6000803e3d6000fd5b505050506040513d6000823e601f3d9081017fffffffffffffffffffffffffffffffffffffffffffffffffffffffffffffffe01682016040526102b99190810190611550565b5080519091506102f29060209081028301015b7fffffffffffffffffffffffffffffffffffffffffffffffffffffffffffffffe0015190565b949350505050565b603354603454600091829173ffffffffffffffffffffffffffffffffffffffff909116906390e7d00b906201000160209190911b77ffffffffffffffffffffffffffffffffffffffff0000000016176103c16101cf6101ca8a73ffffffffffffffffffffffffffffffffffffffff168a610c2b565b6103a96040518060600160405280600073ffffffffffffffffffffffffffffffffffffffff16815260200160608152602001606081525090565b81526020019060019003908161036f579050506108c1565b6040518363ffffffff1660e01b81526004016103de929190611445565b600060405180830381865afa1580156103fb573d6000803e3d6000fd5b505050506040513d6000823e601f3d9081017fffffffffffffffffffffffffffffffffffffffffffffffffffffffffffffffe01682016040526104419190810190611550565b5080519091506104589060209081028301016102cc565b9150505b9392505050565b600054610100900460ff16158080156104835750600054600160ff909116105b8061049d5750303b15801561049d575060005460ff166001145b61052e576040517f08c379a000000000000000000000000000000000000000000000000000000000815260206004820152602e60248201527f496e697469616c697a61626c653a20636f6e747261637420697320616c72656160448201527f647920696e697469616c697a656400000000000000000000000000000000000060648201526084015b60405180910390fd5b600080547fffffffffffffffffffffffffffffffffffffffffffffffffffffffffffffff00166001179055801561058c57600080547fffffffffffffffffffffffffffffffffffffffffffffffffffffffffffff00ff166101001790555b610594610c5f565b6105a460408301602084016115aa565b603380547fffffffffffffffffffffffff00000000000000000000000000000000000000001673ffffffffffffffffffffffffffffffffffffffff929092169190911790556105f660208301836115aa565b73ffffffffffffffffffffffffffffffffffffffff16631ed061d961061e60608501856115c7565b610629600180610c2b565b6040518363ffffffff1660e01b815260040161064692919061180b565b6020604051808303816000875af1158015610665573d6000803e3d6000fd5b505050506040513d601f19601f820116820180604052508101906106899190611862565b603480547fffffffffffffffffffffffff00000000000000000000000000000000000000001673ffffffffffffffffffffffffffffffffffffffff9290921691909117905560005b82604001358110156107b0576107386106ed60608501856115c7565b6106fb90602081019061187f565b8381811061070b5761070b6118e7565b905060200201357f42766d3f00000000000000000000000000000000000000000000000000000000610d00565b61079e576040517f08c379a000000000000000000000000000000000000000000000000000000000815260206004820152600d60248201527f4552433136355f544945525632000000000000000000000000000000000000006044820152606401610525565b806107a881611916565b9150506106d1565b507fad7ea6ddb5e5e1fe4978dd3efc0dcd8185585afe500bff3f3f903108083646f033836040516107e2929190611975565b60405180910390a1801561084d57600080547fffffffffffffffffffffffffffffffffffffffffffffffffffffffffffff00ff169055604051600181527f7f26b83ff96e1f2b6a682f133852f6798a09c465da95921460cefb38474024989060200160405180910390a15b5050565b604080516001808252818301909252606091600091906020808301908036833750505060208101939093525090919050565b60408051600180825281830190925260609160009190816020015b606081526020019060019003908161089e57505060208101939093525090919050565b60606000825167ffffffffffffffff8111156108df576108df61125f565b604051908082528060200260200182016040528015610908578160200160208202803683370190505b50905060008084511161091c576000610922565b83516001015b865101600201905060008167ffffffffffffffff8111156109455761094561125f565b60405190808252806020026020018201604052801561097857816020015b60608152602001906001900390816109635790505b5090506000610985610d1c565b828281518110610997576109976118e7565b602002602001018190525060005b88518110156109f55781806001019250508881815181106109c8576109c86118e7565b60200260200101518383815181106109e2576109e26118e7565b60209081029190910101526001016109a5565b50808060010191505086828281518110610a1157610a116118e7565b6020908102919091010152855115610c2057808060010191505083828281518110610a3e57610a3e6118e7565b602002602001018190525060005b8651811015610c1e57610b48878281518110610a6a57610a6a6118e7565b602002602001015160000151610b25898481518110610a8b57610a8b6118e7565b602002602001015160400151604051602001610aa79190611a17565b604080517fffffffffffffffffffffffffffffffffffffffffffffffffffffffffffffffe081840301815282825280516020918201207f19457468657265756d205369676e6564204d6573736167653a0a33320000000084830152603c8085019190915282518085039091018152605c909301909152815191012090565b898481518110610b3757610b376118e7565b602002602001015160200151610d2d565b610b81576040517f52bf984800000000000000000000000000000000000000000000000000000000815260048101829052602401610525565b868181518110610b9357610b936118e7565b60200260200101516000015173ffffffffffffffffffffffffffffffffffffffff16858281518110610bc757610bc76118e7565b6020026020010181815250508180600101925050868181518110610bed57610bed6118e7565b602002602001015160400151838381518110610c0b57610c0b6118e7565b6020908102919091010152600101610a4c565b505b509695505050505050565b6040805160028082526060808301845292600092919060208301908036833750505060208101949094525050604082015290565b600054610100900460ff16610cf6576040517f08c379a000000000000000000000000000000000000000000000000000000000815260206004820152602b60248201527f496e697469616c697a61626c653a20636f6e7472616374206973206e6f74206960448201527f6e697469616c697a696e670000000000000000000000000000000000000000006064820152608401610525565b610cfe610efa565b565b6000610d0b83610f91565b801561045c575061045c8383610ff5565b6060610d283330610c2b565b905090565b6000806000610d3c85856110c4565b90925090506000816004811115610d5557610d55611a4d565b148015610d8d57508573ffffffffffffffffffffffffffffffffffffffff168273ffffffffffffffffffffffffffffffffffffffff16145b15610d9d5760019250505061045c565b6000808773ffffffffffffffffffffffffffffffffffffffff16631626ba7e60e01b8888604051602401610dd2929190611aa0565b604080517fffffffffffffffffffffffffffffffffffffffffffffffffffffffffffffffe08184030181529181526020820180517bffffffffffffffffffffffffffffffffffffffffffffffffffffffff167fffffffff00000000000000000000000000000000000000000000000000000000909416939093179092529051610e5b9190611af8565b600060405180830381855afa9150503d8060008114610e96576040519150601f19603f3d011682016040523d82523d6000602084013e610e9b565b606091505b5091509150818015610eae575080516020145b8015610eee575080517f1626ba7e0000000000000000000000000000000000000000000000000000000090610eec9083016020908101908401611b0a565b145b98975050505050505050565b600054610100900460ff16610cfe576040517f08c379a000000000000000000000000000000000000000000000000000000000815260206004820152602b60248201527f496e697469616c697a61626c653a20636f6e7472616374206973206e6f74206960448201527f6e697469616c697a696e670000000000000000000000000000000000000000006064820152608401610525565b6000610fbd827f01ffc9a700000000000000000000000000000000000000000000000000000000610ff5565b80156101555750610fee827fffffffff00000000000000000000000000000000000000000000000000000000610ff5565b1592915050565b604080517fffffffff000000000000000000000000000000000000000000000000000000008316602480830191909152825180830390910181526044909101909152602080820180517bffffffffffffffffffffffffffffffffffffffffffffffffffffffff167f01ffc9a700000000000000000000000000000000000000000000000000000000178152825160009392849283928392918391908a617530fa92503d915060005190508280156110ad575060208210155b80156110b95750600081115b979650505050505050565b60008082516041036110fa5760208301516040840151606085015160001a6110ee87828585611109565b94509450505050611102565b506000905060025b9250929050565b6000807f7fffffffffffffffffffffffffffffff5d576e7357a4501ddfe92f46681b20a083111561114057506000905060036111ef565b6040805160008082526020820180845289905260ff881692820192909252606081018690526080810185905260019060a0016020604051602081039080840390855afa158015611194573d6000803e3d6000fd5b50506040517fffffffffffffffffffffffffffffffffffffffffffffffffffffffffffffffe0015191505073ffffffffffffffffffffffffffffffffffffffff81166111e8576000600192509250506111ef565b9150600090505b94509492505050565b60006020828403121561120a57600080fd5b81357fffffffff000000000000000000000000000000000000000000000000000000008116811461045c57600080fd5b73ffffffffffffffffffffffffffffffffffffffff8116811461125c57600080fd5b50565b7f4e487b7100000000000000000000000000000000000000000000000000000000600052604160045260246000fd5b604051601f82017fffffffffffffffffffffffffffffffffffffffffffffffffffffffffffffffe016810167ffffffffffffffff811182821017156112d5576112d561125f565b604052919050565b600067ffffffffffffffff8211156112f7576112f761125f565b5060051b60200190565b600082601f83011261131257600080fd5b81356020611327611322836112dd565b61128e565b82815260059290921b8401810191818101908684111561134657600080fd5b8286015b84811015610c20578035835291830191830161134a565b6000806040838503121561137457600080fd5b823561137f8161123a565b9150602083013567ffffffffffffffff81111561139b57600080fd5b6113a785828601611301565b9150509250929050565b6000806000606084860312156113c657600080fd5b83356113d18161123a565b925060208401359150604084013567ffffffffffffffff8111156113f457600080fd5b61140086828701611301565b9150509250925092565b60006020828403121561141c57600080fd5b813567ffffffffffffffff81111561143357600080fd5b82016080818503121561045c57600080fd5b600060408201848352602060408185015281855180845260608601915060608160051b87010193508287016000805b838110156114e6578887037fffffffffffffffffffffffffffffffffffffffffffffffffffffffffffffffa0018552825180518089529087019087890190845b818110156114d0578351835292890192918901916001016114b4565b5090985050509385019391850191600101611474565b50949998505050505050505050565b600082601f83011261150657600080fd5b81516020611516611322836112dd565b82815260059290921b8401810191818101908684111561153557600080fd5b8286015b84811015610c205780518352918301918301611539565b6000806040838503121561156357600080fd5b825167ffffffffffffffff8082111561157b57600080fd5b611587868387016114f5565b9350602085015191508082111561159d57600080fd5b506113a7858286016114f5565b6000602082840312156115bc57600080fd5b813561045c8161123a565b600082357fffffffffffffffffffffffffffffffffffffffffffffffffffffffffffffffc18336030181126115fb57600080fd5b9190910192915050565b60008083357fffffffffffffffffffffffffffffffffffffffffffffffffffffffffffffffe184360301811261163a57600080fd5b830160208101925035905067ffffffffffffffff81111561165a57600080fd5b8060051b360382131561110257600080fd5b8183528181602085013750600060208284010152600060207fffffffffffffffffffffffffffffffffffffffffffffffffffffffffffffffe0601f840116840101905092915050565b81835260007f07ffffffffffffffffffffffffffffffffffffffffffffffffffffffffffffff8311156116e757600080fd5b8260051b80836020870137939093016020019392505050565b6000604083016117108384611605565b604086528281845260608701905060608260051b88010193508260005b838110156117dc577fffffffffffffffffffffffffffffffffffffffffffffffffffffffffffffffa089870301835281357fffffffffffffffffffffffffffffffffffffffffffffffffffffffffffffffe186360301811261178e57600080fd5b8501602081810191359067ffffffffffffffff8211156117ad57600080fd5b8136038313156117bc57600080fd5b6117c789838561166c565b9850948501949390930192505060010161172d565b50505050506117ee6020840184611605565b85830360208701526118018382846116b5565b9695505050505050565b60408152600061181e6040830185611700565b82810360208481019190915284518083528582019282019060005b8181101561185557845183529383019391830191600101611839565b5090979650505050505050565b60006020828403121561187457600080fd5b815161045c8161123a565b60008083357fffffffffffffffffffffffffffffffffffffffffffffffffffffffffffffffe18436030181126118b457600080fd5b83018035915067ffffffffffffffff8211156118cf57600080fd5b6020019150600581901b360382131561110257600080fd5b7f4e487b7100000000000000000000000000000000000000000000000000000000600052603260045260246000fd5b60007fffffffffffffffffffffffffffffffffffffffffffffffffffffffffffffffff820361196e577f4e487b7100000000000000000000000000000000000000000000000000000000600052601160045260246000fd5b5060010190565b600073ffffffffffffffffffffffffffffffffffffffff80851683526040602084015283356119a38161123a565b8116604084015260208401356119b88161123a565b818116606085015250506040830135608083015260608301357fffffffffffffffffffffffffffffffffffffffffffffffffffffffffffffffc1843603018112611a0157600080fd5b608060a084015261045860c08401858301611700565b815160009082906020808601845b83811015611a4157815185529382019390820190600101611a25565b50929695505050505050565b7f4e487b7100000000000000000000000000000000000000000000000000000000600052602160045260246000fd5b60005b83811015611a97578181015183820152602001611a7f565b50506000910152565b8281526040602082015260008251806040840152611ac5816060850160208701611a7c565b601f017fffffffffffffffffffffffffffffffffffffffffffffffffffffffffffffffe016919091016060019392505050565b600082516115fb818460208701611a7c565b600060208284031215611b1c57600080fd5b505191905056fea26469706673582212204806364746b8e20e7d2aca5ea3230d06a55c1295a2c6fd5f29bc7c8d23312c8e64736f6c63430008110033",
  "devdoc": {
    "kind": "dev",
    "methods": {},
    "title": "CombineTier",
    "version": 1
  },
  "userdoc": {
    "errors": {
      "InvalidSignature(uint256)": [
        {
          "notice": "Thrown when the ith signature from a list of signed contexts is invalid."
        }
      ]
    },
    "kind": "user",
    "methods": {
      "report(address,uint256[])": {
        "notice": "Returns an 8 tier encoded report of 32 bit timestamps for the given account. Same as `ITier` (legacy interface) but with a list of values for `context` which allows a single underlying state to present many different reports dynamically. For example: - Staking ledgers can calculate different tier thresholds - NFTs can give different tiers based on different IDs - Snapshot ERC20s can give different reports based on snapshot ID `context` supercedes `setTier` function and `TierChange` event from `ITier` at the interface level."
      },
      "reportTimeForTier(address,uint256,uint256[])": {
        "notice": "Same as report but only returns the time for a single tier. Often the implementing contract can calculate a single tier more efficiently than all 8 tiers. If the consumer only needs one or a few tiers it MAY be much cheaper to request only those tiers individually. This DOES NOT apply to all contracts, an obvious example is token balance based tiers which always return `ALWAYS` or `NEVER` for all tiers so no efficiency is gained. The return value is a `uint256` for gas efficiency but the values will be bounded by `type(uint32).max` as no single tier can report a value higher than this."
      }
    },
    "notice": "Allows combining the reports from any `ITierV2` contracts. The value at the top of the stack after executing the Rain expression will be used as the return of all `ITierV2` functions exposed by `CombineTier`.",
    "version": 1
  }
}