{
  "address": "0x2F8F809D7E5073C7871f94e044BC2373608863eC",
  "abi": [
    {
      "inputs": [
        {
          "internalType": "uint256",
          "name": "i",
          "type": "uint256"
        }
      ],
      "name": "InvalidSignature",
      "type": "error"
    },
    {
      "anonymous": false,
      "inputs": [
        {
          "indexed": true,
          "internalType": "address",
          "name": "owner",
          "type": "address"
        },
        {
          "indexed": true,
          "internalType": "address",
          "name": "approved",
          "type": "address"
        },
        {
          "indexed": true,
          "internalType": "uint256",
          "name": "tokenId",
          "type": "uint256"
        }
      ],
      "name": "Approval",
      "type": "event"
    },
    {
      "anonymous": false,
      "inputs": [
        {
          "indexed": true,
          "internalType": "address",
          "name": "owner",
          "type": "address"
        },
        {
          "indexed": true,
          "internalType": "address",
          "name": "operator",
          "type": "address"
        },
        {
          "indexed": false,
          "internalType": "bool",
          "name": "approved",
          "type": "bool"
        }
      ],
      "name": "ApprovalForAll",
      "type": "event"
    },
    {
      "anonymous": false,
      "inputs": [
        {
          "indexed": false,
          "internalType": "address",
          "name": "sender",
          "type": "address"
        },
        {
          "indexed": false,
          "internalType": "address",
          "name": "interpreter",
          "type": "address"
        },
        {
          "indexed": false,
          "internalType": "EncodedDispatch",
          "name": "dispatch",
          "type": "uint256"
        }
      ],
      "name": "FlowInitialized",
      "type": "event"
    },
    {
      "anonymous": false,
      "inputs": [
        {
          "indexed": false,
          "internalType": "address",
          "name": "sender",
          "type": "address"
        },
        {
          "components": [
            {
              "internalType": "string",
              "name": "name",
              "type": "string"
            },
            {
              "internalType": "string",
              "name": "symbol",
              "type": "string"
            },
            {
              "components": [
                {
                  "internalType": "bytes[]",
                  "name": "sources",
                  "type": "bytes[]"
                },
                {
                  "internalType": "uint256[]",
                  "name": "constants",
                  "type": "uint256[]"
                }
              ],
              "internalType": "struct StateConfig",
              "name": "stateConfig",
              "type": "tuple"
            },
            {
              "components": [
                {
                  "internalType": "address",
                  "name": "expressionDeployer",
                  "type": "address"
                },
                {
                  "internalType": "address",
                  "name": "interpreter",
                  "type": "address"
                },
                {
                  "components": [
                    {
                      "internalType": "bytes[]",
                      "name": "sources",
                      "type": "bytes[]"
                    },
                    {
                      "internalType": "uint256[]",
                      "name": "constants",
                      "type": "uint256[]"
                    }
                  ],
                  "internalType": "struct StateConfig[]",
                  "name": "flows",
                  "type": "tuple[]"
                }
              ],
              "internalType": "struct FlowCommonConfig",
              "name": "flowConfig",
              "type": "tuple"
            }
          ],
          "indexed": false,
          "internalType": "struct FlowERC721Config",
          "name": "config",
          "type": "tuple"
        }
      ],
      "name": "Initialize",
      "type": "event"
    },
    {
      "anonymous": false,
      "inputs": [
        {
          "indexed": false,
          "internalType": "uint8",
          "name": "version",
          "type": "uint8"
        }
      ],
      "name": "Initialized",
      "type": "event"
    },
    {
      "anonymous": false,
      "inputs": [
        {
          "indexed": true,
          "internalType": "address",
          "name": "from",
          "type": "address"
        },
        {
          "indexed": true,
          "internalType": "address",
          "name": "to",
          "type": "address"
        },
        {
          "indexed": true,
          "internalType": "uint256",
          "name": "tokenId",
          "type": "uint256"
        }
      ],
      "name": "Transfer",
      "type": "event"
    },
    {
      "inputs": [
        {
          "internalType": "address",
          "name": "to",
          "type": "address"
        },
        {
          "internalType": "uint256",
          "name": "tokenId",
          "type": "uint256"
        }
      ],
      "name": "approve",
      "outputs": [],
      "stateMutability": "nonpayable",
      "type": "function"
    },
    {
      "inputs": [
        {
          "internalType": "address",
          "name": "owner",
          "type": "address"
        }
      ],
      "name": "balanceOf",
      "outputs": [
        {
          "internalType": "uint256",
          "name": "",
          "type": "uint256"
        }
      ],
      "stateMutability": "view",
      "type": "function"
    },
    {
      "inputs": [
        {
          "internalType": "EncodedDispatch",
          "name": "dispatch_",
          "type": "uint256"
        },
        {
          "internalType": "uint256[]",
          "name": "callerContext_",
          "type": "uint256[]"
        },
        {
          "components": [
            {
              "internalType": "address",
              "name": "signer",
              "type": "address"
            },
            {
              "internalType": "bytes",
              "name": "signature",
              "type": "bytes"
            },
            {
              "internalType": "uint256[]",
              "name": "context",
              "type": "uint256[]"
            }
          ],
          "internalType": "struct SignedContext[]",
          "name": "signedContexts_",
          "type": "tuple[]"
        }
      ],
      "name": "flow",
      "outputs": [
        {
          "components": [
            {
              "components": [
                {
                  "internalType": "address",
                  "name": "account",
                  "type": "address"
                },
                {
                  "internalType": "uint256",
                  "name": "id",
                  "type": "uint256"
                }
              ],
              "internalType": "struct ERC721SupplyChange[]",
              "name": "mints",
              "type": "tuple[]"
            },
            {
              "components": [
                {
                  "internalType": "address",
                  "name": "account",
                  "type": "address"
                },
                {
                  "internalType": "uint256",
                  "name": "id",
                  "type": "uint256"
                }
              ],
              "internalType": "struct ERC721SupplyChange[]",
              "name": "burns",
              "type": "tuple[]"
            },
            {
              "components": [
                {
                  "components": [
                    {
                      "internalType": "address",
                      "name": "from",
                      "type": "address"
                    },
                    {
                      "internalType": "address",
                      "name": "to",
                      "type": "address"
                    },
                    {
                      "internalType": "uint256",
                      "name": "amount",
                      "type": "uint256"
                    }
                  ],
                  "internalType": "struct NativeTransfer[]",
                  "name": "native",
                  "type": "tuple[]"
                },
                {
                  "components": [
                    {
                      "internalType": "address",
                      "name": "token",
                      "type": "address"
                    },
                    {
                      "internalType": "address",
                      "name": "from",
                      "type": "address"
                    },
                    {
                      "internalType": "address",
                      "name": "to",
                      "type": "address"
                    },
                    {
                      "internalType": "uint256",
                      "name": "amount",
                      "type": "uint256"
                    }
                  ],
                  "internalType": "struct ERC20Transfer[]",
                  "name": "erc20",
                  "type": "tuple[]"
                },
                {
                  "components": [
                    {
                      "internalType": "address",
                      "name": "token",
                      "type": "address"
                    },
                    {
                      "internalType": "address",
                      "name": "from",
                      "type": "address"
                    },
                    {
                      "internalType": "address",
                      "name": "to",
                      "type": "address"
                    },
                    {
                      "internalType": "uint256",
                      "name": "id",
                      "type": "uint256"
                    }
                  ],
                  "internalType": "struct ERC721Transfer[]",
                  "name": "erc721",
                  "type": "tuple[]"
                },
                {
                  "components": [
                    {
                      "internalType": "address",
                      "name": "token",
                      "type": "address"
                    },
                    {
                      "internalType": "address",
                      "name": "from",
                      "type": "address"
                    },
                    {
                      "internalType": "address",
                      "name": "to",
                      "type": "address"
                    },
                    {
                      "internalType": "uint256",
                      "name": "id",
                      "type": "uint256"
                    },
                    {
                      "internalType": "uint256",
                      "name": "amount",
                      "type": "uint256"
                    }
                  ],
                  "internalType": "struct ERC1155Transfer[]",
                  "name": "erc1155",
                  "type": "tuple[]"
                }
              ],
              "internalType": "struct FlowTransfer",
              "name": "flow",
              "type": "tuple"
            }
          ],
          "internalType": "struct FlowERC721IO",
          "name": "",
          "type": "tuple"
        }
      ],
      "stateMutability": "payable",
      "type": "function"
    },
    {
      "inputs": [
        {
          "internalType": "uint256",
          "name": "tokenId",
          "type": "uint256"
        }
      ],
      "name": "getApproved",
      "outputs": [
        {
          "internalType": "address",
          "name": "",
          "type": "address"
        }
      ],
      "stateMutability": "view",
      "type": "function"
    },
    {
      "inputs": [
        {
          "components": [
            {
              "internalType": "string",
              "name": "name",
              "type": "string"
            },
            {
              "internalType": "string",
              "name": "symbol",
              "type": "string"
            },
            {
              "components": [
                {
                  "internalType": "bytes[]",
                  "name": "sources",
                  "type": "bytes[]"
                },
                {
                  "internalType": "uint256[]",
                  "name": "constants",
                  "type": "uint256[]"
                }
              ],
              "internalType": "struct StateConfig",
              "name": "stateConfig",
              "type": "tuple"
            },
            {
              "components": [
                {
                  "internalType": "address",
                  "name": "expressionDeployer",
                  "type": "address"
                },
                {
                  "internalType": "address",
                  "name": "interpreter",
                  "type": "address"
                },
                {
                  "components": [
                    {
                      "internalType": "bytes[]",
                      "name": "sources",
                      "type": "bytes[]"
                    },
                    {
                      "internalType": "uint256[]",
                      "name": "constants",
                      "type": "uint256[]"
                    }
                  ],
                  "internalType": "struct StateConfig[]",
                  "name": "flows",
                  "type": "tuple[]"
                }
              ],
              "internalType": "struct FlowCommonConfig",
              "name": "flowConfig",
              "type": "tuple"
            }
          ],
          "internalType": "struct FlowERC721Config",
          "name": "config_",
          "type": "tuple"
        }
      ],
      "name": "initialize",
      "outputs": [],
      "stateMutability": "nonpayable",
      "type": "function"
    },
    {
      "inputs": [
        {
          "internalType": "address",
          "name": "owner",
          "type": "address"
        },
        {
          "internalType": "address",
          "name": "operator",
          "type": "address"
        }
      ],
      "name": "isApprovedForAll",
      "outputs": [
        {
          "internalType": "bool",
          "name": "",
          "type": "bool"
        }
      ],
      "stateMutability": "view",
      "type": "function"
    },
    {
      "inputs": [
        {
          "internalType": "bytes[]",
          "name": "data",
          "type": "bytes[]"
        }
      ],
      "name": "multicall",
      "outputs": [
        {
          "internalType": "bytes[]",
          "name": "results",
          "type": "bytes[]"
        }
      ],
      "stateMutability": "nonpayable",
      "type": "function"
    },
    {
      "inputs": [],
      "name": "name",
      "outputs": [
        {
          "internalType": "string",
          "name": "",
          "type": "string"
        }
      ],
      "stateMutability": "view",
      "type": "function"
    },
    {
      "inputs": [
        {
          "internalType": "address",
          "name": "",
          "type": "address"
        },
        {
          "internalType": "address",
          "name": "",
          "type": "address"
        },
        {
          "internalType": "uint256[]",
          "name": "",
          "type": "uint256[]"
        },
        {
          "internalType": "uint256[]",
          "name": "",
          "type": "uint256[]"
        },
        {
          "internalType": "bytes",
          "name": "",
          "type": "bytes"
        }
      ],
      "name": "onERC1155BatchReceived",
      "outputs": [
        {
          "internalType": "bytes4",
          "name": "",
          "type": "bytes4"
        }
      ],
      "stateMutability": "nonpayable",
      "type": "function"
    },
    {
      "inputs": [
        {
          "internalType": "address",
          "name": "",
          "type": "address"
        },
        {
          "internalType": "address",
          "name": "",
          "type": "address"
        },
        {
          "internalType": "uint256",
          "name": "",
          "type": "uint256"
        },
        {
          "internalType": "uint256",
          "name": "",
          "type": "uint256"
        },
        {
          "internalType": "bytes",
          "name": "",
          "type": "bytes"
        }
      ],
      "name": "onERC1155Received",
      "outputs": [
        {
          "internalType": "bytes4",
          "name": "",
          "type": "bytes4"
        }
      ],
      "stateMutability": "nonpayable",
      "type": "function"
    },
    {
      "inputs": [
        {
          "internalType": "address",
          "name": "",
          "type": "address"
        },
        {
          "internalType": "address",
          "name": "",
          "type": "address"
        },
        {
          "internalType": "uint256",
          "name": "",
          "type": "uint256"
        },
        {
          "internalType": "bytes",
          "name": "",
          "type": "bytes"
        }
      ],
      "name": "onERC721Received",
      "outputs": [
        {
          "internalType": "bytes4",
          "name": "",
          "type": "bytes4"
        }
      ],
      "stateMutability": "nonpayable",
      "type": "function"
    },
    {
      "inputs": [
        {
          "internalType": "uint256",
          "name": "tokenId",
          "type": "uint256"
        }
      ],
      "name": "ownerOf",
      "outputs": [
        {
          "internalType": "address",
          "name": "",
          "type": "address"
        }
      ],
      "stateMutability": "view",
      "type": "function"
    },
    {
      "inputs": [
        {
          "internalType": "EncodedDispatch",
          "name": "dispatch_",
          "type": "uint256"
        },
        {
          "internalType": "uint256[]",
          "name": "callerContext_",
          "type": "uint256[]"
        },
        {
          "components": [
            {
              "internalType": "address",
              "name": "signer",
              "type": "address"
            },
            {
              "internalType": "bytes",
              "name": "signature",
              "type": "bytes"
            },
            {
              "internalType": "uint256[]",
              "name": "context",
              "type": "uint256[]"
            }
          ],
          "internalType": "struct SignedContext[]",
          "name": "signedContexts_",
          "type": "tuple[]"
        }
      ],
      "name": "previewFlow",
      "outputs": [
        {
          "components": [
            {
              "components": [
                {
                  "internalType": "address",
                  "name": "account",
                  "type": "address"
                },
                {
                  "internalType": "uint256",
                  "name": "id",
                  "type": "uint256"
                }
              ],
              "internalType": "struct ERC721SupplyChange[]",
              "name": "mints",
              "type": "tuple[]"
            },
            {
              "components": [
                {
                  "internalType": "address",
                  "name": "account",
                  "type": "address"
                },
                {
                  "internalType": "uint256",
                  "name": "id",
                  "type": "uint256"
                }
              ],
              "internalType": "struct ERC721SupplyChange[]",
              "name": "burns",
              "type": "tuple[]"
            },
            {
              "components": [
                {
                  "components": [
                    {
                      "internalType": "address",
                      "name": "from",
                      "type": "address"
                    },
                    {
                      "internalType": "address",
                      "name": "to",
                      "type": "address"
                    },
                    {
                      "internalType": "uint256",
                      "name": "amount",
                      "type": "uint256"
                    }
                  ],
                  "internalType": "struct NativeTransfer[]",
                  "name": "native",
                  "type": "tuple[]"
                },
                {
                  "components": [
                    {
                      "internalType": "address",
                      "name": "token",
                      "type": "address"
                    },
                    {
                      "internalType": "address",
                      "name": "from",
                      "type": "address"
                    },
                    {
                      "internalType": "address",
                      "name": "to",
                      "type": "address"
                    },
                    {
                      "internalType": "uint256",
                      "name": "amount",
                      "type": "uint256"
                    }
                  ],
                  "internalType": "struct ERC20Transfer[]",
                  "name": "erc20",
                  "type": "tuple[]"
                },
                {
                  "components": [
                    {
                      "internalType": "address",
                      "name": "token",
                      "type": "address"
                    },
                    {
                      "internalType": "address",
                      "name": "from",
                      "type": "address"
                    },
                    {
                      "internalType": "address",
                      "name": "to",
                      "type": "address"
                    },
                    {
                      "internalType": "uint256",
                      "name": "id",
                      "type": "uint256"
                    }
                  ],
                  "internalType": "struct ERC721Transfer[]",
                  "name": "erc721",
                  "type": "tuple[]"
                },
                {
                  "components": [
                    {
                      "internalType": "address",
                      "name": "token",
                      "type": "address"
                    },
                    {
                      "internalType": "address",
                      "name": "from",
                      "type": "address"
                    },
                    {
                      "internalType": "address",
                      "name": "to",
                      "type": "address"
                    },
                    {
                      "internalType": "uint256",
                      "name": "id",
                      "type": "uint256"
                    },
                    {
                      "internalType": "uint256",
                      "name": "amount",
                      "type": "uint256"
                    }
                  ],
                  "internalType": "struct ERC1155Transfer[]",
                  "name": "erc1155",
                  "type": "tuple[]"
                }
              ],
              "internalType": "struct FlowTransfer",
              "name": "flow",
              "type": "tuple"
            }
          ],
          "internalType": "struct FlowERC721IO",
          "name": "",
          "type": "tuple"
        }
      ],
      "stateMutability": "view",
      "type": "function"
    },
    {
      "inputs": [
        {
          "internalType": "address",
          "name": "from",
          "type": "address"
        },
        {
          "internalType": "address",
          "name": "to",
          "type": "address"
        },
        {
          "internalType": "uint256",
          "name": "tokenId",
          "type": "uint256"
        }
      ],
      "name": "safeTransferFrom",
      "outputs": [],
      "stateMutability": "nonpayable",
      "type": "function"
    },
    {
      "inputs": [
        {
          "internalType": "address",
          "name": "from",
          "type": "address"
        },
        {
          "internalType": "address",
          "name": "to",
          "type": "address"
        },
        {
          "internalType": "uint256",
          "name": "tokenId",
          "type": "uint256"
        },
        {
          "internalType": "bytes",
          "name": "data",
          "type": "bytes"
        }
      ],
      "name": "safeTransferFrom",
      "outputs": [],
      "stateMutability": "nonpayable",
      "type": "function"
    },
    {
      "inputs": [
        {
          "internalType": "address",
          "name": "operator",
          "type": "address"
        },
        {
          "internalType": "bool",
          "name": "approved",
          "type": "bool"
        }
      ],
      "name": "setApprovalForAll",
      "outputs": [],
      "stateMutability": "nonpayable",
      "type": "function"
    },
    {
      "inputs": [
        {
          "internalType": "bytes4",
          "name": "interfaceId",
          "type": "bytes4"
        }
      ],
      "name": "supportsInterface",
      "outputs": [
        {
          "internalType": "bool",
          "name": "",
          "type": "bool"
        }
      ],
      "stateMutability": "view",
      "type": "function"
    },
    {
      "inputs": [],
      "name": "symbol",
      "outputs": [
        {
          "internalType": "string",
          "name": "",
          "type": "string"
        }
      ],
      "stateMutability": "view",
      "type": "function"
    },
    {
      "inputs": [
        {
          "internalType": "uint256",
          "name": "tokenId",
          "type": "uint256"
        }
      ],
      "name": "tokenURI",
      "outputs": [
        {
          "internalType": "string",
          "name": "",
          "type": "string"
        }
      ],
      "stateMutability": "view",
      "type": "function"
    },
    {
      "inputs": [
        {
          "internalType": "address",
          "name": "from",
          "type": "address"
        },
        {
          "internalType": "address",
          "name": "to",
          "type": "address"
        },
        {
          "internalType": "uint256",
          "name": "tokenId",
          "type": "uint256"
        }
      ],
      "name": "transferFrom",
      "outputs": [],
      "stateMutability": "nonpayable",
      "type": "function"
    },
    {
      "stateMutability": "payable",
      "type": "receive"
    }
  ],
  "transactionHash": "0x912c6ca60c5bb6a74e7c338d7394137797fdf474136bf4c66de0937d86a485b2",
  "args": [],
  "numDeployments": 1,
  "bytecode": "0x60806040523480156200001157600080fd5b506200001c62000022565b620000e4565b600054610100900460ff16156200008f5760405162461bcd60e51b815260206004820152602760248201527f496e697469616c697a61626c653a20636f6e747261637420697320696e697469604482015266616c697a696e6760c81b606482015260840160405180910390fd5b60005460ff9081161015620000e2576000805460ff191660ff9081179091556040519081527f7f26b83ff96e1f2b6a682f133852f6798a09c465da95921460cefb38474024989060200160405180910390a15b565b615dd580620000f46000396000f3fe6080604052600436106101635760003560e01c806370a08231116100c0578063b88d4fde11610074578063c87b56dd11610059578063c87b56dd14610433578063e985e9c514610453578063f23a6e61146104aa57600080fd5b8063b88d4fde146103ce578063bc197c81146103ee57600080fd5b8063a22cb465116100a5578063a22cb46514610361578063ac9650d814610381578063ae910b3d146103ae57600080fd5b806370a082311461031e57806395d89b411461034c57600080fd5b806323b872dd1161011757806342842e0e116100fc57806342842e0e146102be578063522fb10b146102de5780636352211e146102fe57600080fd5b806323b872dd1461027e5780632f50e4be1461029e57600080fd5b8063081812fc11610148578063081812fc146101c6578063095ea7b31461020b578063150b7a021461022d57600080fd5b806301ffc9a71461016f57806306fdde03146101a457600080fd5b3661016a57005b600080fd5b34801561017b57600080fd5b5061018f61018a366004614697565b6104ef565b60405190151581526020015b60405180910390f35b3480156101b057600080fd5b506101b9610500565b60405161019b9190614722565b3480156101d257600080fd5b506101e66101e1366004614735565b610593565b60405173ffffffffffffffffffffffffffffffffffffffff909116815260200161019b565b34801561021757600080fd5b5061022b610226366004614770565b6105c8565b005b34801561023957600080fd5b5061024d6102483660046148f4565b610759565b6040517fffffffff00000000000000000000000000000000000000000000000000000000909116815260200161019b565b34801561028a57600080fd5b5061022b610299366004614960565b610783565b3480156102aa57600080fd5b5061022b6102b93660046149a1565b610824565b3480156102ca57600080fd5b5061022b6102d9366004614960565b610b7b565b6102f16102ec366004614a60565b610b96565b60405161019b9190614d0c565b34801561030a57600080fd5b506101e6610319366004614735565b610bb3565b34801561032a57600080fd5b5061033e610339366004614e2d565b610c40565b60405190815260200161019b565b34801561035857600080fd5b506101b9610d0f565b34801561036d57600080fd5b5061022b61037c366004614e58565b610d1f565b34801561038d57600080fd5b506103a161039c366004614e91565b610d2a565b60405161019b9190614f5b565b3480156103ba57600080fd5b506102f16103c9366004614a60565b610e1f565b3480156103da57600080fd5b5061022b6103e93660046148f4565b610e3e565b3480156103fa57600080fd5b5061024d610409366004614f6e565b7fbc197c810000000000000000000000000000000000000000000000000000000095945050505050565b34801561043f57600080fd5b506101b961044e366004614735565b610ee6565b34801561045f57600080fd5b5061018f61046e36600461501c565b73ffffffffffffffffffffffffffffffffffffffff91821660009081526101666020908152604080832093909416825291909152205460ff1690565b3480156104b657600080fd5b5061024d6104c536600461504a565b7ff23a6e610000000000000000000000000000000000000000000000000000000095945050505050565b60006104fa82610f59565b92915050565b60606101618054610510906150b3565b80601f016020809104026020016040519081016040528092919081815260200182805461053c906150b3565b80156105895780601f1061055e57610100808354040283529160200191610589565b820191906000526020600020905b81548152906001019060200180831161056c57829003601f168201915b5050505050905090565b600061059e82610ffb565b506000908152610165602052604090205473ffffffffffffffffffffffffffffffffffffffff1690565b60006105d382610bb3565b90508073ffffffffffffffffffffffffffffffffffffffff168373ffffffffffffffffffffffffffffffffffffffff1603610695576040517f08c379a000000000000000000000000000000000000000000000000000000000815260206004820152602160248201527f4552433732313a20617070726f76616c20746f2063757272656e74206f776e6560448201527f720000000000000000000000000000000000000000000000000000000000000060648201526084015b60405180910390fd5b3373ffffffffffffffffffffffffffffffffffffffff821614806106be57506106be813361046e565b61074a576040517f08c379a000000000000000000000000000000000000000000000000000000000815260206004820152603d60248201527f4552433732313a20617070726f76652063616c6c6572206973206e6f7420746f60448201527f6b656e206f776e6572206f7220617070726f76656420666f7220616c6c000000606482015260840161068c565b610754838361108a565b505050565b7f150b7a02000000000000000000000000000000000000000000000000000000005b949350505050565b61078d338261112b565b610819576040517f08c379a000000000000000000000000000000000000000000000000000000000815260206004820152602d60248201527f4552433732313a2063616c6c6572206973206e6f7420746f6b656e206f776e6560448201527f72206f7220617070726f76656400000000000000000000000000000000000000606482015260840161068c565b6107548383836111eb565b600054610100900460ff16158080156108445750600054600160ff909116105b8061085e5750303b15801561085e575060005460ff166001145b6108ea576040517f08c379a000000000000000000000000000000000000000000000000000000000815260206004820152602e60248201527f496e697469616c697a61626c653a20636f6e747261637420697320616c72656160448201527f647920696e697469616c697a6564000000000000000000000000000000000000606482015260840161068c565b600080547fffffffffffffffffffffffffffffffffffffffffffffffffffffffffffffff00166001179055801561094857600080547fffffffffffffffffffffffffffffffffffffffffffffffffffffffffffff00ff166101001790555b7fe4fa4811d3444f99c056e3c3577b1c349bd70fb1a5719ccf5e76f8572fbca95f3383604051610979929190615342565b60405180910390a16109896114fe565b610a1261099683806154ef565b8080601f0160208091040260200160405190810160405280939291908181526020018383808284376000920191909152506109d89250505060208501856154ef565b8080601f01602080910402602001604051908101604052809392919081815260200183838082843760009201919091525061159f92505050565b6000610a216060840184615554565b610a2f906020810190614e2d565b73ffffffffffffffffffffffffffffffffffffffff16631ed061d9610a576040860186615592565b610a616001611640565b6040518363ffffffff1660e01b8152600401610a7e9291906155f6565b6020604051808303816000875af1158015610a9d573d6000803e3d6000fd5b505050506040513d601f19601f82011682018060405250810190610ac1919061561b565b9050602081901b77ffffffffffffffffffffffffffffffffffffffff000000001660011761019355610b13610af96060850185615554565b610b0290615638565b610b0e60046002615828565b611672565b508015610b7757600080547fffffffffffffffffffffffffffffffffffffffffffffffffffffffffffff00ff169055604051600181527f7f26b83ff96e1f2b6a682f133852f6798a09c465da95921460cefb38474024989060200160405180910390a15b5050565b61075483838360405180602001604052806000815250610e3e565b610b9e614620565b610ba9848484611940565b90505b9392505050565b6000818152610163602052604081205473ffffffffffffffffffffffffffffffffffffffff16806104fa576040517f08c379a000000000000000000000000000000000000000000000000000000000815260206004820152601860248201527f4552433732313a20696e76616c696420746f6b656e2049440000000000000000604482015260640161068c565b600073ffffffffffffffffffffffffffffffffffffffff8216610ce5576040517f08c379a000000000000000000000000000000000000000000000000000000000815260206004820152602960248201527f4552433732313a2061646472657373207a65726f206973206e6f74206120766160448201527f6c6964206f776e65720000000000000000000000000000000000000000000000606482015260840161068c565b5073ffffffffffffffffffffffffffffffffffffffff166000908152610164602052604090205490565b60606101628054610510906150b3565b610b77338383611b01565b60608167ffffffffffffffff811115610d4557610d4561479c565b604051908082528060200260200182016040528015610d7857816020015b6060815260200190600190039081610d635790505b50905060005b82811015610e1857610de830858584818110610d9c57610d9c61583b565b9050602002810190610dae91906154ef565b8080601f016020809104026020016040519081016040528093929190818152602001838380828437600092019190915250611c2f92505050565b828281518110610dfa57610dfa61583b565b60200260200101819052508080610e109061586a565b915050610d7e565b5092915050565b610e27614620565b6000610e34858585611d6e565b5095945050505050565b610e48338361112b565b610ed4576040517f08c379a000000000000000000000000000000000000000000000000000000000815260206004820152602d60248201527f4552433732313a2063616c6c6572206973206e6f7420746f6b656e206f776e6560448201527f72206f7220617070726f76656400000000000000000000000000000000000000606482015260840161068c565b610ee084848484611e8d565b50505050565b6060610ef182610ffb565b6000610f0860408051602081019091526000815290565b90506000815111610f285760405180602001604052806000815250610bac565b80610f3284611f30565b604051602001610f439291906158a2565b6040516020818303038152906040529392505050565b60007fffffffff0000000000000000000000000000000000000000000000000000000082167f80ac58cd000000000000000000000000000000000000000000000000000000001480610fec57507fffffffff0000000000000000000000000000000000000000000000000000000082167f5b5e139f00000000000000000000000000000000000000000000000000000000145b806104fa57506104fa82611fee565b6000818152610163602052604090205473ffffffffffffffffffffffffffffffffffffffff16611087576040517f08c379a000000000000000000000000000000000000000000000000000000000815260206004820152601860248201527f4552433732313a20696e76616c696420746f6b656e2049440000000000000000604482015260640161068c565b50565b60008181526101656020526040902080547fffffffffffffffffffffffff00000000000000000000000000000000000000001673ffffffffffffffffffffffffffffffffffffffff841690811790915581906110e582610bb3565b73ffffffffffffffffffffffffffffffffffffffff167f8c5be1e5ebec7d5bd14f71427d1e84f3dd0314c0f7b2291e5b200ac8c7c3b92560405160405180910390a45050565b60008061113783610bb3565b90508073ffffffffffffffffffffffffffffffffffffffff168473ffffffffffffffffffffffffffffffffffffffff1614806111a6575073ffffffffffffffffffffffffffffffffffffffff8082166000908152610166602090815260408083209388168352929052205460ff165b8061077b57508373ffffffffffffffffffffffffffffffffffffffff166111cc84610593565b73ffffffffffffffffffffffffffffffffffffffff1614949350505050565b8273ffffffffffffffffffffffffffffffffffffffff1661120b82610bb3565b73ffffffffffffffffffffffffffffffffffffffff16146112ae576040517f08c379a000000000000000000000000000000000000000000000000000000000815260206004820152602560248201527f4552433732313a207472616e736665722066726f6d20696e636f72726563742060448201527f6f776e6572000000000000000000000000000000000000000000000000000000606482015260840161068c565b73ffffffffffffffffffffffffffffffffffffffff8216611350576040517f08c379a0000000000000000000000000000000000000000000000000000000008152602060048201526024808201527f4552433732313a207472616e7366657220746f20746865207a65726f2061646460448201527f7265737300000000000000000000000000000000000000000000000000000000606482015260840161068c565b61135d8383836001612085565b8273ffffffffffffffffffffffffffffffffffffffff1661137d82610bb3565b73ffffffffffffffffffffffffffffffffffffffff1614611420576040517f08c379a000000000000000000000000000000000000000000000000000000000815260206004820152602560248201527f4552433732313a207472616e736665722066726f6d20696e636f72726563742060448201527f6f776e6572000000000000000000000000000000000000000000000000000000606482015260840161068c565b60008181526101656020908152604080832080547fffffffffffffffffffffffff000000000000000000000000000000000000000090811690915573ffffffffffffffffffffffffffffffffffffffff878116808652610164855283862080547fffffffffffffffffffffffffffffffffffffffffffffffffffffffffffffffff0190559087168086528386208054600101905586865261016390945282852080549092168417909155905184937fddf252ad1be2c89b69c2b068fc378daa952ba7f163c4a11628f55a4df523b3ef91a46107548383836001612143565b600054610100900460ff16611595576040517f08c379a000000000000000000000000000000000000000000000000000000000815260206004820152602b60248201527f496e697469616c697a61626c653a20636f6e7472616374206973206e6f74206960448201527f6e697469616c697a696e67000000000000000000000000000000000000000000606482015260840161068c565b61159d612443565b565b600054610100900460ff16611636576040517f08c379a000000000000000000000000000000000000000000000000000000000815260206004820152602b60248201527f496e697469616c697a61626c653a20636f6e7472616374206973206e6f74206960448201527f6e697469616c697a696e67000000000000000000000000000000000000000000606482015260840161068c565b610b7782826124e0565b604080516001808252818301909252606091600091906020808301908036833750505060208101939093525090919050565b600054610100900460ff16611709576040517f08c379a000000000000000000000000000000000000000000000000000000000815260206004820152602b60248201527f496e697469616c697a61626c653a20636f6e7472616374206973206e6f74206960448201527f6e697469616c697a696e67000000000000000000000000000000000000000000606482015260840161068c565b611711612592565b611719612592565b611721612592565b600481101561178c576040517f08c379a000000000000000000000000000000000000000000000000000000000815260206004820152601560248201527f424144204d494e20535441434b53204c454e4754480000000000000000000000604482015260640161068c565b602082015161015f80547fffffffffffffffffffffffff00000000000000000000000000000000000000001673ffffffffffffffffffffffffffffffffffffffff90921691909117905560005b826040015151811015610754576000836000015173ffffffffffffffffffffffffffffffffffffffff16631ed061d98560400151848151811061181e5761181e61583b565b602002602001015161182f86611640565b6040518363ffffffff1660e01b815260040161184c9291906158d1565b6020604051808303816000875af115801561186b573d6000803e3d6000fd5b505050506040513d601f19601f8201168201806040525081019061188f919061561b565b90506000602082901b77ffffffffffffffffffffffffffffffffffffffff000000001661ffff17600081815261016060209081526040918290206001905587810151825133815273ffffffffffffffffffffffffffffffffffffffff909116918101919091529081018290529091507f0392789afa55e5b564b41f5e52285c849fc771b31ccc0e222999b6de72bc55949060600160405180910390a1505080806119389061586a565b9150506117d9565b611948614620565b611950612629565b60008061195e868686611d6e565b9150915060005b8251518110156119c3576119bb836000015182815181106119885761198861583b565b602002602001015160000151846000015183815181106119aa576119aa61583b565b60200260200101516020015161269c565b600101611965565b5060005b826020015151811015611aca576000836020015182815181106119ec576119ec61583b565b602002602001015160200151905083602001518281518110611a1057611a1061583b565b60200260200101516000015173ffffffffffffffffffffffffffffffffffffffff16611a3b82610bb3565b73ffffffffffffffffffffffffffffffffffffffff1614611ab8576040517f08c379a000000000000000000000000000000000000000000000000000000000815260206004820152600960248201527f4e4f545f4f574e45520000000000000000000000000000000000000000000000604482015260640161068c565b611ac1816126b6565b506001016119c7565b50604082015161015f54611af5919073ffffffffffffffffffffffffffffffffffffffff16836127a9565b509050610bac60018055565b8173ffffffffffffffffffffffffffffffffffffffff168373ffffffffffffffffffffffffffffffffffffffff1603611b96576040517f08c379a000000000000000000000000000000000000000000000000000000000815260206004820152601960248201527f4552433732313a20617070726f766520746f2063616c6c657200000000000000604482015260640161068c565b73ffffffffffffffffffffffffffffffffffffffff8381166000818152610166602090815260408083209487168084529482529182902080547fffffffffffffffffffffffffffffffffffffffffffffffffffffffffffffff001686151590811790915591519182527f17307eab39ab6107e8899845ad3d59bd9653f200f220920489ca2b5937696c31910160405180910390a3505050565b606073ffffffffffffffffffffffffffffffffffffffff83163b611cd5576040517f08c379a000000000000000000000000000000000000000000000000000000000815260206004820152602660248201527f416464726573733a2064656c65676174652063616c6c20746f206e6f6e2d636f60448201527f6e74726163740000000000000000000000000000000000000000000000000000606482015260840161068c565b6000808473ffffffffffffffffffffffffffffffffffffffff1684604051611cfd919061593c565b600060405180830381855af49150503d8060008114611d38576040519150601f19603f3d011682016040523d82523d6000602084013e611d3d565b606091505b5091509150611d658282604051806060016040528060278152602001615d7960279139612859565b95945050505050565b611d76614620565b606080611d81614620565b6000806000611d918a8a8a612872565b60408051808201909152601981527f5241494e5f464c4f575f4552433732315f53454e54494e454c0000000000000060209091015291945092509050611dfa82847ffe90d819490b07580877ce7c3005704048c62af96c6745886d7e356e0b63924a60026129fa565b80865260408051808201909152601981527f5241494e5f464c4f575f4552433732315f53454e54494e454c0000000000000060209091015295509150611e6382847ffe90d819490b07580877ce7c3005704048c62af96c6745886d7e356e0b63924a60026129fa565b6020860181905295509150611e788383612aab565b60408501529299929850919650505050505050565b611e988484846111eb565b611ea484848484612cb7565b610ee0576040517f08c379a000000000000000000000000000000000000000000000000000000000815260206004820152603260248201527f4552433732313a207472616e7366657220746f206e6f6e20455243373231526560448201527f63656976657220696d706c656d656e7465720000000000000000000000000000606482015260840161068c565b60606000611f3d83612ea7565b600101905060008167ffffffffffffffff811115611f5d57611f5d61479c565b6040519080825280601f01601f191660200182016040528015611f87576020820181803683370190505b5090508181016020015b7fffffffffffffffffffffffffffffffffffffffffffffffffffffffffffffffff017f3031323334353637383961626364656600000000000000000000000000000000600a86061a8153600a8504945084611f9157509392505050565b60007fffffffff0000000000000000000000000000000000000000000000000000000082167f4e2312e00000000000000000000000000000000000000000000000000000000014806104fa57507f01ffc9a7000000000000000000000000000000000000000000000000000000007fffffffff000000000000000000000000000000000000000000000000000000008316146104fa565b6001811115610ee05773ffffffffffffffffffffffffffffffffffffffff8416156120e65773ffffffffffffffffffffffffffffffffffffffff841660009081526101646020526040812080548392906120e090849061594e565b90915550505b73ffffffffffffffffffffffffffffffffffffffff831615610ee05773ffffffffffffffffffffffffffffffffffffffff83166000908152610164602052604081208054839290612138908490615828565b909155505050505050565b73ffffffffffffffffffffffffffffffffffffffff8416158061217a575073ffffffffffffffffffffffffffffffffffffffff8316155b610ee05760006121b88573ffffffffffffffffffffffffffffffffffffffff168573ffffffffffffffffffffffffffffffffffffffff168585612f89565b6101935461015f54604080516000808252602082019092529394509192829173ffffffffffffffffffffffffffffffffffffffff16906390e7d00b9085906122809085612215565b60608152602001906001900390816122005790505b50604080516000808252602082019092528a9161227a565b6122676040518060600160405280600073ffffffffffffffffffffffffffffffffffffffff16815260200160608152602001606081525090565b81526020019060019003908161222d5790505b50612fcc565b6040518363ffffffff1660e01b815260040161229d929190615961565b600060405180830381865afa1580156122ba573d6000803e3d6000fd5b505050506040513d6000823e601f3d9081017fffffffffffffffffffffffffffffffffffffffffffffffffffffffffffffffe01682016040526123009190810190615a44565b91509150600061234161231b84805160209081029091010190565b7fffffffffffffffffffffffffffffffffffffffffffffffffffffffffffffffe0015190565b116123a8576040517f08c379a000000000000000000000000000000000000000000000000000000000815260206004820152601060248201527f494e56414c49445f5452414e5346455200000000000000000000000000000000604482015260640161068c565b8051156124395761015f546040517fce0dd62800000000000000000000000000000000000000000000000000000000815273ffffffffffffffffffffffffffffffffffffffff9091169063ce0dd62890612406908490600401615aa8565b600060405180830381600087803b15801561242057600080fd5b505af1158015612434573d6000803e3d6000fd5b505050505b5050505050505050565b600054610100900460ff166124da576040517f08c379a000000000000000000000000000000000000000000000000000000000815260206004820152602b60248201527f496e697469616c697a61626c653a20636f6e7472616374206973206e6f74206960448201527f6e697469616c697a696e67000000000000000000000000000000000000000000606482015260840161068c565b60018055565b600054610100900460ff16612577576040517f08c379a000000000000000000000000000000000000000000000000000000000815260206004820152602b60248201527f496e697469616c697a61626c653a20636f6e7472616374206973206e6f74206960448201527f6e697469616c697a696e67000000000000000000000000000000000000000000606482015260840161068c565b6101616125848382615b09565b506101626107548282615b09565b600054610100900460ff1661159d576040517f08c379a000000000000000000000000000000000000000000000000000000000815260206004820152602b60248201527f496e697469616c697a61626c653a20636f6e7472616374206973206e6f74206960448201527f6e697469616c697a696e67000000000000000000000000000000000000000000606482015260840161068c565b600260015403612695576040517f08c379a000000000000000000000000000000000000000000000000000000000815260206004820152601f60248201527f5265656e7472616e637947756172643a207265656e7472616e742063616c6c00604482015260640161068c565b6002600155565b610b77828260405180602001604052806000815250613336565b60006126c182610bb3565b90506126d1816000846001612085565b6126da82610bb3565b60008381526101656020908152604080832080547fffffffffffffffffffffffff000000000000000000000000000000000000000090811690915573ffffffffffffffffffffffffffffffffffffffff8516808552610164845282852080547fffffffffffffffffffffffffffffffffffffffffffffffffffffffffffffffff019055878552610163909352818420805490911690555192935084927fddf252ad1be2c89b69c2b068fc378daa952ba7f163c4a11628f55a4df523b3ef908390a4610b77816000846001612143565b805115612835576040517fce0dd62800000000000000000000000000000000000000000000000000000000815273ffffffffffffffffffffffffffffffffffffffff83169063ce0dd62890612802908490600401615aa8565b600060405180830381600087803b15801561281c57600080fd5b505af1158015612830573d6000803e3d6000fd5b505050505b61283e836133d9565b61284783613607565b61285083613795565b61075483613952565b60608315612868575081610bac565b610bac8383613b2e565b60008381526101606020526040812054819060609086906128ef576040517f08c379a000000000000000000000000000000000000000000000000000000000815260206004820152601160248201527f554e524547495354455245445f464c4f57000000000000000000000000000000604482015260640161068c565b61015f54600090819073ffffffffffffffffffffffffffffffffffffffff166390e7d00b8a6129538460405190808252806020026020018201604052801561294b57816020015b60608152602001906001900390816129365790505b508c8c612fcc565b6040518363ffffffff1660e01b8152600401612970929190615961565b600060405180830381865afa15801561298d573d6000803e3d6000fd5b505050506040513d6000823e601f3d9081017fffffffffffffffffffffffffffffffffffffffffffffffffffffffffffffffe01682016040526129d39190810190615a44565b915091506129e18260200190565b8251909a60209182029093010198509650945050505050565b600060608180612a0c88888888613b72565b915091506000858251612a1f9190615c23565b905060008167ffffffffffffffff811115612a3c57612a3c61479c565b604051908082528060200260200182016040528015612a65578160200160208202803683370190505b509050602081016020830281016020850160208a025b82841015612a955781845260209093019290810190612a7b565b5095975091955050505050505b94509492505050565b612ad66040518060800160405280606081526020016060815260200160608152602001606081525090565b612b016040518060800160405280606081526020016060815260200160608152602001606081525090565b60408051808201909152601281527f5241494e5f464c4f575f53454e54494e454c00000000000000000000000000006020909101526060612b6584867ffea74d0c9bf4a3c28f0dd0674db22a3d7f8bf259c56af19f4ac1e735b156974f60036129fa565b80845260408051808201909152601281527f5241494e5f464c4f575f53454e54494e454c00000000000000000000000000006020909101529094509050612bcf84867ffea74d0c9bf4a3c28f0dd0674db22a3d7f8bf259c56af19f4ac1e735b156974f60046129fa565b602084810182905260408051808201909152601281527f5241494e5f464c4f575f53454e54494e454c00000000000000000000000000009101529094509050612c3b84867ffea74d0c9bf4a3c28f0dd0674db22a3d7f8bf259c56af19f4ac1e735b156974f60046129fa565b60408481018290528051808201909152601281527f5241494e5f464c4f575f53454e54494e454c00000000000000000000000000006020909101529094509050612ca884867ffea74d0c9bf4a3c28f0dd0674db22a3d7f8bf259c56af19f4ac1e735b156974f60056129fa565b60608401525090949350505050565b600073ffffffffffffffffffffffffffffffffffffffff84163b15612e9f576040517f150b7a0200000000000000000000000000000000000000000000000000000000815273ffffffffffffffffffffffffffffffffffffffff85169063150b7a0290612d2e903390899088908890600401615c5e565b6020604051808303816000875af1925050508015612d87575060408051601f3d9081017fffffffffffffffffffffffffffffffffffffffffffffffffffffffffffffffe0168201909252612d8491810190615ca7565b60015b612e54573d808015612db5576040519150601f19603f3d011682016040523d82523d6000602084013e612dba565b606091505b508051600003612e4c576040517f08c379a000000000000000000000000000000000000000000000000000000000815260206004820152603260248201527f4552433732313a207472616e7366657220746f206e6f6e20455243373231526560448201527f63656976657220696d706c656d656e7465720000000000000000000000000000606482015260840161068c565b805181602001fd5b7fffffffff00000000000000000000000000000000000000000000000000000000167f150b7a020000000000000000000000000000000000000000000000000000000014905061077b565b50600161077b565b6000807a184f03e93ff9f4daa797ed6e38ed64bf6a1f0100000000000000008310612ef0577a184f03e93ff9f4daa797ed6e38ed64bf6a1f010000000000000000830492506040015b6d04ee2d6d415b85acef81000000008310612f1c576d04ee2d6d415b85acef8100000000830492506020015b662386f26fc100008310612f3a57662386f26fc10000830492506010015b6305f5e1008310612f52576305f5e100830492506008015b6127108310612f6657612710830492506004015b60648310612f78576064830492506002015b600a83106104fa5760010192915050565b60408051600480825260a0820190925260609160009190602082016080803683375050506020810196909652505060408401929092526060830152608082015290565b60606000825167ffffffffffffffff811115612fea57612fea61479c565b604051908082528060200260200182016040528015613013578160200160208202803683370190505b50905060008084511161302757600061302d565b83516001015b865101600201905060008167ffffffffffffffff8111156130505761305061479c565b60405190808252806020026020018201604052801561308357816020015b606081526020019060019003908161306e5790505b5090506000613090613bd2565b8282815181106130a2576130a261583b565b602002602001018190525060005b88518110156131005781806001019250508881815181106130d3576130d361583b565b60200260200101518383815181106130ed576130ed61583b565b60209081029190910101526001016130b0565b5080806001019150508682828151811061311c5761311c61583b565b602090810291909101015285511561332b578080600101915050838282815181106131495761314961583b565b602002602001018190525060005b8651811015613329576132538782815181106131755761317561583b565b6020026020010151600001516132308984815181106131965761319661583b565b6020026020010151604001516040516020016131b29190615cc4565b604080517fffffffffffffffffffffffffffffffffffffffffffffffffffffffffffffffe081840301815282825280516020918201207f19457468657265756d205369676e6564204d6573736167653a0a33320000000084830152603c8085019190915282518085039091018152605c909301909152815191012090565b8984815181106132425761324261583b565b602002602001015160200151613be3565b61328c576040517f52bf98480000000000000000000000000000000000000000000000000000000081526004810182905260240161068c565b86818151811061329e5761329e61583b565b60200260200101516000015173ffffffffffffffffffffffffffffffffffffffff168582815181106132d2576132d261583b565b60200260200101818152505081806001019250508681815181106132f8576132f861583b565b6020026020010151604001518383815181106133165761331661583b565b6020908102919091010152600101613157565b505b509695505050505050565b6133408383613db0565b61334d6000848484612cb7565b610754576040517f08c379a000000000000000000000000000000000000000000000000000000000815260206004820152603260248201527f4552433732313a207472616e7366657220746f206e6f6e20455243373231526560448201527f63656976657220696d706c656d656e7465720000000000000000000000000000606482015260840161068c565b60408051606081018252600080825260208201819052918101829052819060005b8451518110156135e85784518051829081106134185761341861583b565b602002602001015191503373ffffffffffffffffffffffffffffffffffffffff16826000015173ffffffffffffffffffffffffffffffffffffffff16036134ea57602082015173ffffffffffffffffffffffffffffffffffffffff1630146134dc576040517f08c379a000000000000000000000000000000000000000000000000000000000815260206004820152601760248201527f554e535550504f525445445f4e41544956455f464c4f57000000000000000000604482015260640161068c565b8160400151840193506135e0565b815173ffffffffffffffffffffffffffffffffffffffff16301461356a576040517f08c379a000000000000000000000000000000000000000000000000000000000815260206004820152601760248201527f554e535550504f525445445f4e41544956455f464c4f57000000000000000000604482015260640161068c565b3373ffffffffffffffffffffffffffffffffffffffff16826020015173ffffffffffffffffffffffffffffffffffffffff16036135af578160400151830192506135e0565b6135e08260400151836020015173ffffffffffffffffffffffffffffffffffffffff16613ff190919063ffffffff16565b6001016133fa565b5082156135f757823403820191505b8115610ee057610ee03383613ff1565b6040805160808101825260008082526020820181905291810182905260608101829052905b826020015151811015610754578260200151818151811061364f5761364f61583b565b602002602001015191503373ffffffffffffffffffffffffffffffffffffffff16826020015173ffffffffffffffffffffffffffffffffffffffff16036136c6576040820151606083015183516136c19273ffffffffffffffffffffffffffffffffffffffff9091169133919061414b565b61378d565b3073ffffffffffffffffffffffffffffffffffffffff16826020015173ffffffffffffffffffffffffffffffffffffffff160361372b576040820151606083015183516136c19273ffffffffffffffffffffffffffffffffffffffff90911691614227565b6040517f08c379a000000000000000000000000000000000000000000000000000000000815260206004820152601660248201527f554e535550504f525445445f45524332305f464c4f5700000000000000000000604482015260640161068c565b60010161362c565b6040805160808101825260008082526020820181905291810182905260608101829052905b82604001515181101561075457826040015181815181106137dd576137dd61583b565b602002602001015191503373ffffffffffffffffffffffffffffffffffffffff16826020015173ffffffffffffffffffffffffffffffffffffffff16148061383e5750602082015173ffffffffffffffffffffffffffffffffffffffff1630145b6138a4576040517f08c379a000000000000000000000000000000000000000000000000000000000815260206004820152601760248201527f554e535550504f525445445f4552433732315f464c4f57000000000000000000604482015260640161068c565b81516020830151604080850151606086015191517f42842e0e00000000000000000000000000000000000000000000000000000000815273ffffffffffffffffffffffffffffffffffffffff9384166004820152908316602482015260448101919091529116906342842e0e90606401600060405180830381600087803b15801561392e57600080fd5b505af1158015613942573d6000803e3d6000fd5b5050600190920191506137ba9050565b6040805160a0810182526000808252602082018190529181018290526060810182905260808101829052905b82606001515181101561075457826060015181815181106139a1576139a161583b565b602002602001015191503373ffffffffffffffffffffffffffffffffffffffff16826020015173ffffffffffffffffffffffffffffffffffffffff161480613a025750602082015173ffffffffffffffffffffffffffffffffffffffff1630145b613a68576040517f08c379a000000000000000000000000000000000000000000000000000000000815260206004820152601860248201527f554e535550504f525445445f455243313135355f464c4f570000000000000000604482015260640161068c565b815160208301516040808501516060860151608087015192517ff242432a00000000000000000000000000000000000000000000000000000000815273ffffffffffffffffffffffffffffffffffffffff948516600482015291841660248301526044820152606481019190915260a06084820152600060a482015291169063f242432a9060c401600060405180830381600087803b158015613b0a57600080fd5b505af1158015613b1e573d6000803e3d6000fd5b50506001909201915061397e9050565b815115613b3e5781518083602001fd5b806040517f08c379a000000000000000000000000000000000000000000000000000000000815260040161068c9190614722565b600060608085613b8157600080fd5b6000806020860260208a039950602089035b808b1115613bb9578a518903613bab578a9350613bb9565b998190039991870191613b93565b505081613bc557600080fd5b8152969795505050505050565b6060613bde333061427d565b905090565b6000806000613bf285856142b1565b90925090506000816004811115613c0b57613c0b615cfa565b148015613c4357508573ffffffffffffffffffffffffffffffffffffffff168273ffffffffffffffffffffffffffffffffffffffff16145b15613c5357600192505050610bac565b6000808773ffffffffffffffffffffffffffffffffffffffff16631626ba7e60e01b8888604051602401613c88929190615d29565b604080517fffffffffffffffffffffffffffffffffffffffffffffffffffffffffffffffe08184030181529181526020820180517bffffffffffffffffffffffffffffffffffffffffffffffffffffffff167fffffffff00000000000000000000000000000000000000000000000000000000909416939093179092529051613d11919061593c565b600060405180830381855afa9150503d8060008114613d4c576040519150601f19603f3d011682016040523d82523d6000602084013e613d51565b606091505b5091509150818015613d64575080516020145b8015613da4575080517f1626ba7e0000000000000000000000000000000000000000000000000000000090613da29083016020908101908401615d42565b145b98975050505050505050565b73ffffffffffffffffffffffffffffffffffffffff8216613e2d576040517f08c379a000000000000000000000000000000000000000000000000000000000815260206004820181905260248201527f4552433732313a206d696e7420746f20746865207a65726f2061646472657373604482015260640161068c565b6000818152610163602052604090205473ffffffffffffffffffffffffffffffffffffffff1615613eba576040517f08c379a000000000000000000000000000000000000000000000000000000000815260206004820152601c60248201527f4552433732313a20746f6b656e20616c7265616479206d696e74656400000000604482015260640161068c565b613ec8600083836001612085565b6000818152610163602052604090205473ffffffffffffffffffffffffffffffffffffffff1615613f55576040517f08c379a000000000000000000000000000000000000000000000000000000000815260206004820152601c60248201527f4552433732313a20746f6b656e20616c7265616479206d696e74656400000000604482015260640161068c565b73ffffffffffffffffffffffffffffffffffffffff82166000818152610164602090815260408083208054600101905584835261016390915280822080547fffffffffffffffffffffffff0000000000000000000000000000000000000000168417905551839291907fddf252ad1be2c89b69c2b068fc378daa952ba7f163c4a11628f55a4df523b3ef908290a4610b77600083836001612143565b8047101561405b576040517f08c379a000000000000000000000000000000000000000000000000000000000815260206004820152601d60248201527f416464726573733a20696e73756666696369656e742062616c616e6365000000604482015260640161068c565b60008273ffffffffffffffffffffffffffffffffffffffff168260405160006040518083038185875af1925050503d80600081146140b5576040519150601f19603f3d011682016040523d82523d6000602084013e6140ba565b606091505b5050905080610754576040517f08c379a000000000000000000000000000000000000000000000000000000000815260206004820152603a60248201527f416464726573733a20756e61626c6520746f2073656e642076616c75652c207260448201527f6563697069656e74206d61792068617665207265766572746564000000000000606482015260840161068c565b60405173ffffffffffffffffffffffffffffffffffffffff80851660248301528316604482015260648101829052610ee09085907f23b872dd00000000000000000000000000000000000000000000000000000000906084015b604080517fffffffffffffffffffffffffffffffffffffffffffffffffffffffffffffffe08184030181529190526020810180517bffffffffffffffffffffffffffffffffffffffffffffffffffffffff167fffffffff00000000000000000000000000000000000000000000000000000000909316929092179091526142f6565b60405173ffffffffffffffffffffffffffffffffffffffff83166024820152604481018290526107549084907fa9059cbb00000000000000000000000000000000000000000000000000000000906064016141a5565b6040805160028082526060808301845292600092919060208301908036833750505060208101949094525050604082015290565b60008082516041036142e75760208301516040840151606085015160001a6142db87828585614402565b945094505050506142ef565b506000905060025b9250929050565b6000614358826040518060400160405280602081526020017f5361666545524332303a206c6f772d6c6576656c2063616c6c206661696c65648152508573ffffffffffffffffffffffffffffffffffffffff166144ee9092919063ffffffff16565b80519091501561075457808060200190518101906143769190615d5b565b610754576040517f08c379a000000000000000000000000000000000000000000000000000000000815260206004820152602a60248201527f5361666545524332303a204552433230206f7065726174696f6e20646964206e60448201527f6f74207375636365656400000000000000000000000000000000000000000000606482015260840161068c565b6000807f7fffffffffffffffffffffffffffffff5d576e7357a4501ddfe92f46681b20a08311156144395750600090506003612aa2565b6040805160008082526020820180845289905260ff881692820192909252606081018690526080810185905260019060a0016020604051602081039080840390855afa15801561448d573d6000803e3d6000fd5b50506040517fffffffffffffffffffffffffffffffffffffffffffffffffffffffffffffffe0015191505073ffffffffffffffffffffffffffffffffffffffff81166144e157600060019250925050612aa2565b9660009650945050505050565b6060610ba98484600085856000808673ffffffffffffffffffffffffffffffffffffffff168587604051614522919061593c565b60006040518083038185875af1925050503d806000811461455f576040519150601f19603f3d011682016040523d82523d6000602084013e614564565b606091505b509150915061457587838387614580565b979650505050505050565b6060831561461657825160000361460f5773ffffffffffffffffffffffffffffffffffffffff85163b61460f576040517f08c379a000000000000000000000000000000000000000000000000000000000815260206004820152601d60248201527f416464726573733a2063616c6c20746f206e6f6e2d636f6e7472616374000000604482015260640161068c565b508161077b565b61077b8383613b2e565b604051806060016040528060608152602001606081526020016146646040518060800160405280606081526020016060815260200160608152602001606081525090565b905290565b7fffffffff000000000000000000000000000000000000000000000000000000008116811461108757600080fd5b6000602082840312156146a957600080fd5b8135610bac81614669565b60005b838110156146cf5781810151838201526020016146b7565b50506000910152565b600081518084526146f08160208601602086016146b4565b601f017fffffffffffffffffffffffffffffffffffffffffffffffffffffffffffffffe0169290920160200192915050565b602081526000610bac60208301846146d8565b60006020828403121561474757600080fd5b5035919050565b73ffffffffffffffffffffffffffffffffffffffff8116811461108757600080fd5b6000806040838503121561478357600080fd5b823561478e8161474e565b946020939093013593505050565b7f4e487b7100000000000000000000000000000000000000000000000000000000600052604160045260246000fd5b6040516060810167ffffffffffffffff811182821017156147ee576147ee61479c565b60405290565b6040805190810167ffffffffffffffff811182821017156147ee576147ee61479c565b604051601f82017fffffffffffffffffffffffffffffffffffffffffffffffffffffffffffffffe016810167ffffffffffffffff8111828210171561485e5761485e61479c565b604052919050565b600082601f83011261487757600080fd5b813567ffffffffffffffff8111156148915761489161479c565b6148c260207fffffffffffffffffffffffffffffffffffffffffffffffffffffffffffffffe0601f84011601614817565b8181528460208386010111156148d757600080fd5b816020850160208301376000918101602001919091529392505050565b6000806000806080858703121561490a57600080fd5b84356149158161474e565b935060208501356149258161474e565b925060408501359150606085013567ffffffffffffffff81111561494857600080fd5b61495487828801614866565b91505092959194509250565b60008060006060848603121561497557600080fd5b83356149808161474e565b925060208401356149908161474e565b929592945050506040919091013590565b6000602082840312156149b357600080fd5b813567ffffffffffffffff8111156149ca57600080fd5b820160808185031215610bac57600080fd5b600067ffffffffffffffff8211156149f6576149f661479c565b5060051b60200190565b600082601f830112614a1157600080fd5b81356020614a26614a21836149dc565b614817565b82815260059290921b84018101918181019086841115614a4557600080fd5b8286015b8481101561332b5780358352918301918301614a49565b600080600060608486031215614a7557600080fd5b8335925060208085013567ffffffffffffffff80821115614a9557600080fd5b614aa188838901614a00565b94506040870135915080821115614ab757600080fd5b818701915087601f830112614acb57600080fd5b8135614ad9614a21826149dc565b81815260059190911b8301840190848101908a831115614af857600080fd5b8585015b83811015614bbb57803585811115614b145760008081fd5b86016060818e037fffffffffffffffffffffffffffffffffffffffffffffffffffffffffffffffe0011215614b495760008081fd5b614b516147cb565b88820135614b5e8161474e565b8152604082013587811115614b735760008081fd5b614b818f8b83860101614866565b8a83015250606082013587811115614b995760008081fd5b614ba78f8b83860101614a00565b604083015250845250918601918601614afc565b508096505050505050509250925092565b600081518084526020808501945080840160005b83811015614c1d578151805173ffffffffffffffffffffffffffffffffffffffff1688528301518388015260409096019590820190600101614be0565b509495945050505050565b600081518084526020808501945080840160005b83811015614c1d578151805173ffffffffffffffffffffffffffffffffffffffff9081168952848201518116858a0152604080830151909116908901526060908101519088015260809096019590820190600101614c3c565b600081518084526020808501945080840160005b83811015614c1d578151805173ffffffffffffffffffffffffffffffffffffffff9081168952848201518116858a015260408083015190911690890152606080820151908901526080908101519088015260a09096019590820190600101614ca9565b60006020808352835160608083860152614d296080860183614bcc565b9150828601517fffffffffffffffffffffffffffffffffffffffffffffffffffffffffffffffe06040818886030181890152614d658584614bcc565b89820151898203909301858a01528251608080835281519083018190529196509293509186019160009060a08701905b80831015614ddf578451805173ffffffffffffffffffffffffffffffffffffffff90811684528a820151168a84015284015184830152938801936001929092019190860190614d95565b5087850151935086810388880152614df78185614c28565b975050508083015191508486038186015250614e138582614c28565b945050818101519050828403828401526145758482614c95565b600060208284031215614e3f57600080fd5b8135610bac8161474e565b801515811461108757600080fd5b60008060408385031215614e6b57600080fd5b8235614e768161474e565b91506020830135614e8681614e4a565b809150509250929050565b60008060208385031215614ea457600080fd5b823567ffffffffffffffff80821115614ebc57600080fd5b818501915085601f830112614ed057600080fd5b813581811115614edf57600080fd5b8660208260051b8501011115614ef457600080fd5b60209290920196919550909350505050565b600081518084526020808501808196508360051b8101915082860160005b85811015614f4e578284038952614f3c8483516146d8565b98850198935090840190600101614f24565b5091979650505050505050565b602081526000610bac6020830184614f06565b600080600080600060a08688031215614f8657600080fd5b8535614f918161474e565b94506020860135614fa18161474e565b9350604086013567ffffffffffffffff80821115614fbe57600080fd5b614fca89838a01614a00565b94506060880135915080821115614fe057600080fd5b614fec89838a01614a00565b9350608088013591508082111561500257600080fd5b5061500f88828901614866565b9150509295509295909350565b6000806040838503121561502f57600080fd5b823561503a8161474e565b91506020830135614e868161474e565b600080600080600060a0868803121561506257600080fd5b853561506d8161474e565b9450602086013561507d8161474e565b93506040860135925060608601359150608086013567ffffffffffffffff8111156150a757600080fd5b61500f88828901614866565b600181811c908216806150c757607f821691505b602082108103615100577f4e487b7100000000000000000000000000000000000000000000000000000000600052602260045260246000fd5b50919050565b60008083357fffffffffffffffffffffffffffffffffffffffffffffffffffffffffffffffe184360301811261513b57600080fd5b830160208101925035905067ffffffffffffffff81111561515b57600080fd5b8036038213156142ef57600080fd5b8183528181602085013750600060208284010152600060207fffffffffffffffffffffffffffffffffffffffffffffffffffffffffffffffe0601f840116840101905092915050565b600082357fffffffffffffffffffffffffffffffffffffffffffffffffffffffffffffffc18336030181126151e757600080fd5b90910192915050565b60008083357fffffffffffffffffffffffffffffffffffffffffffffffffffffffffffffffe184360301811261522557600080fd5b830160208101925035905067ffffffffffffffff81111561524557600080fd5b8060051b36038213156142ef57600080fd5b60006040830161526783846151f0565b604086528281845260608701905060608260051b88010193508260005b838110156152df577fffffffffffffffffffffffffffffffffffffffffffffffffffffffffffffffa08987030183526152bd8286615106565b6152c888828461516a565b975050506020928301929190910190600101615284565b50505050506152f160208401846151f0565b85830360208701528083527f07ffffffffffffffffffffffffffffffffffffffffffffffffffffffffffffff81111561532957600080fd5b60051b8082602085013791909101602001949350505050565b600073ffffffffffffffffffffffffffffffffffffffff808516835260206040818501526153708586615106565b6080604087015261538560c08701828461516a565b91505061539482870187615106565b7fffffffffffffffffffffffffffffffffffffffffffffffffffffffffffffffc0808885030160608901526153ca84838561516a565b93506153d960408a018a6151b3565b9250808885030160808901526153ef8484615257565b9350606089013592507fffffffffffffffffffffffffffffffffffffffffffffffffffffffffffffffa189360301831261542857600080fd5b8784030160a08801525086016060820181356154438161474e565b85168352818401356154548161474e565b85168385015261546760408301836151f0565b95509150606060408401528085825260808401905060808660051b85010191508260005b878110156154df577fffffffffffffffffffffffffffffffffffffffffffffffffffffffffffffff808685030183526154cd846154c884886151b3565b615257565b9350918601919086019060010161548b565b50919a9950505050505050505050565b60008083357fffffffffffffffffffffffffffffffffffffffffffffffffffffffffffffffe184360301811261552457600080fd5b83018035915067ffffffffffffffff82111561553f57600080fd5b6020019150368190038213156142ef57600080fd5b600082357fffffffffffffffffffffffffffffffffffffffffffffffffffffffffffffffa183360301811261558857600080fd5b9190910192915050565b600082357fffffffffffffffffffffffffffffffffffffffffffffffffffffffffffffffc183360301811261558857600080fd5b600081518084526020808501945080840160005b83811015614c1d578151875295820195908201906001016155da565b6040815260006156096040830185615257565b8281036020840152611d6581856155c6565b60006020828403121561562d57600080fd5b8151610bac8161474e565b60006060823603121561564a57600080fd5b6156526147cb565b61565c833561474e565b8235815260208084013561566f8161474e565b8282015260408481013567ffffffffffffffff8082111561568f57600080fd5b9086019036601f8301126156a257600080fd5b81356156b0614a21826149dc565b81815260059190911b830185019085810190368311156156cf57600080fd5b8685015b838110156157e55784813511156156e957600080fd5b80358601877fffffffffffffffffffffffffffffffffffffffffffffffffffffffffffffffe082360301121561571e57600080fd5b6157266147f4565b898201358781111561573757600080fd5b820136603f82011261574857600080fd5b8a810135615758614a21826149dc565b81815260059190911b82018b01908c8101903683111561577757600080fd5b8c84015b838110156157ad578b8135111561579157600080fd5b6157a0368f8335880101614866565b8352918e01918e0161577b565b50845250505081890135878111156157c457600080fd5b6157d2368c83860101614a00565b828c0152508452509187019187016156d3565b509487019490945250939695505050505050565b7f4e487b7100000000000000000000000000000000000000000000000000000000600052601160045260246000fd5b808201808211156104fa576104fa6157f9565b7f4e487b7100000000000000000000000000000000000000000000000000000000600052603260045260246000fd5b60007fffffffffffffffffffffffffffffffffffffffffffffffffffffffffffffffff820361589b5761589b6157f9565b5060010190565b600083516158b48184602088016146b4565b8351908301906158c88183602088016146b4565b01949350505050565b60408152600083516040808401526158ec6080840182614f06565b905060208501517fffffffffffffffffffffffffffffffffffffffffffffffffffffffffffffffc084830301606085015261592782826155c6565b9150508281036020840152611d6581856155c6565b600082516155888184602087016146b4565b818103818111156104fa576104fa6157f9565b600060408201848352602060408185015281855180845260608601915060608160051b870101935082870160005b828110156159db577fffffffffffffffffffffffffffffffffffffffffffffffffffffffffffffffa08887030184526159c98683516155c6565b9550928401929084019060010161598f565b509398975050505050505050565b600082601f8301126159fa57600080fd5b81516020615a0a614a21836149dc565b82815260059290921b84018101918181019086841115615a2957600080fd5b8286015b8481101561332b5780518352918301918301615a2d565b60008060408385031215615a5757600080fd5b825167ffffffffffffffff80821115615a6f57600080fd5b615a7b868387016159e9565b93506020850151915080821115615a9157600080fd5b50615a9e858286016159e9565b9150509250929050565b602081526000610bac60208301846155c6565b601f82111561075457600081815260208120601f850160051c81016020861015615ae25750805b601f850160051c820191505b81811015615b0157828155600101615aee565b505050505050565b815167ffffffffffffffff811115615b2357615b2361479c565b615b3781615b3184546150b3565b84615abb565b602080601f831160018114615b8a5760008415615b545750858301515b7fffffffffffffffffffffffffffffffffffffffffffffffffffffffffffffffff600386901b1c1916600185901b178555615b01565b6000858152602081207fffffffffffffffffffffffffffffffffffffffffffffffffffffffffffffffe08616915b82811015615bd757888601518255948401946001909101908401615bb8565b5085821015615c1357878501517fffffffffffffffffffffffffffffffffffffffffffffffffffffffffffffffff600388901b60f8161c191681555b5050505050600190811b01905550565b600082615c59577f4e487b7100000000000000000000000000000000000000000000000000000000600052601260045260246000fd5b500490565b600073ffffffffffffffffffffffffffffffffffffffff808716835280861660208401525083604083015260806060830152615c9d60808301846146d8565b9695505050505050565b600060208284031215615cb957600080fd5b8151610bac81614669565b815160009082906020808601845b83811015615cee57815185529382019390820190600101615cd2565b50929695505050505050565b7f4e487b7100000000000000000000000000000000000000000000000000000000600052602160045260246000fd5b828152604060208201526000610ba960408301846146d8565b600060208284031215615d5457600080fd5b5051919050565b600060208284031215615d6d57600080fd5b8151610bac81614e4a56fe416464726573733a206c6f772d6c6576656c2064656c65676174652063616c6c206661696c6564a2646970667358221220a2130e625e8599d3d38d5705fa7629f4ad1901d1da798a0bce9180f6276c564264736f6c63430008110033",
  "devdoc": {
    "events": {
      "Initialize(address,(string,string,(bytes[],uint256[]),(address,address,(bytes[],uint256[])[])))": {
        "params": {
          "config": "All initialized config.",
          "sender": "`msg.sender` initializing the contract (factory)."
        }
      }
    },
    "kind": "dev",
    "methods": {
      "approve(address,uint256)": {
        "details": "See {IERC721-approve}."
      },
      "balanceOf(address)": {
        "details": "See {IERC721-balanceOf}."
      },
      "getApproved(uint256)": {
        "details": "See {IERC721-getApproved}."
      },
      "initialize((string,string,(bytes[],uint256[]),(address,address,(bytes[],uint256[])[])))": {
        "params": {
          "config_": "source and token config. Also controls delegated claims."
        }
      },
      "isApprovedForAll(address,address)": {
        "details": "See {IERC721-isApprovedForAll}."
      },
      "multicall(bytes[])": {
        "details": "Receives and executes a batch of function calls on this contract."
      },
      "name()": {
        "details": "See {IERC721Metadata-name}."
      },
      "onERC721Received(address,address,uint256,bytes)": {
        "details": "See {IERC721Receiver-onERC721Received}. Always returns `IERC721Receiver.onERC721Received.selector`."
      },
      "ownerOf(uint256)": {
        "details": "See {IERC721-ownerOf}."
      },
      "safeTransferFrom(address,address,uint256)": {
        "details": "See {IERC721-safeTransferFrom}."
      },
      "safeTransferFrom(address,address,uint256,bytes)": {
        "details": "See {IERC721-safeTransferFrom}."
      },
      "setApprovalForAll(address,bool)": {
        "details": "See {IERC721-setApprovalForAll}."
      },
      "symbol()": {
        "details": "See {IERC721Metadata-symbol}."
      },
      "tokenURI(uint256)": {
        "details": "See {IERC721Metadata-tokenURI}."
      },
      "transferFrom(address,address,uint256)": {
        "details": "See {IERC721-transferFrom}."
      }
    },
    "title": "FlowERC721",
    "version": 1
  },
  "userdoc": {
    "errors": {
      "InvalidSignature(uint256)": [
        {
          "notice": "Thrown when the ith signature from a list of signed contexts is invalid."
        }
      ]
    },
    "events": {
      "Initialize(address,(string,string,(bytes[],uint256[]),(address,address,(bytes[],uint256[])[])))": {
        "notice": "Contract has initialized."
      }
    },
    "kind": "user",
    "methods": {
      "supportsInterface(bytes4)": {
        "notice": "Needed here to fix Open Zeppelin implementing `supportsInterface` on multiple base contracts."
      }
    },
    "version": 1
  }
}