{
  "address": "0xd99F419f2d01B0dCe9CcB7FB2CC3D682e68aD691",
  "abi": [
    {
      "inputs": [
        {
          "internalType": "uint256",
          "name": "maxTimeoutDuration_",
          "type": "uint256"
        }
      ],
      "stateMutability": "nonpayable",
      "type": "constructor"
    },
    {
      "inputs": [],
      "name": "BadPhase",
      "type": "error"
    },
    {
      "inputs": [
        {
          "internalType": "uint256",
          "name": "i",
          "type": "uint256"
        }
      ],
      "name": "InvalidSignature",
      "type": "error"
    },
    {
      "anonymous": false,
      "inputs": [
        {
          "indexed": false,
          "internalType": "address",
          "name": "sender",
          "type": "address"
        },
        {
          "indexed": false,
          "internalType": "uint256",
          "name": "share",
          "type": "uint256"
        },
        {
          "indexed": false,
          "internalType": "uint256",
          "name": "amount",
          "type": "uint256"
        }
      ],
      "name": "Claim",
      "type": "event"
    },
    {
      "anonymous": false,
      "inputs": [
        {
          "indexed": false,
          "internalType": "address",
          "name": "sender",
          "type": "address"
        },
        {
          "indexed": false,
          "internalType": "address",
          "name": "token",
          "type": "address"
        },
        {
          "indexed": false,
          "internalType": "uint256",
          "name": "amount",
          "type": "uint256"
        }
      ],
      "name": "Deposit",
      "type": "event"
    },
    {
      "anonymous": false,
      "inputs": [
        {
          "indexed": false,
          "internalType": "address",
          "name": "sender",
          "type": "address"
        },
        {
          "components": [
            {
              "internalType": "bool",
              "name": "refMustAgree",
              "type": "bool"
            },
            {
              "internalType": "address",
              "name": "ref",
              "type": "address"
            },
            {
              "internalType": "address",
              "name": "expressionDeployer",
              "type": "address"
            },
            {
              "internalType": "address",
              "name": "interpreter",
              "type": "address"
            },
            {
              "internalType": "address",
              "name": "token",
              "type": "address"
            },
            {
              "components": [
                {
                  "internalType": "bytes[]",
                  "name": "sources",
                  "type": "bytes[]"
                },
                {
                  "internalType": "uint256[]",
                  "name": "constants",
                  "type": "uint256[]"
                }
              ],
              "internalType": "struct StateConfig",
              "name": "stateConfig",
              "type": "tuple"
            },
            {
              "internalType": "bytes",
              "name": "description",
              "type": "bytes"
            },
            {
              "internalType": "uint256",
              "name": "timeoutDuration",
              "type": "uint256"
            }
          ],
          "indexed": false,
          "internalType": "struct LobbyConfig",
          "name": "config",
          "type": "tuple"
        }
      ],
      "name": "Initialize",
      "type": "event"
    },
    {
      "anonymous": false,
      "inputs": [
        {
          "indexed": false,
          "internalType": "uint8",
          "name": "version",
          "type": "uint8"
        }
      ],
      "name": "Initialized",
      "type": "event"
    },
    {
      "anonymous": false,
      "inputs": [
        {
          "indexed": false,
          "internalType": "address",
          "name": "sender",
          "type": "address"
        },
        {
          "indexed": false,
          "internalType": "uint256[]",
          "name": "callerContext",
          "type": "uint256[]"
        },
        {
          "components": [
            {
              "internalType": "address",
              "name": "signer",
              "type": "address"
            },
            {
              "internalType": "bytes",
              "name": "signature",
              "type": "bytes"
            },
            {
              "internalType": "uint256[]",
              "name": "context",
              "type": "uint256[]"
            }
          ],
          "indexed": false,
          "internalType": "struct SignedContext[]",
          "name": "signedContext",
          "type": "tuple[]"
        }
      ],
      "name": "Invalid",
      "type": "event"
    },
    {
      "anonymous": false,
      "inputs": [
        {
          "indexed": false,
          "internalType": "address",
          "name": "sender",
          "type": "address"
        }
      ],
      "name": "Join",
      "type": "event"
    },
    {
      "anonymous": false,
      "inputs": [
        {
          "indexed": false,
          "internalType": "address",
          "name": "sender",
          "type": "address"
        },
        {
          "indexed": false,
          "internalType": "address",
          "name": "token",
          "type": "address"
        },
        {
          "indexed": false,
          "internalType": "uint256",
          "name": "deposit",
          "type": "uint256"
        },
        {
          "indexed": false,
          "internalType": "uint256",
          "name": "amount",
          "type": "uint256"
        }
      ],
      "name": "Leave",
      "type": "event"
    },
    {
      "anonymous": false,
      "inputs": [
        {
          "indexed": false,
          "internalType": "address",
          "name": "sender",
          "type": "address"
        },
        {
          "indexed": false,
          "internalType": "uint256",
          "name": "newPhase",
          "type": "uint256"
        },
        {
          "indexed": false,
          "internalType": "uint256",
          "name": "scheduledTime",
          "type": "uint256"
        }
      ],
      "name": "PhaseScheduled",
      "type": "event"
    },
    {
      "anonymous": false,
      "inputs": [
        {
          "indexed": false,
          "internalType": "address",
          "name": "sender",
          "type": "address"
        }
      ],
      "name": "PlayersFinalised",
      "type": "event"
    },
    {
      "anonymous": false,
      "inputs": [
        {
          "indexed": false,
          "internalType": "address",
          "name": "sender",
          "type": "address"
        },
        {
          "indexed": false,
          "internalType": "uint256",
          "name": "amount",
          "type": "uint256"
        }
      ],
      "name": "Refund",
      "type": "event"
    },
    {
      "inputs": [
        {
          "internalType": "uint256[]",
          "name": "callerContext_",
          "type": "uint256[]"
        },
        {
          "components": [
            {
              "internalType": "address",
              "name": "signer",
              "type": "address"
            },
            {
              "internalType": "bytes",
              "name": "signature",
              "type": "bytes"
            },
            {
              "internalType": "uint256[]",
              "name": "context",
              "type": "uint256[]"
            }
          ],
          "internalType": "struct SignedContext[]",
          "name": "signedContexts_",
          "type": "tuple[]"
        }
      ],
      "name": "claim",
      "outputs": [],
      "stateMutability": "nonpayable",
      "type": "function"
    },
    {
      "inputs": [],
      "name": "currentPhase",
      "outputs": [
        {
          "internalType": "uint256",
          "name": "phase_",
          "type": "uint256"
        }
      ],
      "stateMutability": "view",
      "type": "function"
    },
    {
      "inputs": [
        {
          "internalType": "uint256",
          "name": "amount_",
          "type": "uint256"
        }
      ],
      "name": "deposit",
      "outputs": [],
      "stateMutability": "nonpayable",
      "type": "function"
    },
    {
      "inputs": [
        {
          "components": [
            {
              "internalType": "bool",
              "name": "refMustAgree",
              "type": "bool"
            },
            {
              "internalType": "address",
              "name": "ref",
              "type": "address"
            },
            {
              "internalType": "address",
              "name": "expressionDeployer",
              "type": "address"
            },
            {
              "internalType": "address",
              "name": "interpreter",
              "type": "address"
            },
            {
              "internalType": "address",
              "name": "token",
              "type": "address"
            },
            {
              "components": [
                {
                  "internalType": "bytes[]",
                  "name": "sources",
                  "type": "bytes[]"
                },
                {
                  "internalType": "uint256[]",
                  "name": "constants",
                  "type": "uint256[]"
                }
              ],
              "internalType": "struct StateConfig",
              "name": "stateConfig",
              "type": "tuple"
            },
            {
              "internalType": "bytes",
              "name": "description",
              "type": "bytes"
            },
            {
              "internalType": "uint256",
              "name": "timeoutDuration",
              "type": "uint256"
            }
          ],
          "internalType": "struct LobbyConfig",
          "name": "config_",
          "type": "tuple"
        }
      ],
      "name": "initialize",
      "outputs": [],
      "stateMutability": "nonpayable",
      "type": "function"
    },
    {
      "inputs": [
        {
          "internalType": "uint256[]",
          "name": "callerContext_",
          "type": "uint256[]"
        },
        {
          "components": [
            {
              "internalType": "address",
              "name": "signer",
              "type": "address"
            },
            {
              "internalType": "bytes",
              "name": "signature",
              "type": "bytes"
            },
            {
              "internalType": "uint256[]",
              "name": "context",
              "type": "uint256[]"
            }
          ],
          "internalType": "struct SignedContext[]",
          "name": "signedContexts_",
          "type": "tuple[]"
        }
      ],
      "name": "invalid",
      "outputs": [],
      "stateMutability": "nonpayable",
      "type": "function"
    },
    {
      "inputs": [
        {
          "internalType": "uint256[]",
          "name": "callerContext_",
          "type": "uint256[]"
        },
        {
          "components": [
            {
              "internalType": "address",
              "name": "signer",
              "type": "address"
            },
            {
              "internalType": "bytes",
              "name": "signature",
              "type": "bytes"
            },
            {
              "internalType": "uint256[]",
              "name": "context",
              "type": "uint256[]"
            }
          ],
          "internalType": "struct SignedContext[]",
          "name": "signedContexts_",
          "type": "tuple[]"
        }
      ],
      "name": "join",
      "outputs": [],
      "stateMutability": "nonpayable",
      "type": "function"
    },
    {
      "inputs": [
        {
          "internalType": "uint256[]",
          "name": "callerContext_",
          "type": "uint256[]"
        },
        {
          "components": [
            {
              "internalType": "address",
              "name": "signer",
              "type": "address"
            },
            {
              "internalType": "bytes",
              "name": "signature",
              "type": "bytes"
            },
            {
              "internalType": "uint256[]",
              "name": "context",
              "type": "uint256[]"
            }
          ],
          "internalType": "struct SignedContext[]",
          "name": "signedContext_",
          "type": "tuple[]"
        }
      ],
      "name": "leave",
      "outputs": [],
      "stateMutability": "nonpayable",
      "type": "function"
    },
    {
      "inputs": [
        {
          "internalType": "uint32[8]",
          "name": "phaseTimes_",
          "type": "uint32[8]"
        },
        {
          "internalType": "uint256",
          "name": "timestamp_",
          "type": "uint256"
        }
      ],
      "name": "phaseAtTime",
      "outputs": [
        {
          "internalType": "uint256",
          "name": "phase_",
          "type": "uint256"
        }
      ],
      "stateMutability": "pure",
      "type": "function"
    },
    {
      "inputs": [
        {
          "internalType": "uint256",
          "name": "",
          "type": "uint256"
        }
      ],
      "name": "phaseTimes",
      "outputs": [
        {
          "internalType": "uint32",
          "name": "",
          "type": "uint32"
        }
      ],
      "stateMutability": "view",
      "type": "function"
    },
    {
      "inputs": [],
      "name": "refAgrees",
      "outputs": [],
      "stateMutability": "nonpayable",
      "type": "function"
    },
    {
      "inputs": [],
      "name": "refund",
      "outputs": [],
      "stateMutability": "nonpayable",
      "type": "function"
    },
    {
      "inputs": [
        {
          "internalType": "uint32[8]",
          "name": "phaseTimes_",
          "type": "uint32[8]"
        },
        {
          "internalType": "uint256",
          "name": "phase_",
          "type": "uint256"
        }
      ],
      "name": "timeForPhase",
      "outputs": [
        {
          "internalType": "uint256",
          "name": "timestamp_",
          "type": "uint256"
        }
      ],
      "stateMutability": "pure",
      "type": "function"
    }
  ],
  "transactionHash": "0x8b759d486e06b5d79a3944907cdc6b5b37f9e9cf75032769a108e716496517bd",
  "args": [
    15000000
  ],
  "numDeployments": 1,
  "bytecode": "0x60a06040523480156200001157600080fd5b50604051620036b5380380620036b583398101604081905262000034916200003d565b60805262000057565b6000602082840312156200005057600080fd5b5051919050565b608051613642620000736000396000610ede01526136426000f3fe608060405234801561001057600080fd5b50600436106100d45760003560e01c80637b3d9fb811610081578063a03e60dd1161005b578063a03e60dd14610198578063b6b55f25146101ab578063cf8fd726146101be57600080fd5b80637b3d9fb81461014a57806393c965571461015d578063997b359e1461018557600080fd5b8063500db45e116100b2578063500db45e1461011c578063590e1ae31461012f5780635d521c101461013757600080fd5b806301a4acfa146100d9578063055ad42e146100ee5780631cf355e814610109575b600080fd5b6100ec6100e7366004612b9b565b6101c6565b005b6100f6610598565b6040519081526020015b60405180910390f35b6100f6610117366004612d4b565b610602565b6100ec61012a366004612b9b565b610641565b6100ec610764565b6100f6610145366004612d4b565b61082c565b6100ec610158366004612b9b565b610873565b61017061016b366004612de1565b610d61565b60405163ffffffff9091168152602001610100565b6100ec610193366004612dfa565b610d91565b6100ec6101a6366004612b9b565b6111c6565b6100ec6101b9366004612de1565b61150a565b6100ec611528565b6001806101d1610598565b14610208576040517f301c306b00000000000000000000000000000000000000000000000000000000815260040160405180910390fd5b336000908152603a602052604090205415610284576040517f08c379a000000000000000000000000000000000000000000000000000000000815260206004820152600f60248201527f4f4e4c595f4e4f4e5f504c41594552000000000000000000000000000000000060448201526064015b60405180910390fd5b60365473ffffffffffffffffffffffffffffffffffffffff163303610305576040517f08c379a000000000000000000000000000000000000000000000000000000000815260206004820152600c60248201527f4f4e4c595f4e4f4e5f5245460000000000000000000000000000000000000000604482015260640161027b565b61030d6115f6565b60385473ffffffffffffffffffffffffffffffffffffffff16600080826390e7d00b61035d60395460009060201b77ffffffffffffffffffffffffffffffffffffffff0000000016600217905090565b61039e60005b60405190808252806020026020018201604052801561039657816020015b60608152602001906001900390816103815790505b508a8a611667565b6040518363ffffffff1660e01b81526004016103bb929190612e71565b600060405180830381865afa1580156103d8573d6000803e3d6000fd5b505050506040513d6000823e601f3d9081017fffffffffffffffffffffffffffffffffffffffffffffffffffffffffffffffe016820160405261041e9190810190612f54565b9150915060008260028451038151811061043a5761043a612fb8565b6020026020010151905060008360018551038151811061045c5761045c612fb8565b602090810291909101810151336000908152603a9092526040918290206001905590517fce0dd62800000000000000000000000000000000000000000000000000000000815290915073ffffffffffffffffffffffffffffffffffffffff86169063ce0dd628906104d1908690600401612fe7565b600060405180830381600087803b1580156104eb57600080fd5b505af11580156104ff573d6000803e3d6000fd5b5050505061050c81611970565b6040513381527f0764c80c4165f118547b301a0b4b91eac21bd2f2d9b61d0ac723ff0aab27bb799060200160405180910390a1811561058457610550600242611a1b565b6040513381527f90918ab0d30e0330d3f5458a4e53d30ec3c03a164673a0a736814dc9fddcb71f9060200160405180910390a15b50505050506105936001600255565b505050565b604080516101008101918290526000916105fd919083906008908280855b82829054906101000a900463ffffffff1663ffffffff16815260200190600401906020826003010492830192600103820291508084116105b657905050505050504261082c565b905090565b6000808211610612576000610634565b8261061e600184613029565b6008811061062e5761062e612fb8565b60200201515b63ffffffff169392505050565b60038061064c610598565b03610683576040517f301c306b00000000000000000000000000000000000000000000000000000000815260040160405180910390fd5b61068d8383611cbe565b6106f3576040517f08c379a000000000000000000000000000000000000000000000000000000000815260206004820152600b60248201527f4e4f545f494e56414c4944000000000000000000000000000000000000000000604482015260640161027b565b60046106fd610598565b10156107245761071f61070e610598565b61071990600161303c565b42611a1b565b6106f3565b7f105efb54c1671406f08698f3253405ad85182c2f493d5c6f5f7e03aff28839b433848460405161075793929190613159565b60405180910390a1505050565b60048061076f610598565b146107a6576040517f301c306b00000000000000000000000000000000000000000000000000000000815260040160405180910390fd5b336000818152603b602052604090205460375490916107dc9173ffffffffffffffffffffffffffffffffffffffff169083611e69565b336000818152603b6020908152604080832092909255815192835282018390527fbb28353e4598c3b9199101a66e0989549b659a59a54d2c27fbb183f1932c8e6d91015b60405180910390a15050565b60005b600881101561086d5782816008811061084a5761084a612fb8565b602002015163ffffffff16821061086d5780610865816131a4565b91505061082f565b92915050565b60028061087e610598565b10156108e6576040517f08c379a000000000000000000000000000000000000000000000000000000000815260206004820152600960248201527f4d494e5f50484153450000000000000000000000000000000000000000000000604482015260640161027b565b6004806108f1610598565b03610928576040517f301c306b00000000000000000000000000000000000000000000000000000000815260040160405180910390fd5b6109306115f6565b600061093b84611f3d565b90506002610947610598565b036109c657603554156109b6576040517f08c379a000000000000000000000000000000000000000000000000000000000815260206004820152600860248201527f484153485f534554000000000000000000000000000000000000000000000000604482015260640161027b565b60358190556109c6600342611a1b565b60036109d0610598565b14610a07576040517f301c306b00000000000000000000000000000000000000000000000000000000815260040160405180910390fd5b8060355414610a72576040517f08c379a000000000000000000000000000000000000000000000000000000000815260206004820152600860248201527f4241445f48415348000000000000000000000000000000000000000000000000604482015260640161027b565b336000908152603d60205260408120549003610c8257603854600090819073ffffffffffffffffffffffffffffffffffffffff166390e7d00b610ad960395477ffffffffffffffffffffffffffffffffffffffff0000000060209190911b16620200011790565b60408051600080825260208201909252610b0f91610b07565b6060815260200190600190039081610af25790505b508b8b611667565b6040518363ffffffff1660e01b8152600401610b2c929190612e71565b600060405180830381865afa158015610b49573d6000803e3d6000fd5b505050506040513d6000823e601f3d9081017fffffffffffffffffffffffffffffffffffffffffffffffffffffffffffffffe0168201604052610b8f9190810190612f54565b91509150610bdf610bb3603e54670de0b6b3a7640000611f6d90919063ffffffff16565b83600185510381518110610bc957610bc9612fb8565b6020026020010151611f8390919063ffffffff16565b336000908152603d6020526040902055805115610c7f576038546040517fce0dd62800000000000000000000000000000000000000000000000000000000815273ffffffffffffffffffffffffffffffffffffffff9091169063ce0dd62890610c4c908490600401612fe7565b600060405180830381600087803b158015610c6657600080fd5b505af1158015610c7a573d6000803e3d6000fd5b505050505b50505b336000908152603d602052604090205415610d5057336000908152603d6020908152604080832054603f909252822054603c54610cc99291610cc391613029565b90611f99565b603754909150610cf09073ffffffffffffffffffffffffffffffffffffffff163383611e69565b603c54336000818152603f6020908152604080832094909455603d815290839020548351928352908201529081018290527f34fcbac0073d7c3d388e51312faf357774904998eeb8fca628b9e6f65ee1cbf79060600160405180910390a1505b50610d5b6001600255565b50505050565b60008160088110610d7157600080fd5b60089182820401919006600402915054906101000a900463ffffffff1681565b600154610100900460ff1615808015610dae57506001805460ff16105b80610dc75750303b158015610dc757506001805460ff16145b610e53576040517f08c379a000000000000000000000000000000000000000000000000000000000815260206004820152602e60248201527f496e697469616c697a61626c653a20636f6e747261637420697320616c72656160448201527f647920696e697469616c697a6564000000000000000000000000000000000000606482015260840161027b565b600180547fffffffffffffffffffffffffffffffffffffffffffffffffffffffffffffff0016811790558015610eb057600180547fffffffffffffffffffffffffffffffffffffffffffffffffffffffffffff00ff166101001790555b610eb8611fae565b610ec061205b565b610ecd60208301836131ea565b610edc57610edc600142611a1b565b7f00000000000000000000000000000000000000000000000000000000000000008260e001351115610f6a576040517f08c379a000000000000000000000000000000000000000000000000000000000815260206004820152600b60248201527f4d41585f54494d454f5554000000000000000000000000000000000000000000604482015260640161027b565b610f7860e08301354261303c565b6034556000610f8d6060840160408501613207565b73ffffffffffffffffffffffffffffffffffffffff16631ed061d9610fb560a0860186613224565b610fc260026001806120fc565b6040518363ffffffff1660e01b8152600401610fdf92919061335d565b6020604051808303816000875af1158015610ffe573d6000803e3d6000fd5b505050506040513d601f19601f8201168201806040525081019061102291906134a5565b603980547fffffffffffffffffffffffff00000000000000000000000000000000000000001673ffffffffffffffffffffffffffffffffffffffff831617905590506110746040840160208501613207565b603680547fffffffffffffffffffffffff00000000000000000000000000000000000000001673ffffffffffffffffffffffffffffffffffffffff929092169190911790556110c960a0840160808501613207565b603780547fffffffffffffffffffffffff00000000000000000000000000000000000000001673ffffffffffffffffffffffffffffffffffffffff9290921691909117905561111e6080840160608501613207565b603880547fffffffffffffffffffffffff00000000000000000000000000000000000000001673ffffffffffffffffffffffffffffffffffffffff929092169190911790555080156111c257600180547fffffffffffffffffffffffffffffffffffffffffffffffffffffffffffff00ff1681556040519081527f7f26b83ff96e1f2b6a682f133852f6798a09c465da95921460cefb384740249890602001610820565b5050565b6001806111d1610598565b14611208576040517f301c306b00000000000000000000000000000000000000000000000000000000815260040160405180910390fd5b336000908152603a602052604090205461127e576040517f08c379a000000000000000000000000000000000000000000000000000000000815260206004820152600b60248201527f4f4e4c595f504c41594552000000000000000000000000000000000000000000604482015260640161027b565b6112866115f6565b336000908152603a60209081526040808320839055603b8252822054603854603954919392839273ffffffffffffffffffffffffffffffffffffffff909216916390e7d00b9177ffffffffffffffffffffffffffffffffffffffff0000000091901b1662010002176112f86000610363565b6040518363ffffffff1660e01b8152600401611315929190612e71565b600060405180830381865afa158015611332573d6000803e3d6000fd5b505050506040513d6000823e601f3d9081017fffffffffffffffffffffffffffffffffffffffffffffffffffffffffffffffe01682016040526113789190810190612f54565b9150915060006113c3846113bd61139786805160209081029091010190565b7fffffffffffffffffffffffffffffffffffffffffffffffffffffffffffffffe0015190565b90611f83565b6037549091506113ea9073ffffffffffffffffffffffffffffffffffffffff163383611e69565b336000908152603b60205260408120819055603c805483929061140e908490613029565b90915550506038546040517fce0dd62800000000000000000000000000000000000000000000000000000000815273ffffffffffffffffffffffffffffffffffffffff9091169063ce0dd62890611469908590600401612fe7565b600060405180830381600087803b15801561148357600080fd5b505af1158015611497573d6000803e3d6000fd5b50506037546040805133815273ffffffffffffffffffffffffffffffffffffffff90921660208301528101879052606081018490527f788e2ff2e7a5d83f7f128f5d44d44a080dc83e52de350a6f04d5c548017ba1189250608001905060405180910390a1505050506105936001600255565b6115126115f6565b61151b81611970565b6115256001600255565b50565b60365473ffffffffffffffffffffffffffffffffffffffff1633146115a9576040517f08c379a000000000000000000000000000000000000000000000000000000000815260206004820152600860248201527f4f4e4c595f524546000000000000000000000000000000000000000000000000604482015260640161027b565b6000806115b4610598565b146115eb576040517f301c306b00000000000000000000000000000000000000000000000000000000815260040160405180910390fd5b611525600142611a1b565b6002805403611661576040517f08c379a000000000000000000000000000000000000000000000000000000000815260206004820152601f60248201527f5265656e7472616e637947756172643a207265656e7472616e742063616c6c00604482015260640161027b565b60028055565b60606000825167ffffffffffffffff81111561168557611685612a43565b6040519080825280602002602001820160405280156116ae578160200160208202803683370190505b5090506000808451116116c25760006116c8565b83516001015b865101600201905060008167ffffffffffffffff8111156116eb576116eb612a43565b60405190808252806020026020018201604052801561171e57816020015b60608152602001906001900390816117095790505b509050600061172b612139565b82828151811061173d5761173d612fb8565b602002602001018190525060005b885181101561179b57818060010192505088818151811061176e5761176e612fb8565b602002602001015183838151811061178857611788612fb8565b602090810291909101015260010161174b565b508080600101915050868282815181106117b7576117b7612fb8565b6020908102919091010152855115611963578080600101915050838282815181106117e4576117e4612fb8565b602002602001018190525060005b86518110156119615761188b87828151811061181057611810612fb8565b60200260200101516000015161186889848151811061183157611831612fb8565b60200260200101516040015160405160200161184d91906134c2565b60405160208183030381529060405280519060200120612145565b89848151811061187a5761187a612fb8565b602002602001015160200151612180565b6118c4576040517f52bf98480000000000000000000000000000000000000000000000000000000081526004810182905260240161027b565b8681815181106118d6576118d6612fb8565b60200260200101516000015173ffffffffffffffffffffffffffffffffffffffff1685828151811061190a5761190a612fb8565b602002602001018181525050818060010192505086818151811061193057611930612fb8565b60200260200101516040015183838151811061194e5761194e612fb8565b60209081029190910101526001016117f2565b505b50925050505b9392505050565b336000908152603b60205260408120829055603c805483929061199490849061303c565b90915550506037546119be9073ffffffffffffffffffffffffffffffffffffffff1633308461234d565b6037546040805133815273ffffffffffffffffffffffffffffffffffffffff909216602083015281018290527f5548c837ab068cf56a2c2479df0882a4922fd203edb7517321831d95078c5f62906060015b60405180910390a150565b80421115611a85576040517f08c379a000000000000000000000000000000000000000000000000000000000815260206004820152600e60248201527f4e4558545f54494d455f50415354000000000000000000000000000000000000604482015260640161027b565b63ffffffff8110611af2576040517f08c379a000000000000000000000000000000000000000000000000000000000815260206004820152601760248201527f4e4558545f54494d455f554e494e495449414c495a4544000000000000000000604482015260640161027b565b7fffffffffffffffffffffffffffffffffffffffffffffffffffffffffffffffff820180611b1e610598565b14611b85576040517f08c379a000000000000000000000000000000000000000000000000000000000815260206004820152600a60248201527f4e4558545f504841534500000000000000000000000000000000000000000000604482015260640161027b565b60008160088110611b9857611b98612fb8565b60088104919091015460079091166004026101000a900463ffffffff90811614611c1e576040517f08c379a000000000000000000000000000000000000000000000000000000000815260206004820152600d60248201527f4e4558545f54494d455f53455400000000000000000000000000000000000000604482015260640161027b565b8160008260088110611c3257611c32612fb8565b600891828204019190066004026101000a81548163ffffffff021916908363ffffffff1602179055507fba85f6676f17ca992195e3cb204ae48c68666b109edc14a794e5d894387d25d33384846040516107579392919073ffffffffffffffffffffffffffffffffffffffff9390931683526020830191909152604082015260600190565b6001600255565b6000603454421115611cd25750600161086d565b60385473ffffffffffffffffffffffffffffffffffffffff16600080826390e7d00b611d2260395477ffffffffffffffffffffffffffffffffffffffff0000000060209190911b16620300011790565b611d2c6000610363565b6040518363ffffffff1660e01b8152600401611d49929190612e71565b600060405180830381865afa158015611d66573d6000803e3d6000fd5b505050506040513d6000823e601f3d9081017fffffffffffffffffffffffffffffffffffffffffffffffffffffffffffffffe0168201604052611dac9190810190612f54565b8051919350915015611e3d576040517fce0dd62800000000000000000000000000000000000000000000000000000000815273ffffffffffffffffffffffffffffffffffffffff84169063ce0dd62890611e0a908490600401612fe7565b600060405180830381600087803b158015611e2457600080fd5b505af1158015611e38573d6000803e3d6000fd5b505050505b600082600184510381518110611e5557611e55612fb8565b602002602001015111935050505092915050565b60405173ffffffffffffffffffffffffffffffffffffffff83166024820152604481018290526105939084907fa9059cbb00000000000000000000000000000000000000000000000000000000906064015b604080517fffffffffffffffffffffffffffffffffffffffffffffffffffffffffffffffe08184030181529190526020810180517bffffffffffffffffffffffffffffffffffffffffffffffffffffffff167fffffffff00000000000000000000000000000000000000000000000000000000909316929092179091526123ab565b600081604051602001611f5091906134f8565b604051602081830303815290604052805190602001209050919050565b6000818311611f7d576000611969565b50900390565b6000818310611f925781611969565b5090919050565b60006119698383670de0b6b3a76400006124b7565b600054600163ffffffff90911610611fc857611fc861350b565b604080516101008101825263ffffffff80825260208201819052918101829052606081018290526080810182905260a0810182905260c0810182905260e08101919091526120196000826008612992565b5060408051338152600060208201819052918101919091527fba85f6676f17ca992195e3cb204ae48c68666b109edc14a794e5d894387d25d390606001611a10565b600154610100900460ff166120f2576040517f08c379a000000000000000000000000000000000000000000000000000000000815260206004820152602b60248201527f496e697469616c697a61626c653a20636f6e7472616374206973206e6f74206960448201527f6e697469616c697a696e67000000000000000000000000000000000000000000606482015260840161027b565b6120fa612584565b565b6040805160038082526080820190925260609160009190602082018480368337505050602081019590955250506040830191909152606082015290565b60606105fd333061261b565b6040517f19457468657265756d205369676e6564204d6573736167653a0a3332000000006020820152603c8101829052600090605c01611f50565b600080600061218f858561264f565b909250905060008160048111156121a8576121a861353a565b1480156121e057508573ffffffffffffffffffffffffffffffffffffffff168273ffffffffffffffffffffffffffffffffffffffff16145b156121f057600192505050611969565b6000808773ffffffffffffffffffffffffffffffffffffffff16631626ba7e60e01b8888604051602401612225929190613569565b604080517fffffffffffffffffffffffffffffffffffffffffffffffffffffffffffffffe08184030181529181526020820180517bffffffffffffffffffffffffffffffffffffffffffffffffffffffff167fffffffff000000000000000000000000000000000000000000000000000000009094169390931790925290516122ae9190613582565b600060405180830381855afa9150503d80600081146122e9576040519150601f19603f3d011682016040523d82523d6000602084013e6122ee565b606091505b5091509150818015612301575080516020145b8015612341575080517f1626ba7e000000000000000000000000000000000000000000000000000000009061233f9083016020908101908401613594565b145b98975050505050505050565b60405173ffffffffffffffffffffffffffffffffffffffff80851660248301528316604482015260648101829052610d5b9085907f23b872dd0000000000000000000000000000000000000000000000000000000090608401611ebb565b600061240d826040518060400160405280602081526020017f5361666545524332303a206c6f772d6c6576656c2063616c6c206661696c65648152508573ffffffffffffffffffffffffffffffffffffffff166126949092919063ffffffff16565b805190915015610593578080602001905181019061242b91906135ad565b610593576040517f08c379a000000000000000000000000000000000000000000000000000000000815260206004820152602a60248201527f5361666545524332303a204552433230206f7065726174696f6e20646964206e60448201527f6f74207375636365656400000000000000000000000000000000000000000000606482015260840161027b565b600080807fffffffffffffffffffffffffffffffffffffffffffffffffffffffffffffffff8587098587029250828110838203039150508060000361250f57838281612505576125056135ca565b0492505050611969565b80841161251b57600080fd5b60008486880960026001871981018816978890046003810283188082028403028082028403028082028403028082028403028082028403029081029092039091026000889003889004909101858311909403939093029303949094049190911702949350505050565b600154610100900460ff16611cb7576040517f08c379a000000000000000000000000000000000000000000000000000000000815260206004820152602b60248201527f496e697469616c697a61626c653a20636f6e7472616374206973206e6f74206960448201527f6e697469616c697a696e67000000000000000000000000000000000000000000606482015260840161027b565b6040805160028082526060808301845292600092919060208301908036833750505060208101949094525050604082015290565b60008082516041036126855760208301516040840151606085015160001a612679878285856126ab565b9450945050505061268d565b506000905060025b9250929050565b60606126a3848460008561279a565b949350505050565b6000807f7fffffffffffffffffffffffffffffff5d576e7357a4501ddfe92f46681b20a08311156126e25750600090506003612791565b6040805160008082526020820180845289905260ff881692820192909252606081018690526080810185905260019060a0016020604051602081039080840390855afa158015612736573d6000803e3d6000fd5b50506040517fffffffffffffffffffffffffffffffffffffffffffffffffffffffffffffffe0015191505073ffffffffffffffffffffffffffffffffffffffff811661278a57600060019250925050612791565b9150600090505b94509492505050565b60608247101561282c576040517f08c379a000000000000000000000000000000000000000000000000000000000815260206004820152602660248201527f416464726573733a20696e73756666696369656e742062616c616e636520666f60448201527f722063616c6c0000000000000000000000000000000000000000000000000000606482015260840161027b565b6000808673ffffffffffffffffffffffffffffffffffffffff1685876040516128559190613582565b60006040518083038185875af1925050503d8060008114612892576040519150601f19603f3d011682016040523d82523d6000602084013e612897565b606091505b50915091506128a8878383876128b3565b979650505050505050565b606083156129495782516000036129425773ffffffffffffffffffffffffffffffffffffffff85163b612942576040517f08c379a000000000000000000000000000000000000000000000000000000000815260206004820152601d60248201527f416464726573733a2063616c6c20746f206e6f6e2d636f6e7472616374000000604482015260640161027b565b50816126a3565b6126a3838381511561295e5781518083602001fd5b806040517f08c379a000000000000000000000000000000000000000000000000000000000815260040161027b91906135f9565b600183019183908215612a1e5791602002820160005b838211156129ec57835183826101000a81548163ffffffff021916908363ffffffff16021790555092602001926004016020816003010492830192600103026129a8565b8015612a1c5782816101000a81549063ffffffff02191690556004016020816003010492830192600103026129ec565b505b50612a2a929150612a2e565b5090565b5b80821115612a2a5760008155600101612a2f565b7f4e487b7100000000000000000000000000000000000000000000000000000000600052604160045260246000fd5b6040516060810167ffffffffffffffff81118282101715612a9557612a95612a43565b60405290565b604051601f82017fffffffffffffffffffffffffffffffffffffffffffffffffffffffffffffffe016810167ffffffffffffffff81118282101715612ae257612ae2612a43565b604052919050565b600067ffffffffffffffff821115612b0457612b04612a43565b5060051b60200190565b600082601f830112612b1f57600080fd5b81356020612b34612b2f83612aea565b612a9b565b82815260059290921b84018101918181019086841115612b5357600080fd5b8286015b84811015612b6e5780358352918301918301612b57565b509695505050505050565b73ffffffffffffffffffffffffffffffffffffffff8116811461152557600080fd5b60008060408385031215612bae57600080fd5b823567ffffffffffffffff80821115612bc657600080fd5b612bd286838701612b0e565b9350602091508185013581811115612be957600080fd5b8501601f81018713612bfa57600080fd5b8035612c08612b2f82612aea565b81815260059190911b82018401908481019089831115612c2757600080fd5b8584015b83811015612d3a57803586811115612c4257600080fd5b85017fffffffffffffffffffffffffffffffffffffffffffffffffffffffffffffffe06060828e0382011215612c7757600080fd5b612c7f612a72565b89830135612c8c81612b79565b8152604083013589811115612ca057600080fd5b8301603f81018f13612cb157600080fd5b8a8101358a811115612cc557612cc5612a43565b612cd58c85601f84011601612a9b565b93508084528f6040828401011115612cec57600080fd5b80604083018d86013760008c82860101525050818a8201526060830135915088821115612d1857600080fd5b612d268e8b84860101612b0e565b604082015285525050918601918601612c2b565b508096505050505050509250929050565b6000806101208385031215612d5f57600080fd5b83601f840112612d6e57600080fd5b60405161010080820182811067ffffffffffffffff82111715612d9357612d93612a43565b60405284018186821115612da657600080fd5b855b82811015612dd357803563ffffffff81168114612dc55760008081fd5b825260209182019101612da8565b509196903595509350505050565b600060208284031215612df357600080fd5b5035919050565b600060208284031215612e0c57600080fd5b813567ffffffffffffffff811115612e2357600080fd5b8201610100818503121561196957600080fd5b600081518084526020808501945080840160005b83811015612e6657815187529582019590820190600101612e4a565b509495945050505050565b600060408201848352602060408185015281855180845260608601915060608160051b870101935082870160005b82811015612eeb577fffffffffffffffffffffffffffffffffffffffffffffffffffffffffffffffa0888703018452612ed9868351612e36565b95509284019290840190600101612e9f565b509398975050505050505050565b600082601f830112612f0a57600080fd5b81516020612f1a612b2f83612aea565b82815260059290921b84018101918181019086841115612f3957600080fd5b8286015b84811015612b6e5780518352918301918301612f3d565b60008060408385031215612f6757600080fd5b825167ffffffffffffffff80821115612f7f57600080fd5b612f8b86838701612ef9565b93506020850151915080821115612fa157600080fd5b50612fae85828601612ef9565b9150509250929050565b7f4e487b7100000000000000000000000000000000000000000000000000000000600052603260045260246000fd5b6020815260006119696020830184612e36565b7f4e487b7100000000000000000000000000000000000000000000000000000000600052601160045260246000fd5b8181038181111561086d5761086d612ffa565b8082018082111561086d5761086d612ffa565b60005b8381101561306a578181015183820152602001613052565b50506000910152565b6000815180845261308b81602086016020860161304f565b601f017fffffffffffffffffffffffffffffffffffffffffffffffffffffffffffffffe0169290920160200192915050565b600081518084526020808501808196508360051b8101915082860160005b8581101561314c5782840389528151606073ffffffffffffffffffffffffffffffffffffffff825116865286820151818888015261311b82880182613073565b915050604080830151925086820381880152506131388183612e36565b9a87019a95505050908401906001016130db565b5091979650505050505050565b73ffffffffffffffffffffffffffffffffffffffff841681526060602082015260006131886060830185612e36565b828103604084015261319a81856130bd565b9695505050505050565b60007fffffffffffffffffffffffffffffffffffffffffffffffffffffffffffffffff82036131d5576131d5612ffa565b5060010190565b801515811461152557600080fd5b6000602082840312156131fc57600080fd5b8135611969816131dc565b60006020828403121561321957600080fd5b813561196981612b79565b600082357fffffffffffffffffffffffffffffffffffffffffffffffffffffffffffffffc183360301811261325857600080fd5b9190910192915050565b60008083357fffffffffffffffffffffffffffffffffffffffffffffffffffffffffffffffe184360301811261329757600080fd5b830160208101925035905067ffffffffffffffff8111156132b757600080fd5b8060051b360382131561268d57600080fd5b8183528181602085013750600060208284010152600060207fffffffffffffffffffffffffffffffffffffffffffffffffffffffffffffffe0601f840116840101905092915050565b81835260007f07ffffffffffffffffffffffffffffffffffffffffffffffffffffffffffffff83111561334457600080fd5b8260051b80836020870137939093016020019392505050565b604081526000608082016133718586613262565b6040808601528281845260a08601905060a08260051b87010193508260005b8381101561343f577fffffffffffffffffffffffffffffffffffffffffffffffffffffffffffffff6088870301835281357fffffffffffffffffffffffffffffffffffffffffffffffffffffffffffffffe18636030181126133f157600080fd5b8501602081810191359067ffffffffffffffff82111561341057600080fd5b81360383131561341f57600080fd5b61342a8983856132c9565b98509485019493909301925050600101613390565b50505050506134516020860186613262565b7fffffffffffffffffffffffffffffffffffffffffffffffffffffffffffffffc0858403016060860152613486838284613312565b92505050828103602084015261349c8185612e36565b95945050505050565b6000602082840312156134b757600080fd5b815161196981612b79565b815160009082906020808601845b838110156134ec578151855293820193908201906001016134d0565b50929695505050505050565b60208152600061196960208301846130bd565b7f4e487b7100000000000000000000000000000000000000000000000000000000600052600160045260246000fd5b7f4e487b7100000000000000000000000000000000000000000000000000000000600052602160045260246000fd5b8281526040602082015260006126a36040830184613073565b6000825161325881846020870161304f565b6000602082840312156135a657600080fd5b5051919050565b6000602082840312156135bf57600080fd5b8151611969816131dc565b7f4e487b7100000000000000000000000000000000000000000000000000000000600052601260045260246000fd5b602081526000611969602083018461307356fea26469706673582212205d5853aa84f1ddba3e2eb946054b36c5e07ee363a1a18c11d3967aab20a45cc264736f6c63430008110033",
  "devdoc": {
    "events": {
      "Refund(address,uint256)": {
        "params": {
          "sender": "`msg.sender` that the refund is processed for."
        }
      }
    },
    "kind": "dev",
    "methods": {
      "phaseAtTime(uint32[8],uint256)": {
        "params": {
          "phaseTimes_": "Fixed array of phase times to compare against.",
          "timestamp_": "Determine the relevant phase relative to this time."
        },
        "returns": {
          "phase_": "The \"current\" phase relative to the timestamp and phase times list."
        }
      },
      "timeForPhase(uint32[8],uint256)": {
        "params": {
          "phaseTimes_": "Fixed array of phase blocks to compare against.",
          "phase_": "Determine the relevant block number for this phase."
        },
        "returns": {
          "timestamp_": "The timestamp for the phase according to `phaseTimes_`."
        }
      }
    },
    "version": 1
  },
  "userdoc": {
    "errors": {
      "InvalidSignature(uint256)": [
        {
          "notice": "Thrown when the ith signature from a list of signed contexts is invalid."
        }
      ]
    },
    "events": {
      "Invalid(address,uint256[],(address,bytes,uint256[])[])": {
        "notice": "Emitted when a `Lobby` is declared invalid by a ref or some other condition such as the timeout being reached."
      },
      "PhaseScheduled(address,uint256,uint256)": {
        "notice": "`PhaseScheduled` is emitted when the next phase is scheduled."
      },
      "Refund(address,uint256)": {
        "notice": "Emitted when a refund is processed for `msg.sender` MAY be less than the original deposit if the `leave` expression reduces it. MAY NOT be greater than the original deposit."
      }
    },
    "kind": "user",
    "methods": {
      "constructor": {
        "notice": "A max timeout is enforced in the constructor so that all cloned proxies share it, which prevents an initiator from setting a far future timeout and effectively disabling it to trap funds."
      },
      "currentPhase()": {
        "notice": "Impure read-only function to return the \"current\" phase from internal contract state. Simply wraps `phaseAtTime` for current values of `phaseTimes` and `block.timestamp`."
      },
      "phaseAtTime(uint32[8],uint256)": {
        "notice": "Pure function to reduce an array of phase times and block timestamp to a specific `Phase`. The phase will be the highest attained even if several phases have the same timestamp. If every phase block is after the timestamp then `0` is returned. If every phase block is before the timestamp then `MAX_PHASE` is returned."
      },
      "phaseTimes(uint256)": {
        "notice": "8 phases each as 32 bits to fit a single 32 byte word."
      },
      "refAgrees()": {
        "notice": "Allow the ref to agree to the lobby. This is optionally required by the init config. If it is required then players cannot join until this is called."
      },
      "timeForPhase(uint32[8],uint256)": {
        "notice": "Pure function to reduce an array of phase times and phase to a specific timestamp. `Phase.ZERO` will always return block `0`. Every other phase will map to a time in `phaseTimes_`."
      }
    },
    "version": 1
  }
}