{
  "address": "0xA9a5943fe662a463148B1e966739c4C03B35cEb0",
  "abi": [
    {
      "inputs": [
        {
          "internalType": "address",
          "name": "interpreter_",
          "type": "address"
        }
      ],
      "stateMutability": "nonpayable",
      "type": "constructor"
    },
    {
      "inputs": [
        {
          "internalType": "uint256",
          "name": "dynamicLength",
          "type": "uint256"
        },
        {
          "internalType": "uint256",
          "name": "standardOpsLength",
          "type": "uint256"
        }
      ],
      "name": "BadDynamicLength",
      "type": "error"
    },
    {
      "inputs": [
        {
          "internalType": "uint256",
          "name": "inputs",
          "type": "uint256"
        }
      ],
      "name": "DoWhileMaxInputs",
      "type": "error"
    },
    {
      "inputs": [
        {
          "internalType": "uint256",
          "name": "minStackOutputs",
          "type": "uint256"
        },
        {
          "internalType": "uint256",
          "name": "actualStackOutputs",
          "type": "uint256"
        }
      ],
      "name": "MinFinalStack",
      "type": "error"
    },
    {
      "inputs": [],
      "name": "MinStackBottom",
      "type": "error"
    },
    {
      "inputs": [
        {
          "internalType": "uint256",
          "name": "expectedEntrypoints",
          "type": "uint256"
        },
        {
          "internalType": "uint256",
          "name": "actualEntrypoints",
          "type": "uint256"
        }
      ],
      "name": "MissingEntrypoint",
      "type": "error"
    },
    {
      "inputs": [
        {
          "internalType": "int256",
          "name": "price",
          "type": "int256"
        }
      ],
      "name": "NotPosIntPrice",
      "type": "error"
    },
    {
      "inputs": [
        {
          "internalType": "uint256",
          "name": "constantsLength",
          "type": "uint256"
        },
        {
          "internalType": "uint256",
          "name": "constantsRead",
          "type": "uint256"
        }
      ],
      "name": "OutOfBoundsConstantsRead",
      "type": "error"
    },
    {
      "inputs": [
        {
          "internalType": "uint256",
          "name": "stackTopIndex",
          "type": "uint256"
        },
        {
          "internalType": "uint256",
          "name": "stackRead",
          "type": "uint256"
        }
      ],
      "name": "OutOfBoundsStackRead",
      "type": "error"
    },
    {
      "inputs": [
        {
          "internalType": "uint256",
          "name": "stackHighwaterIndex",
          "type": "uint256"
        },
        {
          "internalType": "uint256",
          "name": "stackTopIndex",
          "type": "uint256"
        }
      ],
      "name": "StackPopUnderflow",
      "type": "error"
    },
    {
      "inputs": [
        {
          "internalType": "uint256",
          "name": "updatedAt",
          "type": "uint256"
        },
        {
          "internalType": "uint256",
          "name": "staleAfter",
          "type": "uint256"
        }
      ],
      "name": "StalePrice",
      "type": "error"
    },
    {
      "inputs": [
        {
          "internalType": "bytes32",
          "name": "actualBytecodeHash",
          "type": "bytes32"
        }
      ],
      "name": "UnexpectedInterpreterBytecodeHash",
      "type": "error"
    },
    {
      "inputs": [
        {
          "internalType": "bytes",
          "name": "actualPointers",
          "type": "bytes"
        }
      ],
      "name": "UnexpectedPointers",
      "type": "error"
    },
    {
      "inputs": [],
      "name": "WriteError",
      "type": "error"
    },
    {
      "inputs": [],
      "name": "ZeroInputs",
      "type": "error"
    },
    {
      "anonymous": false,
      "inputs": [
        {
          "indexed": false,
          "internalType": "address",
          "name": "sender",
          "type": "address"
        },
        {
          "components": [
            {
              "internalType": "bytes[]",
              "name": "sources",
              "type": "bytes[]"
            },
            {
              "internalType": "uint256[]",
              "name": "constants",
              "type": "uint256[]"
            }
          ],
          "indexed": false,
          "internalType": "struct StateConfig",
          "name": "config",
          "type": "tuple"
        }
      ],
      "name": "ExpressionConfig",
      "type": "event"
    },
    {
      "anonymous": false,
      "inputs": [
        {
          "indexed": false,
          "internalType": "address",
          "name": "sender",
          "type": "address"
        },
        {
          "indexed": false,
          "internalType": "address",
          "name": "expression",
          "type": "address"
        }
      ],
      "name": "ExpressionDeployed",
      "type": "event"
    },
    {
      "anonymous": false,
      "inputs": [
        {
          "indexed": false,
          "internalType": "address",
          "name": "sender",
          "type": "address"
        },
        {
          "indexed": false,
          "internalType": "address",
          "name": "interpreter",
          "type": "address"
        }
      ],
      "name": "ValidInterpreter",
      "type": "event"
    },
    {
      "inputs": [
        {
          "components": [
            {
              "internalType": "bytes[]",
              "name": "sources",
              "type": "bytes[]"
            },
            {
              "internalType": "uint256[]",
              "name": "constants",
              "type": "uint256[]"
            }
          ],
          "internalType": "struct StateConfig",
          "name": "config_",
          "type": "tuple"
        },
        {
          "internalType": "uint256[]",
          "name": "minStackOutputs_",
          "type": "uint256[]"
        }
      ],
      "name": "deployExpression",
      "outputs": [
        {
          "internalType": "address",
          "name": "",
          "type": "address"
        }
      ],
      "stateMutability": "nonpayable",
      "type": "function"
    }
  ],
  "transactionHash": "0x673ce04565642d7ad8995bd662647a388a5221406a3c107dde8603a096d881ee",
  "args": [
    "0x5CFbf7d001A1095115657c6C08e87a9039C3343b"
  ],
  "numDeployments": 1,
  "solcInputHash": "0a2c1cfb658e0cd1c4b0edc075963ea3",
  "bytecode": "0x60806040523480156200001157600080fd5b50604051620033a9380380620033a9833981016040819052620000349162000187565b6000816001600160a01b031663f933c72f6040518163ffffffff1660e01b8152600401600060405180830381865afa15801562000075573d6000803e3d6000fd5b505050506040513d6000823e601f3d908101601f191682016040526200009f9190810190620001f5565b90506040518060a0016040528060768152602001620033336076913980519060200120818051906020012014620000f65780604051634c1af20160e11b8152600401620000ed9190620002ad565b60405180910390fd5b813f7fda914e60d06a83d8099b6562ac80dd60acbac7c35f0fcee9bffa8e160b377f6381146200013d57604051630eec293f60e11b815260048101829052602401620000ed565b604080513381526001600160a01b03851660208201527ff37e8ef81084fa6f55ef06a1fee409bc7e4dc04c063ecb589e146bafcbd9cbcf910160405180910390a1505050620002e2565b6000602082840312156200019a57600080fd5b81516001600160a01b0381168114620001b257600080fd5b9392505050565b634e487b7160e01b600052604160045260246000fd5b60005b83811015620001ec578181015183820152602001620001d2565b50506000910152565b6000602082840312156200020857600080fd5b81516001600160401b03808211156200022057600080fd5b818401915084601f8301126200023557600080fd5b8151818111156200024a576200024a620001b9565b604051601f8201601f19908116603f01168101908382118183101715620002755762000275620001b9565b816040528281528760208487010111156200028f57600080fd5b620002a2836020830160208801620001cf565b979650505050505050565b6020815260008251806020840152620002ce816040850160208701620001cf565b601f01601f19169190910160400192915050565b61304180620002f26000396000f3fe608060405234801561001057600080fd5b506004361061002b5760003560e01c80631ed061d914610030575b600080fd5b61004361003e36600461265b565b61006c565b60405173ffffffffffffffffffffffffffffffffffffffff909116815260200160405180910390f35b6000826000015151825111156100c15781518351516040517f7d2d70db000000000000000000000000000000000000000000000000000000008152600481019290925260248201526044015b60405180910390fd5b60006100d4846100cf61024a565b6102c4565b604081015160608201519192509060005b855181101561015e57604084018390526060840182905261014b848261012c60027fffffffffffffffffffffffffffffffffffffffffffffffffffffffffffffffff61284e565b89858151811061013e5761013e612862565b60200260200101516103db565b508061015681612891565b9150506100e5565b50600061017c8460800151856040015161050490919063ffffffff16565b90507f810b097bdad06c3daae05fe6acae5885a229381e85b19a35563683b39eea5a5333886040516101af929190612972565b60405180910390a160006101de826040518060a0016040528060768152602001612f96607691398a919061050d565b905060006101eb82610626565b6040805133815273ffffffffffffffffffffffffffffffffffffffff831660208201529192507fdcb4bd7c42c5278a44b5f7b614a5d3751e67c4c803ffd29c00e83a161c1447b0910160405180910390a1955050505050505b92915050565b60408051600180825281830190925260609160009190816020015b61251b8152602001906001900390816102655790505090506106b18160008151811061029357610293612862565b602002602001019067ffffffffffffffff16908167ffffffffffffffff16815250506102be816106ca565b91505090565b6102fd6040518060c001604052806060815260200160008152602001600081526020016000815260200160008152602001606081525090565b6040805160c08101825284518152602080860151519082015290810161034460027fffffffffffffffffffffffffffffffffffffffffffffffffffffffffffffffff61284e565b815260200161039c61037760027fffffffffffffffffffffffffffffffffffffffffffffffffffffffffffffffff61284e565b7fffffffffffffffffffffffffffffffffffffffffffffffffffffffffffffffe00190565b81526020016103cc60027fffffffffffffffffffffffffffffffffffffffffffffffffffffffffffffffff61284e565b81526020019290925250919050565b600060027fffffffffffffffffffffffffffffffffffffffffffffffffffffffffffffffff048560400151101561043e576040517f271592cf00000000000000000000000000000000000000000000000000000000815260040160405180910390fd5b845160208581029091010151805181015b808210156104a957600080600484019350835161ffff8116915061ffff8160101c169250506104a08982898c60a00151868151811061049057610490612862565b602002602001015163ffffffff16565b9650505061044f565b6040870151602090860304808511156104f8576040517ff993c6e700000000000000000000000000000000000000000000000000000000815260048101869052602481018290526044016100b8565b50939695505050505050565b60209190030490565b602083810151516060910260400160005b85515181101561055c576105508660000151828151811061054157610541612862565b60200260200101515160200190565b9091019060010161051e565b5060008167ffffffffffffffff81111561057857610578612525565b6040519080825280601f01601f1916602001820160405280156105a2576020820181803683370190505b50905060006105b2825b60200190565b868152602088810151910191506105ca9082906108f4565b9050606060005b8851518110156106175788518051829081106105ef576105ef612862565b602002602001015191506106038288610914565b61060d8383610973565b92506001016105d1565b509193505050505b9392505050565b6000806106518360405160200161063d9190612a49565b604051602081830303815290604052610993565b90508051602082016000f0915073ffffffffffffffffffffffffffffffffffffffff82166106ab576040517f08d4abb600000000000000000000000000000000000000000000000000000000815260040160405180910390fd5b50919050565b600061251b6106c18584836109bf565b95945050505050565b606060006040518061076001604052806106e2603a90565b67ffffffffffffffff1667ffffffffffffffff1681526020016109d581526020016109e48152602001610a7881526020016106b18152602001610a848152602001610aa18152602001610b0f8152602001610b7b8152602001610c2a8152602001610d998152602001610da98152602001610db98152602001610dc88152602001610dd78152602001610de68152602001610db98152602001610df58152602001610e048152602001610e138152602001610e238152602001610a788152602001610a788152602001610e338152602001610e4b8152602001610e5a8152602001610e698152602001610e788152602001610e878152602001610e968152602001610ea78152602001610ec48152602001610e968152602001610ed38152602001610ee28152602001610ef18152602001610f008152602001610f108152602001610f208152602001610f308152602001610f408152602001610f508152602001610f608152602001610f708152602001610f808152602001610f908152602001610fa08152602001610fb08152602001610fbf8152602001610fce8152602001610fdd8152602001610fec8152602001610ffb815260200161100a8152602001611019815260200161102981526020016110398152602001611048815260200161109c815250905060006108d6826110ab565b90506108e281856110fa565b805b949350505050565b815260200190565b600061061f8261090e8451866108ec90919063ffffffff16565b90611130565b815161ffff907fffffffffffffffffffffffffffffffffffffffffffffffffffffffffffff000090840160028481019086015b8281101561096a5780518581166002028301518616908516178152600401610947565b50505050505050565b600061061f8261098d8451866108ec90919063ffffffff16565b90611148565b60608151826040516020016109a9929190612a6f565b6040516020818303038152906040529050919050565b60006108e46109ce858561116a565b8590611198565b60006108e484836111a76111b3565b60408301516060840151600091600f85811692600487901c90911691600887901c91610a118988876111c0565b60408a01527fffffffffffffffffffffffffffffffffffffffffffffffffffffffffffffffe0870160608a0152610a4a898489876103db565b50606089018190526040890151610a63908a9086611222565b60409099019190915250959695505050505050565b60006108e48483611198565b6000826003811115610a9857610a98612b06565b50909392505050565b600060ff8316600f8110610ae4576040517f316e6a37000000000000000000000000000000000000000000000000000000008152600481018290526024016100b8565b60018101600481901b8517610b04610afd8883886109e4565b889061116a565b979650505050505050565b6000600f83811690600885811c91821691600c87901c91828401917efffffffffffffffffffffffffffffffffffffffffffffffffffffffffffff0169088901b610f0016178117610b61898886611256565b9650610b6e8982896109e4565b9998505050505050505050565b6000600c83901c600f80851690600486901c1680821015610bf8576040517f08c379a000000000000000000000000000000000000000000000000000000000815260206004820152600d60248201527f4c4f4f505f4e5f494e505554530000000000000000000000000000000000000060448201526064016100b8565b610fff861660005b84811015610c1d57610c138983896109e4565b9650600101610c00565b5094979650505050505050565b600060018381169084901c81610d38576040860151602090850304808210610c88576040517f1cb73c1600000000000000000000000000000000000000000000000000000000815260048101829052602481018390526044016100b8565b610cd06040518060400160405280600681526020017f6265666f726500000000000000000000000000000000000000000000000000008152508860400151896060015161126a565b60408701516060880151610ce89160208502016112fd565b60608801908152604080518082018252600581527f61667465720000000000000000000000000000000000000000000000000000006020820152908901519151610d32929061126a565b50610d85565b85602001518110610d855760208601516040517f890a8e6a0000000000000000000000000000000000000000000000000000000081526004810191909152602481018290526044016100b8565b610d8f8685611198565b9695505050505050565b600061251b6106c1858483611313565b60006108e4848361132186611370565b60006108e484836113806111b3565b60006108e484836114156109bf565b60006108e48483611486611522565b60006108e484836115336111b3565b60006108e484836115896111b3565b60006108e48483611638611522565b60006108e484836116958661174f565b60006108e4848361176d8661177a565b60006108e4610e42858461116a565b85906008611222565b60006108e484836117876109bf565b60006108e484836117936111b3565b60006108e484836117a96111b3565b60006108e484836117bf6109bf565b60006108e484836117cb6109bf565b600061251b6106c185848387611370565b60006108e4826117d7610ebb866001612b35565b8792919061174f565b60006108e484836117e76111b3565b60006108e484836117eb6111b3565b60006108e484836117ef6109bf565b60006108e484836117f36111b3565b60006108e484836117f786611370565b60006108e4848361183286611370565b60006108e4848361186386611370565b60006108e4848361187986611370565b60006108e4848361188586611370565b60006108e4848361189186611370565b60006108e484836112fd86611370565b60006108e4848361189d86611370565b60006108e484836118ac86611370565b60006108e484836118b886611370565b60006108e484836118c486611370565b60006108e484836118d0611992565b60006108e484836119a36109bf565b60006108e484836119f06109bf565b60006108e48483611a7d6109bf565b60006108e48483611aff6109bf565b60006108e48483611b4c6109bf565b60006108e48483611b99611522565b60006108e48483611bf886611c4f565b60006108e48483611c6286611cfc565b60006108e48483611d0f6111b3565b600060ff8316808203611087576040517f904c1f6d00000000000000000000000000000000000000000000000000000000815260040160405180910390fd5b6106c16110958685846111c0565b8690611198565b60006108e48483611d6e6111b3565b80518190603a146110f55780516040517fc8b569010000000000000000000000000000000000000000000000000000000081526004810191909152603a60248201526044016100b8565b919050565b60405182518251602080830286010183111561111557600080fd5b60208102830160405201835261112b8282611d86565b505050565b600061113c8284611d86565b8151602002830161061f565b600061116183835161115a6105ac8690565b9190611d9a565b8151830161061f565b7fffffffffffffffffffffffffffffffffffffffffffffffffffffffffffffffe00160006106ab8383611e16565b60200160006106ab8383611ebe565b600061061f8383611ed3565b60006108e46109ce858560025b60006112026040518060400160405280600381526020017f706f700000000000000000000000000000000000000000000000000000000000815250838561126a565b811561121a57602082028303925061121a8484611e16565b509092915050565b6000602082028301925060018211801561123f5750836060015183115b1561124c57606084018390525b61121a8484611ebe565b6000602082028301925061121a8484611ebe565b61112b83838360405160240161128293929190612b48565b604080517fffffffffffffffffffffffffffffffffffffffffffffffffffffffffffffffe08184030181529190526020810180517bffffffffffffffffffffffffffffffffffffffffffffffffffffffff167fca47c4eb0000000000000000000000000000000000000000000000000000000017905261205c565b600081831161130c578161061f565b5090919050565b60006108e4848460026111c0565b6000816040516020016113349190612b6d565b604080517fffffffffffffffffffffffffffffffffffffffffffffffffffffffffffffffe0818403018152919052805160209091012092915050565b60006106c16110958686856111c0565b6040517f70a0823100000000000000000000000000000000000000000000000000000000815273ffffffffffffffffffffffffffffffffffffffff8281166004830152600091908416906370a08231906024015b602060405180830381865afa1580156113f1573d6000803e3d6000fd5b505050506040513d601f19601f8201168201806040525081019061061f9190612ba3565b60008173ffffffffffffffffffffffffffffffffffffffff166318160ddd6040518163ffffffff1660e01b8152600401602060405180830381865afa158015611462573d6000803e3d6000fd5b505050506040513d601f19601f820116820180604052508101906102449190612ba3565b6040517f4ee2cd7e00000000000000000000000000000000000000000000000000000000815273ffffffffffffffffffffffffffffffffffffffff83811660048301526024820183905260009190851690634ee2cd7e906044015b602060405180830381865afa1580156114fe573d6000803e3d6000fd5b505050506040513d601f19601f820116820180604052508101906108e49190612ba3565b60006108e46109ce858560036111c0565b6040517f981b24d00000000000000000000000000000000000000000000000000000000081526004810182905260009073ffffffffffffffffffffffffffffffffffffffff84169063981b24d0906024016113d4565b6040517f6352211e0000000000000000000000000000000000000000000000000000000081526004810182905260009073ffffffffffffffffffffffffffffffffffffffff841690636352211e90602401602060405180830381865afa1580156115f7573d6000803e3d6000fd5b505050506040513d601f19601f8201168201806040525081019061161b9190612bbc565b73ffffffffffffffffffffffffffffffffffffffff169392505050565b6040517efdd58e00000000000000000000000000000000000000000000000000000000815273ffffffffffffffffffffffffffffffffffffffff8381166004830152602482018390526000919085169062fdd58e906044016114e1565b6040517f4e1273f400000000000000000000000000000000000000000000000000000000815260609073ffffffffffffffffffffffffffffffffffffffff851690634e1273f4906116ec9086908690600401612bf2565b600060405180830381865afa158015611709573d6000803e3d6000fd5b505050506040513d6000823e601f3d9081017fffffffffffffffffffffffffffffffffffffffffffffffffffffffffffffffe01682016040526108e49190810190612c55565b60006106c16117658686600160028702016111c0565b869084611222565b8061177757600080fd5b50565b60006106c18585846111c0565b600061061f828461207d565b60006108e4826117a3858761207d565b906120fd565b60006108e4826117b9858761207d565b90612112565b600061061f8284612127565b600061061f8284612176565b60606000841161121a57816108e4565b1490565b1090565b1590565b1190565b600082820183811061180957806108e4565b7fffffffffffffffffffffffffffffffffffffffffffffffffffffffffffffffff949350505050565b60008260000361184457506000610244565b82820282848281611857576118576127f0565b040361180957806108e4565b600081831161187357600061061f565b50900390565b600061061f8284612b35565b600061061f828461284e565b600061061f8284612dfb565b600081831061130c578161061f565b600061061f8284612e07565b600061061f8284612e1b565b600061061f8284612e32565b6040517fd97b2e4800000000000000000000000000000000000000000000000000000000815273ffffffffffffffffffffffffffffffffffffffff84811660048301528381166024830152604482018390526000919086169063d97b2e4890606401602060405180830381865afa15801561194f573d6000803e3d6000fd5b505050506040513d601f19601f820116820180604052508101906119739190612ba3565b73ffffffffffffffffffffffffffffffffffffffff1695945050505050565b60006108e46109ce858560046111c0565b60008173ffffffffffffffffffffffffffffffffffffffff1663ec14b06e6040518163ffffffff1660e01b8152600401602060405180830381865afa158015611462573d6000803e3d6000fd5b60008173ffffffffffffffffffffffffffffffffffffffff1663cd3293de6040518163ffffffff1660e01b8152600401602060405180830381865afa158015611a3d573d6000803e3d6000fd5b505050506040513d601f19601f82011682018060405250810190611a619190612bbc565b73ffffffffffffffffffffffffffffffffffffffff1692915050565b60008173ffffffffffffffffffffffffffffffffffffffff1663f9020e336040518163ffffffff1660e01b8152600401602060405180830381865afa158015611aca573d6000803e3d6000fd5b505050506040513d601f19601f82011682018060405250810190611aee9190612e45565b600381111561024457610244612b06565b60008173ffffffffffffffffffffffffffffffffffffffff1663fc0c546a6040518163ffffffff1660e01b8152600401602060405180830381865afa158015611a3d573d6000803e3d6000fd5b60008173ffffffffffffffffffffffffffffffffffffffff166347e4bbb96040518163ffffffff1660e01b8152600401602060405180830381865afa158015611462573d6000803e3d6000fd5b6040517fdb8554fc00000000000000000000000000000000000000000000000000000000815273ffffffffffffffffffffffffffffffffffffffff8381166004830152602482018390526000919085169063db8554fc906044016114e1565b6040517f88d6860400000000000000000000000000000000000000000000000000000000815260009073ffffffffffffffffffffffffffffffffffffffff8516906388d68604906114e19086908690600401612e66565b60006106c16110958686600286016111c0565b6040517fcaa0eb3b00000000000000000000000000000000000000000000000000000000815260009073ffffffffffffffffffffffffffffffffffffffff86169063caa0eb3b90611cbb90879087908790600401612e95565b602060405180830381865afa158015611cd8573d6000803e3d6000fd5b505050506040513d601f19601f820116820180604052508101906106c19190612ba3565b60006106c16110958686600386016111c0565b60008060015b60088111611d66576000611d2986836121d6565b90506000611d3786846121d6565b90506000611d458383611863565b9050611d55856001860383612286565b94505060019092019150611d159050565b509392505050565b60006108e48385600f16600487901c600f1685612310565b600060208301905061112b818385516123b6565b5b60208110611dd85782518252602092830192909101907fffffffffffffffffffffffffffffffffffffffffffffffffffffffffffffffe001611d9b565b801561112b577fffffffffffffffffffffffffffffffffffffffffffffffffffffffffffffffff600882021c80835116811985511617835250505050565b611e5a6040518060400160405280600381526020017f707563000000000000000000000000000000000000000000000000000000000081525082846060015161126a565b81606001518111611eba5760608201516040830151602091030460408301516020908303046040517f625e32e4000000000000000000000000000000000000000000000000000000008152600481019290925260248201526044016100b8565b5050565b8160800151811115611eba5760809190910152565b60008060008473ffffffffffffffffffffffffffffffffffffffff1663feaf968c6040518163ffffffff1660e01b815260040160a060405180830381865afa158015611f23573d6000803e3d6000fd5b505050506040513d601f19601f82011682018060405250810190611f479190612ee4565b5093505092505060008213611f8b576040517f3351e26f000000000000000000000000000000000000000000000000000000008152600481018390526024016100b8565b83611f968242612e32565b1115611fd8576040517f2730eb4800000000000000000000000000000000000000000000000000000000815260048101829052602481018590526044016100b8565b6106c18573ffffffffffffffffffffffffffffffffffffffff1663313ce5676040518163ffffffff1660e01b8152600401602060405180830381865afa158015612026573d6000803e3d6000fd5b505050506040513d601f19601f8201168201806040525081019061204a9190612f34565b60ff16612056846123de565b9061207d565b80516a636f6e736f6c652e6c6f67602083016000808483855afa5050505050565b600080826012036120915783915050610244565b82601211156120bd575060128290036120b56120ae82600a612dfb565b8590611832565b915050610244565b507fffffffffffffffffffffffffffffffffffffffffffffffffffffffffffffffee82016120ec81600a612dfb565b6120b5908561284e565b5092915050565b600061061f83670de0b6b3a76400008461244e565b600061061f8383670de0b6b3a764000061244e565b60008160000b60000361213b575081610244565b60008260000b13156121635761215c61215583600a612f57565b8490611832565b9050610244565b60ff6000839003166120ec81600a612dfb565b6000806012830361218a5783915050610244565b82601211156121a4575060128290036120ec81600a612dfb565b507fffffffffffffffffffffffffffffffffffffffffffffffffffffffffffffffee82016120b56120ae82600a612dfb565b6000816008811115612244576040517f08c379a000000000000000000000000000000000000000000000000000000000815260206004820152600860248201527f4d41585f5449455200000000000000000000000000000000000000000000000060448201526064016100b8565b8260000361225557600091506120f6565b50507fffffffffffffffffffffffffffffffffffffffffffffffffffffffffffffffff016020021c63ffffffff1690565b60008260088111156122f4576040517f08c379a000000000000000000000000000000000000000000000000000000000815260206004820152600860248201527f4d41585f5449455200000000000000000000000000000000000000000000000060448201526064016100b8565b505060209190910290811b63ffffffff90911b19919091161790565b600082600881111561237e576040517f08c379a000000000000000000000000000000000000000000000000000000000815260206004820152600860248201527f4d41585f5449455200000000000000000000000000000000000000000000000060448201526064016100b8565b6000855b858110156123aa5763ffffffff6020820290811b199890981685891b17979150600101612382565b50959695505050505050565b8060200283015b808410156123d85783518352602093840193909201916123bd565b50505050565b60008082121561244a576040517f08c379a000000000000000000000000000000000000000000000000000000000815260206004820181905260248201527f53616665436173743a2076616c7565206d75737420626520706f73697469766560448201526064016100b8565b5090565b600080807fffffffffffffffffffffffffffffffffffffffffffffffffffffffffffffffff858709858702925082811083820303915050806000036124a65783828161249c5761249c6127f0565b049250505061061f565b8084116124b257600080fd5b60008486880960026001871981018816978890046003810283188082028403028082028403028082028403028082028403028082028403029081029092039091026000889003889004909101858311909403939093029303949094049190911702949350505050565b612523612f66565b565b7f4e487b7100000000000000000000000000000000000000000000000000000000600052604160045260246000fd5b6040805190810167ffffffffffffffff8111828210171561257757612577612525565b60405290565b604051601f82017fffffffffffffffffffffffffffffffffffffffffffffffffffffffffffffffe016810167ffffffffffffffff811182821017156125c4576125c4612525565b604052919050565b600067ffffffffffffffff8211156125e6576125e6612525565b5060051b60200190565b600082601f83011261260157600080fd5b81356020612616612611836125cc565b61257d565b82815260059290921b8401810191818101908684111561263557600080fd5b8286015b848110156126505780358352918301918301612639565b509695505050505050565b6000806040838503121561266e57600080fd5b823567ffffffffffffffff8082111561268657600080fd5b908401906040828703121561269a57600080fd5b6126a2612554565b8235828111156126b157600080fd5b8301601f810188136126c257600080fd5b803560206126d2612611836125cc565b82815260059290921b8301810191818101908b8411156126f157600080fd5b8285015b8481101561279b5780358881111561270d5760008081fd5b8601603f81018e1361271f5760008081fd5b848101358981111561273357612733612525565b612763867fffffffffffffffffffffffffffffffffffffffffffffffffffffffffffffffe0601f8401160161257d565b8181528f60408385010111156127795760008081fd5b81604084018883013760009181018701919091528452509183019183016126f5565b50855250858101359250848311156127b257600080fd5b6127be8a8488016125f0565b8482015292965050508501359150808211156127d957600080fd5b506127e6858286016125f0565b9150509250929050565b7f4e487b7100000000000000000000000000000000000000000000000000000000600052601260045260246000fd5b7f4e487b7100000000000000000000000000000000000000000000000000000000600052601160045260246000fd5b60008261285d5761285d6127f0565b500490565b7f4e487b7100000000000000000000000000000000000000000000000000000000600052603260045260246000fd5b60007fffffffffffffffffffffffffffffffffffffffffffffffffffffffffffffffff82036128c2576128c261281f565b5060010190565b60005b838110156128e45781810151838201526020016128cc565b50506000910152565b600081518084526129058160208601602086016128c9565b601f017fffffffffffffffffffffffffffffffffffffffffffffffffffffffffffffffe0169290920160200192915050565b600081518084526020808501945080840160005b838110156129675781518752958201959082019060010161294b565b509495945050505050565b73ffffffffffffffffffffffffffffffffffffffff831681526000602060408184015260808301845160408086015281815180845260a08701915060a08160051b8801019350848301925060005b81811015612a0c577fffffffffffffffffffffffffffffffffffffffffffffffffffffffffffffff608886030183526129fa8585516128ed565b945092850192918501916001016129c0565b50505050908401518382037fffffffffffffffffffffffffffffffffffffffffffffffffffffffffffffffc001606085015290610d8f8183612937565b6000815260008251612a628160018501602087016128c9565b9190910160010192915050565b7f630000000000000000000000000000000000000000000000000000000000000081527fffffffff000000000000000000000000000000000000000000000000000000008360e01b1660018201527f80600e6000396000f30000000000000000000000000000000000000000000000600582015260008251612af881600e8501602087016128c9565b91909101600e019392505050565b7f4e487b7100000000000000000000000000000000000000000000000000000000600052602160045260246000fd5b808201808211156102445761024461281f565b606081526000612b5b60608301866128ed565b60208301949094525060400152919050565b815160009082906020808601845b83811015612b9757815185529382019390820190600101612b7b565b50929695505050505050565b600060208284031215612bb557600080fd5b5051919050565b600060208284031215612bce57600080fd5b815173ffffffffffffffffffffffffffffffffffffffff8116811461061f57600080fd5b604080825283519082018190526000906020906060840190828701845b82811015612c4157815173ffffffffffffffffffffffffffffffffffffffff1684529284019290840190600101612c0f565b50505083810382850152610d8f8186612937565b60006020808385031215612c6857600080fd5b825167ffffffffffffffff811115612c7f57600080fd5b8301601f81018513612c9057600080fd5b8051612c9e612611826125cc565b81815260059190911b82018301908381019087831115612cbd57600080fd5b928401925b82841015610b0457835182529284019290840190612cc2565b600181815b80851115612d3457817fffffffffffffffffffffffffffffffffffffffffffffffffffffffffffffffff04821115612d1a57612d1a61281f565b80851615612d2757918102915b93841c9390800290612ce0565b509250929050565b600082612d4b57506001610244565b81612d5857506000610244565b8160018114612d6e5760028114612d7857612d94565b6001915050610244565b60ff841115612d8957612d8961281f565b50506001821b610244565b5060208310610133831016604e8410600b8410161715612db7575081810a610244565b612dc18383612cdb565b807fffffffffffffffffffffffffffffffffffffffffffffffffffffffffffffffff04821115612df357612df361281f565b029392505050565b600061061f8383612d3c565b600082612e1657612e166127f0565b500690565b80820281158282048414176102445761024461281f565b818103818111156102445761024461281f565b600060208284031215612e5757600080fd5b81516004811061061f57600080fd5b73ffffffffffffffffffffffffffffffffffffffff831681526040602082015260006108e46040830184612937565b73ffffffffffffffffffffffffffffffffffffffff841681528260208201526060604082015260006106c16060830184612937565b805169ffffffffffffffffffff811681146110f557600080fd5b600080600080600060a08688031215612efc57600080fd5b612f0586612eca565b9450602086015193506040860151925060608601519150612f2860808701612eca565b90509295509295909350565b600060208284031215612f4657600080fd5b815160ff8116811461061f57600080fd5b600061061f60ff841683612d3c565b7f4e487b7100000000000000000000000000000000000000000000000000000000600052605160045260246000fdfe0cb50cc30d190d6b0de90e150eae0f780fad0fcb105310621070107e108c1062109a10a810b610c510d410e210f0116811771186119511a411b311fc120e121c124e125c126a12781287129612a512b412c312d212e112f012ff130e131d132b13391347135513631371137f138e139d13ab13f507e5a2646970667358221220b93210b8316c3863574e1ffb7e30677a168f78040f9a572ba897f4994cd10be064736f6c634300081100330cb50cc30d190d6b0de90e150eae0f780fad0fcb105310621070107e108c1062109a10a810b610c510d410e210f0116811771186119511a411b311fc120e121c124e125c126a12781287129612a512b412c312d212e112f012ff130e131d132b13391347135513631371137f138e139d13ab13f507e5",
  "devdoc": {
    "errors": {
      "MinFinalStack(uint256,uint256)": [
        {
          "params": {
            "actualStackOutputs": "The final stack height after evaluating a source. Will be less than the min stack outputs if this error is thrown.",
            "minStackOutputs": "The required minimum stack height."
          }
        }
      ],
      "MissingEntrypoint(uint256,uint256)": [
        {
          "details": "There are more entrypoints defined by the minimum stack outputs than there are provided sources. This means the calling contract WILL attempt to eval a dangling reference to a non-existent source at some point, so this MUST REVERT."
        }
      ],
      "NotPosIntPrice(int256)": [
        {
          "params": {
            "price": "The price that is not a positive integer."
          }
        }
      ],
      "StackPopUnderflow(uint256,uint256)": [
        {
          "params": {
            "stackHighwaterIndex": "Index of the stack highwater at the moment of underflow.",
            "stackTopIndex": "Index of the stack top at the moment of underflow."
          }
        }
      ],
      "StalePrice(uint256,uint256)": [
        {
          "params": {
            "staleAfter": "The maximum number of seconds the caller allows between the block timestamp and the updated time.",
            "updatedAt": "The latest time the oracle was updated according to the oracle."
          }
        }
      ],
      "UnexpectedInterpreterBytecodeHash(bytes32)": [
        {
          "details": "Thrown when the bytecode hash known to the expression deployer DOES NOT match the interpreter it is constructed for. This WILL cause undefined expression behaviour so MUST REVERT."
        }
      ],
      "UnexpectedPointers(bytes)": [
        {
          "details": "Thrown when the pointers known to the expression deployer DO NOT match the interpreter it is constructed for. This WILL cause undefined expression behaviour so MUST REVERT."
        }
      ]
    },
    "events": {
      "ExpressionConfig(address,(bytes[],uint256[]))": {
        "params": {
          "config": "The config for the deployed expression.",
          "sender": "The caller of `deployExpression`."
        }
      },
      "ExpressionDeployed(address,address)": {
        "params": {
          "expression": "The address of the deployed expression.",
          "sender": "The caller of `deployExpression`."
        }
      },
      "ValidInterpreter(address,address)": {
        "params": {
          "interpreter": "The address of the interpreter that the expression deployer agrees to perform integrity checks for. Note that the pairing between interpreter and expression deployer needs to be checked and enforced elsewhere offchain and/or onchain.",
          "sender": "The account that constructed the expression deployer."
        }
      }
    },
    "kind": "dev",
    "methods": {
      "deployExpression((bytes[],uint256[]),uint256[])": {
        "params": {
          "config": "All the state config associated with an expression.",
          "minOutputs": "The first N sources on the state config are entrypoints to the expression where N is the length of the `minOutputs` array. Each item in the `minOutputs` array specifies the number of outputs that MUST be present on the final stack for an evaluation of each entrypoint. The minimum output for some entrypoint MAY be zero if the expectation is that the expression only applies checks and error logic. Non-entrypoint sources MUST NOT have a minimum outputs length specified."
        },
        "returns": {
          "_0": "The onchain address of the deployed expression."
        }
      }
    },
    "title": "RainterpreterExpressionDeployer",
    "version": 1
  },
  "userdoc": {
    "errors": {
      "BadDynamicLength(uint256,uint256)": [
        {
          "notice": "Thrown when a dynamic length array is NOT 1 more than a fixed length array. Should never happen outside a major breaking change to memory layouts."
        }
      ],
      "DoWhileMaxInputs(uint256)": [
        {
          "notice": "More inputs were encoded in the operand than can be dispatched internally by a do-while loop."
        }
      ],
      "MinFinalStack(uint256,uint256)": [
        {
          "notice": "The final stack produced by some source did not hit the minimum required for its calling context."
        }
      ],
      "MinStackBottom()": [
        {
          "notice": "It is a misconfiguration to set the initial stack bottom to zero or some small value as this trivially exposes the integrity check to potential underflow issues that are gas intensive to repeatedly guard against on every pop. The initial stack bottom for an `IntegrityCheckState` should be `INITIAL_STACK_BOTTOM` to safely avoid the need for underflow checks due to pops and pushes."
        }
      ],
      "NotPosIntPrice(int256)": [
        {
          "notice": "Thrown if a price is zero or negative as this is probably not anticipated or useful for most users of a price feed. Of course there are use cases where zero or negative _oracle values_ in general are useful, such as negative temperatures from a thermometer, but these are unlikely to be useful _prices_ for assets. Zero value prices are likely to result in division by zero downstream or giving away assets for free, negative price values could result in even weirder behaviour due to token amounts being `uint256` and the subtleties of signed vs. unsigned integer conversions."
        }
      ],
      "OutOfBoundsConstantsRead(uint256,uint256)": [
        {
          "notice": "Thrown when a constant read index is outside the constants array."
        }
      ],
      "OutOfBoundsStackRead(uint256,uint256)": [
        {
          "notice": "Thrown when a stack read index is outside the current stack top."
        }
      ],
      "StackPopUnderflow(uint256,uint256)": [
        {
          "notice": "The virtual stack top has underflowed the stack highwater (or zero) during an integrity check. The highwater will initially be the stack bottom but MAY move higher due to certain operations such as placing multiple outputs on the stack or copying from a stack position. The highwater prevents subsequent popping of values that are considered immutable."
        }
      ],
      "StalePrice(uint256,uint256)": [
        {
          "notice": "Thrown when the updatedAt time from the Chainlink oracle is more than staleAfter seconds prior to the current block timestamp. Prevents stale prices from being used within the constraints set by the caller."
        }
      ],
      "ZeroInputs()": [
        {
          "notice": "Zero inputs to select lte is NOT supported."
        }
      ]
    },
    "events": {
      "ExpressionConfig(address,(bytes[],uint256[]))": {
        "notice": "The config of the deployed expression including uncompiled sources. Will only be emitted after the config passes the integrity check."
      },
      "ExpressionDeployed(address,address)": {
        "notice": "The address of the deployed expression. Will only be emitted once the expression can be loaded and deserialized into an evaluable interpreter state."
      },
      "ValidInterpreter(address,address)": {
        "notice": "The interpreter passed in construction is valid. The only valid interpreter has the exact bytecode hash known to the expression deployer."
      }
    },
    "kind": "user",
    "methods": {
      "constructor": {
        "notice": "THIS IS NOT A SECURITY CHECK. IT IS AN INTEGRITY CHECK TO PREVENT HONEST MISTAKES. IT CANNOT PREVENT EITHER A MALICIOUS INTERPRETER OR DEPLOYER FROM BEING EXECUTED."
      },
      "deployExpression((bytes[],uint256[]),uint256[])": {
        "notice": "Expressions are expected to be deployed onchain as immutable contract code with a first class address like any other contract or account. Technically this is optional in the sense that all the tools required to eval some expression and define all its opcodes are available as libraries. In practise there are enough advantages to deploying the sources directly onchain as contract data and loading them from the interpreter at eval time: - Loading and storing binary data is gas efficient as immutable contract data - Expressions need to be immutable between their deploy time integrity check   and runtime evaluation - Passing the address of an expression through calldata to an interpreter is   cheaper than passing an entire expression through calldata - Conceptually a very simple approach, even if implementations like SSTORE2   are subtle under the hood The expression deployer MUST perform an integrity check of the source code before it puts the expression onchain at a known address. The integrity check MUST at a minimum (it is free to do additional static analysis) calculate the memory required to be allocated for the stack in total, and that no out of bounds memory reads/writes occur within this stack. A simple example of an invalid source would be one that pushes one value to the stack then attempts to pops two values, clearly we cannot remove more values than we added. The `IExpressionDeployerV1` MUST revert in the case of any integrity failure, all integrity checks MUST pass in order for the deployment to complete. Once the integrity check is complete the `IExpressionDeployerV1` MUST do any additional processing required by its paired interpreter. For example, the `IExpressionDeployerV1` MAY NEED to replace the indexed opcodes in the `StateConfig` sources with real function pointers from the corresponding interpreter."
      }
    },
    "notice": "Minimal binding of the `IExpressionDeployerV1` interface to the `LibIntegrityCheck.ensureIntegrity` loop and `AllStandardOps`.",
    "version": 1
  },
  "storageLayout": {
    "storage": [],
    "types": null
  }
}