{
  "contracts/configurable-rights-pool/libraries/RightsManager.sol": {
    "RightsManager": {
      "abi": [
        {
          "inputs": [],
          "name": "DEFAULT_CAN_ADD_REMOVE_TOKENS",
          "outputs": [
            {
              "internalType": "bool",
              "name": "",
              "type": "bool"
            }
          ],
          "stateMutability": "view",
          "type": "function"
        },
        {
          "inputs": [],
          "name": "DEFAULT_CAN_CHANGE_CAP",
          "outputs": [
            {
              "internalType": "bool",
              "name": "",
              "type": "bool"
            }
          ],
          "stateMutability": "view",
          "type": "function"
        },
        {
          "inputs": [],
          "name": "DEFAULT_CAN_CHANGE_SWAP_FEE",
          "outputs": [
            {
              "internalType": "bool",
              "name": "",
              "type": "bool"
            }
          ],
          "stateMutability": "view",
          "type": "function"
        },
        {
          "inputs": [],
          "name": "DEFAULT_CAN_CHANGE_WEIGHTS",
          "outputs": [
            {
              "internalType": "bool",
              "name": "",
              "type": "bool"
            }
          ],
          "stateMutability": "view",
          "type": "function"
        },
        {
          "inputs": [],
          "name": "DEFAULT_CAN_PAUSE_SWAPPING",
          "outputs": [
            {
              "internalType": "bool",
              "name": "",
              "type": "bool"
            }
          ],
          "stateMutability": "view",
          "type": "function"
        },
        {
          "inputs": [],
          "name": "DEFAULT_CAN_WHITELIST_LPS",
          "outputs": [
            {
              "internalType": "bool",
              "name": "",
              "type": "bool"
            }
          ],
          "stateMutability": "view",
          "type": "function"
        },
        {
          "inputs": [
            {
              "internalType": "bool[]",
              "name": "a",
              "type": "bool[]"
            }
          ],
          "name": "constructRights",
          "outputs": [
            {
              "components": [
                {
                  "internalType": "bool",
                  "name": "canPauseSwapping",
                  "type": "bool"
                },
                {
                  "internalType": "bool",
                  "name": "canChangeSwapFee",
                  "type": "bool"
                },
                {
                  "internalType": "bool",
                  "name": "canChangeWeights",
                  "type": "bool"
                },
                {
                  "internalType": "bool",
                  "name": "canAddRemoveTokens",
                  "type": "bool"
                },
                {
                  "internalType": "bool",
                  "name": "canWhitelistLPs",
                  "type": "bool"
                },
                {
                  "internalType": "bool",
                  "name": "canChangeCap",
                  "type": "bool"
                }
              ],
              "internalType": "struct RightsManager.Rights",
              "name": "",
              "type": "tuple"
            }
          ],
          "stateMutability": "pure",
          "type": "function"
        },
        {
          "inputs": [
            {
              "components": [
                {
                  "internalType": "bool",
                  "name": "canPauseSwapping",
                  "type": "bool"
                },
                {
                  "internalType": "bool",
                  "name": "canChangeSwapFee",
                  "type": "bool"
                },
                {
                  "internalType": "bool",
                  "name": "canChangeWeights",
                  "type": "bool"
                },
                {
                  "internalType": "bool",
                  "name": "canAddRemoveTokens",
                  "type": "bool"
                },
                {
                  "internalType": "bool",
                  "name": "canWhitelistLPs",
                  "type": "bool"
                },
                {
                  "internalType": "bool",
                  "name": "canChangeCap",
                  "type": "bool"
                }
              ],
              "internalType": "struct RightsManager.Rights",
              "name": "rights",
              "type": "tuple"
            }
          ],
          "name": "convertRights",
          "outputs": [
            {
              "internalType": "bool[]",
              "name": "",
              "type": "bool[]"
            }
          ],
          "stateMutability": "pure",
          "type": "function"
        },
        {
          "inputs": [
            {
              "components": [
                {
                  "internalType": "bool",
                  "name": "canPauseSwapping",
                  "type": "bool"
                },
                {
                  "internalType": "bool",
                  "name": "canChangeSwapFee",
                  "type": "bool"
                },
                {
                  "internalType": "bool",
                  "name": "canChangeWeights",
                  "type": "bool"
                },
                {
                  "internalType": "bool",
                  "name": "canAddRemoveTokens",
                  "type": "bool"
                },
                {
                  "internalType": "bool",
                  "name": "canWhitelistLPs",
                  "type": "bool"
                },
                {
                  "internalType": "bool",
                  "name": "canChangeCap",
                  "type": "bool"
                }
              ],
              "internalType": "struct RightsManager.Rights",
              "name": "self",
              "type": "tuple"
            },
            {
              "internalType": "enum RightsManager.Permissions",
              "name": "permission",
              "type": "RightsManager.Permissions"
            }
          ],
          "name": "hasPermission",
          "outputs": [
            {
              "internalType": "bool",
              "name": "",
              "type": "bool"
            }
          ],
          "stateMutability": "pure",
          "type": "function"
        }
      ],
      "evm": {
        "bytecode": {
          "linkReferences": {},
          "object": "610696610026600b82828239805160001a60731461001957fe5b30600052607381538281f3fe730000000000000000000000000000000000000000301460806040526004361061009d5760003560e01c80634583544a116100705780634583544a146100c8578063710a51c2146100db578063c08473fc146100fb578063cb0d28f6146100c0578063dccf54e7146100a25761009d565b806308395a34146100a257806321bb04ae146100c05780632cc0c346146100a25780633d027b9d146100a2575b600080fd5b6100aa61011b565b6040516100b79190610605565b60405180910390f35b6100aa610120565b6100aa6100d6366004610585565b610125565b6100ee6100e936600461056a565b610205565b6040516100b791906105bf565b61010e6101093660046104d4565b61033b565b6040516100b79190610610565b600081565b600181565b600081600581111561013357fe5b61014b576101446020840184610543565b90506101ff565b81600581111561015757fe5b6001141561016f576101446040840160208501610543565b81600581111561017b57fe5b60021415610193576101446060840160408501610543565b81600581111561019f57fe5b600314156101b7576101446080840160608501610543565b8160058111156101c357fe5b600414156101db5761014460a0840160808501610543565b8160058111156101e757fe5b600514156101ff5761014460c0840160a08501610543565b92915050565b60408051600680825260e082019092526060918291906020820160c0803683370190505090506102386020840184610543565b8160008151811061024557fe5b9115156020928302919091018201526102649060408501908501610543565b8160018151811061027157fe5b911515602092830291909101909101526102916060840160408501610543565b8160028151811061029e57fe5b911515602092830291909101909101526102be6080840160608501610543565b816003815181106102cb57fe5b911515602092830291909101909101526102eb60a0840160808501610543565b816004815181106102f857fe5b9115156020928302919091019091015261031860c0840160a08501610543565b8160058151811061032557fe5b9115156020928302919091019091015292915050565b610343610488565b8161038357506040805160c081018252600080825260016020830181905292820192909252606081018290526080810182905260a08101919091526101ff565b6040518060c001604052808484600081811061039b57fe5b90506020020160208101906103b09190610543565b15158152602001848460018181106103c457fe5b90506020020160208101906103d99190610543565b15158152602001848460028181106103ed57fe5b90506020020160208101906104029190610543565b151581526020018484600381811061041657fe5b905060200201602081019061042b9190610543565b151581526020018484600481811061043f57fe5b90506020020160208101906104549190610543565b151581526020018484600581811061046857fe5b905060200201602081019061047d9190610543565b1515905290506101ff565b6040805160c081018252600080825260208201819052918101829052606081018290526080810182905260a081019190915290565b600060c082840312156104ce578081fd5b50919050565b600080602083850312156104e6578182fd5b823567ffffffffffffffff808211156104fd578384fd5b818501915085601f830112610510578384fd5b81358181111561051e578485fd5b8660208083028501011115610531578485fd5b60209290920196919550909350505050565b600060208284031215610554578081fd5b81358015158114610563578182fd5b9392505050565b600060c0828403121561057b578081fd5b61056383836104bd565b60008060e08385031215610597578182fd5b6105a184846104bd565b915060c0830135600681106105b4578182fd5b809150509250929050565b6020808252825182820181905260009190848201906040850190845b818110156105f95783511515835292840192918401916001016105db565b50909695505050505050565b901515815260200190565b600060c08201905082511515825260208301511515602083015260408301511515604083015260608301511515606083015260808301511515608083015260a0830151151560a08301529291505056fea2646970667358221220346e35deadd9c20b73a4637b49645dddab90b5e9380f7b7bdc259fc7d3c0d48e64736f6c634300060c0033",
          "opcodes": "PUSH2 0x696 PUSH2 0x26 PUSH1 0xB DUP3 DUP3 DUP3 CODECOPY DUP1 MLOAD PUSH1 0x0 BYTE PUSH1 0x73 EQ PUSH2 0x19 JUMPI INVALID JUMPDEST ADDRESS PUSH1 0x0 MSTORE PUSH1 0x73 DUP2 MSTORE8 DUP3 DUP2 RETURN INVALID PUSH20 0x0 ADDRESS EQ PUSH1 0x80 PUSH1 0x40 MSTORE PUSH1 0x4 CALLDATASIZE LT PUSH2 0x9D JUMPI PUSH1 0x0 CALLDATALOAD PUSH1 0xE0 SHR DUP1 PUSH4 0x4583544A GT PUSH2 0x70 JUMPI DUP1 PUSH4 0x4583544A EQ PUSH2 0xC8 JUMPI DUP1 PUSH4 0x710A51C2 EQ PUSH2 0xDB JUMPI DUP1 PUSH4 0xC08473FC EQ PUSH2 0xFB JUMPI DUP1 PUSH4 0xCB0D28F6 EQ PUSH2 0xC0 JUMPI DUP1 PUSH4 0xDCCF54E7 EQ PUSH2 0xA2 JUMPI PUSH2 0x9D JUMP JUMPDEST DUP1 PUSH4 0x8395A34 EQ PUSH2 0xA2 JUMPI DUP1 PUSH4 0x21BB04AE EQ PUSH2 0xC0 JUMPI DUP1 PUSH4 0x2CC0C346 EQ PUSH2 0xA2 JUMPI DUP1 PUSH4 0x3D027B9D EQ PUSH2 0xA2 JUMPI JUMPDEST PUSH1 0x0 DUP1 REVERT JUMPDEST PUSH2 0xAA PUSH2 0x11B JUMP JUMPDEST PUSH1 0x40 MLOAD PUSH2 0xB7 SWAP2 SWAP1 PUSH2 0x605 JUMP JUMPDEST PUSH1 0x40 MLOAD DUP1 SWAP2 SUB SWAP1 RETURN JUMPDEST PUSH2 0xAA PUSH2 0x120 JUMP JUMPDEST PUSH2 0xAA PUSH2 0xD6 CALLDATASIZE PUSH1 0x4 PUSH2 0x585 JUMP JUMPDEST PUSH2 0x125 JUMP JUMPDEST PUSH2 0xEE PUSH2 0xE9 CALLDATASIZE PUSH1 0x4 PUSH2 0x56A JUMP JUMPDEST PUSH2 0x205 JUMP JUMPDEST PUSH1 0x40 MLOAD PUSH2 0xB7 SWAP2 SWAP1 PUSH2 0x5BF JUMP JUMPDEST PUSH2 0x10E PUSH2 0x109 CALLDATASIZE PUSH1 0x4 PUSH2 0x4D4 JUMP JUMPDEST PUSH2 0x33B JUMP JUMPDEST PUSH1 0x40 MLOAD PUSH2 0xB7 SWAP2 SWAP1 PUSH2 0x610 JUMP JUMPDEST PUSH1 0x0 DUP2 JUMP JUMPDEST PUSH1 0x1 DUP2 JUMP JUMPDEST PUSH1 0x0 DUP2 PUSH1 0x5 DUP2 GT ISZERO PUSH2 0x133 JUMPI INVALID JUMPDEST PUSH2 0x14B JUMPI PUSH2 0x144 PUSH1 0x20 DUP5 ADD DUP5 PUSH2 0x543 JUMP JUMPDEST SWAP1 POP PUSH2 0x1FF JUMP JUMPDEST DUP2 PUSH1 0x5 DUP2 GT ISZERO PUSH2 0x157 JUMPI INVALID JUMPDEST PUSH1 0x1 EQ ISZERO PUSH2 0x16F JUMPI PUSH2 0x144 PUSH1 0x40 DUP5 ADD PUSH1 0x20 DUP6 ADD PUSH2 0x543 JUMP JUMPDEST DUP2 PUSH1 0x5 DUP2 GT ISZERO PUSH2 0x17B JUMPI INVALID JUMPDEST PUSH1 0x2 EQ ISZERO PUSH2 0x193 JUMPI PUSH2 0x144 PUSH1 0x60 DUP5 ADD PUSH1 0x40 DUP6 ADD PUSH2 0x543 JUMP JUMPDEST DUP2 PUSH1 0x5 DUP2 GT ISZERO PUSH2 0x19F JUMPI INVALID JUMPDEST PUSH1 0x3 EQ ISZERO PUSH2 0x1B7 JUMPI PUSH2 0x144 PUSH1 0x80 DUP5 ADD PUSH1 0x60 DUP6 ADD PUSH2 0x543 JUMP JUMPDEST DUP2 PUSH1 0x5 DUP2 GT ISZERO PUSH2 0x1C3 JUMPI INVALID JUMPDEST PUSH1 0x4 EQ ISZERO PUSH2 0x1DB JUMPI PUSH2 0x144 PUSH1 0xA0 DUP5 ADD PUSH1 0x80 DUP6 ADD PUSH2 0x543 JUMP JUMPDEST DUP2 PUSH1 0x5 DUP2 GT ISZERO PUSH2 0x1E7 JUMPI INVALID JUMPDEST PUSH1 0x5 EQ ISZERO PUSH2 0x1FF JUMPI PUSH2 0x144 PUSH1 0xC0 DUP5 ADD PUSH1 0xA0 DUP6 ADD PUSH2 0x543 JUMP JUMPDEST SWAP3 SWAP2 POP POP JUMP JUMPDEST PUSH1 0x40 DUP1 MLOAD PUSH1 0x6 DUP1 DUP3 MSTORE PUSH1 0xE0 DUP3 ADD SWAP1 SWAP3 MSTORE PUSH1 0x60 SWAP2 DUP3 SWAP2 SWAP1 PUSH1 0x20 DUP3 ADD PUSH1 0xC0 DUP1 CALLDATASIZE DUP4 CALLDATACOPY ADD SWAP1 POP POP SWAP1 POP PUSH2 0x238 PUSH1 0x20 DUP5 ADD DUP5 PUSH2 0x543 JUMP JUMPDEST DUP2 PUSH1 0x0 DUP2 MLOAD DUP2 LT PUSH2 0x245 JUMPI INVALID JUMPDEST SWAP2 ISZERO ISZERO PUSH1 0x20 SWAP3 DUP4 MUL SWAP2 SWAP1 SWAP2 ADD DUP3 ADD MSTORE PUSH2 0x264 SWAP1 PUSH1 0x40 DUP6 ADD SWAP1 DUP6 ADD PUSH2 0x543 JUMP JUMPDEST DUP2 PUSH1 0x1 DUP2 MLOAD DUP2 LT PUSH2 0x271 JUMPI INVALID JUMPDEST SWAP2 ISZERO ISZERO PUSH1 0x20 SWAP3 DUP4 MUL SWAP2 SWAP1 SWAP2 ADD SWAP1 SWAP2 ADD MSTORE PUSH2 0x291 PUSH1 0x60 DUP5 ADD PUSH1 0x40 DUP6 ADD PUSH2 0x543 JUMP JUMPDEST DUP2 PUSH1 0x2 DUP2 MLOAD DUP2 LT PUSH2 0x29E JUMPI INVALID JUMPDEST SWAP2 ISZERO ISZERO PUSH1 0x20 SWAP3 DUP4 MUL SWAP2 SWAP1 SWAP2 ADD SWAP1 SWAP2 ADD MSTORE PUSH2 0x2BE PUSH1 0x80 DUP5 ADD PUSH1 0x60 DUP6 ADD PUSH2 0x543 JUMP JUMPDEST DUP2 PUSH1 0x3 DUP2 MLOAD DUP2 LT PUSH2 0x2CB JUMPI INVALID JUMPDEST SWAP2 ISZERO ISZERO PUSH1 0x20 SWAP3 DUP4 MUL SWAP2 SWAP1 SWAP2 ADD SWAP1 SWAP2 ADD MSTORE PUSH2 0x2EB PUSH1 0xA0 DUP5 ADD PUSH1 0x80 DUP6 ADD PUSH2 0x543 JUMP JUMPDEST DUP2 PUSH1 0x4 DUP2 MLOAD DUP2 LT PUSH2 0x2F8 JUMPI INVALID JUMPDEST SWAP2 ISZERO ISZERO PUSH1 0x20 SWAP3 DUP4 MUL SWAP2 SWAP1 SWAP2 ADD SWAP1 SWAP2 ADD MSTORE PUSH2 0x318 PUSH1 0xC0 DUP5 ADD PUSH1 0xA0 DUP6 ADD PUSH2 0x543 JUMP JUMPDEST DUP2 PUSH1 0x5 DUP2 MLOAD DUP2 LT PUSH2 0x325 JUMPI INVALID JUMPDEST SWAP2 ISZERO ISZERO PUSH1 0x20 SWAP3 DUP4 MUL SWAP2 SWAP1 SWAP2 ADD SWAP1 SWAP2 ADD MSTORE SWAP3 SWAP2 POP POP JUMP JUMPDEST PUSH2 0x343 PUSH2 0x488 JUMP JUMPDEST DUP2 PUSH2 0x383 JUMPI POP PUSH1 0x40 DUP1 MLOAD PUSH1 0xC0 DUP2 ADD DUP3 MSTORE PUSH1 0x0 DUP1 DUP3 MSTORE PUSH1 0x1 PUSH1 0x20 DUP4 ADD DUP2 SWAP1 MSTORE SWAP3 DUP3 ADD SWAP3 SWAP1 SWAP3 MSTORE PUSH1 0x60 DUP2 ADD DUP3 SWAP1 MSTORE PUSH1 0x80 DUP2 ADD DUP3 SWAP1 MSTORE PUSH1 0xA0 DUP2 ADD SWAP2 SWAP1 SWAP2 MSTORE PUSH2 0x1FF JUMP JUMPDEST PUSH1 0x40 MLOAD DUP1 PUSH1 0xC0 ADD PUSH1 0x40 MSTORE DUP1 DUP5 DUP5 PUSH1 0x0 DUP2 DUP2 LT PUSH2 0x39B JUMPI INVALID JUMPDEST SWAP1 POP PUSH1 0x20 MUL ADD PUSH1 0x20 DUP2 ADD SWAP1 PUSH2 0x3B0 SWAP2 SWAP1 PUSH2 0x543 JUMP JUMPDEST ISZERO ISZERO DUP2 MSTORE PUSH1 0x20 ADD DUP5 DUP5 PUSH1 0x1 DUP2 DUP2 LT PUSH2 0x3C4 JUMPI INVALID JUMPDEST SWAP1 POP PUSH1 0x20 MUL ADD PUSH1 0x20 DUP2 ADD SWAP1 PUSH2 0x3D9 SWAP2 SWAP1 PUSH2 0x543 JUMP JUMPDEST ISZERO ISZERO DUP2 MSTORE PUSH1 0x20 ADD DUP5 DUP5 PUSH1 0x2 DUP2 DUP2 LT PUSH2 0x3ED JUMPI INVALID JUMPDEST SWAP1 POP PUSH1 0x20 MUL ADD PUSH1 0x20 DUP2 ADD SWAP1 PUSH2 0x402 SWAP2 SWAP1 PUSH2 0x543 JUMP JUMPDEST ISZERO ISZERO DUP2 MSTORE PUSH1 0x20 ADD DUP5 DUP5 PUSH1 0x3 DUP2 DUP2 LT PUSH2 0x416 JUMPI INVALID JUMPDEST SWAP1 POP PUSH1 0x20 MUL ADD PUSH1 0x20 DUP2 ADD SWAP1 PUSH2 0x42B SWAP2 SWAP1 PUSH2 0x543 JUMP JUMPDEST ISZERO ISZERO DUP2 MSTORE PUSH1 0x20 ADD DUP5 DUP5 PUSH1 0x4 DUP2 DUP2 LT PUSH2 0x43F JUMPI INVALID JUMPDEST SWAP1 POP PUSH1 0x20 MUL ADD PUSH1 0x20 DUP2 ADD SWAP1 PUSH2 0x454 SWAP2 SWAP1 PUSH2 0x543 JUMP JUMPDEST ISZERO ISZERO DUP2 MSTORE PUSH1 0x20 ADD DUP5 DUP5 PUSH1 0x5 DUP2 DUP2 LT PUSH2 0x468 JUMPI INVALID JUMPDEST SWAP1 POP PUSH1 0x20 MUL ADD PUSH1 0x20 DUP2 ADD SWAP1 PUSH2 0x47D SWAP2 SWAP1 PUSH2 0x543 JUMP JUMPDEST ISZERO ISZERO SWAP1 MSTORE SWAP1 POP PUSH2 0x1FF JUMP JUMPDEST PUSH1 0x40 DUP1 MLOAD PUSH1 0xC0 DUP2 ADD DUP3 MSTORE PUSH1 0x0 DUP1 DUP3 MSTORE PUSH1 0x20 DUP3 ADD DUP2 SWAP1 MSTORE SWAP2 DUP2 ADD DUP3 SWAP1 MSTORE PUSH1 0x60 DUP2 ADD DUP3 SWAP1 MSTORE PUSH1 0x80 DUP2 ADD DUP3 SWAP1 MSTORE PUSH1 0xA0 DUP2 ADD SWAP2 SWAP1 SWAP2 MSTORE SWAP1 JUMP JUMPDEST PUSH1 0x0 PUSH1 0xC0 DUP3 DUP5 SUB SLT ISZERO PUSH2 0x4CE JUMPI DUP1 DUP2 REVERT JUMPDEST POP SWAP2 SWAP1 POP JUMP JUMPDEST PUSH1 0x0 DUP1 PUSH1 0x20 DUP4 DUP6 SUB SLT ISZERO PUSH2 0x4E6 JUMPI DUP2 DUP3 REVERT JUMPDEST DUP3 CALLDATALOAD PUSH8 0xFFFFFFFFFFFFFFFF DUP1 DUP3 GT ISZERO PUSH2 0x4FD JUMPI DUP4 DUP5 REVERT JUMPDEST DUP2 DUP6 ADD SWAP2 POP DUP6 PUSH1 0x1F DUP4 ADD SLT PUSH2 0x510 JUMPI DUP4 DUP5 REVERT JUMPDEST DUP2 CALLDATALOAD DUP2 DUP2 GT ISZERO PUSH2 0x51E JUMPI DUP5 DUP6 REVERT JUMPDEST DUP7 PUSH1 0x20 DUP1 DUP4 MUL DUP6 ADD ADD GT ISZERO PUSH2 0x531 JUMPI DUP5 DUP6 REVERT JUMPDEST PUSH1 0x20 SWAP3 SWAP1 SWAP3 ADD SWAP7 SWAP2 SWAP6 POP SWAP1 SWAP4 POP POP POP POP JUMP JUMPDEST PUSH1 0x0 PUSH1 0x20 DUP3 DUP5 SUB SLT ISZERO PUSH2 0x554 JUMPI DUP1 DUP2 REVERT JUMPDEST DUP2 CALLDATALOAD DUP1 ISZERO ISZERO DUP2 EQ PUSH2 0x563 JUMPI DUP2 DUP3 REVERT JUMPDEST SWAP4 SWAP3 POP POP POP JUMP JUMPDEST PUSH1 0x0 PUSH1 0xC0 DUP3 DUP5 SUB SLT ISZERO PUSH2 0x57B JUMPI DUP1 DUP2 REVERT JUMPDEST PUSH2 0x563 DUP4 DUP4 PUSH2 0x4BD JUMP JUMPDEST PUSH1 0x0 DUP1 PUSH1 0xE0 DUP4 DUP6 SUB SLT ISZERO PUSH2 0x597 JUMPI DUP2 DUP3 REVERT JUMPDEST PUSH2 0x5A1 DUP5 DUP5 PUSH2 0x4BD JUMP JUMPDEST SWAP2 POP PUSH1 0xC0 DUP4 ADD CALLDATALOAD PUSH1 0x6 DUP2 LT PUSH2 0x5B4 JUMPI DUP2 DUP3 REVERT JUMPDEST DUP1 SWAP2 POP POP SWAP3 POP SWAP3 SWAP1 POP JUMP JUMPDEST PUSH1 0x20 DUP1 DUP3 MSTORE DUP3 MLOAD DUP3 DUP3 ADD DUP2 SWAP1 MSTORE PUSH1 0x0 SWAP2 SWAP1 DUP5 DUP3 ADD SWAP1 PUSH1 0x40 DUP6 ADD SWAP1 DUP5 JUMPDEST DUP2 DUP2 LT ISZERO PUSH2 0x5F9 JUMPI DUP4 MLOAD ISZERO ISZERO DUP4 MSTORE SWAP3 DUP5 ADD SWAP3 SWAP2 DUP5 ADD SWAP2 PUSH1 0x1 ADD PUSH2 0x5DB JUMP JUMPDEST POP SWAP1 SWAP7 SWAP6 POP POP POP POP POP POP JUMP JUMPDEST SWAP1 ISZERO ISZERO DUP2 MSTORE PUSH1 0x20 ADD SWAP1 JUMP JUMPDEST PUSH1 0x0 PUSH1 0xC0 DUP3 ADD SWAP1 POP DUP3 MLOAD ISZERO ISZERO DUP3 MSTORE PUSH1 0x20 DUP4 ADD MLOAD ISZERO ISZERO PUSH1 0x20 DUP4 ADD MSTORE PUSH1 0x40 DUP4 ADD MLOAD ISZERO ISZERO PUSH1 0x40 DUP4 ADD MSTORE PUSH1 0x60 DUP4 ADD MLOAD ISZERO ISZERO PUSH1 0x60 DUP4 ADD MSTORE PUSH1 0x80 DUP4 ADD MLOAD ISZERO ISZERO PUSH1 0x80 DUP4 ADD MSTORE PUSH1 0xA0 DUP4 ADD MLOAD ISZERO ISZERO PUSH1 0xA0 DUP4 ADD MSTORE SWAP3 SWAP2 POP POP JUMP INVALID LOG2 PUSH5 0x6970667358 0x22 SLT KECCAK256 CALLVALUE PUSH15 0x35DEADD9C20B73A4637B49645DDDAB SWAP1 0xB5 0xE9 CODESIZE 0xF PUSH28 0x7BDC259FC7D3C0D48E64736F6C634300060C00330000000000000000 "
        },
        "methodIdentifiers": {
          "DEFAULT_CAN_ADD_REMOVE_TOKENS()": "3d027b9d",
          "DEFAULT_CAN_CHANGE_CAP()": "08395a34",
          "DEFAULT_CAN_CHANGE_SWAP_FEE()": "cb0d28f6",
          "DEFAULT_CAN_CHANGE_WEIGHTS()": "21bb04ae",
          "DEFAULT_CAN_PAUSE_SWAPPING()": "2cc0c346",
          "DEFAULT_CAN_WHITELIST_LPS()": "dccf54e7",
          "constructRights(bool[])": "c08473fc",
          "convertRights(RightsManager.Rights)": "710a51c2",
          "hasPermission(RightsManager.Rights,RightsManager.Permissions)": "4583544a"
        }
      }
    }
  }
}