{
  "contracts/configurable-rights-pool/libraries/SmartPoolManager.sol": {
    "SmartPoolManager": {
      "abi": [
        {
          "inputs": [
            {
              "internalType": "contract IConfigurableRightsPool",
              "name": "self",
              "type": "IConfigurableRightsPool"
            },
            {
              "internalType": "contract IBPool",
              "name": "bPool",
              "type": "IBPool"
            },
            {
              "internalType": "uint256",
              "name": "poolAmountIn",
              "type": "uint256"
            },
            {
              "internalType": "uint256[]",
              "name": "minAmountsOut",
              "type": "uint256[]"
            }
          ],
          "name": "exitPool",
          "outputs": [
            {
              "internalType": "uint256",
              "name": "exitFee",
              "type": "uint256"
            },
            {
              "internalType": "uint256",
              "name": "pAiAfterExitFee",
              "type": "uint256"
            },
            {
              "internalType": "uint256[]",
              "name": "actualAmountsOut",
              "type": "uint256[]"
            }
          ],
          "stateMutability": "view",
          "type": "function"
        },
        {
          "inputs": [
            {
              "internalType": "contract IConfigurableRightsPool",
              "name": "self",
              "type": "IConfigurableRightsPool"
            },
            {
              "internalType": "contract IBPool",
              "name": "bPool",
              "type": "IBPool"
            },
            {
              "internalType": "address",
              "name": "tokenOut",
              "type": "address"
            },
            {
              "internalType": "uint256",
              "name": "tokenAmountOut",
              "type": "uint256"
            },
            {
              "internalType": "uint256",
              "name": "maxPoolAmountIn",
              "type": "uint256"
            }
          ],
          "name": "exitswapExternAmountOut",
          "outputs": [
            {
              "internalType": "uint256",
              "name": "exitFee",
              "type": "uint256"
            },
            {
              "internalType": "uint256",
              "name": "poolAmountIn",
              "type": "uint256"
            }
          ],
          "stateMutability": "view",
          "type": "function"
        },
        {
          "inputs": [
            {
              "internalType": "contract IConfigurableRightsPool",
              "name": "self",
              "type": "IConfigurableRightsPool"
            },
            {
              "internalType": "contract IBPool",
              "name": "bPool",
              "type": "IBPool"
            },
            {
              "internalType": "address",
              "name": "tokenOut",
              "type": "address"
            },
            {
              "internalType": "uint256",
              "name": "poolAmountIn",
              "type": "uint256"
            },
            {
              "internalType": "uint256",
              "name": "minAmountOut",
              "type": "uint256"
            }
          ],
          "name": "exitswapPoolAmountIn",
          "outputs": [
            {
              "internalType": "uint256",
              "name": "exitFee",
              "type": "uint256"
            },
            {
              "internalType": "uint256",
              "name": "tokenAmountOut",
              "type": "uint256"
            }
          ],
          "stateMutability": "view",
          "type": "function"
        },
        {
          "inputs": [
            {
              "internalType": "contract IConfigurableRightsPool",
              "name": "self",
              "type": "IConfigurableRightsPool"
            },
            {
              "internalType": "contract IBPool",
              "name": "bPool",
              "type": "IBPool"
            },
            {
              "internalType": "uint256",
              "name": "poolAmountOut",
              "type": "uint256"
            },
            {
              "internalType": "uint256[]",
              "name": "maxAmountsIn",
              "type": "uint256[]"
            }
          ],
          "name": "joinPool",
          "outputs": [
            {
              "internalType": "uint256[]",
              "name": "actualAmountsIn",
              "type": "uint256[]"
            }
          ],
          "stateMutability": "view",
          "type": "function"
        },
        {
          "inputs": [
            {
              "internalType": "contract IConfigurableRightsPool",
              "name": "self",
              "type": "IConfigurableRightsPool"
            },
            {
              "internalType": "contract IBPool",
              "name": "bPool",
              "type": "IBPool"
            },
            {
              "internalType": "address",
              "name": "tokenIn",
              "type": "address"
            },
            {
              "internalType": "uint256",
              "name": "tokenAmountIn",
              "type": "uint256"
            },
            {
              "internalType": "uint256",
              "name": "minPoolAmountOut",
              "type": "uint256"
            }
          ],
          "name": "joinswapExternAmountIn",
          "outputs": [
            {
              "internalType": "uint256",
              "name": "poolAmountOut",
              "type": "uint256"
            }
          ],
          "stateMutability": "view",
          "type": "function"
        },
        {
          "inputs": [
            {
              "internalType": "contract IConfigurableRightsPool",
              "name": "self",
              "type": "IConfigurableRightsPool"
            },
            {
              "internalType": "contract IBPool",
              "name": "bPool",
              "type": "IBPool"
            },
            {
              "internalType": "address",
              "name": "tokenIn",
              "type": "address"
            },
            {
              "internalType": "uint256",
              "name": "poolAmountOut",
              "type": "uint256"
            },
            {
              "internalType": "uint256",
              "name": "maxAmountIn",
              "type": "uint256"
            }
          ],
          "name": "joinswapPoolAmountOut",
          "outputs": [
            {
              "internalType": "uint256",
              "name": "tokenAmountIn",
              "type": "uint256"
            }
          ],
          "stateMutability": "view",
          "type": "function"
        }
      ],
      "evm": {
        "bytecode": {
          "linkReferences": {},
          "object": "613f71610026600b82828239805160001a60731461001957fe5b30600052607381538281f3fe73000000000000000000000000000000000000000030146080604052600436106100f45760003560e01c806382495b4511610096578063d505a94e11610070578063d505a94e14610247578063df90de0b1461025a578063efa587741461026d578063f544aa1c1461028d576100f4565b806382495b45146101e7578063a1925f1d14610207578063b489ec1914610227576100f4565b80635471c3e4116100d25780635471c3e41461015b5780636a6dc6e714610186578063724a2d53146101a657806377d44349146101c7576100f4565b80630970e47f146100f957806313b8bf241461011b5780631c1af1361461013b575b600080fd5b81801561010557600080fd5b5061011961011436600461372d565b6102ad565b005b81801561012757600080fd5b506101196101363660046136b8565b610754565b81801561014757600080fd5b506101196101563660046134fa565b610a46565b61016e610169366004613821565b610a52565b60405161017d93929190613eb8565b60405180910390f35b6101996101943660046137c7565b610d2b565b60405161017d9190613ea1565b6101b96101b43660046137c7565b611180565b60405161017d929190613eaa565b8180156101d357600080fd5b506101196101e2366004613532565b6115e3565b8180156101f357600080fd5b5061011961020236600461368d565b611624565b61021a610215366004613821565b6119a6565b60405161017d91906139b5565b81801561023357600080fd5b5061011961024236600461363d565b611c61565b6101b96102553660046137c7565b611e5a565b6101996102683660046137c7565b612236565b81801561027957600080fd5b50610119610288366004613892565b612607565b81801561029957600080fd5b506101196102a8366004613777565b612979565b6000836001600160a01b03166318160ddd6040518163ffffffff1660e01b815260040160206040518083038186803b1580156102e857600080fd5b505afa1580156102fc573d6000803e3d6000fd5b505050506040513d601f19601f8201168201806040525081019061032091906138d7565b905060006104226103ac83866001600160a01b031663948d8ce6876040518263ffffffff1660e01b81526004016103579190613929565b60206040518083038186803b15801561036f57600080fd5b505afa158015610383573d6000803e3d6000fd5b505050506040513d601f19601f820116820180604052508101906103a791906138d7565b613032565b856001600160a01b031663936c34776040518163ffffffff1660e01b815260040160206040518083038186803b1580156103e557600080fd5b505afa1580156103f9573d6000803e3d6000fd5b505050506040513d601f19601f8201168201806040525081019061041d91906138d7565b6130b1565b90506000846001600160a01b031663f8b2cb4f856040518263ffffffff1660e01b81526004016104529190613929565b60206040518083038186803b15801561046a57600080fd5b505afa15801561047e573d6000803e3d6000fd5b505050506040513d601f19601f820116820180604052508101906104a291906138d7565b60405163cf5e7bd360e01b81529091506001600160a01b0386169063cf5e7bd3906104d1908790600401613929565b600060405180830381600087803b1580156104eb57600080fd5b505af11580156104ff573d6000803e3d6000fd5b505050506000846001600160a01b031663a9059cbb886001600160a01b0316633018205f6040518163ffffffff1660e01b815260040160206040518083038186803b15801561054d57600080fd5b505afa158015610561573d6000803e3d6000fd5b505050506040513d601f19601f820116820180604052508101906105859190613516565b846040518363ffffffff1660e01b81526004016105a3929190613961565b602060405180830381600087803b1580156105bd57600080fd5b505af11580156105d1573d6000803e3d6000fd5b505050506040513d601f19601f820116820180604052508101906105f5919061361d565b90508061061d5760405162461bcd60e51b815260040161061490613e23565b60405180910390fd5b866001600160a01b03166355c32a23886001600160a01b0316633018205f6040518163ffffffff1660e01b815260040160206040518083038186803b15801561066557600080fd5b505afa158015610679573d6000803e3d6000fd5b505050506040513d601f19601f8201168201806040525081019061069d9190613516565b856040518363ffffffff1660e01b81526004016106bb929190613961565b600060405180830381600087803b1580156106d557600080fd5b505af11580156106e9573d6000803e3d6000fd5b505060405163011075bb60e51b81526001600160a01b038a16925063220eb7609150610719908690600401613ea1565b600060405180830381600087803b15801561073357600080fd5b505af1158015610747573d6000803e3d6000fd5b5050505050505050505050565b8143106107735760405162461bcd60e51b8152600401610614906139f5565b8243111561078357438655610787565b8286555b80610796838860000154613142565b10156107b45760405162461bcd60e51b815260040161061490613a2c565b6060876001600160a01b031663cc77828d6040518163ffffffff1660e01b815260040160006040518083038186803b1580156107ef57600080fd5b505afa158015610803573d6000803e3d6000fd5b505050506040513d6000823e601f3d908101601f1916820160405261082b9190810190613572565b8051909150851461084e5760405162461bcd60e51b815260040161061490613a61565b6000815167ffffffffffffffff8111801561086857600080fd5b50604051908082528060200260200182016040528015610892578160200160208202803683370190505b5080516108a99160028b0191602090910190613412565b5060005b82518110156109fb576802b5e3af16b18800008888838181106108cc57fe5b9050602002013511156108f15760405162461bcd60e51b815260040161061490613d08565b670de0b6b3a764000088888381811061090657fe5b90506020020135101561092b5760405162461bcd60e51b815260040161061490613c60565b6109478289898481811061093b57fe5b9050602002013561317b565b9150896001600160a01b031663948d8ce684838151811061096457fe5b60200260200101516040518263ffffffff1660e01b81526004016109889190613929565b60206040518083038186803b1580156109a057600080fd5b505afa1580156109b4573d6000803e3d6000fd5b505050506040513d601f19601f820116820180604052508101906109d891906138d7565b8960020182815481106109e757fe5b6000918252602090912001556001016108ad565b506802b5e3af16b1880000811115610a255760405162461bcd60e51b815260040161061490613b39565b60018801849055610a3a60038901888861345d565b50505050505050505050565b610a4f816131a7565b50565b600080606080876001600160a01b031663cc77828d6040518163ffffffff1660e01b815260040160006040518083038186803b158015610a9157600080fd5b505afa158015610aa5573d6000803e3d6000fd5b505050506040513d6000823e601f3d908101601f19168201604052610acd9190810190613572565b80519091508514610af05760405162461bcd60e51b815260040161061490613b67565b6000896001600160a01b03166318160ddd6040518163ffffffff1660e01b815260040160206040518083038186803b158015610b2b57600080fd5b505afa158015610b3f573d6000803e3d6000fd5b505050506040513d601f19601f82011682018060405250810190610b6391906138d7565b9050610b70886000613032565b9450610b7c8886613142565b93506000610b8f8561041d84600161317b565b905080610bae5760405162461bcd60e51b815260040161061490613ae8565b825167ffffffffffffffff81118015610bc657600080fd5b50604051908082528060200260200182016040528015610bf0578160200160208202803683370190505b50935060005b8351811015610d1c576000848281518110610c0d57fe5b6020026020010151905060008c6001600160a01b031663f8b2cb4f836040518263ffffffff1660e01b8152600401610c459190613929565b60206040518083038186803b158015610c5d57600080fd5b505afa158015610c71573d6000803e3d6000fd5b505050506040513d601f19601f82011682018060405250810190610c9591906138d7565b90506000610ca8856103a7846001613142565b905080610cc75760405162461bcd60e51b815260040161061490613ae8565b8b8b85818110610cd357fe5b90506020020135811015610cf95760405162461bcd60e51b815260040161061490613b95565b80888581518110610d0657fe5b6020908102919091010152505050600101610bf6565b50505050955095509592505050565b604051630bcded8960e21b81526000906001600160a01b03861690632f37b62490610d5a908790600401613929565b60206040518083038186803b158015610d7257600080fd5b505afa158015610d86573d6000803e3d6000fd5b505050506040513d601f19601f82011682018060405250810190610daa919061361d565b610dc65760405162461bcd60e51b815260040161061490613cb9565b60405163f8b2cb4f60e01b81526001600160a01b03861690635c1bbaf790829063f8b2cb4f90610dfa908990600401613929565b60206040518083038186803b158015610e1257600080fd5b505afa158015610e26573d6000803e3d6000fd5b505050506040513d601f19601f82011682018060405250810190610e4a91906138d7565b604051634a46c67360e11b81526001600160a01b0389169063948d8ce690610e76908a90600401613929565b60206040518083038186803b158015610e8e57600080fd5b505afa158015610ea2573d6000803e3d6000fd5b505050506040513d601f19601f82011682018060405250810190610ec691906138d7565b896001600160a01b03166318160ddd6040518163ffffffff1660e01b815260040160206040518083038186803b158015610eff57600080fd5b505afa158015610f13573d6000803e3d6000fd5b505050506040513d601f19601f82011682018060405250810190610f3791906138d7565b896001600160a01b031663936c34776040518163ffffffff1660e01b815260040160206040518083038186803b158015610f7057600080fd5b505afa158015610f84573d6000803e3d6000fd5b505050506040513d601f19601f82011682018060405250810190610fa891906138d7565b888b6001600160a01b031663d4cadf686040518163ffffffff1660e01b815260040160206040518083038186803b158015610fe257600080fd5b505afa158015610ff6573d6000803e3d6000fd5b505050506040513d601f19601f8201168201806040525081019061101a91906138d7565b6040518763ffffffff1660e01b815260040161103b96959493929190613ed7565b60206040518083038186803b15801561105357600080fd5b505afa158015611067573d6000803e3d6000fd5b505050506040513d601f19601f8201168201806040525081019061108b91906138d7565b9050806110aa5760405162461bcd60e51b815260040161061490613ae8565b818111156110ca5760405162461bcd60e51b815260040161061490613c3a565b60405163f8b2cb4f60e01b8152611158906001600160a01b0387169063f8b2cb4f906110fa908890600401613929565b60206040518083038186803b15801561111257600080fd5b505afa158015611126573d6000803e3d6000fd5b505050506040513d601f19601f8201168201806040525081019061114a91906138d7565b6706f05b59d3b20000613032565b8111156111775760405162461bcd60e51b815260040161061490613abe565b95945050505050565b600080856001600160a01b0316632f37b624866040518263ffffffff1660e01b81526004016111af9190613929565b60206040518083038186803b1580156111c757600080fd5b505afa1580156111db573d6000803e3d6000fd5b505050506040513d601f19601f820116820180604052508101906111ff919061361d565b61121b5760405162461bcd60e51b815260040161061490613cb9565b60405163f8b2cb4f60e01b81526112a9906001600160a01b0388169063f8b2cb4f9061124b908990600401613929565b60206040518083038186803b15801561126357600080fd5b505afa158015611277573d6000803e3d6000fd5b505050506040513d601f19601f8201168201806040525081019061129b91906138d7565b6704a03ce68d215556613032565b8411156112c85760405162461bcd60e51b815260040161061490613c8e565b60405163f8b2cb4f60e01b81526001600160a01b038716906382f652ad90829063f8b2cb4f906112fc908a90600401613929565b60206040518083038186803b15801561131457600080fd5b505afa158015611328573d6000803e3d6000fd5b505050506040513d601f19601f8201168201806040525081019061134c91906138d7565b604051634a46c67360e11b81526001600160a01b038a169063948d8ce690611378908b90600401613929565b60206040518083038186803b15801561139057600080fd5b505afa1580156113a4573d6000803e3d6000fd5b505050506040513d601f19601f820116820180604052508101906113c891906138d7565b8a6001600160a01b03166318160ddd6040518163ffffffff1660e01b815260040160206040518083038186803b15801561140157600080fd5b505afa158015611415573d6000803e3d6000fd5b505050506040513d601f19601f8201168201806040525081019061143991906138d7565b8a6001600160a01b031663936c34776040518163ffffffff1660e01b815260040160206040518083038186803b15801561147257600080fd5b505afa158015611486573d6000803e3d6000fd5b505050506040513d601f19601f820116820180604052508101906114aa91906138d7565b898c6001600160a01b031663d4cadf686040518163ffffffff1660e01b815260040160206040518083038186803b1580156114e457600080fd5b505afa1580156114f8573d6000803e3d6000fd5b505050506040513d601f19601f8201168201806040525081019061151c91906138d7565b6040518763ffffffff1660e01b815260040161153d96959493929190613ed7565b60206040518083038186803b15801561155557600080fd5b505afa158015611569573d6000803e3d6000fd5b505050506040513d601f19601f8201168201806040525081019061158d91906138d7565b9050806115ac5760405162461bcd60e51b815260040161061490613ae8565b828111156115cc5760405162461bcd60e51b815260040161061490613c3a565b6115d7816000613032565b91509550959350505050565b60005b8181101561161f576116178383838181106115fd57fe5b905060200201602081019061161291906134fa565b6131a7565b6001016115e6565b505050565b805461162f576119a2565b80544310156116505760405162461bcd60e51b815260040161061490613be5565b600081600101544311156116695750600181015461166c565b50435b600061168083600101548460000154613142565b90506000611692838560000154613142565b905060008060006060886001600160a01b031663cc77828d6040518163ffffffff1660e01b815260040160006040518083038186803b1580156116d457600080fd5b505afa1580156116e8573d6000803e3d6000fd5b505050506040513d6000823e601f3d908101601f191682016040526117109190810190613572565b905060005b81518110156119895788600301818154811061172d57fe5b906000526020600020015489600201828154811061174757fe5b9060005260206000200154146119815788600201818154811061176657fe5b906000526020600020015489600301828154811061178057fe5b9060005260206000200154101561180e576117cd8960020182815481106117a357fe5b90600052602060002001548a60030183815481106117bd57fe5b9060005260206000200154613142565b94506117d985886130b1565b93506118078960020182815481106117ed57fe5b90600052602060002001546118028887613032565b613142565b9250611877565b61183a89600301828154811061182057fe5b90600052602060002001548a60020183815481106117bd57fe5b945061184685886130b1565b935061187489600201828154811061185a57fe5b906000526020600020015461186f8887613032565b61317b565b92505b60008a6001600160a01b031663f8b2cb4f84848151811061189457fe5b60200260200101516040518263ffffffff1660e01b81526004016118b89190613929565b60206040518083038186803b1580156118d057600080fd5b505afa1580156118e4573d6000803e3d6000fd5b505050506040513d601f19601f8201168201806040525081019061190891906138d7565b90508a6001600160a01b0316633fdddaa284848151811061192557fe5b602002602001015183876040518463ffffffff1660e01b815260040161194d93929190613994565b600060405180830381600087803b15801561196757600080fd5b505af115801561197b573d6000803e3d6000fd5b50505050505b600101611715565b508760010154431061199a57600088555b505050505050505b5050565b606080856001600160a01b031663cc77828d6040518163ffffffff1660e01b815260040160006040518083038186803b1580156119e257600080fd5b505afa1580156119f6573d6000803e3d6000fd5b505050506040513d6000823e601f3d908101601f19168201604052611a1e9190810190613572565b80519091508314611a415760405162461bcd60e51b815260040161061490613b67565b6000876001600160a01b03166318160ddd6040518163ffffffff1660e01b815260040160206040518083038186803b158015611a7c57600080fd5b505afa158015611a90573d6000803e3d6000fd5b505050506040513d601f19601f82011682018060405250810190611ab491906138d7565b90506000611ac78761041d846001613142565b905080611ae65760405162461bcd60e51b815260040161061490613ae8565b825167ffffffffffffffff81118015611afe57600080fd5b50604051908082528060200260200182016040528015611b28578160200160208202803683370190505b50935060005b8351811015611c54576000848281518110611b4557fe5b6020026020010151905060008a6001600160a01b031663f8b2cb4f836040518263ffffffff1660e01b8152600401611b7d9190613929565b60206040518083038186803b158015611b9557600080fd5b505afa158015611ba9573d6000803e3d6000fd5b505050506040513d601f19601f82011682018060405250810190611bcd91906138d7565b90506000611be0856103a784600161317b565b905080611bff5760405162461bcd60e51b815260040161061490613ae8565b898985818110611c0b57fe5b90506020020135811115611c315760405162461bcd60e51b815260040161061490613c3a565b80888581518110611c3e57fe5b6020908102919091010152505050600101611b2e565b5050505095945050505050565b604051630bcded8960e21b81526001600160a01b03861690632f37b62490611c8d908790600401613929565b60206040518083038186803b158015611ca557600080fd5b505afa158015611cb9573d6000803e3d6000fd5b505050506040513d601f19601f82011682018060405250810190611cdd919061361d565b15611cfa5760405162461bcd60e51b815260040161061490613a98565b6802b5e3af16b1880000821115611d235760405162461bcd60e51b815260040161061490613d08565b670de0b6b3a7640000821015611d4b5760405162461bcd60e51b815260040161061490613c60565b670de0b6b3a7640000603202611dd1866001600160a01b031663936c34776040518163ffffffff1660e01b815260040160206040518083038186803b158015611d9357600080fd5b505afa158015611da7573d6000803e3d6000fd5b505050506040513d601f19601f82011682018060405250810190611dcb91906138d7565b8461317b565b1115611def5760405162461bcd60e51b815260040161061490613b39565b64e8d4a51000831015611e145760405162461bcd60e51b815260040161061490613df4565b805460038201939093556002810191909155436001820155600160a01b6001600160a01b03199092166001600160a01b03939093169290921760ff60a01b191617905550565b600080856001600160a01b0316632f37b624866040518263ffffffff1660e01b8152600401611e899190613929565b60206040518083038186803b158015611ea157600080fd5b505afa158015611eb5573d6000803e3d6000fd5b505050506040513d601f19601f82011682018060405250810190611ed9919061361d565b611ef55760405162461bcd60e51b815260040161061490613cb9565b60405163f8b2cb4f60e01b81526001600160a01b03871690638929801290829063f8b2cb4f90611f29908a90600401613929565b60206040518083038186803b158015611f4157600080fd5b505afa158015611f55573d6000803e3d6000fd5b505050506040513d601f19601f82011682018060405250810190611f7991906138d7565b604051634a46c67360e11b81526001600160a01b038a169063948d8ce690611fa5908b90600401613929565b60206040518083038186803b158015611fbd57600080fd5b505afa158015611fd1573d6000803e3d6000fd5b505050506040513d601f19601f82011682018060405250810190611ff591906138d7565b8a6001600160a01b03166318160ddd6040518163ffffffff1660e01b815260040160206040518083038186803b15801561202e57600080fd5b505afa158015612042573d6000803e3d6000fd5b505050506040513d601f19601f8201168201806040525081019061206691906138d7565b8a6001600160a01b031663936c34776040518163ffffffff1660e01b815260040160206040518083038186803b15801561209f57600080fd5b505afa1580156120b3573d6000803e3d6000fd5b505050506040513d601f19601f820116820180604052508101906120d791906138d7565b898c6001600160a01b031663d4cadf686040518163ffffffff1660e01b815260040160206040518083038186803b15801561211157600080fd5b505afa158015612125573d6000803e3d6000fd5b505050506040513d601f19601f8201168201806040525081019061214991906138d7565b6040518763ffffffff1660e01b815260040161216a96959493929190613ed7565b60206040518083038186803b15801561218257600080fd5b505afa158015612196573d6000803e3d6000fd5b505050506040513d601f19601f820116820180604052508101906121ba91906138d7565b9050828110156121dc5760405162461bcd60e51b815260040161061490613b95565b60405163f8b2cb4f60e01b815261220c906001600160a01b0388169063f8b2cb4f9061124b908990600401613929565b81111561222b5760405162461bcd60e51b815260040161061490613c8e565b6115d7846000613032565b604051630bcded8960e21b81526000906001600160a01b03861690632f37b62490612265908790600401613929565b60206040518083038186803b15801561227d57600080fd5b505afa158015612291573d6000803e3d6000fd5b505050506040513d601f19601f820116820180604052508101906122b5919061361d565b6122d15760405162461bcd60e51b815260040161061490613cb9565b60405163f8b2cb4f60e01b8152612301906001600160a01b0387169063f8b2cb4f906110fa908890600401613929565b8311156123205760405162461bcd60e51b815260040161061490613abe565b60405163f8b2cb4f60e01b81526001600160a01b03861690638656b65390829063f8b2cb4f90612354908990600401613929565b60206040518083038186803b15801561236c57600080fd5b505afa158015612380573d6000803e3d6000fd5b505050506040513d601f19601f820116820180604052508101906123a491906138d7565b604051634a46c67360e11b81526001600160a01b0389169063948d8ce6906123d0908a90600401613929565b60206040518083038186803b1580156123e857600080fd5b505afa1580156123fc573d6000803e3d6000fd5b505050506040513d601f19601f8201168201806040525081019061242091906138d7565b896001600160a01b03166318160ddd6040518163ffffffff1660e01b815260040160206040518083038186803b15801561245957600080fd5b505afa15801561246d573d6000803e3d6000fd5b505050506040513d601f19601f8201168201806040525081019061249191906138d7565b896001600160a01b031663936c34776040518163ffffffff1660e01b815260040160206040518083038186803b1580156124ca57600080fd5b505afa1580156124de573d6000803e3d6000fd5b505050506040513d601f19601f8201168201806040525081019061250291906138d7565b888b6001600160a01b031663d4cadf686040518163ffffffff1660e01b815260040160206040518083038186803b15801561253c57600080fd5b505afa158015612550573d6000803e3d6000fd5b505050506040513d601f19601f8201168201806040525081019061257491906138d7565b6040518763ffffffff1660e01b815260040161259596959493929190613ed7565b60206040518083038186803b1580156125ad57600080fd5b505afa1580156125c1573d6000803e3d6000fd5b505050506040513d601f19601f820116820180604052508101906125e591906138d7565b9050818110156111775760405162461bcd60e51b815260040161061490613b95565b8054600160a01b900460ff1661262f5760405162461bcd60e51b8152600401610614906139c8565b8161263e438360010154613142565b101561265c5760405162461bcd60e51b815260040161061490613d36565b6000846001600160a01b03166318160ddd6040518163ffffffff1660e01b815260040160206040518083038186803b15801561269757600080fd5b505afa1580156126ab573d6000803e3d6000fd5b505050506040513d601f19601f820116820180604052508101906126cf91906138d7565b9050600061271d6126e4838560020154613032565b866001600160a01b031663936c34776040518163ffffffff1660e01b815260040160206040518083038186803b1580156103e557600080fd5b835460ff60a01b198116855560408051633018205f60e01b815290519293506000926001600160a01b03928316926323b872dd92908b1691633018205f91600480820192602092909190829003018186803b15801561277b57600080fd5b505afa15801561278f573d6000803e3d6000fd5b505050506040513d601f19601f820116820180604052508101906127b39190613516565b8987600301546040518463ffffffff1660e01b81526004016127d79392919061393d565b602060405180830381600087803b1580156127f157600080fd5b505af1158015612805573d6000803e3d6000fd5b505050506040513d601f19601f82011682018060405250810190612829919061361d565b9050806128485760405162461bcd60e51b815260040161061490613e23565b8354612860906001600160a01b031687600019613249565b90508061287f5760405162461bcd60e51b815260040161061490613e23565b835460038501546002860154604051631c9c3ca760e31b81526001600160a01b03808b169463e4e1e538946128bb949190921692600401613994565b600060405180830381600087803b1580156128d557600080fd5b505af11580156128e9573d6000803e3d6000fd5b50506040516325d2bc4160e11b81526001600160a01b038a169250634ba578829150612919908590600401613ea1565b600060405180830381600087803b15801561293357600080fd5b505af1158015612947573d6000803e3d6000fd5b5050604051630257733360e21b81526001600160a01b038a16925063095dcccc91506107199033908690600401613961565b670de0b6b3a76400008110156129a15760405162461bcd60e51b815260040161061490613ce0565b6802b5e3af16b18800008111156129ca5760405162461bcd60e51b815260040161061490613b11565b604051634a46c67360e11b81526000906001600160a01b0385169063948d8ce6906129f9908690600401613929565b60206040518083038186803b158015612a1157600080fd5b505afa158015612a25573d6000803e3d6000fd5b505050506040513d601f19601f82011682018060405250810190612a4991906138d7565b905081811415612a59575061302c565b60405163f8b2cb4f60e01b81526000906001600160a01b0386169063f8b2cb4f90612a88908790600401613929565b60206040518083038186803b158015612aa057600080fd5b505afa158015612ab4573d6000803e3d6000fd5b505050506040513d601f19601f82011682018060405250810190612ad891906138d7565b90506000866001600160a01b03166318160ddd6040518163ffffffff1660e01b815260040160206040518083038186803b158015612b1557600080fd5b505afa158015612b29573d6000803e3d6000fd5b505050506040513d601f19601f82011682018060405250810190612b4d91906138d7565b90506000866001600160a01b031663936c34776040518163ffffffff1660e01b815260040160206040518083038186803b158015612b8a57600080fd5b505afa158015612b9e573d6000803e3d6000fd5b505050506040513d601f19601f82011682018060405250810190612bc291906138d7565b905060008060008087891015612df757612bdc888a613142565b9150612bec866103a784886130b1565b9350612bfc876103a7848b6130b1565b9250612c088784613142565b905064e8d4a51000811015612c2f5760405162461bcd60e51b815260040161061490613bbc565b604051631feeed5160e11b81526001600160a01b038c1690633fdddaa290612c5f908d9085908e90600401613994565b600060405180830381600087803b158015612c7957600080fd5b505af1158015612c8d573d6000803e3d6000fd5b505060405163a9059cbb60e01b8152600092506001600160a01b038d16915063a9059cbb90612cc29033908890600401613961565b602060405180830381600087803b158015612cdc57600080fd5b505af1158015612cf0573d6000803e3d6000fd5b505050506040513d601f19601f82011682018060405250810190612d14919061361d565b905080612d335760405162461bcd60e51b815260040161061490613e23565b6040516355c32a2360e01b81526001600160a01b038e16906355c32a2390612d619033908990600401613961565b600060405180830381600087803b158015612d7b57600080fd5b505af1158015612d8f573d6000803e3d6000fd5b505050508c6001600160a01b031663220eb760866040518263ffffffff1660e01b8152600401612dbf9190613ea1565b600060405180830381600087803b158015612dd957600080fd5b505af1158015612ded573d6000803e3d6000fd5b5050505050613023565b612e018989613142565b91506802b5e3af16b1880000612e17868461317b565b1115612e355760405162461bcd60e51b815260040161061490613b39565b612e43866103a784886130b1565b9350612e53876103a7848b6130b1565b925060008a6001600160a01b03166323b872dd3330876040518463ffffffff1660e01b8152600401612e879392919061393d565b602060405180830381600087803b158015612ea157600080fd5b505af1158015612eb5573d6000803e3d6000fd5b505050506040513d601f19601f82011682018060405250810190612ed9919061361d565b905080612ef85760405162461bcd60e51b815260040161061490613e23565b8b6001600160a01b0316633fdddaa28c612f128b8861317b565b8d6040518463ffffffff1660e01b8152600401612f3193929190613994565b600060405180830381600087803b158015612f4b57600080fd5b505af1158015612f5f573d6000803e3d6000fd5b505050508c6001600160a01b0316634ba57882866040518263ffffffff1660e01b8152600401612f8f9190613ea1565b600060405180830381600087803b158015612fa957600080fd5b505af1158015612fbd573d6000803e3d6000fd5b505050508c6001600160a01b031663095dcccc33876040518363ffffffff1660e01b8152600401612fef929190613961565b600060405180830381600087803b15801561300957600080fd5b505af115801561301d573d6000803e3d6000fd5b50505050505b50505050505050505b50505050565b600082613041575060006130ab565b8282028284828161304e57fe5b041461306c5760405162461bcd60e51b815260040161061490613d6d565b6706f05b59d3b200008101818110156130975760405162461bcd60e51b815260040161061490613d6d565b6000670de0b6b3a7640000825b0493505050505b92915050565b6000816130d05760405162461bcd60e51b815260040161061490613dce565b826130dd575060006130ab565b670de0b6b3a7640000838102908482816130f357fe5b04146131115760405162461bcd60e51b815260040161061490613c10565b600283048101818110156131375760405162461bcd60e51b815260040161061490613c10565b60008482816130a457fe5b600080600061315185856133ed565b9150915080156131735760405162461bcd60e51b815260040161061490613e4c565b509392505050565b6000828201838110156131a05760405162461bcd60e51b815260040161061490613e77565b9392505050565b60405163a9059cbb60e01b81526000906001600160a01b0383169063a9059cbb906131d89033908590600401613961565b602060405180830381600087803b1580156131f257600080fd5b505af1158015613206573d6000803e3d6000fd5b505050506040513d601f19601f8201168201806040525081019061322a919061361d565b9050806119a25760405162461bcd60e51b815260040161061490613d97565b600080846001600160a01b031663dd62ed3e30866040518363ffffffff1660e01b815260040161327a92919061397a565b60206040518083038186803b15801561329257600080fd5b505afa1580156132a6573d6000803e3d6000fd5b505050506040513d601f19601f820116820180604052508101906132ca91906138d7565b9050828114156132de5760019150506131a0565b801561336d5760405163095ea7b360e01b81526001600160a01b0386169063095ea7b390613313908790600090600401613961565b602060405180830381600087803b15801561332d57600080fd5b505af1158015613341573d6000803e3d6000fd5b505050506040513d601f19601f82011682018060405250810190613365919061361d565b9150506131a0565b60405163095ea7b360e01b81526001600160a01b0386169063095ea7b39061339b9087908790600401613961565b602060405180830381600087803b1580156133b557600080fd5b505af11580156133c9573d6000803e3d6000fd5b505050506040513d601f19601f82011682018060405250810190611177919061361d565b600080838311613403575050808203600061340b565b505081810360015b9250929050565b82805482825590600052602060002090810192821561344d579160200282015b8281111561344d578251825591602001919060010190613432565b50613459929150613498565b5090565b82805482825590600052602060002090810192821561344d579160200282015b8281111561344d57823582559160200191906001019061347d565b5b808211156134595760008155600101613499565b80516130ab81613f26565b60008083601f8401126134c9578182fd5b50813567ffffffffffffffff8111156134e0578182fd5b602083019150836020808302850101111561340b57600080fd5b60006020828403121561350b578081fd5b81356131a081613f26565b600060208284031215613527578081fd5b81516131a081613f26565b60008060208385031215613544578081fd5b823567ffffffffffffffff81111561355a578182fd5b613566858286016134b8565b90969095509350505050565b60006020808385031215613584578182fd5b825167ffffffffffffffff8082111561359b578384fd5b818501915085601f8301126135ae578384fd5b8151818111156135bc578485fd5b83810291506135cc848301613eff565b8181528481019084860184860187018a10156135e6578788fd5b8795505b83861015613610576135fc8a826134ad565b8352600195909501949186019186016135ea565b5098975050505050505050565b60006020828403121561362e578081fd5b815180151581146131a0578182fd5b600080600080600060a08688031215613654578081fd5b853561365f81613f26565b9450602086013561366f81613f26565b94979496505050506040830135926060810135926080909101359150565b6000806040838503121561369f578182fd5b82356136aa81613f26565b946020939093013593505050565b600080600080600080600060c0888a0312156136d2578182fd5b87356136dd81613f26565b965060208801359550604088013567ffffffffffffffff8111156136ff578283fd5b61370b8a828b016134b8565b989b979a50986060810135976080820135975060a09091013595509350505050565b600080600060608486031215613741578283fd5b833561374c81613f26565b9250602084013561375c81613f26565b9150604084013561376c81613f26565b809150509250925092565b6000806000806080858703121561378c578384fd5b843561379781613f26565b935060208501356137a781613f26565b925060408501356137b781613f26565b9396929550929360600135925050565b600080600080600060a086880312156137de578283fd5b85356137e981613f26565b945060208601356137f981613f26565b9350604086013561380981613f26565b94979396509394606081013594506080013592915050565b600080600080600060808688031215613838578283fd5b853561384381613f26565b9450602086013561385381613f26565b935060408601359250606086013567ffffffffffffffff811115613875578182fd5b613881888289016134b8565b969995985093965092949392505050565b600080600080608085870312156138a7578182fd5b84356138b281613f26565b935060208501356138c281613f26565b93969395505050506040820135916060013590565b6000602082840312156138e8578081fd5b5051919050565b6000815180845260208085019450808401835b8381101561391e57815187529582019590820190600101613902565b509495945050505050565b6001600160a01b0391909116815260200190565b6001600160a01b039384168152919092166020820152604081019190915260600190565b6001600160a01b03929092168252602082015260400190565b6001600160a01b0392831681529116602082015260400190565b6001600160a01b039390931683526020830191909152604082015260600190565b6000602082526131a060208301846138ef565b60208082526013908201527211549497d393d7d513d2d15397d0d3d3535255606a1b604082015260600190565b6020808252601e908201527f4552525f4752414455414c5f5550444154455f54494d455f54524156454c0000604082015260600190565b6020808252818101527f4552525f5745494748545f4348414e47455f54494d455f42454c4f575f4d494e604082015260600190565b6020808252601a908201527f4552525f53544152545f574549474854535f4d49534d41544348000000000000604082015260600190565b6020808252600c908201526b11549497d254d7d093d5539160a21b604082015260600190565b60208082526010908201526f4552525f4d41585f494e5f524154494f60801b604082015260600190565b6020808252600f908201526e08aa4a4be9a82a890be82a0a0a49eb608b1b604082015260600190565b6020808252600e908201526d11549497d3505617d5d15251d21560921b604082015260600190565b60208082526014908201527311549497d3505617d513d5105317d5d15251d21560621b604082015260600190565b60208082526014908201527308aa4a4be829a9eaa9ca8a6be9a92a69a82a886960631b604082015260600190565b6020808252600d908201526c11549497d31253525517d3d555609a1b604082015260600190565b6020808252600f908201526e4552525f4d494e5f42414c414e434560881b604082015260600190565b60208082526011908201527011549497d0d0539517d413d2d157d65155607a1b604082015260600190565b60208082526010908201526f11549497d1125597d25395115493905360821b604082015260600190565b6020808252600c908201526b22a9292fa624a6a4aa2fa4a760a11b604082015260600190565b60208082526014908201527322a9292faba2a4a3a42a2fa122a627abafa6a4a760611b604082015260600190565b6020808252601190820152704552525f4d41585f4f55545f524154494f60781b604082015260600190565b6020808252600d908201526c11549497d393d517d093d55391609a1b604082015260600190565b6020808252600e908201526d11549497d3525397d5d15251d21560921b604082015260600190565b60208082526014908201527308aa4a4beae8a928e90a8be82849eac8abe9a82b60631b604082015260600190565b6020808252601b908201527f4552525f54494d454c4f434b5f5354494c4c5f434f554e54494e470000000000604082015260600190565b60208082526010908201526f4552525f4d554c5f4f564552464c4f5760801b604082015260600190565b60208082526017908201527f4552525f4e4f4e434f4e464f524d494e475f544f4b454e000000000000000000604082015260600190565b6020808252600c908201526b4552525f4449565f5a45524f60a01b604082015260600190565b60208082526015908201527422a9292fa120a620a721a2afa122a627abafa6a4a760591b604082015260600190565b6020808252600f908201526e4552525f45524332305f46414c534560881b604082015260600190565b6020808252601190820152704552525f5355425f554e444552464c4f5760781b604082015260600190565b60208082526010908201526f4552525f4144445f4f564552464c4f5760801b604082015260600190565b90815260200190565b918252602082015260400190565b60008482528360208301526060604083015261117760608301846138ef565b958652602086019490945260408501929092526060840152608083015260a082015260c00190565b60405181810167ffffffffffffffff81118282101715613f1e57600080fd5b604052919050565b6001600160a01b0381168114610a4f57600080fdfea26469706673582212209bd9965253b0b7df253a76bd6c96cd41e8911edcbcd97f58d6f25d45459d019c64736f6c634300060c0033",
          "opcodes": "PUSH2 0x3F71 PUSH2 0x26 PUSH1 0xB DUP3 DUP3 DUP3 CODECOPY DUP1 MLOAD PUSH1 0x0 BYTE PUSH1 0x73 EQ PUSH2 0x19 JUMPI INVALID JUMPDEST ADDRESS PUSH1 0x0 MSTORE PUSH1 0x73 DUP2 MSTORE8 DUP3 DUP2 RETURN INVALID PUSH20 0x0 ADDRESS EQ PUSH1 0x80 PUSH1 0x40 MSTORE PUSH1 0x4 CALLDATASIZE LT PUSH2 0xF4 JUMPI PUSH1 0x0 CALLDATALOAD PUSH1 0xE0 SHR DUP1 PUSH4 0x82495B45 GT PUSH2 0x96 JUMPI DUP1 PUSH4 0xD505A94E GT PUSH2 0x70 JUMPI DUP1 PUSH4 0xD505A94E EQ PUSH2 0x247 JUMPI DUP1 PUSH4 0xDF90DE0B EQ PUSH2 0x25A JUMPI DUP1 PUSH4 0xEFA58774 EQ PUSH2 0x26D JUMPI DUP1 PUSH4 0xF544AA1C EQ PUSH2 0x28D JUMPI PUSH2 0xF4 JUMP JUMPDEST DUP1 PUSH4 0x82495B45 EQ PUSH2 0x1E7 JUMPI DUP1 PUSH4 0xA1925F1D EQ PUSH2 0x207 JUMPI DUP1 PUSH4 0xB489EC19 EQ PUSH2 0x227 JUMPI PUSH2 0xF4 JUMP JUMPDEST DUP1 PUSH4 0x5471C3E4 GT PUSH2 0xD2 JUMPI DUP1 PUSH4 0x5471C3E4 EQ PUSH2 0x15B JUMPI DUP1 PUSH4 0x6A6DC6E7 EQ PUSH2 0x186 JUMPI DUP1 PUSH4 0x724A2D53 EQ PUSH2 0x1A6 JUMPI DUP1 PUSH4 0x77D44349 EQ PUSH2 0x1C7 JUMPI PUSH2 0xF4 JUMP JUMPDEST DUP1 PUSH4 0x970E47F EQ PUSH2 0xF9 JUMPI DUP1 PUSH4 0x13B8BF24 EQ PUSH2 0x11B JUMPI DUP1 PUSH4 0x1C1AF136 EQ PUSH2 0x13B JUMPI JUMPDEST PUSH1 0x0 DUP1 REVERT JUMPDEST DUP2 DUP1 ISZERO PUSH2 0x105 JUMPI PUSH1 0x0 DUP1 REVERT JUMPDEST POP PUSH2 0x119 PUSH2 0x114 CALLDATASIZE PUSH1 0x4 PUSH2 0x372D JUMP JUMPDEST PUSH2 0x2AD JUMP JUMPDEST STOP JUMPDEST DUP2 DUP1 ISZERO PUSH2 0x127 JUMPI PUSH1 0x0 DUP1 REVERT JUMPDEST POP PUSH2 0x119 PUSH2 0x136 CALLDATASIZE PUSH1 0x4 PUSH2 0x36B8 JUMP JUMPDEST PUSH2 0x754 JUMP JUMPDEST DUP2 DUP1 ISZERO PUSH2 0x147 JUMPI PUSH1 0x0 DUP1 REVERT JUMPDEST POP PUSH2 0x119 PUSH2 0x156 CALLDATASIZE PUSH1 0x4 PUSH2 0x34FA JUMP JUMPDEST PUSH2 0xA46 JUMP JUMPDEST PUSH2 0x16E PUSH2 0x169 CALLDATASIZE PUSH1 0x4 PUSH2 0x3821 JUMP JUMPDEST PUSH2 0xA52 JUMP JUMPDEST PUSH1 0x40 MLOAD PUSH2 0x17D SWAP4 SWAP3 SWAP2 SWAP1 PUSH2 0x3EB8 JUMP JUMPDEST PUSH1 0x40 MLOAD DUP1 SWAP2 SUB SWAP1 RETURN JUMPDEST PUSH2 0x199 PUSH2 0x194 CALLDATASIZE PUSH1 0x4 PUSH2 0x37C7 JUMP JUMPDEST PUSH2 0xD2B JUMP JUMPDEST PUSH1 0x40 MLOAD PUSH2 0x17D SWAP2 SWAP1 PUSH2 0x3EA1 JUMP JUMPDEST PUSH2 0x1B9 PUSH2 0x1B4 CALLDATASIZE PUSH1 0x4 PUSH2 0x37C7 JUMP JUMPDEST PUSH2 0x1180 JUMP JUMPDEST PUSH1 0x40 MLOAD PUSH2 0x17D SWAP3 SWAP2 SWAP1 PUSH2 0x3EAA JUMP JUMPDEST DUP2 DUP1 ISZERO PUSH2 0x1D3 JUMPI PUSH1 0x0 DUP1 REVERT JUMPDEST POP PUSH2 0x119 PUSH2 0x1E2 CALLDATASIZE PUSH1 0x4 PUSH2 0x3532 JUMP JUMPDEST PUSH2 0x15E3 JUMP JUMPDEST DUP2 DUP1 ISZERO PUSH2 0x1F3 JUMPI PUSH1 0x0 DUP1 REVERT JUMPDEST POP PUSH2 0x119 PUSH2 0x202 CALLDATASIZE PUSH1 0x4 PUSH2 0x368D JUMP JUMPDEST PUSH2 0x1624 JUMP JUMPDEST PUSH2 0x21A PUSH2 0x215 CALLDATASIZE PUSH1 0x4 PUSH2 0x3821 JUMP JUMPDEST PUSH2 0x19A6 JUMP JUMPDEST PUSH1 0x40 MLOAD PUSH2 0x17D SWAP2 SWAP1 PUSH2 0x39B5 JUMP JUMPDEST DUP2 DUP1 ISZERO PUSH2 0x233 JUMPI PUSH1 0x0 DUP1 REVERT JUMPDEST POP PUSH2 0x119 PUSH2 0x242 CALLDATASIZE PUSH1 0x4 PUSH2 0x363D JUMP JUMPDEST PUSH2 0x1C61 JUMP JUMPDEST PUSH2 0x1B9 PUSH2 0x255 CALLDATASIZE PUSH1 0x4 PUSH2 0x37C7 JUMP JUMPDEST PUSH2 0x1E5A JUMP JUMPDEST PUSH2 0x199 PUSH2 0x268 CALLDATASIZE PUSH1 0x4 PUSH2 0x37C7 JUMP JUMPDEST PUSH2 0x2236 JUMP JUMPDEST DUP2 DUP1 ISZERO PUSH2 0x279 JUMPI PUSH1 0x0 DUP1 REVERT JUMPDEST POP PUSH2 0x119 PUSH2 0x288 CALLDATASIZE PUSH1 0x4 PUSH2 0x3892 JUMP JUMPDEST PUSH2 0x2607 JUMP JUMPDEST DUP2 DUP1 ISZERO PUSH2 0x299 JUMPI PUSH1 0x0 DUP1 REVERT JUMPDEST POP PUSH2 0x119 PUSH2 0x2A8 CALLDATASIZE PUSH1 0x4 PUSH2 0x3777 JUMP JUMPDEST PUSH2 0x2979 JUMP JUMPDEST PUSH1 0x0 DUP4 PUSH1 0x1 PUSH1 0x1 PUSH1 0xA0 SHL SUB AND PUSH4 0x18160DDD PUSH1 0x40 MLOAD DUP2 PUSH4 0xFFFFFFFF AND PUSH1 0xE0 SHL DUP2 MSTORE PUSH1 0x4 ADD PUSH1 0x20 PUSH1 0x40 MLOAD DUP1 DUP4 SUB DUP2 DUP7 DUP1 EXTCODESIZE ISZERO DUP1 ISZERO PUSH2 0x2E8 JUMPI PUSH1 0x0 DUP1 REVERT JUMPDEST POP GAS STATICCALL ISZERO DUP1 ISZERO PUSH2 0x2FC JUMPI RETURNDATASIZE PUSH1 0x0 DUP1 RETURNDATACOPY RETURNDATASIZE PUSH1 0x0 REVERT JUMPDEST POP POP POP POP PUSH1 0x40 MLOAD RETURNDATASIZE PUSH1 0x1F NOT PUSH1 0x1F DUP3 ADD AND DUP3 ADD DUP1 PUSH1 0x40 MSTORE POP DUP2 ADD SWAP1 PUSH2 0x320 SWAP2 SWAP1 PUSH2 0x38D7 JUMP JUMPDEST SWAP1 POP PUSH1 0x0 PUSH2 0x422 PUSH2 0x3AC DUP4 DUP7 PUSH1 0x1 PUSH1 0x1 PUSH1 0xA0 SHL SUB AND PUSH4 0x948D8CE6 DUP8 PUSH1 0x40 MLOAD DUP3 PUSH4 0xFFFFFFFF AND PUSH1 0xE0 SHL DUP2 MSTORE PUSH1 0x4 ADD PUSH2 0x357 SWAP2 SWAP1 PUSH2 0x3929 JUMP JUMPDEST PUSH1 0x20 PUSH1 0x40 MLOAD DUP1 DUP4 SUB DUP2 DUP7 DUP1 EXTCODESIZE ISZERO DUP1 ISZERO PUSH2 0x36F JUMPI PUSH1 0x0 DUP1 REVERT JUMPDEST POP GAS STATICCALL ISZERO DUP1 ISZERO PUSH2 0x383 JUMPI RETURNDATASIZE PUSH1 0x0 DUP1 RETURNDATACOPY RETURNDATASIZE PUSH1 0x0 REVERT JUMPDEST POP POP POP POP PUSH1 0x40 MLOAD RETURNDATASIZE PUSH1 0x1F NOT PUSH1 0x1F DUP3 ADD AND DUP3 ADD DUP1 PUSH1 0x40 MSTORE POP DUP2 ADD SWAP1 PUSH2 0x3A7 SWAP2 SWAP1 PUSH2 0x38D7 JUMP JUMPDEST PUSH2 0x3032 JUMP JUMPDEST DUP6 PUSH1 0x1 PUSH1 0x1 PUSH1 0xA0 SHL SUB AND PUSH4 0x936C3477 PUSH1 0x40 MLOAD DUP2 PUSH4 0xFFFFFFFF AND PUSH1 0xE0 SHL DUP2 MSTORE PUSH1 0x4 ADD PUSH1 0x20 PUSH1 0x40 MLOAD DUP1 DUP4 SUB DUP2 DUP7 DUP1 EXTCODESIZE ISZERO DUP1 ISZERO PUSH2 0x3E5 JUMPI PUSH1 0x0 DUP1 REVERT JUMPDEST POP GAS STATICCALL ISZERO DUP1 ISZERO PUSH2 0x3F9 JUMPI RETURNDATASIZE PUSH1 0x0 DUP1 RETURNDATACOPY RETURNDATASIZE PUSH1 0x0 REVERT JUMPDEST POP POP POP POP PUSH1 0x40 MLOAD RETURNDATASIZE PUSH1 0x1F NOT PUSH1 0x1F DUP3 ADD AND DUP3 ADD DUP1 PUSH1 0x40 MSTORE POP DUP2 ADD SWAP1 PUSH2 0x41D SWAP2 SWAP1 PUSH2 0x38D7 JUMP JUMPDEST PUSH2 0x30B1 JUMP JUMPDEST SWAP1 POP PUSH1 0x0 DUP5 PUSH1 0x1 PUSH1 0x1 PUSH1 0xA0 SHL SUB AND PUSH4 0xF8B2CB4F DUP6 PUSH1 0x40 MLOAD DUP3 PUSH4 0xFFFFFFFF AND PUSH1 0xE0 SHL DUP2 MSTORE PUSH1 0x4 ADD PUSH2 0x452 SWAP2 SWAP1 PUSH2 0x3929 JUMP JUMPDEST PUSH1 0x20 PUSH1 0x40 MLOAD DUP1 DUP4 SUB DUP2 DUP7 DUP1 EXTCODESIZE ISZERO DUP1 ISZERO PUSH2 0x46A JUMPI PUSH1 0x0 DUP1 REVERT JUMPDEST POP GAS STATICCALL ISZERO DUP1 ISZERO PUSH2 0x47E JUMPI RETURNDATASIZE PUSH1 0x0 DUP1 RETURNDATACOPY RETURNDATASIZE PUSH1 0x0 REVERT JUMPDEST POP POP POP POP PUSH1 0x40 MLOAD RETURNDATASIZE PUSH1 0x1F NOT PUSH1 0x1F DUP3 ADD AND DUP3 ADD DUP1 PUSH1 0x40 MSTORE POP DUP2 ADD SWAP1 PUSH2 0x4A2 SWAP2 SWAP1 PUSH2 0x38D7 JUMP JUMPDEST PUSH1 0x40 MLOAD PUSH4 0xCF5E7BD3 PUSH1 0xE0 SHL DUP2 MSTORE SWAP1 SWAP2 POP PUSH1 0x1 PUSH1 0x1 PUSH1 0xA0 SHL SUB DUP7 AND SWAP1 PUSH4 0xCF5E7BD3 SWAP1 PUSH2 0x4D1 SWAP1 DUP8 SWAP1 PUSH1 0x4 ADD PUSH2 0x3929 JUMP JUMPDEST PUSH1 0x0 PUSH1 0x40 MLOAD DUP1 DUP4 SUB DUP2 PUSH1 0x0 DUP8 DUP1 EXTCODESIZE ISZERO DUP1 ISZERO PUSH2 0x4EB JUMPI PUSH1 0x0 DUP1 REVERT JUMPDEST POP GAS CALL ISZERO DUP1 ISZERO PUSH2 0x4FF JUMPI RETURNDATASIZE PUSH1 0x0 DUP1 RETURNDATACOPY RETURNDATASIZE PUSH1 0x0 REVERT JUMPDEST POP POP POP POP PUSH1 0x0 DUP5 PUSH1 0x1 PUSH1 0x1 PUSH1 0xA0 SHL SUB AND PUSH4 0xA9059CBB DUP9 PUSH1 0x1 PUSH1 0x1 PUSH1 0xA0 SHL SUB AND PUSH4 0x3018205F PUSH1 0x40 MLOAD DUP2 PUSH4 0xFFFFFFFF AND PUSH1 0xE0 SHL DUP2 MSTORE PUSH1 0x4 ADD PUSH1 0x20 PUSH1 0x40 MLOAD DUP1 DUP4 SUB DUP2 DUP7 DUP1 EXTCODESIZE ISZERO DUP1 ISZERO PUSH2 0x54D JUMPI PUSH1 0x0 DUP1 REVERT JUMPDEST POP GAS STATICCALL ISZERO DUP1 ISZERO PUSH2 0x561 JUMPI RETURNDATASIZE PUSH1 0x0 DUP1 RETURNDATACOPY RETURNDATASIZE PUSH1 0x0 REVERT JUMPDEST POP POP POP POP PUSH1 0x40 MLOAD RETURNDATASIZE PUSH1 0x1F NOT PUSH1 0x1F DUP3 ADD AND DUP3 ADD DUP1 PUSH1 0x40 MSTORE POP DUP2 ADD SWAP1 PUSH2 0x585 SWAP2 SWAP1 PUSH2 0x3516 JUMP JUMPDEST DUP5 PUSH1 0x40 MLOAD DUP4 PUSH4 0xFFFFFFFF AND PUSH1 0xE0 SHL DUP2 MSTORE PUSH1 0x4 ADD PUSH2 0x5A3 SWAP3 SWAP2 SWAP1 PUSH2 0x3961 JUMP JUMPDEST PUSH1 0x20 PUSH1 0x40 MLOAD DUP1 DUP4 SUB DUP2 PUSH1 0x0 DUP8 DUP1 EXTCODESIZE ISZERO DUP1 ISZERO PUSH2 0x5BD JUMPI PUSH1 0x0 DUP1 REVERT JUMPDEST POP GAS CALL ISZERO DUP1 ISZERO PUSH2 0x5D1 JUMPI RETURNDATASIZE PUSH1 0x0 DUP1 RETURNDATACOPY RETURNDATASIZE PUSH1 0x0 REVERT JUMPDEST POP POP POP POP PUSH1 0x40 MLOAD RETURNDATASIZE PUSH1 0x1F NOT PUSH1 0x1F DUP3 ADD AND DUP3 ADD DUP1 PUSH1 0x40 MSTORE POP DUP2 ADD SWAP1 PUSH2 0x5F5 SWAP2 SWAP1 PUSH2 0x361D JUMP JUMPDEST SWAP1 POP DUP1 PUSH2 0x61D JUMPI PUSH1 0x40 MLOAD PUSH3 0x461BCD PUSH1 0xE5 SHL DUP2 MSTORE PUSH1 0x4 ADD PUSH2 0x614 SWAP1 PUSH2 0x3E23 JUMP JUMPDEST PUSH1 0x40 MLOAD DUP1 SWAP2 SUB SWAP1 REVERT JUMPDEST DUP7 PUSH1 0x1 PUSH1 0x1 PUSH1 0xA0 SHL SUB AND PUSH4 0x55C32A23 DUP9 PUSH1 0x1 PUSH1 0x1 PUSH1 0xA0 SHL SUB AND PUSH4 0x3018205F PUSH1 0x40 MLOAD DUP2 PUSH4 0xFFFFFFFF AND PUSH1 0xE0 SHL DUP2 MSTORE PUSH1 0x4 ADD PUSH1 0x20 PUSH1 0x40 MLOAD DUP1 DUP4 SUB DUP2 DUP7 DUP1 EXTCODESIZE ISZERO DUP1 ISZERO PUSH2 0x665 JUMPI PUSH1 0x0 DUP1 REVERT JUMPDEST POP GAS STATICCALL ISZERO DUP1 ISZERO PUSH2 0x679 JUMPI RETURNDATASIZE PUSH1 0x0 DUP1 RETURNDATACOPY RETURNDATASIZE PUSH1 0x0 REVERT JUMPDEST POP POP POP POP PUSH1 0x40 MLOAD RETURNDATASIZE PUSH1 0x1F NOT PUSH1 0x1F DUP3 ADD AND DUP3 ADD DUP1 PUSH1 0x40 MSTORE POP DUP2 ADD SWAP1 PUSH2 0x69D SWAP2 SWAP1 PUSH2 0x3516 JUMP JUMPDEST DUP6 PUSH1 0x40 MLOAD DUP4 PUSH4 0xFFFFFFFF AND PUSH1 0xE0 SHL DUP2 MSTORE PUSH1 0x4 ADD PUSH2 0x6BB SWAP3 SWAP2 SWAP1 PUSH2 0x3961 JUMP JUMPDEST PUSH1 0x0 PUSH1 0x40 MLOAD DUP1 DUP4 SUB DUP2 PUSH1 0x0 DUP8 DUP1 EXTCODESIZE ISZERO DUP1 ISZERO PUSH2 0x6D5 JUMPI PUSH1 0x0 DUP1 REVERT JUMPDEST POP GAS CALL ISZERO DUP1 ISZERO PUSH2 0x6E9 JUMPI RETURNDATASIZE PUSH1 0x0 DUP1 RETURNDATACOPY RETURNDATASIZE PUSH1 0x0 REVERT JUMPDEST POP POP PUSH1 0x40 MLOAD PUSH4 0x11075BB PUSH1 0xE5 SHL DUP2 MSTORE PUSH1 0x1 PUSH1 0x1 PUSH1 0xA0 SHL SUB DUP11 AND SWAP3 POP PUSH4 0x220EB760 SWAP2 POP PUSH2 0x719 SWAP1 DUP7 SWAP1 PUSH1 0x4 ADD PUSH2 0x3EA1 JUMP JUMPDEST PUSH1 0x0 PUSH1 0x40 MLOAD DUP1 DUP4 SUB DUP2 PUSH1 0x0 DUP8 DUP1 EXTCODESIZE ISZERO DUP1 ISZERO PUSH2 0x733 JUMPI PUSH1 0x0 DUP1 REVERT JUMPDEST POP GAS CALL ISZERO DUP1 ISZERO PUSH2 0x747 JUMPI RETURNDATASIZE PUSH1 0x0 DUP1 RETURNDATACOPY RETURNDATASIZE PUSH1 0x0 REVERT JUMPDEST POP POP POP POP POP POP POP POP POP POP POP JUMP JUMPDEST DUP2 NUMBER LT PUSH2 0x773 JUMPI PUSH1 0x40 MLOAD PUSH3 0x461BCD PUSH1 0xE5 SHL DUP2 MSTORE PUSH1 0x4 ADD PUSH2 0x614 SWAP1 PUSH2 0x39F5 JUMP JUMPDEST DUP3 NUMBER GT ISZERO PUSH2 0x783 JUMPI NUMBER DUP7 SSTORE PUSH2 0x787 JUMP JUMPDEST DUP3 DUP7 SSTORE JUMPDEST DUP1 PUSH2 0x796 DUP4 DUP9 PUSH1 0x0 ADD SLOAD PUSH2 0x3142 JUMP JUMPDEST LT ISZERO PUSH2 0x7B4 JUMPI PUSH1 0x40 MLOAD PUSH3 0x461BCD PUSH1 0xE5 SHL DUP2 MSTORE PUSH1 0x4 ADD PUSH2 0x614 SWAP1 PUSH2 0x3A2C JUMP JUMPDEST PUSH1 0x60 DUP8 PUSH1 0x1 PUSH1 0x1 PUSH1 0xA0 SHL SUB AND PUSH4 0xCC77828D PUSH1 0x40 MLOAD DUP2 PUSH4 0xFFFFFFFF AND PUSH1 0xE0 SHL DUP2 MSTORE PUSH1 0x4 ADD PUSH1 0x0 PUSH1 0x40 MLOAD DUP1 DUP4 SUB DUP2 DUP7 DUP1 EXTCODESIZE ISZERO DUP1 ISZERO PUSH2 0x7EF JUMPI PUSH1 0x0 DUP1 REVERT JUMPDEST POP GAS STATICCALL ISZERO DUP1 ISZERO PUSH2 0x803 JUMPI RETURNDATASIZE PUSH1 0x0 DUP1 RETURNDATACOPY RETURNDATASIZE PUSH1 0x0 REVERT JUMPDEST POP POP POP POP PUSH1 0x40 MLOAD RETURNDATASIZE PUSH1 0x0 DUP3 RETURNDATACOPY PUSH1 0x1F RETURNDATASIZE SWAP1 DUP2 ADD PUSH1 0x1F NOT AND DUP3 ADD PUSH1 0x40 MSTORE PUSH2 0x82B SWAP2 SWAP1 DUP2 ADD SWAP1 PUSH2 0x3572 JUMP JUMPDEST DUP1 MLOAD SWAP1 SWAP2 POP DUP6 EQ PUSH2 0x84E JUMPI PUSH1 0x40 MLOAD PUSH3 0x461BCD PUSH1 0xE5 SHL DUP2 MSTORE PUSH1 0x4 ADD PUSH2 0x614 SWAP1 PUSH2 0x3A61 JUMP JUMPDEST PUSH1 0x0 DUP2 MLOAD PUSH8 0xFFFFFFFFFFFFFFFF DUP2 GT DUP1 ISZERO PUSH2 0x868 JUMPI PUSH1 0x0 DUP1 REVERT JUMPDEST POP PUSH1 0x40 MLOAD SWAP1 DUP1 DUP3 MSTORE DUP1 PUSH1 0x20 MUL PUSH1 0x20 ADD DUP3 ADD PUSH1 0x40 MSTORE DUP1 ISZERO PUSH2 0x892 JUMPI DUP2 PUSH1 0x20 ADD PUSH1 0x20 DUP3 MUL DUP1 CALLDATASIZE DUP4 CALLDATACOPY ADD SWAP1 POP JUMPDEST POP DUP1 MLOAD PUSH2 0x8A9 SWAP2 PUSH1 0x2 DUP12 ADD SWAP2 PUSH1 0x20 SWAP1 SWAP2 ADD SWAP1 PUSH2 0x3412 JUMP JUMPDEST POP PUSH1 0x0 JUMPDEST DUP3 MLOAD DUP2 LT ISZERO PUSH2 0x9FB JUMPI PUSH9 0x2B5E3AF16B1880000 DUP9 DUP9 DUP4 DUP2 DUP2 LT PUSH2 0x8CC JUMPI INVALID JUMPDEST SWAP1 POP PUSH1 0x20 MUL ADD CALLDATALOAD GT ISZERO PUSH2 0x8F1 JUMPI PUSH1 0x40 MLOAD PUSH3 0x461BCD PUSH1 0xE5 SHL DUP2 MSTORE PUSH1 0x4 ADD PUSH2 0x614 SWAP1 PUSH2 0x3D08 JUMP JUMPDEST PUSH8 0xDE0B6B3A7640000 DUP9 DUP9 DUP4 DUP2 DUP2 LT PUSH2 0x906 JUMPI INVALID JUMPDEST SWAP1 POP PUSH1 0x20 MUL ADD CALLDATALOAD LT ISZERO PUSH2 0x92B JUMPI PUSH1 0x40 MLOAD PUSH3 0x461BCD PUSH1 0xE5 SHL DUP2 MSTORE PUSH1 0x4 ADD PUSH2 0x614 SWAP1 PUSH2 0x3C60 JUMP JUMPDEST PUSH2 0x947 DUP3 DUP10 DUP10 DUP5 DUP2 DUP2 LT PUSH2 0x93B JUMPI INVALID JUMPDEST SWAP1 POP PUSH1 0x20 MUL ADD CALLDATALOAD PUSH2 0x317B JUMP JUMPDEST SWAP2 POP DUP10 PUSH1 0x1 PUSH1 0x1 PUSH1 0xA0 SHL SUB AND PUSH4 0x948D8CE6 DUP5 DUP4 DUP2 MLOAD DUP2 LT PUSH2 0x964 JUMPI INVALID JUMPDEST PUSH1 0x20 MUL PUSH1 0x20 ADD ADD MLOAD PUSH1 0x40 MLOAD DUP3 PUSH4 0xFFFFFFFF AND PUSH1 0xE0 SHL DUP2 MSTORE PUSH1 0x4 ADD PUSH2 0x988 SWAP2 SWAP1 PUSH2 0x3929 JUMP JUMPDEST PUSH1 0x20 PUSH1 0x40 MLOAD DUP1 DUP4 SUB DUP2 DUP7 DUP1 EXTCODESIZE ISZERO DUP1 ISZERO PUSH2 0x9A0 JUMPI PUSH1 0x0 DUP1 REVERT JUMPDEST POP GAS STATICCALL ISZERO DUP1 ISZERO PUSH2 0x9B4 JUMPI RETURNDATASIZE PUSH1 0x0 DUP1 RETURNDATACOPY RETURNDATASIZE PUSH1 0x0 REVERT JUMPDEST POP POP POP POP PUSH1 0x40 MLOAD RETURNDATASIZE PUSH1 0x1F NOT PUSH1 0x1F DUP3 ADD AND DUP3 ADD DUP1 PUSH1 0x40 MSTORE POP DUP2 ADD SWAP1 PUSH2 0x9D8 SWAP2 SWAP1 PUSH2 0x38D7 JUMP JUMPDEST DUP10 PUSH1 0x2 ADD DUP3 DUP2 SLOAD DUP2 LT PUSH2 0x9E7 JUMPI INVALID JUMPDEST PUSH1 0x0 SWAP2 DUP3 MSTORE PUSH1 0x20 SWAP1 SWAP2 KECCAK256 ADD SSTORE PUSH1 0x1 ADD PUSH2 0x8AD JUMP JUMPDEST POP PUSH9 0x2B5E3AF16B1880000 DUP2 GT ISZERO PUSH2 0xA25 JUMPI PUSH1 0x40 MLOAD PUSH3 0x461BCD PUSH1 0xE5 SHL DUP2 MSTORE PUSH1 0x4 ADD PUSH2 0x614 SWAP1 PUSH2 0x3B39 JUMP JUMPDEST PUSH1 0x1 DUP9 ADD DUP5 SWAP1 SSTORE PUSH2 0xA3A PUSH1 0x3 DUP10 ADD DUP9 DUP9 PUSH2 0x345D JUMP JUMPDEST POP POP POP POP POP POP POP POP POP POP JUMP JUMPDEST PUSH2 0xA4F DUP2 PUSH2 0x31A7 JUMP JUMPDEST POP JUMP JUMPDEST PUSH1 0x0 DUP1 PUSH1 0x60 DUP1 DUP8 PUSH1 0x1 PUSH1 0x1 PUSH1 0xA0 SHL SUB AND PUSH4 0xCC77828D PUSH1 0x40 MLOAD DUP2 PUSH4 0xFFFFFFFF AND PUSH1 0xE0 SHL DUP2 MSTORE PUSH1 0x4 ADD PUSH1 0x0 PUSH1 0x40 MLOAD DUP1 DUP4 SUB DUP2 DUP7 DUP1 EXTCODESIZE ISZERO DUP1 ISZERO PUSH2 0xA91 JUMPI PUSH1 0x0 DUP1 REVERT JUMPDEST POP GAS STATICCALL ISZERO DUP1 ISZERO PUSH2 0xAA5 JUMPI RETURNDATASIZE PUSH1 0x0 DUP1 RETURNDATACOPY RETURNDATASIZE PUSH1 0x0 REVERT JUMPDEST POP POP POP POP PUSH1 0x40 MLOAD RETURNDATASIZE PUSH1 0x0 DUP3 RETURNDATACOPY PUSH1 0x1F RETURNDATASIZE SWAP1 DUP2 ADD PUSH1 0x1F NOT AND DUP3 ADD PUSH1 0x40 MSTORE PUSH2 0xACD SWAP2 SWAP1 DUP2 ADD SWAP1 PUSH2 0x3572 JUMP JUMPDEST DUP1 MLOAD SWAP1 SWAP2 POP DUP6 EQ PUSH2 0xAF0 JUMPI PUSH1 0x40 MLOAD PUSH3 0x461BCD PUSH1 0xE5 SHL DUP2 MSTORE PUSH1 0x4 ADD PUSH2 0x614 SWAP1 PUSH2 0x3B67 JUMP JUMPDEST PUSH1 0x0 DUP10 PUSH1 0x1 PUSH1 0x1 PUSH1 0xA0 SHL SUB AND PUSH4 0x18160DDD PUSH1 0x40 MLOAD DUP2 PUSH4 0xFFFFFFFF AND PUSH1 0xE0 SHL DUP2 MSTORE PUSH1 0x4 ADD PUSH1 0x20 PUSH1 0x40 MLOAD DUP1 DUP4 SUB DUP2 DUP7 DUP1 EXTCODESIZE ISZERO DUP1 ISZERO PUSH2 0xB2B JUMPI PUSH1 0x0 DUP1 REVERT JUMPDEST POP GAS STATICCALL ISZERO DUP1 ISZERO PUSH2 0xB3F JUMPI RETURNDATASIZE PUSH1 0x0 DUP1 RETURNDATACOPY RETURNDATASIZE PUSH1 0x0 REVERT JUMPDEST POP POP POP POP PUSH1 0x40 MLOAD RETURNDATASIZE PUSH1 0x1F NOT PUSH1 0x1F DUP3 ADD AND DUP3 ADD DUP1 PUSH1 0x40 MSTORE POP DUP2 ADD SWAP1 PUSH2 0xB63 SWAP2 SWAP1 PUSH2 0x38D7 JUMP JUMPDEST SWAP1 POP PUSH2 0xB70 DUP9 PUSH1 0x0 PUSH2 0x3032 JUMP JUMPDEST SWAP5 POP PUSH2 0xB7C DUP9 DUP7 PUSH2 0x3142 JUMP JUMPDEST SWAP4 POP PUSH1 0x0 PUSH2 0xB8F DUP6 PUSH2 0x41D DUP5 PUSH1 0x1 PUSH2 0x317B JUMP JUMPDEST SWAP1 POP DUP1 PUSH2 0xBAE JUMPI PUSH1 0x40 MLOAD PUSH3 0x461BCD PUSH1 0xE5 SHL DUP2 MSTORE PUSH1 0x4 ADD PUSH2 0x614 SWAP1 PUSH2 0x3AE8 JUMP JUMPDEST DUP3 MLOAD PUSH8 0xFFFFFFFFFFFFFFFF DUP2 GT DUP1 ISZERO PUSH2 0xBC6 JUMPI PUSH1 0x0 DUP1 REVERT JUMPDEST POP PUSH1 0x40 MLOAD SWAP1 DUP1 DUP3 MSTORE DUP1 PUSH1 0x20 MUL PUSH1 0x20 ADD DUP3 ADD PUSH1 0x40 MSTORE DUP1 ISZERO PUSH2 0xBF0 JUMPI DUP2 PUSH1 0x20 ADD PUSH1 0x20 DUP3 MUL DUP1 CALLDATASIZE DUP4 CALLDATACOPY ADD SWAP1 POP JUMPDEST POP SWAP4 POP PUSH1 0x0 JUMPDEST DUP4 MLOAD DUP2 LT ISZERO PUSH2 0xD1C JUMPI PUSH1 0x0 DUP5 DUP3 DUP2 MLOAD DUP2 LT PUSH2 0xC0D JUMPI INVALID JUMPDEST PUSH1 0x20 MUL PUSH1 0x20 ADD ADD MLOAD SWAP1 POP PUSH1 0x0 DUP13 PUSH1 0x1 PUSH1 0x1 PUSH1 0xA0 SHL SUB AND PUSH4 0xF8B2CB4F DUP4 PUSH1 0x40 MLOAD DUP3 PUSH4 0xFFFFFFFF AND PUSH1 0xE0 SHL DUP2 MSTORE PUSH1 0x4 ADD PUSH2 0xC45 SWAP2 SWAP1 PUSH2 0x3929 JUMP JUMPDEST PUSH1 0x20 PUSH1 0x40 MLOAD DUP1 DUP4 SUB DUP2 DUP7 DUP1 EXTCODESIZE ISZERO DUP1 ISZERO PUSH2 0xC5D JUMPI PUSH1 0x0 DUP1 REVERT JUMPDEST POP GAS STATICCALL ISZERO DUP1 ISZERO PUSH2 0xC71 JUMPI RETURNDATASIZE PUSH1 0x0 DUP1 RETURNDATACOPY RETURNDATASIZE PUSH1 0x0 REVERT JUMPDEST POP POP POP POP PUSH1 0x40 MLOAD RETURNDATASIZE PUSH1 0x1F NOT PUSH1 0x1F DUP3 ADD AND DUP3 ADD DUP1 PUSH1 0x40 MSTORE POP DUP2 ADD SWAP1 PUSH2 0xC95 SWAP2 SWAP1 PUSH2 0x38D7 JUMP JUMPDEST SWAP1 POP PUSH1 0x0 PUSH2 0xCA8 DUP6 PUSH2 0x3A7 DUP5 PUSH1 0x1 PUSH2 0x3142 JUMP JUMPDEST SWAP1 POP DUP1 PUSH2 0xCC7 JUMPI PUSH1 0x40 MLOAD PUSH3 0x461BCD PUSH1 0xE5 SHL DUP2 MSTORE PUSH1 0x4 ADD PUSH2 0x614 SWAP1 PUSH2 0x3AE8 JUMP JUMPDEST DUP12 DUP12 DUP6 DUP2 DUP2 LT PUSH2 0xCD3 JUMPI INVALID JUMPDEST SWAP1 POP PUSH1 0x20 MUL ADD CALLDATALOAD DUP2 LT ISZERO PUSH2 0xCF9 JUMPI PUSH1 0x40 MLOAD PUSH3 0x461BCD PUSH1 0xE5 SHL DUP2 MSTORE PUSH1 0x4 ADD PUSH2 0x614 SWAP1 PUSH2 0x3B95 JUMP JUMPDEST DUP1 DUP9 DUP6 DUP2 MLOAD DUP2 LT PUSH2 0xD06 JUMPI INVALID JUMPDEST PUSH1 0x20 SWAP1 DUP2 MUL SWAP2 SWAP1 SWAP2 ADD ADD MSTORE POP POP POP PUSH1 0x1 ADD PUSH2 0xBF6 JUMP JUMPDEST POP POP POP POP SWAP6 POP SWAP6 POP SWAP6 SWAP3 POP POP POP JUMP JUMPDEST PUSH1 0x40 MLOAD PUSH4 0xBCDED89 PUSH1 0xE2 SHL DUP2 MSTORE PUSH1 0x0 SWAP1 PUSH1 0x1 PUSH1 0x1 PUSH1 0xA0 SHL SUB DUP7 AND SWAP1 PUSH4 0x2F37B624 SWAP1 PUSH2 0xD5A SWAP1 DUP8 SWAP1 PUSH1 0x4 ADD PUSH2 0x3929 JUMP JUMPDEST PUSH1 0x20 PUSH1 0x40 MLOAD DUP1 DUP4 SUB DUP2 DUP7 DUP1 EXTCODESIZE ISZERO DUP1 ISZERO PUSH2 0xD72 JUMPI PUSH1 0x0 DUP1 REVERT JUMPDEST POP GAS STATICCALL ISZERO DUP1 ISZERO PUSH2 0xD86 JUMPI RETURNDATASIZE PUSH1 0x0 DUP1 RETURNDATACOPY RETURNDATASIZE PUSH1 0x0 REVERT JUMPDEST POP POP POP POP PUSH1 0x40 MLOAD RETURNDATASIZE PUSH1 0x1F NOT PUSH1 0x1F DUP3 ADD AND DUP3 ADD DUP1 PUSH1 0x40 MSTORE POP DUP2 ADD SWAP1 PUSH2 0xDAA SWAP2 SWAP1 PUSH2 0x361D JUMP JUMPDEST PUSH2 0xDC6 JUMPI PUSH1 0x40 MLOAD PUSH3 0x461BCD PUSH1 0xE5 SHL DUP2 MSTORE PUSH1 0x4 ADD PUSH2 0x614 SWAP1 PUSH2 0x3CB9 JUMP JUMPDEST PUSH1 0x40 MLOAD PUSH4 0xF8B2CB4F PUSH1 0xE0 SHL DUP2 MSTORE PUSH1 0x1 PUSH1 0x1 PUSH1 0xA0 SHL SUB DUP7 AND SWAP1 PUSH4 0x5C1BBAF7 SWAP1 DUP3 SWAP1 PUSH4 0xF8B2CB4F SWAP1 PUSH2 0xDFA SWAP1 DUP10 SWAP1 PUSH1 0x4 ADD PUSH2 0x3929 JUMP JUMPDEST PUSH1 0x20 PUSH1 0x40 MLOAD DUP1 DUP4 SUB DUP2 DUP7 DUP1 EXTCODESIZE ISZERO DUP1 ISZERO PUSH2 0xE12 JUMPI PUSH1 0x0 DUP1 REVERT JUMPDEST POP GAS STATICCALL ISZERO DUP1 ISZERO PUSH2 0xE26 JUMPI RETURNDATASIZE PUSH1 0x0 DUP1 RETURNDATACOPY RETURNDATASIZE PUSH1 0x0 REVERT JUMPDEST POP POP POP POP PUSH1 0x40 MLOAD RETURNDATASIZE PUSH1 0x1F NOT PUSH1 0x1F DUP3 ADD AND DUP3 ADD DUP1 PUSH1 0x40 MSTORE POP DUP2 ADD SWAP1 PUSH2 0xE4A SWAP2 SWAP1 PUSH2 0x38D7 JUMP JUMPDEST PUSH1 0x40 MLOAD PUSH4 0x4A46C673 PUSH1 0xE1 SHL DUP2 MSTORE PUSH1 0x1 PUSH1 0x1 PUSH1 0xA0 SHL SUB DUP10 AND SWAP1 PUSH4 0x948D8CE6 SWAP1 PUSH2 0xE76 SWAP1 DUP11 SWAP1 PUSH1 0x4 ADD PUSH2 0x3929 JUMP JUMPDEST PUSH1 0x20 PUSH1 0x40 MLOAD DUP1 DUP4 SUB DUP2 DUP7 DUP1 EXTCODESIZE ISZERO DUP1 ISZERO PUSH2 0xE8E JUMPI PUSH1 0x0 DUP1 REVERT JUMPDEST POP GAS STATICCALL ISZERO DUP1 ISZERO PUSH2 0xEA2 JUMPI RETURNDATASIZE PUSH1 0x0 DUP1 RETURNDATACOPY RETURNDATASIZE PUSH1 0x0 REVERT JUMPDEST POP POP POP POP PUSH1 0x40 MLOAD RETURNDATASIZE PUSH1 0x1F NOT PUSH1 0x1F DUP3 ADD AND DUP3 ADD DUP1 PUSH1 0x40 MSTORE POP DUP2 ADD SWAP1 PUSH2 0xEC6 SWAP2 SWAP1 PUSH2 0x38D7 JUMP JUMPDEST DUP10 PUSH1 0x1 PUSH1 0x1 PUSH1 0xA0 SHL SUB AND PUSH4 0x18160DDD PUSH1 0x40 MLOAD DUP2 PUSH4 0xFFFFFFFF AND PUSH1 0xE0 SHL DUP2 MSTORE PUSH1 0x4 ADD PUSH1 0x20 PUSH1 0x40 MLOAD DUP1 DUP4 SUB DUP2 DUP7 DUP1 EXTCODESIZE ISZERO DUP1 ISZERO PUSH2 0xEFF JUMPI PUSH1 0x0 DUP1 REVERT JUMPDEST POP GAS STATICCALL ISZERO DUP1 ISZERO PUSH2 0xF13 JUMPI RETURNDATASIZE PUSH1 0x0 DUP1 RETURNDATACOPY RETURNDATASIZE PUSH1 0x0 REVERT JUMPDEST POP POP POP POP PUSH1 0x40 MLOAD RETURNDATASIZE PUSH1 0x1F NOT PUSH1 0x1F DUP3 ADD AND DUP3 ADD DUP1 PUSH1 0x40 MSTORE POP DUP2 ADD SWAP1 PUSH2 0xF37 SWAP2 SWAP1 PUSH2 0x38D7 JUMP JUMPDEST DUP10 PUSH1 0x1 PUSH1 0x1 PUSH1 0xA0 SHL SUB AND PUSH4 0x936C3477 PUSH1 0x40 MLOAD DUP2 PUSH4 0xFFFFFFFF AND PUSH1 0xE0 SHL DUP2 MSTORE PUSH1 0x4 ADD PUSH1 0x20 PUSH1 0x40 MLOAD DUP1 DUP4 SUB DUP2 DUP7 DUP1 EXTCODESIZE ISZERO DUP1 ISZERO PUSH2 0xF70 JUMPI PUSH1 0x0 DUP1 REVERT JUMPDEST POP GAS STATICCALL ISZERO DUP1 ISZERO PUSH2 0xF84 JUMPI RETURNDATASIZE PUSH1 0x0 DUP1 RETURNDATACOPY RETURNDATASIZE PUSH1 0x0 REVERT JUMPDEST POP POP POP POP PUSH1 0x40 MLOAD RETURNDATASIZE PUSH1 0x1F NOT PUSH1 0x1F DUP3 ADD AND DUP3 ADD DUP1 PUSH1 0x40 MSTORE POP DUP2 ADD SWAP1 PUSH2 0xFA8 SWAP2 SWAP1 PUSH2 0x38D7 JUMP JUMPDEST DUP9 DUP12 PUSH1 0x1 PUSH1 0x1 PUSH1 0xA0 SHL SUB AND PUSH4 0xD4CADF68 PUSH1 0x40 MLOAD DUP2 PUSH4 0xFFFFFFFF AND PUSH1 0xE0 SHL DUP2 MSTORE PUSH1 0x4 ADD PUSH1 0x20 PUSH1 0x40 MLOAD DUP1 DUP4 SUB DUP2 DUP7 DUP1 EXTCODESIZE ISZERO DUP1 ISZERO PUSH2 0xFE2 JUMPI PUSH1 0x0 DUP1 REVERT JUMPDEST POP GAS STATICCALL ISZERO DUP1 ISZERO PUSH2 0xFF6 JUMPI RETURNDATASIZE PUSH1 0x0 DUP1 RETURNDATACOPY RETURNDATASIZE PUSH1 0x0 REVERT JUMPDEST POP POP POP POP PUSH1 0x40 MLOAD RETURNDATASIZE PUSH1 0x1F NOT PUSH1 0x1F DUP3 ADD AND DUP3 ADD DUP1 PUSH1 0x40 MSTORE POP DUP2 ADD SWAP1 PUSH2 0x101A SWAP2 SWAP1 PUSH2 0x38D7 JUMP JUMPDEST PUSH1 0x40 MLOAD DUP8 PUSH4 0xFFFFFFFF AND PUSH1 0xE0 SHL DUP2 MSTORE PUSH1 0x4 ADD PUSH2 0x103B SWAP7 SWAP6 SWAP5 SWAP4 SWAP3 SWAP2 SWAP1 PUSH2 0x3ED7 JUMP JUMPDEST PUSH1 0x20 PUSH1 0x40 MLOAD DUP1 DUP4 SUB DUP2 DUP7 DUP1 EXTCODESIZE ISZERO DUP1 ISZERO PUSH2 0x1053 JUMPI PUSH1 0x0 DUP1 REVERT JUMPDEST POP GAS STATICCALL ISZERO DUP1 ISZERO PUSH2 0x1067 JUMPI RETURNDATASIZE PUSH1 0x0 DUP1 RETURNDATACOPY RETURNDATASIZE PUSH1 0x0 REVERT JUMPDEST POP POP POP POP PUSH1 0x40 MLOAD RETURNDATASIZE PUSH1 0x1F NOT PUSH1 0x1F DUP3 ADD AND DUP3 ADD DUP1 PUSH1 0x40 MSTORE POP DUP2 ADD SWAP1 PUSH2 0x108B SWAP2 SWAP1 PUSH2 0x38D7 JUMP JUMPDEST SWAP1 POP DUP1 PUSH2 0x10AA JUMPI PUSH1 0x40 MLOAD PUSH3 0x461BCD PUSH1 0xE5 SHL DUP2 MSTORE PUSH1 0x4 ADD PUSH2 0x614 SWAP1 PUSH2 0x3AE8 JUMP JUMPDEST DUP2 DUP2 GT ISZERO PUSH2 0x10CA JUMPI PUSH1 0x40 MLOAD PUSH3 0x461BCD PUSH1 0xE5 SHL DUP2 MSTORE PUSH1 0x4 ADD PUSH2 0x614 SWAP1 PUSH2 0x3C3A JUMP JUMPDEST PUSH1 0x40 MLOAD PUSH4 0xF8B2CB4F PUSH1 0xE0 SHL DUP2 MSTORE PUSH2 0x1158 SWAP1 PUSH1 0x1 PUSH1 0x1 PUSH1 0xA0 SHL SUB DUP8 AND SWAP1 PUSH4 0xF8B2CB4F SWAP1 PUSH2 0x10FA SWAP1 DUP9 SWAP1 PUSH1 0x4 ADD PUSH2 0x3929 JUMP JUMPDEST PUSH1 0x20 PUSH1 0x40 MLOAD DUP1 DUP4 SUB DUP2 DUP7 DUP1 EXTCODESIZE ISZERO DUP1 ISZERO PUSH2 0x1112 JUMPI PUSH1 0x0 DUP1 REVERT JUMPDEST POP GAS STATICCALL ISZERO DUP1 ISZERO PUSH2 0x1126 JUMPI RETURNDATASIZE PUSH1 0x0 DUP1 RETURNDATACOPY RETURNDATASIZE PUSH1 0x0 REVERT JUMPDEST POP POP POP POP PUSH1 0x40 MLOAD RETURNDATASIZE PUSH1 0x1F NOT PUSH1 0x1F DUP3 ADD AND DUP3 ADD DUP1 PUSH1 0x40 MSTORE POP DUP2 ADD SWAP1 PUSH2 0x114A SWAP2 SWAP1 PUSH2 0x38D7 JUMP JUMPDEST PUSH8 0x6F05B59D3B20000 PUSH2 0x3032 JUMP JUMPDEST DUP2 GT ISZERO PUSH2 0x1177 JUMPI PUSH1 0x40 MLOAD PUSH3 0x461BCD PUSH1 0xE5 SHL DUP2 MSTORE PUSH1 0x4 ADD PUSH2 0x614 SWAP1 PUSH2 0x3ABE JUMP JUMPDEST SWAP6 SWAP5 POP POP POP POP POP JUMP JUMPDEST PUSH1 0x0 DUP1 DUP6 PUSH1 0x1 PUSH1 0x1 PUSH1 0xA0 SHL SUB AND PUSH4 0x2F37B624 DUP7 PUSH1 0x40 MLOAD DUP3 PUSH4 0xFFFFFFFF AND PUSH1 0xE0 SHL DUP2 MSTORE PUSH1 0x4 ADD PUSH2 0x11AF SWAP2 SWAP1 PUSH2 0x3929 JUMP JUMPDEST PUSH1 0x20 PUSH1 0x40 MLOAD DUP1 DUP4 SUB DUP2 DUP7 DUP1 EXTCODESIZE ISZERO DUP1 ISZERO PUSH2 0x11C7 JUMPI PUSH1 0x0 DUP1 REVERT JUMPDEST POP GAS STATICCALL ISZERO DUP1 ISZERO PUSH2 0x11DB JUMPI RETURNDATASIZE PUSH1 0x0 DUP1 RETURNDATACOPY RETURNDATASIZE PUSH1 0x0 REVERT JUMPDEST POP POP POP POP PUSH1 0x40 MLOAD RETURNDATASIZE PUSH1 0x1F NOT PUSH1 0x1F DUP3 ADD AND DUP3 ADD DUP1 PUSH1 0x40 MSTORE POP DUP2 ADD SWAP1 PUSH2 0x11FF SWAP2 SWAP1 PUSH2 0x361D JUMP JUMPDEST PUSH2 0x121B JUMPI PUSH1 0x40 MLOAD PUSH3 0x461BCD PUSH1 0xE5 SHL DUP2 MSTORE PUSH1 0x4 ADD PUSH2 0x614 SWAP1 PUSH2 0x3CB9 JUMP JUMPDEST PUSH1 0x40 MLOAD PUSH4 0xF8B2CB4F PUSH1 0xE0 SHL DUP2 MSTORE PUSH2 0x12A9 SWAP1 PUSH1 0x1 PUSH1 0x1 PUSH1 0xA0 SHL SUB DUP9 AND SWAP1 PUSH4 0xF8B2CB4F SWAP1 PUSH2 0x124B SWAP1 DUP10 SWAP1 PUSH1 0x4 ADD PUSH2 0x3929 JUMP JUMPDEST PUSH1 0x20 PUSH1 0x40 MLOAD DUP1 DUP4 SUB DUP2 DUP7 DUP1 EXTCODESIZE ISZERO DUP1 ISZERO PUSH2 0x1263 JUMPI PUSH1 0x0 DUP1 REVERT JUMPDEST POP GAS STATICCALL ISZERO DUP1 ISZERO PUSH2 0x1277 JUMPI RETURNDATASIZE PUSH1 0x0 DUP1 RETURNDATACOPY RETURNDATASIZE PUSH1 0x0 REVERT JUMPDEST POP POP POP POP PUSH1 0x40 MLOAD RETURNDATASIZE PUSH1 0x1F NOT PUSH1 0x1F DUP3 ADD AND DUP3 ADD DUP1 PUSH1 0x40 MSTORE POP DUP2 ADD SWAP1 PUSH2 0x129B SWAP2 SWAP1 PUSH2 0x38D7 JUMP JUMPDEST PUSH8 0x4A03CE68D215556 PUSH2 0x3032 JUMP JUMPDEST DUP5 GT ISZERO PUSH2 0x12C8 JUMPI PUSH1 0x40 MLOAD PUSH3 0x461BCD PUSH1 0xE5 SHL DUP2 MSTORE PUSH1 0x4 ADD PUSH2 0x614 SWAP1 PUSH2 0x3C8E JUMP JUMPDEST PUSH1 0x40 MLOAD PUSH4 0xF8B2CB4F PUSH1 0xE0 SHL DUP2 MSTORE PUSH1 0x1 PUSH1 0x1 PUSH1 0xA0 SHL SUB DUP8 AND SWAP1 PUSH4 0x82F652AD SWAP1 DUP3 SWAP1 PUSH4 0xF8B2CB4F SWAP1 PUSH2 0x12FC SWAP1 DUP11 SWAP1 PUSH1 0x4 ADD PUSH2 0x3929 JUMP JUMPDEST PUSH1 0x20 PUSH1 0x40 MLOAD DUP1 DUP4 SUB DUP2 DUP7 DUP1 EXTCODESIZE ISZERO DUP1 ISZERO PUSH2 0x1314 JUMPI PUSH1 0x0 DUP1 REVERT JUMPDEST POP GAS STATICCALL ISZERO DUP1 ISZERO PUSH2 0x1328 JUMPI RETURNDATASIZE PUSH1 0x0 DUP1 RETURNDATACOPY RETURNDATASIZE PUSH1 0x0 REVERT JUMPDEST POP POP POP POP PUSH1 0x40 MLOAD RETURNDATASIZE PUSH1 0x1F NOT PUSH1 0x1F DUP3 ADD AND DUP3 ADD DUP1 PUSH1 0x40 MSTORE POP DUP2 ADD SWAP1 PUSH2 0x134C SWAP2 SWAP1 PUSH2 0x38D7 JUMP JUMPDEST PUSH1 0x40 MLOAD PUSH4 0x4A46C673 PUSH1 0xE1 SHL DUP2 MSTORE PUSH1 0x1 PUSH1 0x1 PUSH1 0xA0 SHL SUB DUP11 AND SWAP1 PUSH4 0x948D8CE6 SWAP1 PUSH2 0x1378 SWAP1 DUP12 SWAP1 PUSH1 0x4 ADD PUSH2 0x3929 JUMP JUMPDEST PUSH1 0x20 PUSH1 0x40 MLOAD DUP1 DUP4 SUB DUP2 DUP7 DUP1 EXTCODESIZE ISZERO DUP1 ISZERO PUSH2 0x1390 JUMPI PUSH1 0x0 DUP1 REVERT JUMPDEST POP GAS STATICCALL ISZERO DUP1 ISZERO PUSH2 0x13A4 JUMPI RETURNDATASIZE PUSH1 0x0 DUP1 RETURNDATACOPY RETURNDATASIZE PUSH1 0x0 REVERT JUMPDEST POP POP POP POP PUSH1 0x40 MLOAD RETURNDATASIZE PUSH1 0x1F NOT PUSH1 0x1F DUP3 ADD AND DUP3 ADD DUP1 PUSH1 0x40 MSTORE POP DUP2 ADD SWAP1 PUSH2 0x13C8 SWAP2 SWAP1 PUSH2 0x38D7 JUMP JUMPDEST DUP11 PUSH1 0x1 PUSH1 0x1 PUSH1 0xA0 SHL SUB AND PUSH4 0x18160DDD PUSH1 0x40 MLOAD DUP2 PUSH4 0xFFFFFFFF AND PUSH1 0xE0 SHL DUP2 MSTORE PUSH1 0x4 ADD PUSH1 0x20 PUSH1 0x40 MLOAD DUP1 DUP4 SUB DUP2 DUP7 DUP1 EXTCODESIZE ISZERO DUP1 ISZERO PUSH2 0x1401 JUMPI PUSH1 0x0 DUP1 REVERT JUMPDEST POP GAS STATICCALL ISZERO DUP1 ISZERO PUSH2 0x1415 JUMPI RETURNDATASIZE PUSH1 0x0 DUP1 RETURNDATACOPY RETURNDATASIZE PUSH1 0x0 REVERT JUMPDEST POP POP POP POP PUSH1 0x40 MLOAD RETURNDATASIZE PUSH1 0x1F NOT PUSH1 0x1F DUP3 ADD AND DUP3 ADD DUP1 PUSH1 0x40 MSTORE POP DUP2 ADD SWAP1 PUSH2 0x1439 SWAP2 SWAP1 PUSH2 0x38D7 JUMP JUMPDEST DUP11 PUSH1 0x1 PUSH1 0x1 PUSH1 0xA0 SHL SUB AND PUSH4 0x936C3477 PUSH1 0x40 MLOAD DUP2 PUSH4 0xFFFFFFFF AND PUSH1 0xE0 SHL DUP2 MSTORE PUSH1 0x4 ADD PUSH1 0x20 PUSH1 0x40 MLOAD DUP1 DUP4 SUB DUP2 DUP7 DUP1 EXTCODESIZE ISZERO DUP1 ISZERO PUSH2 0x1472 JUMPI PUSH1 0x0 DUP1 REVERT JUMPDEST POP GAS STATICCALL ISZERO DUP1 ISZERO PUSH2 0x1486 JUMPI RETURNDATASIZE PUSH1 0x0 DUP1 RETURNDATACOPY RETURNDATASIZE PUSH1 0x0 REVERT JUMPDEST POP POP POP POP PUSH1 0x40 MLOAD RETURNDATASIZE PUSH1 0x1F NOT PUSH1 0x1F DUP3 ADD AND DUP3 ADD DUP1 PUSH1 0x40 MSTORE POP DUP2 ADD SWAP1 PUSH2 0x14AA SWAP2 SWAP1 PUSH2 0x38D7 JUMP JUMPDEST DUP10 DUP13 PUSH1 0x1 PUSH1 0x1 PUSH1 0xA0 SHL SUB AND PUSH4 0xD4CADF68 PUSH1 0x40 MLOAD DUP2 PUSH4 0xFFFFFFFF AND PUSH1 0xE0 SHL DUP2 MSTORE PUSH1 0x4 ADD PUSH1 0x20 PUSH1 0x40 MLOAD DUP1 DUP4 SUB DUP2 DUP7 DUP1 EXTCODESIZE ISZERO DUP1 ISZERO PUSH2 0x14E4 JUMPI PUSH1 0x0 DUP1 REVERT JUMPDEST POP GAS STATICCALL ISZERO DUP1 ISZERO PUSH2 0x14F8 JUMPI RETURNDATASIZE PUSH1 0x0 DUP1 RETURNDATACOPY RETURNDATASIZE PUSH1 0x0 REVERT JUMPDEST POP POP POP POP PUSH1 0x40 MLOAD RETURNDATASIZE PUSH1 0x1F NOT PUSH1 0x1F DUP3 ADD AND DUP3 ADD DUP1 PUSH1 0x40 MSTORE POP DUP2 ADD SWAP1 PUSH2 0x151C SWAP2 SWAP1 PUSH2 0x38D7 JUMP JUMPDEST PUSH1 0x40 MLOAD DUP8 PUSH4 0xFFFFFFFF AND PUSH1 0xE0 SHL DUP2 MSTORE PUSH1 0x4 ADD PUSH2 0x153D SWAP7 SWAP6 SWAP5 SWAP4 SWAP3 SWAP2 SWAP1 PUSH2 0x3ED7 JUMP JUMPDEST PUSH1 0x20 PUSH1 0x40 MLOAD DUP1 DUP4 SUB DUP2 DUP7 DUP1 EXTCODESIZE ISZERO DUP1 ISZERO PUSH2 0x1555 JUMPI PUSH1 0x0 DUP1 REVERT JUMPDEST POP GAS STATICCALL ISZERO DUP1 ISZERO PUSH2 0x1569 JUMPI RETURNDATASIZE PUSH1 0x0 DUP1 RETURNDATACOPY RETURNDATASIZE PUSH1 0x0 REVERT JUMPDEST POP POP POP POP PUSH1 0x40 MLOAD RETURNDATASIZE PUSH1 0x1F NOT PUSH1 0x1F DUP3 ADD AND DUP3 ADD DUP1 PUSH1 0x40 MSTORE POP DUP2 ADD SWAP1 PUSH2 0x158D SWAP2 SWAP1 PUSH2 0x38D7 JUMP JUMPDEST SWAP1 POP DUP1 PUSH2 0x15AC JUMPI PUSH1 0x40 MLOAD PUSH3 0x461BCD PUSH1 0xE5 SHL DUP2 MSTORE PUSH1 0x4 ADD PUSH2 0x614 SWAP1 PUSH2 0x3AE8 JUMP JUMPDEST DUP3 DUP2 GT ISZERO PUSH2 0x15CC JUMPI PUSH1 0x40 MLOAD PUSH3 0x461BCD PUSH1 0xE5 SHL DUP2 MSTORE PUSH1 0x4 ADD PUSH2 0x614 SWAP1 PUSH2 0x3C3A JUMP JUMPDEST PUSH2 0x15D7 DUP2 PUSH1 0x0 PUSH2 0x3032 JUMP JUMPDEST SWAP2 POP SWAP6 POP SWAP6 SWAP4 POP POP POP POP JUMP JUMPDEST PUSH1 0x0 JUMPDEST DUP2 DUP2 LT ISZERO PUSH2 0x161F JUMPI PUSH2 0x1617 DUP4 DUP4 DUP4 DUP2 DUP2 LT PUSH2 0x15FD JUMPI INVALID JUMPDEST SWAP1 POP PUSH1 0x20 MUL ADD PUSH1 0x20 DUP2 ADD SWAP1 PUSH2 0x1612 SWAP2 SWAP1 PUSH2 0x34FA JUMP JUMPDEST PUSH2 0x31A7 JUMP JUMPDEST PUSH1 0x1 ADD PUSH2 0x15E6 JUMP JUMPDEST POP POP POP JUMP JUMPDEST DUP1 SLOAD PUSH2 0x162F JUMPI PUSH2 0x19A2 JUMP JUMPDEST DUP1 SLOAD NUMBER LT ISZERO PUSH2 0x1650 JUMPI PUSH1 0x40 MLOAD PUSH3 0x461BCD PUSH1 0xE5 SHL DUP2 MSTORE PUSH1 0x4 ADD PUSH2 0x614 SWAP1 PUSH2 0x3BE5 JUMP JUMPDEST PUSH1 0x0 DUP2 PUSH1 0x1 ADD SLOAD NUMBER GT ISZERO PUSH2 0x1669 JUMPI POP PUSH1 0x1 DUP2 ADD SLOAD PUSH2 0x166C JUMP JUMPDEST POP NUMBER JUMPDEST PUSH1 0x0 PUSH2 0x1680 DUP4 PUSH1 0x1 ADD SLOAD DUP5 PUSH1 0x0 ADD SLOAD PUSH2 0x3142 JUMP JUMPDEST SWAP1 POP PUSH1 0x0 PUSH2 0x1692 DUP4 DUP6 PUSH1 0x0 ADD SLOAD PUSH2 0x3142 JUMP JUMPDEST SWAP1 POP PUSH1 0x0 DUP1 PUSH1 0x0 PUSH1 0x60 DUP9 PUSH1 0x1 PUSH1 0x1 PUSH1 0xA0 SHL SUB AND PUSH4 0xCC77828D PUSH1 0x40 MLOAD DUP2 PUSH4 0xFFFFFFFF AND PUSH1 0xE0 SHL DUP2 MSTORE PUSH1 0x4 ADD PUSH1 0x0 PUSH1 0x40 MLOAD DUP1 DUP4 SUB DUP2 DUP7 DUP1 EXTCODESIZE ISZERO DUP1 ISZERO PUSH2 0x16D4 JUMPI PUSH1 0x0 DUP1 REVERT JUMPDEST POP GAS STATICCALL ISZERO DUP1 ISZERO PUSH2 0x16E8 JUMPI RETURNDATASIZE PUSH1 0x0 DUP1 RETURNDATACOPY RETURNDATASIZE PUSH1 0x0 REVERT JUMPDEST POP POP POP POP PUSH1 0x40 MLOAD RETURNDATASIZE PUSH1 0x0 DUP3 RETURNDATACOPY PUSH1 0x1F RETURNDATASIZE SWAP1 DUP2 ADD PUSH1 0x1F NOT AND DUP3 ADD PUSH1 0x40 MSTORE PUSH2 0x1710 SWAP2 SWAP1 DUP2 ADD SWAP1 PUSH2 0x3572 JUMP JUMPDEST SWAP1 POP PUSH1 0x0 JUMPDEST DUP2 MLOAD DUP2 LT ISZERO PUSH2 0x1989 JUMPI DUP9 PUSH1 0x3 ADD DUP2 DUP2 SLOAD DUP2 LT PUSH2 0x172D JUMPI INVALID JUMPDEST SWAP1 PUSH1 0x0 MSTORE PUSH1 0x20 PUSH1 0x0 KECCAK256 ADD SLOAD DUP10 PUSH1 0x2 ADD DUP3 DUP2 SLOAD DUP2 LT PUSH2 0x1747 JUMPI INVALID JUMPDEST SWAP1 PUSH1 0x0 MSTORE PUSH1 0x20 PUSH1 0x0 KECCAK256 ADD SLOAD EQ PUSH2 0x1981 JUMPI DUP9 PUSH1 0x2 ADD DUP2 DUP2 SLOAD DUP2 LT PUSH2 0x1766 JUMPI INVALID JUMPDEST SWAP1 PUSH1 0x0 MSTORE PUSH1 0x20 PUSH1 0x0 KECCAK256 ADD SLOAD DUP10 PUSH1 0x3 ADD DUP3 DUP2 SLOAD DUP2 LT PUSH2 0x1780 JUMPI INVALID JUMPDEST SWAP1 PUSH1 0x0 MSTORE PUSH1 0x20 PUSH1 0x0 KECCAK256 ADD SLOAD LT ISZERO PUSH2 0x180E JUMPI PUSH2 0x17CD DUP10 PUSH1 0x2 ADD DUP3 DUP2 SLOAD DUP2 LT PUSH2 0x17A3 JUMPI INVALID JUMPDEST SWAP1 PUSH1 0x0 MSTORE PUSH1 0x20 PUSH1 0x0 KECCAK256 ADD SLOAD DUP11 PUSH1 0x3 ADD DUP4 DUP2 SLOAD DUP2 LT PUSH2 0x17BD JUMPI INVALID JUMPDEST SWAP1 PUSH1 0x0 MSTORE PUSH1 0x20 PUSH1 0x0 KECCAK256 ADD SLOAD PUSH2 0x3142 JUMP JUMPDEST SWAP5 POP PUSH2 0x17D9 DUP6 DUP9 PUSH2 0x30B1 JUMP JUMPDEST SWAP4 POP PUSH2 0x1807 DUP10 PUSH1 0x2 ADD DUP3 DUP2 SLOAD DUP2 LT PUSH2 0x17ED JUMPI INVALID JUMPDEST SWAP1 PUSH1 0x0 MSTORE PUSH1 0x20 PUSH1 0x0 KECCAK256 ADD SLOAD PUSH2 0x1802 DUP9 DUP8 PUSH2 0x3032 JUMP JUMPDEST PUSH2 0x3142 JUMP JUMPDEST SWAP3 POP PUSH2 0x1877 JUMP JUMPDEST PUSH2 0x183A DUP10 PUSH1 0x3 ADD DUP3 DUP2 SLOAD DUP2 LT PUSH2 0x1820 JUMPI INVALID JUMPDEST SWAP1 PUSH1 0x0 MSTORE PUSH1 0x20 PUSH1 0x0 KECCAK256 ADD SLOAD DUP11 PUSH1 0x2 ADD DUP4 DUP2 SLOAD DUP2 LT PUSH2 0x17BD JUMPI INVALID JUMPDEST SWAP5 POP PUSH2 0x1846 DUP6 DUP9 PUSH2 0x30B1 JUMP JUMPDEST SWAP4 POP PUSH2 0x1874 DUP10 PUSH1 0x2 ADD DUP3 DUP2 SLOAD DUP2 LT PUSH2 0x185A JUMPI INVALID JUMPDEST SWAP1 PUSH1 0x0 MSTORE PUSH1 0x20 PUSH1 0x0 KECCAK256 ADD SLOAD PUSH2 0x186F DUP9 DUP8 PUSH2 0x3032 JUMP JUMPDEST PUSH2 0x317B JUMP JUMPDEST SWAP3 POP JUMPDEST PUSH1 0x0 DUP11 PUSH1 0x1 PUSH1 0x1 PUSH1 0xA0 SHL SUB AND PUSH4 0xF8B2CB4F DUP5 DUP5 DUP2 MLOAD DUP2 LT PUSH2 0x1894 JUMPI INVALID JUMPDEST PUSH1 0x20 MUL PUSH1 0x20 ADD ADD MLOAD PUSH1 0x40 MLOAD DUP3 PUSH4 0xFFFFFFFF AND PUSH1 0xE0 SHL DUP2 MSTORE PUSH1 0x4 ADD PUSH2 0x18B8 SWAP2 SWAP1 PUSH2 0x3929 JUMP JUMPDEST PUSH1 0x20 PUSH1 0x40 MLOAD DUP1 DUP4 SUB DUP2 DUP7 DUP1 EXTCODESIZE ISZERO DUP1 ISZERO PUSH2 0x18D0 JUMPI PUSH1 0x0 DUP1 REVERT JUMPDEST POP GAS STATICCALL ISZERO DUP1 ISZERO PUSH2 0x18E4 JUMPI RETURNDATASIZE PUSH1 0x0 DUP1 RETURNDATACOPY RETURNDATASIZE PUSH1 0x0 REVERT JUMPDEST POP POP POP POP PUSH1 0x40 MLOAD RETURNDATASIZE PUSH1 0x1F NOT PUSH1 0x1F DUP3 ADD AND DUP3 ADD DUP1 PUSH1 0x40 MSTORE POP DUP2 ADD SWAP1 PUSH2 0x1908 SWAP2 SWAP1 PUSH2 0x38D7 JUMP JUMPDEST SWAP1 POP DUP11 PUSH1 0x1 PUSH1 0x1 PUSH1 0xA0 SHL SUB AND PUSH4 0x3FDDDAA2 DUP5 DUP5 DUP2 MLOAD DUP2 LT PUSH2 0x1925 JUMPI INVALID JUMPDEST PUSH1 0x20 MUL PUSH1 0x20 ADD ADD MLOAD DUP4 DUP8 PUSH1 0x40 MLOAD DUP5 PUSH4 0xFFFFFFFF AND PUSH1 0xE0 SHL DUP2 MSTORE PUSH1 0x4 ADD PUSH2 0x194D SWAP4 SWAP3 SWAP2 SWAP1 PUSH2 0x3994 JUMP JUMPDEST PUSH1 0x0 PUSH1 0x40 MLOAD DUP1 DUP4 SUB DUP2 PUSH1 0x0 DUP8 DUP1 EXTCODESIZE ISZERO DUP1 ISZERO PUSH2 0x1967 JUMPI PUSH1 0x0 DUP1 REVERT JUMPDEST POP GAS CALL ISZERO DUP1 ISZERO PUSH2 0x197B JUMPI RETURNDATASIZE PUSH1 0x0 DUP1 RETURNDATACOPY RETURNDATASIZE PUSH1 0x0 REVERT JUMPDEST POP POP POP POP POP JUMPDEST PUSH1 0x1 ADD PUSH2 0x1715 JUMP JUMPDEST POP DUP8 PUSH1 0x1 ADD SLOAD NUMBER LT PUSH2 0x199A JUMPI PUSH1 0x0 DUP9 SSTORE JUMPDEST POP POP POP POP POP POP POP JUMPDEST POP POP JUMP JUMPDEST PUSH1 0x60 DUP1 DUP6 PUSH1 0x1 PUSH1 0x1 PUSH1 0xA0 SHL SUB AND PUSH4 0xCC77828D PUSH1 0x40 MLOAD DUP2 PUSH4 0xFFFFFFFF AND PUSH1 0xE0 SHL DUP2 MSTORE PUSH1 0x4 ADD PUSH1 0x0 PUSH1 0x40 MLOAD DUP1 DUP4 SUB DUP2 DUP7 DUP1 EXTCODESIZE ISZERO DUP1 ISZERO PUSH2 0x19E2 JUMPI PUSH1 0x0 DUP1 REVERT JUMPDEST POP GAS STATICCALL ISZERO DUP1 ISZERO PUSH2 0x19F6 JUMPI RETURNDATASIZE PUSH1 0x0 DUP1 RETURNDATACOPY RETURNDATASIZE PUSH1 0x0 REVERT JUMPDEST POP POP POP POP PUSH1 0x40 MLOAD RETURNDATASIZE PUSH1 0x0 DUP3 RETURNDATACOPY PUSH1 0x1F RETURNDATASIZE SWAP1 DUP2 ADD PUSH1 0x1F NOT AND DUP3 ADD PUSH1 0x40 MSTORE PUSH2 0x1A1E SWAP2 SWAP1 DUP2 ADD SWAP1 PUSH2 0x3572 JUMP JUMPDEST DUP1 MLOAD SWAP1 SWAP2 POP DUP4 EQ PUSH2 0x1A41 JUMPI PUSH1 0x40 MLOAD PUSH3 0x461BCD PUSH1 0xE5 SHL DUP2 MSTORE PUSH1 0x4 ADD PUSH2 0x614 SWAP1 PUSH2 0x3B67 JUMP JUMPDEST PUSH1 0x0 DUP8 PUSH1 0x1 PUSH1 0x1 PUSH1 0xA0 SHL SUB AND PUSH4 0x18160DDD PUSH1 0x40 MLOAD DUP2 PUSH4 0xFFFFFFFF AND PUSH1 0xE0 SHL DUP2 MSTORE PUSH1 0x4 ADD PUSH1 0x20 PUSH1 0x40 MLOAD DUP1 DUP4 SUB DUP2 DUP7 DUP1 EXTCODESIZE ISZERO DUP1 ISZERO PUSH2 0x1A7C JUMPI PUSH1 0x0 DUP1 REVERT JUMPDEST POP GAS STATICCALL ISZERO DUP1 ISZERO PUSH2 0x1A90 JUMPI RETURNDATASIZE PUSH1 0x0 DUP1 RETURNDATACOPY RETURNDATASIZE PUSH1 0x0 REVERT JUMPDEST POP POP POP POP PUSH1 0x40 MLOAD RETURNDATASIZE PUSH1 0x1F NOT PUSH1 0x1F DUP3 ADD AND DUP3 ADD DUP1 PUSH1 0x40 MSTORE POP DUP2 ADD SWAP1 PUSH2 0x1AB4 SWAP2 SWAP1 PUSH2 0x38D7 JUMP JUMPDEST SWAP1 POP PUSH1 0x0 PUSH2 0x1AC7 DUP8 PUSH2 0x41D DUP5 PUSH1 0x1 PUSH2 0x3142 JUMP JUMPDEST SWAP1 POP DUP1 PUSH2 0x1AE6 JUMPI PUSH1 0x40 MLOAD PUSH3 0x461BCD PUSH1 0xE5 SHL DUP2 MSTORE PUSH1 0x4 ADD PUSH2 0x614 SWAP1 PUSH2 0x3AE8 JUMP JUMPDEST DUP3 MLOAD PUSH8 0xFFFFFFFFFFFFFFFF DUP2 GT DUP1 ISZERO PUSH2 0x1AFE JUMPI PUSH1 0x0 DUP1 REVERT JUMPDEST POP PUSH1 0x40 MLOAD SWAP1 DUP1 DUP3 MSTORE DUP1 PUSH1 0x20 MUL PUSH1 0x20 ADD DUP3 ADD PUSH1 0x40 MSTORE DUP1 ISZERO PUSH2 0x1B28 JUMPI DUP2 PUSH1 0x20 ADD PUSH1 0x20 DUP3 MUL DUP1 CALLDATASIZE DUP4 CALLDATACOPY ADD SWAP1 POP JUMPDEST POP SWAP4 POP PUSH1 0x0 JUMPDEST DUP4 MLOAD DUP2 LT ISZERO PUSH2 0x1C54 JUMPI PUSH1 0x0 DUP5 DUP3 DUP2 MLOAD DUP2 LT PUSH2 0x1B45 JUMPI INVALID JUMPDEST PUSH1 0x20 MUL PUSH1 0x20 ADD ADD MLOAD SWAP1 POP PUSH1 0x0 DUP11 PUSH1 0x1 PUSH1 0x1 PUSH1 0xA0 SHL SUB AND PUSH4 0xF8B2CB4F DUP4 PUSH1 0x40 MLOAD DUP3 PUSH4 0xFFFFFFFF AND PUSH1 0xE0 SHL DUP2 MSTORE PUSH1 0x4 ADD PUSH2 0x1B7D SWAP2 SWAP1 PUSH2 0x3929 JUMP JUMPDEST PUSH1 0x20 PUSH1 0x40 MLOAD DUP1 DUP4 SUB DUP2 DUP7 DUP1 EXTCODESIZE ISZERO DUP1 ISZERO PUSH2 0x1B95 JUMPI PUSH1 0x0 DUP1 REVERT JUMPDEST POP GAS STATICCALL ISZERO DUP1 ISZERO PUSH2 0x1BA9 JUMPI RETURNDATASIZE PUSH1 0x0 DUP1 RETURNDATACOPY RETURNDATASIZE PUSH1 0x0 REVERT JUMPDEST POP POP POP POP PUSH1 0x40 MLOAD RETURNDATASIZE PUSH1 0x1F NOT PUSH1 0x1F DUP3 ADD AND DUP3 ADD DUP1 PUSH1 0x40 MSTORE POP DUP2 ADD SWAP1 PUSH2 0x1BCD SWAP2 SWAP1 PUSH2 0x38D7 JUMP JUMPDEST SWAP1 POP PUSH1 0x0 PUSH2 0x1BE0 DUP6 PUSH2 0x3A7 DUP5 PUSH1 0x1 PUSH2 0x317B JUMP JUMPDEST SWAP1 POP DUP1 PUSH2 0x1BFF JUMPI PUSH1 0x40 MLOAD PUSH3 0x461BCD PUSH1 0xE5 SHL DUP2 MSTORE PUSH1 0x4 ADD PUSH2 0x614 SWAP1 PUSH2 0x3AE8 JUMP JUMPDEST DUP10 DUP10 DUP6 DUP2 DUP2 LT PUSH2 0x1C0B JUMPI INVALID JUMPDEST SWAP1 POP PUSH1 0x20 MUL ADD CALLDATALOAD DUP2 GT ISZERO PUSH2 0x1C31 JUMPI PUSH1 0x40 MLOAD PUSH3 0x461BCD PUSH1 0xE5 SHL DUP2 MSTORE PUSH1 0x4 ADD PUSH2 0x614 SWAP1 PUSH2 0x3C3A JUMP JUMPDEST DUP1 DUP9 DUP6 DUP2 MLOAD DUP2 LT PUSH2 0x1C3E JUMPI INVALID JUMPDEST PUSH1 0x20 SWAP1 DUP2 MUL SWAP2 SWAP1 SWAP2 ADD ADD MSTORE POP POP POP PUSH1 0x1 ADD PUSH2 0x1B2E JUMP JUMPDEST POP POP POP POP SWAP6 SWAP5 POP POP POP POP POP JUMP JUMPDEST PUSH1 0x40 MLOAD PUSH4 0xBCDED89 PUSH1 0xE2 SHL DUP2 MSTORE PUSH1 0x1 PUSH1 0x1 PUSH1 0xA0 SHL SUB DUP7 AND SWAP1 PUSH4 0x2F37B624 SWAP1 PUSH2 0x1C8D SWAP1 DUP8 SWAP1 PUSH1 0x4 ADD PUSH2 0x3929 JUMP JUMPDEST PUSH1 0x20 PUSH1 0x40 MLOAD DUP1 DUP4 SUB DUP2 DUP7 DUP1 EXTCODESIZE ISZERO DUP1 ISZERO PUSH2 0x1CA5 JUMPI PUSH1 0x0 DUP1 REVERT JUMPDEST POP GAS STATICCALL ISZERO DUP1 ISZERO PUSH2 0x1CB9 JUMPI RETURNDATASIZE PUSH1 0x0 DUP1 RETURNDATACOPY RETURNDATASIZE PUSH1 0x0 REVERT JUMPDEST POP POP POP POP PUSH1 0x40 MLOAD RETURNDATASIZE PUSH1 0x1F NOT PUSH1 0x1F DUP3 ADD AND DUP3 ADD DUP1 PUSH1 0x40 MSTORE POP DUP2 ADD SWAP1 PUSH2 0x1CDD SWAP2 SWAP1 PUSH2 0x361D JUMP JUMPDEST ISZERO PUSH2 0x1CFA JUMPI PUSH1 0x40 MLOAD PUSH3 0x461BCD PUSH1 0xE5 SHL DUP2 MSTORE PUSH1 0x4 ADD PUSH2 0x614 SWAP1 PUSH2 0x3A98 JUMP JUMPDEST PUSH9 0x2B5E3AF16B1880000 DUP3 GT ISZERO PUSH2 0x1D23 JUMPI PUSH1 0x40 MLOAD PUSH3 0x461BCD PUSH1 0xE5 SHL DUP2 MSTORE PUSH1 0x4 ADD PUSH2 0x614 SWAP1 PUSH2 0x3D08 JUMP JUMPDEST PUSH8 0xDE0B6B3A7640000 DUP3 LT ISZERO PUSH2 0x1D4B JUMPI PUSH1 0x40 MLOAD PUSH3 0x461BCD PUSH1 0xE5 SHL DUP2 MSTORE PUSH1 0x4 ADD PUSH2 0x614 SWAP1 PUSH2 0x3C60 JUMP JUMPDEST PUSH8 0xDE0B6B3A7640000 PUSH1 0x32 MUL PUSH2 0x1DD1 DUP7 PUSH1 0x1 PUSH1 0x1 PUSH1 0xA0 SHL SUB AND PUSH4 0x936C3477 PUSH1 0x40 MLOAD DUP2 PUSH4 0xFFFFFFFF AND PUSH1 0xE0 SHL DUP2 MSTORE PUSH1 0x4 ADD PUSH1 0x20 PUSH1 0x40 MLOAD DUP1 DUP4 SUB DUP2 DUP7 DUP1 EXTCODESIZE ISZERO DUP1 ISZERO PUSH2 0x1D93 JUMPI PUSH1 0x0 DUP1 REVERT JUMPDEST POP GAS STATICCALL ISZERO DUP1 ISZERO PUSH2 0x1DA7 JUMPI RETURNDATASIZE PUSH1 0x0 DUP1 RETURNDATACOPY RETURNDATASIZE PUSH1 0x0 REVERT JUMPDEST POP POP POP POP PUSH1 0x40 MLOAD RETURNDATASIZE PUSH1 0x1F NOT PUSH1 0x1F DUP3 ADD AND DUP3 ADD DUP1 PUSH1 0x40 MSTORE POP DUP2 ADD SWAP1 PUSH2 0x1DCB SWAP2 SWAP1 PUSH2 0x38D7 JUMP JUMPDEST DUP5 PUSH2 0x317B JUMP JUMPDEST GT ISZERO PUSH2 0x1DEF JUMPI PUSH1 0x40 MLOAD PUSH3 0x461BCD PUSH1 0xE5 SHL DUP2 MSTORE PUSH1 0x4 ADD PUSH2 0x614 SWAP1 PUSH2 0x3B39 JUMP JUMPDEST PUSH5 0xE8D4A51000 DUP4 LT ISZERO PUSH2 0x1E14 JUMPI PUSH1 0x40 MLOAD PUSH3 0x461BCD PUSH1 0xE5 SHL DUP2 MSTORE PUSH1 0x4 ADD PUSH2 0x614 SWAP1 PUSH2 0x3DF4 JUMP JUMPDEST DUP1 SLOAD PUSH1 0x3 DUP3 ADD SWAP4 SWAP1 SWAP4 SSTORE PUSH1 0x2 DUP2 ADD SWAP2 SWAP1 SWAP2 SSTORE NUMBER PUSH1 0x1 DUP3 ADD SSTORE PUSH1 0x1 PUSH1 0xA0 SHL PUSH1 0x1 PUSH1 0x1 PUSH1 0xA0 SHL SUB NOT SWAP1 SWAP3 AND PUSH1 0x1 PUSH1 0x1 PUSH1 0xA0 SHL SUB SWAP4 SWAP1 SWAP4 AND SWAP3 SWAP1 SWAP3 OR PUSH1 0xFF PUSH1 0xA0 SHL NOT AND OR SWAP1 SSTORE POP JUMP JUMPDEST PUSH1 0x0 DUP1 DUP6 PUSH1 0x1 PUSH1 0x1 PUSH1 0xA0 SHL SUB AND PUSH4 0x2F37B624 DUP7 PUSH1 0x40 MLOAD DUP3 PUSH4 0xFFFFFFFF AND PUSH1 0xE0 SHL DUP2 MSTORE PUSH1 0x4 ADD PUSH2 0x1E89 SWAP2 SWAP1 PUSH2 0x3929 JUMP JUMPDEST PUSH1 0x20 PUSH1 0x40 MLOAD DUP1 DUP4 SUB DUP2 DUP7 DUP1 EXTCODESIZE ISZERO DUP1 ISZERO PUSH2 0x1EA1 JUMPI PUSH1 0x0 DUP1 REVERT JUMPDEST POP GAS STATICCALL ISZERO DUP1 ISZERO PUSH2 0x1EB5 JUMPI RETURNDATASIZE PUSH1 0x0 DUP1 RETURNDATACOPY RETURNDATASIZE PUSH1 0x0 REVERT JUMPDEST POP POP POP POP PUSH1 0x40 MLOAD RETURNDATASIZE PUSH1 0x1F NOT PUSH1 0x1F DUP3 ADD AND DUP3 ADD DUP1 PUSH1 0x40 MSTORE POP DUP2 ADD SWAP1 PUSH2 0x1ED9 SWAP2 SWAP1 PUSH2 0x361D JUMP JUMPDEST PUSH2 0x1EF5 JUMPI PUSH1 0x40 MLOAD PUSH3 0x461BCD PUSH1 0xE5 SHL DUP2 MSTORE PUSH1 0x4 ADD PUSH2 0x614 SWAP1 PUSH2 0x3CB9 JUMP JUMPDEST PUSH1 0x40 MLOAD PUSH4 0xF8B2CB4F PUSH1 0xE0 SHL DUP2 MSTORE PUSH1 0x1 PUSH1 0x1 PUSH1 0xA0 SHL SUB DUP8 AND SWAP1 PUSH4 0x89298012 SWAP1 DUP3 SWAP1 PUSH4 0xF8B2CB4F SWAP1 PUSH2 0x1F29 SWAP1 DUP11 SWAP1 PUSH1 0x4 ADD PUSH2 0x3929 JUMP JUMPDEST PUSH1 0x20 PUSH1 0x40 MLOAD DUP1 DUP4 SUB DUP2 DUP7 DUP1 EXTCODESIZE ISZERO DUP1 ISZERO PUSH2 0x1F41 JUMPI PUSH1 0x0 DUP1 REVERT JUMPDEST POP GAS STATICCALL ISZERO DUP1 ISZERO PUSH2 0x1F55 JUMPI RETURNDATASIZE PUSH1 0x0 DUP1 RETURNDATACOPY RETURNDATASIZE PUSH1 0x0 REVERT JUMPDEST POP POP POP POP PUSH1 0x40 MLOAD RETURNDATASIZE PUSH1 0x1F NOT PUSH1 0x1F DUP3 ADD AND DUP3 ADD DUP1 PUSH1 0x40 MSTORE POP DUP2 ADD SWAP1 PUSH2 0x1F79 SWAP2 SWAP1 PUSH2 0x38D7 JUMP JUMPDEST PUSH1 0x40 MLOAD PUSH4 0x4A46C673 PUSH1 0xE1 SHL DUP2 MSTORE PUSH1 0x1 PUSH1 0x1 PUSH1 0xA0 SHL SUB DUP11 AND SWAP1 PUSH4 0x948D8CE6 SWAP1 PUSH2 0x1FA5 SWAP1 DUP12 SWAP1 PUSH1 0x4 ADD PUSH2 0x3929 JUMP JUMPDEST PUSH1 0x20 PUSH1 0x40 MLOAD DUP1 DUP4 SUB DUP2 DUP7 DUP1 EXTCODESIZE ISZERO DUP1 ISZERO PUSH2 0x1FBD JUMPI PUSH1 0x0 DUP1 REVERT JUMPDEST POP GAS STATICCALL ISZERO DUP1 ISZERO PUSH2 0x1FD1 JUMPI RETURNDATASIZE PUSH1 0x0 DUP1 RETURNDATACOPY RETURNDATASIZE PUSH1 0x0 REVERT JUMPDEST POP POP POP POP PUSH1 0x40 MLOAD RETURNDATASIZE PUSH1 0x1F NOT PUSH1 0x1F DUP3 ADD AND DUP3 ADD DUP1 PUSH1 0x40 MSTORE POP DUP2 ADD SWAP1 PUSH2 0x1FF5 SWAP2 SWAP1 PUSH2 0x38D7 JUMP JUMPDEST DUP11 PUSH1 0x1 PUSH1 0x1 PUSH1 0xA0 SHL SUB AND PUSH4 0x18160DDD PUSH1 0x40 MLOAD DUP2 PUSH4 0xFFFFFFFF AND PUSH1 0xE0 SHL DUP2 MSTORE PUSH1 0x4 ADD PUSH1 0x20 PUSH1 0x40 MLOAD DUP1 DUP4 SUB DUP2 DUP7 DUP1 EXTCODESIZE ISZERO DUP1 ISZERO PUSH2 0x202E JUMPI PUSH1 0x0 DUP1 REVERT JUMPDEST POP GAS STATICCALL ISZERO DUP1 ISZERO PUSH2 0x2042 JUMPI RETURNDATASIZE PUSH1 0x0 DUP1 RETURNDATACOPY RETURNDATASIZE PUSH1 0x0 REVERT JUMPDEST POP POP POP POP PUSH1 0x40 MLOAD RETURNDATASIZE PUSH1 0x1F NOT PUSH1 0x1F DUP3 ADD AND DUP3 ADD DUP1 PUSH1 0x40 MSTORE POP DUP2 ADD SWAP1 PUSH2 0x2066 SWAP2 SWAP1 PUSH2 0x38D7 JUMP JUMPDEST DUP11 PUSH1 0x1 PUSH1 0x1 PUSH1 0xA0 SHL SUB AND PUSH4 0x936C3477 PUSH1 0x40 MLOAD DUP2 PUSH4 0xFFFFFFFF AND PUSH1 0xE0 SHL DUP2 MSTORE PUSH1 0x4 ADD PUSH1 0x20 PUSH1 0x40 MLOAD DUP1 DUP4 SUB DUP2 DUP7 DUP1 EXTCODESIZE ISZERO DUP1 ISZERO PUSH2 0x209F JUMPI PUSH1 0x0 DUP1 REVERT JUMPDEST POP GAS STATICCALL ISZERO DUP1 ISZERO PUSH2 0x20B3 JUMPI RETURNDATASIZE PUSH1 0x0 DUP1 RETURNDATACOPY RETURNDATASIZE PUSH1 0x0 REVERT JUMPDEST POP POP POP POP PUSH1 0x40 MLOAD RETURNDATASIZE PUSH1 0x1F NOT PUSH1 0x1F DUP3 ADD AND DUP3 ADD DUP1 PUSH1 0x40 MSTORE POP DUP2 ADD SWAP1 PUSH2 0x20D7 SWAP2 SWAP1 PUSH2 0x38D7 JUMP JUMPDEST DUP10 DUP13 PUSH1 0x1 PUSH1 0x1 PUSH1 0xA0 SHL SUB AND PUSH4 0xD4CADF68 PUSH1 0x40 MLOAD DUP2 PUSH4 0xFFFFFFFF AND PUSH1 0xE0 SHL DUP2 MSTORE PUSH1 0x4 ADD PUSH1 0x20 PUSH1 0x40 MLOAD DUP1 DUP4 SUB DUP2 DUP7 DUP1 EXTCODESIZE ISZERO DUP1 ISZERO PUSH2 0x2111 JUMPI PUSH1 0x0 DUP1 REVERT JUMPDEST POP GAS STATICCALL ISZERO DUP1 ISZERO PUSH2 0x2125 JUMPI RETURNDATASIZE PUSH1 0x0 DUP1 RETURNDATACOPY RETURNDATASIZE PUSH1 0x0 REVERT JUMPDEST POP POP POP POP PUSH1 0x40 MLOAD RETURNDATASIZE PUSH1 0x1F NOT PUSH1 0x1F DUP3 ADD AND DUP3 ADD DUP1 PUSH1 0x40 MSTORE POP DUP2 ADD SWAP1 PUSH2 0x2149 SWAP2 SWAP1 PUSH2 0x38D7 JUMP JUMPDEST PUSH1 0x40 MLOAD DUP8 PUSH4 0xFFFFFFFF AND PUSH1 0xE0 SHL DUP2 MSTORE PUSH1 0x4 ADD PUSH2 0x216A SWAP7 SWAP6 SWAP5 SWAP4 SWAP3 SWAP2 SWAP1 PUSH2 0x3ED7 JUMP JUMPDEST PUSH1 0x20 PUSH1 0x40 MLOAD DUP1 DUP4 SUB DUP2 DUP7 DUP1 EXTCODESIZE ISZERO DUP1 ISZERO PUSH2 0x2182 JUMPI PUSH1 0x0 DUP1 REVERT JUMPDEST POP GAS STATICCALL ISZERO DUP1 ISZERO PUSH2 0x2196 JUMPI RETURNDATASIZE PUSH1 0x0 DUP1 RETURNDATACOPY RETURNDATASIZE PUSH1 0x0 REVERT JUMPDEST POP POP POP POP PUSH1 0x40 MLOAD RETURNDATASIZE PUSH1 0x1F NOT PUSH1 0x1F DUP3 ADD AND DUP3 ADD DUP1 PUSH1 0x40 MSTORE POP DUP2 ADD SWAP1 PUSH2 0x21BA SWAP2 SWAP1 PUSH2 0x38D7 JUMP JUMPDEST SWAP1 POP DUP3 DUP2 LT ISZERO PUSH2 0x21DC JUMPI PUSH1 0x40 MLOAD PUSH3 0x461BCD PUSH1 0xE5 SHL DUP2 MSTORE PUSH1 0x4 ADD PUSH2 0x614 SWAP1 PUSH2 0x3B95 JUMP JUMPDEST PUSH1 0x40 MLOAD PUSH4 0xF8B2CB4F PUSH1 0xE0 SHL DUP2 MSTORE PUSH2 0x220C SWAP1 PUSH1 0x1 PUSH1 0x1 PUSH1 0xA0 SHL SUB DUP9 AND SWAP1 PUSH4 0xF8B2CB4F SWAP1 PUSH2 0x124B SWAP1 DUP10 SWAP1 PUSH1 0x4 ADD PUSH2 0x3929 JUMP JUMPDEST DUP2 GT ISZERO PUSH2 0x222B JUMPI PUSH1 0x40 MLOAD PUSH3 0x461BCD PUSH1 0xE5 SHL DUP2 MSTORE PUSH1 0x4 ADD PUSH2 0x614 SWAP1 PUSH2 0x3C8E JUMP JUMPDEST PUSH2 0x15D7 DUP5 PUSH1 0x0 PUSH2 0x3032 JUMP JUMPDEST PUSH1 0x40 MLOAD PUSH4 0xBCDED89 PUSH1 0xE2 SHL DUP2 MSTORE PUSH1 0x0 SWAP1 PUSH1 0x1 PUSH1 0x1 PUSH1 0xA0 SHL SUB DUP7 AND SWAP1 PUSH4 0x2F37B624 SWAP1 PUSH2 0x2265 SWAP1 DUP8 SWAP1 PUSH1 0x4 ADD PUSH2 0x3929 JUMP JUMPDEST PUSH1 0x20 PUSH1 0x40 MLOAD DUP1 DUP4 SUB DUP2 DUP7 DUP1 EXTCODESIZE ISZERO DUP1 ISZERO PUSH2 0x227D JUMPI PUSH1 0x0 DUP1 REVERT JUMPDEST POP GAS STATICCALL ISZERO DUP1 ISZERO PUSH2 0x2291 JUMPI RETURNDATASIZE PUSH1 0x0 DUP1 RETURNDATACOPY RETURNDATASIZE PUSH1 0x0 REVERT JUMPDEST POP POP POP POP PUSH1 0x40 MLOAD RETURNDATASIZE PUSH1 0x1F NOT PUSH1 0x1F DUP3 ADD AND DUP3 ADD DUP1 PUSH1 0x40 MSTORE POP DUP2 ADD SWAP1 PUSH2 0x22B5 SWAP2 SWAP1 PUSH2 0x361D JUMP JUMPDEST PUSH2 0x22D1 JUMPI PUSH1 0x40 MLOAD PUSH3 0x461BCD PUSH1 0xE5 SHL DUP2 MSTORE PUSH1 0x4 ADD PUSH2 0x614 SWAP1 PUSH2 0x3CB9 JUMP JUMPDEST PUSH1 0x40 MLOAD PUSH4 0xF8B2CB4F PUSH1 0xE0 SHL DUP2 MSTORE PUSH2 0x2301 SWAP1 PUSH1 0x1 PUSH1 0x1 PUSH1 0xA0 SHL SUB DUP8 AND SWAP1 PUSH4 0xF8B2CB4F SWAP1 PUSH2 0x10FA SWAP1 DUP9 SWAP1 PUSH1 0x4 ADD PUSH2 0x3929 JUMP JUMPDEST DUP4 GT ISZERO PUSH2 0x2320 JUMPI PUSH1 0x40 MLOAD PUSH3 0x461BCD PUSH1 0xE5 SHL DUP2 MSTORE PUSH1 0x4 ADD PUSH2 0x614 SWAP1 PUSH2 0x3ABE JUMP JUMPDEST PUSH1 0x40 MLOAD PUSH4 0xF8B2CB4F PUSH1 0xE0 SHL DUP2 MSTORE PUSH1 0x1 PUSH1 0x1 PUSH1 0xA0 SHL SUB DUP7 AND SWAP1 PUSH4 0x8656B653 SWAP1 DUP3 SWAP1 PUSH4 0xF8B2CB4F SWAP1 PUSH2 0x2354 SWAP1 DUP10 SWAP1 PUSH1 0x4 ADD PUSH2 0x3929 JUMP JUMPDEST PUSH1 0x20 PUSH1 0x40 MLOAD DUP1 DUP4 SUB DUP2 DUP7 DUP1 EXTCODESIZE ISZERO DUP1 ISZERO PUSH2 0x236C JUMPI PUSH1 0x0 DUP1 REVERT JUMPDEST POP GAS STATICCALL ISZERO DUP1 ISZERO PUSH2 0x2380 JUMPI RETURNDATASIZE PUSH1 0x0 DUP1 RETURNDATACOPY RETURNDATASIZE PUSH1 0x0 REVERT JUMPDEST POP POP POP POP PUSH1 0x40 MLOAD RETURNDATASIZE PUSH1 0x1F NOT PUSH1 0x1F DUP3 ADD AND DUP3 ADD DUP1 PUSH1 0x40 MSTORE POP DUP2 ADD SWAP1 PUSH2 0x23A4 SWAP2 SWAP1 PUSH2 0x38D7 JUMP JUMPDEST PUSH1 0x40 MLOAD PUSH4 0x4A46C673 PUSH1 0xE1 SHL DUP2 MSTORE PUSH1 0x1 PUSH1 0x1 PUSH1 0xA0 SHL SUB DUP10 AND SWAP1 PUSH4 0x948D8CE6 SWAP1 PUSH2 0x23D0 SWAP1 DUP11 SWAP1 PUSH1 0x4 ADD PUSH2 0x3929 JUMP JUMPDEST PUSH1 0x20 PUSH1 0x40 MLOAD DUP1 DUP4 SUB DUP2 DUP7 DUP1 EXTCODESIZE ISZERO DUP1 ISZERO PUSH2 0x23E8 JUMPI PUSH1 0x0 DUP1 REVERT JUMPDEST POP GAS STATICCALL ISZERO DUP1 ISZERO PUSH2 0x23FC JUMPI RETURNDATASIZE PUSH1 0x0 DUP1 RETURNDATACOPY RETURNDATASIZE PUSH1 0x0 REVERT JUMPDEST POP POP POP POP PUSH1 0x40 MLOAD RETURNDATASIZE PUSH1 0x1F NOT PUSH1 0x1F DUP3 ADD AND DUP3 ADD DUP1 PUSH1 0x40 MSTORE POP DUP2 ADD SWAP1 PUSH2 0x2420 SWAP2 SWAP1 PUSH2 0x38D7 JUMP JUMPDEST DUP10 PUSH1 0x1 PUSH1 0x1 PUSH1 0xA0 SHL SUB AND PUSH4 0x18160DDD PUSH1 0x40 MLOAD DUP2 PUSH4 0xFFFFFFFF AND PUSH1 0xE0 SHL DUP2 MSTORE PUSH1 0x4 ADD PUSH1 0x20 PUSH1 0x40 MLOAD DUP1 DUP4 SUB DUP2 DUP7 DUP1 EXTCODESIZE ISZERO DUP1 ISZERO PUSH2 0x2459 JUMPI PUSH1 0x0 DUP1 REVERT JUMPDEST POP GAS STATICCALL ISZERO DUP1 ISZERO PUSH2 0x246D JUMPI RETURNDATASIZE PUSH1 0x0 DUP1 RETURNDATACOPY RETURNDATASIZE PUSH1 0x0 REVERT JUMPDEST POP POP POP POP PUSH1 0x40 MLOAD RETURNDATASIZE PUSH1 0x1F NOT PUSH1 0x1F DUP3 ADD AND DUP3 ADD DUP1 PUSH1 0x40 MSTORE POP DUP2 ADD SWAP1 PUSH2 0x2491 SWAP2 SWAP1 PUSH2 0x38D7 JUMP JUMPDEST DUP10 PUSH1 0x1 PUSH1 0x1 PUSH1 0xA0 SHL SUB AND PUSH4 0x936C3477 PUSH1 0x40 MLOAD DUP2 PUSH4 0xFFFFFFFF AND PUSH1 0xE0 SHL DUP2 MSTORE PUSH1 0x4 ADD PUSH1 0x20 PUSH1 0x40 MLOAD DUP1 DUP4 SUB DUP2 DUP7 DUP1 EXTCODESIZE ISZERO DUP1 ISZERO PUSH2 0x24CA JUMPI PUSH1 0x0 DUP1 REVERT JUMPDEST POP GAS STATICCALL ISZERO DUP1 ISZERO PUSH2 0x24DE JUMPI RETURNDATASIZE PUSH1 0x0 DUP1 RETURNDATACOPY RETURNDATASIZE PUSH1 0x0 REVERT JUMPDEST POP POP POP POP PUSH1 0x40 MLOAD RETURNDATASIZE PUSH1 0x1F NOT PUSH1 0x1F DUP3 ADD AND DUP3 ADD DUP1 PUSH1 0x40 MSTORE POP DUP2 ADD SWAP1 PUSH2 0x2502 SWAP2 SWAP1 PUSH2 0x38D7 JUMP JUMPDEST DUP9 DUP12 PUSH1 0x1 PUSH1 0x1 PUSH1 0xA0 SHL SUB AND PUSH4 0xD4CADF68 PUSH1 0x40 MLOAD DUP2 PUSH4 0xFFFFFFFF AND PUSH1 0xE0 SHL DUP2 MSTORE PUSH1 0x4 ADD PUSH1 0x20 PUSH1 0x40 MLOAD DUP1 DUP4 SUB DUP2 DUP7 DUP1 EXTCODESIZE ISZERO DUP1 ISZERO PUSH2 0x253C JUMPI PUSH1 0x0 DUP1 REVERT JUMPDEST POP GAS STATICCALL ISZERO DUP1 ISZERO PUSH2 0x2550 JUMPI RETURNDATASIZE PUSH1 0x0 DUP1 RETURNDATACOPY RETURNDATASIZE PUSH1 0x0 REVERT JUMPDEST POP POP POP POP PUSH1 0x40 MLOAD RETURNDATASIZE PUSH1 0x1F NOT PUSH1 0x1F DUP3 ADD AND DUP3 ADD DUP1 PUSH1 0x40 MSTORE POP DUP2 ADD SWAP1 PUSH2 0x2574 SWAP2 SWAP1 PUSH2 0x38D7 JUMP JUMPDEST PUSH1 0x40 MLOAD DUP8 PUSH4 0xFFFFFFFF AND PUSH1 0xE0 SHL DUP2 MSTORE PUSH1 0x4 ADD PUSH2 0x2595 SWAP7 SWAP6 SWAP5 SWAP4 SWAP3 SWAP2 SWAP1 PUSH2 0x3ED7 JUMP JUMPDEST PUSH1 0x20 PUSH1 0x40 MLOAD DUP1 DUP4 SUB DUP2 DUP7 DUP1 EXTCODESIZE ISZERO DUP1 ISZERO PUSH2 0x25AD JUMPI PUSH1 0x0 DUP1 REVERT JUMPDEST POP GAS STATICCALL ISZERO DUP1 ISZERO PUSH2 0x25C1 JUMPI RETURNDATASIZE PUSH1 0x0 DUP1 RETURNDATACOPY RETURNDATASIZE PUSH1 0x0 REVERT JUMPDEST POP POP POP POP PUSH1 0x40 MLOAD RETURNDATASIZE PUSH1 0x1F NOT PUSH1 0x1F DUP3 ADD AND DUP3 ADD DUP1 PUSH1 0x40 MSTORE POP DUP2 ADD SWAP1 PUSH2 0x25E5 SWAP2 SWAP1 PUSH2 0x38D7 JUMP JUMPDEST SWAP1 POP DUP2 DUP2 LT ISZERO PUSH2 0x1177 JUMPI PUSH1 0x40 MLOAD PUSH3 0x461BCD PUSH1 0xE5 SHL DUP2 MSTORE PUSH1 0x4 ADD PUSH2 0x614 SWAP1 PUSH2 0x3B95 JUMP JUMPDEST DUP1 SLOAD PUSH1 0x1 PUSH1 0xA0 SHL SWAP1 DIV PUSH1 0xFF AND PUSH2 0x262F JUMPI PUSH1 0x40 MLOAD PUSH3 0x461BCD PUSH1 0xE5 SHL DUP2 MSTORE PUSH1 0x4 ADD PUSH2 0x614 SWAP1 PUSH2 0x39C8 JUMP JUMPDEST DUP2 PUSH2 0x263E NUMBER DUP4 PUSH1 0x1 ADD SLOAD PUSH2 0x3142 JUMP JUMPDEST LT ISZERO PUSH2 0x265C JUMPI PUSH1 0x40 MLOAD PUSH3 0x461BCD PUSH1 0xE5 SHL DUP2 MSTORE PUSH1 0x4 ADD PUSH2 0x614 SWAP1 PUSH2 0x3D36 JUMP JUMPDEST PUSH1 0x0 DUP5 PUSH1 0x1 PUSH1 0x1 PUSH1 0xA0 SHL SUB AND PUSH4 0x18160DDD PUSH1 0x40 MLOAD DUP2 PUSH4 0xFFFFFFFF AND PUSH1 0xE0 SHL DUP2 MSTORE PUSH1 0x4 ADD PUSH1 0x20 PUSH1 0x40 MLOAD DUP1 DUP4 SUB DUP2 DUP7 DUP1 EXTCODESIZE ISZERO DUP1 ISZERO PUSH2 0x2697 JUMPI PUSH1 0x0 DUP1 REVERT JUMPDEST POP GAS STATICCALL ISZERO DUP1 ISZERO PUSH2 0x26AB JUMPI RETURNDATASIZE PUSH1 0x0 DUP1 RETURNDATACOPY RETURNDATASIZE PUSH1 0x0 REVERT JUMPDEST POP POP POP POP PUSH1 0x40 MLOAD RETURNDATASIZE PUSH1 0x1F NOT PUSH1 0x1F DUP3 ADD AND DUP3 ADD DUP1 PUSH1 0x40 MSTORE POP DUP2 ADD SWAP1 PUSH2 0x26CF SWAP2 SWAP1 PUSH2 0x38D7 JUMP JUMPDEST SWAP1 POP PUSH1 0x0 PUSH2 0x271D PUSH2 0x26E4 DUP4 DUP6 PUSH1 0x2 ADD SLOAD PUSH2 0x3032 JUMP JUMPDEST DUP7 PUSH1 0x1 PUSH1 0x1 PUSH1 0xA0 SHL SUB AND PUSH4 0x936C3477 PUSH1 0x40 MLOAD DUP2 PUSH4 0xFFFFFFFF AND PUSH1 0xE0 SHL DUP2 MSTORE PUSH1 0x4 ADD PUSH1 0x20 PUSH1 0x40 MLOAD DUP1 DUP4 SUB DUP2 DUP7 DUP1 EXTCODESIZE ISZERO DUP1 ISZERO PUSH2 0x3E5 JUMPI PUSH1 0x0 DUP1 REVERT JUMPDEST DUP4 SLOAD PUSH1 0xFF PUSH1 0xA0 SHL NOT DUP2 AND DUP6 SSTORE PUSH1 0x40 DUP1 MLOAD PUSH4 0x3018205F PUSH1 0xE0 SHL DUP2 MSTORE SWAP1 MLOAD SWAP3 SWAP4 POP PUSH1 0x0 SWAP3 PUSH1 0x1 PUSH1 0x1 PUSH1 0xA0 SHL SUB SWAP3 DUP4 AND SWAP3 PUSH4 0x23B872DD SWAP3 SWAP1 DUP12 AND SWAP2 PUSH4 0x3018205F SWAP2 PUSH1 0x4 DUP1 DUP3 ADD SWAP3 PUSH1 0x20 SWAP3 SWAP1 SWAP2 SWAP1 DUP3 SWAP1 SUB ADD DUP2 DUP7 DUP1 EXTCODESIZE ISZERO DUP1 ISZERO PUSH2 0x277B JUMPI PUSH1 0x0 DUP1 REVERT JUMPDEST POP GAS STATICCALL ISZERO DUP1 ISZERO PUSH2 0x278F JUMPI RETURNDATASIZE PUSH1 0x0 DUP1 RETURNDATACOPY RETURNDATASIZE PUSH1 0x0 REVERT JUMPDEST POP POP POP POP PUSH1 0x40 MLOAD RETURNDATASIZE PUSH1 0x1F NOT PUSH1 0x1F DUP3 ADD AND DUP3 ADD DUP1 PUSH1 0x40 MSTORE POP DUP2 ADD SWAP1 PUSH2 0x27B3 SWAP2 SWAP1 PUSH2 0x3516 JUMP JUMPDEST DUP10 DUP8 PUSH1 0x3 ADD SLOAD PUSH1 0x40 MLOAD DUP5 PUSH4 0xFFFFFFFF AND PUSH1 0xE0 SHL DUP2 MSTORE PUSH1 0x4 ADD PUSH2 0x27D7 SWAP4 SWAP3 SWAP2 SWAP1 PUSH2 0x393D JUMP JUMPDEST PUSH1 0x20 PUSH1 0x40 MLOAD DUP1 DUP4 SUB DUP2 PUSH1 0x0 DUP8 DUP1 EXTCODESIZE ISZERO DUP1 ISZERO PUSH2 0x27F1 JUMPI PUSH1 0x0 DUP1 REVERT JUMPDEST POP GAS CALL ISZERO DUP1 ISZERO PUSH2 0x2805 JUMPI RETURNDATASIZE PUSH1 0x0 DUP1 RETURNDATACOPY RETURNDATASIZE PUSH1 0x0 REVERT JUMPDEST POP POP POP POP PUSH1 0x40 MLOAD RETURNDATASIZE PUSH1 0x1F NOT PUSH1 0x1F DUP3 ADD AND DUP3 ADD DUP1 PUSH1 0x40 MSTORE POP DUP2 ADD SWAP1 PUSH2 0x2829 SWAP2 SWAP1 PUSH2 0x361D JUMP JUMPDEST SWAP1 POP DUP1 PUSH2 0x2848 JUMPI PUSH1 0x40 MLOAD PUSH3 0x461BCD PUSH1 0xE5 SHL DUP2 MSTORE PUSH1 0x4 ADD PUSH2 0x614 SWAP1 PUSH2 0x3E23 JUMP JUMPDEST DUP4 SLOAD PUSH2 0x2860 SWAP1 PUSH1 0x1 PUSH1 0x1 PUSH1 0xA0 SHL SUB AND DUP8 PUSH1 0x0 NOT PUSH2 0x3249 JUMP JUMPDEST SWAP1 POP DUP1 PUSH2 0x287F JUMPI PUSH1 0x40 MLOAD PUSH3 0x461BCD PUSH1 0xE5 SHL DUP2 MSTORE PUSH1 0x4 ADD PUSH2 0x614 SWAP1 PUSH2 0x3E23 JUMP JUMPDEST DUP4 SLOAD PUSH1 0x3 DUP6 ADD SLOAD PUSH1 0x2 DUP7 ADD SLOAD PUSH1 0x40 MLOAD PUSH4 0x1C9C3CA7 PUSH1 0xE3 SHL DUP2 MSTORE PUSH1 0x1 PUSH1 0x1 PUSH1 0xA0 SHL SUB DUP1 DUP12 AND SWAP5 PUSH4 0xE4E1E538 SWAP5 PUSH2 0x28BB SWAP5 SWAP2 SWAP1 SWAP3 AND SWAP3 PUSH1 0x4 ADD PUSH2 0x3994 JUMP JUMPDEST PUSH1 0x0 PUSH1 0x40 MLOAD DUP1 DUP4 SUB DUP2 PUSH1 0x0 DUP8 DUP1 EXTCODESIZE ISZERO DUP1 ISZERO PUSH2 0x28D5 JUMPI PUSH1 0x0 DUP1 REVERT JUMPDEST POP GAS CALL ISZERO DUP1 ISZERO PUSH2 0x28E9 JUMPI RETURNDATASIZE PUSH1 0x0 DUP1 RETURNDATACOPY RETURNDATASIZE PUSH1 0x0 REVERT JUMPDEST POP POP PUSH1 0x40 MLOAD PUSH4 0x25D2BC41 PUSH1 0xE1 SHL DUP2 MSTORE PUSH1 0x1 PUSH1 0x1 PUSH1 0xA0 SHL SUB DUP11 AND SWAP3 POP PUSH4 0x4BA57882 SWAP2 POP PUSH2 0x2919 SWAP1 DUP6 SWAP1 PUSH1 0x4 ADD PUSH2 0x3EA1 JUMP JUMPDEST PUSH1 0x0 PUSH1 0x40 MLOAD DUP1 DUP4 SUB DUP2 PUSH1 0x0 DUP8 DUP1 EXTCODESIZE ISZERO DUP1 ISZERO PUSH2 0x2933 JUMPI PUSH1 0x0 DUP1 REVERT JUMPDEST POP GAS CALL ISZERO DUP1 ISZERO PUSH2 0x2947 JUMPI RETURNDATASIZE PUSH1 0x0 DUP1 RETURNDATACOPY RETURNDATASIZE PUSH1 0x0 REVERT JUMPDEST POP POP PUSH1 0x40 MLOAD PUSH4 0x2577333 PUSH1 0xE2 SHL DUP2 MSTORE PUSH1 0x1 PUSH1 0x1 PUSH1 0xA0 SHL SUB DUP11 AND SWAP3 POP PUSH4 0x95DCCCC SWAP2 POP PUSH2 0x719 SWAP1 CALLER SWAP1 DUP7 SWAP1 PUSH1 0x4 ADD PUSH2 0x3961 JUMP JUMPDEST PUSH8 0xDE0B6B3A7640000 DUP2 LT ISZERO PUSH2 0x29A1 JUMPI PUSH1 0x40 MLOAD PUSH3 0x461BCD PUSH1 0xE5 SHL DUP2 MSTORE PUSH1 0x4 ADD PUSH2 0x614 SWAP1 PUSH2 0x3CE0 JUMP JUMPDEST PUSH9 0x2B5E3AF16B1880000 DUP2 GT ISZERO PUSH2 0x29CA JUMPI PUSH1 0x40 MLOAD PUSH3 0x461BCD PUSH1 0xE5 SHL DUP2 MSTORE PUSH1 0x4 ADD PUSH2 0x614 SWAP1 PUSH2 0x3B11 JUMP JUMPDEST PUSH1 0x40 MLOAD PUSH4 0x4A46C673 PUSH1 0xE1 SHL DUP2 MSTORE PUSH1 0x0 SWAP1 PUSH1 0x1 PUSH1 0x1 PUSH1 0xA0 SHL SUB DUP6 AND SWAP1 PUSH4 0x948D8CE6 SWAP1 PUSH2 0x29F9 SWAP1 DUP7 SWAP1 PUSH1 0x4 ADD PUSH2 0x3929 JUMP JUMPDEST PUSH1 0x20 PUSH1 0x40 MLOAD DUP1 DUP4 SUB DUP2 DUP7 DUP1 EXTCODESIZE ISZERO DUP1 ISZERO PUSH2 0x2A11 JUMPI PUSH1 0x0 DUP1 REVERT JUMPDEST POP GAS STATICCALL ISZERO DUP1 ISZERO PUSH2 0x2A25 JUMPI RETURNDATASIZE PUSH1 0x0 DUP1 RETURNDATACOPY RETURNDATASIZE PUSH1 0x0 REVERT JUMPDEST POP POP POP POP PUSH1 0x40 MLOAD RETURNDATASIZE PUSH1 0x1F NOT PUSH1 0x1F DUP3 ADD AND DUP3 ADD DUP1 PUSH1 0x40 MSTORE POP DUP2 ADD SWAP1 PUSH2 0x2A49 SWAP2 SWAP1 PUSH2 0x38D7 JUMP JUMPDEST SWAP1 POP DUP2 DUP2 EQ ISZERO PUSH2 0x2A59 JUMPI POP PUSH2 0x302C JUMP JUMPDEST PUSH1 0x40 MLOAD PUSH4 0xF8B2CB4F PUSH1 0xE0 SHL DUP2 MSTORE PUSH1 0x0 SWAP1 PUSH1 0x1 PUSH1 0x1 PUSH1 0xA0 SHL SUB DUP7 AND SWAP1 PUSH4 0xF8B2CB4F SWAP1 PUSH2 0x2A88 SWAP1 DUP8 SWAP1 PUSH1 0x4 ADD PUSH2 0x3929 JUMP JUMPDEST PUSH1 0x20 PUSH1 0x40 MLOAD DUP1 DUP4 SUB DUP2 DUP7 DUP1 EXTCODESIZE ISZERO DUP1 ISZERO PUSH2 0x2AA0 JUMPI PUSH1 0x0 DUP1 REVERT JUMPDEST POP GAS STATICCALL ISZERO DUP1 ISZERO PUSH2 0x2AB4 JUMPI RETURNDATASIZE PUSH1 0x0 DUP1 RETURNDATACOPY RETURNDATASIZE PUSH1 0x0 REVERT JUMPDEST POP POP POP POP PUSH1 0x40 MLOAD RETURNDATASIZE PUSH1 0x1F NOT PUSH1 0x1F DUP3 ADD AND DUP3 ADD DUP1 PUSH1 0x40 MSTORE POP DUP2 ADD SWAP1 PUSH2 0x2AD8 SWAP2 SWAP1 PUSH2 0x38D7 JUMP JUMPDEST SWAP1 POP PUSH1 0x0 DUP7 PUSH1 0x1 PUSH1 0x1 PUSH1 0xA0 SHL SUB AND PUSH4 0x18160DDD PUSH1 0x40 MLOAD DUP2 PUSH4 0xFFFFFFFF AND PUSH1 0xE0 SHL DUP2 MSTORE PUSH1 0x4 ADD PUSH1 0x20 PUSH1 0x40 MLOAD DUP1 DUP4 SUB DUP2 DUP7 DUP1 EXTCODESIZE ISZERO DUP1 ISZERO PUSH2 0x2B15 JUMPI PUSH1 0x0 DUP1 REVERT JUMPDEST POP GAS STATICCALL ISZERO DUP1 ISZERO PUSH2 0x2B29 JUMPI RETURNDATASIZE PUSH1 0x0 DUP1 RETURNDATACOPY RETURNDATASIZE PUSH1 0x0 REVERT JUMPDEST POP POP POP POP PUSH1 0x40 MLOAD RETURNDATASIZE PUSH1 0x1F NOT PUSH1 0x1F DUP3 ADD AND DUP3 ADD DUP1 PUSH1 0x40 MSTORE POP DUP2 ADD SWAP1 PUSH2 0x2B4D SWAP2 SWAP1 PUSH2 0x38D7 JUMP JUMPDEST SWAP1 POP PUSH1 0x0 DUP7 PUSH1 0x1 PUSH1 0x1 PUSH1 0xA0 SHL SUB AND PUSH4 0x936C3477 PUSH1 0x40 MLOAD DUP2 PUSH4 0xFFFFFFFF AND PUSH1 0xE0 SHL DUP2 MSTORE PUSH1 0x4 ADD PUSH1 0x20 PUSH1 0x40 MLOAD DUP1 DUP4 SUB DUP2 DUP7 DUP1 EXTCODESIZE ISZERO DUP1 ISZERO PUSH2 0x2B8A JUMPI PUSH1 0x0 DUP1 REVERT JUMPDEST POP GAS STATICCALL ISZERO DUP1 ISZERO PUSH2 0x2B9E JUMPI RETURNDATASIZE PUSH1 0x0 DUP1 RETURNDATACOPY RETURNDATASIZE PUSH1 0x0 REVERT JUMPDEST POP POP POP POP PUSH1 0x40 MLOAD RETURNDATASIZE PUSH1 0x1F NOT PUSH1 0x1F DUP3 ADD AND DUP3 ADD DUP1 PUSH1 0x40 MSTORE POP DUP2 ADD SWAP1 PUSH2 0x2BC2 SWAP2 SWAP1 PUSH2 0x38D7 JUMP JUMPDEST SWAP1 POP PUSH1 0x0 DUP1 PUSH1 0x0 DUP1 DUP8 DUP10 LT ISZERO PUSH2 0x2DF7 JUMPI PUSH2 0x2BDC DUP9 DUP11 PUSH2 0x3142 JUMP JUMPDEST SWAP2 POP PUSH2 0x2BEC DUP7 PUSH2 0x3A7 DUP5 DUP9 PUSH2 0x30B1 JUMP JUMPDEST SWAP4 POP PUSH2 0x2BFC DUP8 PUSH2 0x3A7 DUP5 DUP12 PUSH2 0x30B1 JUMP JUMPDEST SWAP3 POP PUSH2 0x2C08 DUP8 DUP5 PUSH2 0x3142 JUMP JUMPDEST SWAP1 POP PUSH5 0xE8D4A51000 DUP2 LT ISZERO PUSH2 0x2C2F JUMPI PUSH1 0x40 MLOAD PUSH3 0x461BCD PUSH1 0xE5 SHL DUP2 MSTORE PUSH1 0x4 ADD PUSH2 0x614 SWAP1 PUSH2 0x3BBC JUMP JUMPDEST PUSH1 0x40 MLOAD PUSH4 0x1FEEED51 PUSH1 0xE1 SHL DUP2 MSTORE PUSH1 0x1 PUSH1 0x1 PUSH1 0xA0 SHL SUB DUP13 AND SWAP1 PUSH4 0x3FDDDAA2 SWAP1 PUSH2 0x2C5F SWAP1 DUP14 SWAP1 DUP6 SWAP1 DUP15 SWAP1 PUSH1 0x4 ADD PUSH2 0x3994 JUMP JUMPDEST PUSH1 0x0 PUSH1 0x40 MLOAD DUP1 DUP4 SUB DUP2 PUSH1 0x0 DUP8 DUP1 EXTCODESIZE ISZERO DUP1 ISZERO PUSH2 0x2C79 JUMPI PUSH1 0x0 DUP1 REVERT JUMPDEST POP GAS CALL ISZERO DUP1 ISZERO PUSH2 0x2C8D JUMPI RETURNDATASIZE PUSH1 0x0 DUP1 RETURNDATACOPY RETURNDATASIZE PUSH1 0x0 REVERT JUMPDEST POP POP PUSH1 0x40 MLOAD PUSH4 0xA9059CBB PUSH1 0xE0 SHL DUP2 MSTORE PUSH1 0x0 SWAP3 POP PUSH1 0x1 PUSH1 0x1 PUSH1 0xA0 SHL SUB DUP14 AND SWAP2 POP PUSH4 0xA9059CBB SWAP1 PUSH2 0x2CC2 SWAP1 CALLER SWAP1 DUP9 SWAP1 PUSH1 0x4 ADD PUSH2 0x3961 JUMP JUMPDEST PUSH1 0x20 PUSH1 0x40 MLOAD DUP1 DUP4 SUB DUP2 PUSH1 0x0 DUP8 DUP1 EXTCODESIZE ISZERO DUP1 ISZERO PUSH2 0x2CDC JUMPI PUSH1 0x0 DUP1 REVERT JUMPDEST POP GAS CALL ISZERO DUP1 ISZERO PUSH2 0x2CF0 JUMPI RETURNDATASIZE PUSH1 0x0 DUP1 RETURNDATACOPY RETURNDATASIZE PUSH1 0x0 REVERT JUMPDEST POP POP POP POP PUSH1 0x40 MLOAD RETURNDATASIZE PUSH1 0x1F NOT PUSH1 0x1F DUP3 ADD AND DUP3 ADD DUP1 PUSH1 0x40 MSTORE POP DUP2 ADD SWAP1 PUSH2 0x2D14 SWAP2 SWAP1 PUSH2 0x361D JUMP JUMPDEST SWAP1 POP DUP1 PUSH2 0x2D33 JUMPI PUSH1 0x40 MLOAD PUSH3 0x461BCD PUSH1 0xE5 SHL DUP2 MSTORE PUSH1 0x4 ADD PUSH2 0x614 SWAP1 PUSH2 0x3E23 JUMP JUMPDEST PUSH1 0x40 MLOAD PUSH4 0x55C32A23 PUSH1 0xE0 SHL DUP2 MSTORE PUSH1 0x1 PUSH1 0x1 PUSH1 0xA0 SHL SUB DUP15 AND SWAP1 PUSH4 0x55C32A23 SWAP1 PUSH2 0x2D61 SWAP1 CALLER SWAP1 DUP10 SWAP1 PUSH1 0x4 ADD PUSH2 0x3961 JUMP JUMPDEST PUSH1 0x0 PUSH1 0x40 MLOAD DUP1 DUP4 SUB DUP2 PUSH1 0x0 DUP8 DUP1 EXTCODESIZE ISZERO DUP1 ISZERO PUSH2 0x2D7B JUMPI PUSH1 0x0 DUP1 REVERT JUMPDEST POP GAS CALL ISZERO DUP1 ISZERO PUSH2 0x2D8F JUMPI RETURNDATASIZE PUSH1 0x0 DUP1 RETURNDATACOPY RETURNDATASIZE PUSH1 0x0 REVERT JUMPDEST POP POP POP POP DUP13 PUSH1 0x1 PUSH1 0x1 PUSH1 0xA0 SHL SUB AND PUSH4 0x220EB760 DUP7 PUSH1 0x40 MLOAD DUP3 PUSH4 0xFFFFFFFF AND PUSH1 0xE0 SHL DUP2 MSTORE PUSH1 0x4 ADD PUSH2 0x2DBF SWAP2 SWAP1 PUSH2 0x3EA1 JUMP JUMPDEST PUSH1 0x0 PUSH1 0x40 MLOAD DUP1 DUP4 SUB DUP2 PUSH1 0x0 DUP8 DUP1 EXTCODESIZE ISZERO DUP1 ISZERO PUSH2 0x2DD9 JUMPI PUSH1 0x0 DUP1 REVERT JUMPDEST POP GAS CALL ISZERO DUP1 ISZERO PUSH2 0x2DED JUMPI RETURNDATASIZE PUSH1 0x0 DUP1 RETURNDATACOPY RETURNDATASIZE PUSH1 0x0 REVERT JUMPDEST POP POP POP POP POP PUSH2 0x3023 JUMP JUMPDEST PUSH2 0x2E01 DUP10 DUP10 PUSH2 0x3142 JUMP JUMPDEST SWAP2 POP PUSH9 0x2B5E3AF16B1880000 PUSH2 0x2E17 DUP7 DUP5 PUSH2 0x317B JUMP JUMPDEST GT ISZERO PUSH2 0x2E35 JUMPI PUSH1 0x40 MLOAD PUSH3 0x461BCD PUSH1 0xE5 SHL DUP2 MSTORE PUSH1 0x4 ADD PUSH2 0x614 SWAP1 PUSH2 0x3B39 JUMP JUMPDEST PUSH2 0x2E43 DUP7 PUSH2 0x3A7 DUP5 DUP9 PUSH2 0x30B1 JUMP JUMPDEST SWAP4 POP PUSH2 0x2E53 DUP8 PUSH2 0x3A7 DUP5 DUP12 PUSH2 0x30B1 JUMP JUMPDEST SWAP3 POP PUSH1 0x0 DUP11 PUSH1 0x1 PUSH1 0x1 PUSH1 0xA0 SHL SUB AND PUSH4 0x23B872DD CALLER ADDRESS DUP8 PUSH1 0x40 MLOAD DUP5 PUSH4 0xFFFFFFFF AND PUSH1 0xE0 SHL DUP2 MSTORE PUSH1 0x4 ADD PUSH2 0x2E87 SWAP4 SWAP3 SWAP2 SWAP1 PUSH2 0x393D JUMP JUMPDEST PUSH1 0x20 PUSH1 0x40 MLOAD DUP1 DUP4 SUB DUP2 PUSH1 0x0 DUP8 DUP1 EXTCODESIZE ISZERO DUP1 ISZERO PUSH2 0x2EA1 JUMPI PUSH1 0x0 DUP1 REVERT JUMPDEST POP GAS CALL ISZERO DUP1 ISZERO PUSH2 0x2EB5 JUMPI RETURNDATASIZE PUSH1 0x0 DUP1 RETURNDATACOPY RETURNDATASIZE PUSH1 0x0 REVERT JUMPDEST POP POP POP POP PUSH1 0x40 MLOAD RETURNDATASIZE PUSH1 0x1F NOT PUSH1 0x1F DUP3 ADD AND DUP3 ADD DUP1 PUSH1 0x40 MSTORE POP DUP2 ADD SWAP1 PUSH2 0x2ED9 SWAP2 SWAP1 PUSH2 0x361D JUMP JUMPDEST SWAP1 POP DUP1 PUSH2 0x2EF8 JUMPI PUSH1 0x40 MLOAD PUSH3 0x461BCD PUSH1 0xE5 SHL DUP2 MSTORE PUSH1 0x4 ADD PUSH2 0x614 SWAP1 PUSH2 0x3E23 JUMP JUMPDEST DUP12 PUSH1 0x1 PUSH1 0x1 PUSH1 0xA0 SHL SUB AND PUSH4 0x3FDDDAA2 DUP13 PUSH2 0x2F12 DUP12 DUP9 PUSH2 0x317B JUMP JUMPDEST DUP14 PUSH1 0x40 MLOAD DUP5 PUSH4 0xFFFFFFFF AND PUSH1 0xE0 SHL DUP2 MSTORE PUSH1 0x4 ADD PUSH2 0x2F31 SWAP4 SWAP3 SWAP2 SWAP1 PUSH2 0x3994 JUMP JUMPDEST PUSH1 0x0 PUSH1 0x40 MLOAD DUP1 DUP4 SUB DUP2 PUSH1 0x0 DUP8 DUP1 EXTCODESIZE ISZERO DUP1 ISZERO PUSH2 0x2F4B JUMPI PUSH1 0x0 DUP1 REVERT JUMPDEST POP GAS CALL ISZERO DUP1 ISZERO PUSH2 0x2F5F JUMPI RETURNDATASIZE PUSH1 0x0 DUP1 RETURNDATACOPY RETURNDATASIZE PUSH1 0x0 REVERT JUMPDEST POP POP POP POP DUP13 PUSH1 0x1 PUSH1 0x1 PUSH1 0xA0 SHL SUB AND PUSH4 0x4BA57882 DUP7 PUSH1 0x40 MLOAD DUP3 PUSH4 0xFFFFFFFF AND PUSH1 0xE0 SHL DUP2 MSTORE PUSH1 0x4 ADD PUSH2 0x2F8F SWAP2 SWAP1 PUSH2 0x3EA1 JUMP JUMPDEST PUSH1 0x0 PUSH1 0x40 MLOAD DUP1 DUP4 SUB DUP2 PUSH1 0x0 DUP8 DUP1 EXTCODESIZE ISZERO DUP1 ISZERO PUSH2 0x2FA9 JUMPI PUSH1 0x0 DUP1 REVERT JUMPDEST POP GAS CALL ISZERO DUP1 ISZERO PUSH2 0x2FBD JUMPI RETURNDATASIZE PUSH1 0x0 DUP1 RETURNDATACOPY RETURNDATASIZE PUSH1 0x0 REVERT JUMPDEST POP POP POP POP DUP13 PUSH1 0x1 PUSH1 0x1 PUSH1 0xA0 SHL SUB AND PUSH4 0x95DCCCC CALLER DUP8 PUSH1 0x40 MLOAD DUP4 PUSH4 0xFFFFFFFF AND PUSH1 0xE0 SHL DUP2 MSTORE PUSH1 0x4 ADD PUSH2 0x2FEF SWAP3 SWAP2 SWAP1 PUSH2 0x3961 JUMP JUMPDEST PUSH1 0x0 PUSH1 0x40 MLOAD DUP1 DUP4 SUB DUP2 PUSH1 0x0 DUP8 DUP1 EXTCODESIZE ISZERO DUP1 ISZERO PUSH2 0x3009 JUMPI PUSH1 0x0 DUP1 REVERT JUMPDEST POP GAS CALL ISZERO DUP1 ISZERO PUSH2 0x301D JUMPI RETURNDATASIZE PUSH1 0x0 DUP1 RETURNDATACOPY RETURNDATASIZE PUSH1 0x0 REVERT JUMPDEST POP POP POP POP POP JUMPDEST POP POP POP POP POP POP POP POP JUMPDEST POP POP POP POP JUMP JUMPDEST PUSH1 0x0 DUP3 PUSH2 0x3041 JUMPI POP PUSH1 0x0 PUSH2 0x30AB JUMP JUMPDEST DUP3 DUP3 MUL DUP3 DUP5 DUP3 DUP2 PUSH2 0x304E JUMPI INVALID JUMPDEST DIV EQ PUSH2 0x306C JUMPI PUSH1 0x40 MLOAD PUSH3 0x461BCD PUSH1 0xE5 SHL DUP2 MSTORE PUSH1 0x4 ADD PUSH2 0x614 SWAP1 PUSH2 0x3D6D JUMP JUMPDEST PUSH8 0x6F05B59D3B20000 DUP2 ADD DUP2 DUP2 LT ISZERO PUSH2 0x3097 JUMPI PUSH1 0x40 MLOAD PUSH3 0x461BCD PUSH1 0xE5 SHL DUP2 MSTORE PUSH1 0x4 ADD PUSH2 0x614 SWAP1 PUSH2 0x3D6D JUMP JUMPDEST PUSH1 0x0 PUSH8 0xDE0B6B3A7640000 DUP3 JUMPDEST DIV SWAP4 POP POP POP POP JUMPDEST SWAP3 SWAP2 POP POP JUMP JUMPDEST PUSH1 0x0 DUP2 PUSH2 0x30D0 JUMPI PUSH1 0x40 MLOAD PUSH3 0x461BCD PUSH1 0xE5 SHL DUP2 MSTORE PUSH1 0x4 ADD PUSH2 0x614 SWAP1 PUSH2 0x3DCE JUMP JUMPDEST DUP3 PUSH2 0x30DD JUMPI POP PUSH1 0x0 PUSH2 0x30AB JUMP JUMPDEST PUSH8 0xDE0B6B3A7640000 DUP4 DUP2 MUL SWAP1 DUP5 DUP3 DUP2 PUSH2 0x30F3 JUMPI INVALID JUMPDEST DIV EQ PUSH2 0x3111 JUMPI PUSH1 0x40 MLOAD PUSH3 0x461BCD PUSH1 0xE5 SHL DUP2 MSTORE PUSH1 0x4 ADD PUSH2 0x614 SWAP1 PUSH2 0x3C10 JUMP JUMPDEST PUSH1 0x2 DUP4 DIV DUP2 ADD DUP2 DUP2 LT ISZERO PUSH2 0x3137 JUMPI PUSH1 0x40 MLOAD PUSH3 0x461BCD PUSH1 0xE5 SHL DUP2 MSTORE PUSH1 0x4 ADD PUSH2 0x614 SWAP1 PUSH2 0x3C10 JUMP JUMPDEST PUSH1 0x0 DUP5 DUP3 DUP2 PUSH2 0x30A4 JUMPI INVALID JUMPDEST PUSH1 0x0 DUP1 PUSH1 0x0 PUSH2 0x3151 DUP6 DUP6 PUSH2 0x33ED JUMP JUMPDEST SWAP2 POP SWAP2 POP DUP1 ISZERO PUSH2 0x3173 JUMPI PUSH1 0x40 MLOAD PUSH3 0x461BCD PUSH1 0xE5 SHL DUP2 MSTORE PUSH1 0x4 ADD PUSH2 0x614 SWAP1 PUSH2 0x3E4C JUMP JUMPDEST POP SWAP4 SWAP3 POP POP POP JUMP JUMPDEST PUSH1 0x0 DUP3 DUP3 ADD DUP4 DUP2 LT ISZERO PUSH2 0x31A0 JUMPI PUSH1 0x40 MLOAD PUSH3 0x461BCD PUSH1 0xE5 SHL DUP2 MSTORE PUSH1 0x4 ADD PUSH2 0x614 SWAP1 PUSH2 0x3E77 JUMP JUMPDEST SWAP4 SWAP3 POP POP POP JUMP JUMPDEST PUSH1 0x40 MLOAD PUSH4 0xA9059CBB PUSH1 0xE0 SHL DUP2 MSTORE PUSH1 0x0 SWAP1 PUSH1 0x1 PUSH1 0x1 PUSH1 0xA0 SHL SUB DUP4 AND SWAP1 PUSH4 0xA9059CBB SWAP1 PUSH2 0x31D8 SWAP1 CALLER SWAP1 DUP6 SWAP1 PUSH1 0x4 ADD PUSH2 0x3961 JUMP JUMPDEST PUSH1 0x20 PUSH1 0x40 MLOAD DUP1 DUP4 SUB DUP2 PUSH1 0x0 DUP8 DUP1 EXTCODESIZE ISZERO DUP1 ISZERO PUSH2 0x31F2 JUMPI PUSH1 0x0 DUP1 REVERT JUMPDEST POP GAS CALL ISZERO DUP1 ISZERO PUSH2 0x3206 JUMPI RETURNDATASIZE PUSH1 0x0 DUP1 RETURNDATACOPY RETURNDATASIZE PUSH1 0x0 REVERT JUMPDEST POP POP POP POP PUSH1 0x40 MLOAD RETURNDATASIZE PUSH1 0x1F NOT PUSH1 0x1F DUP3 ADD AND DUP3 ADD DUP1 PUSH1 0x40 MSTORE POP DUP2 ADD SWAP1 PUSH2 0x322A SWAP2 SWAP1 PUSH2 0x361D JUMP JUMPDEST SWAP1 POP DUP1 PUSH2 0x19A2 JUMPI PUSH1 0x40 MLOAD PUSH3 0x461BCD PUSH1 0xE5 SHL DUP2 MSTORE PUSH1 0x4 ADD PUSH2 0x614 SWAP1 PUSH2 0x3D97 JUMP JUMPDEST PUSH1 0x0 DUP1 DUP5 PUSH1 0x1 PUSH1 0x1 PUSH1 0xA0 SHL SUB AND PUSH4 0xDD62ED3E ADDRESS DUP7 PUSH1 0x40 MLOAD DUP4 PUSH4 0xFFFFFFFF AND PUSH1 0xE0 SHL DUP2 MSTORE PUSH1 0x4 ADD PUSH2 0x327A SWAP3 SWAP2 SWAP1 PUSH2 0x397A JUMP JUMPDEST PUSH1 0x20 PUSH1 0x40 MLOAD DUP1 DUP4 SUB DUP2 DUP7 DUP1 EXTCODESIZE ISZERO DUP1 ISZERO PUSH2 0x3292 JUMPI PUSH1 0x0 DUP1 REVERT JUMPDEST POP GAS STATICCALL ISZERO DUP1 ISZERO PUSH2 0x32A6 JUMPI RETURNDATASIZE PUSH1 0x0 DUP1 RETURNDATACOPY RETURNDATASIZE PUSH1 0x0 REVERT JUMPDEST POP POP POP POP PUSH1 0x40 MLOAD RETURNDATASIZE PUSH1 0x1F NOT PUSH1 0x1F DUP3 ADD AND DUP3 ADD DUP1 PUSH1 0x40 MSTORE POP DUP2 ADD SWAP1 PUSH2 0x32CA SWAP2 SWAP1 PUSH2 0x38D7 JUMP JUMPDEST SWAP1 POP DUP3 DUP2 EQ ISZERO PUSH2 0x32DE JUMPI PUSH1 0x1 SWAP2 POP POP PUSH2 0x31A0 JUMP JUMPDEST DUP1 ISZERO PUSH2 0x336D JUMPI PUSH1 0x40 MLOAD PUSH4 0x95EA7B3 PUSH1 0xE0 SHL DUP2 MSTORE PUSH1 0x1 PUSH1 0x1 PUSH1 0xA0 SHL SUB DUP7 AND SWAP1 PUSH4 0x95EA7B3 SWAP1 PUSH2 0x3313 SWAP1 DUP8 SWAP1 PUSH1 0x0 SWAP1 PUSH1 0x4 ADD PUSH2 0x3961 JUMP JUMPDEST PUSH1 0x20 PUSH1 0x40 MLOAD DUP1 DUP4 SUB DUP2 PUSH1 0x0 DUP8 DUP1 EXTCODESIZE ISZERO DUP1 ISZERO PUSH2 0x332D JUMPI PUSH1 0x0 DUP1 REVERT JUMPDEST POP GAS CALL ISZERO DUP1 ISZERO PUSH2 0x3341 JUMPI RETURNDATASIZE PUSH1 0x0 DUP1 RETURNDATACOPY RETURNDATASIZE PUSH1 0x0 REVERT JUMPDEST POP POP POP POP PUSH1 0x40 MLOAD RETURNDATASIZE PUSH1 0x1F NOT PUSH1 0x1F DUP3 ADD AND DUP3 ADD DUP1 PUSH1 0x40 MSTORE POP DUP2 ADD SWAP1 PUSH2 0x3365 SWAP2 SWAP1 PUSH2 0x361D JUMP JUMPDEST SWAP2 POP POP PUSH2 0x31A0 JUMP JUMPDEST PUSH1 0x40 MLOAD PUSH4 0x95EA7B3 PUSH1 0xE0 SHL DUP2 MSTORE PUSH1 0x1 PUSH1 0x1 PUSH1 0xA0 SHL SUB DUP7 AND SWAP1 PUSH4 0x95EA7B3 SWAP1 PUSH2 0x339B SWAP1 DUP8 SWAP1 DUP8 SWAP1 PUSH1 0x4 ADD PUSH2 0x3961 JUMP JUMPDEST PUSH1 0x20 PUSH1 0x40 MLOAD DUP1 DUP4 SUB DUP2 PUSH1 0x0 DUP8 DUP1 EXTCODESIZE ISZERO DUP1 ISZERO PUSH2 0x33B5 JUMPI PUSH1 0x0 DUP1 REVERT JUMPDEST POP GAS CALL ISZERO DUP1 ISZERO PUSH2 0x33C9 JUMPI RETURNDATASIZE PUSH1 0x0 DUP1 RETURNDATACOPY RETURNDATASIZE PUSH1 0x0 REVERT JUMPDEST POP POP POP POP PUSH1 0x40 MLOAD RETURNDATASIZE PUSH1 0x1F NOT PUSH1 0x1F DUP3 ADD AND DUP3 ADD DUP1 PUSH1 0x40 MSTORE POP DUP2 ADD SWAP1 PUSH2 0x1177 SWAP2 SWAP1 PUSH2 0x361D JUMP JUMPDEST PUSH1 0x0 DUP1 DUP4 DUP4 GT PUSH2 0x3403 JUMPI POP POP DUP1 DUP3 SUB PUSH1 0x0 PUSH2 0x340B JUMP JUMPDEST POP POP DUP2 DUP2 SUB PUSH1 0x1 JUMPDEST SWAP3 POP SWAP3 SWAP1 POP JUMP JUMPDEST DUP3 DUP1 SLOAD DUP3 DUP3 SSTORE SWAP1 PUSH1 0x0 MSTORE PUSH1 0x20 PUSH1 0x0 KECCAK256 SWAP1 DUP2 ADD SWAP3 DUP3 ISZERO PUSH2 0x344D JUMPI SWAP2 PUSH1 0x20 MUL DUP3 ADD JUMPDEST DUP3 DUP2 GT ISZERO PUSH2 0x344D JUMPI DUP3 MLOAD DUP3 SSTORE SWAP2 PUSH1 0x20 ADD SWAP2 SWAP1 PUSH1 0x1 ADD SWAP1 PUSH2 0x3432 JUMP JUMPDEST POP PUSH2 0x3459 SWAP3 SWAP2 POP PUSH2 0x3498 JUMP JUMPDEST POP SWAP1 JUMP JUMPDEST DUP3 DUP1 SLOAD DUP3 DUP3 SSTORE SWAP1 PUSH1 0x0 MSTORE PUSH1 0x20 PUSH1 0x0 KECCAK256 SWAP1 DUP2 ADD SWAP3 DUP3 ISZERO PUSH2 0x344D JUMPI SWAP2 PUSH1 0x20 MUL DUP3 ADD JUMPDEST DUP3 DUP2 GT ISZERO PUSH2 0x344D JUMPI DUP3 CALLDATALOAD DUP3 SSTORE SWAP2 PUSH1 0x20 ADD SWAP2 SWAP1 PUSH1 0x1 ADD SWAP1 PUSH2 0x347D JUMP JUMPDEST JUMPDEST DUP1 DUP3 GT ISZERO PUSH2 0x3459 JUMPI PUSH1 0x0 DUP2 SSTORE PUSH1 0x1 ADD PUSH2 0x3499 JUMP JUMPDEST DUP1 MLOAD PUSH2 0x30AB DUP2 PUSH2 0x3F26 JUMP JUMPDEST PUSH1 0x0 DUP1 DUP4 PUSH1 0x1F DUP5 ADD SLT PUSH2 0x34C9 JUMPI DUP2 DUP3 REVERT JUMPDEST POP DUP2 CALLDATALOAD PUSH8 0xFFFFFFFFFFFFFFFF DUP2 GT ISZERO PUSH2 0x34E0 JUMPI DUP2 DUP3 REVERT JUMPDEST PUSH1 0x20 DUP4 ADD SWAP2 POP DUP4 PUSH1 0x20 DUP1 DUP4 MUL DUP6 ADD ADD GT ISZERO PUSH2 0x340B JUMPI PUSH1 0x0 DUP1 REVERT JUMPDEST PUSH1 0x0 PUSH1 0x20 DUP3 DUP5 SUB SLT ISZERO PUSH2 0x350B JUMPI DUP1 DUP2 REVERT JUMPDEST DUP2 CALLDATALOAD PUSH2 0x31A0 DUP2 PUSH2 0x3F26 JUMP JUMPDEST PUSH1 0x0 PUSH1 0x20 DUP3 DUP5 SUB SLT ISZERO PUSH2 0x3527 JUMPI DUP1 DUP2 REVERT JUMPDEST DUP2 MLOAD PUSH2 0x31A0 DUP2 PUSH2 0x3F26 JUMP JUMPDEST PUSH1 0x0 DUP1 PUSH1 0x20 DUP4 DUP6 SUB SLT ISZERO PUSH2 0x3544 JUMPI DUP1 DUP2 REVERT JUMPDEST DUP3 CALLDATALOAD PUSH8 0xFFFFFFFFFFFFFFFF DUP2 GT ISZERO PUSH2 0x355A JUMPI DUP2 DUP3 REVERT JUMPDEST PUSH2 0x3566 DUP6 DUP3 DUP7 ADD PUSH2 0x34B8 JUMP JUMPDEST SWAP1 SWAP7 SWAP1 SWAP6 POP SWAP4 POP POP POP POP JUMP JUMPDEST PUSH1 0x0 PUSH1 0x20 DUP1 DUP4 DUP6 SUB SLT ISZERO PUSH2 0x3584 JUMPI DUP2 DUP3 REVERT JUMPDEST DUP3 MLOAD PUSH8 0xFFFFFFFFFFFFFFFF DUP1 DUP3 GT ISZERO PUSH2 0x359B JUMPI DUP4 DUP5 REVERT JUMPDEST DUP2 DUP6 ADD SWAP2 POP DUP6 PUSH1 0x1F DUP4 ADD SLT PUSH2 0x35AE JUMPI DUP4 DUP5 REVERT JUMPDEST DUP2 MLOAD DUP2 DUP2 GT ISZERO PUSH2 0x35BC JUMPI DUP5 DUP6 REVERT JUMPDEST DUP4 DUP2 MUL SWAP2 POP PUSH2 0x35CC DUP5 DUP4 ADD PUSH2 0x3EFF JUMP JUMPDEST DUP2 DUP2 MSTORE DUP5 DUP2 ADD SWAP1 DUP5 DUP7 ADD DUP5 DUP7 ADD DUP8 ADD DUP11 LT ISZERO PUSH2 0x35E6 JUMPI DUP8 DUP9 REVERT JUMPDEST DUP8 SWAP6 POP JUMPDEST DUP4 DUP7 LT ISZERO PUSH2 0x3610 JUMPI PUSH2 0x35FC DUP11 DUP3 PUSH2 0x34AD JUMP JUMPDEST DUP4 MSTORE PUSH1 0x1 SWAP6 SWAP1 SWAP6 ADD SWAP5 SWAP2 DUP7 ADD SWAP2 DUP7 ADD PUSH2 0x35EA JUMP JUMPDEST POP SWAP9 SWAP8 POP POP POP POP POP POP POP POP JUMP JUMPDEST PUSH1 0x0 PUSH1 0x20 DUP3 DUP5 SUB SLT ISZERO PUSH2 0x362E JUMPI DUP1 DUP2 REVERT JUMPDEST DUP2 MLOAD DUP1 ISZERO ISZERO DUP2 EQ PUSH2 0x31A0 JUMPI DUP2 DUP3 REVERT JUMPDEST PUSH1 0x0 DUP1 PUSH1 0x0 DUP1 PUSH1 0x0 PUSH1 0xA0 DUP7 DUP9 SUB SLT ISZERO PUSH2 0x3654 JUMPI DUP1 DUP2 REVERT JUMPDEST DUP6 CALLDATALOAD PUSH2 0x365F DUP2 PUSH2 0x3F26 JUMP JUMPDEST SWAP5 POP PUSH1 0x20 DUP7 ADD CALLDATALOAD PUSH2 0x366F DUP2 PUSH2 0x3F26 JUMP JUMPDEST SWAP5 SWAP8 SWAP5 SWAP7 POP POP POP POP PUSH1 0x40 DUP4 ADD CALLDATALOAD SWAP3 PUSH1 0x60 DUP2 ADD CALLDATALOAD SWAP3 PUSH1 0x80 SWAP1 SWAP2 ADD CALLDATALOAD SWAP2 POP JUMP JUMPDEST PUSH1 0x0 DUP1 PUSH1 0x40 DUP4 DUP6 SUB SLT ISZERO PUSH2 0x369F JUMPI DUP2 DUP3 REVERT JUMPDEST DUP3 CALLDATALOAD PUSH2 0x36AA DUP2 PUSH2 0x3F26 JUMP JUMPDEST SWAP5 PUSH1 0x20 SWAP4 SWAP1 SWAP4 ADD CALLDATALOAD SWAP4 POP POP POP JUMP JUMPDEST PUSH1 0x0 DUP1 PUSH1 0x0 DUP1 PUSH1 0x0 DUP1 PUSH1 0x0 PUSH1 0xC0 DUP9 DUP11 SUB SLT ISZERO PUSH2 0x36D2 JUMPI DUP2 DUP3 REVERT JUMPDEST DUP8 CALLDATALOAD PUSH2 0x36DD DUP2 PUSH2 0x3F26 JUMP JUMPDEST SWAP7 POP PUSH1 0x20 DUP9 ADD CALLDATALOAD SWAP6 POP PUSH1 0x40 DUP9 ADD CALLDATALOAD PUSH8 0xFFFFFFFFFFFFFFFF DUP2 GT ISZERO PUSH2 0x36FF JUMPI DUP3 DUP4 REVERT JUMPDEST PUSH2 0x370B DUP11 DUP3 DUP12 ADD PUSH2 0x34B8 JUMP JUMPDEST SWAP9 SWAP12 SWAP8 SWAP11 POP SWAP9 PUSH1 0x60 DUP2 ADD CALLDATALOAD SWAP8 PUSH1 0x80 DUP3 ADD CALLDATALOAD SWAP8 POP PUSH1 0xA0 SWAP1 SWAP2 ADD CALLDATALOAD SWAP6 POP SWAP4 POP POP POP POP JUMP JUMPDEST PUSH1 0x0 DUP1 PUSH1 0x0 PUSH1 0x60 DUP5 DUP7 SUB SLT ISZERO PUSH2 0x3741 JUMPI DUP3 DUP4 REVERT JUMPDEST DUP4 CALLDATALOAD PUSH2 0x374C DUP2 PUSH2 0x3F26 JUMP JUMPDEST SWAP3 POP PUSH1 0x20 DUP5 ADD CALLDATALOAD PUSH2 0x375C DUP2 PUSH2 0x3F26 JUMP JUMPDEST SWAP2 POP PUSH1 0x40 DUP5 ADD CALLDATALOAD PUSH2 0x376C DUP2 PUSH2 0x3F26 JUMP JUMPDEST DUP1 SWAP2 POP POP SWAP3 POP SWAP3 POP SWAP3 JUMP JUMPDEST PUSH1 0x0 DUP1 PUSH1 0x0 DUP1 PUSH1 0x80 DUP6 DUP8 SUB SLT ISZERO PUSH2 0x378C JUMPI DUP4 DUP5 REVERT JUMPDEST DUP5 CALLDATALOAD PUSH2 0x3797 DUP2 PUSH2 0x3F26 JUMP JUMPDEST SWAP4 POP PUSH1 0x20 DUP6 ADD CALLDATALOAD PUSH2 0x37A7 DUP2 PUSH2 0x3F26 JUMP JUMPDEST SWAP3 POP PUSH1 0x40 DUP6 ADD CALLDATALOAD PUSH2 0x37B7 DUP2 PUSH2 0x3F26 JUMP JUMPDEST SWAP4 SWAP7 SWAP3 SWAP6 POP SWAP3 SWAP4 PUSH1 0x60 ADD CALLDATALOAD SWAP3 POP POP JUMP JUMPDEST PUSH1 0x0 DUP1 PUSH1 0x0 DUP1 PUSH1 0x0 PUSH1 0xA0 DUP7 DUP9 SUB SLT ISZERO PUSH2 0x37DE JUMPI DUP3 DUP4 REVERT JUMPDEST DUP6 CALLDATALOAD PUSH2 0x37E9 DUP2 PUSH2 0x3F26 JUMP JUMPDEST SWAP5 POP PUSH1 0x20 DUP7 ADD CALLDATALOAD PUSH2 0x37F9 DUP2 PUSH2 0x3F26 JUMP JUMPDEST SWAP4 POP PUSH1 0x40 DUP7 ADD CALLDATALOAD PUSH2 0x3809 DUP2 PUSH2 0x3F26 JUMP JUMPDEST SWAP5 SWAP8 SWAP4 SWAP7 POP SWAP4 SWAP5 PUSH1 0x60 DUP2 ADD CALLDATALOAD SWAP5 POP PUSH1 0x80 ADD CALLDATALOAD SWAP3 SWAP2 POP POP JUMP JUMPDEST PUSH1 0x0 DUP1 PUSH1 0x0 DUP1 PUSH1 0x0 PUSH1 0x80 DUP7 DUP9 SUB SLT ISZERO PUSH2 0x3838 JUMPI DUP3 DUP4 REVERT JUMPDEST DUP6 CALLDATALOAD PUSH2 0x3843 DUP2 PUSH2 0x3F26 JUMP JUMPDEST SWAP5 POP PUSH1 0x20 DUP7 ADD CALLDATALOAD PUSH2 0x3853 DUP2 PUSH2 0x3F26 JUMP JUMPDEST SWAP4 POP PUSH1 0x40 DUP7 ADD CALLDATALOAD SWAP3 POP PUSH1 0x60 DUP7 ADD CALLDATALOAD PUSH8 0xFFFFFFFFFFFFFFFF DUP2 GT ISZERO PUSH2 0x3875 JUMPI DUP2 DUP3 REVERT JUMPDEST PUSH2 0x3881 DUP9 DUP3 DUP10 ADD PUSH2 0x34B8 JUMP JUMPDEST SWAP7 SWAP10 SWAP6 SWAP9 POP SWAP4 SWAP7 POP SWAP3 SWAP5 SWAP4 SWAP3 POP POP POP JUMP JUMPDEST PUSH1 0x0 DUP1 PUSH1 0x0 DUP1 PUSH1 0x80 DUP6 DUP8 SUB SLT ISZERO PUSH2 0x38A7 JUMPI DUP2 DUP3 REVERT JUMPDEST DUP5 CALLDATALOAD PUSH2 0x38B2 DUP2 PUSH2 0x3F26 JUMP JUMPDEST SWAP4 POP PUSH1 0x20 DUP6 ADD CALLDATALOAD PUSH2 0x38C2 DUP2 PUSH2 0x3F26 JUMP JUMPDEST SWAP4 SWAP7 SWAP4 SWAP6 POP POP POP POP PUSH1 0x40 DUP3 ADD CALLDATALOAD SWAP2 PUSH1 0x60 ADD CALLDATALOAD SWAP1 JUMP JUMPDEST PUSH1 0x0 PUSH1 0x20 DUP3 DUP5 SUB SLT ISZERO PUSH2 0x38E8 JUMPI DUP1 DUP2 REVERT JUMPDEST POP MLOAD SWAP2 SWAP1 POP JUMP JUMPDEST PUSH1 0x0 DUP2 MLOAD DUP1 DUP5 MSTORE PUSH1 0x20 DUP1 DUP6 ADD SWAP5 POP DUP1 DUP5 ADD DUP4 JUMPDEST DUP4 DUP2 LT ISZERO PUSH2 0x391E JUMPI DUP2 MLOAD DUP8 MSTORE SWAP6 DUP3 ADD SWAP6 SWAP1 DUP3 ADD SWAP1 PUSH1 0x1 ADD PUSH2 0x3902 JUMP JUMPDEST POP SWAP5 SWAP6 SWAP5 POP POP POP POP POP JUMP JUMPDEST PUSH1 0x1 PUSH1 0x1 PUSH1 0xA0 SHL SUB SWAP2 SWAP1 SWAP2 AND DUP2 MSTORE PUSH1 0x20 ADD SWAP1 JUMP JUMPDEST PUSH1 0x1 PUSH1 0x1 PUSH1 0xA0 SHL SUB SWAP4 DUP5 AND DUP2 MSTORE SWAP2 SWAP1 SWAP3 AND PUSH1 0x20 DUP3 ADD MSTORE PUSH1 0x40 DUP2 ADD SWAP2 SWAP1 SWAP2 MSTORE PUSH1 0x60 ADD SWAP1 JUMP JUMPDEST PUSH1 0x1 PUSH1 0x1 PUSH1 0xA0 SHL SUB SWAP3 SWAP1 SWAP3 AND DUP3 MSTORE PUSH1 0x20 DUP3 ADD MSTORE PUSH1 0x40 ADD SWAP1 JUMP JUMPDEST PUSH1 0x1 PUSH1 0x1 PUSH1 0xA0 SHL SUB SWAP3 DUP4 AND DUP2 MSTORE SWAP2 AND PUSH1 0x20 DUP3 ADD MSTORE PUSH1 0x40 ADD SWAP1 JUMP JUMPDEST PUSH1 0x1 PUSH1 0x1 PUSH1 0xA0 SHL SUB SWAP4 SWAP1 SWAP4 AND DUP4 MSTORE PUSH1 0x20 DUP4 ADD SWAP2 SWAP1 SWAP2 MSTORE PUSH1 0x40 DUP3 ADD MSTORE PUSH1 0x60 ADD SWAP1 JUMP JUMPDEST PUSH1 0x0 PUSH1 0x20 DUP3 MSTORE PUSH2 0x31A0 PUSH1 0x20 DUP4 ADD DUP5 PUSH2 0x38EF JUMP JUMPDEST PUSH1 0x20 DUP1 DUP3 MSTORE PUSH1 0x13 SWAP1 DUP3 ADD MSTORE PUSH19 0x11549497D393D7D513D2D15397D0D3D3535255 PUSH1 0x6A SHL PUSH1 0x40 DUP3 ADD MSTORE PUSH1 0x60 ADD SWAP1 JUMP JUMPDEST PUSH1 0x20 DUP1 DUP3 MSTORE PUSH1 0x1E SWAP1 DUP3 ADD MSTORE PUSH32 0x4552525F4752414455414C5F5550444154455F54494D455F54524156454C0000 PUSH1 0x40 DUP3 ADD MSTORE PUSH1 0x60 ADD SWAP1 JUMP JUMPDEST PUSH1 0x20 DUP1 DUP3 MSTORE DUP2 DUP2 ADD MSTORE PUSH32 0x4552525F5745494748545F4348414E47455F54494D455F42454C4F575F4D494E PUSH1 0x40 DUP3 ADD MSTORE PUSH1 0x60 ADD SWAP1 JUMP JUMPDEST PUSH1 0x20 DUP1 DUP3 MSTORE PUSH1 0x1A SWAP1 DUP3 ADD MSTORE PUSH32 0x4552525F53544152545F574549474854535F4D49534D41544348000000000000 PUSH1 0x40 DUP3 ADD MSTORE PUSH1 0x60 ADD SWAP1 JUMP JUMPDEST PUSH1 0x20 DUP1 DUP3 MSTORE PUSH1 0xC SWAP1 DUP3 ADD MSTORE PUSH12 0x11549497D254D7D093D55391 PUSH1 0xA2 SHL PUSH1 0x40 DUP3 ADD MSTORE PUSH1 0x60 ADD SWAP1 JUMP JUMPDEST PUSH1 0x20 DUP1 DUP3 MSTORE PUSH1 0x10 SWAP1 DUP3 ADD MSTORE PUSH16 0x4552525F4D41585F494E5F524154494F PUSH1 0x80 SHL PUSH1 0x40 DUP3 ADD MSTORE PUSH1 0x60 ADD SWAP1 JUMP JUMPDEST PUSH1 0x20 DUP1 DUP3 MSTORE PUSH1 0xF SWAP1 DUP3 ADD MSTORE PUSH15 0x8AA4A4BE9A82A890BE82A0A0A49EB PUSH1 0x8B SHL PUSH1 0x40 DUP3 ADD MSTORE PUSH1 0x60 ADD SWAP1 JUMP JUMPDEST PUSH1 0x20 DUP1 DUP3 MSTORE PUSH1 0xE SWAP1 DUP3 ADD MSTORE PUSH14 0x11549497D3505617D5D15251D215 PUSH1 0x92 SHL PUSH1 0x40 DUP3 ADD MSTORE PUSH1 0x60 ADD SWAP1 JUMP JUMPDEST PUSH1 0x20 DUP1 DUP3 MSTORE PUSH1 0x14 SWAP1 DUP3 ADD MSTORE PUSH20 0x11549497D3505617D513D5105317D5D15251D215 PUSH1 0x62 SHL PUSH1 0x40 DUP3 ADD MSTORE PUSH1 0x60 ADD SWAP1 JUMP JUMPDEST PUSH1 0x20 DUP1 DUP3 MSTORE PUSH1 0x14 SWAP1 DUP3 ADD MSTORE PUSH20 0x8AA4A4BE829A9EAA9CA8A6BE9A92A69A82A8869 PUSH1 0x63 SHL PUSH1 0x40 DUP3 ADD MSTORE PUSH1 0x60 ADD SWAP1 JUMP JUMPDEST PUSH1 0x20 DUP1 DUP3 MSTORE PUSH1 0xD SWAP1 DUP3 ADD MSTORE PUSH13 0x11549497D31253525517D3D555 PUSH1 0x9A SHL PUSH1 0x40 DUP3 ADD MSTORE PUSH1 0x60 ADD SWAP1 JUMP JUMPDEST PUSH1 0x20 DUP1 DUP3 MSTORE PUSH1 0xF SWAP1 DUP3 ADD MSTORE PUSH15 0x4552525F4D494E5F42414C414E4345 PUSH1 0x88 SHL PUSH1 0x40 DUP3 ADD MSTORE PUSH1 0x60 ADD SWAP1 JUMP JUMPDEST PUSH1 0x20 DUP1 DUP3 MSTORE PUSH1 0x11 SWAP1 DUP3 ADD MSTORE PUSH17 0x11549497D0D0539517D413D2D157D65155 PUSH1 0x7A SHL PUSH1 0x40 DUP3 ADD MSTORE PUSH1 0x60 ADD SWAP1 JUMP JUMPDEST PUSH1 0x20 DUP1 DUP3 MSTORE PUSH1 0x10 SWAP1 DUP3 ADD MSTORE PUSH16 0x11549497D1125597D253951154939053 PUSH1 0x82 SHL PUSH1 0x40 DUP3 ADD MSTORE PUSH1 0x60 ADD SWAP1 JUMP JUMPDEST PUSH1 0x20 DUP1 DUP3 MSTORE PUSH1 0xC SWAP1 DUP3 ADD MSTORE PUSH12 0x22A9292FA624A6A4AA2FA4A7 PUSH1 0xA1 SHL PUSH1 0x40 DUP3 ADD MSTORE PUSH1 0x60 ADD SWAP1 JUMP JUMPDEST PUSH1 0x20 DUP1 DUP3 MSTORE PUSH1 0x14 SWAP1 DUP3 ADD MSTORE PUSH20 0x22A9292FABA2A4A3A42A2FA122A627ABAFA6A4A7 PUSH1 0x61 SHL PUSH1 0x40 DUP3 ADD MSTORE PUSH1 0x60 ADD SWAP1 JUMP JUMPDEST PUSH1 0x20 DUP1 DUP3 MSTORE PUSH1 0x11 SWAP1 DUP3 ADD MSTORE PUSH17 0x4552525F4D41585F4F55545F524154494F PUSH1 0x78 SHL PUSH1 0x40 DUP3 ADD MSTORE PUSH1 0x60 ADD SWAP1 JUMP JUMPDEST PUSH1 0x20 DUP1 DUP3 MSTORE PUSH1 0xD SWAP1 DUP3 ADD MSTORE PUSH13 0x11549497D393D517D093D55391 PUSH1 0x9A SHL PUSH1 0x40 DUP3 ADD MSTORE PUSH1 0x60 ADD SWAP1 JUMP JUMPDEST PUSH1 0x20 DUP1 DUP3 MSTORE PUSH1 0xE SWAP1 DUP3 ADD MSTORE PUSH14 0x11549497D3525397D5D15251D215 PUSH1 0x92 SHL PUSH1 0x40 DUP3 ADD MSTORE PUSH1 0x60 ADD SWAP1 JUMP JUMPDEST PUSH1 0x20 DUP1 DUP3 MSTORE PUSH1 0x14 SWAP1 DUP3 ADD MSTORE PUSH20 0x8AA4A4BEAE8A928E90A8BE82849EAC8ABE9A82B PUSH1 0x63 SHL PUSH1 0x40 DUP3 ADD MSTORE PUSH1 0x60 ADD SWAP1 JUMP JUMPDEST PUSH1 0x20 DUP1 DUP3 MSTORE PUSH1 0x1B SWAP1 DUP3 ADD MSTORE PUSH32 0x4552525F54494D454C4F434B5F5354494C4C5F434F554E54494E470000000000 PUSH1 0x40 DUP3 ADD MSTORE PUSH1 0x60 ADD SWAP1 JUMP JUMPDEST PUSH1 0x20 DUP1 DUP3 MSTORE PUSH1 0x10 SWAP1 DUP3 ADD MSTORE PUSH16 0x4552525F4D554C5F4F564552464C4F57 PUSH1 0x80 SHL PUSH1 0x40 DUP3 ADD MSTORE PUSH1 0x60 ADD SWAP1 JUMP JUMPDEST PUSH1 0x20 DUP1 DUP3 MSTORE PUSH1 0x17 SWAP1 DUP3 ADD MSTORE PUSH32 0x4552525F4E4F4E434F4E464F524D494E475F544F4B454E000000000000000000 PUSH1 0x40 DUP3 ADD MSTORE PUSH1 0x60 ADD SWAP1 JUMP JUMPDEST PUSH1 0x20 DUP1 DUP3 MSTORE PUSH1 0xC SWAP1 DUP3 ADD MSTORE PUSH12 0x4552525F4449565F5A45524F PUSH1 0xA0 SHL PUSH1 0x40 DUP3 ADD MSTORE PUSH1 0x60 ADD SWAP1 JUMP JUMPDEST PUSH1 0x20 DUP1 DUP3 MSTORE PUSH1 0x15 SWAP1 DUP3 ADD MSTORE PUSH21 0x22A9292FA120A620A721A2AFA122A627ABAFA6A4A7 PUSH1 0x59 SHL PUSH1 0x40 DUP3 ADD MSTORE PUSH1 0x60 ADD SWAP1 JUMP JUMPDEST PUSH1 0x20 DUP1 DUP3 MSTORE PUSH1 0xF SWAP1 DUP3 ADD MSTORE PUSH15 0x4552525F45524332305F46414C5345 PUSH1 0x88 SHL PUSH1 0x40 DUP3 ADD MSTORE PUSH1 0x60 ADD SWAP1 JUMP JUMPDEST PUSH1 0x20 DUP1 DUP3 MSTORE PUSH1 0x11 SWAP1 DUP3 ADD MSTORE PUSH17 0x4552525F5355425F554E444552464C4F57 PUSH1 0x78 SHL PUSH1 0x40 DUP3 ADD MSTORE PUSH1 0x60 ADD SWAP1 JUMP JUMPDEST PUSH1 0x20 DUP1 DUP3 MSTORE PUSH1 0x10 SWAP1 DUP3 ADD MSTORE PUSH16 0x4552525F4144445F4F564552464C4F57 PUSH1 0x80 SHL PUSH1 0x40 DUP3 ADD MSTORE PUSH1 0x60 ADD SWAP1 JUMP JUMPDEST SWAP1 DUP2 MSTORE PUSH1 0x20 ADD SWAP1 JUMP JUMPDEST SWAP2 DUP3 MSTORE PUSH1 0x20 DUP3 ADD MSTORE PUSH1 0x40 ADD SWAP1 JUMP JUMPDEST PUSH1 0x0 DUP5 DUP3 MSTORE DUP4 PUSH1 0x20 DUP4 ADD MSTORE PUSH1 0x60 PUSH1 0x40 DUP4 ADD MSTORE PUSH2 0x1177 PUSH1 0x60 DUP4 ADD DUP5 PUSH2 0x38EF JUMP JUMPDEST SWAP6 DUP7 MSTORE PUSH1 0x20 DUP7 ADD SWAP5 SWAP1 SWAP5 MSTORE PUSH1 0x40 DUP6 ADD SWAP3 SWAP1 SWAP3 MSTORE PUSH1 0x60 DUP5 ADD MSTORE PUSH1 0x80 DUP4 ADD MSTORE PUSH1 0xA0 DUP3 ADD MSTORE PUSH1 0xC0 ADD SWAP1 JUMP JUMPDEST PUSH1 0x40 MLOAD DUP2 DUP2 ADD PUSH8 0xFFFFFFFFFFFFFFFF DUP2 GT DUP3 DUP3 LT OR ISZERO PUSH2 0x3F1E JUMPI PUSH1 0x0 DUP1 REVERT JUMPDEST PUSH1 0x40 MSTORE SWAP2 SWAP1 POP JUMP JUMPDEST PUSH1 0x1 PUSH1 0x1 PUSH1 0xA0 SHL SUB DUP2 AND DUP2 EQ PUSH2 0xA4F JUMPI PUSH1 0x0 DUP1 REVERT INVALID LOG2 PUSH5 0x6970667358 0x22 SLT KECCAK256 SWAP12 0xD9 SWAP7 MSTORE MSTORE8 0xB0 0xB7 0xDF 0x25 GASPRICE PUSH23 0xBD6C96CD41E8911EDCBCD97F58D6F25D45459D019C6473 PUSH16 0x6C634300060C00330000000000000000 "
        },
        "methodIdentifiers": {
          "applyAddToken(IConfigurableRightsPool,IBPool,uint256,SmartPoolManager.NewTokenParams storage)": "efa58774",
          "commitAddToken(IBPool,address,uint256,uint256,SmartPoolManager.NewTokenParams storage)": "b489ec19",
          "exitPool(IConfigurableRightsPool,IBPool,uint256,uint256[])": "5471c3e4",
          "exitswapExternAmountOut(IConfigurableRightsPool,IBPool,address,uint256,uint256)": "724a2d53",
          "exitswapPoolAmountIn(IConfigurableRightsPool,IBPool,address,uint256,uint256)": "d505a94e",
          "joinPool(IConfigurableRightsPool,IBPool,uint256,uint256[])": "a1925f1d",
          "joinswapExternAmountIn(IConfigurableRightsPool,IBPool,address,uint256,uint256)": "df90de0b",
          "joinswapPoolAmountOut(IConfigurableRightsPool,IBPool,address,uint256,uint256)": "6a6dc6e7",
          "pokeWeights(IBPool,SmartPoolManager.GradualUpdateParams storage)": "82495b45",
          "removeToken(IConfigurableRightsPool,IBPool,address)": "0970e47f",
          "updateWeight(IConfigurableRightsPool,IBPool,address,uint256)": "f544aa1c",
          "updateWeightsGradually(IBPool,SmartPoolManager.GradualUpdateParams storage,uint256[],uint256,uint256,uint256)": "13b8bf24",
          "verifyTokenCompliance(address)": "1c1af136",
          "verifyTokenCompliance(address[])": "77d44349"
        }
      }
    }
  }
}