{
  "contracts/rain-protocol/contracts/libraries/TierUtil.sol": {
    "TierUtil": {
      "abi": [
        {
          "inputs": [],
          "name": "UNINITIALIZED",
          "outputs": [
            {
              "internalType": "uint256",
              "name": "",
              "type": "uint256"
            }
          ],
          "stateMutability": "view",
          "type": "function"
        }
      ],
      "evm": {
        "bytecode": {
          "linkReferences": {},
          "object": "608c610024600b82828239805160001a607314601757fe5b30600052607381538281f3fe730000000000000000000000000000000000000000301460806040526004361060335760003560e01c806381e45d9a146038575b600080fd5b603e6050565b60408051918252519081900360200190f35b6000198156fea2646970667358221220b1e3287d0d0a12cc3468474d7c6e797d643f024a541aa699401016f634657f2c64736f6c634300060c0033",
          "opcodes": "PUSH1 0x8C PUSH2 0x24 PUSH1 0xB DUP3 DUP3 DUP3 CODECOPY DUP1 MLOAD PUSH1 0x0 BYTE PUSH1 0x73 EQ PUSH1 0x17 JUMPI INVALID JUMPDEST ADDRESS PUSH1 0x0 MSTORE PUSH1 0x73 DUP2 MSTORE8 DUP3 DUP2 RETURN INVALID PUSH20 0x0 ADDRESS EQ PUSH1 0x80 PUSH1 0x40 MSTORE PUSH1 0x4 CALLDATASIZE LT PUSH1 0x33 JUMPI PUSH1 0x0 CALLDATALOAD PUSH1 0xE0 SHR DUP1 PUSH4 0x81E45D9A EQ PUSH1 0x38 JUMPI JUMPDEST PUSH1 0x0 DUP1 REVERT JUMPDEST PUSH1 0x3E PUSH1 0x50 JUMP JUMPDEST PUSH1 0x40 DUP1 MLOAD SWAP2 DUP3 MSTORE MLOAD SWAP1 DUP2 SWAP1 SUB PUSH1 0x20 ADD SWAP1 RETURN JUMPDEST PUSH1 0x0 NOT DUP2 JUMP INVALID LOG2 PUSH5 0x6970667358 0x22 SLT KECCAK256 0xB1 0xE3 0x28 PUSH30 0xD0A12CC3468474D7C6E797D643F024A541AA699401016F634657F2C6473 PUSH16 0x6C634300060C00330000000000000000 "
        },
        "methodIdentifiers": {
          "UNINITIALIZED()": "81e45d9a"
        }
      }
    }
  }
}