{
  "_format": "hh-sol-artifact-1",
  "contractName": "BBronze",
  "sourceName": "@beehiveinnovation/balancer-core/contracts/BColor.sol",
  "abi": [
    {
      "constant": true,
      "inputs": [],
      "name": "getColor",
      "outputs": [
        {
          "internalType": "bytes32",
          "name": "",
          "type": "bytes32"
        }
      ],
      "payable": false,
      "stateMutability": "view",
      "type": "function"
    }
  ],
  "bytecode": "0x6080604052348015600f57600080fd5b5060ba8061001e6000396000f3fe6080604052348015600f57600080fd5b50600436106044577c010000000000000000000000000000000000000000000000000000000060003504639a86139b81146049575b600080fd5b604f6061565b60408051918252519081900360200190f35b7f42524f4e5a4500000000000000000000000000000000000000000000000000009056fea265627a7a72315820ce3831ff72fa18b15f93af4da4072b0419ef922d4290f9ef49497cca3c52a22964736f6c634300050c0032",
  "linkReferences": {},
  "deployedLinkReferences": {}
}