{
  "address": "0x2b730c060FFA83Ce5D2B29016591874f31405A23",
  "abi": [
    {
      "inputs": [],
      "stateMutability": "nonpayable",
      "type": "constructor"
    },
    {
      "anonymous": false,
      "inputs": [
        {
          "indexed": false,
          "internalType": "address",
          "name": "sender",
          "type": "address"
        },
        {
          "indexed": false,
          "internalType": "address",
          "name": "implementation",
          "type": "address"
        }
      ],
      "name": "Implementation",
      "type": "event"
    },
    {
      "anonymous": false,
      "inputs": [
        {
          "indexed": false,
          "internalType": "address",
          "name": "sender",
          "type": "address"
        },
        {
          "indexed": false,
          "internalType": "address",
          "name": "child",
          "type": "address"
        }
      ],
      "name": "NewChild",
      "type": "event"
    },
    {
      "inputs": [
        {
          "internalType": "bytes",
          "name": "data_",
          "type": "bytes"
        }
      ],
      "name": "createChild",
      "outputs": [
        {
          "internalType": "address",
          "name": "",
          "type": "address"
        }
      ],
      "stateMutability": "nonpayable",
      "type": "function"
    },
    {
      "inputs": [
        {
          "internalType": "address",
          "name": "admin_",
          "type": "address"
        }
      ],
      "name": "createChildTyped",
      "outputs": [
        {
          "internalType": "contract Verify",
          "name": "",
          "type": "address"
        }
      ],
      "stateMutability": "nonpayable",
      "type": "function"
    },
    {
      "inputs": [
        {
          "internalType": "address",
          "name": "maybeChild_",
          "type": "address"
        }
      ],
      "name": "isChild",
      "outputs": [
        {
          "internalType": "bool",
          "name": "",
          "type": "bool"
        }
      ],
      "stateMutability": "view",
      "type": "function"
    }
  ],
  "transactionHash": "0x3b8433896c61fedc8a1977e307bade5828e76f28bd17d2603e8930ad6f247105",
  "args": [],
  "numDeployments": 1,
  "solcInputHash": "9e85ba39dabcbad721cb8b95134928f1",
  "bytecode": "0x60a060405234801561001057600080fd5b506001600090815560405161002490610096565b604051809103906000f080158015610040573d6000803e3d6000fd5b50604080513381526001600160a01b03831660208201529192507f7fac34ecf0b1b374cd9659e3d17db602659d53f1162b1f20142e6c02694aed70910160405180910390a16001600160a01b03166080526100a3565b61213f8061068883390190565b6080516105ca6100be60003960006102b501526105ca6000f3fe608060405234801561001057600080fd5b50600436106100415760003560e01c80632ea72a4914610046578063b536745114610083578063fc91a89714610096575b600080fd5b610059610054366004610449565b6100df565b60405173ffffffffffffffffffffffffffffffffffffffff90911681526020015b60405180910390f35b6100596100913660046104e0565b6101fd565b6100cf6100a43660046104e0565b73ffffffffffffffffffffffffffffffffffffffff1660009081526001602052604090205460ff1690565b604051901515815260200161007a565b600060026000541415610153576040517f08c379a000000000000000000000000000000000000000000000000000000000815260206004820152601f60248201527f5265656e7472616e637947756172643a207265656e7472616e742063616c6c0060448201526064015b60405180910390fd5b60026000908155610164848461029d565b73ffffffffffffffffffffffffffffffffffffffff811660008181526001602081815260409283902080547fffffffffffffffffffffffffffffffffffffffffffffffffffffffffffffff00169092179091558151338152908101929092529192507f7da70c4e5387d7038610b79ca7d304caaef815826e51e67cf247135387a79bce910160405180910390a160016000559392505050565b6040805173ffffffffffffffffffffffffffffffffffffffff831660208201526000913091632ea72a4991016040516020818303038152906040526040518263ffffffff1660e01b81526004016102549190610504565b6020604051808303816000875af1158015610273573d6000803e3d6000fd5b505050506040513d601f19601f820116820180604052508101906102979190610577565b92915050565b6000806102ac838501856104e0565b905060006102d97f0000000000000000000000000000000000000000000000000000000000000000610367565b6040517fc4d66de800000000000000000000000000000000000000000000000000000000815273ffffffffffffffffffffffffffffffffffffffff84811660048301529192509082169063c4d66de890602401600060405180830381600087803b15801561034657600080fd5b505af115801561035a573d6000803e3d6000fd5b5092979650505050505050565b60006040517f3d602d80600a3d3981f3363d3d373d3d3d363d7300000000000000000000000081528260601b60148201527f5af43d82803e903d91602b57fd5bf3000000000000000000000000000000000060288201526037816000f091505073ffffffffffffffffffffffffffffffffffffffff8116610444576040517f08c379a000000000000000000000000000000000000000000000000000000000815260206004820152601660248201527f455243313136373a20637265617465206661696c656400000000000000000000604482015260640161014a565b919050565b6000806020838503121561045c57600080fd5b823567ffffffffffffffff8082111561047457600080fd5b818501915085601f83011261048857600080fd5b81358181111561049757600080fd5b8660208285010111156104a957600080fd5b60209290920196919550909350505050565b73ffffffffffffffffffffffffffffffffffffffff811681146104dd57600080fd5b50565b6000602082840312156104f257600080fd5b81356104fd816104bb565b9392505050565b600060208083528351808285015260005b8181101561053157858101830151858201604001528201610515565b81811115610543576000604083870101525b50601f017fffffffffffffffffffffffffffffffffffffffffffffffffffffffffffffffe016929092016040019392505050565b60006020828403121561058957600080fd5b81516104fd816104bb56fea2646970667358221220254ca48c7d0fc4e48966f47a38b77e42e78f9d33e8bb0d8e4baf764fe2bff78064736f6c634300080a0033608060405234801561001057600080fd5b5061211f806100206000396000f3fe608060405234801561001057600080fd5b50600436106101985760003560e01c80637a0f5079116100e3578063b8c55bfa1161008c578063cd49152611610066578063cd49152614610483578063d547741f14610496578063f214a325146104a957600080fd5b8063b8c55bfa14610436578063ba6581111461045d578063c4d66de81461047057600080fd5b806391d14854116100bd57806391d14854146103df5780639f83922214610423578063a217fddf1461036e57600080fd5b80637a0f50791461039d5780637c7d7f7a146103a557806381792e44146103b857600080fd5b806331e658a51161014557806342c8a14d1161011f57806342c8a14d1461035b5780636c3ceb051461036e5780637547a8671461037657600080fd5b806331e658a51461026c57806336568abe146103215780633d111c7e1461033457600080fd5b8063248a9ca311610176578063248a9ca3146102215780632f2ff15d1461024457806330db8ce61461025957600080fd5b806301ffc9a71461019d578063100ec998146101c55780631e210912146101fa575b600080fd5b6101b06101ab366004611a45565b6104b1565b60405190151581526020015b60405180910390f35b6101ec7f9d65f741849e7609dd1e2c70f0d7da5f5433b36bfcf3ba4d27d2bb08ad2155b181565b6040519081526020016101bc565b6101ec7f2d4d1d70bd81797c3479f5c3f873a5c9203d249659c3b317cdad46367472783c81565b6101ec61022f366004611a87565b60009081526020819052604090206001015490565b610257610252366004611ac9565b61054a565b005b610257610267366004611b41565b610575565b6102f261027a366004611b8d565b60408051606080820183526000808352602080840182905292840181905273ffffffffffffffffffffffffffffffffffffffff9490941684526002825292829020825193840183525463ffffffff80821685526401000000008204811692850192909252680100000000000000009004169082015290565b60408051825163ffffffff908116825260208085015182169083015292820151909216908201526060016101bc565b61025761032f366004611ac9565b6107c2565b6101ec7f5ff1fb0ce9089603e6e193667ed17164e0360a6148f4a39fc194055588948a3181565b6101ec610369366004611beb565b610875565b6101ec600081565b6101ec7f794e4221ebb6dd4e460d558b4ec709511d44017d6610ba89daa896c0684ddfac81565b6101ec600181565b6102576103b3366004611c96565b6108e3565b6101ec7fbb496ca6fee71a17f78592fbc6fc7f04a436edb9c709c4289d6bbfbc5fd45f4d81565b6101b06103ed366004611ac9565b60009182526020828152604080842073ffffffffffffffffffffffffffffffffffffffff93909316845291905290205460ff1690565b610257610431366004611c96565b610b9b565b6101ec7f5a686c9d070917be517818979fb56f451f007e3ae83e96fb5a22a304929b070d81565b61025761046b366004611cd8565b610d2d565b61025761047e366004611b8d565b610ee6565b610257610491366004611c96565b611259565b6102576104a4366004611ac9565b611509565b6101ec600281565b60007fffffffff0000000000000000000000000000000000000000000000000000000082167f7965db0b00000000000000000000000000000000000000000000000000000000148061054457507f01ffc9a7000000000000000000000000000000000000000000000000000000007fffffffff000000000000000000000000000000000000000000000000000000008316145b92915050565b600082815260208190526040902060010154610566813361152f565b61057083836115ff565b505050565b336000908152600260208181526040928390208351606081018552905463ffffffff8082168352640100000000820481169383019390935268010000000000000000900490911692810192909252906105ce9043610875565b1461063a576040517f08c379a000000000000000000000000000000000000000000000000000000000815260206004820152600d60248201527f4f4e4c595f415050524f5645440000000000000000000000000000000000000060448201526064015b60405180910390fd5b826106be5760005b818110156106b8577f9def0eb63e24d052c362c931f2ab4c31eda642472ddc393a44484906f374ba4d3384848481811061067e5761067e611d4a565b90506020028101906106909190611d79565b60405161069e929190611db7565b60405180910390a1806106b081611ecd565b915050610642565b50505050565b60018314156107405760005b818110156106b8577f1b7bdec72dbe138bce2074865e8cf0347693327c317e9c1fdfe914001d48b5d13384848481811061070657610706611d4a565b90506020028101906107189190611d79565b604051610726929190611db7565b60405180910390a18061073881611ecd565b9150506106ca565b60028314156105705760005b818110156106b8577f9d48392ffd5df4ad821c86aa1f446e2b39cfecb6acd84a5b1dd41e3b4c1defce3384848481811061078857610788611d4a565b905060200281019061079a9190611d79565b6040516107a8929190611db7565b60405180910390a1806107ba81611ecd565b91505061074c565b73ffffffffffffffffffffffffffffffffffffffff81163314610867576040517f08c379a000000000000000000000000000000000000000000000000000000000815260206004820152602f60248201527f416363657373436f6e74726f6c3a2063616e206f6e6c792072656e6f756e636560448201527f20726f6c657320666f722073656c6600000000000000000000000000000000006064820152608401610631565b61087182826116ef565b5050565b60006001836000015163ffffffff16101561089257506000610544565b81836040015163ffffffff16116108ab57506003610544565b81836020015163ffffffff16116108c457506002610544565b825163ffffffff1682106108da57506001610544565b50600092915050565b7f5ff1fb0ce9089603e6e193667ed17164e0360a6148f4a39fc194055588948a3161090e813361152f565b6040805160608101825260008082526020820181905291810182905260005b84811015610b93576002600087878481811061094b5761094b611d4a565b905060200281019061095d9190611d79565b61096b906020810190611b8d565b73ffffffffffffffffffffffffffffffffffffffff16815260208082019290925260409081016000208151606081018352905463ffffffff8082168084526401000000008304821695840195909552680100000000000000009091041691810191909152925060011115610a1757604080516060808201835260008083526020808401829052928401528251908101835263ffffffff4381168252918101829052918201529150600192505b602082015163ffffffff9081161415610a3b5763ffffffff43166020830152600192505b8215610b25578160026000888885818110610a5857610a58611d4a565b9050602002810190610a6a9190611d79565b610a78906020810190611b8d565b73ffffffffffffffffffffffffffffffffffffffff168152602080820192909252604090810160009081208451815494860151959093015163ffffffff90811668010000000000000000027fffffffffffffffffffffffffffffffffffffffff00000000ffffffffffffffff968216640100000000027fffffffffffffffffffffffffffffffffffffffffffffffff00000000000000009096169190941617939093179390931617905592505b7fd140ad1540fe1b6d943b0509d447b34e0719ff7f9c6175d26a870abc89c9304f33878784818110610b5957610b59611d4a565b9050602002810190610b6b9190611d79565b604051610b79929190611db7565b60405180910390a180610b8b81611ecd565b91505061092d565b505050505050565b7f794e4221ebb6dd4e460d558b4ec709511d44017d6610ba89daa896c0684ddfac610bc6813361152f565b60005b828110156106b857600060026000868685818110610be957610be9611d4a565b9050602002810190610bfb9190611d79565b610c09906020810190611b8d565b73ffffffffffffffffffffffffffffffffffffffff16815260208101919091526040016000205463ffffffff161115610cbf5760026000858584818110610c5257610c52611d4a565b9050602002810190610c649190611d79565b610c72906020810190611b8d565b73ffffffffffffffffffffffffffffffffffffffff168152602081019190915260400160002080547fffffffffffffffffffffffffffffffffffffffff0000000000000000000000001690555b7fb6a0d4e5532c50d585db7a2aeb6d4628467d3c969d491458bb46c3dba33c46da33858584818110610cf357610cf3611d4a565b9050602002810190610d059190611d79565b604051610d13929190611db7565b60405180910390a180610d2581611ecd565b915050610bc9565b33600090815260026020526040902054600163ffffffff90911610610dae576040517f08c379a000000000000000000000000000000000000000000000000000000000815260206004820152600960248201527f5052494f525f41444400000000000000000000000000000000000000000000006044820152606401610631565b6040805160608082018352600080835260208084018290529284018190528351918201845263ffffffff43811683528284018181528386018281523380855260028752938790209451855492519151841668010000000000000000027fffffffffffffffffffffffffffffffffffffffff00000000ffffffffffffffff928516640100000000027fffffffffffffffffffffffffffffffffffffffffffffffff00000000000000009094169190941617919091171617909155825180840184528181528351601f86018490048402810184019094528484527f9def0eb63e24d052c362c931f2ab4c31eda642472ddc393a44484906f374ba4d93919290918282019187908790819084018382808284376000920191909152505050915250604051610eda929190611f7c565b60405180910390a15050565b600154610100900460ff16610f015760015460ff1615610f05565b303b155b610f91576040517f08c379a000000000000000000000000000000000000000000000000000000000815260206004820152602e60248201527f496e697469616c697a61626c653a20636f6e747261637420697320616c72656160448201527f647920696e697469616c697a65640000000000000000000000000000000000006064820152608401610631565b600154610100900460ff16158015610fd057600180547fffffffffffffffffffffffffffffffffffffffffffffffffffffffffffff0000166101011790555b73ffffffffffffffffffffffffffffffffffffffff821661104d576040517f08c379a000000000000000000000000000000000000000000000000000000000815260206004820152600960248201527f305f4143434f554e5400000000000000000000000000000000000000000000006044820152606401610631565b6110777f2d4d1d70bd81797c3479f5c3f873a5c9203d249659c3b317cdad46367472783c806117a6565b6110c17f5ff1fb0ce9089603e6e193667ed17164e0360a6148f4a39fc194055588948a317f2d4d1d70bd81797c3479f5c3f873a5c9203d249659c3b317cdad46367472783c6117a6565b6110eb7f9d65f741849e7609dd1e2c70f0d7da5f5433b36bfcf3ba4d27d2bb08ad2155b1806117a6565b6111357f794e4221ebb6dd4e460d558b4ec709511d44017d6610ba89daa896c0684ddfac7f9d65f741849e7609dd1e2c70f0d7da5f5433b36bfcf3ba4d27d2bb08ad2155b16117a6565b61115f7fbb496ca6fee71a17f78592fbc6fc7f04a436edb9c709c4289d6bbfbc5fd45f4d806117a6565b6111a97f5a686c9d070917be517818979fb56f451f007e3ae83e96fb5a22a304929b070d7fbb496ca6fee71a17f78592fbc6fc7f04a436edb9c709c4289d6bbfbc5fd45f4d6117a6565b6111d37f2d4d1d70bd81797c3479f5c3f873a5c9203d249659c3b317cdad46367472783c836117f1565b6111fd7f9d65f741849e7609dd1e2c70f0d7da5f5433b36bfcf3ba4d27d2bb08ad2155b1836117f1565b6112277fbb496ca6fee71a17f78592fbc6fc7f04a436edb9c709c4289d6bbfbc5fd45f4d836117f1565b801561087157600180547fffffffffffffffffffffffffffffffffffffffffffffffffffffffffffff00ff1690555050565b7f5a686c9d070917be517818979fb56f451f007e3ae83e96fb5a22a304929b070d611284813361152f565b6040805160608101825260008082526020820181905291810182905260005b84811015610b9357600260008787848181106112c1576112c1611d4a565b90506020028101906112d39190611d79565b6112e1906020810190611b8d565b73ffffffffffffffffffffffffffffffffffffffff16815260208082019290925260409081016000208151606081018352905463ffffffff808216808452640100000000830482169584019590955268010000000000000000909104169181019190915292506001111561138d57604080516060808201835260008083526020808401829052928401528251908101835263ffffffff4381168252918101829052918201529150600192505b604082015163ffffffff90811614156113b15763ffffffff43166040830152600192505b821561149b5781600260008888858181106113ce576113ce611d4a565b90506020028101906113e09190611d79565b6113ee906020810190611b8d565b73ffffffffffffffffffffffffffffffffffffffff168152602080820192909252604090810160009081208451815494860151959093015163ffffffff90811668010000000000000000027fffffffffffffffffffffffffffffffffffffffff00000000ffffffffffffffff968216640100000000027fffffffffffffffffffffffffffffffffffffffffffffffff00000000000000009096169190941617939093179390931617905592505b7f56ed5bd6a5ed51ea9976f064fa4b26035c05a8d1ef4f4cd92454befc5090e9d2338787848181106114cf576114cf611d4a565b90506020028101906114e19190611d79565b6040516114ef929190611db7565b60405180910390a18061150181611ecd565b9150506112a3565b600082815260208190526040902060010154611525813361152f565b61057083836116ef565b60008281526020818152604080832073ffffffffffffffffffffffffffffffffffffffff8516845290915290205460ff16610871576115858173ffffffffffffffffffffffffffffffffffffffff1660146117fb565b6115908360206117fb565b6040516020016115a1929190611fcb565b604080517fffffffffffffffffffffffffffffffffffffffffffffffffffffffffffffffe0818403018152908290527f08c379a00000000000000000000000000000000000000000000000000000000082526106319160040161204c565b60008281526020818152604080832073ffffffffffffffffffffffffffffffffffffffff8516845290915290205460ff166108715760008281526020818152604080832073ffffffffffffffffffffffffffffffffffffffff85168452909152902080547fffffffffffffffffffffffffffffffffffffffffffffffffffffffffffffff001660011790556116913390565b73ffffffffffffffffffffffffffffffffffffffff168173ffffffffffffffffffffffffffffffffffffffff16837f2f8788117e7eff1d82e926ec794901d17c78024a50270940304540a733656f0d60405160405180910390a45050565b60008281526020818152604080832073ffffffffffffffffffffffffffffffffffffffff8516845290915290205460ff16156108715760008281526020818152604080832073ffffffffffffffffffffffffffffffffffffffff8516808552925280832080547fffffffffffffffffffffffffffffffffffffffffffffffffffffffffffffff0016905551339285917ff6391f5c32d9c69d2a47ea670b442974b53935d1edc7fd64eb21e047a839171b9190a45050565b600082815260208190526040808220600101805490849055905190918391839186917fbd79b86ffe0ab8e8776151514217cd7cacd52c909f66475c3af44e129f0b00ff9190a4505050565b61087182826115ff565b6060600061180a83600261205f565b61181590600261209c565b67ffffffffffffffff81111561182d5761182d611ba8565b6040519080825280601f01601f191660200182016040528015611857576020820181803683370190505b5090507f30000000000000000000000000000000000000000000000000000000000000008160008151811061188e5761188e611d4a565b60200101907effffffffffffffffffffffffffffffffffffffffffffffffffffffffffffff1916908160001a9053507f7800000000000000000000000000000000000000000000000000000000000000816001815181106118f1576118f1611d4a565b60200101907effffffffffffffffffffffffffffffffffffffffffffffffffffffffffffff1916908160001a905350600061192d84600261205f565b61193890600161209c565b90505b60018111156119d5577f303132333435363738396162636465660000000000000000000000000000000085600f166010811061197957611979611d4a565b1a60f81b82828151811061198f5761198f611d4a565b60200101907effffffffffffffffffffffffffffffffffffffffffffffffffffffffffffff1916908160001a90535060049490941c936119ce816120b4565b905061193b565b508315611a3e576040517f08c379a000000000000000000000000000000000000000000000000000000000815260206004820181905260248201527f537472696e67733a20686578206c656e67746820696e73756666696369656e746044820152606401610631565b9392505050565b600060208284031215611a5757600080fd5b81357fffffffff0000000000000000000000000000000000000000000000000000000081168114611a3e57600080fd5b600060208284031215611a9957600080fd5b5035919050565b803573ffffffffffffffffffffffffffffffffffffffff81168114611ac457600080fd5b919050565b60008060408385031215611adc57600080fd5b82359150611aec60208401611aa0565b90509250929050565b60008083601f840112611b0757600080fd5b50813567ffffffffffffffff811115611b1f57600080fd5b6020830191508360208260051b8501011115611b3a57600080fd5b9250929050565b600080600060408486031215611b5657600080fd5b83359250602084013567ffffffffffffffff811115611b7457600080fd5b611b8086828701611af5565b9497909650939450505050565b600060208284031215611b9f57600080fd5b611a3e82611aa0565b7f4e487b7100000000000000000000000000000000000000000000000000000000600052604160045260246000fd5b803563ffffffff81168114611ac457600080fd5b6000808284036080811215611bff57600080fd5b6060811215611c0d57600080fd5b506040516060810181811067ffffffffffffffff82111715611c58577f4e487b7100000000000000000000000000000000000000000000000000000000600052604160045260246000fd5b604052611c6484611bd7565b8152611c7260208501611bd7565b6020820152611c8360408501611bd7565b6040820152946060939093013593505050565b60008060208385031215611ca957600080fd5b823567ffffffffffffffff811115611cc057600080fd5b611ccc85828601611af5565b90969095509350505050565b60008060208385031215611ceb57600080fd5b823567ffffffffffffffff80821115611d0357600080fd5b818501915085601f830112611d1757600080fd5b813581811115611d2657600080fd5b866020828501011115611d3857600080fd5b60209290920196919550909350505050565b7f4e487b7100000000000000000000000000000000000000000000000000000000600052603260045260246000fd5b600082357fffffffffffffffffffffffffffffffffffffffffffffffffffffffffffffffc1833603018112611dad57600080fd5b9190910192915050565b600073ffffffffffffffffffffffffffffffffffffffff80851683526040602084015280611de485611aa0565b1660408401525060208301357fffffffffffffffffffffffffffffffffffffffffffffffffffffffffffffffe1843603018112611e2057600080fd5b8301803567ffffffffffffffff811115611e3957600080fd5b803603851315611e4857600080fd5b60406060850152806080850152806020830160a0860137600060a0828601015260a07fffffffffffffffffffffffffffffffffffffffffffffffffffffffffffffffe0601f830116850101925050509392505050565b7f4e487b7100000000000000000000000000000000000000000000000000000000600052601160045260246000fd5b60007fffffffffffffffffffffffffffffffffffffffffffffffffffffffffffffffff821415611eff57611eff611e9e565b5060010190565b60005b83811015611f21578181015183820152602001611f09565b838111156106b85750506000910152565b60008151808452611f4a816020860160208601611f06565b601f017fffffffffffffffffffffffffffffffffffffffffffffffffffffffffffffffe0169290920160200192915050565b600073ffffffffffffffffffffffffffffffffffffffff80851683526040602084015280845116604084015250602083015160406060840152611fc26080840182611f32565b95945050505050565b7f416363657373436f6e74726f6c3a206163636f756e7420000000000000000000815260008351612003816017850160208801611f06565b7f206973206d697373696e6720726f6c65200000000000000000000000000000006017918401918201528351612040816028840160208801611f06565b01602801949350505050565b602081526000611a3e6020830184611f32565b6000817fffffffffffffffffffffffffffffffffffffffffffffffffffffffffffffffff048311821515161561209757612097611e9e565b500290565b600082198211156120af576120af611e9e565b500190565b6000816120c3576120c3611e9e565b507fffffffffffffffffffffffffffffffffffffffffffffffffffffffffffffffff019056fea26469706673582212202599acab0f56062569610a6025a50837c1117c0d9bba214f07a33efdf0c635d064736f6c634300080a0033",
  "devdoc": {
    "kind": "dev",
    "methods": {
      "createChild(bytes)": {
        "params": {
          "data_": "Encoded data to pass down to child contract constructor."
        },
        "returns": {
          "_0": "New child contract address."
        }
      },
      "createChildTyped(address)": {
        "params": {
          "admin_": "`address` of the `Verify` admin."
        },
        "returns": {
          "_0": "New `Verify` child contract address."
        }
      },
      "isChild(address)": {
        "params": {
          "maybeChild_": "Address of child contract to look up."
        },
        "returns": {
          "_0": "Returns `true` if address is a contract created by this contract factory, otherwise `false`."
        }
      }
    },
    "title": "VerifyFactory",
    "version": 1
  },
  "userdoc": {
    "events": {
      "Implementation(address,address)": {
        "notice": "Factories that clone a template contract MUST emit an event any time they set the implementation being cloned. Factories that deploy new contracts without cloning do NOT need to emit this."
      },
      "NewChild(address,address)": {
        "notice": "Whenever a new child contract is deployed, a `NewChild` event containing the new child contract address MUST be emitted."
      }
    },
    "kind": "user",
    "methods": {
      "constructor": {
        "notice": "Build the reference implementation to clone for each child."
      },
      "createChild(bytes)": {
        "notice": "Implements `IFactory`. Calls the `_createChild` hook that inheriting contracts must override. Registers child contract address such that `isChild` is `true`. Emits `NewChild` event."
      },
      "createChildTyped(address)": {
        "notice": "Typed wrapper for `createChild` with admin address. Use original `Factory` `createChild` function signature if function parameters are already encoded."
      },
      "isChild(address)": {
        "notice": "Implements `IFactory`. Checks if address is registered as a child contract of this factory."
      }
    },
    "notice": "Factory for creating and deploying `Verify` contracts.",
    "version": 1
  },
  "storageLayout": {
    "storage": [
      {
        "astId": 3812,
        "contract": "contracts/verify/VerifyFactory.sol:VerifyFactory",
        "label": "_status",
        "offset": 0,
        "slot": "0",
        "type": "t_uint256"
      },
      {
        "astId": 10285,
        "contract": "contracts/verify/VerifyFactory.sol:VerifyFactory",
        "label": "contracts",
        "offset": 0,
        "slot": "1",
        "type": "t_mapping(t_address,t_bool)"
      }
    ],
    "types": {
      "t_address": {
        "encoding": "inplace",
        "label": "address",
        "numberOfBytes": "20"
      },
      "t_bool": {
        "encoding": "inplace",
        "label": "bool",
        "numberOfBytes": "1"
      },
      "t_mapping(t_address,t_bool)": {
        "encoding": "mapping",
        "key": "t_address",
        "label": "mapping(address => bool)",
        "numberOfBytes": "32",
        "value": "t_bool"
      },
      "t_uint256": {
        "encoding": "inplace",
        "label": "uint256",
        "numberOfBytes": "32"
      }
    }
  }
}