{
  "_format": "hh-sol-artifact-1",
  "contractName": "AlwaysTier",
  "sourceName": "contracts/tier/AlwaysTier.sol",
  "abi": [
    {
      "anonymous": false,
      "inputs": [
        {
          "indexed": true,
          "internalType": "address",
          "name": "account",
          "type": "address"
        },
        {
          "indexed": true,
          "internalType": "enum ITier.Tier",
          "name": "startTier",
          "type": "uint8"
        },
        {
          "indexed": true,
          "internalType": "enum ITier.Tier",
          "name": "endTier",
          "type": "uint8"
        }
      ],
      "name": "TierChange",
      "type": "event"
    },
    {
      "inputs": [
        {
          "internalType": "address",
          "name": "",
          "type": "address"
        }
      ],
      "name": "report",
      "outputs": [
        {
          "internalType": "uint256",
          "name": "",
          "type": "uint256"
        }
      ],
      "stateMutability": "pure",
      "type": "function"
    },
    {
      "inputs": [
        {
          "internalType": "address",
          "name": "",
          "type": "address"
        },
        {
          "internalType": "enum ITier.Tier",
          "name": "",
          "type": "uint8"
        },
        {
          "internalType": "bytes",
          "name": "",
          "type": "bytes"
        }
      ],
      "name": "setTier",
      "outputs": [],
      "stateMutability": "pure",
      "type": "function"
    }
  ],
  "bytecode": "0x608060405234801561001057600080fd5b50610282806100206000396000f3fe608060405234801561001057600080fd5b50600436106100365760003560e01c806352dab69d1461003b578063e053ea3114610050575b600080fd5b61004e610049366004610134565b610076565b005b61006461005e36600461022a565b50600090565b60405190815260200160405180910390f35b6040517f08c379a000000000000000000000000000000000000000000000000000000000815260206004820152600860248201527f5345545f54494552000000000000000000000000000000000000000000000000604482015260640160405180910390fd5b803573ffffffffffffffffffffffffffffffffffffffff8116811461010057600080fd5b919050565b7f4e487b7100000000000000000000000000000000000000000000000000000000600052604160045260246000fd5b60008060006060848603121561014957600080fd5b610152846100dc565b925060208401356009811061016657600080fd5b9150604084013567ffffffffffffffff8082111561018357600080fd5b818601915086601f83011261019757600080fd5b8135818111156101a9576101a9610105565b604051601f82017fffffffffffffffffffffffffffffffffffffffffffffffffffffffffffffffe0908116603f011681019083821181831017156101ef576101ef610105565b8160405282815289602084870101111561020857600080fd5b8260208601602083013760006020848301015280955050505050509250925092565b60006020828403121561023c57600080fd5b610245826100dc565b939250505056fea26469706673582212200c0b2b7d7e2cebb13446ff291ea96473d715084c1e168b5cc02bc6516b4e72d864736f6c634300080a0033",
  "linkReferences": {},
  "deployedLinkReferences": {}
}