{
  "_format": "hh-sol-artifact-1",
  "contractName": "TierUtilTest",
  "sourceName": "contracts/test/TierUtilTest.sol",
  "abi": [
    {
      "inputs": [
        {
          "internalType": "uint256",
          "name": "report_",
          "type": "uint256"
        },
        {
          "internalType": "uint256",
          "name": "blockNumber_",
          "type": "uint256"
        }
      ],
      "name": "tierAtBlockFromReport",
      "outputs": [
        {
          "internalType": "enum ITier.Tier",
          "name": "",
          "type": "uint8"
        }
      ],
      "stateMutability": "pure",
      "type": "function"
    },
    {
      "inputs": [
        {
          "internalType": "uint256",
          "name": "report_",
          "type": "uint256"
        },
        {
          "internalType": "enum ITier.Tier",
          "name": "tier_",
          "type": "uint8"
        }
      ],
      "name": "tierBlock",
      "outputs": [
        {
          "internalType": "uint256",
          "name": "",
          "type": "uint256"
        }
      ],
      "stateMutability": "pure",
      "type": "function"
    },
    {
      "inputs": [
        {
          "internalType": "uint256",
          "name": "report_",
          "type": "uint256"
        },
        {
          "internalType": "enum ITier.Tier",
          "name": "tier_",
          "type": "uint8"
        }
      ],
      "name": "truncateTiersAbove",
      "outputs": [
        {
          "internalType": "uint256",
          "name": "",
          "type": "uint256"
        }
      ],
      "stateMutability": "pure",
      "type": "function"
    },
    {
      "inputs": [
        {
          "internalType": "uint256",
          "name": "report_",
          "type": "uint256"
        },
        {
          "internalType": "enum ITier.Tier",
          "name": "startTier_",
          "type": "uint8"
        },
        {
          "internalType": "enum ITier.Tier",
          "name": "endTier_",
          "type": "uint8"
        },
        {
          "internalType": "uint256",
          "name": "blockNumber_",
          "type": "uint256"
        }
      ],
      "name": "updateBlocksForTierRange",
      "outputs": [
        {
          "internalType": "uint256",
          "name": "",
          "type": "uint256"
        }
      ],
      "stateMutability": "pure",
      "type": "function"
    },
    {
      "inputs": [
        {
          "internalType": "uint256",
          "name": "report_",
          "type": "uint256"
        },
        {
          "internalType": "enum ITier.Tier",
          "name": "startTier_",
          "type": "uint8"
        },
        {
          "internalType": "enum ITier.Tier",
          "name": "endTier_",
          "type": "uint8"
        },
        {
          "internalType": "uint256",
          "name": "blockNumber_",
          "type": "uint256"
        }
      ],
      "name": "updateReportWithTierAtBlock",
      "outputs": [
        {
          "internalType": "uint256",
          "name": "",
          "type": "uint256"
        }
      ],
      "stateMutability": "pure",
      "type": "function"
    }
  ],
  "bytecode": "0x608060405234801561001057600080fd5b50610455806100206000396000f3fe608060405234801561001057600080fd5b50600436106100575760003560e01c80630e47450b1461005c5780636ed9558d146100825780637c76a2fb146100a2578063d37fc68a146100b5578063d4707031146100c8575b600080fd5b61006f61006a3660046102e8565b6100db565b6040519081526020015b60405180910390f35b610095610090366004610314565b6100f0565b604051610079919061034c565b61006f6100b03660046102e8565b6100fc565b61006f6100c3366004610374565b610108565b61006f6100d6366004610374565b61011f565b60006100e7838361012d565b90505b92915050565b60006100e7838361018c565b60006100e783836101ee565b600061011685858585610220565b95945050505050565b60006101168585858561028e565b60008082600881111561014257610142610336565b1415610150575060006100ea565b6000600183600881111561016657610166610336565b61017091906103ce565b61017b9060206103e5565b9390931c63ffffffff169392505050565b6000805b60088110156101e65763ffffffff83166101ab8260206103e5565b85901c63ffffffff1611156101d4578060088111156101cc576101cc610336565b9150506100ea565b806101de81610404565b915050610190565b5060086100e7565b60008082600881111561020357610203610336565b61020e9060206103e5565b600019811c901b841791505092915050565b600080600085600881111561023757610237610336565b90505b84600881111561024c5761024c610336565b8110156102835761025e8160206103e5565b63ffffffff811b199790971684881b179691508061027b81610404565b91505061023a565b509495945050505050565b60008360088111156102a2576102a2610336565b8360088111156102b4576102b4610336565b106102ca576102c585858585610220565b610116565b61011685846101ee565b8035600981106102e357600080fd5b919050565b600080604083850312156102fb57600080fd5b8235915061030b602084016102d4565b90509250929050565b6000806040838503121561032757600080fd5b50508035926020909101359150565b634e487b7160e01b600052602160045260246000fd5b602081016009831061036e57634e487b7160e01b600052602160045260246000fd5b91905290565b6000806000806080858703121561038a57600080fd5b8435935061039a602086016102d4565b92506103a8604086016102d4565b9396929550929360600135925050565b634e487b7160e01b600052601160045260246000fd5b6000828210156103e0576103e06103b8565b500390565b60008160001904831182151516156103ff576103ff6103b8565b500290565b6000600019821415610418576104186103b8565b506001019056fea26469706673582212204df1deb48d97b311f73172405e5a516cb0f01e3714b596cae28267a4321d07ed64736f6c634300080a0033",
  "linkReferences": {},
  "deployedLinkReferences": {}
}