{
  "address": "0xc26f68FB5E8fcd28661A26f92587c525e54407d0",
  "abi": [
    {
      "anonymous": false,
      "inputs": [
        {
          "indexed": false,
          "internalType": "address",
          "name": "sender",
          "type": "address"
        },
        {
          "indexed": false,
          "internalType": "address",
          "name": "depositor",
          "type": "address"
        },
        {
          "indexed": false,
          "internalType": "address",
          "name": "sale",
          "type": "address"
        },
        {
          "indexed": false,
          "internalType": "address",
          "name": "redeemable",
          "type": "address"
        },
        {
          "indexed": false,
          "internalType": "address",
          "name": "token",
          "type": "address"
        },
        {
          "indexed": false,
          "internalType": "uint256",
          "name": "supply",
          "type": "uint256"
        },
        {
          "indexed": false,
          "internalType": "uint256",
          "name": "amount",
          "type": "uint256"
        }
      ],
      "name": "Deposit",
      "type": "event"
    },
    {
      "anonymous": false,
      "inputs": [
        {
          "indexed": false,
          "internalType": "address",
          "name": "sender",
          "type": "address"
        },
        {
          "indexed": false,
          "internalType": "address",
          "name": "sale",
          "type": "address"
        },
        {
          "indexed": false,
          "internalType": "address",
          "name": "redeemable",
          "type": "address"
        },
        {
          "indexed": false,
          "internalType": "address",
          "name": "token",
          "type": "address"
        },
        {
          "indexed": false,
          "internalType": "uint256",
          "name": "amount",
          "type": "uint256"
        }
      ],
      "name": "PendingDeposit",
      "type": "event"
    },
    {
      "anonymous": false,
      "inputs": [
        {
          "indexed": false,
          "internalType": "address",
          "name": "sender",
          "type": "address"
        },
        {
          "indexed": false,
          "internalType": "address",
          "name": "depositor",
          "type": "address"
        },
        {
          "indexed": false,
          "internalType": "address",
          "name": "sale",
          "type": "address"
        },
        {
          "indexed": false,
          "internalType": "address",
          "name": "redeemable",
          "type": "address"
        },
        {
          "indexed": false,
          "internalType": "address",
          "name": "token",
          "type": "address"
        },
        {
          "indexed": false,
          "internalType": "uint256",
          "name": "amount",
          "type": "uint256"
        }
      ],
      "name": "Sweep",
      "type": "event"
    },
    {
      "anonymous": false,
      "inputs": [
        {
          "indexed": false,
          "internalType": "address",
          "name": "sender",
          "type": "address"
        },
        {
          "indexed": false,
          "internalType": "address",
          "name": "sale",
          "type": "address"
        },
        {
          "indexed": false,
          "internalType": "address",
          "name": "redeemable",
          "type": "address"
        },
        {
          "indexed": false,
          "internalType": "address",
          "name": "token",
          "type": "address"
        },
        {
          "indexed": false,
          "internalType": "uint256",
          "name": "supply",
          "type": "uint256"
        },
        {
          "indexed": false,
          "internalType": "uint256",
          "name": "amount",
          "type": "uint256"
        }
      ],
      "name": "Undeposit",
      "type": "event"
    },
    {
      "anonymous": false,
      "inputs": [
        {
          "indexed": false,
          "internalType": "address",
          "name": "withdrawer",
          "type": "address"
        },
        {
          "indexed": false,
          "internalType": "address",
          "name": "sale",
          "type": "address"
        },
        {
          "indexed": false,
          "internalType": "address",
          "name": "redeemable",
          "type": "address"
        },
        {
          "indexed": false,
          "internalType": "address",
          "name": "token",
          "type": "address"
        },
        {
          "indexed": false,
          "internalType": "uint256",
          "name": "supply",
          "type": "uint256"
        },
        {
          "indexed": false,
          "internalType": "uint256",
          "name": "amount",
          "type": "uint256"
        }
      ],
      "name": "Withdraw",
      "type": "event"
    },
    {
      "inputs": [
        {
          "internalType": "address",
          "name": "sale_",
          "type": "address"
        },
        {
          "internalType": "address",
          "name": "token_",
          "type": "address"
        },
        {
          "internalType": "uint256",
          "name": "amount_",
          "type": "uint256"
        }
      ],
      "name": "deposit",
      "outputs": [],
      "stateMutability": "nonpayable",
      "type": "function"
    },
    {
      "inputs": [
        {
          "internalType": "address",
          "name": "sale_",
          "type": "address"
        },
        {
          "internalType": "address",
          "name": "token_",
          "type": "address"
        },
        {
          "internalType": "uint256",
          "name": "amount_",
          "type": "uint256"
        }
      ],
      "name": "depositPending",
      "outputs": [],
      "stateMutability": "nonpayable",
      "type": "function"
    },
    {
      "inputs": [
        {
          "internalType": "address",
          "name": "sale_",
          "type": "address"
        },
        {
          "internalType": "address",
          "name": "token_",
          "type": "address"
        },
        {
          "internalType": "address",
          "name": "depositor_",
          "type": "address"
        }
      ],
      "name": "sweepPending",
      "outputs": [],
      "stateMutability": "nonpayable",
      "type": "function"
    },
    {
      "inputs": [
        {
          "internalType": "address",
          "name": "sale_",
          "type": "address"
        },
        {
          "internalType": "address",
          "name": "token_",
          "type": "address"
        },
        {
          "internalType": "uint256",
          "name": "supply_",
          "type": "uint256"
        },
        {
          "internalType": "uint256",
          "name": "amount_",
          "type": "uint256"
        }
      ],
      "name": "undeposit",
      "outputs": [],
      "stateMutability": "nonpayable",
      "type": "function"
    },
    {
      "inputs": [
        {
          "internalType": "address",
          "name": "sale_",
          "type": "address"
        },
        {
          "internalType": "address",
          "name": "token_",
          "type": "address"
        },
        {
          "internalType": "uint256",
          "name": "supply_",
          "type": "uint256"
        }
      ],
      "name": "withdraw",
      "outputs": [],
      "stateMutability": "nonpayable",
      "type": "function"
    }
  ],
  "transactionHash": "0xef4abd525a613ef3e6866c87b3f94c80f0ee8fdb3e868b4dadbdc66b797c933b",
  "args": [],
  "numDeployments": 1,
  "solcInputHash": "546b903093f71bcf827666e8259a807f",
  "bytecode": "0x608060405234801561001057600080fd5b5061171d806100206000396000f3fe608060405234801561001057600080fd5b50600436106100675760003560e01c80637e56cda8116100505780637e56cda8146100945780638340f549146100a7578063d9caed12146100ba57600080fd5b8063248a85721461006c5780635fc85b7d14610081575b600080fd5b61007f61007a3660046113fe565b6100cd565b005b61007f61008f366004611444565b61035c565b61007f6100a236600461148f565b610426565b61007f6100b536600461148f565b6105fb565b61007f6100c836600461148f565b61062e565b60016100d88561092a565b60028111156100e9576100e96114d0565b14610155576040517f08c379a000000000000000000000000000000000000000000000000000000000815260206004820152600860248201527f4e4f545f4641494c00000000000000000000000000000000000000000000000060448201526064015b60405180910390fd5b600081116101bf576040517f08c379a000000000000000000000000000000000000000000000000000000000815260206004820152600b60248201527f5a45524f5f414d4f554e54000000000000000000000000000000000000000000604482015260640161014c565b73ffffffffffffffffffffffffffffffffffffffff8085166000908152600560209081526040808320938716835292815282822033835281528282208583529052908120805483929061021390849061152e565b909155505073ffffffffffffffffffffffffffffffffffffffff808516600090815260066020908152604080832093871683529281528282208583529052908120805483929061026490849061152e565b909155505073ffffffffffffffffffffffffffffffffffffffff80851660009081526007602090815260408083209387168352928152828220858352905290812080548392906102b590849061152e565b909155507f6b7ec092a62c7445c02d988d0c1c01a2da7d8778d62a625accdf18de5efca3b6905033856102e781610ace565b6040805173ffffffffffffffffffffffffffffffffffffffff948516815292841660208401529083169082015290851660608201526080810184905260a0810183905260c00160405180910390a161035673ffffffffffffffffffffffffffffffffffffffff84163383610c49565b50505050565b73ffffffffffffffffffffffffffffffffffffffff838116600090815260046020908152604080832086851684528252808320938516835292905290812080549190557ff1c3618947be77b086aba11baa9d1e07d2df15de2c0e620f295ffd4ddd550e1f3383866103cc81610ace565b6040805173ffffffffffffffffffffffffffffffffffffffff958616815293851660208501529184168383015283166060830152918616608082015260a0810184905290519081900360c00190a161035684848484610d1d565b60008111610490576040517f08c379a000000000000000000000000000000000000000000000000000000000815260206004820152600c60248201527f5a45524f5f4445504f5349540000000000000000000000000000000000000000604482015260640161014c565b600061049b8461092a565b60028111156104ac576104ac6114d0565b14610513576040517f08c379a000000000000000000000000000000000000000000000000000000000815260206004820152600b60248201527f4e4f545f50454e44494e47000000000000000000000000000000000000000000604482015260640161014c565b73ffffffffffffffffffffffffffffffffffffffff808416600090815260046020908152604080832093861683529281528282203383529052908120805483929061055f908490611545565b909155506000905061057084610ace565b6040805133815273ffffffffffffffffffffffffffffffffffffffff878116602083015283811682840152861660608201526080810185905290519192507feabec77378d088e5df884cdb5fb2b55858355c2f6284148d4a30177eb54b52e6919081900360a00190a161035673ffffffffffffffffffffffffffffffffffffffff841633308561106d565b61060783833384610d1d565b61062973ffffffffffffffffffffffffffffffffffffffff831633308461106d565b505050565b60026106398461092a565b600281111561064a5761064a6114d0565b146106b1576040517f08c379a000000000000000000000000000000000000000000000000000000000815260206004820152600b60248201527f4e4f545f53554343455353000000000000000000000000000000000000000000604482015260640161014c565b73ffffffffffffffffffffffffffffffffffffffff83811660008181526006602090815260408083209487168084529482528083208684528252808320549383526003825280832094835293815283822085835281528382203383529052918220805490829055909161072386610ace565b6040517f70a08231000000000000000000000000000000000000000000000000000000008152336004820152909150600090859073ffffffffffffffffffffffffffffffffffffffff8416906370a0823190602401602060405180830381865afa158015610795573d6000803e3d6000fd5b505050506040513d601f19601f820116820180604052508101906107b9919061155d565b6107c3858761152e565b6107cd9190611576565b6107d791906115b3565b73ffffffffffffffffffffffffffffffffffffffff8089166000908152600760209081526040808320938b16835292815282822089835290529081208054929350839290919061082890849061152e565b909155505080610894576040517f08c379a000000000000000000000000000000000000000000000000000000000815260206004820152600d60248201527f5a45524f5f574954484452415700000000000000000000000000000000000000604482015260640161014c565b6040805133815273ffffffffffffffffffffffffffffffffffffffff898116602083015284811682840152881660608201526080810187905260a0810183905290517f16976c9767f5174e5289de7594402a1e174ebd2a9622aa3ebafd14e5af4e2ab99181900360c00190a161092173ffffffffffffffffffffffffffffffffffffffff87163383610c49565b50505050505050565b73ffffffffffffffffffffffffffffffffffffffff811660009081526002602052604081205460ff1681816002811115610966576109666114d0565b11156109725792915050565b60008373ffffffffffffffffffffffffffffffffffffffff1663f9020e336040518163ffffffff1660e01b8152600401602060405180830381865afa1580156109bf573d6000803e3d6000fd5b505050506040513d601f19601f820116820180604052508101906109e391906115ee565b905060028160038111156109f9576109f96114d0565b1415610a545750505073ffffffffffffffffffffffffffffffffffffffff16600090815260026020819052604090912080547fffffffffffffffffffffffffffffffffffffffffffffffffffffffffffffff00168217905590565b6003816003811115610a6857610a686114d0565b1415610ac45750505073ffffffffffffffffffffffffffffffffffffffff16600090815260026020526040902080547fffffffffffffffffffffffffffffffffffffffffffffffffffffffffffffff0016600190811790915590565b5060009392505050565b73ffffffffffffffffffffffffffffffffffffffff80821660009081526001602052604081205490911680610c435760008373ffffffffffffffffffffffffffffffffffffffff1663fc0c546a6040518163ffffffff1660e01b8152600401602060405180830381865afa158015610b4a573d6000803e3d6000fd5b505050506040513d601f19601f82011682018060405250810190610b6e919061160f565b905073ffffffffffffffffffffffffffffffffffffffff8116610bed576040517f08c379a000000000000000000000000000000000000000000000000000000000815260206004820152600760248201527f305f544f4b454e00000000000000000000000000000000000000000000000000604482015260640161014c565b73ffffffffffffffffffffffffffffffffffffffff848116600090815260016020526040902080547fffffffffffffffffffffffff00000000000000000000000000000000000000001691831691909117905590505b92915050565b60405173ffffffffffffffffffffffffffffffffffffffff83166024820152604481018290526106299084907fa9059cbb00000000000000000000000000000000000000000000000000000000906064015b604080517fffffffffffffffffffffffffffffffffffffffffffffffffffffffffffffffe08184030181529190526020810180517bffffffffffffffffffffffffffffffffffffffffffffffffffffffff167fffffffff00000000000000000000000000000000000000000000000000000000909316929092179091526110cb565b6000610d288561092a565b6002811115610d3957610d396114d0565b11610da0576040517f08c379a000000000000000000000000000000000000000000000000000000000815260206004820152600760248201527f50454e44494e4700000000000000000000000000000000000000000000000000604482015260640161014c565b60008111610e0a576040517f08c379a000000000000000000000000000000000000000000000000000000000815260206004820152600c60248201527f5a45524f5f4445504f5349540000000000000000000000000000000000000000604482015260640161014c565b6000610e1585610ace565b905060008173ffffffffffffffffffffffffffffffffffffffff166318160ddd6040518163ffffffff1660e01b8152600401602060405180830381865afa158015610e64573d6000803e3d6000fd5b505050506040513d601f19601f82011682018060405250810190610e88919061155d565b905060008111610ef4576040517f08c379a000000000000000000000000000000000000000000000000000000000815260206004820152600b60248201527f5a45524f5f535550504c59000000000000000000000000000000000000000000604482015260640161014c565b73ffffffffffffffffffffffffffffffffffffffff808716600090815260056020908152604080832089851684528252808320938816835292815282822084835290529081208054859290610f4a908490611545565b909155505073ffffffffffffffffffffffffffffffffffffffff8087166000908152600660209081526040808320938916835292815282822084835290529081208054859290610f9b908490611545565b909155505073ffffffffffffffffffffffffffffffffffffffff8087166000908152600760209081526040808320938916835292815282822084835290529081208054859290610fec908490611545565b90915550506040805133815273ffffffffffffffffffffffffffffffffffffffff86811660208301528881168284015284811660608301528716608082015260a0810183905260c0810185905290517f53591a88ac47bfe3130a7de575c6a6a8c22f7604cbba61b8390fbff773ed40499181900360e00190a1505050505050565b60405173ffffffffffffffffffffffffffffffffffffffff808516602483015283166044820152606481018290526103569085907f23b872dd0000000000000000000000000000000000000000000000000000000090608401610c9b565b600061112d826040518060400160405280602081526020017f5361666545524332303a206c6f772d6c6576656c2063616c6c206661696c65648152508573ffffffffffffffffffffffffffffffffffffffff166111d79092919063ffffffff16565b805190915015610629578080602001905181019061114b919061162c565b610629576040517f08c379a000000000000000000000000000000000000000000000000000000000815260206004820152602a60248201527f5361666545524332303a204552433230206f7065726174696f6e20646964206e60448201527f6f74207375636365656400000000000000000000000000000000000000000000606482015260840161014c565b60606111e684846000856111f0565b90505b9392505050565b606082471015611282576040517f08c379a000000000000000000000000000000000000000000000000000000000815260206004820152602660248201527f416464726573733a20696e73756666696369656e742062616c616e636520666f60448201527f722063616c6c0000000000000000000000000000000000000000000000000000606482015260840161014c565b73ffffffffffffffffffffffffffffffffffffffff85163b611300576040517f08c379a000000000000000000000000000000000000000000000000000000000815260206004820152601d60248201527f416464726573733a2063616c6c20746f206e6f6e2d636f6e7472616374000000604482015260640161014c565b6000808673ffffffffffffffffffffffffffffffffffffffff168587604051611329919061167a565b60006040518083038185875af1925050503d8060008114611366576040519150601f19603f3d011682016040523d82523d6000602084013e61136b565b606091505b509150915061137b828286611386565b979650505050505050565b606083156113955750816111e9565b8251156113a55782518084602001fd5b816040517f08c379a000000000000000000000000000000000000000000000000000000000815260040161014c9190611696565b73ffffffffffffffffffffffffffffffffffffffff811681146113fb57600080fd5b50565b6000806000806080858703121561141457600080fd5b843561141f816113d9565b9350602085013561142f816113d9565b93969395505050506040820135916060013590565b60008060006060848603121561145957600080fd5b8335611464816113d9565b92506020840135611474816113d9565b91506040840135611484816113d9565b809150509250925092565b6000806000606084860312156114a457600080fd5b83356114af816113d9565b925060208401356114bf816113d9565b929592945050506040919091013590565b7f4e487b7100000000000000000000000000000000000000000000000000000000600052602160045260246000fd5b7f4e487b7100000000000000000000000000000000000000000000000000000000600052601160045260246000fd5b600082821015611540576115406114ff565b500390565b60008219821115611558576115586114ff565b500190565b60006020828403121561156f57600080fd5b5051919050565b6000817fffffffffffffffffffffffffffffffffffffffffffffffffffffffffffffffff04831182151516156115ae576115ae6114ff565b500290565b6000826115e9577f4e487b7100000000000000000000000000000000000000000000000000000000600052601260045260246000fd5b500490565b60006020828403121561160057600080fd5b8151600481106111e957600080fd5b60006020828403121561162157600080fd5b81516111e9816113d9565b60006020828403121561163e57600080fd5b815180151581146111e957600080fd5b60005b83811015611669578181015183820152602001611651565b838111156103565750506000910152565b6000825161168c81846020870161164e565b9190910192915050565b60208152600082518060208401526116b581604085016020870161164e565b601f017fffffffffffffffffffffffffffffffffffffffffffffffffffffffffffffffe016919091016040019291505056fea2646970667358221220049c19cf3724901f75101544ff351e9b0c76a329dd6896a6157544f2fcdc72d964736f6c634300080a0033",
  "devdoc": {
    "events": {
      "Deposit(address,address,address,address,address,uint256,uint256)": {
        "params": {
          "amount": "Amount of token deposited.",
          "depositor": "Anon `msg.sender` who originally deposited the token. MAY NOT be the current `msg.sender` in the case of a pending sweep.",
          "redeemable": "Redeemable token that can claim this deposit.",
          "sale": "`ISale` contract deposit is under.",
          "sender": "Anon `msg.sender` triggering the deposit. MAY NOT be the `depositor` in the case of a pending sweep.",
          "supply": "rTKN supply at moment of deposit.",
          "token": "`IERC20` token being deposited."
        }
      },
      "PendingDeposit(address,address,address,address,uint256)": {
        "params": {
          "amount": "Amount of token deposited.",
          "redeemable": "Redeemable token that can claim this deposit. Implicitly snapshots the redeemable so malicious `Trust` cannot redirect funds later.",
          "sale": "`ISale` contract deposit is under.",
          "sender": "Anon `msg.sender` depositing the token.",
          "token": "`IERC20` token being deposited."
        }
      },
      "Sweep(address,address,address,address,address,uint256)": {
        "params": {
          "amount": "Amount of token being swept into a deposit.",
          "depositor": "Anon `msg.sender` who originally deposited the token.",
          "redeemable": "Redeemable token first reported by the trust.",
          "sale": "`ISale` contract deposit is under.",
          "sender": "Anon `msg.sender` sweeping the deposit.",
          "token": "`IERC20` token being swept into a deposit."
        }
      },
      "Undeposit(address,address,address,address,uint256,uint256)": {
        "params": {
          "amount": "Amount of token undeposited.",
          "redeemable": "Redeemable token that is being undeposited against.",
          "sale": "`ISale` contract undeposit is from.",
          "sender": "Anon `msg.sender` undepositing the token.",
          "supply": "rTKN supply at moment of deposit.",
          "token": "`IERC20` token being undeposited."
        }
      },
      "Withdraw(address,address,address,address,uint256,uint256)": {
        "params": {
          "amount": "Amount of token withdrawn.",
          "redeemable": "Redeemable token used to withdraw.",
          "sale": "`ISale` contract withdrawal is from.",
          "supply": "rTKN supply at moment of deposit.",
          "token": "`IERC20` token being withdrawn.",
          "withdrawer": "Anon `msg.sender` withdrawing the token."
        }
      }
    },
    "kind": "dev",
    "methods": {
      "deposit(address,address,uint256)": {
        "params": {
          "amount_": "The amount of token to deposit. Requires depositor has approved at least this amount to succeed.",
          "sale_": "The `Sale` to assign this deposit to.",
          "token_": "The `IERC20` token to deposit to the escrow."
        }
      },
      "depositPending(address,address,uint256)": {
        "params": {
          "amount_": "The amount of token to despoit. Requires depositor has approved at least this amount to succeed.",
          "sale_": "The `Sale` to assign this deposit to.",
          "token_": "The `IERC20` token to deposit to the escrow."
        }
      },
      "sweepPending(address,address,address)": {
        "params": {
          "depositor_": "The depositor to sweep registered deposits under.",
          "sale_": "The sale to sweep all pending deposits for.",
          "token_": "The token to sweep into registered deposits."
        }
      },
      "undeposit(address,address,uint256,uint256)": {
        "params": {
          "amount_": "The amount to undeposit.",
          "sale_": "The `Sale` to undeposit from.",
          "supply_": "The total supply of the sale token associated with the deposit being undeposited.",
          "token_": "The token to undeposit."
        }
      },
      "withdraw(address,address,uint256)": {
        "params": {
          "sale_": "The trust to `withdraw` against.",
          "supply_": "The total supply of the sale token at time of deposit to process this withdrawal against.",
          "token_": "The token to `withdraw`."
        }
      }
    },
    "version": 1
  },
  "userdoc": {
    "events": {
      "Deposit(address,address,address,address,address,uint256,uint256)": {
        "notice": "Emitted for every successful deposit."
      },
      "PendingDeposit(address,address,address,address,uint256)": {
        "notice": "Emitted for every successful pending deposit."
      },
      "Sweep(address,address,address,address,address,uint256)": {
        "notice": "Emitted every time a pending deposit is swept to a full deposit."
      },
      "Undeposit(address,address,address,address,uint256,uint256)": {
        "notice": "Emitted for every successful undeposit."
      },
      "Withdraw(address,address,address,address,uint256,uint256)": {
        "notice": "Emitted for every successful withdrawal."
      }
    },
    "kind": "user",
    "methods": {
      "deposit(address,address,uint256)": {
        "notice": "Any address can deposit any amount of its own `IERC20` under a `Sale`. The `Sale` MUST be a child of the trusted factory. The deposit will be accounted for under both the depositor individually and the trust in aggregate. The aggregate value is used by `withdraw` and the individual value by `undeposit`. The depositor is responsible for approving the token for this contract. `deposit` is still enabled after the distribution ends; `undeposit` is always allowed in case of a fail and disabled on success. Multiple `deposit` calls before and after a success result are supported. If a depositor deposits when a raise has failed they will need to undeposit it again manually. Delegated `deposit` is not supported. Every depositor is directly responsible for every `deposit`. WARNING: As `undeposit` can only be called when the `Sale` reports failure, `deposit` should only be called when the caller is sure the `Sale` will reach a clear success/fail status. For example, when a `Sale` has not yet been seeded it may never even start the raise so depositing at this point is dangerous. If the `Sale` never starts the raise it will never fail the raise either."
      },
      "depositPending(address,address,uint256)": {
        "notice": "Depositor can set aside tokens during pending raise status to be swept into a real deposit later. The problem with doing a normal deposit while the raise is still active is that the `Sale` will burn all unsold tokens when the raise ends. If we captured the token supply mid-raise then many deposited TKN would be allocated to unsold rTKN. Instead we set aside TKN so that raise participants can be sure that they will be claimable upon raise success but they remain unbound to any rTKN supply until `sweepPending` is called. `depositPending` is a one-way function, there is no way to `undeposit` until after the raise fails. Strongly recommended that depositors do NOT call `depositPending` until raise starts, so they know it will also end."
      },
      "sweepPending(address,address,address)": {
        "notice": "Anon can convert any existing pending deposit to a deposit with known rTKN supply once the escrow has moved out of pending status. As `sweepPending` is anon callable, raise participants know that the depositor cannot later prevent a sweep, and depositor knows that raise participants cannot prevent a sweep. As per normal deposits, the output of swept tokens depends on success/fail state allowing `undeposit` or `withdraw` to be called subsequently. Partial sweeps are NOT supported, to avoid griefers splitting a deposit across many different `supply_` values."
      },
      "undeposit(address,address,uint256,uint256)": {
        "notice": "The inverse of `deposit`. In the case of a failed distribution the depositors can claim back any tokens they deposited in the escrow. Ideally the distribution is a success and this does not need to be called but it is important that we can walk back deposits and try again for some future raise if needed. Delegated `undeposit` is not supported, only the depositor can wind back their original deposit. `amount_` must be non-zero. If several tokens have been deposited against a given trust for the depositor then each token must be individually undeposited. There is no onchain tracking or bulk processing for the depositor, they are expected to know what they have previously deposited and if/when to process an `undeposit`."
      },
      "withdraw(address,address,uint256)": {
        "notice": "The successful handover of a `deposit` to a recipient. When a redeemable token distribution is successful the redeemable token holders are automatically and immediately eligible to `withdraw` any and all tokens previously deposited against the relevant `Sale`. The `withdraw` can only happen if/when the relevant `Sale` reaches the success distribution status. Delegated `withdraw` is NOT supported. Every redeemable token holder is directly responsible for being aware of and calling `withdraw`. If a redeemable token holder calls `redeem` they also burn their claim on any tokens held in escrow so they MUST first call `withdraw` THEN `redeem`. It is expected that the redeemable token holder knows about the tokens that they will be withdrawing. This information is NOT tracked onchain or exposed for bulk processing. Partial `withdraw` is not supported, all tokens allocated to the caller are withdrawn`. 0 amount withdrawal is an error, if the prorata share of the token being claimed is small enough to round down to 0 then the withdraw will revert. Multiple withdrawals across multiple deposits is supported and is equivalent to a single withdraw after all relevant deposits."
      }
    },
    "notice": "Escrow contract for ERC20 tokens to be deposited and withdrawn against redeemableERC20 tokens from a specific `Sale`. When some token is deposited the running total of that token against the trust is incremented by the deposited amount. When some `redeemableERC20` token holder calls `withdraw` they are sent the full balance they have not previously claimed, multiplied by their fraction of the redeemable token supply that they currently hold. As redeemable tokens are frozen after distribution there are no issues with holders manipulating withdrawals by transferring tokens to claim multiple times. As redeemable tokens can be burned it is possible for the total supply to decrease over time, which naively would result in claims being larger retroactively (prorata increases beyond what can be paid). For example: - Alice and Bob hold 50 rTKN each, 100 total supply - 100 TKN is deposited - Alice withdraws 50% of 100 TKN => alice holds 50 TKN escrow holds 50 TKN - Alice burns her 50 rTKN - Bob attempts to withdraw his 50 rTKN which is now 100% of supply - Escrow tries to pay 100% of 100 TKN deposited and fails as the escrow   only holds 50 TKN (alice + bob = 150%). To avoid the escrow allowing more withdrawals than deposits we include the total rTKN supply in the key of each deposit mapping, and include it in the emmitted event. Alice and Bob must read the events offchain and make a withdrawal relative to the rTKN supply as it was at deposit time. Many deposits can be made under a single rTKN supply and will all combine to a single withdrawal but deposits made across different supplies will require multiple withdrawals. Alice or Bob could burn their tokens before withdrawing and would simply withdraw zero or only some of the deposited TKN. This hurts them individually, so they SHOULD check their indexer for claimable assets in the escrow before considering a burn. But neither of them can cause the other to be able to withdraw more or less relative to the supply as it was at the time of TKN being deposited, or to trick the escrow into overpaying more TKN than was deposited under a given `Sale`. A griefer could attempt to flood the escrow with many dust deposits under many different supplies in an attempt to confuse alice/bob. They are free to filter out events in their indexer that come from an unknown depositor or fall below some dust value threshold. Tokens may also exit the escrow as an `undeposit` call where the depositor receives back the tokens they deposited. As above the depositor must provide the rTKN supply from `deposit` time in order to `undeposit`. As `withdraw` and `undeposit` both represent claims on the same tokens they are mutually exclusive outcomes, hence the need for an escrow. The escrow will process `withdraw` only if the `Sale` is reporting a complete and successful raise. Similarly `undeposit` will only return tokens after the `Sale` completes and reports failure. While the `Sale` is in active distribution neither `withdraw` or `undeposit` will move tokens. This is necessary in part because it is only safe to calculate entitlements once the redeemable tokens are fully distributed and frozen. Because much of the redeemable token supply will never be sold, and then burned, `depositPending` MUST be called rather than `deposit` while the raise is active. When the raise completes anon can call `sweepPending` which will calculate and emit a `Deposit` event for a useful `supply`. Any supported ERC20 token can be deposited at any time BUT ONLY under a `Sale` contract that is the child of the `TrustFactory` that the escrow is deployed for. `TrustEscrow` is used to prevent a `Sale` from changing the pass/fail outcome once it is known due to a bug/attempt to double spend escrow funds. This mechanism is very similar to the native burn mechanism on `redeemableERC20` itself under `redeem` but without requiring any tokens to be burned in the process. Users can claim the same token many times safely, simply receiving 0 tokens if there is nothing left to claim. This does NOT support rebase/elastic token _balance_ mechanisms on the escrowed token as the escrow has no way to track deposits/withdrawals other than 1:1 conservation of input/output. For example, if 100 tokens are deposited under two different trusts and then that token rebases all balances to half, there will be 50 tokens in the escrow but the escrow will attempt transfers up to 100 tokens between the two trusts. Essentially the first 50 tokens will send and the next 50 tokens will fail because the trust literally doesn't have 100 tokens at that point. Elastic _supply_ tokens are supported as every token to be withdrawn must be first deposited, with the caveat that if some mechanism can mint/burn/transfer tokens out from under the escrow contract directly, this will break internal accounting much like the rebase situation. Using a real-world example, stETH from LIDO would be NOT be supported as the balance changes every day to reflect incoming ETH from validators, but wstETH IS supported as balances remain static while the underlying assets per unit of wstETH increase each day. This is of course exactly why wstETH was created in the first place. Every escrowed token has a separate space in the deposited/withdrawn mappings so that some broken/malicious/hacked token that leads to incorrect token movement in/out of the escrow cannot impact other tokens, even for the same trust and redeemable.",
    "version": 1
  },
  "storageLayout": {
    "storage": [
      {
        "astId": 8436,
        "contract": "contracts/escrow/RedeemableERC20ClaimEscrow.sol:RedeemableERC20ClaimEscrow",
        "label": "reserves",
        "offset": 0,
        "slot": "0",
        "type": "t_mapping(t_address,t_address)"
      },
      {
        "astId": 8441,
        "contract": "contracts/escrow/RedeemableERC20ClaimEscrow.sol:RedeemableERC20ClaimEscrow",
        "label": "tokens",
        "offset": 0,
        "slot": "1",
        "type": "t_mapping(t_address,t_address)"
      },
      {
        "astId": 8447,
        "contract": "contracts/escrow/RedeemableERC20ClaimEscrow.sol:RedeemableERC20ClaimEscrow",
        "label": "escrowStatuses",
        "offset": 0,
        "slot": "2",
        "type": "t_mapping(t_address,t_enum(EscrowStatus)8430)"
      },
      {
        "astId": 7937,
        "contract": "contracts/escrow/RedeemableERC20ClaimEscrow.sol:RedeemableERC20ClaimEscrow",
        "label": "withdrawals",
        "offset": 0,
        "slot": "3",
        "type": "t_mapping(t_address,t_mapping(t_address,t_mapping(t_uint256,t_mapping(t_address,t_uint256))))"
      },
      {
        "astId": 7946,
        "contract": "contracts/escrow/RedeemableERC20ClaimEscrow.sol:RedeemableERC20ClaimEscrow",
        "label": "pendingDeposits",
        "offset": 0,
        "slot": "4",
        "type": "t_mapping(t_address,t_mapping(t_address,t_mapping(t_address,t_uint256)))"
      },
      {
        "astId": 7957,
        "contract": "contracts/escrow/RedeemableERC20ClaimEscrow.sol:RedeemableERC20ClaimEscrow",
        "label": "deposits",
        "offset": 0,
        "slot": "5",
        "type": "t_mapping(t_address,t_mapping(t_address,t_mapping(t_address,t_mapping(t_uint256,t_uint256))))"
      },
      {
        "astId": 7966,
        "contract": "contracts/escrow/RedeemableERC20ClaimEscrow.sol:RedeemableERC20ClaimEscrow",
        "label": "totalDeposits",
        "offset": 0,
        "slot": "6",
        "type": "t_mapping(t_address,t_mapping(t_address,t_mapping(t_uint256,t_uint256)))"
      },
      {
        "astId": 7975,
        "contract": "contracts/escrow/RedeemableERC20ClaimEscrow.sol:RedeemableERC20ClaimEscrow",
        "label": "remainingDeposits",
        "offset": 0,
        "slot": "7",
        "type": "t_mapping(t_address,t_mapping(t_address,t_mapping(t_uint256,t_uint256)))"
      }
    ],
    "types": {
      "t_address": {
        "encoding": "inplace",
        "label": "address",
        "numberOfBytes": "20"
      },
      "t_enum(EscrowStatus)8430": {
        "encoding": "inplace",
        "label": "enum EscrowStatus",
        "numberOfBytes": "1"
      },
      "t_mapping(t_address,t_address)": {
        "encoding": "mapping",
        "key": "t_address",
        "label": "mapping(address => address)",
        "numberOfBytes": "32",
        "value": "t_address"
      },
      "t_mapping(t_address,t_enum(EscrowStatus)8430)": {
        "encoding": "mapping",
        "key": "t_address",
        "label": "mapping(address => enum EscrowStatus)",
        "numberOfBytes": "32",
        "value": "t_enum(EscrowStatus)8430"
      },
      "t_mapping(t_address,t_mapping(t_address,t_mapping(t_address,t_mapping(t_uint256,t_uint256))))": {
        "encoding": "mapping",
        "key": "t_address",
        "label": "mapping(address => mapping(address => mapping(address => mapping(uint256 => uint256))))",
        "numberOfBytes": "32",
        "value": "t_mapping(t_address,t_mapping(t_address,t_mapping(t_uint256,t_uint256)))"
      },
      "t_mapping(t_address,t_mapping(t_address,t_mapping(t_address,t_uint256)))": {
        "encoding": "mapping",
        "key": "t_address",
        "label": "mapping(address => mapping(address => mapping(address => uint256)))",
        "numberOfBytes": "32",
        "value": "t_mapping(t_address,t_mapping(t_address,t_uint256))"
      },
      "t_mapping(t_address,t_mapping(t_address,t_mapping(t_uint256,t_mapping(t_address,t_uint256))))": {
        "encoding": "mapping",
        "key": "t_address",
        "label": "mapping(address => mapping(address => mapping(uint256 => mapping(address => uint256))))",
        "numberOfBytes": "32",
        "value": "t_mapping(t_address,t_mapping(t_uint256,t_mapping(t_address,t_uint256)))"
      },
      "t_mapping(t_address,t_mapping(t_address,t_mapping(t_uint256,t_uint256)))": {
        "encoding": "mapping",
        "key": "t_address",
        "label": "mapping(address => mapping(address => mapping(uint256 => uint256)))",
        "numberOfBytes": "32",
        "value": "t_mapping(t_address,t_mapping(t_uint256,t_uint256))"
      },
      "t_mapping(t_address,t_mapping(t_address,t_uint256))": {
        "encoding": "mapping",
        "key": "t_address",
        "label": "mapping(address => mapping(address => uint256))",
        "numberOfBytes": "32",
        "value": "t_mapping(t_address,t_uint256)"
      },
      "t_mapping(t_address,t_mapping(t_uint256,t_mapping(t_address,t_uint256)))": {
        "encoding": "mapping",
        "key": "t_address",
        "label": "mapping(address => mapping(uint256 => mapping(address => uint256)))",
        "numberOfBytes": "32",
        "value": "t_mapping(t_uint256,t_mapping(t_address,t_uint256))"
      },
      "t_mapping(t_address,t_mapping(t_uint256,t_uint256))": {
        "encoding": "mapping",
        "key": "t_address",
        "label": "mapping(address => mapping(uint256 => uint256))",
        "numberOfBytes": "32",
        "value": "t_mapping(t_uint256,t_uint256)"
      },
      "t_mapping(t_address,t_uint256)": {
        "encoding": "mapping",
        "key": "t_address",
        "label": "mapping(address => uint256)",
        "numberOfBytes": "32",
        "value": "t_uint256"
      },
      "t_mapping(t_uint256,t_mapping(t_address,t_uint256))": {
        "encoding": "mapping",
        "key": "t_uint256",
        "label": "mapping(uint256 => mapping(address => uint256))",
        "numberOfBytes": "32",
        "value": "t_mapping(t_address,t_uint256)"
      },
      "t_mapping(t_uint256,t_uint256)": {
        "encoding": "mapping",
        "key": "t_uint256",
        "label": "mapping(uint256 => uint256)",
        "numberOfBytes": "32",
        "value": "t_uint256"
      },
      "t_uint256": {
        "encoding": "inplace",
        "label": "uint256",
        "numberOfBytes": "32"
      }
    }
  }
}