{
  "_format": "hh-sol-artifact-1",
  "contractName": "RedeemableERC20",
  "sourceName": "contracts/redeemableERC20/RedeemableERC20.sol",
  "abi": [
    {
      "inputs": [
        {
          "components": [
            {
              "internalType": "address",
              "name": "admin",
              "type": "address"
            },
            {
              "components": [
                {
                  "internalType": "string",
                  "name": "name",
                  "type": "string"
                },
                {
                  "internalType": "string",
                  "name": "symbol",
                  "type": "string"
                }
              ],
              "internalType": "struct ERC20Config",
              "name": "erc20Config",
              "type": "tuple"
            },
            {
              "internalType": "contract ITier",
              "name": "tier",
              "type": "address"
            },
            {
              "internalType": "enum ITier.Tier",
              "name": "minimumStatus",
              "type": "uint8"
            },
            {
              "internalType": "uint256",
              "name": "totalSupply",
              "type": "uint256"
            }
          ],
          "internalType": "struct RedeemableERC20Config",
          "name": "config_",
          "type": "tuple"
        }
      ],
      "stateMutability": "nonpayable",
      "type": "constructor"
    },
    {
      "anonymous": false,
      "inputs": [
        {
          "indexed": true,
          "internalType": "address",
          "name": "owner",
          "type": "address"
        },
        {
          "indexed": true,
          "internalType": "address",
          "name": "spender",
          "type": "address"
        },
        {
          "indexed": false,
          "internalType": "uint256",
          "name": "value",
          "type": "uint256"
        }
      ],
      "name": "Approval",
      "type": "event"
    },
    {
      "anonymous": false,
      "inputs": [
        {
          "indexed": true,
          "internalType": "uint32",
          "name": "newPhaseBlock_",
          "type": "uint32"
        }
      ],
      "name": "PhaseShiftScheduled",
      "type": "event"
    },
    {
      "anonymous": false,
      "inputs": [
        {
          "indexed": true,
          "internalType": "address",
          "name": "redeemer",
          "type": "address"
        },
        {
          "indexed": true,
          "internalType": "address",
          "name": "treasuryAsset",
          "type": "address"
        },
        {
          "indexed": false,
          "internalType": "uint256[2]",
          "name": "redeemAmounts",
          "type": "uint256[2]"
        }
      ],
      "name": "Redeem",
      "type": "event"
    },
    {
      "anonymous": false,
      "inputs": [
        {
          "indexed": true,
          "internalType": "bytes32",
          "name": "role",
          "type": "bytes32"
        },
        {
          "indexed": true,
          "internalType": "bytes32",
          "name": "previousAdminRole",
          "type": "bytes32"
        },
        {
          "indexed": true,
          "internalType": "bytes32",
          "name": "newAdminRole",
          "type": "bytes32"
        }
      ],
      "name": "RoleAdminChanged",
      "type": "event"
    },
    {
      "anonymous": false,
      "inputs": [
        {
          "indexed": true,
          "internalType": "bytes32",
          "name": "role",
          "type": "bytes32"
        },
        {
          "indexed": true,
          "internalType": "address",
          "name": "account",
          "type": "address"
        },
        {
          "indexed": true,
          "internalType": "address",
          "name": "sender",
          "type": "address"
        }
      ],
      "name": "RoleGranted",
      "type": "event"
    },
    {
      "anonymous": false,
      "inputs": [
        {
          "indexed": true,
          "internalType": "bytes32",
          "name": "role",
          "type": "bytes32"
        },
        {
          "indexed": true,
          "internalType": "address",
          "name": "account",
          "type": "address"
        },
        {
          "indexed": true,
          "internalType": "address",
          "name": "sender",
          "type": "address"
        }
      ],
      "name": "RoleRevoked",
      "type": "event"
    },
    {
      "anonymous": false,
      "inputs": [
        {
          "indexed": true,
          "internalType": "address",
          "name": "from",
          "type": "address"
        },
        {
          "indexed": true,
          "internalType": "address",
          "name": "to",
          "type": "address"
        },
        {
          "indexed": false,
          "internalType": "uint256",
          "name": "value",
          "type": "uint256"
        }
      ],
      "name": "Transfer",
      "type": "event"
    },
    {
      "anonymous": false,
      "inputs": [
        {
          "indexed": true,
          "internalType": "address",
          "name": "emitter",
          "type": "address"
        },
        {
          "indexed": true,
          "internalType": "address",
          "name": "asset",
          "type": "address"
        }
      ],
      "name": "TreasuryAsset",
      "type": "event"
    },
    {
      "inputs": [],
      "name": "DEFAULT_ADMIN_ROLE",
      "outputs": [
        {
          "internalType": "bytes32",
          "name": "",
          "type": "bytes32"
        }
      ],
      "stateMutability": "view",
      "type": "function"
    },
    {
      "inputs": [],
      "name": "DISTRIBUTOR_BURNER",
      "outputs": [
        {
          "internalType": "bytes32",
          "name": "",
          "type": "bytes32"
        }
      ],
      "stateMutability": "view",
      "type": "function"
    },
    {
      "inputs": [],
      "name": "MINIMUM_INITIAL_SUPPLY",
      "outputs": [
        {
          "internalType": "uint256",
          "name": "",
          "type": "uint256"
        }
      ],
      "stateMutability": "view",
      "type": "function"
    },
    {
      "inputs": [],
      "name": "RECEIVER",
      "outputs": [
        {
          "internalType": "bytes32",
          "name": "",
          "type": "bytes32"
        }
      ],
      "stateMutability": "view",
      "type": "function"
    },
    {
      "inputs": [],
      "name": "SENDER",
      "outputs": [
        {
          "internalType": "bytes32",
          "name": "",
          "type": "bytes32"
        }
      ],
      "stateMutability": "view",
      "type": "function"
    },
    {
      "inputs": [],
      "name": "UNINITIALIZED",
      "outputs": [
        {
          "internalType": "uint32",
          "name": "",
          "type": "uint32"
        }
      ],
      "stateMutability": "view",
      "type": "function"
    },
    {
      "inputs": [
        {
          "internalType": "address",
          "name": "owner",
          "type": "address"
        },
        {
          "internalType": "address",
          "name": "spender",
          "type": "address"
        }
      ],
      "name": "allowance",
      "outputs": [
        {
          "internalType": "uint256",
          "name": "",
          "type": "uint256"
        }
      ],
      "stateMutability": "view",
      "type": "function"
    },
    {
      "inputs": [
        {
          "internalType": "address",
          "name": "spender",
          "type": "address"
        },
        {
          "internalType": "uint256",
          "name": "amount",
          "type": "uint256"
        }
      ],
      "name": "approve",
      "outputs": [
        {
          "internalType": "bool",
          "name": "",
          "type": "bool"
        }
      ],
      "stateMutability": "nonpayable",
      "type": "function"
    },
    {
      "inputs": [
        {
          "internalType": "address",
          "name": "account",
          "type": "address"
        }
      ],
      "name": "balanceOf",
      "outputs": [
        {
          "internalType": "uint256",
          "name": "",
          "type": "uint256"
        }
      ],
      "stateMutability": "view",
      "type": "function"
    },
    {
      "inputs": [
        {
          "internalType": "uint32[8]",
          "name": "phaseBlocks_",
          "type": "uint32[8]"
        },
        {
          "internalType": "enum Phase",
          "name": "phase_",
          "type": "uint8"
        }
      ],
      "name": "blockNumberForPhase",
      "outputs": [
        {
          "internalType": "uint32",
          "name": "",
          "type": "uint32"
        }
      ],
      "stateMutability": "pure",
      "type": "function"
    },
    {
      "inputs": [
        {
          "internalType": "uint256",
          "name": "amount",
          "type": "uint256"
        }
      ],
      "name": "burn",
      "outputs": [],
      "stateMutability": "nonpayable",
      "type": "function"
    },
    {
      "inputs": [
        {
          "internalType": "address",
          "name": "distributorAccount_",
          "type": "address"
        }
      ],
      "name": "burnDistributor",
      "outputs": [],
      "stateMutability": "nonpayable",
      "type": "function"
    },
    {
      "inputs": [
        {
          "internalType": "address",
          "name": "account",
          "type": "address"
        },
        {
          "internalType": "uint256",
          "name": "amount",
          "type": "uint256"
        }
      ],
      "name": "burnFrom",
      "outputs": [],
      "stateMutability": "nonpayable",
      "type": "function"
    },
    {
      "inputs": [],
      "name": "constructionBlock",
      "outputs": [
        {
          "internalType": "uint256",
          "name": "",
          "type": "uint256"
        }
      ],
      "stateMutability": "view",
      "type": "function"
    },
    {
      "inputs": [],
      "name": "currentPhase",
      "outputs": [
        {
          "internalType": "enum Phase",
          "name": "",
          "type": "uint8"
        }
      ],
      "stateMutability": "view",
      "type": "function"
    },
    {
      "inputs": [],
      "name": "decimals",
      "outputs": [
        {
          "internalType": "uint8",
          "name": "",
          "type": "uint8"
        }
      ],
      "stateMutability": "view",
      "type": "function"
    },
    {
      "inputs": [
        {
          "internalType": "address",
          "name": "spender",
          "type": "address"
        },
        {
          "internalType": "uint256",
          "name": "subtractedValue",
          "type": "uint256"
        }
      ],
      "name": "decreaseAllowance",
      "outputs": [
        {
          "internalType": "bool",
          "name": "",
          "type": "bool"
        }
      ],
      "stateMutability": "nonpayable",
      "type": "function"
    },
    {
      "inputs": [
        {
          "internalType": "bytes32",
          "name": "role",
          "type": "bytes32"
        }
      ],
      "name": "getRoleAdmin",
      "outputs": [
        {
          "internalType": "bytes32",
          "name": "",
          "type": "bytes32"
        }
      ],
      "stateMutability": "view",
      "type": "function"
    },
    {
      "inputs": [
        {
          "internalType": "bytes32",
          "name": "role",
          "type": "bytes32"
        },
        {
          "internalType": "address",
          "name": "account",
          "type": "address"
        }
      ],
      "name": "grantRole",
      "outputs": [],
      "stateMutability": "nonpayable",
      "type": "function"
    },
    {
      "inputs": [
        {
          "internalType": "bytes32",
          "name": "role",
          "type": "bytes32"
        },
        {
          "internalType": "address",
          "name": "account",
          "type": "address"
        }
      ],
      "name": "hasRole",
      "outputs": [
        {
          "internalType": "bool",
          "name": "",
          "type": "bool"
        }
      ],
      "stateMutability": "view",
      "type": "function"
    },
    {
      "inputs": [
        {
          "internalType": "address",
          "name": "spender",
          "type": "address"
        },
        {
          "internalType": "uint256",
          "name": "addedValue",
          "type": "uint256"
        }
      ],
      "name": "increaseAllowance",
      "outputs": [
        {
          "internalType": "bool",
          "name": "",
          "type": "bool"
        }
      ],
      "stateMutability": "nonpayable",
      "type": "function"
    },
    {
      "inputs": [
        {
          "internalType": "address",
          "name": "account_",
          "type": "address"
        },
        {
          "internalType": "enum ITier.Tier",
          "name": "minimumTier_",
          "type": "uint8"
        }
      ],
      "name": "isTier",
      "outputs": [
        {
          "internalType": "bool",
          "name": "",
          "type": "bool"
        }
      ],
      "stateMutability": "view",
      "type": "function"
    },
    {
      "inputs": [],
      "name": "minimumTier",
      "outputs": [
        {
          "internalType": "enum ITier.Tier",
          "name": "",
          "type": "uint8"
        }
      ],
      "stateMutability": "view",
      "type": "function"
    },
    {
      "inputs": [],
      "name": "name",
      "outputs": [
        {
          "internalType": "string",
          "name": "",
          "type": "string"
        }
      ],
      "stateMutability": "view",
      "type": "function"
    },
    {
      "inputs": [
        {
          "internalType": "address",
          "name": "newTreasuryAsset_",
          "type": "address"
        }
      ],
      "name": "newTreasuryAsset",
      "outputs": [],
      "stateMutability": "nonpayable",
      "type": "function"
    },
    {
      "inputs": [
        {
          "internalType": "uint32[8]",
          "name": "phaseBlocks_",
          "type": "uint32[8]"
        },
        {
          "internalType": "uint32",
          "name": "blockNumber_",
          "type": "uint32"
        }
      ],
      "name": "phaseAtBlockNumber",
      "outputs": [
        {
          "internalType": "enum Phase",
          "name": "",
          "type": "uint8"
        }
      ],
      "stateMutability": "pure",
      "type": "function"
    },
    {
      "inputs": [
        {
          "internalType": "uint256",
          "name": "",
          "type": "uint256"
        }
      ],
      "name": "phaseBlocks",
      "outputs": [
        {
          "internalType": "uint32",
          "name": "",
          "type": "uint32"
        }
      ],
      "stateMutability": "view",
      "type": "function"
    },
    {
      "inputs": [
        {
          "internalType": "contract IERC20[]",
          "name": "treasuryAssets_",
          "type": "address[]"
        },
        {
          "internalType": "uint256",
          "name": "redeemAmount_",
          "type": "uint256"
        }
      ],
      "name": "redeem",
      "outputs": [],
      "stateMutability": "nonpayable",
      "type": "function"
    },
    {
      "inputs": [
        {
          "internalType": "bytes32",
          "name": "role",
          "type": "bytes32"
        },
        {
          "internalType": "address",
          "name": "account",
          "type": "address"
        }
      ],
      "name": "renounceRole",
      "outputs": [],
      "stateMutability": "nonpayable",
      "type": "function"
    },
    {
      "inputs": [
        {
          "internalType": "bytes32",
          "name": "role",
          "type": "bytes32"
        },
        {
          "internalType": "address",
          "name": "account",
          "type": "address"
        }
      ],
      "name": "revokeRole",
      "outputs": [],
      "stateMutability": "nonpayable",
      "type": "function"
    },
    {
      "inputs": [
        {
          "internalType": "bytes4",
          "name": "interfaceId",
          "type": "bytes4"
        }
      ],
      "name": "supportsInterface",
      "outputs": [
        {
          "internalType": "bool",
          "name": "",
          "type": "bool"
        }
      ],
      "stateMutability": "view",
      "type": "function"
    },
    {
      "inputs": [],
      "name": "symbol",
      "outputs": [
        {
          "internalType": "string",
          "name": "",
          "type": "string"
        }
      ],
      "stateMutability": "view",
      "type": "function"
    },
    {
      "inputs": [],
      "name": "tierContract",
      "outputs": [
        {
          "internalType": "contract ITier",
          "name": "",
          "type": "address"
        }
      ],
      "stateMutability": "view",
      "type": "function"
    },
    {
      "inputs": [],
      "name": "totalSupply",
      "outputs": [
        {
          "internalType": "uint256",
          "name": "",
          "type": "uint256"
        }
      ],
      "stateMutability": "view",
      "type": "function"
    },
    {
      "inputs": [
        {
          "internalType": "address",
          "name": "recipient",
          "type": "address"
        },
        {
          "internalType": "uint256",
          "name": "amount",
          "type": "uint256"
        }
      ],
      "name": "transfer",
      "outputs": [
        {
          "internalType": "bool",
          "name": "",
          "type": "bool"
        }
      ],
      "stateMutability": "nonpayable",
      "type": "function"
    },
    {
      "inputs": [
        {
          "internalType": "address",
          "name": "sender",
          "type": "address"
        },
        {
          "internalType": "address",
          "name": "recipient",
          "type": "address"
        },
        {
          "internalType": "uint256",
          "name": "amount",
          "type": "uint256"
        }
      ],
      "name": "transferFrom",
      "outputs": [
        {
          "internalType": "bool",
          "name": "",
          "type": "bool"
        }
      ],
      "stateMutability": "nonpayable",
      "type": "function"
    }
  ],
  "bytecode": "0x60806040523480156200001157600080fd5b50604051620038a6380380620038a683398101604081905262000034916200095d565b6020808201518051910151604083015160005b6008811015620000ab5763ffffffff600182600881106200006c576200006c62000a72565b600891828204019190066004026101000a81548163ffffffff021916908363ffffffff1602179055508080620000a29062000a9e565b91505062000047565b50600280546001600160a01b0319166001600160a01b0392909216919091179055436003558151620000e59060079060208501906200074e565b508051620000fb9060089060208401906200074e565b50506001600955506080810151670de0b6b3a76400001115620001655760405162461bcd60e51b815260206004820152601660248201527f4d494e494d554d5f494e495449414c5f535550504c590000000000000000000060448201526064015b60405180910390fd5b6060810151600a805460ff1916600183600881111562000189576200018962000abc565b021790555080516200019e906000906200020e565b8051620001bc9060008051602062003886833981519152906200020e565b620001d86000805160206200386683398151915260006200020e565b620001f46000805160206200388683398151915260006200020e565b805160808201516200020791906200021e565b5062000b96565b6200021a828262000311565b5050565b6001600160a01b038216620002765760405162461bcd60e51b815260206004820152601f60248201527f45524332303a206d696e7420746f20746865207a65726f20616464726573730060448201526064016200015c565b620002846000838362000399565b806006600082825462000298919062000ad2565b90915550506001600160a01b03821660009081526004602052604081208054839290620002c790849062000ad2565b90915550506040518181526001600160a01b038316906000907fddf252ad1be2c89b69c2b068fc378daa952ba7f163c4a11628f55a4df523b3ef9060200160405180910390a35050565b6200031d82826200053a565b6200021a576000828152602081815260408083206001600160a01b03851684529091529020805460ff19166001179055620003553390565b6001600160a01b0316816001600160a01b0316837f2f8788117e7eff1d82e926ec794901d17c78024a50270940304540a733656f0d60405160405180910390a45050565b620003b1838383620004c260201b620009141760201c565b6001600160a01b038216301415620003fe5760405162461bcd60e51b815260206004820152600f60248201526e2a27a5a2a72fa9a2a7222fa9a2a62360891b60448201526064016200015c565b6000811180156200044957506200042560008051602062003866833981519152846200053a565b806200044757506200044760008051602062003886833981519152836200053a565b155b15620004c25760006200045b62000565565b60088111156200046f576200046f62000abc565b1415620004c757600a546200048990839060ff16620005d4565b620004c25760405162461bcd60e51b815260206004820152600860248201526726a4a72faa24a2a960c11b60448201526064016200015c565b505050565b6001620004d362000565565b6008811115620004e757620004e762000abc565b141562000530576001600160a01b03821615620004c25760405162461bcd60e51b8152602060048201526006602482015265232927ad22a760d11b60448201526064016200015c565b620004c262000aed565b6000828152602081815260408083206001600160a01b038516845290915290205460ff165b92915050565b60408051610100810191829052600091620005cf91906001906008908286855b82829054906101000a900463ffffffff1663ffffffff1681526020019060040190602082600301049283019260010382029150808411620005855750439450506200066a92505050565b905090565b60025460405163e053ea3160e01b81526001600160a01b0384811660048301526000926200065e9291169063e053ea3190602401602060405180830381865afa15801562000626573d6000803e3d6000fd5b505050506040513d601f19601f820116820180604052508101906200064c919062000b03565b83620006e360201b6200119f1760201c565b60035410159392505050565b6000805b6008811015620006d9578381600881106200068d576200068d62000a72565b602002015163ffffffff168363ffffffff161015620006c457806008811115620006bb57620006bb62000abc565b9150506200055f565b80620006d08162000a9e565b9150506200066e565b5060089392505050565b600080826008811115620006fb57620006fb62000abc565b14156200070b575060006200055f565b6000600183600881111562000724576200072462000abc565b62000730919062000b1d565b6200073d90602062000b37565b9390931c63ffffffff169392505050565b8280546200075c9062000b59565b90600052602060002090601f016020900481019282620007805760008555620007cb565b82601f106200079b57805160ff1916838001178555620007cb565b82800160010185558215620007cb579182015b82811115620007cb578251825591602001919060010190620007ae565b50620007d9929150620007dd565b5090565b5b80821115620007d95760008155600101620007de565b634e487b7160e01b600052604160045260246000fd5b60405160a081016001600160401b03811182821017156200082f576200082f620007f4565b60405290565b604080519081016001600160401b03811182821017156200082f576200082f620007f4565b604051601f8201601f191681016001600160401b0381118282101715620008855762000885620007f4565b604052919050565b6001600160a01b0381168114620008a357600080fd5b50565b600082601f830112620008b857600080fd5b81516001600160401b03811115620008d457620008d4620007f4565b6020620008ea601f8301601f191682016200085a565b8281528582848701011115620008ff57600080fd5b60005b838110156200091f57858101830151828201840152820162000902565b83811115620009315760008385840101525b5095945050505050565b805162000948816200088d565b919050565b8051600981106200094857600080fd5b6000602082840312156200097057600080fd5b81516001600160401b03808211156200098857600080fd5b9083019060a082860312156200099d57600080fd5b620009a76200080a565b8251620009b4816200088d565b8152602083015182811115620009c957600080fd5b830160408188031215620009dc57600080fd5b620009e662000835565b815184811115620009f657600080fd5b62000a0489828501620008a6565b82525060208201518481111562000a1a57600080fd5b62000a2889828501620008a6565b602083015250806020840152505062000a44604084016200093b565b604082015262000a57606084016200094d565b60608201526080830151608082015280935050505092915050565b634e487b7160e01b600052603260045260246000fd5b634e487b7160e01b600052601160045260246000fd5b600060001982141562000ab55762000ab562000a88565b5060010190565b634e487b7160e01b600052602160045260246000fd5b6000821982111562000ae85762000ae862000a88565b500190565b634e487b7160e01b600052600160045260246000fd5b60006020828403121562000b1657600080fd5b5051919050565b60008282101562000b325762000b3262000a88565b500390565b600081600019048311821515161562000b545762000b5462000a88565b500290565b600181811c9082168062000b6e57607f821691505b6020821081141562000b9057634e487b7160e01b600052602260045260246000fd5b50919050565b612cc08062000ba66000396000f3fe608060405234801561001057600080fd5b506004361061025c5760003560e01c806377544f3311610145578063a457c2d7116100bd578063d547741f1161008c578063de1533ba11610071578063de1533ba146105dc578063f1ebd5dd146105ef578063f677de96146105fc57600080fd5b8063d547741f14610583578063dd62ed3e1461059657600080fd5b8063a457c2d714610527578063a9059cbb1461053a578063ad3cb1031461054d578063ad7430cc1461055c57600080fd5b806395d89b41116101145780639923c94b116100f95780639923c94b146104c7578063a217fddf146104da578063a30872db146104e257600080fd5b806395d89b411461049857806396773ebe146104a057600080fd5b806377544f331461042357806379cc67901461043657806381e45d9a1461044957806391d148541461045457600080fd5b80632f2ff15d116101d857806339509351116101a757806345bdfa8a1161018c57806345bdfa8a1461039e5780636050f2f8146103c657806370a08231146103ed57600080fd5b8063395093511461037857806342966c681461038b57600080fd5b80632f2ff15d14610330578063313ce5671461034357806334c1df751461035257806336568abe1461036557600080fd5b8063095ea7b31161022f57806318160ddd1161021457806318160ddd146102f257806323b872dd146102fa578063248a9ca31461030d57600080fd5b8063095ea7b3146102c85780630f0af57f146102db57600080fd5b806301ffc9a714610261578063038ef03e14610289578063055ad42e1461029e57806306fdde03146102b3575b600080fd5b61027461026f36600461254f565b61060f565b60405190151581526020015b60405180910390f35b61029c6102973660046125b3565b6106a8565b005b6102a66106ee565b6040516102809190612636565b6102bb610759565b6040516102809190612675565b6102746102d63660046126c6565b6107eb565b6102e460035481565b604051908152602001610280565b6006546102e4565b6102746103083660046126f2565b610801565b6102e461031b366004612733565b60009081526020819052604090206001015490565b61029c61033e36600461274c565b6108ee565b60405160128152602001610280565b6102a66103603660046127c4565b610919565b61029c61037336600461274c565b610986565b6102746103863660046126c6565b610a39565b61029c610399366004612733565b610a82565b6103b16103ac366004612866565b610a8f565b60405163ffffffff9091168152602001610280565b6102e47fcf2b1209506b76f140fb1bc5fe66d6e42627c4b9703a951d65552f50f14c9ee781565b6102e46103fb3660046125b3565b73ffffffffffffffffffffffffffffffffffffffff1660009081526004602052604090205490565b610274610431366004612899565b610af2565b61029c6104443660046126c6565b610b9e565b6103b163ffffffff81565b61027461046236600461274c565b60009182526020828152604080842073ffffffffffffffffffffffffffffffffffffffff93909316845291905290205460ff1690565b6102bb610c52565b6102e47fa67ce9b482cd7c7b30f4cea2f7e71abe8f7040cc572c570552199c488f160ad181565b6103b16104d5366004612733565b610c61565b6102e4600081565b6002546105029073ffffffffffffffffffffffffffffffffffffffff1681565b60405173ffffffffffffffffffffffffffffffffffffffff9091168152602001610280565b6102746105353660046126c6565b610c91565b6102746105483660046126c6565b610d69565b6102e4670de0b6b3a764000081565b6102e47f94201143cc0a32610f14f8f185ebb23e4ca60f1758e49668647d0879b1e81f0b81565b61029c61059136600461274c565b610d76565b6102e46105a43660046128c7565b73ffffffffffffffffffffffffffffffffffffffff918216600090815260056020908152604080832093909416825291909152205490565b61029c6105ea3660046125b3565b610d9c565b600a546102a69060ff1681565b61029c61060a3660046128f5565b610ef5565b60007fffffffff0000000000000000000000000000000000000000000000000000000082167f7965db0b0000000000000000000000000000000000000000000000000000000014806106a257507f01ffc9a7000000000000000000000000000000000000000000000000000000007fffffffff000000000000000000000000000000000000000000000000000000008316145b92915050565b60405173ffffffffffffffffffffffffffffffffffffffff82169033907f2ab01e95cf254bfe2f3e7e2a70a40262c15f0c753a586568529e3b109c567d5690600090a350565b6040805161010081019182905260009161075491906001906008908286855b82829054906101000a900463ffffffff1663ffffffff168152602001906004019060208260030104928301926001038202915080841161070d579050505050505043610919565b905090565b60606007805461076890612970565b80601f016020809104026020016040519081016040528092919081815260200182805461079490612970565b80156107e15780601f106107b6576101008083540402835291602001916107e1565b820191906000526020600020905b8154815290600101906020018083116107c457829003601f168201915b5050505050905090565b60006107f83384846111fe565b50600192915050565b600061080e8484846113b1565b73ffffffffffffffffffffffffffffffffffffffff84166000908152600560209081526040808320338452909152902054828110156108d4576040517f08c379a000000000000000000000000000000000000000000000000000000000815260206004820152602860248201527f45524332303a207472616e7366657220616d6f756e742065786365656473206160448201527f6c6c6f77616e636500000000000000000000000000000000000000000000000060648201526084015b60405180910390fd5b6108e185338584036111fe565b60019150505b9392505050565b60008281526020819052604090206001015461090a8133611671565b6109148383611741565b505050565b6000805b600881101561097c57838160088110610938576109386129c4565b602002015163ffffffff168363ffffffff16101561096a57806008811115610962576109626125d0565b9150506106a2565b8061097481612a22565b91505061091d565b5060089392505050565b73ffffffffffffffffffffffffffffffffffffffff81163314610a2b576040517f08c379a000000000000000000000000000000000000000000000000000000000815260206004820152602f60248201527f416363657373436f6e74726f6c3a2063616e206f6e6c792072656e6f756e636560448201527f20726f6c657320666f722073656c66000000000000000000000000000000000060648201526084016108cb565b610a358282611831565b5050565b33600081815260056020908152604080832073ffffffffffffffffffffffffffffffffffffffff8716845290915281205490916107f8918590610a7d908690612a5b565b6111fe565b610a8c33826118e8565b50565b600080826008811115610aa457610aa46125d0565b11610ab05760006108e7565b826001836008811115610ac557610ac56125d0565b610acf9190612a73565b60088110610adf57610adf6129c4565b6020020160208101906108e79190612a8a565b6002546040517fe053ea3100000000000000000000000000000000000000000000000000000000815273ffffffffffffffffffffffffffffffffffffffff8481166004830152600092610b929291169063e053ea3190602401602060405180830381865afa158015610b68573d6000803e3d6000fd5b505050506040513d601f19601f82011682018060405250810190610b8c9190612aa5565b8361119f565b60035410159392505050565b6000610baa83336105a4565b905081811015610c3b576040517f08c379a0000000000000000000000000000000000000000000000000000000008152602060048201526024808201527f45524332303a206275726e20616d6f756e74206578636565647320616c6c6f7760448201527f616e63650000000000000000000000000000000000000000000000000000000060648201526084016108cb565b610c4883338484036111fe565b61091483836118e8565b60606008805461076890612970565b60018160088110610c7157600080fd5b60089182820401919006600402915054906101000a900463ffffffff1681565b33600090815260056020908152604080832073ffffffffffffffffffffffffffffffffffffffff8616845290915281205482811015610d52576040517f08c379a000000000000000000000000000000000000000000000000000000000815260206004820152602560248201527f45524332303a2064656372656173656420616c6c6f77616e63652062656c6f7760448201527f207a65726f00000000000000000000000000000000000000000000000000000060648201526084016108cb565b610d5f33858584036111fe565b5060019392505050565b60006107f83384846113b1565b600082815260208190526040902060010154610d928133611671565b6109148383611831565b600080610da76106ee565b6008811115610db857610db86125d0565b14610e1f576040517f08c379a000000000000000000000000000000000000000000000000000000000815260206004820152600960248201527f4241445f5048415345000000000000000000000000000000000000000000000060448201526064016108cb565b3360009081527f44ffb3450aacb290bc8874388135faa0f2875a158bf21b3faea045975fd38a3c602052604090205460ff16610eb7576040517f08c379a000000000000000000000000000000000000000000000000000000000815260206004820152601760248201527f4f4e4c595f4449535452494255544f525f4255524e455200000000000000000060448201526064016108cb565b610ec043611ae1565b610a3582610ef08473ffffffffffffffffffffffffffffffffffffffff1660009081526004602052604090205490565b6118e8565b600180610f006106ee565b6008811115610f1157610f116125d0565b14610f78576040517f08c379a000000000000000000000000000000000000000000000000000000000815260206004820152600960248201527f4241445f5048415345000000000000000000000000000000000000000000000060448201526064016108cb565b60026009541415610fe5576040517f08c379a000000000000000000000000000000000000000000000000000000000815260206004820152601f60248201527f5265656e7472616e637947756172643a207265656e7472616e742063616c6c0060448201526064016108cb565b60026009556000610ff560065490565b905061100133846118e8565b60005b84811015611192576000868683818110611020576110206129c4565b905060200201602081019061103591906125b3565b6040517f70a082310000000000000000000000000000000000000000000000000000000081523060048201529091506000908490879073ffffffffffffffffffffffffffffffffffffffff8516906370a0823190602401602060405180830381865afa1580156110a9573d6000803e3d6000fd5b505050506040513d601f19601f820116820180604052508101906110cd9190612aa5565b6110d79190612abe565b6110e19190612afb565b90508173ffffffffffffffffffffffffffffffffffffffff163373ffffffffffffffffffffffffffffffffffffffff167ff8eb02c03b445447861a4fda33b7470adf3b693b314b35a1efb8203edc28d65660405180604001604052808a8152602001858152506040516111549190612b36565b60405180910390a361117d73ffffffffffffffffffffffffffffffffffffffff83163383611cf9565b5050808061118a90612a22565b915050611004565b5050600160095550505050565b6000808260088111156111b4576111b46125d0565b14156111c2575060006106a2565b600060018360088111156111d8576111d86125d0565b6111e29190612a73565b6111ed906020612abe565b9390931c63ffffffff169392505050565b73ffffffffffffffffffffffffffffffffffffffff83166112a0576040517f08c379a0000000000000000000000000000000000000000000000000000000008152602060048201526024808201527f45524332303a20617070726f76652066726f6d20746865207a65726f2061646460448201527f726573730000000000000000000000000000000000000000000000000000000060648201526084016108cb565b73ffffffffffffffffffffffffffffffffffffffff8216611343576040517f08c379a000000000000000000000000000000000000000000000000000000000815260206004820152602260248201527f45524332303a20617070726f766520746f20746865207a65726f20616464726560448201527f737300000000000000000000000000000000000000000000000000000000000060648201526084016108cb565b73ffffffffffffffffffffffffffffffffffffffff83811660008181526005602090815260408083209487168084529482529182902085905590518481527f8c5be1e5ebec7d5bd14f71427d1e84f3dd0314c0f7b2291e5b200ac8c7c3b925910160405180910390a3505050565b73ffffffffffffffffffffffffffffffffffffffff8316611454576040517f08c379a000000000000000000000000000000000000000000000000000000000815260206004820152602560248201527f45524332303a207472616e736665722066726f6d20746865207a65726f20616460448201527f647265737300000000000000000000000000000000000000000000000000000060648201526084016108cb565b73ffffffffffffffffffffffffffffffffffffffff82166114f7576040517f08c379a000000000000000000000000000000000000000000000000000000000815260206004820152602360248201527f45524332303a207472616e7366657220746f20746865207a65726f206164647260448201527f657373000000000000000000000000000000000000000000000000000000000060648201526084016108cb565b611502838383611d86565b73ffffffffffffffffffffffffffffffffffffffff8316600090815260046020526040902054818110156115b8576040517f08c379a000000000000000000000000000000000000000000000000000000000815260206004820152602660248201527f45524332303a207472616e7366657220616d6f756e742065786365656473206260448201527f616c616e6365000000000000000000000000000000000000000000000000000060648201526084016108cb565b73ffffffffffffffffffffffffffffffffffffffff8085166000908152600460205260408082208585039055918516815290812080548492906115fc908490612a5b565b925050819055508273ffffffffffffffffffffffffffffffffffffffff168473ffffffffffffffffffffffffffffffffffffffff167fddf252ad1be2c89b69c2b068fc378daa952ba7f163c4a11628f55a4df523b3ef8460405161166291815260200190565b60405180910390a35b50505050565b60008281526020818152604080832073ffffffffffffffffffffffffffffffffffffffff8516845290915290205460ff16610a35576116c78173ffffffffffffffffffffffffffffffffffffffff166014611fee565b6116d2836020611fee565b6040516020016116e3929190612b67565b604080517fffffffffffffffffffffffffffffffffffffffffffffffffffffffffffffffe0818403018152908290527f08c379a00000000000000000000000000000000000000000000000000000000082526108cb91600401612675565b60008281526020818152604080832073ffffffffffffffffffffffffffffffffffffffff8516845290915290205460ff16610a355760008281526020818152604080832073ffffffffffffffffffffffffffffffffffffffff85168452909152902080547fffffffffffffffffffffffffffffffffffffffffffffffffffffffffffffff001660011790556117d33390565b73ffffffffffffffffffffffffffffffffffffffff168173ffffffffffffffffffffffffffffffffffffffff16837f2f8788117e7eff1d82e926ec794901d17c78024a50270940304540a733656f0d60405160405180910390a45050565b60008281526020818152604080832073ffffffffffffffffffffffffffffffffffffffff8516845290915290205460ff1615610a355760008281526020818152604080832073ffffffffffffffffffffffffffffffffffffffff8516808552925280832080547fffffffffffffffffffffffffffffffffffffffffffffffffffffffffffffff0016905551339285917ff6391f5c32d9c69d2a47ea670b442974b53935d1edc7fd64eb21e047a839171b9190a45050565b73ffffffffffffffffffffffffffffffffffffffff821661198b576040517f08c379a000000000000000000000000000000000000000000000000000000000815260206004820152602160248201527f45524332303a206275726e2066726f6d20746865207a65726f2061646472657360448201527f730000000000000000000000000000000000000000000000000000000000000060648201526084016108cb565b61199782600083611d86565b73ffffffffffffffffffffffffffffffffffffffff821660009081526004602052604090205481811015611a4d576040517f08c379a000000000000000000000000000000000000000000000000000000000815260206004820152602260248201527f45524332303a206275726e20616d6f756e7420657863656564732062616c616e60448201527f636500000000000000000000000000000000000000000000000000000000000060648201526084016108cb565b73ffffffffffffffffffffffffffffffffffffffff83166000908152600460205260408120838303905560068054849290611a89908490612a73565b909155505060405182815260009073ffffffffffffffffffffffffffffffffffffffff8516907fddf252ad1be2c89b69c2b068fc378daa952ba7f163c4a11628f55a4df523b3ef9060200160405180910390a3505050565b8063ffffffff164363ffffffff161115611b57576040517f08c379a000000000000000000000000000000000000000000000000000000000815260206004820152600f60248201527f4e4558545f424c4f434b5f50415354000000000000000000000000000000000060448201526064016108cb565b63ffffffff81811610611bc6576040517f08c379a000000000000000000000000000000000000000000000000000000000815260206004820152601860248201527f4e4558545f424c4f434b5f554e494e495449414c495a4544000000000000000060448201526064016108cb565b6000611bd06106ee565b6008811115611be157611be16125d0565b905060018160088110611bf657611bf66129c4565b60088104919091015460079091166004026101000a900463ffffffff90811614611c7c576040517f08c379a000000000000000000000000000000000000000000000000000000000815260206004820152600e60248201527f4e4558545f424c4f434b5f53455400000000000000000000000000000000000060448201526064016108cb565b611c8582612231565b8160018260088110611c9957611c996129c4565b600891828204019190066004026101000a81548163ffffffff021916908363ffffffff1602179055508163ffffffff167f260aac5b840edc27b89fdf50e91311a413363a400959466e1049e6d071b8cee260405160405180910390a25050565b6040805173ffffffffffffffffffffffffffffffffffffffff8416602482015260448082018490528251808303909101815260649091019091526020810180517bffffffffffffffffffffffffffffffffffffffffffffffffffffffff167fa9059cbb00000000000000000000000000000000000000000000000000000000179052610914908490612259565b73ffffffffffffffffffffffffffffffffffffffff8216301415611e06576040517f08c379a000000000000000000000000000000000000000000000000000000000815260206004820152600f60248201527f544f4b454e5f53454e445f53454c46000000000000000000000000000000000060448201526064016108cb565b600081118015611eaa575073ffffffffffffffffffffffffffffffffffffffff831660009081527f9a0d215c00497255011eb0973f942f7752a1a74d5ec9bc8f8c4d90f50306065b602052604090205460ff1680611ea8575073ffffffffffffffffffffffffffffffffffffffff821660009081527f78118ee238ffa7afb4215a58988beb641ad528fd3baede9227273fbcd8fa79ff602052604090205460ff165b155b15610914576000611eb96106ee565b6008811115611eca57611eca6125d0565b1415611f4757600a54611ee190839060ff16610af2565b610914576040517f08c379a000000000000000000000000000000000000000000000000000000000815260206004820152600860248201527f4d494e5f5449455200000000000000000000000000000000000000000000000060448201526064016108cb565b6001611f516106ee565b6008811115611f6257611f626125d0565b1415611fe65773ffffffffffffffffffffffffffffffffffffffff821615610914576040517f08c379a000000000000000000000000000000000000000000000000000000000815260206004820152600660248201527f46524f5a454e000000000000000000000000000000000000000000000000000060448201526064016108cb565b610914612be8565b60606000611ffd836002612abe565b612008906002612a5b565b67ffffffffffffffff8111156120205761202061277c565b6040519080825280601f01601f19166020018201604052801561204a576020820181803683370190505b5090507f300000000000000000000000000000000000000000000000000000000000000081600081518110612081576120816129c4565b60200101907effffffffffffffffffffffffffffffffffffffffffffffffffffffffffffff1916908160001a9053507f7800000000000000000000000000000000000000000000000000000000000000816001815181106120e4576120e46129c4565b60200101907effffffffffffffffffffffffffffffffffffffffffffffffffffffffffffff1916908160001a9053506000612120846002612abe565b61212b906001612a5b565b90505b60018111156121c8577f303132333435363738396162636465660000000000000000000000000000000085600f166010811061216c5761216c6129c4565b1a60f81b828281518110612182576121826129c4565b60200101907effffffffffffffffffffffffffffffffffffffffffffffffffffffffffffff1916908160001a90535060049490941c936121c181612c17565b905061212e565b5083156108e7576040517f08c379a000000000000000000000000000000000000000000000000000000000815260206004820181905260248201527f537472696e67733a20686578206c656e67746820696e73756666696369656e7460448201526064016108cb565b600261223b6106ee565b600881111561224c5761224c6125d0565b10610a8c57610a8c612be8565b60006122bb826040518060400160405280602081526020017f5361666545524332303a206c6f772d6c6576656c2063616c6c206661696c65648152508573ffffffffffffffffffffffffffffffffffffffff166123659092919063ffffffff16565b80519091501561091457808060200190518101906122d99190612c4c565b610914576040517f08c379a000000000000000000000000000000000000000000000000000000000815260206004820152602a60248201527f5361666545524332303a204552433230206f7065726174696f6e20646964206e60448201527f6f7420737563636565640000000000000000000000000000000000000000000060648201526084016108cb565b6060612374848460008561237c565b949350505050565b60608247101561240e576040517f08c379a000000000000000000000000000000000000000000000000000000000815260206004820152602660248201527f416464726573733a20696e73756666696369656e742062616c616e636520666f60448201527f722063616c6c000000000000000000000000000000000000000000000000000060648201526084016108cb565b843b612476576040517f08c379a000000000000000000000000000000000000000000000000000000000815260206004820152601d60248201527f416464726573733a2063616c6c20746f206e6f6e2d636f6e747261637400000060448201526064016108cb565b6000808673ffffffffffffffffffffffffffffffffffffffff16858760405161249f9190612c6e565b60006040518083038185875af1925050503d80600081146124dc576040519150601f19603f3d011682016040523d82523d6000602084013e6124e1565b606091505b50915091506124f18282866124fc565b979650505050505050565b6060831561250b5750816108e7565b82511561251b5782518084602001fd5b816040517f08c379a00000000000000000000000000000000000000000000000000000000081526004016108cb9190612675565b60006020828403121561256157600080fd5b81357fffffffff00000000000000000000000000000000000000000000000000000000811681146108e757600080fd5b73ffffffffffffffffffffffffffffffffffffffff81168114610a8c57600080fd5b6000602082840312156125c557600080fd5b81356108e781612591565b7f4e487b7100000000000000000000000000000000000000000000000000000000600052602160045260246000fd5b60098110610a8c577f4e487b7100000000000000000000000000000000000000000000000000000000600052602160045260246000fd5b60208101612643836125ff565b91905290565b60005b8381101561266457818101518382015260200161264c565b8381111561166b5750506000910152565b6020815260008251806020840152612694816040850160208701612649565b601f017fffffffffffffffffffffffffffffffffffffffffffffffffffffffffffffffe0169190910160400192915050565b600080604083850312156126d957600080fd5b82356126e481612591565b946020939093013593505050565b60008060006060848603121561270757600080fd5b833561271281612591565b9250602084013561272281612591565b929592945050506040919091013590565b60006020828403121561274557600080fd5b5035919050565b6000806040838503121561275f57600080fd5b82359150602083013561277181612591565b809150509250929050565b7f4e487b7100000000000000000000000000000000000000000000000000000000600052604160045260246000fd5b803563ffffffff811681146127bf57600080fd5b919050565b60008061012083850312156127d857600080fd5b83601f8401126127e757600080fd5b60405161010080820182811067ffffffffffffffff8211171561280c5761280c61277c565b6040528401818682111561281f57600080fd5b855b8281101561284057612832816127ab565b825260209182019101612821565b505081935061284e816127ab565b925050509250929050565b60098110610a8c57600080fd5b600080610120838503121561287a57600080fd5b61010083018481111561288c57600080fd5b8392503561277181612859565b600080604083850312156128ac57600080fd5b82356128b781612591565b9150602083013561277181612859565b600080604083850312156128da57600080fd5b82356128e581612591565b9150602083013561277181612591565b60008060006040848603121561290a57600080fd5b833567ffffffffffffffff8082111561292257600080fd5b818601915086601f83011261293657600080fd5b81358181111561294557600080fd5b8760208260051b850101111561295a57600080fd5b6020928301989097509590910135949350505050565b600181811c9082168061298457607f821691505b602082108114156129be577f4e487b7100000000000000000000000000000000000000000000000000000000600052602260045260246000fd5b50919050565b7f4e487b7100000000000000000000000000000000000000000000000000000000600052603260045260246000fd5b7f4e487b7100000000000000000000000000000000000000000000000000000000600052601160045260246000fd5b60007fffffffffffffffffffffffffffffffffffffffffffffffffffffffffffffffff821415612a5457612a546129f3565b5060010190565b60008219821115612a6e57612a6e6129f3565b500190565b600082821015612a8557612a856129f3565b500390565b600060208284031215612a9c57600080fd5b6108e7826127ab565b600060208284031215612ab757600080fd5b5051919050565b6000817fffffffffffffffffffffffffffffffffffffffffffffffffffffffffffffffff0483118215151615612af657612af66129f3565b500290565b600082612b31577f4e487b7100000000000000000000000000000000000000000000000000000000600052601260045260246000fd5b500490565b60408101818360005b6002811015612b5e578151835260209283019290910190600101612b3f565b50505092915050565b7f416363657373436f6e74726f6c3a206163636f756e7420000000000000000000815260008351612b9f816017850160208801612649565b7f206973206d697373696e6720726f6c65200000000000000000000000000000006017918401918201528351612bdc816028840160208801612649565b01602801949350505050565b7f4e487b7100000000000000000000000000000000000000000000000000000000600052600160045260246000fd5b600081612c2657612c266129f3565b507fffffffffffffffffffffffffffffffffffffffffffffffffffffffffffffffff0190565b600060208284031215612c5e57600080fd5b815180151581146108e757600080fd5b60008251612c80818460208701612649565b919091019291505056fea2646970667358221220c1d5c97dc848ee912b70e044414cee0e3fa51fdfe5e76264a13b1a811276d6f264736f6c634300080a0033cf2b1209506b76f140fb1bc5fe66d6e42627c4b9703a951d65552f50f14c9ee794201143cc0a32610f14f8f185ebb23e4ca60f1758e49668647d0879b1e81f0b",
  "linkReferences": {},
  "deployedLinkReferences": {}
}