{
  "contracts/test/ValueTierTest.sol": {
    "ValueTierTest": {
      "abi": [
        {
          "inputs": [
            {
              "internalType": "uint256[8]",
              "name": "tierValues_",
              "type": "uint256[8]"
            }
          ],
          "stateMutability": "nonpayable",
          "type": "constructor"
        },
        {
          "inputs": [],
          "name": "tierValues",
          "outputs": [
            {
              "internalType": "uint256[8]",
              "name": "tierValues_",
              "type": "uint256[8]"
            }
          ],
          "stateMutability": "view",
          "type": "function"
        },
        {
          "inputs": [
            {
              "internalType": "enum ITier.Tier",
              "name": "tier_",
              "type": "uint8"
            }
          ],
          "name": "wrappedTierToValue",
          "outputs": [
            {
              "internalType": "uint256",
              "name": "",
              "type": "uint256"
            }
          ],
          "stateMutability": "view",
          "type": "function"
        },
        {
          "inputs": [
            {
              "internalType": "uint256",
              "name": "value_",
              "type": "uint256"
            }
          ],
          "name": "wrappedValueToTier",
          "outputs": [
            {
              "internalType": "enum ITier.Tier",
              "name": "",
              "type": "uint8"
            }
          ],
          "stateMutability": "view",
          "type": "function"
        }
      ],
      "evm": {
        "bytecode": {
          "linkReferences": {},
          "object": "61018060405234801561001157600080fd5b5060405161058438038061058483398101604081905261003091610077565b80516080908152602082015160a0908152604083015160c0908152606084015160e09081529284015161010052908301516101205282015161014052015161016052610103565b600061010080838503121561008b57600080fd5b83601f84011261009a57600080fd5b6040518181016001600160401b03811182821017156100c957634e487b7160e01b600052604160045260246000fd5b6040529083019080858311156100de57600080fd5b845b838110156100f85780518252602091820191016100e0565b509095945050505050565b60805160a05160c05160e0516101005161012051610140516101605161041e61016660003960006101d2015260006101ac01526000610186015260006101600152600061013a015260006101140152600060ee0152600060cb015261041e6000f3fe608060405234801561001057600080fd5b50600436106100415760003560e01c80634bc1010e146100465780635d2c11171461006f57806370230b3914610090575b600080fd5b6100596100543660046102e0565b6100a5565b604051610066919061030f565b60405180910390f35b61008261007d366004610337565b6100b6565b604051908152602001610066565b6100986100c1565b6040516100669190610358565b60006100b0826101f9565b92915050565b60006100b08261025f565b6100c96102c1565b7f000000000000000000000000000000000000000000000000000000000000000081527f000000000000000000000000000000000000000000000000000000000000000060208201527f000000000000000000000000000000000000000000000000000000000000000060408201527f000000000000000000000000000000000000000000000000000000000000000060608201527f000000000000000000000000000000000000000000000000000000000000000060808201527f000000000000000000000000000000000000000000000000000000000000000060a08201527f000000000000000000000000000000000000000000000000000000000000000060c08201527f000000000000000000000000000000000000000000000000000000000000000060e082015290565b6000805b60088110156102565761020e6100c1565b816008811061021f5761021f61038a565b60200201518310156102445780600881111561023d5761023d6102f9565b9392505050565b8061024e816103b6565b9150506101fd565b50600892915050565b600080826008811115610274576102746102f9565b116102805760006100b0565b6102886100c1565b600183600881111561029c5761029c6102f9565b6102a691906103d1565b600881106102b6576102b661038a565b602002015192915050565b6040518061010001604052806008906020820280368337509192915050565b6000602082840312156102f257600080fd5b5035919050565b634e487b7160e01b600052602160045260246000fd5b602081016009831061033157634e487b7160e01b600052602160045260246000fd5b91905290565b60006020828403121561034957600080fd5b81356009811061023d57600080fd5b6101008101818360005b6008811015610381578151835260209283019290910190600101610362565b50505092915050565b634e487b7160e01b600052603260045260246000fd5b634e487b7160e01b600052601160045260246000fd5b60006000198214156103ca576103ca6103a0565b5060010190565b6000828210156103e3576103e36103a0565b50039056fea2646970667358221220afac5e022a3cfac31be2db5c7b95c9ea5ccf81f280fed3c16371e3154fd17aa964736f6c634300080a0033",
          "opcodes": "PUSH2 0x180 PUSH1 0x40 MSTORE CALLVALUE DUP1 ISZERO PUSH2 0x11 JUMPI PUSH1 0x0 DUP1 REVERT JUMPDEST POP PUSH1 0x40 MLOAD PUSH2 0x584 CODESIZE SUB DUP1 PUSH2 0x584 DUP4 CODECOPY DUP2 ADD PUSH1 0x40 DUP2 SWAP1 MSTORE PUSH2 0x30 SWAP2 PUSH2 0x77 JUMP JUMPDEST DUP1 MLOAD PUSH1 0x80 SWAP1 DUP2 MSTORE PUSH1 0x20 DUP3 ADD MLOAD PUSH1 0xA0 SWAP1 DUP2 MSTORE PUSH1 0x40 DUP4 ADD MLOAD PUSH1 0xC0 SWAP1 DUP2 MSTORE PUSH1 0x60 DUP5 ADD MLOAD PUSH1 0xE0 SWAP1 DUP2 MSTORE SWAP3 DUP5 ADD MLOAD PUSH2 0x100 MSTORE SWAP1 DUP4 ADD MLOAD PUSH2 0x120 MSTORE DUP3 ADD MLOAD PUSH2 0x140 MSTORE ADD MLOAD PUSH2 0x160 MSTORE PUSH2 0x103 JUMP JUMPDEST PUSH1 0x0 PUSH2 0x100 DUP1 DUP4 DUP6 SUB SLT ISZERO PUSH2 0x8B JUMPI PUSH1 0x0 DUP1 REVERT JUMPDEST DUP4 PUSH1 0x1F DUP5 ADD SLT PUSH2 0x9A JUMPI PUSH1 0x0 DUP1 REVERT JUMPDEST PUSH1 0x40 MLOAD DUP2 DUP2 ADD PUSH1 0x1 PUSH1 0x1 PUSH1 0x40 SHL SUB DUP2 GT DUP3 DUP3 LT OR ISZERO PUSH2 0xC9 JUMPI PUSH4 0x4E487B71 PUSH1 0xE0 SHL PUSH1 0x0 MSTORE PUSH1 0x41 PUSH1 0x4 MSTORE PUSH1 0x24 PUSH1 0x0 REVERT JUMPDEST PUSH1 0x40 MSTORE SWAP1 DUP4 ADD SWAP1 DUP1 DUP6 DUP4 GT ISZERO PUSH2 0xDE JUMPI PUSH1 0x0 DUP1 REVERT JUMPDEST DUP5 JUMPDEST DUP4 DUP2 LT ISZERO PUSH2 0xF8 JUMPI DUP1 MLOAD DUP3 MSTORE PUSH1 0x20 SWAP2 DUP3 ADD SWAP2 ADD PUSH2 0xE0 JUMP JUMPDEST POP SWAP1 SWAP6 SWAP5 POP POP POP POP POP JUMP JUMPDEST PUSH1 0x80 MLOAD PUSH1 0xA0 MLOAD PUSH1 0xC0 MLOAD PUSH1 0xE0 MLOAD PUSH2 0x100 MLOAD PUSH2 0x120 MLOAD PUSH2 0x140 MLOAD PUSH2 0x160 MLOAD PUSH2 0x41E PUSH2 0x166 PUSH1 0x0 CODECOPY PUSH1 0x0 PUSH2 0x1D2 ADD MSTORE PUSH1 0x0 PUSH2 0x1AC ADD MSTORE PUSH1 0x0 PUSH2 0x186 ADD MSTORE PUSH1 0x0 PUSH2 0x160 ADD MSTORE PUSH1 0x0 PUSH2 0x13A ADD MSTORE PUSH1 0x0 PUSH2 0x114 ADD MSTORE PUSH1 0x0 PUSH1 0xEE ADD MSTORE PUSH1 0x0 PUSH1 0xCB ADD MSTORE PUSH2 0x41E PUSH1 0x0 RETURN INVALID PUSH1 0x80 PUSH1 0x40 MSTORE CALLVALUE DUP1 ISZERO PUSH2 0x10 JUMPI PUSH1 0x0 DUP1 REVERT JUMPDEST POP PUSH1 0x4 CALLDATASIZE LT PUSH2 0x41 JUMPI PUSH1 0x0 CALLDATALOAD PUSH1 0xE0 SHR DUP1 PUSH4 0x4BC1010E EQ PUSH2 0x46 JUMPI DUP1 PUSH4 0x5D2C1117 EQ PUSH2 0x6F JUMPI DUP1 PUSH4 0x70230B39 EQ PUSH2 0x90 JUMPI JUMPDEST PUSH1 0x0 DUP1 REVERT JUMPDEST PUSH2 0x59 PUSH2 0x54 CALLDATASIZE PUSH1 0x4 PUSH2 0x2E0 JUMP JUMPDEST PUSH2 0xA5 JUMP JUMPDEST PUSH1 0x40 MLOAD PUSH2 0x66 SWAP2 SWAP1 PUSH2 0x30F JUMP JUMPDEST PUSH1 0x40 MLOAD DUP1 SWAP2 SUB SWAP1 RETURN JUMPDEST PUSH2 0x82 PUSH2 0x7D CALLDATASIZE PUSH1 0x4 PUSH2 0x337 JUMP JUMPDEST PUSH2 0xB6 JUMP JUMPDEST PUSH1 0x40 MLOAD SWAP1 DUP2 MSTORE PUSH1 0x20 ADD PUSH2 0x66 JUMP JUMPDEST PUSH2 0x98 PUSH2 0xC1 JUMP JUMPDEST PUSH1 0x40 MLOAD PUSH2 0x66 SWAP2 SWAP1 PUSH2 0x358 JUMP JUMPDEST PUSH1 0x0 PUSH2 0xB0 DUP3 PUSH2 0x1F9 JUMP JUMPDEST SWAP3 SWAP2 POP POP JUMP JUMPDEST PUSH1 0x0 PUSH2 0xB0 DUP3 PUSH2 0x25F JUMP JUMPDEST PUSH2 0xC9 PUSH2 0x2C1 JUMP JUMPDEST PUSH32 0x0 DUP2 MSTORE PUSH32 0x0 PUSH1 0x20 DUP3 ADD MSTORE PUSH32 0x0 PUSH1 0x40 DUP3 ADD MSTORE PUSH32 0x0 PUSH1 0x60 DUP3 ADD MSTORE PUSH32 0x0 PUSH1 0x80 DUP3 ADD MSTORE PUSH32 0x0 PUSH1 0xA0 DUP3 ADD MSTORE PUSH32 0x0 PUSH1 0xC0 DUP3 ADD MSTORE PUSH32 0x0 PUSH1 0xE0 DUP3 ADD MSTORE SWAP1 JUMP JUMPDEST PUSH1 0x0 DUP1 JUMPDEST PUSH1 0x8 DUP2 LT ISZERO PUSH2 0x256 JUMPI PUSH2 0x20E PUSH2 0xC1 JUMP JUMPDEST DUP2 PUSH1 0x8 DUP2 LT PUSH2 0x21F JUMPI PUSH2 0x21F PUSH2 0x38A JUMP JUMPDEST PUSH1 0x20 MUL ADD MLOAD DUP4 LT ISZERO PUSH2 0x244 JUMPI DUP1 PUSH1 0x8 DUP2 GT ISZERO PUSH2 0x23D JUMPI PUSH2 0x23D PUSH2 0x2F9 JUMP JUMPDEST SWAP4 SWAP3 POP POP POP JUMP JUMPDEST DUP1 PUSH2 0x24E DUP2 PUSH2 0x3B6 JUMP JUMPDEST SWAP2 POP POP PUSH2 0x1FD JUMP JUMPDEST POP PUSH1 0x8 SWAP3 SWAP2 POP POP JUMP JUMPDEST PUSH1 0x0 DUP1 DUP3 PUSH1 0x8 DUP2 GT ISZERO PUSH2 0x274 JUMPI PUSH2 0x274 PUSH2 0x2F9 JUMP JUMPDEST GT PUSH2 0x280 JUMPI PUSH1 0x0 PUSH2 0xB0 JUMP JUMPDEST PUSH2 0x288 PUSH2 0xC1 JUMP JUMPDEST PUSH1 0x1 DUP4 PUSH1 0x8 DUP2 GT ISZERO PUSH2 0x29C JUMPI PUSH2 0x29C PUSH2 0x2F9 JUMP JUMPDEST PUSH2 0x2A6 SWAP2 SWAP1 PUSH2 0x3D1 JUMP JUMPDEST PUSH1 0x8 DUP2 LT PUSH2 0x2B6 JUMPI PUSH2 0x2B6 PUSH2 0x38A JUMP JUMPDEST PUSH1 0x20 MUL ADD MLOAD SWAP3 SWAP2 POP POP JUMP JUMPDEST PUSH1 0x40 MLOAD DUP1 PUSH2 0x100 ADD PUSH1 0x40 MSTORE DUP1 PUSH1 0x8 SWAP1 PUSH1 0x20 DUP3 MUL DUP1 CALLDATASIZE DUP4 CALLDATACOPY POP SWAP2 SWAP3 SWAP2 POP POP JUMP JUMPDEST PUSH1 0x0 PUSH1 0x20 DUP3 DUP5 SUB SLT ISZERO PUSH2 0x2F2 JUMPI PUSH1 0x0 DUP1 REVERT JUMPDEST POP CALLDATALOAD SWAP2 SWAP1 POP JUMP JUMPDEST PUSH4 0x4E487B71 PUSH1 0xE0 SHL PUSH1 0x0 MSTORE PUSH1 0x21 PUSH1 0x4 MSTORE PUSH1 0x24 PUSH1 0x0 REVERT JUMPDEST PUSH1 0x20 DUP2 ADD PUSH1 0x9 DUP4 LT PUSH2 0x331 JUMPI PUSH4 0x4E487B71 PUSH1 0xE0 SHL PUSH1 0x0 MSTORE PUSH1 0x21 PUSH1 0x4 MSTORE PUSH1 0x24 PUSH1 0x0 REVERT JUMPDEST SWAP2 SWAP1 MSTORE SWAP1 JUMP JUMPDEST PUSH1 0x0 PUSH1 0x20 DUP3 DUP5 SUB SLT ISZERO PUSH2 0x349 JUMPI PUSH1 0x0 DUP1 REVERT JUMPDEST DUP2 CALLDATALOAD PUSH1 0x9 DUP2 LT PUSH2 0x23D JUMPI PUSH1 0x0 DUP1 REVERT JUMPDEST PUSH2 0x100 DUP2 ADD DUP2 DUP4 PUSH1 0x0 JUMPDEST PUSH1 0x8 DUP2 LT ISZERO PUSH2 0x381 JUMPI DUP2 MLOAD DUP4 MSTORE PUSH1 0x20 SWAP3 DUP4 ADD SWAP3 SWAP1 SWAP2 ADD SWAP1 PUSH1 0x1 ADD PUSH2 0x362 JUMP JUMPDEST POP POP POP SWAP3 SWAP2 POP POP JUMP JUMPDEST PUSH4 0x4E487B71 PUSH1 0xE0 SHL PUSH1 0x0 MSTORE PUSH1 0x32 PUSH1 0x4 MSTORE PUSH1 0x24 PUSH1 0x0 REVERT JUMPDEST PUSH4 0x4E487B71 PUSH1 0xE0 SHL PUSH1 0x0 MSTORE PUSH1 0x11 PUSH1 0x4 MSTORE PUSH1 0x24 PUSH1 0x0 REVERT JUMPDEST PUSH1 0x0 PUSH1 0x0 NOT DUP3 EQ ISZERO PUSH2 0x3CA JUMPI PUSH2 0x3CA PUSH2 0x3A0 JUMP JUMPDEST POP PUSH1 0x1 ADD SWAP1 JUMP JUMPDEST PUSH1 0x0 DUP3 DUP3 LT ISZERO PUSH2 0x3E3 JUMPI PUSH2 0x3E3 PUSH2 0x3A0 JUMP JUMPDEST POP SUB SWAP1 JUMP INVALID LOG2 PUSH5 0x6970667358 0x22 SLT KECCAK256 0xAF 0xAC 0x5E MUL 0x2A EXTCODECOPY STATICCALL 0xC3 SHL 0xE2 0xDB 0x5C PUSH28 0x95C9EA5CCF81F280FED3C16371E3154FD17AA964736F6C634300080A STOP CALLER "
        },
        "methodIdentifiers": {
          "tierValues()": "70230b39",
          "wrappedTierToValue(uint8)": "5d2c1117",
          "wrappedValueToTier(uint256)": "4bc1010e"
        }
      }
    }
  }
}