{
  "contracts/tier/TierByConstruction.sol": {
    "TierByConstruction": {
      "abi": [
        {
          "inputs": [
            {
              "internalType": "contract ITier",
              "name": "tierContract_",
              "type": "address"
            }
          ],
          "stateMutability": "nonpayable",
          "type": "constructor"
        },
        {
          "inputs": [],
          "name": "constructionBlock",
          "outputs": [
            {
              "internalType": "uint256",
              "name": "",
              "type": "uint256"
            }
          ],
          "stateMutability": "view",
          "type": "function"
        },
        {
          "inputs": [
            {
              "internalType": "address",
              "name": "account_",
              "type": "address"
            },
            {
              "internalType": "enum ITier.Tier",
              "name": "minimumTier_",
              "type": "uint8"
            }
          ],
          "name": "isTier",
          "outputs": [
            {
              "internalType": "bool",
              "name": "",
              "type": "bool"
            }
          ],
          "stateMutability": "view",
          "type": "function"
        },
        {
          "inputs": [],
          "name": "tierContract",
          "outputs": [
            {
              "internalType": "contract ITier",
              "name": "",
              "type": "address"
            }
          ],
          "stateMutability": "view",
          "type": "function"
        }
      ],
      "evm": {
        "bytecode": {
          "linkReferences": {},
          "object": "608060405234801561001057600080fd5b5060405161032538038061032583398101604081905261002f91610058565b600080546001600160a01b0319166001600160a01b039290921691909117905543600155610088565b60006020828403121561006a57600080fd5b81516001600160a01b038116811461008157600080fd5b9392505050565b61028e806100976000396000f3fe608060405234801561001057600080fd5b50600436106100415760003560e01c80630f0af57f1461004657806377544f3314610062578063a30872db14610085575b600080fd5b61004f60015481565b6040519081526020015b60405180910390f35b610075610070366004610194565b6100b0565b6040519015158152602001610059565b600054610098906001600160a01b031681565b6040516001600160a01b039091168152602001610059565b6000805460405163e053ea3160e01b81526001600160a01b03858116600483015261012792169063e053ea3190602401602060405180830381865afa1580156100fd573d6000803e3d6000fd5b505050506040513d601f19601f8201168201806040525081019061012191906101dd565b83610135565b600154101590505b92915050565b60008082600881111561014a5761014a6101f6565b14156101585750600061012f565b6000600183600881111561016e5761016e6101f6565b6101789190610222565b610183906020610239565b9390931c63ffffffff169392505050565b600080604083850312156101a757600080fd5b82356001600160a01b03811681146101be57600080fd5b91506020830135600981106101d257600080fd5b809150509250929050565b6000602082840312156101ef57600080fd5b5051919050565b634e487b7160e01b600052602160045260246000fd5b634e487b7160e01b600052601160045260246000fd5b6000828210156102345761023461020c565b500390565b60008160001904831182151516156102535761025361020c565b50029056fea2646970667358221220406e674b8078a36de45259223cf9f63de9d3941e467ddf4c4eab99688745541e64736f6c634300080a0033",
          "opcodes": "PUSH1 0x80 PUSH1 0x40 MSTORE CALLVALUE DUP1 ISZERO PUSH2 0x10 JUMPI PUSH1 0x0 DUP1 REVERT JUMPDEST POP PUSH1 0x40 MLOAD PUSH2 0x325 CODESIZE SUB DUP1 PUSH2 0x325 DUP4 CODECOPY DUP2 ADD PUSH1 0x40 DUP2 SWAP1 MSTORE PUSH2 0x2F SWAP2 PUSH2 0x58 JUMP JUMPDEST PUSH1 0x0 DUP1 SLOAD PUSH1 0x1 PUSH1 0x1 PUSH1 0xA0 SHL SUB NOT AND PUSH1 0x1 PUSH1 0x1 PUSH1 0xA0 SHL SUB SWAP3 SWAP1 SWAP3 AND SWAP2 SWAP1 SWAP2 OR SWAP1 SSTORE NUMBER PUSH1 0x1 SSTORE PUSH2 0x88 JUMP JUMPDEST PUSH1 0x0 PUSH1 0x20 DUP3 DUP5 SUB SLT ISZERO PUSH2 0x6A JUMPI PUSH1 0x0 DUP1 REVERT JUMPDEST DUP2 MLOAD PUSH1 0x1 PUSH1 0x1 PUSH1 0xA0 SHL SUB DUP2 AND DUP2 EQ PUSH2 0x81 JUMPI PUSH1 0x0 DUP1 REVERT JUMPDEST SWAP4 SWAP3 POP POP POP JUMP JUMPDEST PUSH2 0x28E DUP1 PUSH2 0x97 PUSH1 0x0 CODECOPY PUSH1 0x0 RETURN INVALID PUSH1 0x80 PUSH1 0x40 MSTORE CALLVALUE DUP1 ISZERO PUSH2 0x10 JUMPI PUSH1 0x0 DUP1 REVERT JUMPDEST POP PUSH1 0x4 CALLDATASIZE LT PUSH2 0x41 JUMPI PUSH1 0x0 CALLDATALOAD PUSH1 0xE0 SHR DUP1 PUSH4 0xF0AF57F EQ PUSH2 0x46 JUMPI DUP1 PUSH4 0x77544F33 EQ PUSH2 0x62 JUMPI DUP1 PUSH4 0xA30872DB EQ PUSH2 0x85 JUMPI JUMPDEST PUSH1 0x0 DUP1 REVERT JUMPDEST PUSH2 0x4F PUSH1 0x1 SLOAD DUP2 JUMP JUMPDEST PUSH1 0x40 MLOAD SWAP1 DUP2 MSTORE PUSH1 0x20 ADD JUMPDEST PUSH1 0x40 MLOAD DUP1 SWAP2 SUB SWAP1 RETURN JUMPDEST PUSH2 0x75 PUSH2 0x70 CALLDATASIZE PUSH1 0x4 PUSH2 0x194 JUMP JUMPDEST PUSH2 0xB0 JUMP JUMPDEST PUSH1 0x40 MLOAD SWAP1 ISZERO ISZERO DUP2 MSTORE PUSH1 0x20 ADD PUSH2 0x59 JUMP JUMPDEST PUSH1 0x0 SLOAD PUSH2 0x98 SWAP1 PUSH1 0x1 PUSH1 0x1 PUSH1 0xA0 SHL SUB AND DUP2 JUMP JUMPDEST PUSH1 0x40 MLOAD PUSH1 0x1 PUSH1 0x1 PUSH1 0xA0 SHL SUB SWAP1 SWAP2 AND DUP2 MSTORE PUSH1 0x20 ADD PUSH2 0x59 JUMP JUMPDEST PUSH1 0x0 DUP1 SLOAD PUSH1 0x40 MLOAD PUSH4 0xE053EA31 PUSH1 0xE0 SHL DUP2 MSTORE PUSH1 0x1 PUSH1 0x1 PUSH1 0xA0 SHL SUB DUP6 DUP2 AND PUSH1 0x4 DUP4 ADD MSTORE PUSH2 0x127 SWAP3 AND SWAP1 PUSH4 0xE053EA31 SWAP1 PUSH1 0x24 ADD PUSH1 0x20 PUSH1 0x40 MLOAD DUP1 DUP4 SUB DUP2 DUP7 GAS STATICCALL ISZERO DUP1 ISZERO PUSH2 0xFD JUMPI RETURNDATASIZE PUSH1 0x0 DUP1 RETURNDATACOPY RETURNDATASIZE PUSH1 0x0 REVERT JUMPDEST POP POP POP POP PUSH1 0x40 MLOAD RETURNDATASIZE PUSH1 0x1F NOT PUSH1 0x1F DUP3 ADD AND DUP3 ADD DUP1 PUSH1 0x40 MSTORE POP DUP2 ADD SWAP1 PUSH2 0x121 SWAP2 SWAP1 PUSH2 0x1DD JUMP JUMPDEST DUP4 PUSH2 0x135 JUMP JUMPDEST PUSH1 0x1 SLOAD LT ISZERO SWAP1 POP JUMPDEST SWAP3 SWAP2 POP POP JUMP JUMPDEST PUSH1 0x0 DUP1 DUP3 PUSH1 0x8 DUP2 GT ISZERO PUSH2 0x14A JUMPI PUSH2 0x14A PUSH2 0x1F6 JUMP JUMPDEST EQ ISZERO PUSH2 0x158 JUMPI POP PUSH1 0x0 PUSH2 0x12F JUMP JUMPDEST PUSH1 0x0 PUSH1 0x1 DUP4 PUSH1 0x8 DUP2 GT ISZERO PUSH2 0x16E JUMPI PUSH2 0x16E PUSH2 0x1F6 JUMP JUMPDEST PUSH2 0x178 SWAP2 SWAP1 PUSH2 0x222 JUMP JUMPDEST PUSH2 0x183 SWAP1 PUSH1 0x20 PUSH2 0x239 JUMP JUMPDEST SWAP4 SWAP1 SWAP4 SHR PUSH4 0xFFFFFFFF AND SWAP4 SWAP3 POP POP POP JUMP JUMPDEST PUSH1 0x0 DUP1 PUSH1 0x40 DUP4 DUP6 SUB SLT ISZERO PUSH2 0x1A7 JUMPI PUSH1 0x0 DUP1 REVERT JUMPDEST DUP3 CALLDATALOAD PUSH1 0x1 PUSH1 0x1 PUSH1 0xA0 SHL SUB DUP2 AND DUP2 EQ PUSH2 0x1BE JUMPI PUSH1 0x0 DUP1 REVERT JUMPDEST SWAP2 POP PUSH1 0x20 DUP4 ADD CALLDATALOAD PUSH1 0x9 DUP2 LT PUSH2 0x1D2 JUMPI PUSH1 0x0 DUP1 REVERT JUMPDEST DUP1 SWAP2 POP POP SWAP3 POP SWAP3 SWAP1 POP JUMP JUMPDEST PUSH1 0x0 PUSH1 0x20 DUP3 DUP5 SUB SLT ISZERO PUSH2 0x1EF JUMPI PUSH1 0x0 DUP1 REVERT JUMPDEST POP MLOAD SWAP2 SWAP1 POP JUMP JUMPDEST PUSH4 0x4E487B71 PUSH1 0xE0 SHL PUSH1 0x0 MSTORE PUSH1 0x21 PUSH1 0x4 MSTORE PUSH1 0x24 PUSH1 0x0 REVERT JUMPDEST PUSH4 0x4E487B71 PUSH1 0xE0 SHL PUSH1 0x0 MSTORE PUSH1 0x11 PUSH1 0x4 MSTORE PUSH1 0x24 PUSH1 0x0 REVERT JUMPDEST PUSH1 0x0 DUP3 DUP3 LT ISZERO PUSH2 0x234 JUMPI PUSH2 0x234 PUSH2 0x20C JUMP JUMPDEST POP SUB SWAP1 JUMP JUMPDEST PUSH1 0x0 DUP2 PUSH1 0x0 NOT DIV DUP4 GT DUP3 ISZERO ISZERO AND ISZERO PUSH2 0x253 JUMPI PUSH2 0x253 PUSH2 0x20C JUMP JUMPDEST POP MUL SWAP1 JUMP INVALID LOG2 PUSH5 0x6970667358 0x22 SLT KECCAK256 BLOCKHASH PUSH15 0x674B8078A36DE45259223CF9F63DE9 0xD3 SWAP5 0x1E CHAINID PUSH30 0xDF4C4EAB99688745541E64736F6C634300080A0033000000000000000000 "
        },
        "methodIdentifiers": {
          "constructionBlock()": "0f0af57f",
          "isTier(address,uint8)": "77544f33",
          "tierContract()": "a30872db"
        }
      }
    }
  }
}