{
  "contracts/libraries/TierUtil.sol": {
    "TierUtil": {
      "abi": [
        {
          "inputs": [],
          "name": "UNINITIALIZED",
          "outputs": [
            {
              "internalType": "uint256",
              "name": "",
              "type": "uint256"
            }
          ],
          "stateMutability": "view",
          "type": "function"
        }
      ],
      "evm": {
        "bytecode": {
          "linkReferences": {},
          "object": "6088610038600b82828239805160001a607314602b57634e487b7160e01b600052600060045260246000fd5b30600052607381538281f3fe730000000000000000000000000000000000000000301460806040526004361060335760003560e01c806381e45d9a146038575b600080fd5b604060001981565b60405190815260200160405180910390f3fea264697066735822122053de61ff2ad15f2cbe303a1649109f365de0abfa880cd2e9d2f26f2023f9fd4364736f6c634300080a0033",
          "opcodes": "PUSH1 0x88 PUSH2 0x38 PUSH1 0xB DUP3 DUP3 DUP3 CODECOPY DUP1 MLOAD PUSH1 0x0 BYTE PUSH1 0x73 EQ PUSH1 0x2B JUMPI PUSH4 0x4E487B71 PUSH1 0xE0 SHL PUSH1 0x0 MSTORE PUSH1 0x0 PUSH1 0x4 MSTORE PUSH1 0x24 PUSH1 0x0 REVERT JUMPDEST ADDRESS PUSH1 0x0 MSTORE PUSH1 0x73 DUP2 MSTORE8 DUP3 DUP2 RETURN INVALID PUSH20 0x0 ADDRESS EQ PUSH1 0x80 PUSH1 0x40 MSTORE PUSH1 0x4 CALLDATASIZE LT PUSH1 0x33 JUMPI PUSH1 0x0 CALLDATALOAD PUSH1 0xE0 SHR DUP1 PUSH4 0x81E45D9A EQ PUSH1 0x38 JUMPI JUMPDEST PUSH1 0x0 DUP1 REVERT JUMPDEST PUSH1 0x40 PUSH1 0x0 NOT DUP2 JUMP JUMPDEST PUSH1 0x40 MLOAD SWAP1 DUP2 MSTORE PUSH1 0x20 ADD PUSH1 0x40 MLOAD DUP1 SWAP2 SUB SWAP1 RETURN INVALID LOG2 PUSH5 0x6970667358 0x22 SLT KECCAK256 MSTORE8 0xDE PUSH2 0xFF2A 0xD1 0x5F 0x2C 0xBE ADDRESS GASPRICE AND 0x49 LT SWAP16 CALLDATASIZE 0x5D 0xE0 0xAB STATICCALL DUP9 0xC 0xD2 0xE9 0xD2 CALLCODE PUSH16 0x2023F9FD4364736F6C634300080A0033 "
        },
        "methodIdentifiers": {
          "UNINITIALIZED()": "81e45d9a"
        }
      }
    }
  }
}