{
  "contracts/test/TierByConstructionTest.sol": {
    "TierByConstructionTest": {
      "abi": [
        {
          "inputs": [
            {
              "internalType": "contract ITier",
              "name": "tier_",
              "type": "address"
            }
          ],
          "stateMutability": "nonpayable",
          "type": "constructor"
        },
        {
          "inputs": [],
          "name": "constructionBlock",
          "outputs": [
            {
              "internalType": "uint256",
              "name": "",
              "type": "uint256"
            }
          ],
          "stateMutability": "view",
          "type": "function"
        },
        {
          "inputs": [],
          "name": "ifEight",
          "outputs": [],
          "stateMutability": "view",
          "type": "function"
        },
        {
          "inputs": [],
          "name": "ifFive",
          "outputs": [],
          "stateMutability": "view",
          "type": "function"
        },
        {
          "inputs": [],
          "name": "ifFour",
          "outputs": [],
          "stateMutability": "view",
          "type": "function"
        },
        {
          "inputs": [],
          "name": "ifOne",
          "outputs": [],
          "stateMutability": "view",
          "type": "function"
        },
        {
          "inputs": [],
          "name": "ifSeven",
          "outputs": [],
          "stateMutability": "view",
          "type": "function"
        },
        {
          "inputs": [],
          "name": "ifSix",
          "outputs": [],
          "stateMutability": "view",
          "type": "function"
        },
        {
          "inputs": [],
          "name": "ifThree",
          "outputs": [],
          "stateMutability": "view",
          "type": "function"
        },
        {
          "inputs": [],
          "name": "ifTwo",
          "outputs": [],
          "stateMutability": "view",
          "type": "function"
        },
        {
          "inputs": [],
          "name": "ifZero",
          "outputs": [],
          "stateMutability": "view",
          "type": "function"
        },
        {
          "inputs": [
            {
              "internalType": "address",
              "name": "account_",
              "type": "address"
            },
            {
              "internalType": "enum ITier.Tier",
              "name": "minimumTier_",
              "type": "uint8"
            }
          ],
          "name": "isTier",
          "outputs": [
            {
              "internalType": "bool",
              "name": "",
              "type": "bool"
            }
          ],
          "stateMutability": "view",
          "type": "function"
        },
        {
          "inputs": [],
          "name": "tierContract",
          "outputs": [
            {
              "internalType": "contract ITier",
              "name": "",
              "type": "address"
            }
          ],
          "stateMutability": "view",
          "type": "function"
        },
        {
          "inputs": [],
          "name": "unlimited",
          "outputs": [],
          "stateMutability": "view",
          "type": "function"
        }
      ],
      "evm": {
        "bytecode": {
          "linkReferences": {},
          "object": "608060405234801561001057600080fd5b506040516104b13803806104b183398101604081905261002f91610058565b600080546001600160a01b0319166001600160a01b039290921691909117905543600155610088565b60006020828403121561006a57600080fd5b81516001600160a01b038116811461008157600080fd5b9392505050565b61041a806100976000396000f3fe608060405234801561001057600080fd5b50600436106100cf5760003560e01c80637922deb51161008c578063cb457d4711610066578063cb457d47146100f8578063d1abd2de14610170578063d78aafde14610178578063e149ceb51461018057600080fd5b80637922deb5146101355780637bcd3dc51461013d578063a30872db1461014557600080fd5b80630f0af57f146100d45780631fb3d151146100f05780633f152251146100fa5780636bdfcec61461010257806375bf27871461010a57806377544f3314610112575b600080fd5b6100dd60015481565b6040519081526020015b60405180910390f35b6100f8610188565b005b6100f86101d8565b6100f86101e5565b6100f86101f2565b610125610120366004610320565b6101fb565b60405190151581526020016100e7565b6100f8610280565b6100f861028d565b600054610158906001600160a01b031681565b6040516001600160a01b0390911681526020016100e7565b6100f861029a565b6100f86102a7565b6100f86102b4565b33600861019582826101fb565b6101d45760405162461bcd60e51b815260206004820152600c60248201526b26a4a724a6aaa6afaa24a2a960a11b604482015260640160405180910390fd5b5050565b33600461019582826101fb565b33600661019582826101fb565b33600361019582825b6000805460405163e053ea3160e01b81526001600160a01b03858116600483015261027292169063e053ea3190602401602060405180830381865afa158015610248573d6000803e3d6000fd5b505050506040513d601f19601f8201168201806040525081019061026c9190610369565b836102c1565b600154101590505b92915050565b33600761019582826101fb565b33600061019582826101fb565b33600161019582826101fb565b33600561019582826101fb565b33600261019582826101fb565b6000808260088111156102d6576102d6610382565b14156102e45750600061027a565b600060018360088111156102fa576102fa610382565b61030491906103ae565b61030f9060206103c5565b9390931c63ffffffff169392505050565b6000806040838503121561033357600080fd5b82356001600160a01b038116811461034a57600080fd5b915060208301356009811061035e57600080fd5b809150509250929050565b60006020828403121561037b57600080fd5b5051919050565b634e487b7160e01b600052602160045260246000fd5b634e487b7160e01b600052601160045260246000fd5b6000828210156103c0576103c0610398565b500390565b60008160001904831182151516156103df576103df610398565b50029056fea2646970667358221220a439a4806783dbf41b6f29d9fa4a68cffdd9daf5cd7475ba418b201453b45bf064736f6c634300080a0033",
          "opcodes": "PUSH1 0x80 PUSH1 0x40 MSTORE CALLVALUE DUP1 ISZERO PUSH2 0x10 JUMPI PUSH1 0x0 DUP1 REVERT JUMPDEST POP PUSH1 0x40 MLOAD PUSH2 0x4B1 CODESIZE SUB DUP1 PUSH2 0x4B1 DUP4 CODECOPY DUP2 ADD PUSH1 0x40 DUP2 SWAP1 MSTORE PUSH2 0x2F SWAP2 PUSH2 0x58 JUMP JUMPDEST PUSH1 0x0 DUP1 SLOAD PUSH1 0x1 PUSH1 0x1 PUSH1 0xA0 SHL SUB NOT AND PUSH1 0x1 PUSH1 0x1 PUSH1 0xA0 SHL SUB SWAP3 SWAP1 SWAP3 AND SWAP2 SWAP1 SWAP2 OR SWAP1 SSTORE NUMBER PUSH1 0x1 SSTORE PUSH2 0x88 JUMP JUMPDEST PUSH1 0x0 PUSH1 0x20 DUP3 DUP5 SUB SLT ISZERO PUSH2 0x6A JUMPI PUSH1 0x0 DUP1 REVERT JUMPDEST DUP2 MLOAD PUSH1 0x1 PUSH1 0x1 PUSH1 0xA0 SHL SUB DUP2 AND DUP2 EQ PUSH2 0x81 JUMPI PUSH1 0x0 DUP1 REVERT JUMPDEST SWAP4 SWAP3 POP POP POP JUMP JUMPDEST PUSH2 0x41A DUP1 PUSH2 0x97 PUSH1 0x0 CODECOPY PUSH1 0x0 RETURN INVALID PUSH1 0x80 PUSH1 0x40 MSTORE CALLVALUE DUP1 ISZERO PUSH2 0x10 JUMPI PUSH1 0x0 DUP1 REVERT JUMPDEST POP PUSH1 0x4 CALLDATASIZE LT PUSH2 0xCF JUMPI PUSH1 0x0 CALLDATALOAD PUSH1 0xE0 SHR DUP1 PUSH4 0x7922DEB5 GT PUSH2 0x8C JUMPI DUP1 PUSH4 0xCB457D47 GT PUSH2 0x66 JUMPI DUP1 PUSH4 0xCB457D47 EQ PUSH2 0xF8 JUMPI DUP1 PUSH4 0xD1ABD2DE EQ PUSH2 0x170 JUMPI DUP1 PUSH4 0xD78AAFDE EQ PUSH2 0x178 JUMPI DUP1 PUSH4 0xE149CEB5 EQ PUSH2 0x180 JUMPI PUSH1 0x0 DUP1 REVERT JUMPDEST DUP1 PUSH4 0x7922DEB5 EQ PUSH2 0x135 JUMPI DUP1 PUSH4 0x7BCD3DC5 EQ PUSH2 0x13D JUMPI DUP1 PUSH4 0xA30872DB EQ PUSH2 0x145 JUMPI PUSH1 0x0 DUP1 REVERT JUMPDEST DUP1 PUSH4 0xF0AF57F EQ PUSH2 0xD4 JUMPI DUP1 PUSH4 0x1FB3D151 EQ PUSH2 0xF0 JUMPI DUP1 PUSH4 0x3F152251 EQ PUSH2 0xFA JUMPI DUP1 PUSH4 0x6BDFCEC6 EQ PUSH2 0x102 JUMPI DUP1 PUSH4 0x75BF2787 EQ PUSH2 0x10A JUMPI DUP1 PUSH4 0x77544F33 EQ PUSH2 0x112 JUMPI JUMPDEST PUSH1 0x0 DUP1 REVERT JUMPDEST PUSH2 0xDD PUSH1 0x1 SLOAD DUP2 JUMP JUMPDEST PUSH1 0x40 MLOAD SWAP1 DUP2 MSTORE PUSH1 0x20 ADD JUMPDEST PUSH1 0x40 MLOAD DUP1 SWAP2 SUB SWAP1 RETURN JUMPDEST PUSH2 0xF8 PUSH2 0x188 JUMP JUMPDEST STOP JUMPDEST PUSH2 0xF8 PUSH2 0x1D8 JUMP JUMPDEST PUSH2 0xF8 PUSH2 0x1E5 JUMP JUMPDEST PUSH2 0xF8 PUSH2 0x1F2 JUMP JUMPDEST PUSH2 0x125 PUSH2 0x120 CALLDATASIZE PUSH1 0x4 PUSH2 0x320 JUMP JUMPDEST PUSH2 0x1FB JUMP JUMPDEST PUSH1 0x40 MLOAD SWAP1 ISZERO ISZERO DUP2 MSTORE PUSH1 0x20 ADD PUSH2 0xE7 JUMP JUMPDEST PUSH2 0xF8 PUSH2 0x280 JUMP JUMPDEST PUSH2 0xF8 PUSH2 0x28D JUMP JUMPDEST PUSH1 0x0 SLOAD PUSH2 0x158 SWAP1 PUSH1 0x1 PUSH1 0x1 PUSH1 0xA0 SHL SUB AND DUP2 JUMP JUMPDEST PUSH1 0x40 MLOAD PUSH1 0x1 PUSH1 0x1 PUSH1 0xA0 SHL SUB SWAP1 SWAP2 AND DUP2 MSTORE PUSH1 0x20 ADD PUSH2 0xE7 JUMP JUMPDEST PUSH2 0xF8 PUSH2 0x29A JUMP JUMPDEST PUSH2 0xF8 PUSH2 0x2A7 JUMP JUMPDEST PUSH2 0xF8 PUSH2 0x2B4 JUMP JUMPDEST CALLER PUSH1 0x8 PUSH2 0x195 DUP3 DUP3 PUSH2 0x1FB JUMP JUMPDEST PUSH2 0x1D4 JUMPI PUSH1 0x40 MLOAD PUSH3 0x461BCD PUSH1 0xE5 SHL DUP2 MSTORE PUSH1 0x20 PUSH1 0x4 DUP3 ADD MSTORE PUSH1 0xC PUSH1 0x24 DUP3 ADD MSTORE PUSH12 0x26A4A724A6AAA6AFAA24A2A9 PUSH1 0xA1 SHL PUSH1 0x44 DUP3 ADD MSTORE PUSH1 0x64 ADD PUSH1 0x40 MLOAD DUP1 SWAP2 SUB SWAP1 REVERT JUMPDEST POP POP JUMP JUMPDEST CALLER PUSH1 0x4 PUSH2 0x195 DUP3 DUP3 PUSH2 0x1FB JUMP JUMPDEST CALLER PUSH1 0x6 PUSH2 0x195 DUP3 DUP3 PUSH2 0x1FB JUMP JUMPDEST CALLER PUSH1 0x3 PUSH2 0x195 DUP3 DUP3 JUMPDEST PUSH1 0x0 DUP1 SLOAD PUSH1 0x40 MLOAD PUSH4 0xE053EA31 PUSH1 0xE0 SHL DUP2 MSTORE PUSH1 0x1 PUSH1 0x1 PUSH1 0xA0 SHL SUB DUP6 DUP2 AND PUSH1 0x4 DUP4 ADD MSTORE PUSH2 0x272 SWAP3 AND SWAP1 PUSH4 0xE053EA31 SWAP1 PUSH1 0x24 ADD PUSH1 0x20 PUSH1 0x40 MLOAD DUP1 DUP4 SUB DUP2 DUP7 GAS STATICCALL ISZERO DUP1 ISZERO PUSH2 0x248 JUMPI RETURNDATASIZE PUSH1 0x0 DUP1 RETURNDATACOPY RETURNDATASIZE PUSH1 0x0 REVERT JUMPDEST POP POP POP POP PUSH1 0x40 MLOAD RETURNDATASIZE PUSH1 0x1F NOT PUSH1 0x1F DUP3 ADD AND DUP3 ADD DUP1 PUSH1 0x40 MSTORE POP DUP2 ADD SWAP1 PUSH2 0x26C SWAP2 SWAP1 PUSH2 0x369 JUMP JUMPDEST DUP4 PUSH2 0x2C1 JUMP JUMPDEST PUSH1 0x1 SLOAD LT ISZERO SWAP1 POP JUMPDEST SWAP3 SWAP2 POP POP JUMP JUMPDEST CALLER PUSH1 0x7 PUSH2 0x195 DUP3 DUP3 PUSH2 0x1FB JUMP JUMPDEST CALLER PUSH1 0x0 PUSH2 0x195 DUP3 DUP3 PUSH2 0x1FB JUMP JUMPDEST CALLER PUSH1 0x1 PUSH2 0x195 DUP3 DUP3 PUSH2 0x1FB JUMP JUMPDEST CALLER PUSH1 0x5 PUSH2 0x195 DUP3 DUP3 PUSH2 0x1FB JUMP JUMPDEST CALLER PUSH1 0x2 PUSH2 0x195 DUP3 DUP3 PUSH2 0x1FB JUMP JUMPDEST PUSH1 0x0 DUP1 DUP3 PUSH1 0x8 DUP2 GT ISZERO PUSH2 0x2D6 JUMPI PUSH2 0x2D6 PUSH2 0x382 JUMP JUMPDEST EQ ISZERO PUSH2 0x2E4 JUMPI POP PUSH1 0x0 PUSH2 0x27A JUMP JUMPDEST PUSH1 0x0 PUSH1 0x1 DUP4 PUSH1 0x8 DUP2 GT ISZERO PUSH2 0x2FA JUMPI PUSH2 0x2FA PUSH2 0x382 JUMP JUMPDEST PUSH2 0x304 SWAP2 SWAP1 PUSH2 0x3AE JUMP JUMPDEST PUSH2 0x30F SWAP1 PUSH1 0x20 PUSH2 0x3C5 JUMP JUMPDEST SWAP4 SWAP1 SWAP4 SHR PUSH4 0xFFFFFFFF AND SWAP4 SWAP3 POP POP POP JUMP JUMPDEST PUSH1 0x0 DUP1 PUSH1 0x40 DUP4 DUP6 SUB SLT ISZERO PUSH2 0x333 JUMPI PUSH1 0x0 DUP1 REVERT JUMPDEST DUP3 CALLDATALOAD PUSH1 0x1 PUSH1 0x1 PUSH1 0xA0 SHL SUB DUP2 AND DUP2 EQ PUSH2 0x34A JUMPI PUSH1 0x0 DUP1 REVERT JUMPDEST SWAP2 POP PUSH1 0x20 DUP4 ADD CALLDATALOAD PUSH1 0x9 DUP2 LT PUSH2 0x35E JUMPI PUSH1 0x0 DUP1 REVERT JUMPDEST DUP1 SWAP2 POP POP SWAP3 POP SWAP3 SWAP1 POP JUMP JUMPDEST PUSH1 0x0 PUSH1 0x20 DUP3 DUP5 SUB SLT ISZERO PUSH2 0x37B JUMPI PUSH1 0x0 DUP1 REVERT JUMPDEST POP MLOAD SWAP2 SWAP1 POP JUMP JUMPDEST PUSH4 0x4E487B71 PUSH1 0xE0 SHL PUSH1 0x0 MSTORE PUSH1 0x21 PUSH1 0x4 MSTORE PUSH1 0x24 PUSH1 0x0 REVERT JUMPDEST PUSH4 0x4E487B71 PUSH1 0xE0 SHL PUSH1 0x0 MSTORE PUSH1 0x11 PUSH1 0x4 MSTORE PUSH1 0x24 PUSH1 0x0 REVERT JUMPDEST PUSH1 0x0 DUP3 DUP3 LT ISZERO PUSH2 0x3C0 JUMPI PUSH2 0x3C0 PUSH2 0x398 JUMP JUMPDEST POP SUB SWAP1 JUMP JUMPDEST PUSH1 0x0 DUP2 PUSH1 0x0 NOT DIV DUP4 GT DUP3 ISZERO ISZERO AND ISZERO PUSH2 0x3DF JUMPI PUSH2 0x3DF PUSH2 0x398 JUMP JUMPDEST POP MUL SWAP1 JUMP INVALID LOG2 PUSH5 0x6970667358 0x22 SLT KECCAK256 LOG4 CODECOPY LOG4 DUP1 PUSH8 0x83DBF41B6F29D9FA 0x4A PUSH9 0xCFFDD9DAF5CD7475BA COINBASE DUP12 KECCAK256 EQ MSTORE8 0xB4 JUMPDEST CREATE PUSH5 0x736F6C6343 STOP ADDMOD EXP STOP CALLER "
        },
        "methodIdentifiers": {
          "constructionBlock()": "0f0af57f",
          "ifEight()": "1fb3d151",
          "ifFive()": "d78aafde",
          "ifFour()": "3f152251",
          "ifOne()": "d1abd2de",
          "ifSeven()": "7922deb5",
          "ifSix()": "6bdfcec6",
          "ifThree()": "75bf2787",
          "ifTwo()": "e149ceb5",
          "ifZero()": "7bcd3dc5",
          "isTier(address,uint8)": "77544f33",
          "tierContract()": "a30872db",
          "unlimited()": "cb457d47"
        }
      }
    }
  }
}