{
  "contracts/test/SeedERC20Reentrant.sol": {
    "SeedERC20Reentrant": {
      "abi": [
        {
          "anonymous": false,
          "inputs": [
            {
              "indexed": true,
              "internalType": "address",
              "name": "owner",
              "type": "address"
            },
            {
              "indexed": true,
              "internalType": "address",
              "name": "spender",
              "type": "address"
            },
            {
              "indexed": false,
              "internalType": "uint256",
              "name": "value",
              "type": "uint256"
            }
          ],
          "name": "Approval",
          "type": "event"
        },
        {
          "anonymous": false,
          "inputs": [
            {
              "indexed": true,
              "internalType": "address",
              "name": "from",
              "type": "address"
            },
            {
              "indexed": true,
              "internalType": "address",
              "name": "to",
              "type": "address"
            },
            {
              "indexed": false,
              "internalType": "uint256",
              "name": "value",
              "type": "uint256"
            }
          ],
          "name": "Transfer",
          "type": "event"
        },
        {
          "inputs": [],
          "name": "DECIMALS",
          "outputs": [
            {
              "internalType": "uint8",
              "name": "",
              "type": "uint8"
            }
          ],
          "stateMutability": "view",
          "type": "function"
        },
        {
          "inputs": [],
          "name": "TOTAL_SUPPLY",
          "outputs": [
            {
              "internalType": "uint256",
              "name": "",
              "type": "uint256"
            }
          ],
          "stateMutability": "view",
          "type": "function"
        },
        {
          "inputs": [
            {
              "internalType": "address",
              "name": "account_",
              "type": "address"
            }
          ],
          "name": "addFreezable",
          "outputs": [],
          "stateMutability": "nonpayable",
          "type": "function"
        },
        {
          "inputs": [
            {
              "internalType": "contract SeedERC20",
              "name": "seedERC20Contract_",
              "type": "address"
            }
          ],
          "name": "addReentrantTarget",
          "outputs": [],
          "stateMutability": "nonpayable",
          "type": "function"
        },
        {
          "inputs": [
            {
              "internalType": "address",
              "name": "owner",
              "type": "address"
            },
            {
              "internalType": "address",
              "name": "spender",
              "type": "address"
            }
          ],
          "name": "allowance",
          "outputs": [
            {
              "internalType": "uint256",
              "name": "",
              "type": "uint256"
            }
          ],
          "stateMutability": "view",
          "type": "function"
        },
        {
          "inputs": [
            {
              "internalType": "address",
              "name": "spender",
              "type": "address"
            },
            {
              "internalType": "uint256",
              "name": "amount",
              "type": "uint256"
            }
          ],
          "name": "approve",
          "outputs": [
            {
              "internalType": "bool",
              "name": "",
              "type": "bool"
            }
          ],
          "stateMutability": "nonpayable",
          "type": "function"
        },
        {
          "inputs": [
            {
              "internalType": "address",
              "name": "account",
              "type": "address"
            }
          ],
          "name": "balanceOf",
          "outputs": [
            {
              "internalType": "uint256",
              "name": "",
              "type": "uint256"
            }
          ],
          "stateMutability": "view",
          "type": "function"
        },
        {
          "inputs": [
            {
              "internalType": "uint256",
              "name": "amount",
              "type": "uint256"
            }
          ],
          "name": "burn",
          "outputs": [],
          "stateMutability": "nonpayable",
          "type": "function"
        },
        {
          "inputs": [
            {
              "internalType": "address",
              "name": "account",
              "type": "address"
            },
            {
              "internalType": "uint256",
              "name": "amount",
              "type": "uint256"
            }
          ],
          "name": "burnFrom",
          "outputs": [],
          "stateMutability": "nonpayable",
          "type": "function"
        },
        {
          "inputs": [],
          "name": "decimals",
          "outputs": [
            {
              "internalType": "uint8",
              "name": "",
              "type": "uint8"
            }
          ],
          "stateMutability": "view",
          "type": "function"
        },
        {
          "inputs": [
            {
              "internalType": "address",
              "name": "spender",
              "type": "address"
            },
            {
              "internalType": "uint256",
              "name": "subtractedValue",
              "type": "uint256"
            }
          ],
          "name": "decreaseAllowance",
          "outputs": [
            {
              "internalType": "bool",
              "name": "",
              "type": "bool"
            }
          ],
          "stateMutability": "nonpayable",
          "type": "function"
        },
        {
          "inputs": [
            {
              "internalType": "address",
              "name": "",
              "type": "address"
            }
          ],
          "name": "freezables",
          "outputs": [
            {
              "internalType": "bool",
              "name": "",
              "type": "bool"
            }
          ],
          "stateMutability": "view",
          "type": "function"
        },
        {
          "inputs": [
            {
              "internalType": "address",
              "name": "spender",
              "type": "address"
            },
            {
              "internalType": "uint256",
              "name": "addedValue",
              "type": "uint256"
            }
          ],
          "name": "increaseAllowance",
          "outputs": [
            {
              "internalType": "bool",
              "name": "",
              "type": "bool"
            }
          ],
          "stateMutability": "nonpayable",
          "type": "function"
        },
        {
          "inputs": [],
          "name": "methodTarget",
          "outputs": [
            {
              "internalType": "enum SeedERC20Reentrant.Method",
              "name": "",
              "type": "uint8"
            }
          ],
          "stateMutability": "view",
          "type": "function"
        },
        {
          "inputs": [],
          "name": "name",
          "outputs": [
            {
              "internalType": "string",
              "name": "",
              "type": "string"
            }
          ],
          "stateMutability": "view",
          "type": "function"
        },
        {
          "inputs": [
            {
              "internalType": "enum SeedERC20Reentrant.Method",
              "name": "methodTarget_",
              "type": "uint8"
            }
          ],
          "name": "setMethodTarget",
          "outputs": [],
          "stateMutability": "nonpayable",
          "type": "function"
        },
        {
          "inputs": [],
          "name": "symbol",
          "outputs": [
            {
              "internalType": "string",
              "name": "",
              "type": "string"
            }
          ],
          "stateMutability": "view",
          "type": "function"
        },
        {
          "inputs": [],
          "name": "totalSupply",
          "outputs": [
            {
              "internalType": "uint256",
              "name": "",
              "type": "uint256"
            }
          ],
          "stateMutability": "view",
          "type": "function"
        },
        {
          "inputs": [
            {
              "internalType": "address",
              "name": "recipient",
              "type": "address"
            },
            {
              "internalType": "uint256",
              "name": "amount",
              "type": "uint256"
            }
          ],
          "name": "transfer",
          "outputs": [
            {
              "internalType": "bool",
              "name": "",
              "type": "bool"
            }
          ],
          "stateMutability": "nonpayable",
          "type": "function"
        },
        {
          "inputs": [
            {
              "internalType": "address",
              "name": "sender",
              "type": "address"
            },
            {
              "internalType": "address",
              "name": "recipient",
              "type": "address"
            },
            {
              "internalType": "uint256",
              "name": "amount",
              "type": "uint256"
            }
          ],
          "name": "transferFrom",
          "outputs": [
            {
              "internalType": "bool",
              "name": "",
              "type": "bool"
            }
          ],
          "stateMutability": "nonpayable",
          "type": "function"
        }
      ],
      "evm": {
        "bytecode": {
          "linkReferences": {},
          "object": "60806040523480156200001157600080fd5b50604080518082018252600b81526a55534420436c617373696360a81b602080830191825283518085019094526005845264555344434360d81b90840152815191929162000062916003916200049e565b508051620000789060049060208401906200049e565b50506005805460ff1916601217905550620000946006620000ad565b620000a73366038d7ea4c68000620000c3565b6200053a565b6005805460ff191660ff92909216919091179055565b6001600160a01b0382166200011f576040805162461bcd60e51b815260206004820152601f60248201527f45524332303a206d696e7420746f20746865207a65726f206164647265737300604482015290519081900360640190fd5b6200012d60008383620001d2565b6200014981600254620003cc60201b6200081c1790919060201c565b6002556001600160a01b038216600090815260208181526040909120546200017c9183906200081c620003cc821b17901c565b6001600160a01b0383166000818152602081815260408083209490945583518581529351929391927fddf252ad1be2c89b69c2b068fc378daa952ba7f163c4a11628f55a4df523b3ef9281900390910190a35050565b620001ea8383836200042e60201b6200087d1760201c565b6001600754600160a01b900460ff1660038111156200020557fe5b1480156200022057506007546001600160a01b038381169116145b1562000299576007546040805163059a803960e21b81526000600482018190526001602483015291516001600160a01b039093169263166a00e49260448084019391929182900301818387803b1580156200027a57600080fd5b505af11580156200028f573d6000803e3d6000fd5b50505050620003c7565b6002600754600160a01b900460ff166003811115620002b457fe5b148015620002cf57506007546001600160a01b038481169116145b156200032357600754604080516304a4484b60e11b81526001600482015290516001600160a01b039092169163094890969160248082019260009290919082900301818387803b1580156200027a57600080fd5b6003600754600160a01b900460ff1660038111156200033e57fe5b1480156200035957506007546001600160a01b038481169116145b15620003c7576007546040805163db006a7560e01b81526001600482015290516001600160a01b039092169163db006a759160248082019260009290919082900301818387803b158015620003ad57600080fd5b505af1158015620003c2573d6000803e3d6000fd5b505050505b505050565b60008282018381101562000427576040805162461bcd60e51b815260206004820152601b60248201527f536166654d6174683a206164646974696f6e206f766572666c6f770000000000604482015290519081900360640190fd5b9392505050565b62000446838383620003c760201b620006cd1760201c565b6001600160a01b03821660009081526006602052604090205460ff1615620003c7576040805162461bcd60e51b8152602060048201526006602482015265232927ad22a760d11b604482015290519081900360640190fd5b828054600181600116156101000203166002900490600052602060002090601f016020900481019282601f10620004e157805160ff191683800117855562000511565b8280016001018555821562000511579182015b8281111562000511578251825591602001919060010190620004f4565b506200051f92915062000523565b5090565b5b808211156200051f576000815560010162000524565b611095806200054a6000396000f3fe608060405234801561001057600080fd5b506004361061012c5760003560e01c80635bb9058b116100ad578063902d55a511610071578063902d55a5146103bc57806395d89b41146103c4578063a457c2d7146103cc578063a9059cbb146103f8578063dd62ed3e146104245761012c565b80635bb9058b146102fb57806370a082311461032157806379cc6790146103475780637cc4129a1461037357806385b75f5f1461039c5761012c565b8063313ce567116100f4578063313ce5671461025c578063395093511461026457806342966c681461029057806348422faa146102af57806348ea30da146102d55761012c565b806306fdde0314610131578063095ea7b3146101ae57806318160ddd146101ee57806323b872dd146102085780632e0f26251461023e575b600080fd5b610139610452565b6040805160208082528351818301528351919283929083019185019080838360005b8381101561017357818101518382015260200161015b565b50505050905090810190601f1680156101a05780820380516001836020036101000a031916815260200191505b509250505060405180910390f35b6101da600480360360408110156101c457600080fd5b506001600160a01b0381351690602001356104e8565b604080519115158252519081900360200190f35b6101f6610505565b60408051918252519081900360200190f35b6101da6004803603606081101561021e57600080fd5b506001600160a01b0381358116916020810135909116906040013561050b565b610246610592565b6040805160ff9092168252519081900360200190f35b610246610597565b6101da6004803603604081101561027a57600080fd5b506001600160a01b0381351690602001356105a0565b6102ad600480360360208110156102a657600080fd5b50356105ee565b005b6101da600480360360208110156102c557600080fd5b50356001600160a01b0316610602565b6102ad600480360360208110156102eb57600080fd5b50356001600160a01b0316610617565b6102ad6004803603602081101561031157600080fd5b50356001600160a01b0316610639565b6101f66004803603602081101561033757600080fd5b50356001600160a01b031661065d565b6102ad6004803603604081101561035d57600080fd5b506001600160a01b038135169060200135610678565b61037b6106d2565b6040518082600381111561038b57fe5b815260200191505060405180910390f35b6102ad600480360360208110156103b257600080fd5b503560ff166106e2565b6101f6610709565b610139610714565b6101da600480360360408110156103e257600080fd5b506001600160a01b038135169060200135610775565b6101da6004803603604081101561040e57600080fd5b506001600160a01b0381351690602001356107dd565b6101f66004803603604081101561043a57600080fd5b506001600160a01b03813581169160200135166107f1565b60038054604080516020601f60026000196101006001881615020190951694909404938401819004810282018101909252828152606093909290918301828280156104de5780601f106104b3576101008083540402835291602001916104de565b820191906000526020600020905b8154815290600101906020018083116104c157829003601f168201915b5050505050905090565b60006104fc6104f56108df565b84846108e3565b50600192915050565b60025490565b60006105188484846109cf565b610588846105246108df565b61058385604051806060016040528060288152602001610f85602891396001600160a01b038a166000908152600160205260408120906105626108df565b6001600160a01b031681526020810191909152604001600020549190610b2a565b6108e3565b5060019392505050565b600681565b60055460ff1690565b60006104fc6105ad6108df565b8461058385600160006105be6108df565b6001600160a01b03908116825260208083019390935260409182016000908120918c16815292529020549061081c565b6105ff6105f96108df565b82610bc1565b50565b60066020526000908152604090205460ff1681565b600780546001600160a01b0319166001600160a01b0392909216919091179055565b6001600160a01b03166000908152600660205260409020805460ff19166001179055565b6001600160a01b031660009081526020819052604090205490565b60006106af82604051806060016040528060248152602001610fad602491396106a8866106a36108df565b6107f1565b9190610b2a565b90506106c3836106bd6108df565b836108e3565b6106cd8383610bc1565b505050565b600754600160a01b900460ff1681565b6007805482919060ff60a01b1916600160a01b83600381111561070157fe5b021790555050565b66038d7ea4c6800081565b60048054604080516020601f60026000196101006001881615020190951694909404938401819004810282018101909252828152606093909290918301828280156104de5780601f106104b3576101008083540402835291602001916104de565b60006104fc6107826108df565b846105838560405180606001604052806025815260200161103b60259139600160006107ac6108df565b6001600160a01b03908116825260208083019390935260409182016000908120918d16815292529020549190610b2a565b60006104fc6107ea6108df565b84846109cf565b6001600160a01b03918216600090815260016020908152604080832093909416825291909152205490565b600082820183811015610876576040805162461bcd60e51b815260206004820152601b60248201527f536166654d6174683a206164646974696f6e206f766572666c6f770000000000604482015290519081900360640190fd5b9392505050565b6108888383836106cd565b6001600160a01b03821660009081526006602052604090205460ff16156106cd576040805162461bcd60e51b8152602060048201526006602482015265232927ad22a760d11b604482015290519081900360640190fd5b3390565b6001600160a01b0383166109285760405162461bcd60e51b81526004018080602001828103825260248152602001806110176024913960400191505060405180910390fd5b6001600160a01b03821661096d5760405162461bcd60e51b8152600401808060200182810382526022815260200180610f3d6022913960400191505060405180910390fd5b6001600160a01b03808416600081815260016020908152604080832094871680845294825291829020859055815185815291517f8c5be1e5ebec7d5bd14f71427d1e84f3dd0314c0f7b2291e5b200ac8c7c3b9259281900390910190a3505050565b6001600160a01b038316610a145760405162461bcd60e51b8152600401808060200182810382526025815260200180610ff26025913960400191505060405180910390fd5b6001600160a01b038216610a595760405162461bcd60e51b8152600401808060200182810382526023815260200180610ef86023913960400191505060405180910390fd5b610a64838383610cbd565b610aa181604051806060016040528060268152602001610f5f602691396001600160a01b0386166000908152602081905260409020549190610b2a565b6001600160a01b038085166000908152602081905260408082209390935590841681522054610ad0908261081c565b6001600160a01b038084166000818152602081815260409182902094909455805185815290519193928716927fddf252ad1be2c89b69c2b068fc378daa952ba7f163c4a11628f55a4df523b3ef92918290030190a3505050565b60008184841115610bb95760405162461bcd60e51b81526004018080602001828103825283818151815260200191508051906020019080838360005b83811015610b7e578181015183820152602001610b66565b50505050905090810190601f168015610bab5780820380516001836020036101000a031916815260200191505b509250505060405180910390fd5b505050900390565b6001600160a01b038216610c065760405162461bcd60e51b8152600401808060200182810382526021815260200180610fd16021913960400191505060405180910390fd5b610c1282600083610cbd565b610c4f81604051806060016040528060228152602001610f1b602291396001600160a01b0385166000908152602081905260409020549190610b2a565b6001600160a01b038316600090815260208190526040902055600254610c759082610e9a565b6002556040805182815290516000916001600160a01b038516917fddf252ad1be2c89b69c2b068fc378daa952ba7f163c4a11628f55a4df523b3ef9181900360200190a35050565b610cc883838361087d565b6001600754600160a01b900460ff166003811115610ce257fe5b148015610cfc57506007546001600160a01b038381169116145b15610d71576007546040805163059a803960e21b81526000600482018190526001602483015291516001600160a01b039093169263166a00e49260448084019391929182900301818387803b158015610d5457600080fd5b505af1158015610d68573d6000803e3d6000fd5b505050506106cd565b6002600754600160a01b900460ff166003811115610d8b57fe5b148015610da557506007546001600160a01b038481169116145b15610df757600754604080516304a4484b60e11b81526001600482015290516001600160a01b039092169163094890969160248082019260009290919082900301818387803b158015610d5457600080fd5b6003600754600160a01b900460ff166003811115610e1157fe5b148015610e2b57506007546001600160a01b038481169116145b156106cd576007546040805163db006a7560e01b81526001600482015290516001600160a01b039092169163db006a759160248082019260009290919082900301818387803b158015610e7d57600080fd5b505af1158015610e91573d6000803e3d6000fd5b50505050505050565b600082821115610ef1576040805162461bcd60e51b815260206004820152601e60248201527f536166654d6174683a207375627472616374696f6e206f766572666c6f770000604482015290519081900360640190fd5b5090039056fe45524332303a207472616e7366657220746f20746865207a65726f206164647265737345524332303a206275726e20616d6f756e7420657863656564732062616c616e636545524332303a20617070726f766520746f20746865207a65726f206164647265737345524332303a207472616e7366657220616d6f756e7420657863656564732062616c616e636545524332303a207472616e7366657220616d6f756e74206578636565647320616c6c6f77616e636545524332303a206275726e20616d6f756e74206578636565647320616c6c6f77616e636545524332303a206275726e2066726f6d20746865207a65726f206164647265737345524332303a207472616e736665722066726f6d20746865207a65726f206164647265737345524332303a20617070726f76652066726f6d20746865207a65726f206164647265737345524332303a2064656372656173656420616c6c6f77616e63652062656c6f77207a65726fa264697066735822122095fd9f52aa7ea7ca74b604a61249d53d64e2c2497cab1bf1fd146590db52944d64736f6c634300060c0033",
          "opcodes": "PUSH1 0x80 PUSH1 0x40 MSTORE CALLVALUE DUP1 ISZERO PUSH3 0x11 JUMPI PUSH1 0x0 DUP1 REVERT JUMPDEST POP PUSH1 0x40 DUP1 MLOAD DUP1 DUP3 ADD DUP3 MSTORE PUSH1 0xB DUP2 MSTORE PUSH11 0x55534420436C6173736963 PUSH1 0xA8 SHL PUSH1 0x20 DUP1 DUP4 ADD SWAP2 DUP3 MSTORE DUP4 MLOAD DUP1 DUP6 ADD SWAP1 SWAP5 MSTORE PUSH1 0x5 DUP5 MSTORE PUSH5 0x5553444343 PUSH1 0xD8 SHL SWAP1 DUP5 ADD MSTORE DUP2 MLOAD SWAP2 SWAP3 SWAP2 PUSH3 0x62 SWAP2 PUSH1 0x3 SWAP2 PUSH3 0x49E JUMP JUMPDEST POP DUP1 MLOAD PUSH3 0x78 SWAP1 PUSH1 0x4 SWAP1 PUSH1 0x20 DUP5 ADD SWAP1 PUSH3 0x49E JUMP JUMPDEST POP POP PUSH1 0x5 DUP1 SLOAD PUSH1 0xFF NOT AND PUSH1 0x12 OR SWAP1 SSTORE POP PUSH3 0x94 PUSH1 0x6 PUSH3 0xAD JUMP JUMPDEST PUSH3 0xA7 CALLER PUSH7 0x38D7EA4C68000 PUSH3 0xC3 JUMP JUMPDEST PUSH3 0x53A JUMP JUMPDEST PUSH1 0x5 DUP1 SLOAD PUSH1 0xFF NOT AND PUSH1 0xFF SWAP3 SWAP1 SWAP3 AND SWAP2 SWAP1 SWAP2 OR SWAP1 SSTORE JUMP JUMPDEST PUSH1 0x1 PUSH1 0x1 PUSH1 0xA0 SHL SUB DUP3 AND PUSH3 0x11F JUMPI PUSH1 0x40 DUP1 MLOAD PUSH3 0x461BCD PUSH1 0xE5 SHL DUP2 MSTORE PUSH1 0x20 PUSH1 0x4 DUP3 ADD MSTORE PUSH1 0x1F PUSH1 0x24 DUP3 ADD MSTORE PUSH32 0x45524332303A206D696E7420746F20746865207A65726F206164647265737300 PUSH1 0x44 DUP3 ADD MSTORE SWAP1 MLOAD SWAP1 DUP2 SWAP1 SUB PUSH1 0x64 ADD SWAP1 REVERT JUMPDEST PUSH3 0x12D PUSH1 0x0 DUP4 DUP4 PUSH3 0x1D2 JUMP JUMPDEST PUSH3 0x149 DUP2 PUSH1 0x2 SLOAD PUSH3 0x3CC PUSH1 0x20 SHL PUSH3 0x81C OR SWAP1 SWAP2 SWAP1 PUSH1 0x20 SHR JUMP JUMPDEST PUSH1 0x2 SSTORE PUSH1 0x1 PUSH1 0x1 PUSH1 0xA0 SHL SUB DUP3 AND PUSH1 0x0 SWAP1 DUP2 MSTORE PUSH1 0x20 DUP2 DUP2 MSTORE PUSH1 0x40 SWAP1 SWAP2 KECCAK256 SLOAD PUSH3 0x17C SWAP2 DUP4 SWAP1 PUSH3 0x81C PUSH3 0x3CC DUP3 SHL OR SWAP1 SHR JUMP JUMPDEST PUSH1 0x1 PUSH1 0x1 PUSH1 0xA0 SHL SUB DUP4 AND PUSH1 0x0 DUP2 DUP2 MSTORE PUSH1 0x20 DUP2 DUP2 MSTORE PUSH1 0x40 DUP1 DUP4 KECCAK256 SWAP5 SWAP1 SWAP5 SSTORE DUP4 MLOAD DUP6 DUP2 MSTORE SWAP4 MLOAD SWAP3 SWAP4 SWAP2 SWAP3 PUSH32 0xDDF252AD1BE2C89B69C2B068FC378DAA952BA7F163C4A11628F55A4DF523B3EF SWAP3 DUP2 SWAP1 SUB SWAP1 SWAP2 ADD SWAP1 LOG3 POP POP JUMP JUMPDEST PUSH3 0x1EA DUP4 DUP4 DUP4 PUSH3 0x42E PUSH1 0x20 SHL PUSH3 0x87D OR PUSH1 0x20 SHR JUMP JUMPDEST PUSH1 0x1 PUSH1 0x7 SLOAD PUSH1 0x1 PUSH1 0xA0 SHL SWAP1 DIV PUSH1 0xFF AND PUSH1 0x3 DUP2 GT ISZERO PUSH3 0x205 JUMPI INVALID JUMPDEST EQ DUP1 ISZERO PUSH3 0x220 JUMPI POP PUSH1 0x7 SLOAD PUSH1 0x1 PUSH1 0x1 PUSH1 0xA0 SHL SUB DUP4 DUP2 AND SWAP2 AND EQ JUMPDEST ISZERO PUSH3 0x299 JUMPI PUSH1 0x7 SLOAD PUSH1 0x40 DUP1 MLOAD PUSH4 0x59A8039 PUSH1 0xE2 SHL DUP2 MSTORE PUSH1 0x0 PUSH1 0x4 DUP3 ADD DUP2 SWAP1 MSTORE PUSH1 0x1 PUSH1 0x24 DUP4 ADD MSTORE SWAP2 MLOAD PUSH1 0x1 PUSH1 0x1 PUSH1 0xA0 SHL SUB SWAP1 SWAP4 AND SWAP3 PUSH4 0x166A00E4 SWAP3 PUSH1 0x44 DUP1 DUP5 ADD SWAP4 SWAP2 SWAP3 SWAP2 DUP3 SWAP1 SUB ADD DUP2 DUP4 DUP8 DUP1 EXTCODESIZE ISZERO DUP1 ISZERO PUSH3 0x27A JUMPI PUSH1 0x0 DUP1 REVERT JUMPDEST POP GAS CALL ISZERO DUP1 ISZERO PUSH3 0x28F JUMPI RETURNDATASIZE PUSH1 0x0 DUP1 RETURNDATACOPY RETURNDATASIZE PUSH1 0x0 REVERT JUMPDEST POP POP POP POP PUSH3 0x3C7 JUMP JUMPDEST PUSH1 0x2 PUSH1 0x7 SLOAD PUSH1 0x1 PUSH1 0xA0 SHL SWAP1 DIV PUSH1 0xFF AND PUSH1 0x3 DUP2 GT ISZERO PUSH3 0x2B4 JUMPI INVALID JUMPDEST EQ DUP1 ISZERO PUSH3 0x2CF JUMPI POP PUSH1 0x7 SLOAD PUSH1 0x1 PUSH1 0x1 PUSH1 0xA0 SHL SUB DUP5 DUP2 AND SWAP2 AND EQ JUMPDEST ISZERO PUSH3 0x323 JUMPI PUSH1 0x7 SLOAD PUSH1 0x40 DUP1 MLOAD PUSH4 0x4A4484B PUSH1 0xE1 SHL DUP2 MSTORE PUSH1 0x1 PUSH1 0x4 DUP3 ADD MSTORE SWAP1 MLOAD PUSH1 0x1 PUSH1 0x1 PUSH1 0xA0 SHL SUB SWAP1 SWAP3 AND SWAP2 PUSH4 0x9489096 SWAP2 PUSH1 0x24 DUP1 DUP3 ADD SWAP3 PUSH1 0x0 SWAP3 SWAP1 SWAP2 SWAP1 DUP3 SWAP1 SUB ADD DUP2 DUP4 DUP8 DUP1 EXTCODESIZE ISZERO DUP1 ISZERO PUSH3 0x27A JUMPI PUSH1 0x0 DUP1 REVERT JUMPDEST PUSH1 0x3 PUSH1 0x7 SLOAD PUSH1 0x1 PUSH1 0xA0 SHL SWAP1 DIV PUSH1 0xFF AND PUSH1 0x3 DUP2 GT ISZERO PUSH3 0x33E JUMPI INVALID JUMPDEST EQ DUP1 ISZERO PUSH3 0x359 JUMPI POP PUSH1 0x7 SLOAD PUSH1 0x1 PUSH1 0x1 PUSH1 0xA0 SHL SUB DUP5 DUP2 AND SWAP2 AND EQ JUMPDEST ISZERO PUSH3 0x3C7 JUMPI PUSH1 0x7 SLOAD PUSH1 0x40 DUP1 MLOAD PUSH4 0xDB006A75 PUSH1 0xE0 SHL DUP2 MSTORE PUSH1 0x1 PUSH1 0x4 DUP3 ADD MSTORE SWAP1 MLOAD PUSH1 0x1 PUSH1 0x1 PUSH1 0xA0 SHL SUB SWAP1 SWAP3 AND SWAP2 PUSH4 0xDB006A75 SWAP2 PUSH1 0x24 DUP1 DUP3 ADD SWAP3 PUSH1 0x0 SWAP3 SWAP1 SWAP2 SWAP1 DUP3 SWAP1 SUB ADD DUP2 DUP4 DUP8 DUP1 EXTCODESIZE ISZERO DUP1 ISZERO PUSH3 0x3AD JUMPI PUSH1 0x0 DUP1 REVERT JUMPDEST POP GAS CALL ISZERO DUP1 ISZERO PUSH3 0x3C2 JUMPI RETURNDATASIZE PUSH1 0x0 DUP1 RETURNDATACOPY RETURNDATASIZE PUSH1 0x0 REVERT JUMPDEST POP POP POP POP JUMPDEST POP POP POP JUMP JUMPDEST PUSH1 0x0 DUP3 DUP3 ADD DUP4 DUP2 LT ISZERO PUSH3 0x427 JUMPI PUSH1 0x40 DUP1 MLOAD PUSH3 0x461BCD PUSH1 0xE5 SHL DUP2 MSTORE PUSH1 0x20 PUSH1 0x4 DUP3 ADD MSTORE PUSH1 0x1B PUSH1 0x24 DUP3 ADD MSTORE PUSH32 0x536166654D6174683A206164646974696F6E206F766572666C6F770000000000 PUSH1 0x44 DUP3 ADD MSTORE SWAP1 MLOAD SWAP1 DUP2 SWAP1 SUB PUSH1 0x64 ADD SWAP1 REVERT JUMPDEST SWAP4 SWAP3 POP POP POP JUMP JUMPDEST PUSH3 0x446 DUP4 DUP4 DUP4 PUSH3 0x3C7 PUSH1 0x20 SHL PUSH3 0x6CD OR PUSH1 0x20 SHR JUMP JUMPDEST PUSH1 0x1 PUSH1 0x1 PUSH1 0xA0 SHL SUB DUP3 AND PUSH1 0x0 SWAP1 DUP2 MSTORE PUSH1 0x6 PUSH1 0x20 MSTORE PUSH1 0x40 SWAP1 KECCAK256 SLOAD PUSH1 0xFF AND ISZERO PUSH3 0x3C7 JUMPI PUSH1 0x40 DUP1 MLOAD PUSH3 0x461BCD PUSH1 0xE5 SHL DUP2 MSTORE PUSH1 0x20 PUSH1 0x4 DUP3 ADD MSTORE PUSH1 0x6 PUSH1 0x24 DUP3 ADD MSTORE PUSH6 0x232927AD22A7 PUSH1 0xD1 SHL PUSH1 0x44 DUP3 ADD MSTORE SWAP1 MLOAD SWAP1 DUP2 SWAP1 SUB PUSH1 0x64 ADD SWAP1 REVERT JUMPDEST DUP3 DUP1 SLOAD PUSH1 0x1 DUP2 PUSH1 0x1 AND ISZERO PUSH2 0x100 MUL SUB AND PUSH1 0x2 SWAP1 DIV SWAP1 PUSH1 0x0 MSTORE PUSH1 0x20 PUSH1 0x0 KECCAK256 SWAP1 PUSH1 0x1F ADD PUSH1 0x20 SWAP1 DIV DUP2 ADD SWAP3 DUP3 PUSH1 0x1F LT PUSH3 0x4E1 JUMPI DUP1 MLOAD PUSH1 0xFF NOT AND DUP4 DUP1 ADD OR DUP6 SSTORE PUSH3 0x511 JUMP JUMPDEST DUP3 DUP1 ADD PUSH1 0x1 ADD DUP6 SSTORE DUP3 ISZERO PUSH3 0x511 JUMPI SWAP2 DUP3 ADD JUMPDEST DUP3 DUP2 GT ISZERO PUSH3 0x511 JUMPI DUP3 MLOAD DUP3 SSTORE SWAP2 PUSH1 0x20 ADD SWAP2 SWAP1 PUSH1 0x1 ADD SWAP1 PUSH3 0x4F4 JUMP JUMPDEST POP PUSH3 0x51F SWAP3 SWAP2 POP PUSH3 0x523 JUMP JUMPDEST POP SWAP1 JUMP JUMPDEST JUMPDEST DUP1 DUP3 GT ISZERO PUSH3 0x51F JUMPI PUSH1 0x0 DUP2 SSTORE PUSH1 0x1 ADD PUSH3 0x524 JUMP JUMPDEST PUSH2 0x1095 DUP1 PUSH3 0x54A PUSH1 0x0 CODECOPY PUSH1 0x0 RETURN INVALID PUSH1 0x80 PUSH1 0x40 MSTORE CALLVALUE DUP1 ISZERO PUSH2 0x10 JUMPI PUSH1 0x0 DUP1 REVERT JUMPDEST POP PUSH1 0x4 CALLDATASIZE LT PUSH2 0x12C JUMPI PUSH1 0x0 CALLDATALOAD PUSH1 0xE0 SHR DUP1 PUSH4 0x5BB9058B GT PUSH2 0xAD JUMPI DUP1 PUSH4 0x902D55A5 GT PUSH2 0x71 JUMPI DUP1 PUSH4 0x902D55A5 EQ PUSH2 0x3BC JUMPI DUP1 PUSH4 0x95D89B41 EQ PUSH2 0x3C4 JUMPI DUP1 PUSH4 0xA457C2D7 EQ PUSH2 0x3CC JUMPI DUP1 PUSH4 0xA9059CBB EQ PUSH2 0x3F8 JUMPI DUP1 PUSH4 0xDD62ED3E EQ PUSH2 0x424 JUMPI PUSH2 0x12C JUMP JUMPDEST DUP1 PUSH4 0x5BB9058B EQ PUSH2 0x2FB JUMPI DUP1 PUSH4 0x70A08231 EQ PUSH2 0x321 JUMPI DUP1 PUSH4 0x79CC6790 EQ PUSH2 0x347 JUMPI DUP1 PUSH4 0x7CC4129A EQ PUSH2 0x373 JUMPI DUP1 PUSH4 0x85B75F5F EQ PUSH2 0x39C JUMPI PUSH2 0x12C JUMP JUMPDEST DUP1 PUSH4 0x313CE567 GT PUSH2 0xF4 JUMPI DUP1 PUSH4 0x313CE567 EQ PUSH2 0x25C JUMPI DUP1 PUSH4 0x39509351 EQ PUSH2 0x264 JUMPI DUP1 PUSH4 0x42966C68 EQ PUSH2 0x290 JUMPI DUP1 PUSH4 0x48422FAA EQ PUSH2 0x2AF JUMPI DUP1 PUSH4 0x48EA30DA EQ PUSH2 0x2D5 JUMPI PUSH2 0x12C JUMP JUMPDEST DUP1 PUSH4 0x6FDDE03 EQ PUSH2 0x131 JUMPI DUP1 PUSH4 0x95EA7B3 EQ PUSH2 0x1AE JUMPI DUP1 PUSH4 0x18160DDD EQ PUSH2 0x1EE JUMPI DUP1 PUSH4 0x23B872DD EQ PUSH2 0x208 JUMPI DUP1 PUSH4 0x2E0F2625 EQ PUSH2 0x23E JUMPI JUMPDEST PUSH1 0x0 DUP1 REVERT JUMPDEST PUSH2 0x139 PUSH2 0x452 JUMP JUMPDEST PUSH1 0x40 DUP1 MLOAD PUSH1 0x20 DUP1 DUP3 MSTORE DUP4 MLOAD DUP2 DUP4 ADD MSTORE DUP4 MLOAD SWAP2 SWAP3 DUP4 SWAP3 SWAP1 DUP4 ADD SWAP2 DUP6 ADD SWAP1 DUP1 DUP4 DUP4 PUSH1 0x0 JUMPDEST DUP4 DUP2 LT ISZERO PUSH2 0x173 JUMPI DUP2 DUP2 ADD MLOAD DUP4 DUP3 ADD MSTORE PUSH1 0x20 ADD PUSH2 0x15B JUMP JUMPDEST POP POP POP POP SWAP1 POP SWAP1 DUP2 ADD SWAP1 PUSH1 0x1F AND DUP1 ISZERO PUSH2 0x1A0 JUMPI DUP1 DUP3 SUB DUP1 MLOAD PUSH1 0x1 DUP4 PUSH1 0x20 SUB PUSH2 0x100 EXP SUB NOT AND DUP2 MSTORE PUSH1 0x20 ADD SWAP2 POP JUMPDEST POP SWAP3 POP POP POP PUSH1 0x40 MLOAD DUP1 SWAP2 SUB SWAP1 RETURN JUMPDEST PUSH2 0x1DA PUSH1 0x4 DUP1 CALLDATASIZE SUB PUSH1 0x40 DUP2 LT ISZERO PUSH2 0x1C4 JUMPI PUSH1 0x0 DUP1 REVERT JUMPDEST POP PUSH1 0x1 PUSH1 0x1 PUSH1 0xA0 SHL SUB DUP2 CALLDATALOAD AND SWAP1 PUSH1 0x20 ADD CALLDATALOAD PUSH2 0x4E8 JUMP JUMPDEST PUSH1 0x40 DUP1 MLOAD SWAP2 ISZERO ISZERO DUP3 MSTORE MLOAD SWAP1 DUP2 SWAP1 SUB PUSH1 0x20 ADD SWAP1 RETURN JUMPDEST PUSH2 0x1F6 PUSH2 0x505 JUMP JUMPDEST PUSH1 0x40 DUP1 MLOAD SWAP2 DUP3 MSTORE MLOAD SWAP1 DUP2 SWAP1 SUB PUSH1 0x20 ADD SWAP1 RETURN JUMPDEST PUSH2 0x1DA PUSH1 0x4 DUP1 CALLDATASIZE SUB PUSH1 0x60 DUP2 LT ISZERO PUSH2 0x21E JUMPI PUSH1 0x0 DUP1 REVERT JUMPDEST POP PUSH1 0x1 PUSH1 0x1 PUSH1 0xA0 SHL SUB DUP2 CALLDATALOAD DUP2 AND SWAP2 PUSH1 0x20 DUP2 ADD CALLDATALOAD SWAP1 SWAP2 AND SWAP1 PUSH1 0x40 ADD CALLDATALOAD PUSH2 0x50B JUMP JUMPDEST PUSH2 0x246 PUSH2 0x592 JUMP JUMPDEST PUSH1 0x40 DUP1 MLOAD PUSH1 0xFF SWAP1 SWAP3 AND DUP3 MSTORE MLOAD SWAP1 DUP2 SWAP1 SUB PUSH1 0x20 ADD SWAP1 RETURN JUMPDEST PUSH2 0x246 PUSH2 0x597 JUMP JUMPDEST PUSH2 0x1DA PUSH1 0x4 DUP1 CALLDATASIZE SUB PUSH1 0x40 DUP2 LT ISZERO PUSH2 0x27A JUMPI PUSH1 0x0 DUP1 REVERT JUMPDEST POP PUSH1 0x1 PUSH1 0x1 PUSH1 0xA0 SHL SUB DUP2 CALLDATALOAD AND SWAP1 PUSH1 0x20 ADD CALLDATALOAD PUSH2 0x5A0 JUMP JUMPDEST PUSH2 0x2AD PUSH1 0x4 DUP1 CALLDATASIZE SUB PUSH1 0x20 DUP2 LT ISZERO PUSH2 0x2A6 JUMPI PUSH1 0x0 DUP1 REVERT JUMPDEST POP CALLDATALOAD PUSH2 0x5EE JUMP JUMPDEST STOP JUMPDEST PUSH2 0x1DA PUSH1 0x4 DUP1 CALLDATASIZE SUB PUSH1 0x20 DUP2 LT ISZERO PUSH2 0x2C5 JUMPI PUSH1 0x0 DUP1 REVERT JUMPDEST POP CALLDATALOAD PUSH1 0x1 PUSH1 0x1 PUSH1 0xA0 SHL SUB AND PUSH2 0x602 JUMP JUMPDEST PUSH2 0x2AD PUSH1 0x4 DUP1 CALLDATASIZE SUB PUSH1 0x20 DUP2 LT ISZERO PUSH2 0x2EB JUMPI PUSH1 0x0 DUP1 REVERT JUMPDEST POP CALLDATALOAD PUSH1 0x1 PUSH1 0x1 PUSH1 0xA0 SHL SUB AND PUSH2 0x617 JUMP JUMPDEST PUSH2 0x2AD PUSH1 0x4 DUP1 CALLDATASIZE SUB PUSH1 0x20 DUP2 LT ISZERO PUSH2 0x311 JUMPI PUSH1 0x0 DUP1 REVERT JUMPDEST POP CALLDATALOAD PUSH1 0x1 PUSH1 0x1 PUSH1 0xA0 SHL SUB AND PUSH2 0x639 JUMP JUMPDEST PUSH2 0x1F6 PUSH1 0x4 DUP1 CALLDATASIZE SUB PUSH1 0x20 DUP2 LT ISZERO PUSH2 0x337 JUMPI PUSH1 0x0 DUP1 REVERT JUMPDEST POP CALLDATALOAD PUSH1 0x1 PUSH1 0x1 PUSH1 0xA0 SHL SUB AND PUSH2 0x65D JUMP JUMPDEST PUSH2 0x2AD PUSH1 0x4 DUP1 CALLDATASIZE SUB PUSH1 0x40 DUP2 LT ISZERO PUSH2 0x35D JUMPI PUSH1 0x0 DUP1 REVERT JUMPDEST POP PUSH1 0x1 PUSH1 0x1 PUSH1 0xA0 SHL SUB DUP2 CALLDATALOAD AND SWAP1 PUSH1 0x20 ADD CALLDATALOAD PUSH2 0x678 JUMP JUMPDEST PUSH2 0x37B PUSH2 0x6D2 JUMP JUMPDEST PUSH1 0x40 MLOAD DUP1 DUP3 PUSH1 0x3 DUP2 GT ISZERO PUSH2 0x38B JUMPI INVALID JUMPDEST DUP2 MSTORE PUSH1 0x20 ADD SWAP2 POP POP PUSH1 0x40 MLOAD DUP1 SWAP2 SUB SWAP1 RETURN JUMPDEST PUSH2 0x2AD PUSH1 0x4 DUP1 CALLDATASIZE SUB PUSH1 0x20 DUP2 LT ISZERO PUSH2 0x3B2 JUMPI PUSH1 0x0 DUP1 REVERT JUMPDEST POP CALLDATALOAD PUSH1 0xFF AND PUSH2 0x6E2 JUMP JUMPDEST PUSH2 0x1F6 PUSH2 0x709 JUMP JUMPDEST PUSH2 0x139 PUSH2 0x714 JUMP JUMPDEST PUSH2 0x1DA PUSH1 0x4 DUP1 CALLDATASIZE SUB PUSH1 0x40 DUP2 LT ISZERO PUSH2 0x3E2 JUMPI PUSH1 0x0 DUP1 REVERT JUMPDEST POP PUSH1 0x1 PUSH1 0x1 PUSH1 0xA0 SHL SUB DUP2 CALLDATALOAD AND SWAP1 PUSH1 0x20 ADD CALLDATALOAD PUSH2 0x775 JUMP JUMPDEST PUSH2 0x1DA PUSH1 0x4 DUP1 CALLDATASIZE SUB PUSH1 0x40 DUP2 LT ISZERO PUSH2 0x40E JUMPI PUSH1 0x0 DUP1 REVERT JUMPDEST POP PUSH1 0x1 PUSH1 0x1 PUSH1 0xA0 SHL SUB DUP2 CALLDATALOAD AND SWAP1 PUSH1 0x20 ADD CALLDATALOAD PUSH2 0x7DD JUMP JUMPDEST PUSH2 0x1F6 PUSH1 0x4 DUP1 CALLDATASIZE SUB PUSH1 0x40 DUP2 LT ISZERO PUSH2 0x43A JUMPI PUSH1 0x0 DUP1 REVERT JUMPDEST POP PUSH1 0x1 PUSH1 0x1 PUSH1 0xA0 SHL SUB DUP2 CALLDATALOAD DUP2 AND SWAP2 PUSH1 0x20 ADD CALLDATALOAD AND PUSH2 0x7F1 JUMP JUMPDEST PUSH1 0x3 DUP1 SLOAD PUSH1 0x40 DUP1 MLOAD PUSH1 0x20 PUSH1 0x1F PUSH1 0x2 PUSH1 0x0 NOT PUSH2 0x100 PUSH1 0x1 DUP9 AND ISZERO MUL ADD SWAP1 SWAP6 AND SWAP5 SWAP1 SWAP5 DIV SWAP4 DUP5 ADD DUP2 SWAP1 DIV DUP2 MUL DUP3 ADD DUP2 ADD SWAP1 SWAP3 MSTORE DUP3 DUP2 MSTORE PUSH1 0x60 SWAP4 SWAP1 SWAP3 SWAP1 SWAP2 DUP4 ADD DUP3 DUP3 DUP1 ISZERO PUSH2 0x4DE JUMPI DUP1 PUSH1 0x1F LT PUSH2 0x4B3 JUMPI PUSH2 0x100 DUP1 DUP4 SLOAD DIV MUL DUP4 MSTORE SWAP2 PUSH1 0x20 ADD SWAP2 PUSH2 0x4DE JUMP JUMPDEST DUP3 ADD SWAP2 SWAP1 PUSH1 0x0 MSTORE PUSH1 0x20 PUSH1 0x0 KECCAK256 SWAP1 JUMPDEST DUP2 SLOAD DUP2 MSTORE SWAP1 PUSH1 0x1 ADD SWAP1 PUSH1 0x20 ADD DUP1 DUP4 GT PUSH2 0x4C1 JUMPI DUP3 SWAP1 SUB PUSH1 0x1F AND DUP3 ADD SWAP2 JUMPDEST POP POP POP POP POP SWAP1 POP SWAP1 JUMP JUMPDEST PUSH1 0x0 PUSH2 0x4FC PUSH2 0x4F5 PUSH2 0x8DF JUMP JUMPDEST DUP5 DUP5 PUSH2 0x8E3 JUMP JUMPDEST POP PUSH1 0x1 SWAP3 SWAP2 POP POP JUMP JUMPDEST PUSH1 0x2 SLOAD SWAP1 JUMP JUMPDEST PUSH1 0x0 PUSH2 0x518 DUP5 DUP5 DUP5 PUSH2 0x9CF JUMP JUMPDEST PUSH2 0x588 DUP5 PUSH2 0x524 PUSH2 0x8DF JUMP JUMPDEST PUSH2 0x583 DUP6 PUSH1 0x40 MLOAD DUP1 PUSH1 0x60 ADD PUSH1 0x40 MSTORE DUP1 PUSH1 0x28 DUP2 MSTORE PUSH1 0x20 ADD PUSH2 0xF85 PUSH1 0x28 SWAP2 CODECOPY PUSH1 0x1 PUSH1 0x1 PUSH1 0xA0 SHL SUB DUP11 AND PUSH1 0x0 SWAP1 DUP2 MSTORE PUSH1 0x1 PUSH1 0x20 MSTORE PUSH1 0x40 DUP2 KECCAK256 SWAP1 PUSH2 0x562 PUSH2 0x8DF JUMP JUMPDEST PUSH1 0x1 PUSH1 0x1 PUSH1 0xA0 SHL SUB AND DUP2 MSTORE PUSH1 0x20 DUP2 ADD SWAP2 SWAP1 SWAP2 MSTORE PUSH1 0x40 ADD PUSH1 0x0 KECCAK256 SLOAD SWAP2 SWAP1 PUSH2 0xB2A JUMP JUMPDEST PUSH2 0x8E3 JUMP JUMPDEST POP PUSH1 0x1 SWAP4 SWAP3 POP POP POP JUMP JUMPDEST PUSH1 0x6 DUP2 JUMP JUMPDEST PUSH1 0x5 SLOAD PUSH1 0xFF AND SWAP1 JUMP JUMPDEST PUSH1 0x0 PUSH2 0x4FC PUSH2 0x5AD PUSH2 0x8DF JUMP JUMPDEST DUP5 PUSH2 0x583 DUP6 PUSH1 0x1 PUSH1 0x0 PUSH2 0x5BE PUSH2 0x8DF JUMP JUMPDEST PUSH1 0x1 PUSH1 0x1 PUSH1 0xA0 SHL SUB SWAP1 DUP2 AND DUP3 MSTORE PUSH1 0x20 DUP1 DUP4 ADD SWAP4 SWAP1 SWAP4 MSTORE PUSH1 0x40 SWAP2 DUP3 ADD PUSH1 0x0 SWAP1 DUP2 KECCAK256 SWAP2 DUP13 AND DUP2 MSTORE SWAP3 MSTORE SWAP1 KECCAK256 SLOAD SWAP1 PUSH2 0x81C JUMP JUMPDEST PUSH2 0x5FF PUSH2 0x5F9 PUSH2 0x8DF JUMP JUMPDEST DUP3 PUSH2 0xBC1 JUMP JUMPDEST POP JUMP JUMPDEST PUSH1 0x6 PUSH1 0x20 MSTORE PUSH1 0x0 SWAP1 DUP2 MSTORE PUSH1 0x40 SWAP1 KECCAK256 SLOAD PUSH1 0xFF AND DUP2 JUMP JUMPDEST PUSH1 0x7 DUP1 SLOAD PUSH1 0x1 PUSH1 0x1 PUSH1 0xA0 SHL SUB NOT AND PUSH1 0x1 PUSH1 0x1 PUSH1 0xA0 SHL SUB SWAP3 SWAP1 SWAP3 AND SWAP2 SWAP1 SWAP2 OR SWAP1 SSTORE JUMP JUMPDEST PUSH1 0x1 PUSH1 0x1 PUSH1 0xA0 SHL SUB AND PUSH1 0x0 SWAP1 DUP2 MSTORE PUSH1 0x6 PUSH1 0x20 MSTORE PUSH1 0x40 SWAP1 KECCAK256 DUP1 SLOAD PUSH1 0xFF NOT AND PUSH1 0x1 OR SWAP1 SSTORE JUMP JUMPDEST PUSH1 0x1 PUSH1 0x1 PUSH1 0xA0 SHL SUB AND PUSH1 0x0 SWAP1 DUP2 MSTORE PUSH1 0x20 DUP2 SWAP1 MSTORE PUSH1 0x40 SWAP1 KECCAK256 SLOAD SWAP1 JUMP JUMPDEST PUSH1 0x0 PUSH2 0x6AF DUP3 PUSH1 0x40 MLOAD DUP1 PUSH1 0x60 ADD PUSH1 0x40 MSTORE DUP1 PUSH1 0x24 DUP2 MSTORE PUSH1 0x20 ADD PUSH2 0xFAD PUSH1 0x24 SWAP2 CODECOPY PUSH2 0x6A8 DUP7 PUSH2 0x6A3 PUSH2 0x8DF JUMP JUMPDEST PUSH2 0x7F1 JUMP JUMPDEST SWAP2 SWAP1 PUSH2 0xB2A JUMP JUMPDEST SWAP1 POP PUSH2 0x6C3 DUP4 PUSH2 0x6BD PUSH2 0x8DF JUMP JUMPDEST DUP4 PUSH2 0x8E3 JUMP JUMPDEST PUSH2 0x6CD DUP4 DUP4 PUSH2 0xBC1 JUMP JUMPDEST POP POP POP JUMP JUMPDEST PUSH1 0x7 SLOAD PUSH1 0x1 PUSH1 0xA0 SHL SWAP1 DIV PUSH1 0xFF AND DUP2 JUMP JUMPDEST PUSH1 0x7 DUP1 SLOAD DUP3 SWAP2 SWAP1 PUSH1 0xFF PUSH1 0xA0 SHL NOT AND PUSH1 0x1 PUSH1 0xA0 SHL DUP4 PUSH1 0x3 DUP2 GT ISZERO PUSH2 0x701 JUMPI INVALID JUMPDEST MUL OR SWAP1 SSTORE POP POP JUMP JUMPDEST PUSH7 0x38D7EA4C68000 DUP2 JUMP JUMPDEST PUSH1 0x4 DUP1 SLOAD PUSH1 0x40 DUP1 MLOAD PUSH1 0x20 PUSH1 0x1F PUSH1 0x2 PUSH1 0x0 NOT PUSH2 0x100 PUSH1 0x1 DUP9 AND ISZERO MUL ADD SWAP1 SWAP6 AND SWAP5 SWAP1 SWAP5 DIV SWAP4 DUP5 ADD DUP2 SWAP1 DIV DUP2 MUL DUP3 ADD DUP2 ADD SWAP1 SWAP3 MSTORE DUP3 DUP2 MSTORE PUSH1 0x60 SWAP4 SWAP1 SWAP3 SWAP1 SWAP2 DUP4 ADD DUP3 DUP3 DUP1 ISZERO PUSH2 0x4DE JUMPI DUP1 PUSH1 0x1F LT PUSH2 0x4B3 JUMPI PUSH2 0x100 DUP1 DUP4 SLOAD DIV MUL DUP4 MSTORE SWAP2 PUSH1 0x20 ADD SWAP2 PUSH2 0x4DE JUMP JUMPDEST PUSH1 0x0 PUSH2 0x4FC PUSH2 0x782 PUSH2 0x8DF JUMP JUMPDEST DUP5 PUSH2 0x583 DUP6 PUSH1 0x40 MLOAD DUP1 PUSH1 0x60 ADD PUSH1 0x40 MSTORE DUP1 PUSH1 0x25 DUP2 MSTORE PUSH1 0x20 ADD PUSH2 0x103B PUSH1 0x25 SWAP2 CODECOPY PUSH1 0x1 PUSH1 0x0 PUSH2 0x7AC PUSH2 0x8DF JUMP JUMPDEST PUSH1 0x1 PUSH1 0x1 PUSH1 0xA0 SHL SUB SWAP1 DUP2 AND DUP3 MSTORE PUSH1 0x20 DUP1 DUP4 ADD SWAP4 SWAP1 SWAP4 MSTORE PUSH1 0x40 SWAP2 DUP3 ADD PUSH1 0x0 SWAP1 DUP2 KECCAK256 SWAP2 DUP14 AND DUP2 MSTORE SWAP3 MSTORE SWAP1 KECCAK256 SLOAD SWAP2 SWAP1 PUSH2 0xB2A JUMP JUMPDEST PUSH1 0x0 PUSH2 0x4FC PUSH2 0x7EA PUSH2 0x8DF JUMP JUMPDEST DUP5 DUP5 PUSH2 0x9CF JUMP JUMPDEST PUSH1 0x1 PUSH1 0x1 PUSH1 0xA0 SHL SUB SWAP2 DUP3 AND PUSH1 0x0 SWAP1 DUP2 MSTORE PUSH1 0x1 PUSH1 0x20 SWAP1 DUP2 MSTORE PUSH1 0x40 DUP1 DUP4 KECCAK256 SWAP4 SWAP1 SWAP5 AND DUP3 MSTORE SWAP2 SWAP1 SWAP2 MSTORE KECCAK256 SLOAD SWAP1 JUMP JUMPDEST PUSH1 0x0 DUP3 DUP3 ADD DUP4 DUP2 LT ISZERO PUSH2 0x876 JUMPI PUSH1 0x40 DUP1 MLOAD PUSH3 0x461BCD PUSH1 0xE5 SHL DUP2 MSTORE PUSH1 0x20 PUSH1 0x4 DUP3 ADD MSTORE PUSH1 0x1B PUSH1 0x24 DUP3 ADD MSTORE PUSH32 0x536166654D6174683A206164646974696F6E206F766572666C6F770000000000 PUSH1 0x44 DUP3 ADD MSTORE SWAP1 MLOAD SWAP1 DUP2 SWAP1 SUB PUSH1 0x64 ADD SWAP1 REVERT JUMPDEST SWAP4 SWAP3 POP POP POP JUMP JUMPDEST PUSH2 0x888 DUP4 DUP4 DUP4 PUSH2 0x6CD JUMP JUMPDEST PUSH1 0x1 PUSH1 0x1 PUSH1 0xA0 SHL SUB DUP3 AND PUSH1 0x0 SWAP1 DUP2 MSTORE PUSH1 0x6 PUSH1 0x20 MSTORE PUSH1 0x40 SWAP1 KECCAK256 SLOAD PUSH1 0xFF AND ISZERO PUSH2 0x6CD JUMPI PUSH1 0x40 DUP1 MLOAD PUSH3 0x461BCD PUSH1 0xE5 SHL DUP2 MSTORE PUSH1 0x20 PUSH1 0x4 DUP3 ADD MSTORE PUSH1 0x6 PUSH1 0x24 DUP3 ADD MSTORE PUSH6 0x232927AD22A7 PUSH1 0xD1 SHL PUSH1 0x44 DUP3 ADD MSTORE SWAP1 MLOAD SWAP1 DUP2 SWAP1 SUB PUSH1 0x64 ADD SWAP1 REVERT JUMPDEST CALLER SWAP1 JUMP JUMPDEST PUSH1 0x1 PUSH1 0x1 PUSH1 0xA0 SHL SUB DUP4 AND PUSH2 0x928 JUMPI PUSH1 0x40 MLOAD PUSH3 0x461BCD PUSH1 0xE5 SHL DUP2 MSTORE PUSH1 0x4 ADD DUP1 DUP1 PUSH1 0x20 ADD DUP3 DUP2 SUB DUP3 MSTORE PUSH1 0x24 DUP2 MSTORE PUSH1 0x20 ADD DUP1 PUSH2 0x1017 PUSH1 0x24 SWAP2 CODECOPY PUSH1 0x40 ADD SWAP2 POP POP PUSH1 0x40 MLOAD DUP1 SWAP2 SUB SWAP1 REVERT JUMPDEST PUSH1 0x1 PUSH1 0x1 PUSH1 0xA0 SHL SUB DUP3 AND PUSH2 0x96D JUMPI PUSH1 0x40 MLOAD PUSH3 0x461BCD PUSH1 0xE5 SHL DUP2 MSTORE PUSH1 0x4 ADD DUP1 DUP1 PUSH1 0x20 ADD DUP3 DUP2 SUB DUP3 MSTORE PUSH1 0x22 DUP2 MSTORE PUSH1 0x20 ADD DUP1 PUSH2 0xF3D PUSH1 0x22 SWAP2 CODECOPY PUSH1 0x40 ADD SWAP2 POP POP PUSH1 0x40 MLOAD DUP1 SWAP2 SUB SWAP1 REVERT JUMPDEST PUSH1 0x1 PUSH1 0x1 PUSH1 0xA0 SHL SUB DUP1 DUP5 AND PUSH1 0x0 DUP2 DUP2 MSTORE PUSH1 0x1 PUSH1 0x20 SWAP1 DUP2 MSTORE PUSH1 0x40 DUP1 DUP4 KECCAK256 SWAP5 DUP8 AND DUP1 DUP5 MSTORE SWAP5 DUP3 MSTORE SWAP2 DUP3 SWAP1 KECCAK256 DUP6 SWAP1 SSTORE DUP2 MLOAD DUP6 DUP2 MSTORE SWAP2 MLOAD PUSH32 0x8C5BE1E5EBEC7D5BD14F71427D1E84F3DD0314C0F7B2291E5B200AC8C7C3B925 SWAP3 DUP2 SWAP1 SUB SWAP1 SWAP2 ADD SWAP1 LOG3 POP POP POP JUMP JUMPDEST PUSH1 0x1 PUSH1 0x1 PUSH1 0xA0 SHL SUB DUP4 AND PUSH2 0xA14 JUMPI PUSH1 0x40 MLOAD PUSH3 0x461BCD PUSH1 0xE5 SHL DUP2 MSTORE PUSH1 0x4 ADD DUP1 DUP1 PUSH1 0x20 ADD DUP3 DUP2 SUB DUP3 MSTORE PUSH1 0x25 DUP2 MSTORE PUSH1 0x20 ADD DUP1 PUSH2 0xFF2 PUSH1 0x25 SWAP2 CODECOPY PUSH1 0x40 ADD SWAP2 POP POP PUSH1 0x40 MLOAD DUP1 SWAP2 SUB SWAP1 REVERT JUMPDEST PUSH1 0x1 PUSH1 0x1 PUSH1 0xA0 SHL SUB DUP3 AND PUSH2 0xA59 JUMPI PUSH1 0x40 MLOAD PUSH3 0x461BCD PUSH1 0xE5 SHL DUP2 MSTORE PUSH1 0x4 ADD DUP1 DUP1 PUSH1 0x20 ADD DUP3 DUP2 SUB DUP3 MSTORE PUSH1 0x23 DUP2 MSTORE PUSH1 0x20 ADD DUP1 PUSH2 0xEF8 PUSH1 0x23 SWAP2 CODECOPY PUSH1 0x40 ADD SWAP2 POP POP PUSH1 0x40 MLOAD DUP1 SWAP2 SUB SWAP1 REVERT JUMPDEST PUSH2 0xA64 DUP4 DUP4 DUP4 PUSH2 0xCBD JUMP JUMPDEST PUSH2 0xAA1 DUP2 PUSH1 0x40 MLOAD DUP1 PUSH1 0x60 ADD PUSH1 0x40 MSTORE DUP1 PUSH1 0x26 DUP2 MSTORE PUSH1 0x20 ADD PUSH2 0xF5F PUSH1 0x26 SWAP2 CODECOPY PUSH1 0x1 PUSH1 0x1 PUSH1 0xA0 SHL SUB DUP7 AND PUSH1 0x0 SWAP1 DUP2 MSTORE PUSH1 0x20 DUP2 SWAP1 MSTORE PUSH1 0x40 SWAP1 KECCAK256 SLOAD SWAP2 SWAP1 PUSH2 0xB2A JUMP JUMPDEST PUSH1 0x1 PUSH1 0x1 PUSH1 0xA0 SHL SUB DUP1 DUP6 AND PUSH1 0x0 SWAP1 DUP2 MSTORE PUSH1 0x20 DUP2 SWAP1 MSTORE PUSH1 0x40 DUP1 DUP3 KECCAK256 SWAP4 SWAP1 SWAP4 SSTORE SWAP1 DUP5 AND DUP2 MSTORE KECCAK256 SLOAD PUSH2 0xAD0 SWAP1 DUP3 PUSH2 0x81C JUMP JUMPDEST PUSH1 0x1 PUSH1 0x1 PUSH1 0xA0 SHL SUB DUP1 DUP5 AND PUSH1 0x0 DUP2 DUP2 MSTORE PUSH1 0x20 DUP2 DUP2 MSTORE PUSH1 0x40 SWAP2 DUP3 SWAP1 KECCAK256 SWAP5 SWAP1 SWAP5 SSTORE DUP1 MLOAD DUP6 DUP2 MSTORE SWAP1 MLOAD SWAP2 SWAP4 SWAP3 DUP8 AND SWAP3 PUSH32 0xDDF252AD1BE2C89B69C2B068FC378DAA952BA7F163C4A11628F55A4DF523B3EF SWAP3 SWAP2 DUP3 SWAP1 SUB ADD SWAP1 LOG3 POP POP POP JUMP JUMPDEST PUSH1 0x0 DUP2 DUP5 DUP5 GT ISZERO PUSH2 0xBB9 JUMPI PUSH1 0x40 MLOAD PUSH3 0x461BCD PUSH1 0xE5 SHL DUP2 MSTORE PUSH1 0x4 ADD DUP1 DUP1 PUSH1 0x20 ADD DUP3 DUP2 SUB DUP3 MSTORE DUP4 DUP2 DUP2 MLOAD DUP2 MSTORE PUSH1 0x20 ADD SWAP2 POP DUP1 MLOAD SWAP1 PUSH1 0x20 ADD SWAP1 DUP1 DUP4 DUP4 PUSH1 0x0 JUMPDEST DUP4 DUP2 LT ISZERO PUSH2 0xB7E JUMPI DUP2 DUP2 ADD MLOAD DUP4 DUP3 ADD MSTORE PUSH1 0x20 ADD PUSH2 0xB66 JUMP JUMPDEST POP POP POP POP SWAP1 POP SWAP1 DUP2 ADD SWAP1 PUSH1 0x1F AND DUP1 ISZERO PUSH2 0xBAB JUMPI DUP1 DUP3 SUB DUP1 MLOAD PUSH1 0x1 DUP4 PUSH1 0x20 SUB PUSH2 0x100 EXP SUB NOT AND DUP2 MSTORE PUSH1 0x20 ADD SWAP2 POP JUMPDEST POP SWAP3 POP POP POP PUSH1 0x40 MLOAD DUP1 SWAP2 SUB SWAP1 REVERT JUMPDEST POP POP POP SWAP1 SUB SWAP1 JUMP JUMPDEST PUSH1 0x1 PUSH1 0x1 PUSH1 0xA0 SHL SUB DUP3 AND PUSH2 0xC06 JUMPI PUSH1 0x40 MLOAD PUSH3 0x461BCD PUSH1 0xE5 SHL DUP2 MSTORE PUSH1 0x4 ADD DUP1 DUP1 PUSH1 0x20 ADD DUP3 DUP2 SUB DUP3 MSTORE PUSH1 0x21 DUP2 MSTORE PUSH1 0x20 ADD DUP1 PUSH2 0xFD1 PUSH1 0x21 SWAP2 CODECOPY PUSH1 0x40 ADD SWAP2 POP POP PUSH1 0x40 MLOAD DUP1 SWAP2 SUB SWAP1 REVERT JUMPDEST PUSH2 0xC12 DUP3 PUSH1 0x0 DUP4 PUSH2 0xCBD JUMP JUMPDEST PUSH2 0xC4F DUP2 PUSH1 0x40 MLOAD DUP1 PUSH1 0x60 ADD PUSH1 0x40 MSTORE DUP1 PUSH1 0x22 DUP2 MSTORE PUSH1 0x20 ADD PUSH2 0xF1B PUSH1 0x22 SWAP2 CODECOPY PUSH1 0x1 PUSH1 0x1 PUSH1 0xA0 SHL SUB DUP6 AND PUSH1 0x0 SWAP1 DUP2 MSTORE PUSH1 0x20 DUP2 SWAP1 MSTORE PUSH1 0x40 SWAP1 KECCAK256 SLOAD SWAP2 SWAP1 PUSH2 0xB2A JUMP JUMPDEST PUSH1 0x1 PUSH1 0x1 PUSH1 0xA0 SHL SUB DUP4 AND PUSH1 0x0 SWAP1 DUP2 MSTORE PUSH1 0x20 DUP2 SWAP1 MSTORE PUSH1 0x40 SWAP1 KECCAK256 SSTORE PUSH1 0x2 SLOAD PUSH2 0xC75 SWAP1 DUP3 PUSH2 0xE9A JUMP JUMPDEST PUSH1 0x2 SSTORE PUSH1 0x40 DUP1 MLOAD DUP3 DUP2 MSTORE SWAP1 MLOAD PUSH1 0x0 SWAP2 PUSH1 0x1 PUSH1 0x1 PUSH1 0xA0 SHL SUB DUP6 AND SWAP2 PUSH32 0xDDF252AD1BE2C89B69C2B068FC378DAA952BA7F163C4A11628F55A4DF523B3EF SWAP2 DUP2 SWAP1 SUB PUSH1 0x20 ADD SWAP1 LOG3 POP POP JUMP JUMPDEST PUSH2 0xCC8 DUP4 DUP4 DUP4 PUSH2 0x87D JUMP JUMPDEST PUSH1 0x1 PUSH1 0x7 SLOAD PUSH1 0x1 PUSH1 0xA0 SHL SWAP1 DIV PUSH1 0xFF AND PUSH1 0x3 DUP2 GT ISZERO PUSH2 0xCE2 JUMPI INVALID JUMPDEST EQ DUP1 ISZERO PUSH2 0xCFC JUMPI POP PUSH1 0x7 SLOAD PUSH1 0x1 PUSH1 0x1 PUSH1 0xA0 SHL SUB DUP4 DUP2 AND SWAP2 AND EQ JUMPDEST ISZERO PUSH2 0xD71 JUMPI PUSH1 0x7 SLOAD PUSH1 0x40 DUP1 MLOAD PUSH4 0x59A8039 PUSH1 0xE2 SHL DUP2 MSTORE PUSH1 0x0 PUSH1 0x4 DUP3 ADD DUP2 SWAP1 MSTORE PUSH1 0x1 PUSH1 0x24 DUP4 ADD MSTORE SWAP2 MLOAD PUSH1 0x1 PUSH1 0x1 PUSH1 0xA0 SHL SUB SWAP1 SWAP4 AND SWAP3 PUSH4 0x166A00E4 SWAP3 PUSH1 0x44 DUP1 DUP5 ADD SWAP4 SWAP2 SWAP3 SWAP2 DUP3 SWAP1 SUB ADD DUP2 DUP4 DUP8 DUP1 EXTCODESIZE ISZERO DUP1 ISZERO PUSH2 0xD54 JUMPI PUSH1 0x0 DUP1 REVERT JUMPDEST POP GAS CALL ISZERO DUP1 ISZERO PUSH2 0xD68 JUMPI RETURNDATASIZE PUSH1 0x0 DUP1 RETURNDATACOPY RETURNDATASIZE PUSH1 0x0 REVERT JUMPDEST POP POP POP POP PUSH2 0x6CD JUMP JUMPDEST PUSH1 0x2 PUSH1 0x7 SLOAD PUSH1 0x1 PUSH1 0xA0 SHL SWAP1 DIV PUSH1 0xFF AND PUSH1 0x3 DUP2 GT ISZERO PUSH2 0xD8B JUMPI INVALID JUMPDEST EQ DUP1 ISZERO PUSH2 0xDA5 JUMPI POP PUSH1 0x7 SLOAD PUSH1 0x1 PUSH1 0x1 PUSH1 0xA0 SHL SUB DUP5 DUP2 AND SWAP2 AND EQ JUMPDEST ISZERO PUSH2 0xDF7 JUMPI PUSH1 0x7 SLOAD PUSH1 0x40 DUP1 MLOAD PUSH4 0x4A4484B PUSH1 0xE1 SHL DUP2 MSTORE PUSH1 0x1 PUSH1 0x4 DUP3 ADD MSTORE SWAP1 MLOAD PUSH1 0x1 PUSH1 0x1 PUSH1 0xA0 SHL SUB SWAP1 SWAP3 AND SWAP2 PUSH4 0x9489096 SWAP2 PUSH1 0x24 DUP1 DUP3 ADD SWAP3 PUSH1 0x0 SWAP3 SWAP1 SWAP2 SWAP1 DUP3 SWAP1 SUB ADD DUP2 DUP4 DUP8 DUP1 EXTCODESIZE ISZERO DUP1 ISZERO PUSH2 0xD54 JUMPI PUSH1 0x0 DUP1 REVERT JUMPDEST PUSH1 0x3 PUSH1 0x7 SLOAD PUSH1 0x1 PUSH1 0xA0 SHL SWAP1 DIV PUSH1 0xFF AND PUSH1 0x3 DUP2 GT ISZERO PUSH2 0xE11 JUMPI INVALID JUMPDEST EQ DUP1 ISZERO PUSH2 0xE2B JUMPI POP PUSH1 0x7 SLOAD PUSH1 0x1 PUSH1 0x1 PUSH1 0xA0 SHL SUB DUP5 DUP2 AND SWAP2 AND EQ JUMPDEST ISZERO PUSH2 0x6CD JUMPI PUSH1 0x7 SLOAD PUSH1 0x40 DUP1 MLOAD PUSH4 0xDB006A75 PUSH1 0xE0 SHL DUP2 MSTORE PUSH1 0x1 PUSH1 0x4 DUP3 ADD MSTORE SWAP1 MLOAD PUSH1 0x1 PUSH1 0x1 PUSH1 0xA0 SHL SUB SWAP1 SWAP3 AND SWAP2 PUSH4 0xDB006A75 SWAP2 PUSH1 0x24 DUP1 DUP3 ADD SWAP3 PUSH1 0x0 SWAP3 SWAP1 SWAP2 SWAP1 DUP3 SWAP1 SUB ADD DUP2 DUP4 DUP8 DUP1 EXTCODESIZE ISZERO DUP1 ISZERO PUSH2 0xE7D JUMPI PUSH1 0x0 DUP1 REVERT JUMPDEST POP GAS CALL ISZERO DUP1 ISZERO PUSH2 0xE91 JUMPI RETURNDATASIZE PUSH1 0x0 DUP1 RETURNDATACOPY RETURNDATASIZE PUSH1 0x0 REVERT JUMPDEST POP POP POP POP POP POP POP JUMP JUMPDEST PUSH1 0x0 DUP3 DUP3 GT ISZERO PUSH2 0xEF1 JUMPI PUSH1 0x40 DUP1 MLOAD PUSH3 0x461BCD PUSH1 0xE5 SHL DUP2 MSTORE PUSH1 0x20 PUSH1 0x4 DUP3 ADD MSTORE PUSH1 0x1E PUSH1 0x24 DUP3 ADD MSTORE PUSH32 0x536166654D6174683A207375627472616374696F6E206F766572666C6F770000 PUSH1 0x44 DUP3 ADD MSTORE SWAP1 MLOAD SWAP1 DUP2 SWAP1 SUB PUSH1 0x64 ADD SWAP1 REVERT JUMPDEST POP SWAP1 SUB SWAP1 JUMP INVALID GASLIMIT MSTORE NUMBER ORIGIN ADDRESS GASPRICE KECCAK256 PUSH21 0x72616E7366657220746F20746865207A65726F2061 PUSH5 0x6472657373 GASLIMIT MSTORE NUMBER ORIGIN ADDRESS GASPRICE KECCAK256 PUSH3 0x75726E KECCAK256 PUSH2 0x6D6F PUSH22 0x6E7420657863656564732062616C616E636545524332 ADDRESS GASPRICE KECCAK256 PUSH2 0x7070 PUSH19 0x6F766520746F20746865207A65726F20616464 PUSH19 0x65737345524332303A207472616E7366657220 PUSH2 0x6D6F PUSH22 0x6E7420657863656564732062616C616E636545524332 ADDRESS GASPRICE KECCAK256 PUSH21 0x72616E7366657220616D6F756E7420657863656564 PUSH20 0x20616C6C6F77616E636545524332303A20627572 PUSH15 0x20616D6F756E742065786365656473 KECCAK256 PUSH2 0x6C6C PUSH16 0x77616E636545524332303A206275726E KECCAK256 PUSH7 0x726F6D20746865 KECCAK256 PUSH27 0x65726F206164647265737345524332303A207472616E7366657220 PUSH7 0x726F6D20746865 KECCAK256 PUSH27 0x65726F206164647265737345524332303A20617070726F76652066 PUSH19 0x6F6D20746865207A65726F2061646472657373 GASLIMIT MSTORE NUMBER ORIGIN ADDRESS GASPRICE KECCAK256 PUSH5 0x6563726561 PUSH20 0x656420616C6C6F77616E63652062656C6F77207A PUSH6 0x726FA2646970 PUSH7 0x735822122095FD SWAP16 MSTORE 0xAA PUSH31 0xA7CA74B604A61249D53D64E2C2497CAB1BF1FD146590DB52944D64736F6C63 NUMBER STOP MOD 0xC STOP CALLER "
        },
        "methodIdentifiers": {
          "DECIMALS()": "2e0f2625",
          "TOTAL_SUPPLY()": "902d55a5",
          "addFreezable(address)": "5bb9058b",
          "addReentrantTarget(address)": "48ea30da",
          "allowance(address,address)": "dd62ed3e",
          "approve(address,uint256)": "095ea7b3",
          "balanceOf(address)": "70a08231",
          "burn(uint256)": "42966c68",
          "burnFrom(address,uint256)": "79cc6790",
          "decimals()": "313ce567",
          "decreaseAllowance(address,uint256)": "a457c2d7",
          "freezables(address)": "48422faa",
          "increaseAllowance(address,uint256)": "39509351",
          "methodTarget()": "7cc4129a",
          "name()": "06fdde03",
          "setMethodTarget(uint8)": "85b75f5f",
          "symbol()": "95d89b41",
          "totalSupply()": "18160ddd",
          "transfer(address,uint256)": "a9059cbb",
          "transferFrom(address,address,uint256)": "23b872dd"
        }
      }
    }
  }
}