{
  "contracts/test/TierUtilTest.sol": {
    "TierUtilTest": {
      "abi": [
        {
          "inputs": [
            {
              "internalType": "uint256",
              "name": "report_",
              "type": "uint256"
            },
            {
              "internalType": "uint256",
              "name": "blockNumber_",
              "type": "uint256"
            }
          ],
          "name": "tierAtBlockFromReport",
          "outputs": [
            {
              "internalType": "enum ITier.Tier",
              "name": "",
              "type": "uint8"
            }
          ],
          "stateMutability": "pure",
          "type": "function"
        },
        {
          "inputs": [
            {
              "internalType": "uint256",
              "name": "report_",
              "type": "uint256"
            },
            {
              "internalType": "enum ITier.Tier",
              "name": "tier_",
              "type": "uint8"
            }
          ],
          "name": "tierBlock",
          "outputs": [
            {
              "internalType": "uint256",
              "name": "",
              "type": "uint256"
            }
          ],
          "stateMutability": "pure",
          "type": "function"
        },
        {
          "inputs": [
            {
              "internalType": "uint256",
              "name": "report_",
              "type": "uint256"
            },
            {
              "internalType": "enum ITier.Tier",
              "name": "tier_",
              "type": "uint8"
            }
          ],
          "name": "truncateTiersAbove",
          "outputs": [
            {
              "internalType": "uint256",
              "name": "",
              "type": "uint256"
            }
          ],
          "stateMutability": "pure",
          "type": "function"
        },
        {
          "inputs": [
            {
              "internalType": "uint256",
              "name": "report_",
              "type": "uint256"
            },
            {
              "internalType": "enum ITier.Tier",
              "name": "startTier_",
              "type": "uint8"
            },
            {
              "internalType": "enum ITier.Tier",
              "name": "endTier_",
              "type": "uint8"
            },
            {
              "internalType": "uint256",
              "name": "blockNumber_",
              "type": "uint256"
            }
          ],
          "name": "updateBlocksForTierRange",
          "outputs": [
            {
              "internalType": "uint256",
              "name": "",
              "type": "uint256"
            }
          ],
          "stateMutability": "pure",
          "type": "function"
        },
        {
          "inputs": [
            {
              "internalType": "uint256",
              "name": "report_",
              "type": "uint256"
            },
            {
              "internalType": "enum ITier.Tier",
              "name": "startTier_",
              "type": "uint8"
            },
            {
              "internalType": "enum ITier.Tier",
              "name": "endTier_",
              "type": "uint8"
            },
            {
              "internalType": "uint256",
              "name": "blockNumber_",
              "type": "uint256"
            }
          ],
          "name": "updateReportWithTierAtBlock",
          "outputs": [
            {
              "internalType": "uint256",
              "name": "",
              "type": "uint256"
            }
          ],
          "stateMutability": "pure",
          "type": "function"
        }
      ],
      "evm": {
        "bytecode": {
          "linkReferences": {},
          "object": "608060405234801561001057600080fd5b50610455806100206000396000f3fe608060405234801561001057600080fd5b50600436106100575760003560e01c80630e47450b1461005c5780636ed9558d146100825780637c76a2fb146100a2578063d37fc68a146100b5578063d4707031146100c8575b600080fd5b61006f61006a3660046102e8565b6100db565b6040519081526020015b60405180910390f35b610095610090366004610314565b6100f0565b604051610079919061034c565b61006f6100b03660046102e8565b6100fc565b61006f6100c3366004610374565b610108565b61006f6100d6366004610374565b61011f565b60006100e7838361012d565b90505b92915050565b60006100e7838361018c565b60006100e783836101ee565b600061011685858585610220565b95945050505050565b60006101168585858561028e565b60008082600881111561014257610142610336565b1415610150575060006100ea565b6000600183600881111561016657610166610336565b61017091906103ce565b61017b9060206103e5565b9390931c63ffffffff169392505050565b6000805b60088110156101e65763ffffffff83166101ab8260206103e5565b85901c63ffffffff1611156101d4578060088111156101cc576101cc610336565b9150506100ea565b806101de81610404565b915050610190565b5060086100e7565b60008082600881111561020357610203610336565b61020e9060206103e5565b600019811c901b841791505092915050565b600080600085600881111561023757610237610336565b90505b84600881111561024c5761024c610336565b8110156102835761025e8160206103e5565b63ffffffff811b199790971684881b179691508061027b81610404565b91505061023a565b509495945050505050565b60008360088111156102a2576102a2610336565b8360088111156102b4576102b4610336565b106102ca576102c585858585610220565b610116565b61011685846101ee565b8035600981106102e357600080fd5b919050565b600080604083850312156102fb57600080fd5b8235915061030b602084016102d4565b90509250929050565b6000806040838503121561032757600080fd5b50508035926020909101359150565b634e487b7160e01b600052602160045260246000fd5b602081016009831061036e57634e487b7160e01b600052602160045260246000fd5b91905290565b6000806000806080858703121561038a57600080fd5b8435935061039a602086016102d4565b92506103a8604086016102d4565b9396929550929360600135925050565b634e487b7160e01b600052601160045260246000fd5b6000828210156103e0576103e06103b8565b500390565b60008160001904831182151516156103ff576103ff6103b8565b500290565b6000600019821415610418576104186103b8565b506001019056fea26469706673582212204df1deb48d97b311f73172405e5a516cb0f01e3714b596cae28267a4321d07ed64736f6c634300080a0033",
          "opcodes": "PUSH1 0x80 PUSH1 0x40 MSTORE CALLVALUE DUP1 ISZERO PUSH2 0x10 JUMPI PUSH1 0x0 DUP1 REVERT JUMPDEST POP PUSH2 0x455 DUP1 PUSH2 0x20 PUSH1 0x0 CODECOPY PUSH1 0x0 RETURN INVALID PUSH1 0x80 PUSH1 0x40 MSTORE CALLVALUE DUP1 ISZERO PUSH2 0x10 JUMPI PUSH1 0x0 DUP1 REVERT JUMPDEST POP PUSH1 0x4 CALLDATASIZE LT PUSH2 0x57 JUMPI PUSH1 0x0 CALLDATALOAD PUSH1 0xE0 SHR DUP1 PUSH4 0xE47450B EQ PUSH2 0x5C JUMPI DUP1 PUSH4 0x6ED9558D EQ PUSH2 0x82 JUMPI DUP1 PUSH4 0x7C76A2FB EQ PUSH2 0xA2 JUMPI DUP1 PUSH4 0xD37FC68A EQ PUSH2 0xB5 JUMPI DUP1 PUSH4 0xD4707031 EQ PUSH2 0xC8 JUMPI JUMPDEST PUSH1 0x0 DUP1 REVERT JUMPDEST PUSH2 0x6F PUSH2 0x6A CALLDATASIZE PUSH1 0x4 PUSH2 0x2E8 JUMP JUMPDEST PUSH2 0xDB JUMP JUMPDEST PUSH1 0x40 MLOAD SWAP1 DUP2 MSTORE PUSH1 0x20 ADD JUMPDEST PUSH1 0x40 MLOAD DUP1 SWAP2 SUB SWAP1 RETURN JUMPDEST PUSH2 0x95 PUSH2 0x90 CALLDATASIZE PUSH1 0x4 PUSH2 0x314 JUMP JUMPDEST PUSH2 0xF0 JUMP JUMPDEST PUSH1 0x40 MLOAD PUSH2 0x79 SWAP2 SWAP1 PUSH2 0x34C JUMP JUMPDEST PUSH2 0x6F PUSH2 0xB0 CALLDATASIZE PUSH1 0x4 PUSH2 0x2E8 JUMP JUMPDEST PUSH2 0xFC JUMP JUMPDEST PUSH2 0x6F PUSH2 0xC3 CALLDATASIZE PUSH1 0x4 PUSH2 0x374 JUMP JUMPDEST PUSH2 0x108 JUMP JUMPDEST PUSH2 0x6F PUSH2 0xD6 CALLDATASIZE PUSH1 0x4 PUSH2 0x374 JUMP JUMPDEST PUSH2 0x11F JUMP JUMPDEST PUSH1 0x0 PUSH2 0xE7 DUP4 DUP4 PUSH2 0x12D JUMP JUMPDEST SWAP1 POP JUMPDEST SWAP3 SWAP2 POP POP JUMP JUMPDEST PUSH1 0x0 PUSH2 0xE7 DUP4 DUP4 PUSH2 0x18C JUMP JUMPDEST PUSH1 0x0 PUSH2 0xE7 DUP4 DUP4 PUSH2 0x1EE JUMP JUMPDEST PUSH1 0x0 PUSH2 0x116 DUP6 DUP6 DUP6 DUP6 PUSH2 0x220 JUMP JUMPDEST SWAP6 SWAP5 POP POP POP POP POP JUMP JUMPDEST PUSH1 0x0 PUSH2 0x116 DUP6 DUP6 DUP6 DUP6 PUSH2 0x28E JUMP JUMPDEST PUSH1 0x0 DUP1 DUP3 PUSH1 0x8 DUP2 GT ISZERO PUSH2 0x142 JUMPI PUSH2 0x142 PUSH2 0x336 JUMP JUMPDEST EQ ISZERO PUSH2 0x150 JUMPI POP PUSH1 0x0 PUSH2 0xEA JUMP JUMPDEST PUSH1 0x0 PUSH1 0x1 DUP4 PUSH1 0x8 DUP2 GT ISZERO PUSH2 0x166 JUMPI PUSH2 0x166 PUSH2 0x336 JUMP JUMPDEST PUSH2 0x170 SWAP2 SWAP1 PUSH2 0x3CE JUMP JUMPDEST PUSH2 0x17B SWAP1 PUSH1 0x20 PUSH2 0x3E5 JUMP JUMPDEST SWAP4 SWAP1 SWAP4 SHR PUSH4 0xFFFFFFFF AND SWAP4 SWAP3 POP POP POP JUMP JUMPDEST PUSH1 0x0 DUP1 JUMPDEST PUSH1 0x8 DUP2 LT ISZERO PUSH2 0x1E6 JUMPI PUSH4 0xFFFFFFFF DUP4 AND PUSH2 0x1AB DUP3 PUSH1 0x20 PUSH2 0x3E5 JUMP JUMPDEST DUP6 SWAP1 SHR PUSH4 0xFFFFFFFF AND GT ISZERO PUSH2 0x1D4 JUMPI DUP1 PUSH1 0x8 DUP2 GT ISZERO PUSH2 0x1CC JUMPI PUSH2 0x1CC PUSH2 0x336 JUMP JUMPDEST SWAP2 POP POP PUSH2 0xEA JUMP JUMPDEST DUP1 PUSH2 0x1DE DUP2 PUSH2 0x404 JUMP JUMPDEST SWAP2 POP POP PUSH2 0x190 JUMP JUMPDEST POP PUSH1 0x8 PUSH2 0xE7 JUMP JUMPDEST PUSH1 0x0 DUP1 DUP3 PUSH1 0x8 DUP2 GT ISZERO PUSH2 0x203 JUMPI PUSH2 0x203 PUSH2 0x336 JUMP JUMPDEST PUSH2 0x20E SWAP1 PUSH1 0x20 PUSH2 0x3E5 JUMP JUMPDEST PUSH1 0x0 NOT DUP2 SHR SWAP1 SHL DUP5 OR SWAP2 POP POP SWAP3 SWAP2 POP POP JUMP JUMPDEST PUSH1 0x0 DUP1 PUSH1 0x0 DUP6 PUSH1 0x8 DUP2 GT ISZERO PUSH2 0x237 JUMPI PUSH2 0x237 PUSH2 0x336 JUMP JUMPDEST SWAP1 POP JUMPDEST DUP5 PUSH1 0x8 DUP2 GT ISZERO PUSH2 0x24C JUMPI PUSH2 0x24C PUSH2 0x336 JUMP JUMPDEST DUP2 LT ISZERO PUSH2 0x283 JUMPI PUSH2 0x25E DUP2 PUSH1 0x20 PUSH2 0x3E5 JUMP JUMPDEST PUSH4 0xFFFFFFFF DUP2 SHL NOT SWAP8 SWAP1 SWAP8 AND DUP5 DUP9 SHL OR SWAP7 SWAP2 POP DUP1 PUSH2 0x27B DUP2 PUSH2 0x404 JUMP JUMPDEST SWAP2 POP POP PUSH2 0x23A JUMP JUMPDEST POP SWAP5 SWAP6 SWAP5 POP POP POP POP POP JUMP JUMPDEST PUSH1 0x0 DUP4 PUSH1 0x8 DUP2 GT ISZERO PUSH2 0x2A2 JUMPI PUSH2 0x2A2 PUSH2 0x336 JUMP JUMPDEST DUP4 PUSH1 0x8 DUP2 GT ISZERO PUSH2 0x2B4 JUMPI PUSH2 0x2B4 PUSH2 0x336 JUMP JUMPDEST LT PUSH2 0x2CA JUMPI PUSH2 0x2C5 DUP6 DUP6 DUP6 DUP6 PUSH2 0x220 JUMP JUMPDEST PUSH2 0x116 JUMP JUMPDEST PUSH2 0x116 DUP6 DUP5 PUSH2 0x1EE JUMP JUMPDEST DUP1 CALLDATALOAD PUSH1 0x9 DUP2 LT PUSH2 0x2E3 JUMPI PUSH1 0x0 DUP1 REVERT JUMPDEST SWAP2 SWAP1 POP JUMP JUMPDEST PUSH1 0x0 DUP1 PUSH1 0x40 DUP4 DUP6 SUB SLT ISZERO PUSH2 0x2FB JUMPI PUSH1 0x0 DUP1 REVERT JUMPDEST DUP3 CALLDATALOAD SWAP2 POP PUSH2 0x30B PUSH1 0x20 DUP5 ADD PUSH2 0x2D4 JUMP JUMPDEST SWAP1 POP SWAP3 POP SWAP3 SWAP1 POP JUMP JUMPDEST PUSH1 0x0 DUP1 PUSH1 0x40 DUP4 DUP6 SUB SLT ISZERO PUSH2 0x327 JUMPI PUSH1 0x0 DUP1 REVERT JUMPDEST POP POP DUP1 CALLDATALOAD SWAP3 PUSH1 0x20 SWAP1 SWAP2 ADD CALLDATALOAD SWAP2 POP JUMP JUMPDEST PUSH4 0x4E487B71 PUSH1 0xE0 SHL PUSH1 0x0 MSTORE PUSH1 0x21 PUSH1 0x4 MSTORE PUSH1 0x24 PUSH1 0x0 REVERT JUMPDEST PUSH1 0x20 DUP2 ADD PUSH1 0x9 DUP4 LT PUSH2 0x36E JUMPI PUSH4 0x4E487B71 PUSH1 0xE0 SHL PUSH1 0x0 MSTORE PUSH1 0x21 PUSH1 0x4 MSTORE PUSH1 0x24 PUSH1 0x0 REVERT JUMPDEST SWAP2 SWAP1 MSTORE SWAP1 JUMP JUMPDEST PUSH1 0x0 DUP1 PUSH1 0x0 DUP1 PUSH1 0x80 DUP6 DUP8 SUB SLT ISZERO PUSH2 0x38A JUMPI PUSH1 0x0 DUP1 REVERT JUMPDEST DUP5 CALLDATALOAD SWAP4 POP PUSH2 0x39A PUSH1 0x20 DUP7 ADD PUSH2 0x2D4 JUMP JUMPDEST SWAP3 POP PUSH2 0x3A8 PUSH1 0x40 DUP7 ADD PUSH2 0x2D4 JUMP JUMPDEST SWAP4 SWAP7 SWAP3 SWAP6 POP SWAP3 SWAP4 PUSH1 0x60 ADD CALLDATALOAD SWAP3 POP POP JUMP JUMPDEST PUSH4 0x4E487B71 PUSH1 0xE0 SHL PUSH1 0x0 MSTORE PUSH1 0x11 PUSH1 0x4 MSTORE PUSH1 0x24 PUSH1 0x0 REVERT JUMPDEST PUSH1 0x0 DUP3 DUP3 LT ISZERO PUSH2 0x3E0 JUMPI PUSH2 0x3E0 PUSH2 0x3B8 JUMP JUMPDEST POP SUB SWAP1 JUMP JUMPDEST PUSH1 0x0 DUP2 PUSH1 0x0 NOT DIV DUP4 GT DUP3 ISZERO ISZERO AND ISZERO PUSH2 0x3FF JUMPI PUSH2 0x3FF PUSH2 0x3B8 JUMP JUMPDEST POP MUL SWAP1 JUMP JUMPDEST PUSH1 0x0 PUSH1 0x0 NOT DUP3 EQ ISZERO PUSH2 0x418 JUMPI PUSH2 0x418 PUSH2 0x3B8 JUMP JUMPDEST POP PUSH1 0x1 ADD SWAP1 JUMP INVALID LOG2 PUSH5 0x6970667358 0x22 SLT KECCAK256 0x4D CALL 0xDE 0xB4 DUP14 SWAP8 0xB3 GT 0xF7 BALANCE PUSH19 0x405E5A516CB0F01E3714B596CAE28267A4321D SMOD 0xED PUSH5 0x736F6C6343 STOP ADDMOD EXP STOP CALLER "
        },
        "methodIdentifiers": {
          "tierAtBlockFromReport(uint256,uint256)": "6ed9558d",
          "tierBlock(uint256,uint8)": "0e47450b",
          "truncateTiersAbove(uint256,uint8)": "7c76a2fb",
          "updateBlocksForTierRange(uint256,uint8,uint8,uint256)": "d37fc68a",
          "updateReportWithTierAtBlock(uint256,uint8,uint8,uint256)": "d4707031"
        }
      }
    }
  }
}