{
  "contracts/tier/ERC20BalanceTier.sol": {
    "ERC20BalanceTier": {
      "abi": [
        {
          "inputs": [
            {
              "internalType": "contract IERC20",
              "name": "erc20_",
              "type": "address"
            },
            {
              "internalType": "uint256[8]",
              "name": "tierValues_",
              "type": "uint256[8]"
            }
          ],
          "stateMutability": "nonpayable",
          "type": "constructor"
        },
        {
          "anonymous": false,
          "inputs": [
            {
              "indexed": true,
              "internalType": "address",
              "name": "account",
              "type": "address"
            },
            {
              "indexed": true,
              "internalType": "enum ITier.Tier",
              "name": "startTier",
              "type": "uint8"
            },
            {
              "indexed": true,
              "internalType": "enum ITier.Tier",
              "name": "endTier",
              "type": "uint8"
            }
          ],
          "name": "TierChange",
          "type": "event"
        },
        {
          "inputs": [],
          "name": "erc20",
          "outputs": [
            {
              "internalType": "contract IERC20",
              "name": "",
              "type": "address"
            }
          ],
          "stateMutability": "view",
          "type": "function"
        },
        {
          "inputs": [
            {
              "internalType": "address",
              "name": "account_",
              "type": "address"
            }
          ],
          "name": "report",
          "outputs": [
            {
              "internalType": "uint256",
              "name": "",
              "type": "uint256"
            }
          ],
          "stateMutability": "view",
          "type": "function"
        },
        {
          "inputs": [
            {
              "internalType": "address",
              "name": "",
              "type": "address"
            },
            {
              "internalType": "enum ITier.Tier",
              "name": "",
              "type": "uint8"
            },
            {
              "internalType": "bytes",
              "name": "",
              "type": "bytes"
            }
          ],
          "name": "setTier",
          "outputs": [],
          "stateMutability": "nonpayable",
          "type": "function"
        },
        {
          "inputs": [],
          "name": "tierValues",
          "outputs": [
            {
              "internalType": "uint256[8]",
              "name": "tierValues_",
              "type": "uint256[8]"
            }
          ],
          "stateMutability": "view",
          "type": "function"
        }
      ],
      "evm": {
        "bytecode": {
          "linkReferences": {},
          "object": "6101a060405234801561001157600080fd5b506040516105bd3803806105bd833981810160405261012081101561003557600080fd5b50805160208201516080818152604084015160a081815260608087015160c08181529488015160e081815293890151610100818152968a0151610120819052948a015161014081905296909901516101608190529288901b6001600160601b031916610180529597939690959491906001600160a01b03166104c46100f960003980610320528061034d5250806102f75250806102d15250806102ab52508061028552508061025f5250806102395250806102135250806101f052506104c46000f3fe608060405234801561001057600080fd5b506004361061004c5760003560e01c806352dab69d1461005157806370230b3914610111578063785e9e8614610152578063e053ea3114610176575b600080fd5b61010f6004803603606081101561006757600080fd5b6001600160a01b038235169160ff6020820135169181019060608101604082013564010000000081111561009a57600080fd5b8201836020820111156100ac57600080fd5b803590602001918460018302840111640100000000831117156100ce57600080fd5b91908080601f0160208091040260200160405190810160405280939291908181526020018383808284376000920191909152509295506101ae945050505050565b005b6101196101e6565b604051808261010080838360005b8381101561013f578181015183820152602001610127565b5050505090500191505060405180910390f35b61015a61031e565b604080516001600160a01b039092168252519081900360200190f35b61019c6004803603602081101561018c57600080fd5b50356001600160a01b0316610342565b60408051918252519081900360200190f35b6040805162461bcd60e51b815260206004820152600860248201526729a2aa2faa24a2a960c11b604482015290519081900360640190fd5b6101ee61046f565b7f000000000000000000000000000000000000000000000000000000000000000081527f000000000000000000000000000000000000000000000000000000000000000060208201527f000000000000000000000000000000000000000000000000000000000000000060408201527f000000000000000000000000000000000000000000000000000000000000000060608201527f000000000000000000000000000000000000000000000000000000000000000060808201527f000000000000000000000000000000000000000000000000000000000000000060a08201527f000000000000000000000000000000000000000000000000000000000000000060c08201527f000000000000000000000000000000000000000000000000000000000000000060e082015290565b7f000000000000000000000000000000000000000000000000000000000000000081565b60006103ee816103e97f00000000000000000000000000000000000000000000000000000000000000006001600160a01b03166370a08231866040518263ffffffff1660e01b815260040180826001600160a01b0316815260200191505060206040518083038186803b1580156103b857600080fd5b505afa1580156103cc573d6000803e3d6000fd5b505050506040513d60208110156103e257600080fd5b50516103f6565b610447565b90505b919050565b6000805b600881101561043e5761040b6101e6565b816008811061041657fe5b60200201518310156104365780600881111561042e57fe5b9150506103f1565b6001016103fa565b50600892915050565b60008082600881111561045657fe5b60001960209190910290811c901b841791505092915050565b604051806101000160405280600890602082028036833750919291505056fea26469706673582212200c0ad4c520c5b0dd0675513857e6b830e90da1d9d11ef6830bd5c2af97808a8164736f6c634300060c0033",
          "opcodes": "PUSH2 0x1A0 PUSH1 0x40 MSTORE CALLVALUE DUP1 ISZERO PUSH2 0x11 JUMPI PUSH1 0x0 DUP1 REVERT JUMPDEST POP PUSH1 0x40 MLOAD PUSH2 0x5BD CODESIZE SUB DUP1 PUSH2 0x5BD DUP4 CODECOPY DUP2 DUP2 ADD PUSH1 0x40 MSTORE PUSH2 0x120 DUP2 LT ISZERO PUSH2 0x35 JUMPI PUSH1 0x0 DUP1 REVERT JUMPDEST POP DUP1 MLOAD PUSH1 0x20 DUP3 ADD MLOAD PUSH1 0x80 DUP2 DUP2 MSTORE PUSH1 0x40 DUP5 ADD MLOAD PUSH1 0xA0 DUP2 DUP2 MSTORE PUSH1 0x60 DUP1 DUP8 ADD MLOAD PUSH1 0xC0 DUP2 DUP2 MSTORE SWAP5 DUP9 ADD MLOAD PUSH1 0xE0 DUP2 DUP2 MSTORE SWAP4 DUP10 ADD MLOAD PUSH2 0x100 DUP2 DUP2 MSTORE SWAP7 DUP11 ADD MLOAD PUSH2 0x120 DUP2 SWAP1 MSTORE SWAP5 DUP11 ADD MLOAD PUSH2 0x140 DUP2 SWAP1 MSTORE SWAP7 SWAP1 SWAP10 ADD MLOAD PUSH2 0x160 DUP2 SWAP1 MSTORE SWAP3 DUP9 SWAP1 SHL PUSH1 0x1 PUSH1 0x1 PUSH1 0x60 SHL SUB NOT AND PUSH2 0x180 MSTORE SWAP6 SWAP8 SWAP4 SWAP7 SWAP1 SWAP6 SWAP5 SWAP2 SWAP1 PUSH1 0x1 PUSH1 0x1 PUSH1 0xA0 SHL SUB AND PUSH2 0x4C4 PUSH2 0xF9 PUSH1 0x0 CODECOPY DUP1 PUSH2 0x320 MSTORE DUP1 PUSH2 0x34D MSTORE POP DUP1 PUSH2 0x2F7 MSTORE POP DUP1 PUSH2 0x2D1 MSTORE POP DUP1 PUSH2 0x2AB MSTORE POP DUP1 PUSH2 0x285 MSTORE POP DUP1 PUSH2 0x25F MSTORE POP DUP1 PUSH2 0x239 MSTORE POP DUP1 PUSH2 0x213 MSTORE POP DUP1 PUSH2 0x1F0 MSTORE POP PUSH2 0x4C4 PUSH1 0x0 RETURN INVALID PUSH1 0x80 PUSH1 0x40 MSTORE CALLVALUE DUP1 ISZERO PUSH2 0x10 JUMPI PUSH1 0x0 DUP1 REVERT JUMPDEST POP PUSH1 0x4 CALLDATASIZE LT PUSH2 0x4C JUMPI PUSH1 0x0 CALLDATALOAD PUSH1 0xE0 SHR DUP1 PUSH4 0x52DAB69D EQ PUSH2 0x51 JUMPI DUP1 PUSH4 0x70230B39 EQ PUSH2 0x111 JUMPI DUP1 PUSH4 0x785E9E86 EQ PUSH2 0x152 JUMPI DUP1 PUSH4 0xE053EA31 EQ PUSH2 0x176 JUMPI JUMPDEST PUSH1 0x0 DUP1 REVERT JUMPDEST PUSH2 0x10F PUSH1 0x4 DUP1 CALLDATASIZE SUB PUSH1 0x60 DUP2 LT ISZERO PUSH2 0x67 JUMPI PUSH1 0x0 DUP1 REVERT JUMPDEST PUSH1 0x1 PUSH1 0x1 PUSH1 0xA0 SHL SUB DUP3 CALLDATALOAD AND SWAP2 PUSH1 0xFF PUSH1 0x20 DUP3 ADD CALLDATALOAD AND SWAP2 DUP2 ADD SWAP1 PUSH1 0x60 DUP2 ADD PUSH1 0x40 DUP3 ADD CALLDATALOAD PUSH5 0x100000000 DUP2 GT ISZERO PUSH2 0x9A JUMPI PUSH1 0x0 DUP1 REVERT JUMPDEST DUP3 ADD DUP4 PUSH1 0x20 DUP3 ADD GT ISZERO PUSH2 0xAC JUMPI PUSH1 0x0 DUP1 REVERT JUMPDEST DUP1 CALLDATALOAD SWAP1 PUSH1 0x20 ADD SWAP2 DUP5 PUSH1 0x1 DUP4 MUL DUP5 ADD GT PUSH5 0x100000000 DUP4 GT OR ISZERO PUSH2 0xCE JUMPI PUSH1 0x0 DUP1 REVERT JUMPDEST SWAP2 SWAP1 DUP1 DUP1 PUSH1 0x1F ADD PUSH1 0x20 DUP1 SWAP2 DIV MUL PUSH1 0x20 ADD PUSH1 0x40 MLOAD SWAP1 DUP2 ADD PUSH1 0x40 MSTORE DUP1 SWAP4 SWAP3 SWAP2 SWAP1 DUP2 DUP2 MSTORE PUSH1 0x20 ADD DUP4 DUP4 DUP1 DUP3 DUP5 CALLDATACOPY PUSH1 0x0 SWAP3 ADD SWAP2 SWAP1 SWAP2 MSTORE POP SWAP3 SWAP6 POP PUSH2 0x1AE SWAP5 POP POP POP POP POP JUMP JUMPDEST STOP JUMPDEST PUSH2 0x119 PUSH2 0x1E6 JUMP JUMPDEST PUSH1 0x40 MLOAD DUP1 DUP3 PUSH2 0x100 DUP1 DUP4 DUP4 PUSH1 0x0 JUMPDEST DUP4 DUP2 LT ISZERO PUSH2 0x13F JUMPI DUP2 DUP2 ADD MLOAD DUP4 DUP3 ADD MSTORE PUSH1 0x20 ADD PUSH2 0x127 JUMP JUMPDEST POP POP POP POP SWAP1 POP ADD SWAP2 POP POP PUSH1 0x40 MLOAD DUP1 SWAP2 SUB SWAP1 RETURN JUMPDEST PUSH2 0x15A PUSH2 0x31E JUMP JUMPDEST PUSH1 0x40 DUP1 MLOAD PUSH1 0x1 PUSH1 0x1 PUSH1 0xA0 SHL SUB SWAP1 SWAP3 AND DUP3 MSTORE MLOAD SWAP1 DUP2 SWAP1 SUB PUSH1 0x20 ADD SWAP1 RETURN JUMPDEST PUSH2 0x19C PUSH1 0x4 DUP1 CALLDATASIZE SUB PUSH1 0x20 DUP2 LT ISZERO PUSH2 0x18C JUMPI PUSH1 0x0 DUP1 REVERT JUMPDEST POP CALLDATALOAD PUSH1 0x1 PUSH1 0x1 PUSH1 0xA0 SHL SUB AND PUSH2 0x342 JUMP JUMPDEST PUSH1 0x40 DUP1 MLOAD SWAP2 DUP3 MSTORE MLOAD SWAP1 DUP2 SWAP1 SUB PUSH1 0x20 ADD SWAP1 RETURN JUMPDEST PUSH1 0x40 DUP1 MLOAD PUSH3 0x461BCD PUSH1 0xE5 SHL DUP2 MSTORE PUSH1 0x20 PUSH1 0x4 DUP3 ADD MSTORE PUSH1 0x8 PUSH1 0x24 DUP3 ADD MSTORE PUSH8 0x29A2AA2FAA24A2A9 PUSH1 0xC1 SHL PUSH1 0x44 DUP3 ADD MSTORE SWAP1 MLOAD SWAP1 DUP2 SWAP1 SUB PUSH1 0x64 ADD SWAP1 REVERT JUMPDEST PUSH2 0x1EE PUSH2 0x46F JUMP JUMPDEST PUSH32 0x0 DUP2 MSTORE PUSH32 0x0 PUSH1 0x20 DUP3 ADD MSTORE PUSH32 0x0 PUSH1 0x40 DUP3 ADD MSTORE PUSH32 0x0 PUSH1 0x60 DUP3 ADD MSTORE PUSH32 0x0 PUSH1 0x80 DUP3 ADD MSTORE PUSH32 0x0 PUSH1 0xA0 DUP3 ADD MSTORE PUSH32 0x0 PUSH1 0xC0 DUP3 ADD MSTORE PUSH32 0x0 PUSH1 0xE0 DUP3 ADD MSTORE SWAP1 JUMP JUMPDEST PUSH32 0x0 DUP2 JUMP JUMPDEST PUSH1 0x0 PUSH2 0x3EE DUP2 PUSH2 0x3E9 PUSH32 0x0 PUSH1 0x1 PUSH1 0x1 PUSH1 0xA0 SHL SUB AND PUSH4 0x70A08231 DUP7 PUSH1 0x40 MLOAD DUP3 PUSH4 0xFFFFFFFF AND PUSH1 0xE0 SHL DUP2 MSTORE PUSH1 0x4 ADD DUP1 DUP3 PUSH1 0x1 PUSH1 0x1 PUSH1 0xA0 SHL SUB AND DUP2 MSTORE PUSH1 0x20 ADD SWAP2 POP POP PUSH1 0x20 PUSH1 0x40 MLOAD DUP1 DUP4 SUB DUP2 DUP7 DUP1 EXTCODESIZE ISZERO DUP1 ISZERO PUSH2 0x3B8 JUMPI PUSH1 0x0 DUP1 REVERT JUMPDEST POP GAS STATICCALL ISZERO DUP1 ISZERO PUSH2 0x3CC JUMPI RETURNDATASIZE PUSH1 0x0 DUP1 RETURNDATACOPY RETURNDATASIZE PUSH1 0x0 REVERT JUMPDEST POP POP POP POP PUSH1 0x40 MLOAD RETURNDATASIZE PUSH1 0x20 DUP2 LT ISZERO PUSH2 0x3E2 JUMPI PUSH1 0x0 DUP1 REVERT JUMPDEST POP MLOAD PUSH2 0x3F6 JUMP JUMPDEST PUSH2 0x447 JUMP JUMPDEST SWAP1 POP JUMPDEST SWAP2 SWAP1 POP JUMP JUMPDEST PUSH1 0x0 DUP1 JUMPDEST PUSH1 0x8 DUP2 LT ISZERO PUSH2 0x43E JUMPI PUSH2 0x40B PUSH2 0x1E6 JUMP JUMPDEST DUP2 PUSH1 0x8 DUP2 LT PUSH2 0x416 JUMPI INVALID JUMPDEST PUSH1 0x20 MUL ADD MLOAD DUP4 LT ISZERO PUSH2 0x436 JUMPI DUP1 PUSH1 0x8 DUP2 GT ISZERO PUSH2 0x42E JUMPI INVALID JUMPDEST SWAP2 POP POP PUSH2 0x3F1 JUMP JUMPDEST PUSH1 0x1 ADD PUSH2 0x3FA JUMP JUMPDEST POP PUSH1 0x8 SWAP3 SWAP2 POP POP JUMP JUMPDEST PUSH1 0x0 DUP1 DUP3 PUSH1 0x8 DUP2 GT ISZERO PUSH2 0x456 JUMPI INVALID JUMPDEST PUSH1 0x0 NOT PUSH1 0x20 SWAP2 SWAP1 SWAP2 MUL SWAP1 DUP2 SHR SWAP1 SHL DUP5 OR SWAP2 POP POP SWAP3 SWAP2 POP POP JUMP JUMPDEST PUSH1 0x40 MLOAD DUP1 PUSH2 0x100 ADD PUSH1 0x40 MSTORE DUP1 PUSH1 0x8 SWAP1 PUSH1 0x20 DUP3 MUL DUP1 CALLDATASIZE DUP4 CALLDATACOPY POP SWAP2 SWAP3 SWAP2 POP POP JUMP INVALID LOG2 PUSH5 0x6970667358 0x22 SLT KECCAK256 0xC EXP 0xD4 0xC5 KECCAK256 0xC5 0xB0 0xDD MOD PUSH22 0x513857E6B830E90DA1D9D11EF6830BD5C2AF97808A81 PUSH5 0x736F6C6343 STOP MOD 0xC STOP CALLER "
        },
        "methodIdentifiers": {
          "erc20()": "785e9e86",
          "report(address)": "e053ea31",
          "setTier(address,uint8,bytes)": "52dab69d",
          "tierValues()": "70230b39"
        }
      }
    }
  }
}