{
  "contracts/test/SeedERC20ForceSendEther.sol": {
    "SeedERC20ForceSendEther": {
      "abi": [
        {
          "stateMutability": "payable",
          "type": "fallback"
        },
        {
          "inputs": [
            {
              "internalType": "contract SeedERC20",
              "name": "seedERC20Contract_",
              "type": "address"
            }
          ],
          "name": "destroy",
          "outputs": [],
          "stateMutability": "nonpayable",
          "type": "function"
        },
        {
          "stateMutability": "payable",
          "type": "receive"
        }
      ],
      "evm": {
        "bytecode": {
          "linkReferences": {},
          "object": "6080604052348015600f57600080fd5b5060ac8061001e6000396000f3fe608060405260043610601c5760003560e01c8062f55d9d14602457005b36602257005b005b348015602f57600080fd5b506022603b3660046048565b806001600160a01b038116ff5b600060208284031215605957600080fd5b81356001600160a01b0381168114606f57600080fd5b939250505056fea2646970667358221220f924efc1f1be3cf9ef37a0a0230f6351fa36c3ad1d9b4e286e09332b477c87c064736f6c634300080a0033",
          "opcodes": "PUSH1 0x80 PUSH1 0x40 MSTORE CALLVALUE DUP1 ISZERO PUSH1 0xF JUMPI PUSH1 0x0 DUP1 REVERT JUMPDEST POP PUSH1 0xAC DUP1 PUSH2 0x1E PUSH1 0x0 CODECOPY PUSH1 0x0 RETURN INVALID PUSH1 0x80 PUSH1 0x40 MSTORE PUSH1 0x4 CALLDATASIZE LT PUSH1 0x1C JUMPI PUSH1 0x0 CALLDATALOAD PUSH1 0xE0 SHR DUP1 PUSH3 0xF55D9D EQ PUSH1 0x24 JUMPI STOP JUMPDEST CALLDATASIZE PUSH1 0x22 JUMPI STOP JUMPDEST STOP JUMPDEST CALLVALUE DUP1 ISZERO PUSH1 0x2F JUMPI PUSH1 0x0 DUP1 REVERT JUMPDEST POP PUSH1 0x22 PUSH1 0x3B CALLDATASIZE PUSH1 0x4 PUSH1 0x48 JUMP JUMPDEST DUP1 PUSH1 0x1 PUSH1 0x1 PUSH1 0xA0 SHL SUB DUP2 AND SELFDESTRUCT JUMPDEST PUSH1 0x0 PUSH1 0x20 DUP3 DUP5 SUB SLT ISZERO PUSH1 0x59 JUMPI PUSH1 0x0 DUP1 REVERT JUMPDEST DUP2 CALLDATALOAD PUSH1 0x1 PUSH1 0x1 PUSH1 0xA0 SHL SUB DUP2 AND DUP2 EQ PUSH1 0x6F JUMPI PUSH1 0x0 DUP1 REVERT JUMPDEST SWAP4 SWAP3 POP POP POP JUMP INVALID LOG2 PUSH5 0x6970667358 0x22 SLT KECCAK256 0xF9 0x24 0xEF 0xC1 CALL 0xBE EXTCODECOPY 0xF9 0xEF CALLDATACOPY LOG0 LOG0 0x23 0xF PUSH4 0x51FA36C3 0xAD SAR SWAP12 0x4E 0x28 PUSH15 0x9332B477C87C064736F6C63430008 EXP STOP CALLER "
        },
        "methodIdentifiers": {
          "destroy(address)": "00f55d9d"
        }
      }
    }
  }
}