{
  "contracts/seed/SeedERC20.sol": {
    "SeedERC20": {
      "abi": [
        {
          "inputs": [
            {
              "components": [
                {
                  "internalType": "contract IERC20",
                  "name": "reserve",
                  "type": "address"
                },
                {
                  "internalType": "address",
                  "name": "recipient",
                  "type": "address"
                },
                {
                  "internalType": "uint256",
                  "name": "seedPrice",
                  "type": "uint256"
                },
                {
                  "internalType": "uint16",
                  "name": "seedUnits",
                  "type": "uint16"
                },
                {
                  "internalType": "uint16",
                  "name": "cooldownDuration",
                  "type": "uint16"
                },
                {
                  "internalType": "string",
                  "name": "name",
                  "type": "string"
                },
                {
                  "internalType": "string",
                  "name": "symbol",
                  "type": "string"
                }
              ],
              "internalType": "struct SeedERC20Config",
              "name": "config_",
              "type": "tuple"
            }
          ],
          "stateMutability": "nonpayable",
          "type": "constructor"
        },
        {
          "anonymous": false,
          "inputs": [
            {
              "indexed": true,
              "internalType": "address",
              "name": "owner",
              "type": "address"
            },
            {
              "indexed": true,
              "internalType": "address",
              "name": "spender",
              "type": "address"
            },
            {
              "indexed": false,
              "internalType": "uint256",
              "name": "value",
              "type": "uint256"
            }
          ],
          "name": "Approval",
          "type": "event"
        },
        {
          "anonymous": false,
          "inputs": [
            {
              "indexed": true,
              "internalType": "address",
              "name": "previousOwner",
              "type": "address"
            },
            {
              "indexed": true,
              "internalType": "address",
              "name": "newOwner",
              "type": "address"
            }
          ],
          "name": "OwnershipTransferred",
          "type": "event"
        },
        {
          "anonymous": false,
          "inputs": [
            {
              "indexed": true,
              "internalType": "uint32",
              "name": "newPhaseBlock_",
              "type": "uint32"
            }
          ],
          "name": "PhaseShiftScheduled",
          "type": "event"
        },
        {
          "anonymous": false,
          "inputs": [
            {
              "indexed": true,
              "internalType": "address",
              "name": "redeemer",
              "type": "address"
            },
            {
              "indexed": false,
              "internalType": "uint256[2]",
              "name": "redeemAmounts",
              "type": "uint256[2]"
            }
          ],
          "name": "Redeem",
          "type": "event"
        },
        {
          "anonymous": false,
          "inputs": [
            {
              "indexed": true,
              "internalType": "address",
              "name": "seeder",
              "type": "address"
            },
            {
              "indexed": false,
              "internalType": "uint256[2]",
              "name": "seedAmounts",
              "type": "uint256[2]"
            }
          ],
          "name": "Seed",
          "type": "event"
        },
        {
          "anonymous": false,
          "inputs": [
            {
              "indexed": true,
              "internalType": "address",
              "name": "from",
              "type": "address"
            },
            {
              "indexed": true,
              "internalType": "address",
              "name": "to",
              "type": "address"
            },
            {
              "indexed": false,
              "internalType": "uint256",
              "name": "value",
              "type": "uint256"
            }
          ],
          "name": "Transfer",
          "type": "event"
        },
        {
          "anonymous": false,
          "inputs": [
            {
              "indexed": true,
              "internalType": "address",
              "name": "unseeder",
              "type": "address"
            },
            {
              "indexed": false,
              "internalType": "uint256[2]",
              "name": "unseedAmounts",
              "type": "uint256[2]"
            }
          ],
          "name": "Unseed",
          "type": "event"
        },
        {
          "inputs": [],
          "name": "UNINITIALIZED",
          "outputs": [
            {
              "internalType": "uint32",
              "name": "",
              "type": "uint32"
            }
          ],
          "stateMutability": "view",
          "type": "function"
        },
        {
          "inputs": [
            {
              "internalType": "address",
              "name": "owner",
              "type": "address"
            },
            {
              "internalType": "address",
              "name": "spender",
              "type": "address"
            }
          ],
          "name": "allowance",
          "outputs": [
            {
              "internalType": "uint256",
              "name": "",
              "type": "uint256"
            }
          ],
          "stateMutability": "view",
          "type": "function"
        },
        {
          "inputs": [
            {
              "internalType": "address",
              "name": "spender",
              "type": "address"
            },
            {
              "internalType": "uint256",
              "name": "amount",
              "type": "uint256"
            }
          ],
          "name": "approve",
          "outputs": [
            {
              "internalType": "bool",
              "name": "",
              "type": "bool"
            }
          ],
          "stateMutability": "nonpayable",
          "type": "function"
        },
        {
          "inputs": [
            {
              "internalType": "address",
              "name": "account",
              "type": "address"
            }
          ],
          "name": "balanceOf",
          "outputs": [
            {
              "internalType": "uint256",
              "name": "",
              "type": "uint256"
            }
          ],
          "stateMutability": "view",
          "type": "function"
        },
        {
          "inputs": [
            {
              "internalType": "uint32[8]",
              "name": "phaseBlocks_",
              "type": "uint32[8]"
            },
            {
              "internalType": "enum Phase",
              "name": "phase_",
              "type": "uint8"
            }
          ],
          "name": "blockNumberForPhase",
          "outputs": [
            {
              "internalType": "uint32",
              "name": "",
              "type": "uint32"
            }
          ],
          "stateMutability": "pure",
          "type": "function"
        },
        {
          "inputs": [],
          "name": "cooldownDuration",
          "outputs": [
            {
              "internalType": "uint16",
              "name": "",
              "type": "uint16"
            }
          ],
          "stateMutability": "view",
          "type": "function"
        },
        {
          "inputs": [
            {
              "internalType": "address",
              "name": "",
              "type": "address"
            }
          ],
          "name": "cooldowns",
          "outputs": [
            {
              "internalType": "uint256",
              "name": "",
              "type": "uint256"
            }
          ],
          "stateMutability": "view",
          "type": "function"
        },
        {
          "inputs": [],
          "name": "currentPhase",
          "outputs": [
            {
              "internalType": "enum Phase",
              "name": "",
              "type": "uint8"
            }
          ],
          "stateMutability": "view",
          "type": "function"
        },
        {
          "inputs": [],
          "name": "decimals",
          "outputs": [
            {
              "internalType": "uint8",
              "name": "",
              "type": "uint8"
            }
          ],
          "stateMutability": "pure",
          "type": "function"
        },
        {
          "inputs": [
            {
              "internalType": "address",
              "name": "spender",
              "type": "address"
            },
            {
              "internalType": "uint256",
              "name": "subtractedValue",
              "type": "uint256"
            }
          ],
          "name": "decreaseAllowance",
          "outputs": [
            {
              "internalType": "bool",
              "name": "",
              "type": "bool"
            }
          ],
          "stateMutability": "nonpayable",
          "type": "function"
        },
        {
          "inputs": [
            {
              "internalType": "address",
              "name": "spender",
              "type": "address"
            },
            {
              "internalType": "uint256",
              "name": "addedValue",
              "type": "uint256"
            }
          ],
          "name": "increaseAllowance",
          "outputs": [
            {
              "internalType": "bool",
              "name": "",
              "type": "bool"
            }
          ],
          "stateMutability": "nonpayable",
          "type": "function"
        },
        {
          "inputs": [],
          "name": "name",
          "outputs": [
            {
              "internalType": "string",
              "name": "",
              "type": "string"
            }
          ],
          "stateMutability": "view",
          "type": "function"
        },
        {
          "inputs": [],
          "name": "owner",
          "outputs": [
            {
              "internalType": "address",
              "name": "",
              "type": "address"
            }
          ],
          "stateMutability": "view",
          "type": "function"
        },
        {
          "inputs": [
            {
              "internalType": "uint32[8]",
              "name": "phaseBlocks_",
              "type": "uint32[8]"
            },
            {
              "internalType": "uint32",
              "name": "blockNumber_",
              "type": "uint32"
            }
          ],
          "name": "phaseAtBlockNumber",
          "outputs": [
            {
              "internalType": "enum Phase",
              "name": "",
              "type": "uint8"
            }
          ],
          "stateMutability": "pure",
          "type": "function"
        },
        {
          "inputs": [
            {
              "internalType": "uint256",
              "name": "",
              "type": "uint256"
            }
          ],
          "name": "phaseBlocks",
          "outputs": [
            {
              "internalType": "uint32",
              "name": "",
              "type": "uint32"
            }
          ],
          "stateMutability": "view",
          "type": "function"
        },
        {
          "inputs": [],
          "name": "recipient",
          "outputs": [
            {
              "internalType": "address",
              "name": "",
              "type": "address"
            }
          ],
          "stateMutability": "view",
          "type": "function"
        },
        {
          "inputs": [
            {
              "internalType": "uint256",
              "name": "units_",
              "type": "uint256"
            }
          ],
          "name": "redeem",
          "outputs": [],
          "stateMutability": "nonpayable",
          "type": "function"
        },
        {
          "inputs": [],
          "name": "renounceOwnership",
          "outputs": [],
          "stateMutability": "nonpayable",
          "type": "function"
        },
        {
          "inputs": [],
          "name": "reserve",
          "outputs": [
            {
              "internalType": "contract IERC20",
              "name": "",
              "type": "address"
            }
          ],
          "stateMutability": "view",
          "type": "function"
        },
        {
          "inputs": [
            {
              "internalType": "uint256",
              "name": "minimumUnits_",
              "type": "uint256"
            },
            {
              "internalType": "uint256",
              "name": "desiredUnits_",
              "type": "uint256"
            }
          ],
          "name": "seed",
          "outputs": [],
          "stateMutability": "nonpayable",
          "type": "function"
        },
        {
          "inputs": [],
          "name": "seedPrice",
          "outputs": [
            {
              "internalType": "uint256",
              "name": "",
              "type": "uint256"
            }
          ],
          "stateMutability": "view",
          "type": "function"
        },
        {
          "inputs": [],
          "name": "symbol",
          "outputs": [
            {
              "internalType": "string",
              "name": "",
              "type": "string"
            }
          ],
          "stateMutability": "view",
          "type": "function"
        },
        {
          "inputs": [],
          "name": "totalSupply",
          "outputs": [
            {
              "internalType": "uint256",
              "name": "",
              "type": "uint256"
            }
          ],
          "stateMutability": "view",
          "type": "function"
        },
        {
          "inputs": [
            {
              "internalType": "address",
              "name": "recipient",
              "type": "address"
            },
            {
              "internalType": "uint256",
              "name": "amount",
              "type": "uint256"
            }
          ],
          "name": "transfer",
          "outputs": [
            {
              "internalType": "bool",
              "name": "",
              "type": "bool"
            }
          ],
          "stateMutability": "nonpayable",
          "type": "function"
        },
        {
          "inputs": [
            {
              "internalType": "address",
              "name": "sender",
              "type": "address"
            },
            {
              "internalType": "address",
              "name": "recipient",
              "type": "address"
            },
            {
              "internalType": "uint256",
              "name": "amount",
              "type": "uint256"
            }
          ],
          "name": "transferFrom",
          "outputs": [
            {
              "internalType": "bool",
              "name": "",
              "type": "bool"
            }
          ],
          "stateMutability": "nonpayable",
          "type": "function"
        },
        {
          "inputs": [
            {
              "internalType": "address",
              "name": "newOwner",
              "type": "address"
            }
          ],
          "name": "transferOwnership",
          "outputs": [],
          "stateMutability": "nonpayable",
          "type": "function"
        },
        {
          "inputs": [
            {
              "internalType": "uint256",
              "name": "units_",
              "type": "uint256"
            }
          ],
          "name": "unseed",
          "outputs": [],
          "stateMutability": "nonpayable",
          "type": "function"
        }
      ],
      "evm": {
        "bytecode": {
          "linkReferences": {},
          "object": "6101006040523480156200001257600080fd5b506040516200267e3803806200267e833981016040819052620000359162000550565b608081015160a082015160c08301516200004f336200023c565b81516200006490600490602085019062000371565b5080516200007a90600590602084019062000371565b50505060005b6008811015620000e45763ffffffff60068260088110620000a557620000a562000641565b600891828204019190066004026101000a81548163ffffffff021916908363ffffffff1602179055508080620000db906200066d565b91505062000080565b5060008161ffff16116200012c5760405162461bcd60e51b815260206004820152600a6024820152690434f4f4c444f574e5f360b41b60448201526064015b60405180910390fd5b61ffff166080526040810151620001705760405162461bcd60e51b8152602060048201526007602482015266050524943455f360cc1b604482015260640162000123565b6000816060015161ffff1611620001b45760405162461bcd60e51b81526020600482015260076024820152660554e4954535f360cc1b604482015260640162000123565b60208101516001600160a01b0316620001fe5760405162461bcd60e51b815260206004820152600b60248201526a0524543495049454e545f360ac1b604482015260640162000123565b604081015160e05280516001600160a01b0390811660a05260208201511660c05260608101516200023590309061ffff166200028c565b50620006e3565b600080546001600160a01b038381166001600160a01b0319831681178455604051919092169283917f8be0079c531659141344cd1fd0a4f28419497f9722a3daafe3b4186f6b6457e09190a35050565b6001600160a01b038216620002e45760405162461bcd60e51b815260206004820152601f60248201527f45524332303a206d696e7420746f20746865207a65726f206164647265737300604482015260640162000123565b8060036000828254620002f891906200068b565b90915550506001600160a01b03821660009081526001602052604081208054839290620003279084906200068b565b90915550506040518181526001600160a01b038316906000907fddf252ad1be2c89b69c2b068fc378daa952ba7f163c4a11628f55a4df523b3ef9060200160405180910390a35050565b8280546200037f90620006a6565b90600052602060002090601f016020900481019282620003a35760008555620003ee565b82601f10620003be57805160ff1916838001178555620003ee565b82800160010185558215620003ee579182015b82811115620003ee578251825591602001919060010190620003d1565b50620003fc92915062000400565b5090565b5b80821115620003fc576000815560010162000401565b634e487b7160e01b600052604160045260246000fd5b60405160e081016001600160401b038111828210171562000452576200045262000417565b60405290565b604051601f8201601f191681016001600160401b038111828210171562000483576200048362000417565b604052919050565b80516001600160a01b0381168114620004a357600080fd5b919050565b805161ffff81168114620004a357600080fd5b600082601f830112620004cd57600080fd5b81516001600160401b03811115620004e957620004e962000417565b6020620004ff601f8301601f1916820162000458565b82815285828487010111156200051457600080fd5b60005b838110156200053457858101830151828201840152820162000517565b83811115620005465760008385840101525b5095945050505050565b6000602082840312156200056357600080fd5b81516001600160401b03808211156200057b57600080fd5b9083019060e082860312156200059057600080fd5b6200059a6200042d565b620005a5836200048b565b8152620005b5602084016200048b565b602082015260408301516040820152620005d260608401620004a8565b6060820152620005e560808401620004a8565b608082015260a083015182811115620005fd57600080fd5b6200060b87828601620004bb565b60a08301525060c0830151828111156200062457600080fd5b6200063287828601620004bb565b60c08301525095945050505050565b634e487b7160e01b600052603260045260246000fd5b634e487b7160e01b600052601160045260246000fd5b600060001982141562000684576200068462000657565b5060010190565b60008219821115620006a157620006a162000657565b500190565b600181811c90821680620006bb57607f821691505b60208210811415620006dd57634e487b7160e01b600052602260045260246000fd5b50919050565b60805160a05160c05160e051611f146200076a6000396000818161037d015281816106a2015261098501526000818161030d0152610a36015260008181610401015281816106e0015281816109d401528181610a6001528181610ad501528181610ed501526110070152600081816102980152818161065a015261085b0152611f146000f3fe608060405234801561001057600080fd5b50600436106101a95760003560e01c806366d003ac116100f95780639923c94b11610097578063cd3293de11610071578063cd3293de146103fc578063db006a7514610423578063dd62ed3e14610436578063f2fde38b1461046f57600080fd5b80639923c94b146103c3578063a457c2d7146103d6578063a9059cbb146103e957600080fd5b80637e34cd3d116100d35780637e34cd3d1461037857806381e45d9a1461039f5780638da5cb5b146103aa57806395d89b41146103bb57600080fd5b806366d003ac1461030857806370a0823114610347578063715018a61461037057600080fd5b806318160ddd1161016657806334c1df751161014057806334c1df7514610280578063352693151461029357806339509351146102cd57806345bdfa8a146102e057600080fd5b806318160ddd1461025657806323b872dd1461025e578063313ce5671461027157600080fd5b806301320fe2146101ae578063055ad42e146101e157806306fdde03146101f6578063094890961461020b578063095ea7b314610220578063166a00e414610243575b600080fd5b6101ce6101bc366004611a83565b60076020526000908152604090205481565b6040519081526020015b60405180910390f35b6101e9610482565b6040516101d89190611ab4565b6101fe6104ed565b6040516101d89190611b08565b61021e610219366004611b3b565b61057f565b005b61023361022e366004611b54565b610772565b60405190151581526020016101d8565b61021e610251366004611b7e565b610789565b6003546101ce565b61023361026c366004611ba0565b610b6a565b604051600081526020016101d8565b6101e961028e366004611c06565b610c16565b6102ba7f000000000000000000000000000000000000000000000000000000000000000081565b60405161ffff90911681526020016101d8565b6102336102db366004611b54565b610c83565b6102f36102ee366004611c9b565b610cbf565b60405163ffffffff90911681526020016101d8565b61032f7f000000000000000000000000000000000000000000000000000000000000000081565b6040516001600160a01b0390911681526020016101d8565b6101ce610355366004611a83565b6001600160a01b031660009081526001602052604090205490565b61021e610d22565b6101ce7f000000000000000000000000000000000000000000000000000000000000000081565b6102f363ffffffff81565b6000546001600160a01b031661032f565b6101fe610d88565b6102f36103d1366004611b3b565b610d97565b6102336103e4366004611b54565b610dc7565b6102336103f7366004611b54565b610e60565b61032f7f000000000000000000000000000000000000000000000000000000000000000081565b61021e610431366004611b3b565b610e6d565b6101ce610444366004611cdd565b6001600160a01b03918216600090815260026020908152604080832093909416825291909152205490565b61021e61047d366004611a83565b611035565b604080516101008101918290526000916104e891906006906008908286855b82829054906101000a900463ffffffff1663ffffffff16815260200190600401906020826003010492830192600103820291508084116104a1579050505050505043610c16565b905090565b6060600480546104fc90611d10565b80601f016020809104026020016040519081016040528092919081815260200182805461052890611d10565b80156105755780601f1061054a57610100808354040283529160200191610575565b820191906000526020600020905b81548152906001019060200180831161055857829003601f168201915b5050505050905090565b60008061058a610482565b600881111561059b5761059b611a9e565b146105c15760405162461bcd60e51b81526004016105b890611d4b565b60405180910390fd5b6008546000906001600160a01b0316156105e6576008546001600160a01b03166105fc565b600880546001600160a01b031916339081179091555b6001600160a01b0381166000908152600760205260409020549091504310156106525760405162461bcd60e51b815260206004820152600860248201526721a7a7a62227aba760c11b60448201526064016105b8565b61068061ffff7f00000000000000000000000000000000000000000000000000000000000000001643611d84565b6001600160a01b0382166000908152600760205260408120919091556106c6847f0000000000000000000000000000000000000000000000000000000000000000611d9c565b90506106d3333086611100565b6107076001600160a01b037f00000000000000000000000000000000000000000000000000000000000000001633836112d0565b336001600160a01b03167f7c14c9db98cea20a2acb2d08c72c3f77c7e2a84d19c6190d70993b9eef3c3ff96040518060400160405280878152602001848152506040516107549190611dbb565b60405180910390a25050600880546001600160a01b03191690555050565b600061077f338484611338565b5060015b92915050565b600080610794610482565b60088111156107a5576107a5611a9e565b146107c25760405162461bcd60e51b81526004016105b890611d4b565b6008546000906001600160a01b0316156107e7576008546001600160a01b03166107fd565b600880546001600160a01b031916339081179091555b6001600160a01b0381166000908152600760205260409020549091504310156108535760405162461bcd60e51b815260206004820152600860248201526721a7a7a62227aba760c11b60448201526064016105b8565b61088161ffff7f00000000000000000000000000000000000000000000000000000000000000001643611d84565b6001600160a01b038216600090815260076020526040902055826108d35760405162461bcd60e51b81526020600482015260096024820152680444553495245445f360bc1b60448201526064016105b8565b8284111561091a5760405162461bcd60e51b81526020600482015260146024820152731352539253555357d3d5915497d11154d254915160621b60448201526064016105b8565b306000908152600160205260409020548085111561096f5760405162461bcd60e51b8152602060048201526012602482015271494e53554646494349454e545f53544f434b60701b60448201526064016105b8565b600061097b858361145c565b905060006109a9827f0000000000000000000000000000000000000000000000000000000000000000611d9c565b9050818314156109bc576109bc43611472565b6109c7303384611100565b6109fc6001600160a01b037f00000000000000000000000000000000000000000000000000000000000000001633308461161f565b6001610a06610482565b6008811115610a1757610a17611a9e565b1415610afc576040516370a0823160e01b8152306004820152610afc907f0000000000000000000000000000000000000000000000000000000000000000906001600160a01b037f000000000000000000000000000000000000000000000000000000000000000016906370a0823190602401602060405180830381865afa158015610aa7573d6000803e3d6000fd5b505050506040513d601f19601f82011682018060405250810190610acb9190611dec565b6001600160a01b037f00000000000000000000000000000000000000000000000000000000000000001691906112d0565b336001600160a01b03167f923ce970640985aa12afeae016e55fa5d676bf990ab39b5ea2466764cd44055e604051806040016040528085815260200184815250604051610b499190611dbb565b60405180910390a25050600880546001600160a01b03191690555050505050565b6000610b77848484611100565b6001600160a01b038416600090815260026020908152604080832033845290915290205482811015610bfc5760405162461bcd60e51b815260206004820152602860248201527f45524332303a207472616e7366657220616d6f756e74206578636565647320616044820152676c6c6f77616e636560c01b60648201526084016105b8565b610c098533858403611338565b60019150505b9392505050565b6000805b6008811015610c7957838160088110610c3557610c35611e05565b602002015163ffffffff168363ffffffff161015610c6757806008811115610c5f57610c5f611a9e565b915050610783565b80610c7181611e1b565b915050610c1a565b5060089392505050565b3360008181526002602090815260408083206001600160a01b0387168452909152812054909161077f918590610cba908690611d84565b611338565b600080826008811115610cd457610cd4611a9e565b11610ce0576000610c0f565b826001836008811115610cf557610cf5611a9e565b610cff9190611e36565b60088110610d0f57610d0f611e05565b602002016020810190610c0f9190611e4d565b6000546001600160a01b03163314610d7c5760405162461bcd60e51b815260206004820181905260248201527f4f776e61626c653a2063616c6c6572206973206e6f7420746865206f776e657260448201526064016105b8565b610d866000611657565b565b6060600580546104fc90611d10565b60068160088110610da757600080fd5b60089182820401919006600402915054906101000a900463ffffffff1681565b3360009081526002602090815260408083206001600160a01b038616845290915281205482811015610e495760405162461bcd60e51b815260206004820152602560248201527f45524332303a2064656372656173656420616c6c6f77616e63652062656c6f77604482015264207a65726f60d81b60648201526084016105b8565b610e563385858403611338565b5060019392505050565b600061077f338484611100565b600180610e78610482565b6008811115610e8957610e89611a9e565b14610ea65760405162461bcd60e51b81526004016105b890611d4b565b6000610eb160035490565b9050610ebd33846116a7565b6040516370a0823160e01b81523060048201526000907f00000000000000000000000000000000000000000000000000000000000000006001600160a01b0316906370a0823190602401602060405180830381865afa158015610f24573d6000803e3d6000fd5b505050506040513d601f19601f82011682018060405250810190610f489190611dec565b905060008111610f8c5760405162461bcd60e51b815260206004820152600f60248201526e524553455256455f42414c414e434560881b60448201526064016105b8565b600082610f998387611d9c565b610fa39190611e68565b9050336001600160a01b03167fdbb205db698e6b34158cdff6fba75ad516eb88dcaea40bac07ca663283cf3508604051806040016040528088815260200184815250604051610ff29190611dbb565b60405180910390a261102e6001600160a01b037f00000000000000000000000000000000000000000000000000000000000000001633836112d0565b5050505050565b6000546001600160a01b0316331461108f5760405162461bcd60e51b815260206004820181905260248201527f4f776e61626c653a2063616c6c6572206973206e6f7420746865206f776e657260448201526064016105b8565b6001600160a01b0381166110f45760405162461bcd60e51b815260206004820152602660248201527f4f776e61626c653a206e6577206f776e657220697320746865207a65726f206160448201526564647265737360d01b60648201526084016105b8565b6110fd81611657565b50565b6001600160a01b0383166111645760405162461bcd60e51b815260206004820152602560248201527f45524332303a207472616e736665722066726f6d20746865207a65726f206164604482015264647265737360d81b60648201526084016105b8565b6001600160a01b0382166111c65760405162461bcd60e51b815260206004820152602360248201527f45524332303a207472616e7366657220746f20746865207a65726f206164647260448201526265737360e81b60648201526084016105b8565b6001600160a01b0383166000908152600160205260409020548181101561123e5760405162461bcd60e51b815260206004820152602660248201527f45524332303a207472616e7366657220616d6f756e7420657863656564732062604482015265616c616e636560d01b60648201526084016105b8565b6001600160a01b03808516600090815260016020526040808220858503905591851681529081208054849290611275908490611d84565b92505081905550826001600160a01b0316846001600160a01b03167fddf252ad1be2c89b69c2b068fc378daa952ba7f163c4a11628f55a4df523b3ef846040516112c191815260200190565b60405180910390a35b50505050565b6040516001600160a01b03831660248201526044810182905261133390849063a9059cbb60e01b906064015b60408051601f198184030181529190526020810180516001600160e01b03166001600160e01b0319909316929092179091526117f5565b505050565b6001600160a01b03831661139a5760405162461bcd60e51b8152602060048201526024808201527f45524332303a20617070726f76652066726f6d20746865207a65726f206164646044820152637265737360e01b60648201526084016105b8565b6001600160a01b0382166113fb5760405162461bcd60e51b815260206004820152602260248201527f45524332303a20617070726f766520746f20746865207a65726f206164647265604482015261737360f01b60648201526084016105b8565b6001600160a01b0383811660008181526002602090815260408083209487168084529482529182902085905590518481527f8c5be1e5ebec7d5bd14f71427d1e84f3dd0314c0f7b2291e5b200ac8c7c3b925910160405180910390a3505050565b600081831061146b5781610c0f565b5090919050565b8063ffffffff164363ffffffff1611156114c05760405162461bcd60e51b815260206004820152600f60248201526e1391561517d09313d0d2d7d41054d5608a1b60448201526064016105b8565b63ffffffff818116106115155760405162461bcd60e51b815260206004820152601860248201527f4e4558545f424c4f434b5f554e494e495449414c495a4544000000000000000060448201526064016105b8565b600061151f610482565b600881111561153057611530611a9e565b90506006816008811061154557611545611e05565b60088104919091015460079091166004026101000a900463ffffffff908116146115a25760405162461bcd60e51b815260206004820152600e60248201526d1391561517d09313d0d2d7d4d15560921b60448201526064016105b8565b6115ab826118c7565b81600682600881106115bf576115bf611e05565b600891828204019190066004026101000a81548163ffffffff021916908363ffffffff1602179055508163ffffffff167f260aac5b840edc27b89fdf50e91311a413363a400959466e1049e6d071b8cee260405160405180910390a25050565b6040516001600160a01b03808516602483015283166044820152606481018290526112ca9085906323b872dd60e01b906084016112fc565b600080546001600160a01b038381166001600160a01b0319831681178455604051919092169283917f8be0079c531659141344cd1fd0a4f28419497f9722a3daafe3b4186f6b6457e09190a35050565b6001600160a01b0382166117075760405162461bcd60e51b815260206004820152602160248201527f45524332303a206275726e2066726f6d20746865207a65726f206164647265736044820152607360f81b60648201526084016105b8565b6001600160a01b0382166000908152600160205260409020548181101561177b5760405162461bcd60e51b815260206004820152602260248201527f45524332303a206275726e20616d6f756e7420657863656564732062616c616e604482015261636560f01b60648201526084016105b8565b6001600160a01b03831660009081526001602052604081208383039055600380548492906117aa908490611e36565b90915550506040518281526000906001600160a01b038516907fddf252ad1be2c89b69c2b068fc378daa952ba7f163c4a11628f55a4df523b3ef9060200160405180910390a3505050565b600061184a826040518060400160405280602081526020017f5361666545524332303a206c6f772d6c6576656c2063616c6c206661696c6564815250856001600160a01b03166118ef9092919063ffffffff16565b80519091501561133357808060200190518101906118689190611e8a565b6113335760405162461bcd60e51b815260206004820152602a60248201527f5361666545524332303a204552433230206f7065726174696f6e20646964206e6044820152691bdd081cdd58d8d9595960b21b60648201526084016105b8565b60016118d1610482565b60088111156118e2576118e2611a9e565b106110fd576110fd611eac565b60606118fe8484600085611906565b949350505050565b6060824710156119675760405162461bcd60e51b815260206004820152602660248201527f416464726573733a20696e73756666696369656e742062616c616e636520666f6044820152651c8818d85b1b60d21b60648201526084016105b8565b843b6119b55760405162461bcd60e51b815260206004820152601d60248201527f416464726573733a2063616c6c20746f206e6f6e2d636f6e747261637400000060448201526064016105b8565b600080866001600160a01b031685876040516119d19190611ec2565b60006040518083038185875af1925050503d8060008114611a0e576040519150601f19603f3d011682016040523d82523d6000602084013e611a13565b606091505b5091509150611a23828286611a2e565b979650505050505050565b60608315611a3d575081610c0f565b825115611a4d5782518084602001fd5b8160405162461bcd60e51b81526004016105b89190611b08565b80356001600160a01b0381168114611a7e57600080fd5b919050565b600060208284031215611a9557600080fd5b610c0f82611a67565b634e487b7160e01b600052602160045260246000fd5b6020810160098310611ad657634e487b7160e01b600052602160045260246000fd5b91905290565b60005b83811015611af7578181015183820152602001611adf565b838111156112ca5750506000910152565b6020815260008251806020840152611b27816040850160208701611adc565b601f01601f19169190910160400192915050565b600060208284031215611b4d57600080fd5b5035919050565b60008060408385031215611b6757600080fd5b611b7083611a67565b946020939093013593505050565b60008060408385031215611b9157600080fd5b50508035926020909101359150565b600080600060608486031215611bb557600080fd5b611bbe84611a67565b9250611bcc60208501611a67565b9150604084013590509250925092565b634e487b7160e01b600052604160045260246000fd5b803563ffffffff81168114611a7e57600080fd5b6000806101208385031215611c1a57600080fd5b83601f840112611c2957600080fd5b60405161010080820182811067ffffffffffffffff82111715611c4e57611c4e611bdc565b60405284018186821115611c6157600080fd5b855b82811015611c8257611c7481611bf2565b825260209182019101611c63565b5050819350611c9081611bf2565b925050509250929050565b6000806101208385031215611caf57600080fd5b610100830184811115611cc157600080fd5b8392503560098110611cd257600080fd5b809150509250929050565b60008060408385031215611cf057600080fd5b611cf983611a67565b9150611d0760208401611a67565b90509250929050565b600181811c90821680611d2457607f821691505b60208210811415611d4557634e487b7160e01b600052602260045260246000fd5b50919050565b6020808252600990820152684241445f504841534560b81b604082015260600190565b634e487b7160e01b600052601160045260246000fd5b60008219821115611d9757611d97611d6e565b500190565b6000816000190483118215151615611db657611db6611d6e565b500290565b60408101818360005b6002811015611de3578151835260209283019290910190600101611dc4565b50505092915050565b600060208284031215611dfe57600080fd5b5051919050565b634e487b7160e01b600052603260045260246000fd5b6000600019821415611e2f57611e2f611d6e565b5060010190565b600082821015611e4857611e48611d6e565b500390565b600060208284031215611e5f57600080fd5b610c0f82611bf2565b600082611e8557634e487b7160e01b600052601260045260246000fd5b500490565b600060208284031215611e9c57600080fd5b81518015158114610c0f57600080fd5b634e487b7160e01b600052600160045260246000fd5b60008251611ed4818460208701611adc565b919091019291505056fea26469706673582212209dfc16c8b20ec9ddf0a39b43b248f9f7bcf9cbceaeeb4cf5ad42e3c8a04f8a5364736f6c634300080a0033",
          "opcodes": "PUSH2 0x100 PUSH1 0x40 MSTORE CALLVALUE DUP1 ISZERO PUSH3 0x12 JUMPI PUSH1 0x0 DUP1 REVERT JUMPDEST POP PUSH1 0x40 MLOAD PUSH3 0x267E CODESIZE SUB DUP1 PUSH3 0x267E DUP4 CODECOPY DUP2 ADD PUSH1 0x40 DUP2 SWAP1 MSTORE PUSH3 0x35 SWAP2 PUSH3 0x550 JUMP JUMPDEST PUSH1 0x80 DUP2 ADD MLOAD PUSH1 0xA0 DUP3 ADD MLOAD PUSH1 0xC0 DUP4 ADD MLOAD PUSH3 0x4F CALLER PUSH3 0x23C JUMP JUMPDEST DUP2 MLOAD PUSH3 0x64 SWAP1 PUSH1 0x4 SWAP1 PUSH1 0x20 DUP6 ADD SWAP1 PUSH3 0x371 JUMP JUMPDEST POP DUP1 MLOAD PUSH3 0x7A SWAP1 PUSH1 0x5 SWAP1 PUSH1 0x20 DUP5 ADD SWAP1 PUSH3 0x371 JUMP JUMPDEST POP POP POP PUSH1 0x0 JUMPDEST PUSH1 0x8 DUP2 LT ISZERO PUSH3 0xE4 JUMPI PUSH4 0xFFFFFFFF PUSH1 0x6 DUP3 PUSH1 0x8 DUP2 LT PUSH3 0xA5 JUMPI PUSH3 0xA5 PUSH3 0x641 JUMP JUMPDEST PUSH1 0x8 SWAP2 DUP3 DUP3 DIV ADD SWAP2 SWAP1 MOD PUSH1 0x4 MUL PUSH2 0x100 EXP DUP2 SLOAD DUP2 PUSH4 0xFFFFFFFF MUL NOT AND SWAP1 DUP4 PUSH4 0xFFFFFFFF AND MUL OR SWAP1 SSTORE POP DUP1 DUP1 PUSH3 0xDB SWAP1 PUSH3 0x66D JUMP JUMPDEST SWAP2 POP POP PUSH3 0x80 JUMP JUMPDEST POP PUSH1 0x0 DUP2 PUSH2 0xFFFF AND GT PUSH3 0x12C JUMPI PUSH1 0x40 MLOAD PUSH3 0x461BCD PUSH1 0xE5 SHL DUP2 MSTORE PUSH1 0x20 PUSH1 0x4 DUP3 ADD MSTORE PUSH1 0xA PUSH1 0x24 DUP3 ADD MSTORE PUSH10 0x434F4F4C444F574E5F3 PUSH1 0xB4 SHL PUSH1 0x44 DUP3 ADD MSTORE PUSH1 0x64 ADD JUMPDEST PUSH1 0x40 MLOAD DUP1 SWAP2 SUB SWAP1 REVERT JUMPDEST PUSH2 0xFFFF AND PUSH1 0x80 MSTORE PUSH1 0x40 DUP2 ADD MLOAD PUSH3 0x170 JUMPI PUSH1 0x40 MLOAD PUSH3 0x461BCD PUSH1 0xE5 SHL DUP2 MSTORE PUSH1 0x20 PUSH1 0x4 DUP3 ADD MSTORE PUSH1 0x7 PUSH1 0x24 DUP3 ADD MSTORE PUSH7 0x50524943455F3 PUSH1 0xCC SHL PUSH1 0x44 DUP3 ADD MSTORE PUSH1 0x64 ADD PUSH3 0x123 JUMP JUMPDEST PUSH1 0x0 DUP2 PUSH1 0x60 ADD MLOAD PUSH2 0xFFFF AND GT PUSH3 0x1B4 JUMPI PUSH1 0x40 MLOAD PUSH3 0x461BCD PUSH1 0xE5 SHL DUP2 MSTORE PUSH1 0x20 PUSH1 0x4 DUP3 ADD MSTORE PUSH1 0x7 PUSH1 0x24 DUP3 ADD MSTORE PUSH7 0x554E4954535F3 PUSH1 0xCC SHL PUSH1 0x44 DUP3 ADD MSTORE PUSH1 0x64 ADD PUSH3 0x123 JUMP JUMPDEST PUSH1 0x20 DUP2 ADD MLOAD PUSH1 0x1 PUSH1 0x1 PUSH1 0xA0 SHL SUB AND PUSH3 0x1FE JUMPI PUSH1 0x40 MLOAD PUSH3 0x461BCD PUSH1 0xE5 SHL DUP2 MSTORE PUSH1 0x20 PUSH1 0x4 DUP3 ADD MSTORE PUSH1 0xB PUSH1 0x24 DUP3 ADD MSTORE PUSH11 0x524543495049454E545F3 PUSH1 0xAC SHL PUSH1 0x44 DUP3 ADD MSTORE PUSH1 0x64 ADD PUSH3 0x123 JUMP JUMPDEST PUSH1 0x40 DUP2 ADD MLOAD PUSH1 0xE0 MSTORE DUP1 MLOAD PUSH1 0x1 PUSH1 0x1 PUSH1 0xA0 SHL SUB SWAP1 DUP2 AND PUSH1 0xA0 MSTORE PUSH1 0x20 DUP3 ADD MLOAD AND PUSH1 0xC0 MSTORE PUSH1 0x60 DUP2 ADD MLOAD PUSH3 0x235 SWAP1 ADDRESS SWAP1 PUSH2 0xFFFF AND PUSH3 0x28C JUMP JUMPDEST POP PUSH3 0x6E3 JUMP JUMPDEST PUSH1 0x0 DUP1 SLOAD PUSH1 0x1 PUSH1 0x1 PUSH1 0xA0 SHL SUB DUP4 DUP2 AND PUSH1 0x1 PUSH1 0x1 PUSH1 0xA0 SHL SUB NOT DUP4 AND DUP2 OR DUP5 SSTORE PUSH1 0x40 MLOAD SWAP2 SWAP1 SWAP3 AND SWAP3 DUP4 SWAP2 PUSH32 0x8BE0079C531659141344CD1FD0A4F28419497F9722A3DAAFE3B4186F6B6457E0 SWAP2 SWAP1 LOG3 POP POP JUMP JUMPDEST PUSH1 0x1 PUSH1 0x1 PUSH1 0xA0 SHL SUB DUP3 AND PUSH3 0x2E4 JUMPI PUSH1 0x40 MLOAD PUSH3 0x461BCD PUSH1 0xE5 SHL DUP2 MSTORE PUSH1 0x20 PUSH1 0x4 DUP3 ADD MSTORE PUSH1 0x1F PUSH1 0x24 DUP3 ADD MSTORE PUSH32 0x45524332303A206D696E7420746F20746865207A65726F206164647265737300 PUSH1 0x44 DUP3 ADD MSTORE PUSH1 0x64 ADD PUSH3 0x123 JUMP JUMPDEST DUP1 PUSH1 0x3 PUSH1 0x0 DUP3 DUP3 SLOAD PUSH3 0x2F8 SWAP2 SWAP1 PUSH3 0x68B JUMP JUMPDEST SWAP1 SWAP2 SSTORE POP POP PUSH1 0x1 PUSH1 0x1 PUSH1 0xA0 SHL SUB DUP3 AND PUSH1 0x0 SWAP1 DUP2 MSTORE PUSH1 0x1 PUSH1 0x20 MSTORE PUSH1 0x40 DUP2 KECCAK256 DUP1 SLOAD DUP4 SWAP3 SWAP1 PUSH3 0x327 SWAP1 DUP5 SWAP1 PUSH3 0x68B JUMP JUMPDEST SWAP1 SWAP2 SSTORE POP POP PUSH1 0x40 MLOAD DUP2 DUP2 MSTORE PUSH1 0x1 PUSH1 0x1 PUSH1 0xA0 SHL SUB DUP4 AND SWAP1 PUSH1 0x0 SWAP1 PUSH32 0xDDF252AD1BE2C89B69C2B068FC378DAA952BA7F163C4A11628F55A4DF523B3EF SWAP1 PUSH1 0x20 ADD PUSH1 0x40 MLOAD DUP1 SWAP2 SUB SWAP1 LOG3 POP POP JUMP JUMPDEST DUP3 DUP1 SLOAD PUSH3 0x37F SWAP1 PUSH3 0x6A6 JUMP JUMPDEST SWAP1 PUSH1 0x0 MSTORE PUSH1 0x20 PUSH1 0x0 KECCAK256 SWAP1 PUSH1 0x1F ADD PUSH1 0x20 SWAP1 DIV DUP2 ADD SWAP3 DUP3 PUSH3 0x3A3 JUMPI PUSH1 0x0 DUP6 SSTORE PUSH3 0x3EE JUMP JUMPDEST DUP3 PUSH1 0x1F LT PUSH3 0x3BE JUMPI DUP1 MLOAD PUSH1 0xFF NOT AND DUP4 DUP1 ADD OR DUP6 SSTORE PUSH3 0x3EE JUMP JUMPDEST DUP3 DUP1 ADD PUSH1 0x1 ADD DUP6 SSTORE DUP3 ISZERO PUSH3 0x3EE JUMPI SWAP2 DUP3 ADD JUMPDEST DUP3 DUP2 GT ISZERO PUSH3 0x3EE JUMPI DUP3 MLOAD DUP3 SSTORE SWAP2 PUSH1 0x20 ADD SWAP2 SWAP1 PUSH1 0x1 ADD SWAP1 PUSH3 0x3D1 JUMP JUMPDEST POP PUSH3 0x3FC SWAP3 SWAP2 POP PUSH3 0x400 JUMP JUMPDEST POP SWAP1 JUMP JUMPDEST JUMPDEST DUP1 DUP3 GT ISZERO PUSH3 0x3FC JUMPI PUSH1 0x0 DUP2 SSTORE PUSH1 0x1 ADD PUSH3 0x401 JUMP JUMPDEST PUSH4 0x4E487B71 PUSH1 0xE0 SHL PUSH1 0x0 MSTORE PUSH1 0x41 PUSH1 0x4 MSTORE PUSH1 0x24 PUSH1 0x0 REVERT JUMPDEST PUSH1 0x40 MLOAD PUSH1 0xE0 DUP2 ADD PUSH1 0x1 PUSH1 0x1 PUSH1 0x40 SHL SUB DUP2 GT DUP3 DUP3 LT OR ISZERO PUSH3 0x452 JUMPI PUSH3 0x452 PUSH3 0x417 JUMP JUMPDEST PUSH1 0x40 MSTORE SWAP1 JUMP JUMPDEST PUSH1 0x40 MLOAD PUSH1 0x1F DUP3 ADD PUSH1 0x1F NOT AND DUP2 ADD PUSH1 0x1 PUSH1 0x1 PUSH1 0x40 SHL SUB DUP2 GT DUP3 DUP3 LT OR ISZERO PUSH3 0x483 JUMPI PUSH3 0x483 PUSH3 0x417 JUMP JUMPDEST PUSH1 0x40 MSTORE SWAP2 SWAP1 POP JUMP JUMPDEST DUP1 MLOAD PUSH1 0x1 PUSH1 0x1 PUSH1 0xA0 SHL SUB DUP2 AND DUP2 EQ PUSH3 0x4A3 JUMPI PUSH1 0x0 DUP1 REVERT JUMPDEST SWAP2 SWAP1 POP JUMP JUMPDEST DUP1 MLOAD PUSH2 0xFFFF DUP2 AND DUP2 EQ PUSH3 0x4A3 JUMPI PUSH1 0x0 DUP1 REVERT JUMPDEST PUSH1 0x0 DUP3 PUSH1 0x1F DUP4 ADD SLT PUSH3 0x4CD JUMPI PUSH1 0x0 DUP1 REVERT JUMPDEST DUP2 MLOAD PUSH1 0x1 PUSH1 0x1 PUSH1 0x40 SHL SUB DUP2 GT ISZERO PUSH3 0x4E9 JUMPI PUSH3 0x4E9 PUSH3 0x417 JUMP JUMPDEST PUSH1 0x20 PUSH3 0x4FF PUSH1 0x1F DUP4 ADD PUSH1 0x1F NOT AND DUP3 ADD PUSH3 0x458 JUMP JUMPDEST DUP3 DUP2 MSTORE DUP6 DUP3 DUP5 DUP8 ADD ADD GT ISZERO PUSH3 0x514 JUMPI PUSH1 0x0 DUP1 REVERT JUMPDEST PUSH1 0x0 JUMPDEST DUP4 DUP2 LT ISZERO PUSH3 0x534 JUMPI DUP6 DUP2 ADD DUP4 ADD MLOAD DUP3 DUP3 ADD DUP5 ADD MSTORE DUP3 ADD PUSH3 0x517 JUMP JUMPDEST DUP4 DUP2 GT ISZERO PUSH3 0x546 JUMPI PUSH1 0x0 DUP4 DUP6 DUP5 ADD ADD MSTORE JUMPDEST POP SWAP6 SWAP5 POP POP POP POP POP JUMP JUMPDEST PUSH1 0x0 PUSH1 0x20 DUP3 DUP5 SUB SLT ISZERO PUSH3 0x563 JUMPI PUSH1 0x0 DUP1 REVERT JUMPDEST DUP2 MLOAD PUSH1 0x1 PUSH1 0x1 PUSH1 0x40 SHL SUB DUP1 DUP3 GT ISZERO PUSH3 0x57B JUMPI PUSH1 0x0 DUP1 REVERT JUMPDEST SWAP1 DUP4 ADD SWAP1 PUSH1 0xE0 DUP3 DUP7 SUB SLT ISZERO PUSH3 0x590 JUMPI PUSH1 0x0 DUP1 REVERT JUMPDEST PUSH3 0x59A PUSH3 0x42D JUMP JUMPDEST PUSH3 0x5A5 DUP4 PUSH3 0x48B JUMP JUMPDEST DUP2 MSTORE PUSH3 0x5B5 PUSH1 0x20 DUP5 ADD PUSH3 0x48B JUMP JUMPDEST PUSH1 0x20 DUP3 ADD MSTORE PUSH1 0x40 DUP4 ADD MLOAD PUSH1 0x40 DUP3 ADD MSTORE PUSH3 0x5D2 PUSH1 0x60 DUP5 ADD PUSH3 0x4A8 JUMP JUMPDEST PUSH1 0x60 DUP3 ADD MSTORE PUSH3 0x5E5 PUSH1 0x80 DUP5 ADD PUSH3 0x4A8 JUMP JUMPDEST PUSH1 0x80 DUP3 ADD MSTORE PUSH1 0xA0 DUP4 ADD MLOAD DUP3 DUP2 GT ISZERO PUSH3 0x5FD JUMPI PUSH1 0x0 DUP1 REVERT JUMPDEST PUSH3 0x60B DUP8 DUP3 DUP7 ADD PUSH3 0x4BB JUMP JUMPDEST PUSH1 0xA0 DUP4 ADD MSTORE POP PUSH1 0xC0 DUP4 ADD MLOAD DUP3 DUP2 GT ISZERO PUSH3 0x624 JUMPI PUSH1 0x0 DUP1 REVERT JUMPDEST PUSH3 0x632 DUP8 DUP3 DUP7 ADD PUSH3 0x4BB JUMP JUMPDEST PUSH1 0xC0 DUP4 ADD MSTORE POP SWAP6 SWAP5 POP POP POP POP POP JUMP JUMPDEST PUSH4 0x4E487B71 PUSH1 0xE0 SHL PUSH1 0x0 MSTORE PUSH1 0x32 PUSH1 0x4 MSTORE PUSH1 0x24 PUSH1 0x0 REVERT JUMPDEST PUSH4 0x4E487B71 PUSH1 0xE0 SHL PUSH1 0x0 MSTORE PUSH1 0x11 PUSH1 0x4 MSTORE PUSH1 0x24 PUSH1 0x0 REVERT JUMPDEST PUSH1 0x0 PUSH1 0x0 NOT DUP3 EQ ISZERO PUSH3 0x684 JUMPI PUSH3 0x684 PUSH3 0x657 JUMP JUMPDEST POP PUSH1 0x1 ADD SWAP1 JUMP JUMPDEST PUSH1 0x0 DUP3 NOT DUP3 GT ISZERO PUSH3 0x6A1 JUMPI PUSH3 0x6A1 PUSH3 0x657 JUMP JUMPDEST POP ADD SWAP1 JUMP JUMPDEST PUSH1 0x1 DUP2 DUP2 SHR SWAP1 DUP3 AND DUP1 PUSH3 0x6BB JUMPI PUSH1 0x7F DUP3 AND SWAP2 POP JUMPDEST PUSH1 0x20 DUP3 LT DUP2 EQ ISZERO PUSH3 0x6DD JUMPI PUSH4 0x4E487B71 PUSH1 0xE0 SHL PUSH1 0x0 MSTORE PUSH1 0x22 PUSH1 0x4 MSTORE PUSH1 0x24 PUSH1 0x0 REVERT JUMPDEST POP SWAP2 SWAP1 POP JUMP JUMPDEST PUSH1 0x80 MLOAD PUSH1 0xA0 MLOAD PUSH1 0xC0 MLOAD PUSH1 0xE0 MLOAD PUSH2 0x1F14 PUSH3 0x76A PUSH1 0x0 CODECOPY PUSH1 0x0 DUP2 DUP2 PUSH2 0x37D ADD MSTORE DUP2 DUP2 PUSH2 0x6A2 ADD MSTORE PUSH2 0x985 ADD MSTORE PUSH1 0x0 DUP2 DUP2 PUSH2 0x30D ADD MSTORE PUSH2 0xA36 ADD MSTORE PUSH1 0x0 DUP2 DUP2 PUSH2 0x401 ADD MSTORE DUP2 DUP2 PUSH2 0x6E0 ADD MSTORE DUP2 DUP2 PUSH2 0x9D4 ADD MSTORE DUP2 DUP2 PUSH2 0xA60 ADD MSTORE DUP2 DUP2 PUSH2 0xAD5 ADD MSTORE DUP2 DUP2 PUSH2 0xED5 ADD MSTORE PUSH2 0x1007 ADD MSTORE PUSH1 0x0 DUP2 DUP2 PUSH2 0x298 ADD MSTORE DUP2 DUP2 PUSH2 0x65A ADD MSTORE PUSH2 0x85B ADD MSTORE PUSH2 0x1F14 PUSH1 0x0 RETURN INVALID PUSH1 0x80 PUSH1 0x40 MSTORE CALLVALUE DUP1 ISZERO PUSH2 0x10 JUMPI PUSH1 0x0 DUP1 REVERT JUMPDEST POP PUSH1 0x4 CALLDATASIZE LT PUSH2 0x1A9 JUMPI PUSH1 0x0 CALLDATALOAD PUSH1 0xE0 SHR DUP1 PUSH4 0x66D003AC GT PUSH2 0xF9 JUMPI DUP1 PUSH4 0x9923C94B GT PUSH2 0x97 JUMPI DUP1 PUSH4 0xCD3293DE GT PUSH2 0x71 JUMPI DUP1 PUSH4 0xCD3293DE EQ PUSH2 0x3FC JUMPI DUP1 PUSH4 0xDB006A75 EQ PUSH2 0x423 JUMPI DUP1 PUSH4 0xDD62ED3E EQ PUSH2 0x436 JUMPI DUP1 PUSH4 0xF2FDE38B EQ PUSH2 0x46F JUMPI PUSH1 0x0 DUP1 REVERT JUMPDEST DUP1 PUSH4 0x9923C94B EQ PUSH2 0x3C3 JUMPI DUP1 PUSH4 0xA457C2D7 EQ PUSH2 0x3D6 JUMPI DUP1 PUSH4 0xA9059CBB EQ PUSH2 0x3E9 JUMPI PUSH1 0x0 DUP1 REVERT JUMPDEST DUP1 PUSH4 0x7E34CD3D GT PUSH2 0xD3 JUMPI DUP1 PUSH4 0x7E34CD3D EQ PUSH2 0x378 JUMPI DUP1 PUSH4 0x81E45D9A EQ PUSH2 0x39F JUMPI DUP1 PUSH4 0x8DA5CB5B EQ PUSH2 0x3AA JUMPI DUP1 PUSH4 0x95D89B41 EQ PUSH2 0x3BB JUMPI PUSH1 0x0 DUP1 REVERT JUMPDEST DUP1 PUSH4 0x66D003AC EQ PUSH2 0x308 JUMPI DUP1 PUSH4 0x70A08231 EQ PUSH2 0x347 JUMPI DUP1 PUSH4 0x715018A6 EQ PUSH2 0x370 JUMPI PUSH1 0x0 DUP1 REVERT JUMPDEST DUP1 PUSH4 0x18160DDD GT PUSH2 0x166 JUMPI DUP1 PUSH4 0x34C1DF75 GT PUSH2 0x140 JUMPI DUP1 PUSH4 0x34C1DF75 EQ PUSH2 0x280 JUMPI DUP1 PUSH4 0x35269315 EQ PUSH2 0x293 JUMPI DUP1 PUSH4 0x39509351 EQ PUSH2 0x2CD JUMPI DUP1 PUSH4 0x45BDFA8A EQ PUSH2 0x2E0 JUMPI PUSH1 0x0 DUP1 REVERT JUMPDEST DUP1 PUSH4 0x18160DDD EQ PUSH2 0x256 JUMPI DUP1 PUSH4 0x23B872DD EQ PUSH2 0x25E JUMPI DUP1 PUSH4 0x313CE567 EQ PUSH2 0x271 JUMPI PUSH1 0x0 DUP1 REVERT JUMPDEST DUP1 PUSH4 0x1320FE2 EQ PUSH2 0x1AE JUMPI DUP1 PUSH4 0x55AD42E EQ PUSH2 0x1E1 JUMPI DUP1 PUSH4 0x6FDDE03 EQ PUSH2 0x1F6 JUMPI DUP1 PUSH4 0x9489096 EQ PUSH2 0x20B JUMPI DUP1 PUSH4 0x95EA7B3 EQ PUSH2 0x220 JUMPI DUP1 PUSH4 0x166A00E4 EQ PUSH2 0x243 JUMPI JUMPDEST PUSH1 0x0 DUP1 REVERT JUMPDEST PUSH2 0x1CE PUSH2 0x1BC CALLDATASIZE PUSH1 0x4 PUSH2 0x1A83 JUMP JUMPDEST PUSH1 0x7 PUSH1 0x20 MSTORE PUSH1 0x0 SWAP1 DUP2 MSTORE PUSH1 0x40 SWAP1 KECCAK256 SLOAD DUP2 JUMP JUMPDEST PUSH1 0x40 MLOAD SWAP1 DUP2 MSTORE PUSH1 0x20 ADD JUMPDEST PUSH1 0x40 MLOAD DUP1 SWAP2 SUB SWAP1 RETURN JUMPDEST PUSH2 0x1E9 PUSH2 0x482 JUMP JUMPDEST PUSH1 0x40 MLOAD PUSH2 0x1D8 SWAP2 SWAP1 PUSH2 0x1AB4 JUMP JUMPDEST PUSH2 0x1FE PUSH2 0x4ED JUMP JUMPDEST PUSH1 0x40 MLOAD PUSH2 0x1D8 SWAP2 SWAP1 PUSH2 0x1B08 JUMP JUMPDEST PUSH2 0x21E PUSH2 0x219 CALLDATASIZE PUSH1 0x4 PUSH2 0x1B3B JUMP JUMPDEST PUSH2 0x57F JUMP JUMPDEST STOP JUMPDEST PUSH2 0x233 PUSH2 0x22E CALLDATASIZE PUSH1 0x4 PUSH2 0x1B54 JUMP JUMPDEST PUSH2 0x772 JUMP JUMPDEST PUSH1 0x40 MLOAD SWAP1 ISZERO ISZERO DUP2 MSTORE PUSH1 0x20 ADD PUSH2 0x1D8 JUMP JUMPDEST PUSH2 0x21E PUSH2 0x251 CALLDATASIZE PUSH1 0x4 PUSH2 0x1B7E JUMP JUMPDEST PUSH2 0x789 JUMP JUMPDEST PUSH1 0x3 SLOAD PUSH2 0x1CE JUMP JUMPDEST PUSH2 0x233 PUSH2 0x26C CALLDATASIZE PUSH1 0x4 PUSH2 0x1BA0 JUMP JUMPDEST PUSH2 0xB6A JUMP JUMPDEST PUSH1 0x40 MLOAD PUSH1 0x0 DUP2 MSTORE PUSH1 0x20 ADD PUSH2 0x1D8 JUMP JUMPDEST PUSH2 0x1E9 PUSH2 0x28E CALLDATASIZE PUSH1 0x4 PUSH2 0x1C06 JUMP JUMPDEST PUSH2 0xC16 JUMP JUMPDEST PUSH2 0x2BA PUSH32 0x0 DUP2 JUMP JUMPDEST PUSH1 0x40 MLOAD PUSH2 0xFFFF SWAP1 SWAP2 AND DUP2 MSTORE PUSH1 0x20 ADD PUSH2 0x1D8 JUMP JUMPDEST PUSH2 0x233 PUSH2 0x2DB CALLDATASIZE PUSH1 0x4 PUSH2 0x1B54 JUMP JUMPDEST PUSH2 0xC83 JUMP JUMPDEST PUSH2 0x2F3 PUSH2 0x2EE CALLDATASIZE PUSH1 0x4 PUSH2 0x1C9B JUMP JUMPDEST PUSH2 0xCBF JUMP JUMPDEST PUSH1 0x40 MLOAD PUSH4 0xFFFFFFFF SWAP1 SWAP2 AND DUP2 MSTORE PUSH1 0x20 ADD PUSH2 0x1D8 JUMP JUMPDEST PUSH2 0x32F PUSH32 0x0 DUP2 JUMP JUMPDEST PUSH1 0x40 MLOAD PUSH1 0x1 PUSH1 0x1 PUSH1 0xA0 SHL SUB SWAP1 SWAP2 AND DUP2 MSTORE PUSH1 0x20 ADD PUSH2 0x1D8 JUMP JUMPDEST PUSH2 0x1CE PUSH2 0x355 CALLDATASIZE PUSH1 0x4 PUSH2 0x1A83 JUMP JUMPDEST PUSH1 0x1 PUSH1 0x1 PUSH1 0xA0 SHL SUB AND PUSH1 0x0 SWAP1 DUP2 MSTORE PUSH1 0x1 PUSH1 0x20 MSTORE PUSH1 0x40 SWAP1 KECCAK256 SLOAD SWAP1 JUMP JUMPDEST PUSH2 0x21E PUSH2 0xD22 JUMP JUMPDEST PUSH2 0x1CE PUSH32 0x0 DUP2 JUMP JUMPDEST PUSH2 0x2F3 PUSH4 0xFFFFFFFF DUP2 JUMP JUMPDEST PUSH1 0x0 SLOAD PUSH1 0x1 PUSH1 0x1 PUSH1 0xA0 SHL SUB AND PUSH2 0x32F JUMP JUMPDEST PUSH2 0x1FE PUSH2 0xD88 JUMP JUMPDEST PUSH2 0x2F3 PUSH2 0x3D1 CALLDATASIZE PUSH1 0x4 PUSH2 0x1B3B JUMP JUMPDEST PUSH2 0xD97 JUMP JUMPDEST PUSH2 0x233 PUSH2 0x3E4 CALLDATASIZE PUSH1 0x4 PUSH2 0x1B54 JUMP JUMPDEST PUSH2 0xDC7 JUMP JUMPDEST PUSH2 0x233 PUSH2 0x3F7 CALLDATASIZE PUSH1 0x4 PUSH2 0x1B54 JUMP JUMPDEST PUSH2 0xE60 JUMP JUMPDEST PUSH2 0x32F PUSH32 0x0 DUP2 JUMP JUMPDEST PUSH2 0x21E PUSH2 0x431 CALLDATASIZE PUSH1 0x4 PUSH2 0x1B3B JUMP JUMPDEST PUSH2 0xE6D JUMP JUMPDEST PUSH2 0x1CE PUSH2 0x444 CALLDATASIZE PUSH1 0x4 PUSH2 0x1CDD JUMP JUMPDEST PUSH1 0x1 PUSH1 0x1 PUSH1 0xA0 SHL SUB SWAP2 DUP3 AND PUSH1 0x0 SWAP1 DUP2 MSTORE PUSH1 0x2 PUSH1 0x20 SWAP1 DUP2 MSTORE PUSH1 0x40 DUP1 DUP4 KECCAK256 SWAP4 SWAP1 SWAP5 AND DUP3 MSTORE SWAP2 SWAP1 SWAP2 MSTORE KECCAK256 SLOAD SWAP1 JUMP JUMPDEST PUSH2 0x21E PUSH2 0x47D CALLDATASIZE PUSH1 0x4 PUSH2 0x1A83 JUMP JUMPDEST PUSH2 0x1035 JUMP JUMPDEST PUSH1 0x40 DUP1 MLOAD PUSH2 0x100 DUP2 ADD SWAP2 DUP3 SWAP1 MSTORE PUSH1 0x0 SWAP2 PUSH2 0x4E8 SWAP2 SWAP1 PUSH1 0x6 SWAP1 PUSH1 0x8 SWAP1 DUP3 DUP7 DUP6 JUMPDEST DUP3 DUP3 SWAP1 SLOAD SWAP1 PUSH2 0x100 EXP SWAP1 DIV PUSH4 0xFFFFFFFF AND PUSH4 0xFFFFFFFF AND DUP2 MSTORE PUSH1 0x20 ADD SWAP1 PUSH1 0x4 ADD SWAP1 PUSH1 0x20 DUP3 PUSH1 0x3 ADD DIV SWAP3 DUP4 ADD SWAP3 PUSH1 0x1 SUB DUP3 MUL SWAP2 POP DUP1 DUP5 GT PUSH2 0x4A1 JUMPI SWAP1 POP POP POP POP POP POP NUMBER PUSH2 0xC16 JUMP JUMPDEST SWAP1 POP SWAP1 JUMP JUMPDEST PUSH1 0x60 PUSH1 0x4 DUP1 SLOAD PUSH2 0x4FC SWAP1 PUSH2 0x1D10 JUMP JUMPDEST DUP1 PUSH1 0x1F ADD PUSH1 0x20 DUP1 SWAP2 DIV MUL PUSH1 0x20 ADD PUSH1 0x40 MLOAD SWAP1 DUP2 ADD PUSH1 0x40 MSTORE DUP1 SWAP3 SWAP2 SWAP1 DUP2 DUP2 MSTORE PUSH1 0x20 ADD DUP3 DUP1 SLOAD PUSH2 0x528 SWAP1 PUSH2 0x1D10 JUMP JUMPDEST DUP1 ISZERO PUSH2 0x575 JUMPI DUP1 PUSH1 0x1F LT PUSH2 0x54A JUMPI PUSH2 0x100 DUP1 DUP4 SLOAD DIV MUL DUP4 MSTORE SWAP2 PUSH1 0x20 ADD SWAP2 PUSH2 0x575 JUMP JUMPDEST DUP3 ADD SWAP2 SWAP1 PUSH1 0x0 MSTORE PUSH1 0x20 PUSH1 0x0 KECCAK256 SWAP1 JUMPDEST DUP2 SLOAD DUP2 MSTORE SWAP1 PUSH1 0x1 ADD SWAP1 PUSH1 0x20 ADD DUP1 DUP4 GT PUSH2 0x558 JUMPI DUP3 SWAP1 SUB PUSH1 0x1F AND DUP3 ADD SWAP2 JUMPDEST POP POP POP POP POP SWAP1 POP SWAP1 JUMP JUMPDEST PUSH1 0x0 DUP1 PUSH2 0x58A PUSH2 0x482 JUMP JUMPDEST PUSH1 0x8 DUP2 GT ISZERO PUSH2 0x59B JUMPI PUSH2 0x59B PUSH2 0x1A9E JUMP JUMPDEST EQ PUSH2 0x5C1 JUMPI PUSH1 0x40 MLOAD PUSH3 0x461BCD PUSH1 0xE5 SHL DUP2 MSTORE PUSH1 0x4 ADD PUSH2 0x5B8 SWAP1 PUSH2 0x1D4B JUMP JUMPDEST PUSH1 0x40 MLOAD DUP1 SWAP2 SUB SWAP1 REVERT JUMPDEST PUSH1 0x8 SLOAD PUSH1 0x0 SWAP1 PUSH1 0x1 PUSH1 0x1 PUSH1 0xA0 SHL SUB AND ISZERO PUSH2 0x5E6 JUMPI PUSH1 0x8 SLOAD PUSH1 0x1 PUSH1 0x1 PUSH1 0xA0 SHL SUB AND PUSH2 0x5FC JUMP JUMPDEST PUSH1 0x8 DUP1 SLOAD PUSH1 0x1 PUSH1 0x1 PUSH1 0xA0 SHL SUB NOT AND CALLER SWAP1 DUP2 OR SWAP1 SWAP2 SSTORE JUMPDEST PUSH1 0x1 PUSH1 0x1 PUSH1 0xA0 SHL SUB DUP2 AND PUSH1 0x0 SWAP1 DUP2 MSTORE PUSH1 0x7 PUSH1 0x20 MSTORE PUSH1 0x40 SWAP1 KECCAK256 SLOAD SWAP1 SWAP2 POP NUMBER LT ISZERO PUSH2 0x652 JUMPI PUSH1 0x40 MLOAD PUSH3 0x461BCD PUSH1 0xE5 SHL DUP2 MSTORE PUSH1 0x20 PUSH1 0x4 DUP3 ADD MSTORE PUSH1 0x8 PUSH1 0x24 DUP3 ADD MSTORE PUSH8 0x21A7A7A62227ABA7 PUSH1 0xC1 SHL PUSH1 0x44 DUP3 ADD MSTORE PUSH1 0x64 ADD PUSH2 0x5B8 JUMP JUMPDEST PUSH2 0x680 PUSH2 0xFFFF PUSH32 0x0 AND NUMBER PUSH2 0x1D84 JUMP JUMPDEST PUSH1 0x1 PUSH1 0x1 PUSH1 0xA0 SHL SUB DUP3 AND PUSH1 0x0 SWAP1 DUP2 MSTORE PUSH1 0x7 PUSH1 0x20 MSTORE PUSH1 0x40 DUP2 KECCAK256 SWAP2 SWAP1 SWAP2 SSTORE PUSH2 0x6C6 DUP5 PUSH32 0x0 PUSH2 0x1D9C JUMP JUMPDEST SWAP1 POP PUSH2 0x6D3 CALLER ADDRESS DUP7 PUSH2 0x1100 JUMP JUMPDEST PUSH2 0x707 PUSH1 0x1 PUSH1 0x1 PUSH1 0xA0 SHL SUB PUSH32 0x0 AND CALLER DUP4 PUSH2 0x12D0 JUMP JUMPDEST CALLER PUSH1 0x1 PUSH1 0x1 PUSH1 0xA0 SHL SUB AND PUSH32 0x7C14C9DB98CEA20A2ACB2D08C72C3F77C7E2A84D19C6190D70993B9EEF3C3FF9 PUSH1 0x40 MLOAD DUP1 PUSH1 0x40 ADD PUSH1 0x40 MSTORE DUP1 DUP8 DUP2 MSTORE PUSH1 0x20 ADD DUP5 DUP2 MSTORE POP PUSH1 0x40 MLOAD PUSH2 0x754 SWAP2 SWAP1 PUSH2 0x1DBB JUMP JUMPDEST PUSH1 0x40 MLOAD DUP1 SWAP2 SUB SWAP1 LOG2 POP POP PUSH1 0x8 DUP1 SLOAD PUSH1 0x1 PUSH1 0x1 PUSH1 0xA0 SHL SUB NOT AND SWAP1 SSTORE POP POP JUMP JUMPDEST PUSH1 0x0 PUSH2 0x77F CALLER DUP5 DUP5 PUSH2 0x1338 JUMP JUMPDEST POP PUSH1 0x1 JUMPDEST SWAP3 SWAP2 POP POP JUMP JUMPDEST PUSH1 0x0 DUP1 PUSH2 0x794 PUSH2 0x482 JUMP JUMPDEST PUSH1 0x8 DUP2 GT ISZERO PUSH2 0x7A5 JUMPI PUSH2 0x7A5 PUSH2 0x1A9E JUMP JUMPDEST EQ PUSH2 0x7C2 JUMPI PUSH1 0x40 MLOAD PUSH3 0x461BCD PUSH1 0xE5 SHL DUP2 MSTORE PUSH1 0x4 ADD PUSH2 0x5B8 SWAP1 PUSH2 0x1D4B JUMP JUMPDEST PUSH1 0x8 SLOAD PUSH1 0x0 SWAP1 PUSH1 0x1 PUSH1 0x1 PUSH1 0xA0 SHL SUB AND ISZERO PUSH2 0x7E7 JUMPI PUSH1 0x8 SLOAD PUSH1 0x1 PUSH1 0x1 PUSH1 0xA0 SHL SUB AND PUSH2 0x7FD JUMP JUMPDEST PUSH1 0x8 DUP1 SLOAD PUSH1 0x1 PUSH1 0x1 PUSH1 0xA0 SHL SUB NOT AND CALLER SWAP1 DUP2 OR SWAP1 SWAP2 SSTORE JUMPDEST PUSH1 0x1 PUSH1 0x1 PUSH1 0xA0 SHL SUB DUP2 AND PUSH1 0x0 SWAP1 DUP2 MSTORE PUSH1 0x7 PUSH1 0x20 MSTORE PUSH1 0x40 SWAP1 KECCAK256 SLOAD SWAP1 SWAP2 POP NUMBER LT ISZERO PUSH2 0x853 JUMPI PUSH1 0x40 MLOAD PUSH3 0x461BCD PUSH1 0xE5 SHL DUP2 MSTORE PUSH1 0x20 PUSH1 0x4 DUP3 ADD MSTORE PUSH1 0x8 PUSH1 0x24 DUP3 ADD MSTORE PUSH8 0x21A7A7A62227ABA7 PUSH1 0xC1 SHL PUSH1 0x44 DUP3 ADD MSTORE PUSH1 0x64 ADD PUSH2 0x5B8 JUMP JUMPDEST PUSH2 0x881 PUSH2 0xFFFF PUSH32 0x0 AND NUMBER PUSH2 0x1D84 JUMP JUMPDEST PUSH1 0x1 PUSH1 0x1 PUSH1 0xA0 SHL SUB DUP3 AND PUSH1 0x0 SWAP1 DUP2 MSTORE PUSH1 0x7 PUSH1 0x20 MSTORE PUSH1 0x40 SWAP1 KECCAK256 SSTORE DUP3 PUSH2 0x8D3 JUMPI PUSH1 0x40 MLOAD PUSH3 0x461BCD PUSH1 0xE5 SHL DUP2 MSTORE PUSH1 0x20 PUSH1 0x4 DUP3 ADD MSTORE PUSH1 0x9 PUSH1 0x24 DUP3 ADD MSTORE PUSH9 0x444553495245445F3 PUSH1 0xBC SHL PUSH1 0x44 DUP3 ADD MSTORE PUSH1 0x64 ADD PUSH2 0x5B8 JUMP JUMPDEST DUP3 DUP5 GT ISZERO PUSH2 0x91A JUMPI PUSH1 0x40 MLOAD PUSH3 0x461BCD PUSH1 0xE5 SHL DUP2 MSTORE PUSH1 0x20 PUSH1 0x4 DUP3 ADD MSTORE PUSH1 0x14 PUSH1 0x24 DUP3 ADD MSTORE PUSH20 0x1352539253555357D3D5915497D11154D2549151 PUSH1 0x62 SHL PUSH1 0x44 DUP3 ADD MSTORE PUSH1 0x64 ADD PUSH2 0x5B8 JUMP JUMPDEST ADDRESS PUSH1 0x0 SWAP1 DUP2 MSTORE PUSH1 0x1 PUSH1 0x20 MSTORE PUSH1 0x40 SWAP1 KECCAK256 SLOAD DUP1 DUP6 GT ISZERO PUSH2 0x96F JUMPI PUSH1 0x40 MLOAD PUSH3 0x461BCD PUSH1 0xE5 SHL DUP2 MSTORE PUSH1 0x20 PUSH1 0x4 DUP3 ADD MSTORE PUSH1 0x12 PUSH1 0x24 DUP3 ADD MSTORE PUSH18 0x494E53554646494349454E545F53544F434B PUSH1 0x70 SHL PUSH1 0x44 DUP3 ADD MSTORE PUSH1 0x64 ADD PUSH2 0x5B8 JUMP JUMPDEST PUSH1 0x0 PUSH2 0x97B DUP6 DUP4 PUSH2 0x145C JUMP JUMPDEST SWAP1 POP PUSH1 0x0 PUSH2 0x9A9 DUP3 PUSH32 0x0 PUSH2 0x1D9C JUMP JUMPDEST SWAP1 POP DUP2 DUP4 EQ ISZERO PUSH2 0x9BC JUMPI PUSH2 0x9BC NUMBER PUSH2 0x1472 JUMP JUMPDEST PUSH2 0x9C7 ADDRESS CALLER DUP5 PUSH2 0x1100 JUMP JUMPDEST PUSH2 0x9FC PUSH1 0x1 PUSH1 0x1 PUSH1 0xA0 SHL SUB PUSH32 0x0 AND CALLER ADDRESS DUP5 PUSH2 0x161F JUMP JUMPDEST PUSH1 0x1 PUSH2 0xA06 PUSH2 0x482 JUMP JUMPDEST PUSH1 0x8 DUP2 GT ISZERO PUSH2 0xA17 JUMPI PUSH2 0xA17 PUSH2 0x1A9E JUMP JUMPDEST EQ ISZERO PUSH2 0xAFC JUMPI PUSH1 0x40 MLOAD PUSH4 0x70A08231 PUSH1 0xE0 SHL DUP2 MSTORE ADDRESS PUSH1 0x4 DUP3 ADD MSTORE PUSH2 0xAFC SWAP1 PUSH32 0x0 SWAP1 PUSH1 0x1 PUSH1 0x1 PUSH1 0xA0 SHL SUB PUSH32 0x0 AND SWAP1 PUSH4 0x70A08231 SWAP1 PUSH1 0x24 ADD PUSH1 0x20 PUSH1 0x40 MLOAD DUP1 DUP4 SUB DUP2 DUP7 GAS STATICCALL ISZERO DUP1 ISZERO PUSH2 0xAA7 JUMPI RETURNDATASIZE PUSH1 0x0 DUP1 RETURNDATACOPY RETURNDATASIZE PUSH1 0x0 REVERT JUMPDEST POP POP POP POP PUSH1 0x40 MLOAD RETURNDATASIZE PUSH1 0x1F NOT PUSH1 0x1F DUP3 ADD AND DUP3 ADD DUP1 PUSH1 0x40 MSTORE POP DUP2 ADD SWAP1 PUSH2 0xACB SWAP2 SWAP1 PUSH2 0x1DEC JUMP JUMPDEST PUSH1 0x1 PUSH1 0x1 PUSH1 0xA0 SHL SUB PUSH32 0x0 AND SWAP2 SWAP1 PUSH2 0x12D0 JUMP JUMPDEST CALLER PUSH1 0x1 PUSH1 0x1 PUSH1 0xA0 SHL SUB AND PUSH32 0x923CE970640985AA12AFEAE016E55FA5D676BF990AB39B5EA2466764CD44055E PUSH1 0x40 MLOAD DUP1 PUSH1 0x40 ADD PUSH1 0x40 MSTORE DUP1 DUP6 DUP2 MSTORE PUSH1 0x20 ADD DUP5 DUP2 MSTORE POP PUSH1 0x40 MLOAD PUSH2 0xB49 SWAP2 SWAP1 PUSH2 0x1DBB JUMP JUMPDEST PUSH1 0x40 MLOAD DUP1 SWAP2 SUB SWAP1 LOG2 POP POP PUSH1 0x8 DUP1 SLOAD PUSH1 0x1 PUSH1 0x1 PUSH1 0xA0 SHL SUB NOT AND SWAP1 SSTORE POP POP POP POP POP JUMP JUMPDEST PUSH1 0x0 PUSH2 0xB77 DUP5 DUP5 DUP5 PUSH2 0x1100 JUMP JUMPDEST PUSH1 0x1 PUSH1 0x1 PUSH1 0xA0 SHL SUB DUP5 AND PUSH1 0x0 SWAP1 DUP2 MSTORE PUSH1 0x2 PUSH1 0x20 SWAP1 DUP2 MSTORE PUSH1 0x40 DUP1 DUP4 KECCAK256 CALLER DUP5 MSTORE SWAP1 SWAP2 MSTORE SWAP1 KECCAK256 SLOAD DUP3 DUP2 LT ISZERO PUSH2 0xBFC JUMPI PUSH1 0x40 MLOAD PUSH3 0x461BCD PUSH1 0xE5 SHL DUP2 MSTORE PUSH1 0x20 PUSH1 0x4 DUP3 ADD MSTORE PUSH1 0x28 PUSH1 0x24 DUP3 ADD MSTORE PUSH32 0x45524332303A207472616E7366657220616D6F756E7420657863656564732061 PUSH1 0x44 DUP3 ADD MSTORE PUSH8 0x6C6C6F77616E6365 PUSH1 0xC0 SHL PUSH1 0x64 DUP3 ADD MSTORE PUSH1 0x84 ADD PUSH2 0x5B8 JUMP JUMPDEST PUSH2 0xC09 DUP6 CALLER DUP6 DUP5 SUB PUSH2 0x1338 JUMP JUMPDEST PUSH1 0x1 SWAP2 POP POP JUMPDEST SWAP4 SWAP3 POP POP POP JUMP JUMPDEST PUSH1 0x0 DUP1 JUMPDEST PUSH1 0x8 DUP2 LT ISZERO PUSH2 0xC79 JUMPI DUP4 DUP2 PUSH1 0x8 DUP2 LT PUSH2 0xC35 JUMPI PUSH2 0xC35 PUSH2 0x1E05 JUMP JUMPDEST PUSH1 0x20 MUL ADD MLOAD PUSH4 0xFFFFFFFF AND DUP4 PUSH4 0xFFFFFFFF AND LT ISZERO PUSH2 0xC67 JUMPI DUP1 PUSH1 0x8 DUP2 GT ISZERO PUSH2 0xC5F JUMPI PUSH2 0xC5F PUSH2 0x1A9E JUMP JUMPDEST SWAP2 POP POP PUSH2 0x783 JUMP JUMPDEST DUP1 PUSH2 0xC71 DUP2 PUSH2 0x1E1B JUMP JUMPDEST SWAP2 POP POP PUSH2 0xC1A JUMP JUMPDEST POP PUSH1 0x8 SWAP4 SWAP3 POP POP POP JUMP JUMPDEST CALLER PUSH1 0x0 DUP2 DUP2 MSTORE PUSH1 0x2 PUSH1 0x20 SWAP1 DUP2 MSTORE PUSH1 0x40 DUP1 DUP4 KECCAK256 PUSH1 0x1 PUSH1 0x1 PUSH1 0xA0 SHL SUB DUP8 AND DUP5 MSTORE SWAP1 SWAP2 MSTORE DUP2 KECCAK256 SLOAD SWAP1 SWAP2 PUSH2 0x77F SWAP2 DUP6 SWAP1 PUSH2 0xCBA SWAP1 DUP7 SWAP1 PUSH2 0x1D84 JUMP JUMPDEST PUSH2 0x1338 JUMP JUMPDEST PUSH1 0x0 DUP1 DUP3 PUSH1 0x8 DUP2 GT ISZERO PUSH2 0xCD4 JUMPI PUSH2 0xCD4 PUSH2 0x1A9E JUMP JUMPDEST GT PUSH2 0xCE0 JUMPI PUSH1 0x0 PUSH2 0xC0F JUMP JUMPDEST DUP3 PUSH1 0x1 DUP4 PUSH1 0x8 DUP2 GT ISZERO PUSH2 0xCF5 JUMPI PUSH2 0xCF5 PUSH2 0x1A9E JUMP JUMPDEST PUSH2 0xCFF SWAP2 SWAP1 PUSH2 0x1E36 JUMP JUMPDEST PUSH1 0x8 DUP2 LT PUSH2 0xD0F JUMPI PUSH2 0xD0F PUSH2 0x1E05 JUMP JUMPDEST PUSH1 0x20 MUL ADD PUSH1 0x20 DUP2 ADD SWAP1 PUSH2 0xC0F SWAP2 SWAP1 PUSH2 0x1E4D JUMP JUMPDEST PUSH1 0x0 SLOAD PUSH1 0x1 PUSH1 0x1 PUSH1 0xA0 SHL SUB AND CALLER EQ PUSH2 0xD7C JUMPI PUSH1 0x40 MLOAD PUSH3 0x461BCD PUSH1 0xE5 SHL DUP2 MSTORE PUSH1 0x20 PUSH1 0x4 DUP3 ADD DUP2 SWAP1 MSTORE PUSH1 0x24 DUP3 ADD MSTORE PUSH32 0x4F776E61626C653A2063616C6C6572206973206E6F7420746865206F776E6572 PUSH1 0x44 DUP3 ADD MSTORE PUSH1 0x64 ADD PUSH2 0x5B8 JUMP JUMPDEST PUSH2 0xD86 PUSH1 0x0 PUSH2 0x1657 JUMP JUMPDEST JUMP JUMPDEST PUSH1 0x60 PUSH1 0x5 DUP1 SLOAD PUSH2 0x4FC SWAP1 PUSH2 0x1D10 JUMP JUMPDEST PUSH1 0x6 DUP2 PUSH1 0x8 DUP2 LT PUSH2 0xDA7 JUMPI PUSH1 0x0 DUP1 REVERT JUMPDEST PUSH1 0x8 SWAP2 DUP3 DUP3 DIV ADD SWAP2 SWAP1 MOD PUSH1 0x4 MUL SWAP2 POP SLOAD SWAP1 PUSH2 0x100 EXP SWAP1 DIV PUSH4 0xFFFFFFFF AND DUP2 JUMP JUMPDEST CALLER PUSH1 0x0 SWAP1 DUP2 MSTORE PUSH1 0x2 PUSH1 0x20 SWAP1 DUP2 MSTORE PUSH1 0x40 DUP1 DUP4 KECCAK256 PUSH1 0x1 PUSH1 0x1 PUSH1 0xA0 SHL SUB DUP7 AND DUP5 MSTORE SWAP1 SWAP2 MSTORE DUP2 KECCAK256 SLOAD DUP3 DUP2 LT ISZERO PUSH2 0xE49 JUMPI PUSH1 0x40 MLOAD PUSH3 0x461BCD PUSH1 0xE5 SHL DUP2 MSTORE PUSH1 0x20 PUSH1 0x4 DUP3 ADD MSTORE PUSH1 0x25 PUSH1 0x24 DUP3 ADD MSTORE PUSH32 0x45524332303A2064656372656173656420616C6C6F77616E63652062656C6F77 PUSH1 0x44 DUP3 ADD MSTORE PUSH5 0x207A65726F PUSH1 0xD8 SHL PUSH1 0x64 DUP3 ADD MSTORE PUSH1 0x84 ADD PUSH2 0x5B8 JUMP JUMPDEST PUSH2 0xE56 CALLER DUP6 DUP6 DUP5 SUB PUSH2 0x1338 JUMP JUMPDEST POP PUSH1 0x1 SWAP4 SWAP3 POP POP POP JUMP JUMPDEST PUSH1 0x0 PUSH2 0x77F CALLER DUP5 DUP5 PUSH2 0x1100 JUMP JUMPDEST PUSH1 0x1 DUP1 PUSH2 0xE78 PUSH2 0x482 JUMP JUMPDEST PUSH1 0x8 DUP2 GT ISZERO PUSH2 0xE89 JUMPI PUSH2 0xE89 PUSH2 0x1A9E JUMP JUMPDEST EQ PUSH2 0xEA6 JUMPI PUSH1 0x40 MLOAD PUSH3 0x461BCD PUSH1 0xE5 SHL DUP2 MSTORE PUSH1 0x4 ADD PUSH2 0x5B8 SWAP1 PUSH2 0x1D4B JUMP JUMPDEST PUSH1 0x0 PUSH2 0xEB1 PUSH1 0x3 SLOAD SWAP1 JUMP JUMPDEST SWAP1 POP PUSH2 0xEBD CALLER DUP5 PUSH2 0x16A7 JUMP JUMPDEST PUSH1 0x40 MLOAD PUSH4 0x70A08231 PUSH1 0xE0 SHL DUP2 MSTORE ADDRESS PUSH1 0x4 DUP3 ADD MSTORE PUSH1 0x0 SWAP1 PUSH32 0x0 PUSH1 0x1 PUSH1 0x1 PUSH1 0xA0 SHL SUB AND SWAP1 PUSH4 0x70A08231 SWAP1 PUSH1 0x24 ADD PUSH1 0x20 PUSH1 0x40 MLOAD DUP1 DUP4 SUB DUP2 DUP7 GAS STATICCALL ISZERO DUP1 ISZERO PUSH2 0xF24 JUMPI RETURNDATASIZE PUSH1 0x0 DUP1 RETURNDATACOPY RETURNDATASIZE PUSH1 0x0 REVERT JUMPDEST POP POP POP POP PUSH1 0x40 MLOAD RETURNDATASIZE PUSH1 0x1F NOT PUSH1 0x1F DUP3 ADD AND DUP3 ADD DUP1 PUSH1 0x40 MSTORE POP DUP2 ADD SWAP1 PUSH2 0xF48 SWAP2 SWAP1 PUSH2 0x1DEC JUMP JUMPDEST SWAP1 POP PUSH1 0x0 DUP2 GT PUSH2 0xF8C JUMPI PUSH1 0x40 MLOAD PUSH3 0x461BCD PUSH1 0xE5 SHL DUP2 MSTORE PUSH1 0x20 PUSH1 0x4 DUP3 ADD MSTORE PUSH1 0xF PUSH1 0x24 DUP3 ADD MSTORE PUSH15 0x524553455256455F42414C414E4345 PUSH1 0x88 SHL PUSH1 0x44 DUP3 ADD MSTORE PUSH1 0x64 ADD PUSH2 0x5B8 JUMP JUMPDEST PUSH1 0x0 DUP3 PUSH2 0xF99 DUP4 DUP8 PUSH2 0x1D9C JUMP JUMPDEST PUSH2 0xFA3 SWAP2 SWAP1 PUSH2 0x1E68 JUMP JUMPDEST SWAP1 POP CALLER PUSH1 0x1 PUSH1 0x1 PUSH1 0xA0 SHL SUB AND PUSH32 0xDBB205DB698E6B34158CDFF6FBA75AD516EB88DCAEA40BAC07CA663283CF3508 PUSH1 0x40 MLOAD DUP1 PUSH1 0x40 ADD PUSH1 0x40 MSTORE DUP1 DUP9 DUP2 MSTORE PUSH1 0x20 ADD DUP5 DUP2 MSTORE POP PUSH1 0x40 MLOAD PUSH2 0xFF2 SWAP2 SWAP1 PUSH2 0x1DBB JUMP JUMPDEST PUSH1 0x40 MLOAD DUP1 SWAP2 SUB SWAP1 LOG2 PUSH2 0x102E PUSH1 0x1 PUSH1 0x1 PUSH1 0xA0 SHL SUB PUSH32 0x0 AND CALLER DUP4 PUSH2 0x12D0 JUMP JUMPDEST POP POP POP POP POP JUMP JUMPDEST PUSH1 0x0 SLOAD PUSH1 0x1 PUSH1 0x1 PUSH1 0xA0 SHL SUB AND CALLER EQ PUSH2 0x108F JUMPI PUSH1 0x40 MLOAD PUSH3 0x461BCD PUSH1 0xE5 SHL DUP2 MSTORE PUSH1 0x20 PUSH1 0x4 DUP3 ADD DUP2 SWAP1 MSTORE PUSH1 0x24 DUP3 ADD MSTORE PUSH32 0x4F776E61626C653A2063616C6C6572206973206E6F7420746865206F776E6572 PUSH1 0x44 DUP3 ADD MSTORE PUSH1 0x64 ADD PUSH2 0x5B8 JUMP JUMPDEST PUSH1 0x1 PUSH1 0x1 PUSH1 0xA0 SHL SUB DUP2 AND PUSH2 0x10F4 JUMPI PUSH1 0x40 MLOAD PUSH3 0x461BCD PUSH1 0xE5 SHL DUP2 MSTORE PUSH1 0x20 PUSH1 0x4 DUP3 ADD MSTORE PUSH1 0x26 PUSH1 0x24 DUP3 ADD MSTORE PUSH32 0x4F776E61626C653A206E6577206F776E657220697320746865207A65726F2061 PUSH1 0x44 DUP3 ADD MSTORE PUSH6 0x646472657373 PUSH1 0xD0 SHL PUSH1 0x64 DUP3 ADD MSTORE PUSH1 0x84 ADD PUSH2 0x5B8 JUMP JUMPDEST PUSH2 0x10FD DUP2 PUSH2 0x1657 JUMP JUMPDEST POP JUMP JUMPDEST PUSH1 0x1 PUSH1 0x1 PUSH1 0xA0 SHL SUB DUP4 AND PUSH2 0x1164 JUMPI PUSH1 0x40 MLOAD PUSH3 0x461BCD PUSH1 0xE5 SHL DUP2 MSTORE PUSH1 0x20 PUSH1 0x4 DUP3 ADD MSTORE PUSH1 0x25 PUSH1 0x24 DUP3 ADD MSTORE PUSH32 0x45524332303A207472616E736665722066726F6D20746865207A65726F206164 PUSH1 0x44 DUP3 ADD MSTORE PUSH5 0x6472657373 PUSH1 0xD8 SHL PUSH1 0x64 DUP3 ADD MSTORE PUSH1 0x84 ADD PUSH2 0x5B8 JUMP JUMPDEST PUSH1 0x1 PUSH1 0x1 PUSH1 0xA0 SHL SUB DUP3 AND PUSH2 0x11C6 JUMPI PUSH1 0x40 MLOAD PUSH3 0x461BCD PUSH1 0xE5 SHL DUP2 MSTORE PUSH1 0x20 PUSH1 0x4 DUP3 ADD MSTORE PUSH1 0x23 PUSH1 0x24 DUP3 ADD MSTORE PUSH32 0x45524332303A207472616E7366657220746F20746865207A65726F2061646472 PUSH1 0x44 DUP3 ADD MSTORE PUSH3 0x657373 PUSH1 0xE8 SHL PUSH1 0x64 DUP3 ADD MSTORE PUSH1 0x84 ADD PUSH2 0x5B8 JUMP JUMPDEST PUSH1 0x1 PUSH1 0x1 PUSH1 0xA0 SHL SUB DUP4 AND PUSH1 0x0 SWAP1 DUP2 MSTORE PUSH1 0x1 PUSH1 0x20 MSTORE PUSH1 0x40 SWAP1 KECCAK256 SLOAD DUP2 DUP2 LT ISZERO PUSH2 0x123E JUMPI PUSH1 0x40 MLOAD PUSH3 0x461BCD PUSH1 0xE5 SHL DUP2 MSTORE PUSH1 0x20 PUSH1 0x4 DUP3 ADD MSTORE PUSH1 0x26 PUSH1 0x24 DUP3 ADD MSTORE PUSH32 0x45524332303A207472616E7366657220616D6F756E7420657863656564732062 PUSH1 0x44 DUP3 ADD MSTORE PUSH6 0x616C616E6365 PUSH1 0xD0 SHL PUSH1 0x64 DUP3 ADD MSTORE PUSH1 0x84 ADD PUSH2 0x5B8 JUMP JUMPDEST PUSH1 0x1 PUSH1 0x1 PUSH1 0xA0 SHL SUB DUP1 DUP6 AND PUSH1 0x0 SWAP1 DUP2 MSTORE PUSH1 0x1 PUSH1 0x20 MSTORE PUSH1 0x40 DUP1 DUP3 KECCAK256 DUP6 DUP6 SUB SWAP1 SSTORE SWAP2 DUP6 AND DUP2 MSTORE SWAP1 DUP2 KECCAK256 DUP1 SLOAD DUP5 SWAP3 SWAP1 PUSH2 0x1275 SWAP1 DUP5 SWAP1 PUSH2 0x1D84 JUMP JUMPDEST SWAP3 POP POP DUP2 SWAP1 SSTORE POP DUP3 PUSH1 0x1 PUSH1 0x1 PUSH1 0xA0 SHL SUB AND DUP5 PUSH1 0x1 PUSH1 0x1 PUSH1 0xA0 SHL SUB AND PUSH32 0xDDF252AD1BE2C89B69C2B068FC378DAA952BA7F163C4A11628F55A4DF523B3EF DUP5 PUSH1 0x40 MLOAD PUSH2 0x12C1 SWAP2 DUP2 MSTORE PUSH1 0x20 ADD SWAP1 JUMP JUMPDEST PUSH1 0x40 MLOAD DUP1 SWAP2 SUB SWAP1 LOG3 JUMPDEST POP POP POP POP JUMP JUMPDEST PUSH1 0x40 MLOAD PUSH1 0x1 PUSH1 0x1 PUSH1 0xA0 SHL SUB DUP4 AND PUSH1 0x24 DUP3 ADD MSTORE PUSH1 0x44 DUP2 ADD DUP3 SWAP1 MSTORE PUSH2 0x1333 SWAP1 DUP5 SWAP1 PUSH4 0xA9059CBB PUSH1 0xE0 SHL SWAP1 PUSH1 0x64 ADD JUMPDEST PUSH1 0x40 DUP1 MLOAD PUSH1 0x1F NOT DUP2 DUP5 SUB ADD DUP2 MSTORE SWAP2 SWAP1 MSTORE PUSH1 0x20 DUP2 ADD DUP1 MLOAD PUSH1 0x1 PUSH1 0x1 PUSH1 0xE0 SHL SUB AND PUSH1 0x1 PUSH1 0x1 PUSH1 0xE0 SHL SUB NOT SWAP1 SWAP4 AND SWAP3 SWAP1 SWAP3 OR SWAP1 SWAP2 MSTORE PUSH2 0x17F5 JUMP JUMPDEST POP POP POP JUMP JUMPDEST PUSH1 0x1 PUSH1 0x1 PUSH1 0xA0 SHL SUB DUP4 AND PUSH2 0x139A JUMPI PUSH1 0x40 MLOAD PUSH3 0x461BCD PUSH1 0xE5 SHL DUP2 MSTORE PUSH1 0x20 PUSH1 0x4 DUP3 ADD MSTORE PUSH1 0x24 DUP1 DUP3 ADD MSTORE PUSH32 0x45524332303A20617070726F76652066726F6D20746865207A65726F20616464 PUSH1 0x44 DUP3 ADD MSTORE PUSH4 0x72657373 PUSH1 0xE0 SHL PUSH1 0x64 DUP3 ADD MSTORE PUSH1 0x84 ADD PUSH2 0x5B8 JUMP JUMPDEST PUSH1 0x1 PUSH1 0x1 PUSH1 0xA0 SHL SUB DUP3 AND PUSH2 0x13FB JUMPI PUSH1 0x40 MLOAD PUSH3 0x461BCD PUSH1 0xE5 SHL DUP2 MSTORE PUSH1 0x20 PUSH1 0x4 DUP3 ADD MSTORE PUSH1 0x22 PUSH1 0x24 DUP3 ADD MSTORE PUSH32 0x45524332303A20617070726F766520746F20746865207A65726F206164647265 PUSH1 0x44 DUP3 ADD MSTORE PUSH2 0x7373 PUSH1 0xF0 SHL PUSH1 0x64 DUP3 ADD MSTORE PUSH1 0x84 ADD PUSH2 0x5B8 JUMP JUMPDEST PUSH1 0x1 PUSH1 0x1 PUSH1 0xA0 SHL SUB DUP4 DUP2 AND PUSH1 0x0 DUP2 DUP2 MSTORE PUSH1 0x2 PUSH1 0x20 SWAP1 DUP2 MSTORE PUSH1 0x40 DUP1 DUP4 KECCAK256 SWAP5 DUP8 AND DUP1 DUP5 MSTORE SWAP5 DUP3 MSTORE SWAP2 DUP3 SWAP1 KECCAK256 DUP6 SWAP1 SSTORE SWAP1 MLOAD DUP5 DUP2 MSTORE PUSH32 0x8C5BE1E5EBEC7D5BD14F71427D1E84F3DD0314C0F7B2291E5B200AC8C7C3B925 SWAP2 ADD PUSH1 0x40 MLOAD DUP1 SWAP2 SUB SWAP1 LOG3 POP POP POP JUMP JUMPDEST PUSH1 0x0 DUP2 DUP4 LT PUSH2 0x146B JUMPI DUP2 PUSH2 0xC0F JUMP JUMPDEST POP SWAP1 SWAP2 SWAP1 POP JUMP JUMPDEST DUP1 PUSH4 0xFFFFFFFF AND NUMBER PUSH4 0xFFFFFFFF AND GT ISZERO PUSH2 0x14C0 JUMPI PUSH1 0x40 MLOAD PUSH3 0x461BCD PUSH1 0xE5 SHL DUP2 MSTORE PUSH1 0x20 PUSH1 0x4 DUP3 ADD MSTORE PUSH1 0xF PUSH1 0x24 DUP3 ADD MSTORE PUSH15 0x1391561517D09313D0D2D7D41054D5 PUSH1 0x8A SHL PUSH1 0x44 DUP3 ADD MSTORE PUSH1 0x64 ADD PUSH2 0x5B8 JUMP JUMPDEST PUSH4 0xFFFFFFFF DUP2 DUP2 AND LT PUSH2 0x1515 JUMPI PUSH1 0x40 MLOAD PUSH3 0x461BCD PUSH1 0xE5 SHL DUP2 MSTORE PUSH1 0x20 PUSH1 0x4 DUP3 ADD MSTORE PUSH1 0x18 PUSH1 0x24 DUP3 ADD MSTORE PUSH32 0x4E4558545F424C4F434B5F554E494E495449414C495A45440000000000000000 PUSH1 0x44 DUP3 ADD MSTORE PUSH1 0x64 ADD PUSH2 0x5B8 JUMP JUMPDEST PUSH1 0x0 PUSH2 0x151F PUSH2 0x482 JUMP JUMPDEST PUSH1 0x8 DUP2 GT ISZERO PUSH2 0x1530 JUMPI PUSH2 0x1530 PUSH2 0x1A9E JUMP JUMPDEST SWAP1 POP PUSH1 0x6 DUP2 PUSH1 0x8 DUP2 LT PUSH2 0x1545 JUMPI PUSH2 0x1545 PUSH2 0x1E05 JUMP JUMPDEST PUSH1 0x8 DUP2 DIV SWAP2 SWAP1 SWAP2 ADD SLOAD PUSH1 0x7 SWAP1 SWAP2 AND PUSH1 0x4 MUL PUSH2 0x100 EXP SWAP1 DIV PUSH4 0xFFFFFFFF SWAP1 DUP2 AND EQ PUSH2 0x15A2 JUMPI PUSH1 0x40 MLOAD PUSH3 0x461BCD PUSH1 0xE5 SHL DUP2 MSTORE PUSH1 0x20 PUSH1 0x4 DUP3 ADD MSTORE PUSH1 0xE PUSH1 0x24 DUP3 ADD MSTORE PUSH14 0x1391561517D09313D0D2D7D4D155 PUSH1 0x92 SHL PUSH1 0x44 DUP3 ADD MSTORE PUSH1 0x64 ADD PUSH2 0x5B8 JUMP JUMPDEST PUSH2 0x15AB DUP3 PUSH2 0x18C7 JUMP JUMPDEST DUP2 PUSH1 0x6 DUP3 PUSH1 0x8 DUP2 LT PUSH2 0x15BF JUMPI PUSH2 0x15BF PUSH2 0x1E05 JUMP JUMPDEST PUSH1 0x8 SWAP2 DUP3 DUP3 DIV ADD SWAP2 SWAP1 MOD PUSH1 0x4 MUL PUSH2 0x100 EXP DUP2 SLOAD DUP2 PUSH4 0xFFFFFFFF MUL NOT AND SWAP1 DUP4 PUSH4 0xFFFFFFFF AND MUL OR SWAP1 SSTORE POP DUP2 PUSH4 0xFFFFFFFF AND PUSH32 0x260AAC5B840EDC27B89FDF50E91311A413363A400959466E1049E6D071B8CEE2 PUSH1 0x40 MLOAD PUSH1 0x40 MLOAD DUP1 SWAP2 SUB SWAP1 LOG2 POP POP JUMP JUMPDEST PUSH1 0x40 MLOAD PUSH1 0x1 PUSH1 0x1 PUSH1 0xA0 SHL SUB DUP1 DUP6 AND PUSH1 0x24 DUP4 ADD MSTORE DUP4 AND PUSH1 0x44 DUP3 ADD MSTORE PUSH1 0x64 DUP2 ADD DUP3 SWAP1 MSTORE PUSH2 0x12CA SWAP1 DUP6 SWAP1 PUSH4 0x23B872DD PUSH1 0xE0 SHL SWAP1 PUSH1 0x84 ADD PUSH2 0x12FC JUMP JUMPDEST PUSH1 0x0 DUP1 SLOAD PUSH1 0x1 PUSH1 0x1 PUSH1 0xA0 SHL SUB DUP4 DUP2 AND PUSH1 0x1 PUSH1 0x1 PUSH1 0xA0 SHL SUB NOT DUP4 AND DUP2 OR DUP5 SSTORE PUSH1 0x40 MLOAD SWAP2 SWAP1 SWAP3 AND SWAP3 DUP4 SWAP2 PUSH32 0x8BE0079C531659141344CD1FD0A4F28419497F9722A3DAAFE3B4186F6B6457E0 SWAP2 SWAP1 LOG3 POP POP JUMP JUMPDEST PUSH1 0x1 PUSH1 0x1 PUSH1 0xA0 SHL SUB DUP3 AND PUSH2 0x1707 JUMPI PUSH1 0x40 MLOAD PUSH3 0x461BCD PUSH1 0xE5 SHL DUP2 MSTORE PUSH1 0x20 PUSH1 0x4 DUP3 ADD MSTORE PUSH1 0x21 PUSH1 0x24 DUP3 ADD MSTORE PUSH32 0x45524332303A206275726E2066726F6D20746865207A65726F20616464726573 PUSH1 0x44 DUP3 ADD MSTORE PUSH1 0x73 PUSH1 0xF8 SHL PUSH1 0x64 DUP3 ADD MSTORE PUSH1 0x84 ADD PUSH2 0x5B8 JUMP JUMPDEST PUSH1 0x1 PUSH1 0x1 PUSH1 0xA0 SHL SUB DUP3 AND PUSH1 0x0 SWAP1 DUP2 MSTORE PUSH1 0x1 PUSH1 0x20 MSTORE PUSH1 0x40 SWAP1 KECCAK256 SLOAD DUP2 DUP2 LT ISZERO PUSH2 0x177B JUMPI PUSH1 0x40 MLOAD PUSH3 0x461BCD PUSH1 0xE5 SHL DUP2 MSTORE PUSH1 0x20 PUSH1 0x4 DUP3 ADD MSTORE PUSH1 0x22 PUSH1 0x24 DUP3 ADD MSTORE PUSH32 0x45524332303A206275726E20616D6F756E7420657863656564732062616C616E PUSH1 0x44 DUP3 ADD MSTORE PUSH2 0x6365 PUSH1 0xF0 SHL PUSH1 0x64 DUP3 ADD MSTORE PUSH1 0x84 ADD PUSH2 0x5B8 JUMP JUMPDEST PUSH1 0x1 PUSH1 0x1 PUSH1 0xA0 SHL SUB DUP4 AND PUSH1 0x0 SWAP1 DUP2 MSTORE PUSH1 0x1 PUSH1 0x20 MSTORE PUSH1 0x40 DUP2 KECCAK256 DUP4 DUP4 SUB SWAP1 SSTORE PUSH1 0x3 DUP1 SLOAD DUP5 SWAP3 SWAP1 PUSH2 0x17AA SWAP1 DUP5 SWAP1 PUSH2 0x1E36 JUMP JUMPDEST SWAP1 SWAP2 SSTORE POP POP PUSH1 0x40 MLOAD DUP3 DUP2 MSTORE PUSH1 0x0 SWAP1 PUSH1 0x1 PUSH1 0x1 PUSH1 0xA0 SHL SUB DUP6 AND SWAP1 PUSH32 0xDDF252AD1BE2C89B69C2B068FC378DAA952BA7F163C4A11628F55A4DF523B3EF SWAP1 PUSH1 0x20 ADD PUSH1 0x40 MLOAD DUP1 SWAP2 SUB SWAP1 LOG3 POP POP POP JUMP JUMPDEST PUSH1 0x0 PUSH2 0x184A DUP3 PUSH1 0x40 MLOAD DUP1 PUSH1 0x40 ADD PUSH1 0x40 MSTORE DUP1 PUSH1 0x20 DUP2 MSTORE PUSH1 0x20 ADD PUSH32 0x5361666545524332303A206C6F772D6C6576656C2063616C6C206661696C6564 DUP2 MSTORE POP DUP6 PUSH1 0x1 PUSH1 0x1 PUSH1 0xA0 SHL SUB AND PUSH2 0x18EF SWAP1 SWAP3 SWAP2 SWAP1 PUSH4 0xFFFFFFFF AND JUMP JUMPDEST DUP1 MLOAD SWAP1 SWAP2 POP ISZERO PUSH2 0x1333 JUMPI DUP1 DUP1 PUSH1 0x20 ADD SWAP1 MLOAD DUP2 ADD SWAP1 PUSH2 0x1868 SWAP2 SWAP1 PUSH2 0x1E8A JUMP JUMPDEST PUSH2 0x1333 JUMPI PUSH1 0x40 MLOAD PUSH3 0x461BCD PUSH1 0xE5 SHL DUP2 MSTORE PUSH1 0x20 PUSH1 0x4 DUP3 ADD MSTORE PUSH1 0x2A PUSH1 0x24 DUP3 ADD MSTORE PUSH32 0x5361666545524332303A204552433230206F7065726174696F6E20646964206E PUSH1 0x44 DUP3 ADD MSTORE PUSH10 0x1BDD081CDD58D8D95959 PUSH1 0xB2 SHL PUSH1 0x64 DUP3 ADD MSTORE PUSH1 0x84 ADD PUSH2 0x5B8 JUMP JUMPDEST PUSH1 0x1 PUSH2 0x18D1 PUSH2 0x482 JUMP JUMPDEST PUSH1 0x8 DUP2 GT ISZERO PUSH2 0x18E2 JUMPI PUSH2 0x18E2 PUSH2 0x1A9E JUMP JUMPDEST LT PUSH2 0x10FD JUMPI PUSH2 0x10FD PUSH2 0x1EAC JUMP JUMPDEST PUSH1 0x60 PUSH2 0x18FE DUP5 DUP5 PUSH1 0x0 DUP6 PUSH2 0x1906 JUMP JUMPDEST SWAP5 SWAP4 POP POP POP POP JUMP JUMPDEST PUSH1 0x60 DUP3 SELFBALANCE LT ISZERO PUSH2 0x1967 JUMPI PUSH1 0x40 MLOAD PUSH3 0x461BCD PUSH1 0xE5 SHL DUP2 MSTORE PUSH1 0x20 PUSH1 0x4 DUP3 ADD MSTORE PUSH1 0x26 PUSH1 0x24 DUP3 ADD MSTORE PUSH32 0x416464726573733A20696E73756666696369656E742062616C616E636520666F PUSH1 0x44 DUP3 ADD MSTORE PUSH6 0x1C8818D85B1B PUSH1 0xD2 SHL PUSH1 0x64 DUP3 ADD MSTORE PUSH1 0x84 ADD PUSH2 0x5B8 JUMP JUMPDEST DUP5 EXTCODESIZE PUSH2 0x19B5 JUMPI PUSH1 0x40 MLOAD PUSH3 0x461BCD PUSH1 0xE5 SHL DUP2 MSTORE PUSH1 0x20 PUSH1 0x4 DUP3 ADD MSTORE PUSH1 0x1D PUSH1 0x24 DUP3 ADD MSTORE PUSH32 0x416464726573733A2063616C6C20746F206E6F6E2D636F6E7472616374000000 PUSH1 0x44 DUP3 ADD MSTORE PUSH1 0x64 ADD PUSH2 0x5B8 JUMP JUMPDEST PUSH1 0x0 DUP1 DUP7 PUSH1 0x1 PUSH1 0x1 PUSH1 0xA0 SHL SUB AND DUP6 DUP8 PUSH1 0x40 MLOAD PUSH2 0x19D1 SWAP2 SWAP1 PUSH2 0x1EC2 JUMP JUMPDEST PUSH1 0x0 PUSH1 0x40 MLOAD DUP1 DUP4 SUB DUP2 DUP6 DUP8 GAS CALL SWAP3 POP POP POP RETURNDATASIZE DUP1 PUSH1 0x0 DUP2 EQ PUSH2 0x1A0E JUMPI PUSH1 0x40 MLOAD SWAP2 POP PUSH1 0x1F NOT PUSH1 0x3F RETURNDATASIZE ADD AND DUP3 ADD PUSH1 0x40 MSTORE RETURNDATASIZE DUP3 MSTORE RETURNDATASIZE PUSH1 0x0 PUSH1 0x20 DUP5 ADD RETURNDATACOPY PUSH2 0x1A13 JUMP JUMPDEST PUSH1 0x60 SWAP2 POP JUMPDEST POP SWAP2 POP SWAP2 POP PUSH2 0x1A23 DUP3 DUP3 DUP7 PUSH2 0x1A2E JUMP JUMPDEST SWAP8 SWAP7 POP POP POP POP POP POP POP JUMP JUMPDEST PUSH1 0x60 DUP4 ISZERO PUSH2 0x1A3D JUMPI POP DUP2 PUSH2 0xC0F JUMP JUMPDEST DUP3 MLOAD ISZERO PUSH2 0x1A4D JUMPI DUP3 MLOAD DUP1 DUP5 PUSH1 0x20 ADD REVERT JUMPDEST DUP2 PUSH1 0x40 MLOAD PUSH3 0x461BCD PUSH1 0xE5 SHL DUP2 MSTORE PUSH1 0x4 ADD PUSH2 0x5B8 SWAP2 SWAP1 PUSH2 0x1B08 JUMP JUMPDEST DUP1 CALLDATALOAD PUSH1 0x1 PUSH1 0x1 PUSH1 0xA0 SHL SUB DUP2 AND DUP2 EQ PUSH2 0x1A7E JUMPI PUSH1 0x0 DUP1 REVERT JUMPDEST SWAP2 SWAP1 POP JUMP JUMPDEST PUSH1 0x0 PUSH1 0x20 DUP3 DUP5 SUB SLT ISZERO PUSH2 0x1A95 JUMPI PUSH1 0x0 DUP1 REVERT JUMPDEST PUSH2 0xC0F DUP3 PUSH2 0x1A67 JUMP JUMPDEST PUSH4 0x4E487B71 PUSH1 0xE0 SHL PUSH1 0x0 MSTORE PUSH1 0x21 PUSH1 0x4 MSTORE PUSH1 0x24 PUSH1 0x0 REVERT JUMPDEST PUSH1 0x20 DUP2 ADD PUSH1 0x9 DUP4 LT PUSH2 0x1AD6 JUMPI PUSH4 0x4E487B71 PUSH1 0xE0 SHL PUSH1 0x0 MSTORE PUSH1 0x21 PUSH1 0x4 MSTORE PUSH1 0x24 PUSH1 0x0 REVERT JUMPDEST SWAP2 SWAP1 MSTORE SWAP1 JUMP JUMPDEST PUSH1 0x0 JUMPDEST DUP4 DUP2 LT ISZERO PUSH2 0x1AF7 JUMPI DUP2 DUP2 ADD MLOAD DUP4 DUP3 ADD MSTORE PUSH1 0x20 ADD PUSH2 0x1ADF JUMP JUMPDEST DUP4 DUP2 GT ISZERO PUSH2 0x12CA JUMPI POP POP PUSH1 0x0 SWAP2 ADD MSTORE JUMP JUMPDEST PUSH1 0x20 DUP2 MSTORE PUSH1 0x0 DUP3 MLOAD DUP1 PUSH1 0x20 DUP5 ADD MSTORE PUSH2 0x1B27 DUP2 PUSH1 0x40 DUP6 ADD PUSH1 0x20 DUP8 ADD PUSH2 0x1ADC JUMP JUMPDEST PUSH1 0x1F ADD PUSH1 0x1F NOT AND SWAP2 SWAP1 SWAP2 ADD PUSH1 0x40 ADD SWAP3 SWAP2 POP POP JUMP JUMPDEST PUSH1 0x0 PUSH1 0x20 DUP3 DUP5 SUB SLT ISZERO PUSH2 0x1B4D JUMPI PUSH1 0x0 DUP1 REVERT JUMPDEST POP CALLDATALOAD SWAP2 SWAP1 POP JUMP JUMPDEST PUSH1 0x0 DUP1 PUSH1 0x40 DUP4 DUP6 SUB SLT ISZERO PUSH2 0x1B67 JUMPI PUSH1 0x0 DUP1 REVERT JUMPDEST PUSH2 0x1B70 DUP4 PUSH2 0x1A67 JUMP JUMPDEST SWAP5 PUSH1 0x20 SWAP4 SWAP1 SWAP4 ADD CALLDATALOAD SWAP4 POP POP POP JUMP JUMPDEST PUSH1 0x0 DUP1 PUSH1 0x40 DUP4 DUP6 SUB SLT ISZERO PUSH2 0x1B91 JUMPI PUSH1 0x0 DUP1 REVERT JUMPDEST POP POP DUP1 CALLDATALOAD SWAP3 PUSH1 0x20 SWAP1 SWAP2 ADD CALLDATALOAD SWAP2 POP JUMP JUMPDEST PUSH1 0x0 DUP1 PUSH1 0x0 PUSH1 0x60 DUP5 DUP7 SUB SLT ISZERO PUSH2 0x1BB5 JUMPI PUSH1 0x0 DUP1 REVERT JUMPDEST PUSH2 0x1BBE DUP5 PUSH2 0x1A67 JUMP JUMPDEST SWAP3 POP PUSH2 0x1BCC PUSH1 0x20 DUP6 ADD PUSH2 0x1A67 JUMP JUMPDEST SWAP2 POP PUSH1 0x40 DUP5 ADD CALLDATALOAD SWAP1 POP SWAP3 POP SWAP3 POP SWAP3 JUMP JUMPDEST PUSH4 0x4E487B71 PUSH1 0xE0 SHL PUSH1 0x0 MSTORE PUSH1 0x41 PUSH1 0x4 MSTORE PUSH1 0x24 PUSH1 0x0 REVERT JUMPDEST DUP1 CALLDATALOAD PUSH4 0xFFFFFFFF DUP2 AND DUP2 EQ PUSH2 0x1A7E JUMPI PUSH1 0x0 DUP1 REVERT JUMPDEST PUSH1 0x0 DUP1 PUSH2 0x120 DUP4 DUP6 SUB SLT ISZERO PUSH2 0x1C1A JUMPI PUSH1 0x0 DUP1 REVERT JUMPDEST DUP4 PUSH1 0x1F DUP5 ADD SLT PUSH2 0x1C29 JUMPI PUSH1 0x0 DUP1 REVERT JUMPDEST PUSH1 0x40 MLOAD PUSH2 0x100 DUP1 DUP3 ADD DUP3 DUP2 LT PUSH8 0xFFFFFFFFFFFFFFFF DUP3 GT OR ISZERO PUSH2 0x1C4E JUMPI PUSH2 0x1C4E PUSH2 0x1BDC JUMP JUMPDEST PUSH1 0x40 MSTORE DUP5 ADD DUP2 DUP7 DUP3 GT ISZERO PUSH2 0x1C61 JUMPI PUSH1 0x0 DUP1 REVERT JUMPDEST DUP6 JUMPDEST DUP3 DUP2 LT ISZERO PUSH2 0x1C82 JUMPI PUSH2 0x1C74 DUP2 PUSH2 0x1BF2 JUMP JUMPDEST DUP3 MSTORE PUSH1 0x20 SWAP2 DUP3 ADD SWAP2 ADD PUSH2 0x1C63 JUMP JUMPDEST POP POP DUP2 SWAP4 POP PUSH2 0x1C90 DUP2 PUSH2 0x1BF2 JUMP JUMPDEST SWAP3 POP POP POP SWAP3 POP SWAP3 SWAP1 POP JUMP JUMPDEST PUSH1 0x0 DUP1 PUSH2 0x120 DUP4 DUP6 SUB SLT ISZERO PUSH2 0x1CAF JUMPI PUSH1 0x0 DUP1 REVERT JUMPDEST PUSH2 0x100 DUP4 ADD DUP5 DUP2 GT ISZERO PUSH2 0x1CC1 JUMPI PUSH1 0x0 DUP1 REVERT JUMPDEST DUP4 SWAP3 POP CALLDATALOAD PUSH1 0x9 DUP2 LT PUSH2 0x1CD2 JUMPI PUSH1 0x0 DUP1 REVERT JUMPDEST DUP1 SWAP2 POP POP SWAP3 POP SWAP3 SWAP1 POP JUMP JUMPDEST PUSH1 0x0 DUP1 PUSH1 0x40 DUP4 DUP6 SUB SLT ISZERO PUSH2 0x1CF0 JUMPI PUSH1 0x0 DUP1 REVERT JUMPDEST PUSH2 0x1CF9 DUP4 PUSH2 0x1A67 JUMP JUMPDEST SWAP2 POP PUSH2 0x1D07 PUSH1 0x20 DUP5 ADD PUSH2 0x1A67 JUMP JUMPDEST SWAP1 POP SWAP3 POP SWAP3 SWAP1 POP JUMP JUMPDEST PUSH1 0x1 DUP2 DUP2 SHR SWAP1 DUP3 AND DUP1 PUSH2 0x1D24 JUMPI PUSH1 0x7F DUP3 AND SWAP2 POP JUMPDEST PUSH1 0x20 DUP3 LT DUP2 EQ ISZERO PUSH2 0x1D45 JUMPI PUSH4 0x4E487B71 PUSH1 0xE0 SHL PUSH1 0x0 MSTORE PUSH1 0x22 PUSH1 0x4 MSTORE PUSH1 0x24 PUSH1 0x0 REVERT JUMPDEST POP SWAP2 SWAP1 POP JUMP JUMPDEST PUSH1 0x20 DUP1 DUP3 MSTORE PUSH1 0x9 SWAP1 DUP3 ADD MSTORE PUSH9 0x4241445F5048415345 PUSH1 0xB8 SHL PUSH1 0x40 DUP3 ADD MSTORE PUSH1 0x60 ADD SWAP1 JUMP JUMPDEST PUSH4 0x4E487B71 PUSH1 0xE0 SHL PUSH1 0x0 MSTORE PUSH1 0x11 PUSH1 0x4 MSTORE PUSH1 0x24 PUSH1 0x0 REVERT JUMPDEST PUSH1 0x0 DUP3 NOT DUP3 GT ISZERO PUSH2 0x1D97 JUMPI PUSH2 0x1D97 PUSH2 0x1D6E JUMP JUMPDEST POP ADD SWAP1 JUMP JUMPDEST PUSH1 0x0 DUP2 PUSH1 0x0 NOT DIV DUP4 GT DUP3 ISZERO ISZERO AND ISZERO PUSH2 0x1DB6 JUMPI PUSH2 0x1DB6 PUSH2 0x1D6E JUMP JUMPDEST POP MUL SWAP1 JUMP JUMPDEST PUSH1 0x40 DUP2 ADD DUP2 DUP4 PUSH1 0x0 JUMPDEST PUSH1 0x2 DUP2 LT ISZERO PUSH2 0x1DE3 JUMPI DUP2 MLOAD DUP4 MSTORE PUSH1 0x20 SWAP3 DUP4 ADD SWAP3 SWAP1 SWAP2 ADD SWAP1 PUSH1 0x1 ADD PUSH2 0x1DC4 JUMP JUMPDEST POP POP POP SWAP3 SWAP2 POP POP JUMP JUMPDEST PUSH1 0x0 PUSH1 0x20 DUP3 DUP5 SUB SLT ISZERO PUSH2 0x1DFE JUMPI PUSH1 0x0 DUP1 REVERT JUMPDEST POP MLOAD SWAP2 SWAP1 POP JUMP JUMPDEST PUSH4 0x4E487B71 PUSH1 0xE0 SHL PUSH1 0x0 MSTORE PUSH1 0x32 PUSH1 0x4 MSTORE PUSH1 0x24 PUSH1 0x0 REVERT JUMPDEST PUSH1 0x0 PUSH1 0x0 NOT DUP3 EQ ISZERO PUSH2 0x1E2F JUMPI PUSH2 0x1E2F PUSH2 0x1D6E JUMP JUMPDEST POP PUSH1 0x1 ADD SWAP1 JUMP JUMPDEST PUSH1 0x0 DUP3 DUP3 LT ISZERO PUSH2 0x1E48 JUMPI PUSH2 0x1E48 PUSH2 0x1D6E JUMP JUMPDEST POP SUB SWAP1 JUMP JUMPDEST PUSH1 0x0 PUSH1 0x20 DUP3 DUP5 SUB SLT ISZERO PUSH2 0x1E5F JUMPI PUSH1 0x0 DUP1 REVERT JUMPDEST PUSH2 0xC0F DUP3 PUSH2 0x1BF2 JUMP JUMPDEST PUSH1 0x0 DUP3 PUSH2 0x1E85 JUMPI PUSH4 0x4E487B71 PUSH1 0xE0 SHL PUSH1 0x0 MSTORE PUSH1 0x12 PUSH1 0x4 MSTORE PUSH1 0x24 PUSH1 0x0 REVERT JUMPDEST POP DIV SWAP1 JUMP JUMPDEST PUSH1 0x0 PUSH1 0x20 DUP3 DUP5 SUB SLT ISZERO PUSH2 0x1E9C JUMPI PUSH1 0x0 DUP1 REVERT JUMPDEST DUP2 MLOAD DUP1 ISZERO ISZERO DUP2 EQ PUSH2 0xC0F JUMPI PUSH1 0x0 DUP1 REVERT JUMPDEST PUSH4 0x4E487B71 PUSH1 0xE0 SHL PUSH1 0x0 MSTORE PUSH1 0x1 PUSH1 0x4 MSTORE PUSH1 0x24 PUSH1 0x0 REVERT JUMPDEST PUSH1 0x0 DUP3 MLOAD PUSH2 0x1ED4 DUP2 DUP5 PUSH1 0x20 DUP8 ADD PUSH2 0x1ADC JUMP JUMPDEST SWAP2 SWAP1 SWAP2 ADD SWAP3 SWAP2 POP POP JUMP INVALID LOG2 PUSH5 0x6970667358 0x22 SLT KECCAK256 SWAP14 0xFC AND 0xC8 0xB2 0xE 0xC9 0xDD CREATE LOG3 SWAP12 NUMBER 0xB2 BASEFEE 0xF9 0xF7 0xBC 0xF9 0xCB 0xCE 0xAE 0xEB 0x4C CREATE2 0xAD TIMESTAMP 0xE3 0xC8 LOG0 0x4F DUP11 MSTORE8 PUSH5 0x736F6C6343 STOP ADDMOD EXP STOP CALLER "
        },
        "methodIdentifiers": {
          "UNINITIALIZED()": "81e45d9a",
          "allowance(address,address)": "dd62ed3e",
          "approve(address,uint256)": "095ea7b3",
          "balanceOf(address)": "70a08231",
          "blockNumberForPhase(uint32[8],uint8)": "45bdfa8a",
          "cooldownDuration()": "35269315",
          "cooldowns(address)": "01320fe2",
          "currentPhase()": "055ad42e",
          "decimals()": "313ce567",
          "decreaseAllowance(address,uint256)": "a457c2d7",
          "increaseAllowance(address,uint256)": "39509351",
          "name()": "06fdde03",
          "owner()": "8da5cb5b",
          "phaseAtBlockNumber(uint32[8],uint32)": "34c1df75",
          "phaseBlocks(uint256)": "9923c94b",
          "recipient()": "66d003ac",
          "redeem(uint256)": "db006a75",
          "renounceOwnership()": "715018a6",
          "reserve()": "cd3293de",
          "seed(uint256,uint256)": "166a00e4",
          "seedPrice()": "7e34cd3d",
          "symbol()": "95d89b41",
          "totalSupply()": "18160ddd",
          "transfer(address,uint256)": "a9059cbb",
          "transferFrom(address,address,uint256)": "23b872dd",
          "transferOwnership(address)": "f2fde38b",
          "unseed(uint256)": "09489096"
        }
      }
    }
  }
}