{
  "contracts/test/PhasedScheduleTest.sol": {
    "PhasedScheduleTest": {
      "abi": [
        {
          "anonymous": false,
          "inputs": [
            {
              "indexed": true,
              "internalType": "uint32",
              "name": "newPhaseBlock_",
              "type": "uint32"
            }
          ],
          "name": "PhaseShiftScheduled",
          "type": "event"
        },
        {
          "inputs": [],
          "name": "UNINITIALIZED",
          "outputs": [
            {
              "internalType": "uint32",
              "name": "",
              "type": "uint32"
            }
          ],
          "stateMutability": "view",
          "type": "function"
        },
        {
          "inputs": [
            {
              "internalType": "uint32[8]",
              "name": "phaseBlocks_",
              "type": "uint32[8]"
            },
            {
              "internalType": "enum Phase",
              "name": "phase_",
              "type": "uint8"
            }
          ],
          "name": "blockNumberForPhase",
          "outputs": [
            {
              "internalType": "uint32",
              "name": "",
              "type": "uint32"
            }
          ],
          "stateMutability": "pure",
          "type": "function"
        },
        {
          "inputs": [],
          "name": "currentPhase",
          "outputs": [
            {
              "internalType": "enum Phase",
              "name": "",
              "type": "uint8"
            }
          ],
          "stateMutability": "view",
          "type": "function"
        },
        {
          "inputs": [
            {
              "internalType": "uint32[8]",
              "name": "phaseBlocks_",
              "type": "uint32[8]"
            },
            {
              "internalType": "uint32",
              "name": "blockNumber_",
              "type": "uint32"
            }
          ],
          "name": "phaseAtBlockNumber",
          "outputs": [
            {
              "internalType": "enum Phase",
              "name": "",
              "type": "uint8"
            }
          ],
          "stateMutability": "pure",
          "type": "function"
        },
        {
          "inputs": [
            {
              "internalType": "uint256",
              "name": "",
              "type": "uint256"
            }
          ],
          "name": "phaseBlocks",
          "outputs": [
            {
              "internalType": "uint32",
              "name": "",
              "type": "uint32"
            }
          ],
          "stateMutability": "view",
          "type": "function"
        },
        {
          "inputs": [
            {
              "internalType": "uint32",
              "name": "nextPhaseBlock_",
              "type": "uint32"
            }
          ],
          "name": "testScheduleNextPhase",
          "outputs": [],
          "stateMutability": "nonpayable",
          "type": "function"
        }
      ],
      "evm": {
        "bytecode": {
          "linkReferences": {},
          "object": "608060405234801561001057600080fd5b5060005b60088110156100715763ffffffff6000826008811061003557610035610077565b600891828204019190066004026101000a81548163ffffffff021916908363ffffffff16021790555080806100699061008d565b915050610014565b506100b6565b634e487b7160e01b600052603260045260246000fd5b60006000198214156100af57634e487b7160e01b600052601160045260246000fd5b5060010190565b61068b806100c56000396000f3fe608060405234801561001057600080fd5b50600436106100625760003560e01c8063055ad42e1461006757806334c1df75146100855780633bd126dc1461009857806345bdfa8a146100ad57806381e45d9a146100d55780639923c94b146100e0575b600080fd5b61006f6100f3565b60405161007c9190610495565b60405180910390f35b61006f6100933660046104ec565b61015d565b6100ab6100a6366004610581565b6101cd565b005b6100c06100bb36600461059c565b6101d9565b60405163ffffffff909116815260200161007c565b6100c063ffffffff81565b6100c06100ee3660046105de565b61023c565b60408051610100810191829052600091610158919083906008908280855b82829054906101000a900463ffffffff1663ffffffff168152602001906004019060208260030104928301926001038202915080841161011157905050505050504361015d565b905090565b6000805b60088110156101c05783816008811061017c5761017c6105f7565b602002015163ffffffff168363ffffffff1610156101ae578060088111156101a6576101a661047f565b9150506101c7565b806101b881610623565b915050610161565b5060085b90505b92915050565b6101d68161026c565b50565b6000808260088111156101ee576101ee61047f565b116101fa5760006101c4565b82600183600881111561020f5761020f61047f565b610219919061063e565b60088110610229576102296105f7565b6020020160208101906101c49190610581565b6000816008811061024c57600080fd5b60089182820401919006600402915054906101000a900463ffffffff1681565b8063ffffffff164363ffffffff1611156102bf5760405162461bcd60e51b815260206004820152600f60248201526e1391561517d09313d0d2d7d41054d5608a1b60448201526064015b60405180910390fd5b63ffffffff818116106103145760405162461bcd60e51b815260206004820152601860248201527f4e4558545f424c4f434b5f554e494e495449414c495a4544000000000000000060448201526064016102b6565b600061031e6100f3565b600881111561032f5761032f61047f565b905060008160088110610344576103446105f7565b60088104919091015460079091166004026101000a900463ffffffff908116146103a15760405162461bcd60e51b815260206004820152600e60248201526d1391561517d09313d0d2d7d4d15560921b60448201526064016102b6565b6103aa8261041e565b81600082600881106103be576103be6105f7565b600891828204019190066004026101000a81548163ffffffff021916908363ffffffff1602179055508163ffffffff167f260aac5b840edc27b89fdf50e91311a413363a400959466e1049e6d071b8cee260405160405180910390a25050565b61042661042a565b6101d65b6000806104356100f3565b60088111156104465761044661047f565b146101d65760405162461bcd60e51b81526020600482015260096024820152684241445f504841534560b81b60448201526064016102b6565b634e487b7160e01b600052602160045260246000fd5b60208101600983106104b757634e487b7160e01b600052602160045260246000fd5b91905290565b634e487b7160e01b600052604160045260246000fd5b803563ffffffff811681146104e757600080fd5b919050565b600080610120838503121561050057600080fd5b83601f84011261050f57600080fd5b60405161010080820182811067ffffffffffffffff82111715610534576105346104bd565b6040528401818682111561054757600080fd5b855b828110156105685761055a816104d3565b825260209182019101610549565b5050819350610576816104d3565b925050509250929050565b60006020828403121561059357600080fd5b6101c4826104d3565b60008061012083850312156105b057600080fd5b6101008301848111156105c257600080fd5b83925035600981106105d357600080fd5b809150509250929050565b6000602082840312156105f057600080fd5b5035919050565b634e487b7160e01b600052603260045260246000fd5b634e487b7160e01b600052601160045260246000fd5b60006000198214156106375761063761060d565b5060010190565b6000828210156106505761065061060d565b50039056fea26469706673582212201b10da934e36ee888c8eb75689e1373e7470492d7ce593f25755a0ed1a780ae164736f6c634300080a0033",
          "opcodes": "PUSH1 0x80 PUSH1 0x40 MSTORE CALLVALUE DUP1 ISZERO PUSH2 0x10 JUMPI PUSH1 0x0 DUP1 REVERT JUMPDEST POP PUSH1 0x0 JUMPDEST PUSH1 0x8 DUP2 LT ISZERO PUSH2 0x71 JUMPI PUSH4 0xFFFFFFFF PUSH1 0x0 DUP3 PUSH1 0x8 DUP2 LT PUSH2 0x35 JUMPI PUSH2 0x35 PUSH2 0x77 JUMP JUMPDEST PUSH1 0x8 SWAP2 DUP3 DUP3 DIV ADD SWAP2 SWAP1 MOD PUSH1 0x4 MUL PUSH2 0x100 EXP DUP2 SLOAD DUP2 PUSH4 0xFFFFFFFF MUL NOT AND SWAP1 DUP4 PUSH4 0xFFFFFFFF AND MUL OR SWAP1 SSTORE POP DUP1 DUP1 PUSH2 0x69 SWAP1 PUSH2 0x8D JUMP JUMPDEST SWAP2 POP POP PUSH2 0x14 JUMP JUMPDEST POP PUSH2 0xB6 JUMP JUMPDEST PUSH4 0x4E487B71 PUSH1 0xE0 SHL PUSH1 0x0 MSTORE PUSH1 0x32 PUSH1 0x4 MSTORE PUSH1 0x24 PUSH1 0x0 REVERT JUMPDEST PUSH1 0x0 PUSH1 0x0 NOT DUP3 EQ ISZERO PUSH2 0xAF JUMPI PUSH4 0x4E487B71 PUSH1 0xE0 SHL PUSH1 0x0 MSTORE PUSH1 0x11 PUSH1 0x4 MSTORE PUSH1 0x24 PUSH1 0x0 REVERT JUMPDEST POP PUSH1 0x1 ADD SWAP1 JUMP JUMPDEST PUSH2 0x68B DUP1 PUSH2 0xC5 PUSH1 0x0 CODECOPY PUSH1 0x0 RETURN INVALID PUSH1 0x80 PUSH1 0x40 MSTORE CALLVALUE DUP1 ISZERO PUSH2 0x10 JUMPI PUSH1 0x0 DUP1 REVERT JUMPDEST POP PUSH1 0x4 CALLDATASIZE LT PUSH2 0x62 JUMPI PUSH1 0x0 CALLDATALOAD PUSH1 0xE0 SHR DUP1 PUSH4 0x55AD42E EQ PUSH2 0x67 JUMPI DUP1 PUSH4 0x34C1DF75 EQ PUSH2 0x85 JUMPI DUP1 PUSH4 0x3BD126DC EQ PUSH2 0x98 JUMPI DUP1 PUSH4 0x45BDFA8A EQ PUSH2 0xAD JUMPI DUP1 PUSH4 0x81E45D9A EQ PUSH2 0xD5 JUMPI DUP1 PUSH4 0x9923C94B EQ PUSH2 0xE0 JUMPI JUMPDEST PUSH1 0x0 DUP1 REVERT JUMPDEST PUSH2 0x6F PUSH2 0xF3 JUMP JUMPDEST PUSH1 0x40 MLOAD PUSH2 0x7C SWAP2 SWAP1 PUSH2 0x495 JUMP JUMPDEST PUSH1 0x40 MLOAD DUP1 SWAP2 SUB SWAP1 RETURN JUMPDEST PUSH2 0x6F PUSH2 0x93 CALLDATASIZE PUSH1 0x4 PUSH2 0x4EC JUMP JUMPDEST PUSH2 0x15D JUMP JUMPDEST PUSH2 0xAB PUSH2 0xA6 CALLDATASIZE PUSH1 0x4 PUSH2 0x581 JUMP JUMPDEST PUSH2 0x1CD JUMP JUMPDEST STOP JUMPDEST PUSH2 0xC0 PUSH2 0xBB CALLDATASIZE PUSH1 0x4 PUSH2 0x59C JUMP JUMPDEST PUSH2 0x1D9 JUMP JUMPDEST PUSH1 0x40 MLOAD PUSH4 0xFFFFFFFF SWAP1 SWAP2 AND DUP2 MSTORE PUSH1 0x20 ADD PUSH2 0x7C JUMP JUMPDEST PUSH2 0xC0 PUSH4 0xFFFFFFFF DUP2 JUMP JUMPDEST PUSH2 0xC0 PUSH2 0xEE CALLDATASIZE PUSH1 0x4 PUSH2 0x5DE JUMP JUMPDEST PUSH2 0x23C JUMP JUMPDEST PUSH1 0x40 DUP1 MLOAD PUSH2 0x100 DUP2 ADD SWAP2 DUP3 SWAP1 MSTORE PUSH1 0x0 SWAP2 PUSH2 0x158 SWAP2 SWAP1 DUP4 SWAP1 PUSH1 0x8 SWAP1 DUP3 DUP1 DUP6 JUMPDEST DUP3 DUP3 SWAP1 SLOAD SWAP1 PUSH2 0x100 EXP SWAP1 DIV PUSH4 0xFFFFFFFF AND PUSH4 0xFFFFFFFF AND DUP2 MSTORE PUSH1 0x20 ADD SWAP1 PUSH1 0x4 ADD SWAP1 PUSH1 0x20 DUP3 PUSH1 0x3 ADD DIV SWAP3 DUP4 ADD SWAP3 PUSH1 0x1 SUB DUP3 MUL SWAP2 POP DUP1 DUP5 GT PUSH2 0x111 JUMPI SWAP1 POP POP POP POP POP POP NUMBER PUSH2 0x15D JUMP JUMPDEST SWAP1 POP SWAP1 JUMP JUMPDEST PUSH1 0x0 DUP1 JUMPDEST PUSH1 0x8 DUP2 LT ISZERO PUSH2 0x1C0 JUMPI DUP4 DUP2 PUSH1 0x8 DUP2 LT PUSH2 0x17C JUMPI PUSH2 0x17C PUSH2 0x5F7 JUMP JUMPDEST PUSH1 0x20 MUL ADD MLOAD PUSH4 0xFFFFFFFF AND DUP4 PUSH4 0xFFFFFFFF AND LT ISZERO PUSH2 0x1AE JUMPI DUP1 PUSH1 0x8 DUP2 GT ISZERO PUSH2 0x1A6 JUMPI PUSH2 0x1A6 PUSH2 0x47F JUMP JUMPDEST SWAP2 POP POP PUSH2 0x1C7 JUMP JUMPDEST DUP1 PUSH2 0x1B8 DUP2 PUSH2 0x623 JUMP JUMPDEST SWAP2 POP POP PUSH2 0x161 JUMP JUMPDEST POP PUSH1 0x8 JUMPDEST SWAP1 POP JUMPDEST SWAP3 SWAP2 POP POP JUMP JUMPDEST PUSH2 0x1D6 DUP2 PUSH2 0x26C JUMP JUMPDEST POP JUMP JUMPDEST PUSH1 0x0 DUP1 DUP3 PUSH1 0x8 DUP2 GT ISZERO PUSH2 0x1EE JUMPI PUSH2 0x1EE PUSH2 0x47F JUMP JUMPDEST GT PUSH2 0x1FA JUMPI PUSH1 0x0 PUSH2 0x1C4 JUMP JUMPDEST DUP3 PUSH1 0x1 DUP4 PUSH1 0x8 DUP2 GT ISZERO PUSH2 0x20F JUMPI PUSH2 0x20F PUSH2 0x47F JUMP JUMPDEST PUSH2 0x219 SWAP2 SWAP1 PUSH2 0x63E JUMP JUMPDEST PUSH1 0x8 DUP2 LT PUSH2 0x229 JUMPI PUSH2 0x229 PUSH2 0x5F7 JUMP JUMPDEST PUSH1 0x20 MUL ADD PUSH1 0x20 DUP2 ADD SWAP1 PUSH2 0x1C4 SWAP2 SWAP1 PUSH2 0x581 JUMP JUMPDEST PUSH1 0x0 DUP2 PUSH1 0x8 DUP2 LT PUSH2 0x24C JUMPI PUSH1 0x0 DUP1 REVERT JUMPDEST PUSH1 0x8 SWAP2 DUP3 DUP3 DIV ADD SWAP2 SWAP1 MOD PUSH1 0x4 MUL SWAP2 POP SLOAD SWAP1 PUSH2 0x100 EXP SWAP1 DIV PUSH4 0xFFFFFFFF AND DUP2 JUMP JUMPDEST DUP1 PUSH4 0xFFFFFFFF AND NUMBER PUSH4 0xFFFFFFFF AND GT ISZERO PUSH2 0x2BF JUMPI PUSH1 0x40 MLOAD PUSH3 0x461BCD PUSH1 0xE5 SHL DUP2 MSTORE PUSH1 0x20 PUSH1 0x4 DUP3 ADD MSTORE PUSH1 0xF PUSH1 0x24 DUP3 ADD MSTORE PUSH15 0x1391561517D09313D0D2D7D41054D5 PUSH1 0x8A SHL PUSH1 0x44 DUP3 ADD MSTORE PUSH1 0x64 ADD JUMPDEST PUSH1 0x40 MLOAD DUP1 SWAP2 SUB SWAP1 REVERT JUMPDEST PUSH4 0xFFFFFFFF DUP2 DUP2 AND LT PUSH2 0x314 JUMPI PUSH1 0x40 MLOAD PUSH3 0x461BCD PUSH1 0xE5 SHL DUP2 MSTORE PUSH1 0x20 PUSH1 0x4 DUP3 ADD MSTORE PUSH1 0x18 PUSH1 0x24 DUP3 ADD MSTORE PUSH32 0x4E4558545F424C4F434B5F554E494E495449414C495A45440000000000000000 PUSH1 0x44 DUP3 ADD MSTORE PUSH1 0x64 ADD PUSH2 0x2B6 JUMP JUMPDEST PUSH1 0x0 PUSH2 0x31E PUSH2 0xF3 JUMP JUMPDEST PUSH1 0x8 DUP2 GT ISZERO PUSH2 0x32F JUMPI PUSH2 0x32F PUSH2 0x47F JUMP JUMPDEST SWAP1 POP PUSH1 0x0 DUP2 PUSH1 0x8 DUP2 LT PUSH2 0x344 JUMPI PUSH2 0x344 PUSH2 0x5F7 JUMP JUMPDEST PUSH1 0x8 DUP2 DIV SWAP2 SWAP1 SWAP2 ADD SLOAD PUSH1 0x7 SWAP1 SWAP2 AND PUSH1 0x4 MUL PUSH2 0x100 EXP SWAP1 DIV PUSH4 0xFFFFFFFF SWAP1 DUP2 AND EQ PUSH2 0x3A1 JUMPI PUSH1 0x40 MLOAD PUSH3 0x461BCD PUSH1 0xE5 SHL DUP2 MSTORE PUSH1 0x20 PUSH1 0x4 DUP3 ADD MSTORE PUSH1 0xE PUSH1 0x24 DUP3 ADD MSTORE PUSH14 0x1391561517D09313D0D2D7D4D155 PUSH1 0x92 SHL PUSH1 0x44 DUP3 ADD MSTORE PUSH1 0x64 ADD PUSH2 0x2B6 JUMP JUMPDEST PUSH2 0x3AA DUP3 PUSH2 0x41E JUMP JUMPDEST DUP2 PUSH1 0x0 DUP3 PUSH1 0x8 DUP2 LT PUSH2 0x3BE JUMPI PUSH2 0x3BE PUSH2 0x5F7 JUMP JUMPDEST PUSH1 0x8 SWAP2 DUP3 DUP3 DIV ADD SWAP2 SWAP1 MOD PUSH1 0x4 MUL PUSH2 0x100 EXP DUP2 SLOAD DUP2 PUSH4 0xFFFFFFFF MUL NOT AND SWAP1 DUP4 PUSH4 0xFFFFFFFF AND MUL OR SWAP1 SSTORE POP DUP2 PUSH4 0xFFFFFFFF AND PUSH32 0x260AAC5B840EDC27B89FDF50E91311A413363A400959466E1049E6D071B8CEE2 PUSH1 0x40 MLOAD PUSH1 0x40 MLOAD DUP1 SWAP2 SUB SWAP1 LOG2 POP POP JUMP JUMPDEST PUSH2 0x426 PUSH2 0x42A JUMP JUMPDEST PUSH2 0x1D6 JUMPDEST PUSH1 0x0 DUP1 PUSH2 0x435 PUSH2 0xF3 JUMP JUMPDEST PUSH1 0x8 DUP2 GT ISZERO PUSH2 0x446 JUMPI PUSH2 0x446 PUSH2 0x47F JUMP JUMPDEST EQ PUSH2 0x1D6 JUMPI PUSH1 0x40 MLOAD PUSH3 0x461BCD PUSH1 0xE5 SHL DUP2 MSTORE PUSH1 0x20 PUSH1 0x4 DUP3 ADD MSTORE PUSH1 0x9 PUSH1 0x24 DUP3 ADD MSTORE PUSH9 0x4241445F5048415345 PUSH1 0xB8 SHL PUSH1 0x44 DUP3 ADD MSTORE PUSH1 0x64 ADD PUSH2 0x2B6 JUMP JUMPDEST PUSH4 0x4E487B71 PUSH1 0xE0 SHL PUSH1 0x0 MSTORE PUSH1 0x21 PUSH1 0x4 MSTORE PUSH1 0x24 PUSH1 0x0 REVERT JUMPDEST PUSH1 0x20 DUP2 ADD PUSH1 0x9 DUP4 LT PUSH2 0x4B7 JUMPI PUSH4 0x4E487B71 PUSH1 0xE0 SHL PUSH1 0x0 MSTORE PUSH1 0x21 PUSH1 0x4 MSTORE PUSH1 0x24 PUSH1 0x0 REVERT JUMPDEST SWAP2 SWAP1 MSTORE SWAP1 JUMP JUMPDEST PUSH4 0x4E487B71 PUSH1 0xE0 SHL PUSH1 0x0 MSTORE PUSH1 0x41 PUSH1 0x4 MSTORE PUSH1 0x24 PUSH1 0x0 REVERT JUMPDEST DUP1 CALLDATALOAD PUSH4 0xFFFFFFFF DUP2 AND DUP2 EQ PUSH2 0x4E7 JUMPI PUSH1 0x0 DUP1 REVERT JUMPDEST SWAP2 SWAP1 POP JUMP JUMPDEST PUSH1 0x0 DUP1 PUSH2 0x120 DUP4 DUP6 SUB SLT ISZERO PUSH2 0x500 JUMPI PUSH1 0x0 DUP1 REVERT JUMPDEST DUP4 PUSH1 0x1F DUP5 ADD SLT PUSH2 0x50F JUMPI PUSH1 0x0 DUP1 REVERT JUMPDEST PUSH1 0x40 MLOAD PUSH2 0x100 DUP1 DUP3 ADD DUP3 DUP2 LT PUSH8 0xFFFFFFFFFFFFFFFF DUP3 GT OR ISZERO PUSH2 0x534 JUMPI PUSH2 0x534 PUSH2 0x4BD JUMP JUMPDEST PUSH1 0x40 MSTORE DUP5 ADD DUP2 DUP7 DUP3 GT ISZERO PUSH2 0x547 JUMPI PUSH1 0x0 DUP1 REVERT JUMPDEST DUP6 JUMPDEST DUP3 DUP2 LT ISZERO PUSH2 0x568 JUMPI PUSH2 0x55A DUP2 PUSH2 0x4D3 JUMP JUMPDEST DUP3 MSTORE PUSH1 0x20 SWAP2 DUP3 ADD SWAP2 ADD PUSH2 0x549 JUMP JUMPDEST POP POP DUP2 SWAP4 POP PUSH2 0x576 DUP2 PUSH2 0x4D3 JUMP JUMPDEST SWAP3 POP POP POP SWAP3 POP SWAP3 SWAP1 POP JUMP JUMPDEST PUSH1 0x0 PUSH1 0x20 DUP3 DUP5 SUB SLT ISZERO PUSH2 0x593 JUMPI PUSH1 0x0 DUP1 REVERT JUMPDEST PUSH2 0x1C4 DUP3 PUSH2 0x4D3 JUMP JUMPDEST PUSH1 0x0 DUP1 PUSH2 0x120 DUP4 DUP6 SUB SLT ISZERO PUSH2 0x5B0 JUMPI PUSH1 0x0 DUP1 REVERT JUMPDEST PUSH2 0x100 DUP4 ADD DUP5 DUP2 GT ISZERO PUSH2 0x5C2 JUMPI PUSH1 0x0 DUP1 REVERT JUMPDEST DUP4 SWAP3 POP CALLDATALOAD PUSH1 0x9 DUP2 LT PUSH2 0x5D3 JUMPI PUSH1 0x0 DUP1 REVERT JUMPDEST DUP1 SWAP2 POP POP SWAP3 POP SWAP3 SWAP1 POP JUMP JUMPDEST PUSH1 0x0 PUSH1 0x20 DUP3 DUP5 SUB SLT ISZERO PUSH2 0x5F0 JUMPI PUSH1 0x0 DUP1 REVERT JUMPDEST POP CALLDATALOAD SWAP2 SWAP1 POP JUMP JUMPDEST PUSH4 0x4E487B71 PUSH1 0xE0 SHL PUSH1 0x0 MSTORE PUSH1 0x32 PUSH1 0x4 MSTORE PUSH1 0x24 PUSH1 0x0 REVERT JUMPDEST PUSH4 0x4E487B71 PUSH1 0xE0 SHL PUSH1 0x0 MSTORE PUSH1 0x11 PUSH1 0x4 MSTORE PUSH1 0x24 PUSH1 0x0 REVERT JUMPDEST PUSH1 0x0 PUSH1 0x0 NOT DUP3 EQ ISZERO PUSH2 0x637 JUMPI PUSH2 0x637 PUSH2 0x60D JUMP JUMPDEST POP PUSH1 0x1 ADD SWAP1 JUMP JUMPDEST PUSH1 0x0 DUP3 DUP3 LT ISZERO PUSH2 0x650 JUMPI PUSH2 0x650 PUSH2 0x60D JUMP JUMPDEST POP SUB SWAP1 JUMP INVALID LOG2 PUSH5 0x6970667358 0x22 SLT KECCAK256 SHL LT 0xDA SWAP4 0x4E CALLDATASIZE 0xEE DUP9 DUP13 DUP15 0xB7 JUMP DUP10 0xE1 CALLDATACOPY RETURNDATACOPY PUSH21 0x70492D7CE593F25755A0ED1A780AE164736F6C6343 STOP ADDMOD EXP STOP CALLER "
        },
        "methodIdentifiers": {
          "UNINITIALIZED()": "81e45d9a",
          "blockNumberForPhase(uint32[8],uint8)": "45bdfa8a",
          "currentPhase()": "055ad42e",
          "phaseAtBlockNumber(uint32[8],uint32)": "34c1df75",
          "phaseBlocks(uint256)": "9923c94b",
          "testScheduleNextPhase(uint32)": "3bd126dc"
        }
      }
    }
  }
}