{
  "_format": "hh-sol-artifact-1",
  "contractName": "TierByConstructionClaimTest",
  "sourceName": "contracts/rain-protocol/contracts/test/TierByConstructionClaimTest.sol",
  "abi": [
    {
      "inputs": [
        {
          "internalType": "contract ITier",
          "name": "tier_",
          "type": "address"
        }
      ],
      "stateMutability": "nonpayable",
      "type": "constructor"
    },
    {
      "anonymous": false,
      "inputs": [
        {
          "indexed": true,
          "internalType": "address",
          "name": "owner",
          "type": "address"
        },
        {
          "indexed": true,
          "internalType": "address",
          "name": "spender",
          "type": "address"
        },
        {
          "indexed": false,
          "internalType": "uint256",
          "name": "value",
          "type": "uint256"
        }
      ],
      "name": "Approval",
      "type": "event"
    },
    {
      "anonymous": false,
      "inputs": [
        {
          "indexed": true,
          "internalType": "address",
          "name": "account",
          "type": "address"
        },
        {
          "indexed": false,
          "internalType": "bytes",
          "name": "data",
          "type": "bytes"
        }
      ],
      "name": "Claim",
      "type": "event"
    },
    {
      "anonymous": false,
      "inputs": [
        {
          "indexed": true,
          "internalType": "address",
          "name": "from",
          "type": "address"
        },
        {
          "indexed": true,
          "internalType": "address",
          "name": "to",
          "type": "address"
        },
        {
          "indexed": false,
          "internalType": "uint256",
          "name": "value",
          "type": "uint256"
        }
      ],
      "name": "Transfer",
      "type": "event"
    },
    {
      "inputs": [
        {
          "internalType": "address",
          "name": "owner",
          "type": "address"
        },
        {
          "internalType": "address",
          "name": "spender",
          "type": "address"
        }
      ],
      "name": "allowance",
      "outputs": [
        {
          "internalType": "uint256",
          "name": "",
          "type": "uint256"
        }
      ],
      "stateMutability": "view",
      "type": "function"
    },
    {
      "inputs": [
        {
          "internalType": "address",
          "name": "spender",
          "type": "address"
        },
        {
          "internalType": "uint256",
          "name": "amount",
          "type": "uint256"
        }
      ],
      "name": "approve",
      "outputs": [
        {
          "internalType": "bool",
          "name": "",
          "type": "bool"
        }
      ],
      "stateMutability": "nonpayable",
      "type": "function"
    },
    {
      "inputs": [
        {
          "internalType": "address",
          "name": "account",
          "type": "address"
        }
      ],
      "name": "balanceOf",
      "outputs": [
        {
          "internalType": "uint256",
          "name": "",
          "type": "uint256"
        }
      ],
      "stateMutability": "view",
      "type": "function"
    },
    {
      "inputs": [
        {
          "internalType": "address",
          "name": "account_",
          "type": "address"
        },
        {
          "internalType": "bytes",
          "name": "data_",
          "type": "bytes"
        }
      ],
      "name": "claim",
      "outputs": [],
      "stateMutability": "nonpayable",
      "type": "function"
    },
    {
      "inputs": [
        {
          "internalType": "address",
          "name": "",
          "type": "address"
        }
      ],
      "name": "claims",
      "outputs": [
        {
          "internalType": "bool",
          "name": "",
          "type": "bool"
        }
      ],
      "stateMutability": "view",
      "type": "function"
    },
    {
      "inputs": [],
      "name": "constructionBlock",
      "outputs": [
        {
          "internalType": "uint256",
          "name": "",
          "type": "uint256"
        }
      ],
      "stateMutability": "view",
      "type": "function"
    },
    {
      "inputs": [],
      "name": "decimals",
      "outputs": [
        {
          "internalType": "uint8",
          "name": "",
          "type": "uint8"
        }
      ],
      "stateMutability": "view",
      "type": "function"
    },
    {
      "inputs": [
        {
          "internalType": "address",
          "name": "spender",
          "type": "address"
        },
        {
          "internalType": "uint256",
          "name": "subtractedValue",
          "type": "uint256"
        }
      ],
      "name": "decreaseAllowance",
      "outputs": [
        {
          "internalType": "bool",
          "name": "",
          "type": "bool"
        }
      ],
      "stateMutability": "nonpayable",
      "type": "function"
    },
    {
      "inputs": [
        {
          "internalType": "address",
          "name": "spender",
          "type": "address"
        },
        {
          "internalType": "uint256",
          "name": "addedValue",
          "type": "uint256"
        }
      ],
      "name": "increaseAllowance",
      "outputs": [
        {
          "internalType": "bool",
          "name": "",
          "type": "bool"
        }
      ],
      "stateMutability": "nonpayable",
      "type": "function"
    },
    {
      "inputs": [
        {
          "internalType": "address",
          "name": "account_",
          "type": "address"
        },
        {
          "internalType": "enum ITier.Tier",
          "name": "minimumTier_",
          "type": "uint8"
        }
      ],
      "name": "isTier",
      "outputs": [
        {
          "internalType": "bool",
          "name": "",
          "type": "bool"
        }
      ],
      "stateMutability": "view",
      "type": "function"
    },
    {
      "inputs": [],
      "name": "minimumTier",
      "outputs": [
        {
          "internalType": "enum ITier.Tier",
          "name": "",
          "type": "uint8"
        }
      ],
      "stateMutability": "view",
      "type": "function"
    },
    {
      "inputs": [],
      "name": "name",
      "outputs": [
        {
          "internalType": "string",
          "name": "",
          "type": "string"
        }
      ],
      "stateMutability": "view",
      "type": "function"
    },
    {
      "inputs": [],
      "name": "symbol",
      "outputs": [
        {
          "internalType": "string",
          "name": "",
          "type": "string"
        }
      ],
      "stateMutability": "view",
      "type": "function"
    },
    {
      "inputs": [],
      "name": "tierContract",
      "outputs": [
        {
          "internalType": "contract ITier",
          "name": "",
          "type": "address"
        }
      ],
      "stateMutability": "view",
      "type": "function"
    },
    {
      "inputs": [],
      "name": "totalSupply",
      "outputs": [
        {
          "internalType": "uint256",
          "name": "",
          "type": "uint256"
        }
      ],
      "stateMutability": "view",
      "type": "function"
    },
    {
      "inputs": [
        {
          "internalType": "address",
          "name": "recipient",
          "type": "address"
        },
        {
          "internalType": "uint256",
          "name": "amount",
          "type": "uint256"
        }
      ],
      "name": "transfer",
      "outputs": [
        {
          "internalType": "bool",
          "name": "",
          "type": "bool"
        }
      ],
      "stateMutability": "nonpayable",
      "type": "function"
    },
    {
      "inputs": [
        {
          "internalType": "address",
          "name": "sender",
          "type": "address"
        },
        {
          "internalType": "address",
          "name": "recipient",
          "type": "address"
        },
        {
          "internalType": "uint256",
          "name": "amount",
          "type": "uint256"
        }
      ],
      "name": "transferFrom",
      "outputs": [
        {
          "internalType": "bool",
          "name": "",
          "type": "bool"
        }
      ],
      "stateMutability": "nonpayable",
      "type": "function"
    }
  ],
  "bytecode": "0x60a06040523480156200001157600080fd5b50604051620011bf380380620011bf833981810160405260208110156200003757600080fd5b5051604080518082018252600781526633b7b6322a35b760c91b6020828101918252835180850190945260048085526323aa25a760e11b9185019190915282518594919385939092916200008e9160039162000108565b508051620000a490600490602084019062000108565b5050600580546001600160a01b0390931661010002610100600160a81b031960ff1990941660121793909316929092179091555043600655806008811115620000e957fe5b6080816008811115620000f857fe5b60f81b81525050505050620001a4565b828054600181600116156101000203166002900490600052602060002090601f016020900481019282601f106200014b57805160ff19168380011785556200017b565b828001600101855582156200017b579182015b828111156200017b5782518255916020019190600101906200015e565b50620001899291506200018d565b5090565b5b808211156200018957600081556001016200018e565b60805160f81c610ff8620001c7600039806107d95280610a165250610ff86000f3fe608060405234801561001057600080fd5b506004361061010b5760003560e01c806377544f33116100a2578063a9059cbb11610071578063a9059cbb1461031c578063bb1757cf14610348578063c6788bdd14610400578063dd62ed3e14610426578063f1ebd5dd146104545761010b565b806377544f331461029557806395d89b41146102c4578063a30872db146102cc578063a457c2d7146102f05761010b565b806323b872dd116100de57806323b872dd146101ef578063313ce56714610225578063395093511461024357806370a082311461026f5761010b565b806306fdde0314610110578063095ea7b31461018d5780630f0af57f146101cd57806318160ddd146101e7575b600080fd5b61011861047d565b6040805160208082528351818301528351919283929083019185019080838360005b8381101561015257818101518382015260200161013a565b50505050905090810190601f16801561017f5780820380516001836020036101000a031916815260200191505b509250505060405180910390f35b6101b9600480360360408110156101a357600080fd5b506001600160a01b038135169060200135610513565b604080519115158252519081900360200190f35b6101d5610531565b60408051918252519081900360200190f35b6101d5610537565b6101b96004803603606081101561020557600080fd5b506001600160a01b0381358116916020810135909116906040013561053d565b61022d6105c4565b6040805160ff9092168252519081900360200190f35b6101b96004803603604081101561025957600080fd5b506001600160a01b0381351690602001356105cd565b6101d56004803603602081101561028557600080fd5b50356001600160a01b031661061b565b6101b9600480360360408110156102ab57600080fd5b5080356001600160a01b0316906020013560ff16610636565b6101186106cb565b6102d461072c565b604080516001600160a01b039092168252519081900360200190f35b6101b96004803603604081101561030657600080fd5b506001600160a01b038135169060200135610740565b6101b96004803603604081101561033257600080fd5b506001600160a01b0381351690602001356107a8565b6103fe6004803603604081101561035e57600080fd5b6001600160a01b03823516919081019060408101602082013564010000000081111561038957600080fd5b82018360208201111561039b57600080fd5b803590602001918460018302840111640100000000831117156103bd57600080fd5b91908080601f0160208091040260200160405190810160405280939291908181526020018383808284376000920191909152509295506107bc945050505050565b005b6101b96004803603602081101561041657600080fd5b50356001600160a01b03166109d4565b6101d56004803603604081101561043c57600080fd5b506001600160a01b03813581169160200135166109e9565b61045c610a14565b6040518082600881111561046c57fe5b815260200191505060405180910390f35b60038054604080516020601f60026000196101006001881615020190951694909404938401819004810282018101909252828152606093909290918301828280156105095780601f106104de57610100808354040283529160200191610509565b820191906000526020600020905b8154815290600101906020018083116104ec57829003601f168201915b5050505050905090565b6000610527610520610a38565b8484610a3c565b5060015b92915050565b60065481565b60025490565b600061054a848484610b28565b6105ba84610556610a38565b6105b585604051806060016040528060288152602001610f2d602891396001600160a01b038a16600090815260016020526040812090610594610a38565b6001600160a01b031681526020810191909152604001600020549190610c83565b610a3c565b5060019392505050565b60055460ff1690565b60006105276105da610a38565b846105b585600160006105eb610a38565b6001600160a01b03908116825260208083019390935260409182016000908120918c168152925290205490610d1a565b6001600160a01b031660009081526020819052604090205490565b6005546040805163e053ea3160e01b81526001600160a01b03858116600483015291516000936106bf93610100909104169163e053ea31916024808301926020929190829003018186803b15801561068d57600080fd5b505afa1580156106a1573d6000803e3d6000fd5b505050506040513d60208110156106b757600080fd5b505183610d7b565b60065410159392505050565b60048054604080516020601f60026000196101006001881615020190951694909404938401819004810282018101909252828152606093909290918301828280156105095780601f106104de57610100808354040283529160200191610509565b60055461010090046001600160a01b031681565b600061052761074d610a38565b846105b585604051806060016040528060258152602001610f9e6025913960016000610777610a38565b6001600160a01b03908116825260208083019390935260409182016000908120918d16815292529020549190610c83565b60006105276107b5610a38565b8484610b28565b6001600160a01b03821660009081526007602052604090205482907f00000000000000000000000000000000000000000000000000000000000000009060ff1615610840576040805162461bcd60e51b815260206004820152600f60248201526e4455504c49434154455f434c41494d60881b604482015290519081900360640190fd5b6001600160a01b0384166000818152600760209081526040808320805460ff19166001179055805182815287518184015287517fa16751aa65ef03fb7261c0a125a84854295c191657bda7151d4396246b1bbeb49489949293849390840192908601918190849084905b838110156108c25781810151838201526020016108aa565b50505050905090810190601f1680156108ef5780820380516001836020036101000a031916815260200191505b509250505060405180910390a26005546040805163e053ea3160e01b81526001600160a01b0380881660048301529151610984938893610100909104169163e053ea31916024808301926020929190829003018186803b15801561095257600080fd5b505afa158015610966573d6000803e3d6000fd5b505050506040513d602081101561097c57600080fd5b505185610dc1565b61098e8282610636565b6109ce576040805162461bcd60e51b815260206004820152600c60248201526b26a4a724a6aaa6afaa24a2a960a11b604482015290519081900360640190fd5b50505050565b60076020526000908152604090205460ff1681565b6001600160a01b03918216600090815260016020908152604080832093909416825291909152205490565b7f000000000000000000000000000000000000000000000000000000000000000081565b3390565b6001600160a01b038316610a815760405162461bcd60e51b8152600401808060200182810382526024815260200180610f7a6024913960400191505060405180910390fd5b6001600160a01b038216610ac65760405162461bcd60e51b8152600401808060200182810382526022815260200180610ee56022913960400191505060405180910390fd5b6001600160a01b03808416600081815260016020908152604080832094871680845294825291829020859055815185815291517f8c5be1e5ebec7d5bd14f71427d1e84f3dd0314c0f7b2291e5b200ac8c7c3b9259281900390910190a3505050565b6001600160a01b038316610b6d5760405162461bcd60e51b8152600401808060200182810382526025815260200180610f556025913960400191505060405180910390fd5b6001600160a01b038216610bb25760405162461bcd60e51b8152600401808060200182810382526023815260200180610ec26023913960400191505060405180910390fd5b610bbd838383610dcc565b610bfa81604051806060016040528060268152602001610f07602691396001600160a01b0386166000908152602081905260409020549190610c83565b6001600160a01b038085166000908152602081905260408082209390935590841681522054610c299082610d1a565b6001600160a01b038084166000818152602081815260409182902094909455805185815290519193928716927fddf252ad1be2c89b69c2b068fc378daa952ba7f163c4a11628f55a4df523b3ef92918290030190a3505050565b60008184841115610d125760405162461bcd60e51b81526004018080602001828103825283818151815260200191508051906020019080838360005b83811015610cd7578181015183820152602001610cbf565b50505050905090810190601f168015610d045780820380516001836020036101000a031916815260200191505b509250505060405180910390fd5b505050900390565b600082820183811015610d74576040805162461bcd60e51b815260206004820152601b60248201527f536166654d6174683a206164646974696f6e206f766572666c6f770000000000604482015290519081900360640190fd5b9392505050565b600080826008811115610d8a57fe5b1415610d985750600061052b565b60006001836008811115610da857fe5b0360200290508084901c63ffffffff1691505092915050565b610dcc836064610dd1565b505050565b6001600160a01b038216610e2c576040805162461bcd60e51b815260206004820152601f60248201527f45524332303a206d696e7420746f20746865207a65726f206164647265737300604482015290519081900360640190fd5b610e3860008383610dcc565b600254610e459082610d1a565b6002556001600160a01b038216600090815260208190526040902054610e6b9082610d1a565b6001600160a01b0383166000818152602081815260408083209490945583518581529351929391927fddf252ad1be2c89b69c2b068fc378daa952ba7f163c4a11628f55a4df523b3ef9281900390910190a3505056fe45524332303a207472616e7366657220746f20746865207a65726f206164647265737345524332303a20617070726f766520746f20746865207a65726f206164647265737345524332303a207472616e7366657220616d6f756e7420657863656564732062616c616e636545524332303a207472616e7366657220616d6f756e74206578636565647320616c6c6f77616e636545524332303a207472616e736665722066726f6d20746865207a65726f206164647265737345524332303a20617070726f76652066726f6d20746865207a65726f206164647265737345524332303a2064656372656173656420616c6c6f77616e63652062656c6f77207a65726fa2646970667358221220d1c64cafb3589d7d935d2af8e964ff67fde8bc49e52c5fd68a311e2b47b81db564736f6c634300060c0033",
  "linkReferences": {},
  "deployedLinkReferences": {}
}