{
  "address": "0x03b8b53c84eB710BB7fDe2dE46BBb400085368c2",
  "abi": [
    {
      "inputs": [
        {
          "components": [
            {
              "internalType": "address",
              "name": "crpFactory",
              "type": "address"
            },
            {
              "internalType": "address",
              "name": "balancerFactory",
              "type": "address"
            },
            {
              "internalType": "contract RedeemableERC20Factory",
              "name": "redeemableERC20Factory",
              "type": "address"
            },
            {
              "internalType": "contract SeedERC20Factory",
              "name": "seedERC20Factory",
              "type": "address"
            },
            {
              "internalType": "uint256",
              "name": "creatorFundsReleaseTimeout",
              "type": "uint256"
            },
            {
              "internalType": "uint256",
              "name": "maxRaiseDuration",
              "type": "uint256"
            }
          ],
          "internalType": "struct TrustConstructionConfig",
          "name": "config_",
          "type": "tuple"
        }
      ],
      "stateMutability": "nonpayable",
      "type": "constructor"
    },
    {
      "anonymous": false,
      "inputs": [
        {
          "indexed": false,
          "internalType": "address",
          "name": "sender",
          "type": "address"
        },
        {
          "indexed": false,
          "internalType": "address",
          "name": "implementation",
          "type": "address"
        }
      ],
      "name": "Implementation",
      "type": "event"
    },
    {
      "anonymous": false,
      "inputs": [
        {
          "indexed": false,
          "internalType": "address",
          "name": "sender",
          "type": "address"
        },
        {
          "indexed": false,
          "internalType": "address",
          "name": "child",
          "type": "address"
        }
      ],
      "name": "NewChild",
      "type": "event"
    },
    {
      "inputs": [
        {
          "internalType": "bytes",
          "name": "data_",
          "type": "bytes"
        }
      ],
      "name": "createChild",
      "outputs": [
        {
          "internalType": "address",
          "name": "",
          "type": "address"
        }
      ],
      "stateMutability": "nonpayable",
      "type": "function"
    },
    {
      "inputs": [
        {
          "components": [
            {
              "internalType": "contract IERC20",
              "name": "reserve",
              "type": "address"
            },
            {
              "internalType": "uint256",
              "name": "reserveInit",
              "type": "uint256"
            },
            {
              "internalType": "uint256",
              "name": "initialValuation",
              "type": "uint256"
            },
            {
              "internalType": "uint256",
              "name": "finalValuation",
              "type": "uint256"
            },
            {
              "internalType": "uint256",
              "name": "minimumTradingDuration",
              "type": "uint256"
            },
            {
              "internalType": "address",
              "name": "creator",
              "type": "address"
            },
            {
              "internalType": "uint256",
              "name": "minimumCreatorRaise",
              "type": "uint256"
            },
            {
              "internalType": "uint256",
              "name": "seederFee",
              "type": "uint256"
            },
            {
              "internalType": "uint256",
              "name": "redeemInit",
              "type": "uint256"
            }
          ],
          "internalType": "struct TrustConfig",
          "name": "trustConfig_",
          "type": "tuple"
        },
        {
          "components": [
            {
              "components": [
                {
                  "internalType": "string",
                  "name": "name",
                  "type": "string"
                },
                {
                  "internalType": "string",
                  "name": "symbol",
                  "type": "string"
                },
                {
                  "internalType": "address",
                  "name": "distributor",
                  "type": "address"
                },
                {
                  "internalType": "uint256",
                  "name": "initialSupply",
                  "type": "uint256"
                }
              ],
              "internalType": "struct ERC20Config",
              "name": "erc20Config",
              "type": "tuple"
            },
            {
              "internalType": "address",
              "name": "tier",
              "type": "address"
            },
            {
              "internalType": "uint256",
              "name": "minimumTier",
              "type": "uint256"
            }
          ],
          "internalType": "struct TrustRedeemableERC20Config",
          "name": "trustRedeemableERC20Config_",
          "type": "tuple"
        },
        {
          "components": [
            {
              "internalType": "address",
              "name": "seeder",
              "type": "address"
            },
            {
              "internalType": "uint256",
              "name": "cooldownDuration",
              "type": "uint256"
            },
            {
              "components": [
                {
                  "internalType": "string",
                  "name": "name",
                  "type": "string"
                },
                {
                  "internalType": "string",
                  "name": "symbol",
                  "type": "string"
                },
                {
                  "internalType": "address",
                  "name": "distributor",
                  "type": "address"
                },
                {
                  "internalType": "uint256",
                  "name": "initialSupply",
                  "type": "uint256"
                }
              ],
              "internalType": "struct ERC20Config",
              "name": "erc20Config",
              "type": "tuple"
            }
          ],
          "internalType": "struct TrustSeedERC20Config",
          "name": "trustSeedERC20Config_",
          "type": "tuple"
        }
      ],
      "name": "createChildTyped",
      "outputs": [
        {
          "internalType": "contract Trust",
          "name": "",
          "type": "address"
        }
      ],
      "stateMutability": "nonpayable",
      "type": "function"
    },
    {
      "inputs": [],
      "name": "implementation",
      "outputs": [
        {
          "internalType": "address",
          "name": "",
          "type": "address"
        }
      ],
      "stateMutability": "view",
      "type": "function"
    },
    {
      "inputs": [
        {
          "internalType": "address",
          "name": "maybeChild_",
          "type": "address"
        }
      ],
      "name": "isChild",
      "outputs": [
        {
          "internalType": "bool",
          "name": "",
          "type": "bool"
        }
      ],
      "stateMutability": "view",
      "type": "function"
    }
  ],
  "transactionHash": "0x2cdfd03b9402b824cdcf805bbe8680a498c352acef2e06fcde7ca758f20e0bf1",
  "args": [
    {
      "crpFactory": "0x68d114302d9F600e7FB3bF7aC4BBb5B4F76648dc",
      "balancerFactory": "0x3CF093CABEDB27C4d6Cb9b1749853878a00270C3",
      "redeemableERC20Factory": "0xa3458FE8966280507Ac613c3E4393eDF1AC98CEA",
      "seedERC20Factory": "0x0ff50e7ef2c80db0178B3ab7886a767239d3bE75",
      "creatorFundsReleaseTimeout": 100,
      "maxRaiseDuration": 100
    }
  ],
  "numDeployments": 1,
  "solcInputHash": "5f2e3cc7f2e94f1d53da50cff8116e87",
  "bytecode": "0x60a06040523480156200001157600080fd5b5060405162006b4a38038062006b4a833981016040819052620000349162000139565b6001600090815560405182906200004b906200010e565b81516001600160a01b039081168252602080840151821690830152604080840151821690830152606080840151909116908201526080808301519082015260a0918201519181019190915260c001604051809103906000f080158015620000b6573d6000803e3d6000fd5b50604080513381526001600160a01b03831660208201529192507f7fac34ecf0b1b374cd9659e3d17db602659d53f1162b1f20142e6c02694aed70910160405180910390a16001600160a01b031660805250620001e4565b6159ec806200115e83390190565b80516001600160a01b03811681146200013457600080fd5b919050565b600060c082840312156200014c57600080fd5b60405160c081016001600160401b03811182821017156200017d57634e487b7160e01b600052604160045260246000fd5b6040526200018b836200011c565b81526200019b602084016200011c565b6020820152620001ae604084016200011c565b6040820152620001c1606084016200011c565b60608201526080830151608082015260a083015160a08201528091505092915050565b608051610f58620002066000396000818160a601526103860152610f586000f3fe608060405234801561001057600080fd5b506004361061004c5760003560e01c806305506b4f146100515780632ea72a491461008e5780635c60da1b146100a1578063fc91a897146100c8575b600080fd5b61006461005f36600461053a565b610111565b60405173ffffffffffffffffffffffffffffffffffffffff90911681526020015b60405180910390f35b61006461009c3660046105b9565b6101ba565b6100647f000000000000000000000000000000000000000000000000000000000000000081565b6101016100d636600461065b565b73ffffffffffffffffffffffffffffffffffffffff1660009081526001602052604090205460ff1690565b6040519015158152602001610085565b60003073ffffffffffffffffffffffffffffffffffffffff16632ea72a498585856040516020016101449392919061089a565b6040516020818303038152906040526040518263ffffffff1660e01b815260040161016f91906109d2565b6020604051808303816000875af115801561018e573d6000803e3d6000fd5b505050506040513d601f19601f820116820180604052508101906101b291906109e5565b949350505050565b60006002600054141561022e576040517f08c379a000000000000000000000000000000000000000000000000000000000815260206004820152601f60248201527f5265656e7472616e637947756172643a207265656e7472616e742063616c6c0060448201526064015b60405180910390fd5b6002600090815561023f8484610368565b73ffffffffffffffffffffffffffffffffffffffff811660009081526001602052604090205490915060ff16156102d2576040517f08c379a000000000000000000000000000000000000000000000000000000000815260206004820152600f60248201527f4455504c49434154455f4348494c4400000000000000000000000000000000006044820152606401610225565b73ffffffffffffffffffffffffffffffffffffffff811660008181526001602081815260409283902080547fffffffffffffffffffffffffffffffffffffffffffffffffffffffffffffff00169092179091558151338152908101929092527f7da70c4e5387d7038610b79ca7d304caaef815826e51e67cf247135387a79bce910160405180910390a160016000559392505050565b600080808061037985870187610c9c565b92509250925060006103aa7f0000000000000000000000000000000000000000000000000000000000000000610440565b6040517fbf080f5600000000000000000000000000000000000000000000000000000000815290915073ffffffffffffffffffffffffffffffffffffffff82169063bf080f569061040390879087908790600401610e6b565b600060405180830381600087803b15801561041d57600080fd5b505af1158015610431573d6000803e3d6000fd5b50929998505050505050505050565b60006040517f3d602d80600a3d3981f3363d3d373d3d3d363d7300000000000000000000000081528260601b60148201527f5af43d82803e903d91602b57fd5bf3000000000000000000000000000000000060288201526037816000f091505073ffffffffffffffffffffffffffffffffffffffff811661051d576040517f08c379a000000000000000000000000000000000000000000000000000000000815260206004820152601660248201527f455243313136373a20637265617465206661696c6564000000000000000000006044820152606401610225565b919050565b60006060828403121561053457600080fd5b50919050565b600080600083850361016081121561055157600080fd5b6101208082121561056157600080fd5b859450840135905067ffffffffffffffff8082111561057f57600080fd5b61058b87838801610522565b93506101408601359150808211156105a257600080fd5b506105af86828701610522565b9150509250925092565b600080602083850312156105cc57600080fd5b823567ffffffffffffffff808211156105e457600080fd5b818501915085601f8301126105f857600080fd5b81358181111561060757600080fd5b86602082850101111561061957600080fd5b60209290920196919550909350505050565b73ffffffffffffffffffffffffffffffffffffffff8116811461064d57600080fd5b50565b803561051d8161062b565b60006020828403121561066d57600080fd5b81356106788161062b565b9392505050565b600082357fffffffffffffffffffffffffffffffffffffffffffffffffffffffffffffff818336030181126106b357600080fd5b90910192915050565b60008083357fffffffffffffffffffffffffffffffffffffffffffffffffffffffffffffffe18436030181126106f157600080fd5b830160208101925035905067ffffffffffffffff81111561071157600080fd5b80360383131561072057600080fd5b9250929050565b8183528181602085013750600060208284010152600060207fffffffffffffffffffffffffffffffffffffffffffffffffffffffffffffffe0601f840116840101905092915050565b600061077c82836106bc565b6080855261078e608086018284610727565b91505061079e60208401846106bc565b85830360208701526107b1838284610727565b9250505060408301356107c38161062b565b73ffffffffffffffffffffffffffffffffffffffff16604085015260609283013592909301919091525090565b60006107fc828361067f565b6060845261080d6060850182610770565b9050602083013561081d8161062b565b73ffffffffffffffffffffffffffffffffffffffff16602085015260409283013592909301919091525090565b600081356108578161062b565b73ffffffffffffffffffffffffffffffffffffffff16835260208281013590840152610886604083018361067f565b606060408501526101b26060850182610770565b600061016085356108aa8161062b565b73ffffffffffffffffffffffffffffffffffffffff8116845250602086013560208401526040860135604084015260608601356060840152608086013560808401526108f860a08701610650565b73ffffffffffffffffffffffffffffffffffffffff811660a08501525060c086013560c084015260e086013560e084015261010080870135818501525080610120840152610948818401866107f0565b905082810361014084015261095d818561084a565b9695505050505050565b6000815180845260005b8181101561098d57602081850181015186830182015201610971565b8181111561099f576000602083870101525b50601f017fffffffffffffffffffffffffffffffffffffffffffffffffffffffffffffffe0169290920160200192915050565b6020815260006106786020830184610967565b6000602082840312156109f757600080fd5b81516106788161062b565b7f4e487b7100000000000000000000000000000000000000000000000000000000600052604160045260246000fd5b6040516060810167ffffffffffffffff81118282101715610a5457610a54610a02565b60405290565b604051610120810167ffffffffffffffff81118282101715610a5457610a54610a02565b600082601f830112610a8f57600080fd5b813567ffffffffffffffff80821115610aaa57610aaa610a02565b604051601f83017fffffffffffffffffffffffffffffffffffffffffffffffffffffffffffffffe0908116603f01168101908282118183101715610af057610af0610a02565b81604052838152866020858801011115610b0957600080fd5b836020870160208301376000602085830101528094505050505092915050565b600060808284031215610b3b57600080fd5b6040516080810167ffffffffffffffff8282108183111715610b5f57610b5f610a02565b816040528293508435915080821115610b7757600080fd5b610b8386838701610a7e565b83526020850135915080821115610b9957600080fd5b50610ba685828601610a7e565b6020830152506040830135610bba8161062b565b6040820152606092830135920191909152919050565b600060608284031215610be257600080fd5b610bea610a31565b9050813567ffffffffffffffff811115610c0357600080fd5b610c0f84828501610b29565b8252506020820135610c208161062b565b806020830152506040820135604082015292915050565b600060608284031215610c4957600080fd5b610c51610a31565b90508135610c5e8161062b565b815260208281013590820152604082013567ffffffffffffffff811115610c8457600080fd5b610c9084828501610b29565b60408301525092915050565b6000806000838503610160811215610cb357600080fd5b61012080821215610cc357600080fd5b610ccb610a5a565b9150610cd686610650565b825260208601356020830152604086013560408301526060860135606083015260808601356080830152610d0c60a08701610650565b60a083015260c0868101359083015260e08087013590830152610100808701359083015290935084013567ffffffffffffffff80821115610d4c57600080fd5b610d5887838801610bd0565b9350610140860135915080821115610d6f57600080fd5b506105af86828701610c37565b6000815160808452610d916080850182610967565b905060208301518482036020860152610daa8282610967565b91505073ffffffffffffffffffffffffffffffffffffffff6040840151166040850152606083015160608501528091505092915050565b6000815160608452610df66060850182610d7c565b905073ffffffffffffffffffffffffffffffffffffffff6020840151166020850152604083015160408501528091505092915050565b73ffffffffffffffffffffffffffffffffffffffff81511682526020810151602083015260006040820151606060408501526101b26060850182610d7c565b600061016073ffffffffffffffffffffffffffffffffffffffff86511683526020860151602084015260408601516040840152606086015160608401526080860151608084015260a0860151610ed960a085018273ffffffffffffffffffffffffffffffffffffffff169052565b5060c086015160c084015260e086015160e084015261010080870151818501525080610120840152610f0d81840186610de1565b905082810361014084015261095d8185610e2c56fea2646970667358221220da25f1ceae3b9ba0fa0a185cad75b6b17d7e4300116a26747eb806b957bed0e864736f6c634300080a00336101606040523480156200001257600080fd5b50604051620059ec380380620059ec83398101604081905262000035916200016f565b60208101516001600160a01b03908116610120528151811661010052604080830151821660e052606083015190911660c05251600090620000769062000144565b604051809103906000f08015801562000093573d6000803e3d6000fd5b506001600160a01b03818116608081815285810180516101405260a0808801805182526020808a01518a516040808d01516060808f0151985196518351338152958d1696860196909652928b1691840191909152891690820152939096169383019390935281019290925260c082015260e08101919091529091507f3b46443002e892688873cf730dd0855e18094203835008979109e8402f3012fc906101000160405180910390a150506200021a565b61165f806200438d83390190565b80516001600160a01b03811681146200016a57600080fd5b919050565b600060c082840312156200018257600080fd5b60405160c081016001600160401b0381118282101715620001b357634e487b7160e01b600052604160045260246000fd5b604052620001c18362000152565b8152620001d16020840162000152565b6020820152620001e46040840162000152565b6040820152620001f76060840162000152565b60608201526080830151608082015260a083015160a08201528091505092915050565b60805160a05160c05160e05161010051610120516101405161411862000275600039600061037b01526000612c0501526000612bc90152600061270c015260006128fb01526000611543015260006127ea01526141186000f3fe608060405234801561001057600080fd5b50600436106101005760003560e01c8063b45ba71811610097578063cd3293de11610066578063cd3293de14610210578063f9020e331461022e578063fc0c546a14610243578063fdafb7171461026157600080fd5b8063b45ba718146101da578063b8b37916146101e2578063b8ffd02c146101ea578063bf080f56146101fd57600080fd5b8063634991af116100d3578063634991af146101775780636642de101461018a5780639923c94b1461019d578063a1b140b6146101c557600080fd5b8063055ad42e14610105578063341935f5146101205780633fd8108e1461012a5780635422e28c1461016f575b600080fd5b61010d610269565b6040519081526020015b60405180910390f35b6101286102d3565b005b60065461014a9073ffffffffffffffffffffffffffffffffffffffff1681565b60405173ffffffffffffffffffffffffffffffffffffffff9091168152602001610117565b6101286102e5565b61010d6101853660046135d6565b610486565b6101286101983660046136a1565b6104dc565b6101b06101ab3660046136cd565b61069e565b60405163ffffffff9091168152602001610117565b6101cd6106ce565b6040516101179190613715565b610128610852565b610128610bec565b61010d6101f83660046135d6565b6110ef565b61012861020b36600461394d565b61112e565b60055473ffffffffffffffffffffffffffffffffffffffff1661014a565b6102366117b3565b6040516101179190613a37565b60045473ffffffffffffffffffffffffffffffffffffffff1661014a565b6101286117ef565b604080516101008101918290526000916102ce919083906008908280855b82829054906101000a900463ffffffff1663ffffffff1681526020019060040190602082600301049283019260010382029150808411610287579050505050505043610486565b905090565b6102db610bec565b6102e36117ef565b565b6003806102f0610269565b101561035d576040517f08c379a000000000000000000000000000000000000000000000000000000000815260206004820152600960248201527f4d494e5f5048415345000000000000000000000000000000000000000000000060448201526064015b60405180910390fd5b6000610367610269565b6040805161010081019182905291925043917f0000000000000000000000000000000000000000000000000000000000000000916103f191906000906008908280855b82829054906101000a900463ffffffff1663ffffffff16815260200190600401906020826003010492830192600103820291508084116103aa5790505050505050846110ef565b6103fb9190613a7a565b1115610463576040517f08c379a000000000000000000000000000000000000000000000000000000000815260206004820152600d60248201527f4541524c595f52454c45415345000000000000000000000000000000000000006044820152606401610354565b600381141561047757610477600443611ac5565b610482600543611ac5565b5050565b6000805b60088110156104d0578381600881106104a5576104a5613a92565b602002015163ffffffff168310156104be5790506104d6565b806104c881613ac1565b91505061048a565b50600890505b92915050565b6005806104e7610269565b1461054e576040517f08c379a000000000000000000000000000000000000000000000000000000000815260206004820152600960248201527f4241445f504841534500000000000000000000000000000000000000000000006044820152606401610354565b60055473ffffffffffffffffffffffffffffffffffffffff84811691161480610591575060045473ffffffffffffffffffffffffffffffffffffffff8481169116145b806105b6575060065473ffffffffffffffffffffffffffffffffffffffff8481169116145b61061c576040517f08c379a000000000000000000000000000000000000000000000000000000000815260206004820152600d60248201527f554e4b4e4f574e5f544f4b454e000000000000000000000000000000000000006044820152606401610354565b6040805133815273ffffffffffffffffffffffffffffffffffffffff851660208201529081018390527ff78c6ab7f5da48a42db1a0e1eafa1db1c639eaa3cddbce5e1a850e8335762be69060600160405180910390a16009546106999073ffffffffffffffffffffffffffffffffffffffff858116911684611d6e565b505050565b600081600881106106ae57600080fd5b60089182820401919006600402915054906101000a900463ffffffff1681565b6000806106d9610269565b9050806106e857600091505090565b600181141561079b576007546005546040517f70a0823100000000000000000000000000000000000000000000000000000000815230600482015273ffffffffffffffffffffffffffffffffffffffff909116906370a0823190602401602060405180830381865afa158015610762573d6000803e3d6000fd5b505050506040513d601f19601f820116820180604052508101906107869190613afa565b1061079357600191505090565b600091505090565b60028114156107ac57600291505090565b60038114156107bd57600391505090565b60048114806107cc5750600581145b156107ec57600354600254106107e457600491505090565b600591505090565b6040517f08c379a000000000000000000000000000000000000000000000000000000000815260206004820152601260248201527f554e4b4e4f574e5f504f4f4c5f504841534500000000000000000000000000006044820152606401610354565b5090565b60018061085d610269565b146108c4576040517f08c379a000000000000000000000000000000000000000000000000000000000815260206004820152600960248201527f4241445f504841534500000000000000000000000000000000000000000000006044820152606401610354565b600043600c546108d49190613a7a565b90506108e1600243611ac5565b6108f660036108f1836001613a7a565b611ac5565b604080516002808252606082018352600092602083019080368337019050509050670de0b6b3a76400008160008151811061093357610933613a92565b602002602001018181525050600d548160018151811061095557610955613a92565b602090810291909101015260065473ffffffffffffffffffffffffffffffffffffffff168063c3391d27610995670de0b6b3a7640000633b9aca00613b13565b6040517fffffffff0000000000000000000000000000000000000000000000000000000060e084901b16815260048101919091526000602482018190526044820152606401600060405180830381600087803b1580156109f457600080fd5b505af1158015610a08573d6000803e3d6000fd5b5050505060008173ffffffffffffffffffffffffffffffffffffffff1663b64ef17b6040518163ffffffff1660e01b8152600401602060405180830381865afa158015610a59573d6000803e3d6000fd5b505050506040513d601f19601f82011682018060405250810190610a7d9190613b50565b6040805133815273ffffffffffffffffffffffffffffffffffffffff831660208201529081018690529091507f11c4af897467273e02b712af422f0e33863936f79975995dce76dd33408b5c2d9060600160405180910390a1600480546040517f3833be6200000000000000000000000000000000000000000000000000000000815273ffffffffffffffffffffffffffffffffffffffff84811693820193909352911690633833be6290602401600060405180830381600087803b158015610b4557600080fd5b505af1158015610b59573d6000803e3d6000fd5b50506040517f246bc19b00000000000000000000000000000000000000000000000000000000815273ffffffffffffffffffffffffffffffffffffffff8516925063246bc19b9150610bb390869043908990600401613ba8565b600060405180830381600087803b158015610bcd57600080fd5b505af1158015610be1573d6000803e3d6000fd5b505050505050505050565b600380610bf7610269565b14610c5e576040517f08c379a000000000000000000000000000000000000000000000000000000000815260206004820152600960248201527f4241445f504841534500000000000000000000000000000000000000000000006044820152606401610354565b610c69600443611ac5565b610c71611ef0565b600654604080517fb64ef17b000000000000000000000000000000000000000000000000000000008152905160009273ffffffffffffffffffffffffffffffffffffffff169163b64ef17b9160048083019260209291908290030181865afa158015610ce1573d6000803e3d6000fd5b505050506040513d601f19601f82011682018060405250810190610d059190613b50565b600480546040517f70a082310000000000000000000000000000000000000000000000000000000081523092810192909252919250610dc391839173ffffffffffffffffffffffffffffffffffffffff909116906370a0823190602401602060405180830381865afa158015610d7f573d6000803e3d6000fd5b505050506040513d601f19601f82011682018060405250810190610da39190613afa565b60045473ffffffffffffffffffffffffffffffffffffffff1691906123a1565b600480546040517f8b24259b00000000000000000000000000000000000000000000000000000000815273ffffffffffffffffffffffffffffffffffffffff84811693820193909352911690638b24259b90602401600060405180830381600087803b158015610e3257600080fd5b505af1158015610e46573d6000803e3d6000fd5b50506005546040517f70a082310000000000000000000000000000000000000000000000000000000081523060048201526000935073ffffffffffffffffffffffffffffffffffffffff90911691506370a0823190602401602060405180830381865afa158015610ebb573d6000803e3d6000fd5b505050506040513d601f19601f82011682018060405250810190610edf9190613afa565b6002819055600354600754919250821080159190610f0857600a54610f059082906123f7565b90505b610f128184612433565b905060008080610f22868561244b565b90508415610f4a57600b54610f379082612433565b9250610f43818461244b565b9150610f4e565b8092505b6005546040517f70a0823100000000000000000000000000000000000000000000000000000000815273ffffffffffffffffffffffffffffffffffffffff89811660048301527fc403d71c903123c0350567a0b3670743d0f9daae64a88f5d66e0fd22883727859233928a92899288928a92909116906370a0823190602401602060405180830381865afa158015610fea573d6000803e3d6000fd5b505050506040513d601f19601f8201168201806040525081019061100e9190613afa565b6040805173ffffffffffffffffffffffffffffffffffffffff90971687526020870195909552938501929092526060840152608083015260a082015260c00160405180910390a18315611085576001546005546110859173ffffffffffffffffffffffffffffffffffffffff918216911686611d6e565b81156110b5576009546005546110b59173ffffffffffffffffffffffffffffffffffffffff918216911684611d6e565b82156110e5576004546005546110e59173ffffffffffffffffffffffffffffffffffffffff918216911685611d6e565b5050505050505050565b60008082116110ff576000611121565b8261110b600184613bcd565b6008811061111b5761111b613a92565b60200201515b63ffffffff169392505050565b611136612461565b6000611140610269565b146111a7576040517f08c379a000000000000000000000000000000000000000000000000000000000815260206004820152600960248201527f4241445f504841534500000000000000000000000000000000000000000000006044820152606401610354565b6111b2600143611ac5565b60a083015173ffffffffffffffffffffffffffffffffffffffff16611233576040517f08c379a000000000000000000000000000000000000000000000000000000000815260206004820152600960248201527f43524541544f525f3000000000000000000000000000000000000000000000006044820152606401610354565b825173ffffffffffffffffffffffffffffffffffffffff166112b1576040517f08c379a000000000000000000000000000000000000000000000000000000000815260206004820152600960248201527f524553455256455f3000000000000000000000000000000000000000000000006044820152606401610354565b6305f5e10083602001511015611323576040517f08c379a000000000000000000000000000000000000000000000000000000000815260206004820152601460248201527f524553455256455f494e49545f4d494e494d554d0000000000000000000000006044820152606401610354565b826060015183604001511015611395576040517f08c379a000000000000000000000000000000000000000000000000000000000815260206004820152601560248201527f4d494e5f494e495449414c5f56414c554154494f4e00000000000000000000006044820152606401610354565b60a08301516009805473ffffffffffffffffffffffffffffffffffffffff9283167fffffffffffffffffffffffff000000000000000000000000000000000000000091821617909155845160058054919093169116179055602083015160075560c0830151611460576040517f08c379a000000000000000000000000000000000000000000000000000000000815260206004820152600b60248201527f4d494e5f52414953455f300000000000000000000000000000000000000000006044820152606401610354565b60c083015160085560e0830151600a55610100830151600b556020830151606084015161148d9190612510565b600d5560c083015161010084015160e0850151602086015160009392916114b391613a7a565b6114bd9190613a7a565b6114c79190613a7a565b90508084606001511015611537576040517f08c379a000000000000000000000000000000000000000000000000000000000815260206004820152601360248201527f4d494e5f46494e414c5f56414c554154494f4e000000000000000000000000006044820152606401610354565b600381905560808401517f000000000000000000000000000000000000000000000000000000000000000010156115ca576040517f08c379a000000000000000000000000000000000000000000000000000000000815260206004820152601260248201527f4d41585f52414953455f4455524154494f4e00000000000000000000000000006044820152606401610354565b6000846080015111611638576040517f08c379a000000000000000000000000000000000000000000000000000000000815260206004820152601260248201527f305f54524144494e475f4455524154494f4e00000000000000000000000000006044820152606401610354565b6080840151600c55600061164c858561263c565b600480547fffffffffffffffffffffffff00000000000000000000000000000000000000001673ffffffffffffffffffffffffffffffffffffffff83161790559050600061169a868561285a565b600180547fffffffffffffffffffffffff00000000000000000000000000000000000000001673ffffffffffffffffffffffffffffffffffffffff838116919091179091556040805160a08101825289518316815291851660208084019190915289015182820152875160609081015190830152880151608082015290915060009061172590612a29565b600680547fffffffffffffffffffffffff00000000000000000000000000000000000000001673ffffffffffffffffffffffffffffffffffffffff83161790556040519091507fb8990d778a15ad364ca01d5bc6e6751857db983fa1a2749b9666b7e0a10b1e18906117a29033908a908590879089908b90613be4565b60405180910390a150505050505050565b6000806117be610269565b905060048114806117cf5750600581145b1561079357600354600254106117e757600291505090565b600391505090565b6004806117fa610269565b1015611862576040517f08c379a000000000000000000000000000000000000000000000000000000000815260206004820152600960248201527f4d494e5f504841534500000000000000000000000000000000000000000000006044820152606401610354565b600554600480546009546001546040517fdd62ed3e000000000000000000000000000000000000000000000000000000008152309481019490945273ffffffffffffffffffffffffffffffffffffffff918216602485018190529482169492821693911690600090859063dd62ed3e90604401602060405180830381865afa1580156118f2573d6000803e3d6000fd5b505050506040513d601f19601f820116820180604052508101906119169190613afa565b6040517fdd62ed3e00000000000000000000000000000000000000000000000000000000815230600482015273ffffffffffffffffffffffffffffffffffffffff848116602483015291925060009187169063dd62ed3e90604401602060405180830381865afa15801561198e573d6000803e3d6000fd5b505050506040513d601f19601f820116820180604052508101906119b29190613afa565b6040517fdd62ed3e00000000000000000000000000000000000000000000000000000000815230600482015273ffffffffffffffffffffffffffffffffffffffff878116602483015291925060009188169063dd62ed3e90604401602060405180830381865afa158015611a2a573d6000803e3d6000fd5b505050506040513d601f19601f82011682018060405250810190611a4e9190613afa565b90508215611a7757611a7773ffffffffffffffffffffffffffffffffffffffff881686856123a1565b8115611a9e57611a9e73ffffffffffffffffffffffffffffffffffffffff881685846123a1565b80156110e5576110e573ffffffffffffffffffffffffffffffffffffffff881687836123a1565b80431115611b2f576040517f08c379a000000000000000000000000000000000000000000000000000000000815260206004820152600f60248201527f4e4558545f424c4f434b5f5041535400000000000000000000000000000000006044820152606401610354565b63ffffffff8110611b9c576040517f08c379a000000000000000000000000000000000000000000000000000000000815260206004820152601860248201527f4e4558545f424c4f434b5f554e494e495449414c495a454400000000000000006044820152606401610354565b7fffffffffffffffffffffffffffffffffffffffffffffffffffffffffffffffff820180611bc8610269565b14611c2f576040517f08c379a000000000000000000000000000000000000000000000000000000000815260206004820152600a60248201527f4e4558545f5048415345000000000000000000000000000000000000000000006044820152606401610354565b60008160088110611c4257611c42613a92565b60088104919091015460079091166004026101000a900463ffffffff90811614611cc8576040517f08c379a000000000000000000000000000000000000000000000000000000000815260206004820152600e60248201527f4e4558545f424c4f434b5f5345540000000000000000000000000000000000006044820152606401610354565b8160008260088110611cdc57611cdc613a92565b600891828204019190066004026101000a81548163ffffffff021916908363ffffffff1602179055507fba85f6676f17ca992195e3cb204ae48c68666b109edc14a794e5d894387d25d3338484604051611d619392919073ffffffffffffffffffffffffffffffffffffffff9390931683526020830191909152604082015260600190565b60405180910390a1505050565b6040517fdd62ed3e00000000000000000000000000000000000000000000000000000000815230600482015273ffffffffffffffffffffffffffffffffffffffff8381166024830152600091839186169063dd62ed3e90604401602060405180830381865afa158015611de5573d6000803e3d6000fd5b505050506040513d601f19601f82011682018060405250810190611e099190613afa565b611e139190613a7a565b60405173ffffffffffffffffffffffffffffffffffffffff8516602482015260448101829052909150611eea9085907f095ea7b300000000000000000000000000000000000000000000000000000000906064015b604080517fffffffffffffffffffffffffffffffffffffffffffffffffffffffffffffffe08184030181529190526020810180517bffffffffffffffffffffffffffffffffffffffffffffffffffffffff167fffffffff0000000000000000000000000000000000000000000000000000000090931692909217909152613083565b50505050565b600654604080517fb64ef17b000000000000000000000000000000000000000000000000000000008152905160009273ffffffffffffffffffffffffffffffffffffffff169163b64ef17b9160048083019260209291908290030181865afa158015611f60573d6000803e3d6000fd5b505050506040513d601f19601f82011682018060405250810190611f849190613b50565b6005546040517f8c28cbe800000000000000000000000000000000000000000000000000000000815273ffffffffffffffffffffffffffffffffffffffff9182166004820152919250821690638c28cbe890602401600060405180830381600087803b158015611ff357600080fd5b505af1158015612007573d6000803e3d6000fd5b5050600480546040517f8c28cbe800000000000000000000000000000000000000000000000000000000815273ffffffffffffffffffffffffffffffffffffffff9182169281019290925284169250638c28cbe89150602401600060405180830381600087803b15801561207a57600080fd5b505af115801561208e573d6000803e3d6000fd5b505050506000600660009054906101000a900473ffffffffffffffffffffffffffffffffffffffff1673ffffffffffffffffffffffffffffffffffffffff166318160ddd6040518163ffffffff1660e01b8152600401602060405180830381865afa158015612101573d6000803e3d6000fd5b505050506040513d601f19601f820116820180604052508101906121259190613afa565b6005546040517ff8b2cb4f00000000000000000000000000000000000000000000000000000000815273ffffffffffffffffffffffffffffffffffffffff91821660048201529192506000919084169063f8b2cb4f90602401602060405180830381865afa15801561219b573d6000803e3d6000fd5b505050506040513d601f19601f820116820180604052508101906121bf9190613afa565b6121cc620f42418461318f565b6121d69190613d22565b600480546040517ff8b2cb4f00000000000000000000000000000000000000000000000000000000815273ffffffffffffffffffffffffffffffffffffffff9182169281019290925291925060009185169063f8b2cb4f90602401602060405180830381865afa15801561224e573d6000803e3d6000fd5b505050506040513d601f19601f820116820180604052508101906122729190613afa565b61227f620f42418561318f565b6122899190613d22565b905060006122ac826122a68581670de0b6b3a76400006064613b13565b906131be565b6122b7906001613a7a565b6006546040517f70a0823100000000000000000000000000000000000000000000000000000000815230600482015291925073ffffffffffffffffffffffffffffffffffffffff169063b02f0b73906123669083906370a0823190602401602060405180830381865afa158015612332573d6000803e3d6000fd5b505050506040513d601f19601f820116820180604052508101906123569190613afa565b612360888661244b565b90612433565b6040805160028082526060820183529091602083019080368337019050506040518363ffffffff1660e01b8152600401610bb3929190613d36565b60405173ffffffffffffffffffffffffffffffffffffffff83166024820152604481018290526106999084907fa9059cbb0000000000000000000000000000000000000000000000000000000090606401611e68565b6000828201838110612409578061242b565b7fffffffffffffffffffffffffffffffffffffffffffffffffffffffffffffffff5b949350505050565b60008183106124425781612444565b825b9392505050565b600081831161245b576000612444565b50900390565b600054600163ffffffff9091161061247b5761247b613d4f565b604080516101008101825263ffffffff80825260208201819052918101829052606081018290526080810182905260a0810182905260c0810182905260e08101919091526124cc60008260086134b2565b50604080513381526000602082018190528183015290517fba85f6676f17ca992195e3cb204ae48c68666b109edc14a794e5d894387d25d39181900360600190a150565b60008083612526670de0b6b3a764000085613b13565b6125309190613d22565b9050670de0b6b3a76400008110156125a4576040517f08c379a000000000000000000000000000000000000000000000000000000000815260206004820152601460248201527f4d494e5f5745494748545f56414c554154494f4e0000000000000000000000006044820152606401610354565b6125b681670de0b6b3a7640000613a7a565b670de0b6b3a76400006125ca816032613b13565b6125d49190613bcd565b1015612444576040517f08c379a000000000000000000000000000000000000000000000000000000000815260206004820152601460248201527f4d41585f5745494748545f56414c554154494f4e0000000000000000000000006044820152606401610354565b6000826020015182600001516060015110156126b4576040517f08c379a000000000000000000000000000000000000000000000000000000000815260206004820152601060248201527f4d494e5f544f4b454e5f535550504c59000000000000000000000000000000006044820152606401610354565b815130604091820152805160a081018252845173ffffffffffffffffffffffffffffffffffffffff908116825284516020808401919091528086015182168385015283860151606084015260006080840181905293517f000000000000000000000000000000000000000000000000000000000000000090921692632ea72a499261273f9201613e59565b6040516020818303038152906040526040518263ffffffff1660e01b815260040161276a9190613ec5565b6020604051808303816000875af1158015612789573d6000803e3d6000fd5b505050506040513d601f19601f820116820180604052508101906127ad9190613b50565b6040517f3833be6200000000000000000000000000000000000000000000000000000000815273ffffffffffffffffffffffffffffffffffffffff7f00000000000000000000000000000000000000000000000000000000000000008116600483015291925090821690633833be6290602401600060405180830381600087803b15801561283a57600080fd5b505af115801561284e573d6000803e3d6000fd5b50929695505050505050565b805160009073ffffffffffffffffffffffffffffffffffffffff81166124445782604001516060015184602001516128929190613ed8565b156128f9576040517f08c379a000000000000000000000000000000000000000000000000000000000815260206004820152601560248201527f534545445f50524943455f4d554c5449504c49455200000000000000000000006044820152606401610354565b7f000000000000000000000000000000000000000000000000000000000000000073ffffffffffffffffffffffffffffffffffffffff16632ea72a496040518060a00160405280876000015173ffffffffffffffffffffffffffffffffffffffff1681526020013073ffffffffffffffffffffffffffffffffffffffff16815260200186604001516060015188602001516129949190613d22565b81526020018660200151815260200186604001518152506040516020016129bb9190613eec565b6040516020818303038152906040526040518263ffffffff1660e01b81526004016129e69190613ec5565b6020604051808303816000875af1158015612a05573d6000803e3d6000fd5b505050506040513d601f19601f8201168201806040525081019061242b9190613b50565b60408051600280825260608201835260009283929190602083019080368337019050509050826000015181600081518110612a6657612a66613a92565b602002602001019073ffffffffffffffffffffffffffffffffffffffff16908173ffffffffffffffffffffffffffffffffffffffff1681525050826020015181600181518110612ab857612ab8613a92565b73ffffffffffffffffffffffffffffffffffffffff929092166020928302919091018201526040805160028082526060820183526000939192909183019080368337019050509050836040015181600081518110612b1857612b18613a92565b602002602001018181525050836060015181600181518110612b3c57612b3c613a92565b602090810291909101015260408051600280825260608201909252600091816020016020820280368337019050509050670de0b6b3a764000081600081518110612b8857612b88613a92565b602002602001018181525050612ba685604001518660800151612510565b81600181518110612bb957612bb9613a92565b60200260200101818152505060007f000000000000000000000000000000000000000000000000000000000000000073ffffffffffffffffffffffffffffffffffffffff16634420002b7f00000000000000000000000000000000000000000000000000000000000000006040518060c001604052806040518060400160405280600481526020017f523230500000000000000000000000000000000000000000000000000000000081525081526020016040518060400160405280601381526020017f52656465656d61626c654552433230506f6f6c000000000000000000000000008152508152602001888152602001878152602001868152602001620f4240670de0b6b3a7640000612cce9190613d22565b90526040805160c081018252600080825260208201819052600182840181905260608301829052608083015260a082015290517fffffffff0000000000000000000000000000000000000000000000000000000060e086901b168152612d3993929190600401613f49565b6020604051808303816000875af1158015612d58573d6000803e3d6000fd5b505050506040513d601f19601f82011682018060405250810190612d7c9190613b50565b9050856020015173ffffffffffffffffffffffffffffffffffffffff16633833be628273ffffffffffffffffffffffffffffffffffffffff16630a1659406040518163ffffffff1660e01b8152600401602060405180830381865afa158015612de9573d6000803e3d6000fd5b505050506040513d601f19601f82011682018060405250810190612e0d9190613b50565b6040517fffffffff0000000000000000000000000000000000000000000000000000000060e084901b16815273ffffffffffffffffffffffffffffffffffffffff9091166004820152602401600060405180830381600087803b158015612e7357600080fd5b505af1158015612e87573d6000803e3d6000fd5b50505060208701516040517f3833be6200000000000000000000000000000000000000000000000000000000815230600482015273ffffffffffffffffffffffffffffffffffffffff9091169150633833be6290602401600060405180830381600087803b158015612ef857600080fd5b505af1158015612f0c573d6000803e3d6000fd5b50505060208701516040517f3833be6200000000000000000000000000000000000000000000000000000000815273ffffffffffffffffffffffffffffffffffffffff84811660048301529091169150633833be6290602401600060405180830381600087803b158015612f7f57600080fd5b505af1158015612f93573d6000803e3d6000fd5b50505060208701516040517fe7ae91fe00000000000000000000000000000000000000000000000000000000815273ffffffffffffffffffffffffffffffffffffffff8481166004830152909116915063e7ae91fe90602401600060405180830381600087803b15801561300657600080fd5b505af115801561301a573d6000803e3d6000fd5b50505060408701518751613047925073ffffffffffffffffffffffffffffffffffffffff169083906131ce565b61307a818760600151886020015173ffffffffffffffffffffffffffffffffffffffff166131ce9092919063ffffffff16565b95945050505050565b60006130e5826040518060400160405280602081526020017f5361666545524332303a206c6f772d6c6576656c2063616c6c206661696c65648152508573ffffffffffffffffffffffffffffffffffffffff166133509092919063ffffffff16565b805190915015610699578080602001905181019061310391906140a4565b610699576040517f08c379a000000000000000000000000000000000000000000000000000000000815260206004820152602a60248201527f5361666545524332303a204552433230206f7065726174696f6e20646964206e60448201527f6f742073756363656564000000000000000000000000000000000000000000006064820152608401610354565b60008261319e575060006104d6565b828202828482816131b1576131b1613cf3565b041415612409578061242b565b6000818310156124425781612444565b80158061326e57506040517fdd62ed3e00000000000000000000000000000000000000000000000000000000815230600482015273ffffffffffffffffffffffffffffffffffffffff838116602483015284169063dd62ed3e90604401602060405180830381865afa158015613248573d6000803e3d6000fd5b505050506040513d601f19601f8201168201806040525081019061326c9190613afa565b155b6132fa576040517f08c379a000000000000000000000000000000000000000000000000000000000815260206004820152603660248201527f5361666545524332303a20617070726f76652066726f6d206e6f6e2d7a65726f60448201527f20746f206e6f6e2d7a65726f20616c6c6f77616e6365000000000000000000006064820152608401610354565b60405173ffffffffffffffffffffffffffffffffffffffff83166024820152604481018290526106999084907f095ea7b30000000000000000000000000000000000000000000000000000000090606401611e68565b606061242b84846000858573ffffffffffffffffffffffffffffffffffffffff85163b6133d9576040517f08c379a000000000000000000000000000000000000000000000000000000000815260206004820152601d60248201527f416464726573733a2063616c6c20746f206e6f6e2d636f6e74726163740000006044820152606401610354565b6000808673ffffffffffffffffffffffffffffffffffffffff16858760405161340291906140c6565b60006040518083038185875af1925050503d806000811461343f576040519150601f19603f3d011682016040523d82523d6000602084013e613444565b606091505b509150915061345482828661345f565b979650505050505050565b6060831561346e575081612444565b82511561347e5782518084602001fd5b816040517f08c379a00000000000000000000000000000000000000000000000000000000081526004016103549190613ec5565b60018301918390821561353e5791602002820160005b8382111561350c57835183826101000a81548163ffffffff021916908363ffffffff16021790555092602001926004016020816003010492830192600103026134c8565b801561353c5782816101000a81549063ffffffff021916905560040160208160030104928301926001030261350c565b505b5061084e9291505b8082111561084e5760008155600101613546565b7f4e487b7100000000000000000000000000000000000000000000000000000000600052604160045260246000fd5b6040516060810167ffffffffffffffff811182821017156135ac576135ac61355a565b60405290565b604051610120810167ffffffffffffffff811182821017156135ac576135ac61355a565b60008061012083850312156135ea57600080fd5b83601f8401126135f957600080fd5b60405161010080820182811067ffffffffffffffff8211171561361e5761361e61355a565b6040528401818682111561363157600080fd5b855b8281101561365e57803563ffffffff811681146136505760008081fd5b825260209182019101613633565b509196903595509350505050565b73ffffffffffffffffffffffffffffffffffffffff8116811461368e57600080fd5b50565b803561369c8161366c565b919050565b600080604083850312156136b457600080fd5b82356136bf8161366c565b946020939093013593505050565b6000602082840312156136df57600080fd5b5035919050565b7f4e487b7100000000000000000000000000000000000000000000000000000000600052602160045260246000fd5b6020810160068310613729576137296136e6565b91905290565b600082601f83011261374057600080fd5b813567ffffffffffffffff8082111561375b5761375b61355a565b604051601f83017fffffffffffffffffffffffffffffffffffffffffffffffffffffffffffffffe0908116603f011681019082821181831017156137a1576137a161355a565b816040528381528660208588010111156137ba57600080fd5b836020870160208301376000602085830101528094505050505092915050565b6000608082840312156137ec57600080fd5b6040516080810167ffffffffffffffff82821081831117156138105761381061355a565b81604052829350843591508082111561382857600080fd5b6138348683870161372f565b8352602085013591508082111561384a57600080fd5b506138578582860161372f565b602083015250604083013561386b8161366c565b6040820152606092830135920191909152919050565b60006060828403121561389357600080fd5b61389b613589565b9050813567ffffffffffffffff8111156138b457600080fd5b6138c0848285016137da565b82525060208201356138d18161366c565b806020830152506040820135604082015292915050565b6000606082840312156138fa57600080fd5b613902613589565b9050813561390f8161366c565b815260208281013590820152604082013567ffffffffffffffff81111561393557600080fd5b613941848285016137da565b60408301525092915050565b600080600083850361016081121561396457600080fd5b6101208082121561397457600080fd5b61397c6135b2565b915061398786613691565b8252602086013560208301526040860135604083015260608601356060830152608086013560808301526139bd60a08701613691565b60a083015260c0868101359083015260e08087013590830152610100808701359083015290935084013567ffffffffffffffff808211156139fd57600080fd5b613a0987838801613881565b9350610140860135915080821115613a2057600080fd5b50613a2d868287016138e8565b9150509250925092565b6020810160048310613729576137296136e6565b7f4e487b7100000000000000000000000000000000000000000000000000000000600052601160045260246000fd5b60008219821115613a8d57613a8d613a4b565b500190565b7f4e487b7100000000000000000000000000000000000000000000000000000000600052603260045260246000fd5b60007fffffffffffffffffffffffffffffffffffffffffffffffffffffffffffffffff821415613af357613af3613a4b565b5060010190565b600060208284031215613b0c57600080fd5b5051919050565b6000817fffffffffffffffffffffffffffffffffffffffffffffffffffffffffffffffff0483118215151615613b4b57613b4b613a4b565b500290565b600060208284031215613b6257600080fd5b81516124448161366c565b600081518084526020808501945080840160005b83811015613b9d57815187529582019590820190600101613b81565b509495945050505050565b606081526000613bbb6060830186613b6d565b60208301949094525060400152919050565b600082821015613bdf57613bdf613a4b565b500390565b60006101c08201905073ffffffffffffffffffffffffffffffffffffffff808916835280885116602084015250602087015160408301526040870151606083015260608701516080830152608087015160a083015260a0870151613c6060c084018273ffffffffffffffffffffffffffffffffffffffff169052565b5060c087015160e083015260e08701516101008181850152808901516101208501525050613ca761014083018773ffffffffffffffffffffffffffffffffffffffff169052565b73ffffffffffffffffffffffffffffffffffffffff851661016083015273ffffffffffffffffffffffffffffffffffffffff8416610180830152826101a0830152979650505050505050565b7f4e487b7100000000000000000000000000000000000000000000000000000000600052601260045260246000fd5b600082613d3157613d31613cf3565b500490565b82815260406020820152600061242b6040830184613b6d565b7f4e487b7100000000000000000000000000000000000000000000000000000000600052600160045260246000fd5b60005b83811015613d99578181015183820152602001613d81565b83811115611eea5750506000910152565b60008151808452613dc2816020860160208601613d7e565b601f017fffffffffffffffffffffffffffffffffffffffffffffffffffffffffffffffe0169290920160200192915050565b6000815160808452613e096080850182613daa565b905060208301518482036020860152613e228282613daa565b91505073ffffffffffffffffffffffffffffffffffffffff6040840151166040850152606083015160608501528091505092915050565b60208152600073ffffffffffffffffffffffffffffffffffffffff808451166020840152602084015160a06040850152613e9660c0850182613df4565b9050816040860151166060850152606085015160808501528160808601511660a0850152809250505092915050565b6020815260006124446020830184613daa565b600082613ee757613ee7613cf3565b500690565b60208152600073ffffffffffffffffffffffffffffffffffffffff808451166020840152806020850151166040840152506040830151606083015260608301516080830152608083015160a08084015261242b60c0840182613df4565b600061010073ffffffffffffffffffffffffffffffffffffffff808716845260208281860152865160c084870152613f856101c0870182613daa565b935050808701517fffffffffffffffffffffffffffffffffffffffffffffffffffffffffffffff008087860301610120880152613fc28583613daa565b60408a015188820383016101408a01528051808352908501965060009350908401905b8084101561400757865186168252958401956001939093019290840190613fe5565b5060608a0151955081888203016101608901526140248187613b6d565b9550506080890151935080878603016101808801525050506140468282613b6d565b60a08701516101a0860152925061242b915050604083018480511515825260208101511515602083015260408101511515604083015260608101511515606083015260808101511515608083015260a0810151151560a08301525050565b6000602082840312156140b657600080fd5b8151801515811461244457600080fd5b600082516140d8818460208701613d7e565b919091019291505056fea264697066735822122058ac07a7c283949a06785a7c228e245649ab6c80eabf35c05e63e259dcfd0e0e64736f6c634300080a0033608060405234801561001057600080fd5b5061163f806100206000396000f3fe608060405234801561001057600080fd5b50600436106100415760003560e01c80632dbfa73514610046578063db2b292c1461006c578063dc9a7ffb1461007f575b600080fd5b610059610054366004611397565b6100a7565b6040519081526020015b60405180910390f35b61005961007a3660046113d0565b61027c565b61009261008d3660046113ed565b610403565b60408051928352602083019190915201610063565b6000806100b383610832565b905060028160028111156100c9576100c9611446565b14610135576040517f08c379a000000000000000000000000000000000000000000000000000000000815260206004820152600b60248201527f4e4f545f5355434345535300000000000000000000000000000000000000000060448201526064015b60405180910390fd5b73ffffffffffffffffffffffffffffffffffffffff80841660009081526004602090815260408083209388168352929052205480156102745773ffffffffffffffffffffffffffffffffffffffff8416600090815260056020526040812080548392906101a39084906114a4565b909155505073ffffffffffffffffffffffffffffffffffffffff808516600090815260046020908152604080832093891683529290529081208190556101e8856109d6565b6040805133815273ffffffffffffffffffffffffffffffffffffffff898116602083015288811682840152831660608201526080810185905290519192507f4f55a769590f1c0e20a638dce7a4e135e95f8a5ecb2a05e7eef582cce5b5031c919081900360a00190a161027273ffffffffffffffffffffffffffffffffffffffff82168784610b51565b505b949350505050565b60008061028883610832565b9050600181600281111561029e5761029e611446565b14610305576040517f08c379a000000000000000000000000000000000000000000000000000000000815260206004820152600860248201527f4e4f545f4641494c000000000000000000000000000000000000000000000000604482015260640161012c565b73ffffffffffffffffffffffffffffffffffffffff831660009081526005602052604090205480156103fc5773ffffffffffffffffffffffffffffffffffffffff84166000908152600560205260408120819055610362856109d6565b9050600061036f86610c2a565b6040805133815273ffffffffffffffffffffffffffffffffffffffff898116602083015285811682840152831660608201526080810186905290519192507f2faadd4ce8b8be8c10cd95882652e780929619ab27641da75536750ef256ca5d919081900360a00190a16103f973ffffffffffffffffffffffffffffffffffffffff83168285610b51565b50505b9392505050565b60008060008611610470576040517f08c379a000000000000000000000000000000000000000000000000000000000815260206004820152600860248201527f5a45524f5f464545000000000000000000000000000000000000000000000000604482015260640161012c565b600061047b88610832565b600281111561048c5761048c611446565b146104f3576040517f08c379a000000000000000000000000000000000000000000000000000000000815260206004820152600560248201527f454e444544000000000000000000000000000000000000000000000000000000604482015260640161012c565b73ffffffffffffffffffffffffffffffffffffffff8088166000908152600460209081526040808320938c16835292905290812080548892906105379084906114bb565b909155505073ffffffffffffffffffffffffffffffffffffffff8716600090815260056020526040812080548892906105719084906114bb565b9091555060009050610582886109d6565b9050600061058f89610c2a565b9050600061059c8a610da4565b905060008173ffffffffffffffffffffffffffffffffffffffff1663b64ef17b6040518163ffffffff1660e01b8152600401602060405180830381865afa1580156105eb573d6000803e3d6000fd5b505050506040513d601f19601f8201168201806040525081019061060f91906114d3565b90507f6a7dcbbe66188485e365a408a20221fd766c1bb6989b1f5d6f817c258bc67a29338d8d87878f60405161068d9695949392919073ffffffffffffffffffffffffffffffffffffffff9687168152948616602086015292851660408501529084166060840152909216608082015260a081019190915260c00190565b60405180910390a18173ffffffffffffffffffffffffffffffffffffffff1663e211b8756040518163ffffffff1660e01b8152600401600060405180830381600087803b1580156106dd57600080fd5b505af11580156106f1573d6000803e3d6000fd5b5050505061072533308b8d61070691906114bb565b73ffffffffffffffffffffffffffffffffffffffff8816929190610f1e565b61074673ffffffffffffffffffffffffffffffffffffffff8516828b610f82565b6040517f8201aa3f00000000000000000000000000000000000000000000000000000000815273ffffffffffffffffffffffffffffffffffffffff8581166004830152602482018b90528481166044830152606482018a9052608482018990526000918291841690638201aa3f9060a40160408051808303816000875af11580156107d5573d6000803e3d6000fd5b505050506040513d601f19601f820116820180604052508101906107f991906114f0565b909250905061081f73ffffffffffffffffffffffffffffffffffffffff86163384610b51565b909d909c509a5050505050505050505050565b73ffffffffffffffffffffffffffffffffffffffff811660009081526002602052604081205460ff168181600281111561086e5761086e611446565b111561087a5792915050565b60008373ffffffffffffffffffffffffffffffffffffffff1663f9020e336040518163ffffffff1660e01b8152600401602060405180830381865afa1580156108c7573d6000803e3d6000fd5b505050506040513d601f19601f820116820180604052508101906108eb9190611514565b9050600281600381111561090157610901611446565b141561095c5750505073ffffffffffffffffffffffffffffffffffffffff16600090815260026020819052604090912080547fffffffffffffffffffffffffffffffffffffffffffffffffffffffffffffff00168217905590565b600381600381111561097057610970611446565b14156109cc5750505073ffffffffffffffffffffffffffffffffffffffff16600090815260026020526040902080547fffffffffffffffffffffffffffffffffffffffffffffffffffffffffffffff0016600190811790915590565b5060009392505050565b73ffffffffffffffffffffffffffffffffffffffff80821660009081526020819052604081205490911680610b4b5760008373ffffffffffffffffffffffffffffffffffffffff1663cd3293de6040518163ffffffff1660e01b8152600401602060405180830381865afa158015610a52573d6000803e3d6000fd5b505050506040513d601f19601f82011682018060405250810190610a7691906114d3565b905073ffffffffffffffffffffffffffffffffffffffff8116610af5576040517f08c379a000000000000000000000000000000000000000000000000000000000815260206004820152600960248201527f305f524553455256450000000000000000000000000000000000000000000000604482015260640161012c565b73ffffffffffffffffffffffffffffffffffffffff848116600090815260208190526040902080547fffffffffffffffffffffffff00000000000000000000000000000000000000001691831691909117905590505b92915050565b60405173ffffffffffffffffffffffffffffffffffffffff8316602482015260448101829052610c259084907fa9059cbb00000000000000000000000000000000000000000000000000000000906064015b604080517fffffffffffffffffffffffffffffffffffffffffffffffffffffffffffffffe08184030181529190526020810180517bffffffffffffffffffffffffffffffffffffffffffffffffffffffff167fffffffff0000000000000000000000000000000000000000000000000000000090931692909217909152611104565b505050565b73ffffffffffffffffffffffffffffffffffffffff80821660009081526001602052604081205490911680610b4b5760008373ffffffffffffffffffffffffffffffffffffffff1663fc0c546a6040518163ffffffff1660e01b8152600401602060405180830381865afa158015610ca6573d6000803e3d6000fd5b505050506040513d601f19601f82011682018060405250810190610cca91906114d3565b905073ffffffffffffffffffffffffffffffffffffffff8116610d49576040517f08c379a000000000000000000000000000000000000000000000000000000000815260206004820152600760248201527f305f544f4b454e00000000000000000000000000000000000000000000000000604482015260640161012c565b73ffffffffffffffffffffffffffffffffffffffff938416600090815260016020526040902080547fffffffffffffffffffffffff000000000000000000000000000000000000000016948216949094179093555090919050565b73ffffffffffffffffffffffffffffffffffffffff80821660009081526003602052604081205490911680610b4b5760008373ffffffffffffffffffffffffffffffffffffffff16633fd8108e6040518163ffffffff1660e01b8152600401602060405180830381865afa158015610e20573d6000803e3d6000fd5b505050506040513d601f19601f82011682018060405250810190610e4491906114d3565b905073ffffffffffffffffffffffffffffffffffffffff8116610ec3576040517f08c379a000000000000000000000000000000000000000000000000000000000815260206004820152600560248201527f305f435250000000000000000000000000000000000000000000000000000000604482015260640161012c565b73ffffffffffffffffffffffffffffffffffffffff938416600090815260036020526040902080547fffffffffffffffffffffffff000000000000000000000000000000000000000016948216949094179093555090919050565b60405173ffffffffffffffffffffffffffffffffffffffff80851660248301528316604482015260648101829052610f7c9085907f23b872dd0000000000000000000000000000000000000000000000000000000090608401610ba3565b50505050565b80158061102257506040517fdd62ed3e00000000000000000000000000000000000000000000000000000000815230600482015273ffffffffffffffffffffffffffffffffffffffff838116602483015284169063dd62ed3e90604401602060405180830381865afa158015610ffc573d6000803e3d6000fd5b505050506040513d601f19601f820116820180604052508101906110209190611535565b155b6110ae576040517f08c379a000000000000000000000000000000000000000000000000000000000815260206004820152603660248201527f5361666545524332303a20617070726f76652066726f6d206e6f6e2d7a65726f60448201527f20746f206e6f6e2d7a65726f20616c6c6f77616e636500000000000000000000606482015260840161012c565b60405173ffffffffffffffffffffffffffffffffffffffff8316602482015260448101829052610c259084907f095ea7b30000000000000000000000000000000000000000000000000000000090606401610ba3565b6000611166826040518060400160405280602081526020017f5361666545524332303a206c6f772d6c6576656c2063616c6c206661696c65648152508573ffffffffffffffffffffffffffffffffffffffff166112109092919063ffffffff16565b805190915015610c255780806020019051810190611184919061154e565b610c25576040517f08c379a000000000000000000000000000000000000000000000000000000000815260206004820152602a60248201527f5361666545524332303a204552433230206f7065726174696f6e20646964206e60448201527f6f74207375636365656400000000000000000000000000000000000000000000606482015260840161012c565b606061027484846000858573ffffffffffffffffffffffffffffffffffffffff85163b611299576040517f08c379a000000000000000000000000000000000000000000000000000000000815260206004820152601d60248201527f416464726573733a2063616c6c20746f206e6f6e2d636f6e7472616374000000604482015260640161012c565b6000808673ffffffffffffffffffffffffffffffffffffffff1685876040516112c2919061159c565b60006040518083038185875af1925050503d80600081146112ff576040519150601f19603f3d011682016040523d82523d6000602084013e611304565b606091505b509150915061131482828661131f565b979650505050505050565b6060831561132e5750816103fc565b82511561133e5782518084602001fd5b816040517f08c379a000000000000000000000000000000000000000000000000000000000815260040161012c91906115b8565b73ffffffffffffffffffffffffffffffffffffffff8116811461139457600080fd5b50565b600080604083850312156113aa57600080fd5b82356113b581611372565b915060208301356113c581611372565b809150509250929050565b6000602082840312156113e257600080fd5b81356103fc81611372565b60008060008060008060c0878903121561140657600080fd5b863561141181611372565b9550602087013561142181611372565b95989597505050506040840135936060810135936080820135935060a0909101359150565b7f4e487b7100000000000000000000000000000000000000000000000000000000600052602160045260246000fd5b7f4e487b7100000000000000000000000000000000000000000000000000000000600052601160045260246000fd5b6000828210156114b6576114b6611475565b500390565b600082198211156114ce576114ce611475565b500190565b6000602082840312156114e557600080fd5b81516103fc81611372565b6000806040838503121561150357600080fd5b505080516020909101519092909150565b60006020828403121561152657600080fd5b8151600481106103fc57600080fd5b60006020828403121561154757600080fd5b5051919050565b60006020828403121561156057600080fd5b815180151581146103fc57600080fd5b60005b8381101561158b578181015183820152602001611573565b83811115610f7c5750506000910152565b600082516115ae818460208701611570565b9190910192915050565b60208152600082518060208401526115d7816040850160208701611570565b601f017fffffffffffffffffffffffffffffffffffffffffffffffffffffffffffffffe016919091016040019291505056fea26469706673582212204486c45b315c85169579ea37ce2917242fae583cb5c7b6a2574b154a2d6074a964736f6c634300080a0033",
  "devdoc": {
    "details": "Factory for creating and registering new Trust contracts.",
    "kind": "dev",
    "methods": {
      "constructor": {
        "params": {
          "config_": "All configuration for the `TrustFactory`."
        }
      },
      "createChild(bytes)": {
        "params": {
          "data_": "Encoded data to pass down to child contract constructor."
        },
        "returns": {
          "_0": "New child contract address."
        }
      },
      "createChildTyped((address,uint256,uint256,uint256,uint256,address,uint256,uint256,uint256),((string,string,address,uint256),address,uint256),(address,uint256,(string,string,address,uint256)))": {
        "params": {
          "trustConfig_": "Trust constructor configuration.",
          "trustRedeemableERC20Config_": "RedeemableERC20 constructor configuration.",
          "trustSeedERC20Config_": "SeedERC20 constructor configuration."
        },
        "returns": {
          "_0": "New Trust child contract address."
        }
      },
      "isChild(address)": {
        "params": {
          "maybeChild_": "Address of child contract to look up."
        },
        "returns": {
          "_0": "Returns `true` if address is a contract created by this contract factory, otherwise `false`."
        }
      }
    },
    "title": "TrustFactory",
    "version": 1
  },
  "userdoc": {
    "events": {
      "Implementation(address,address)": {
        "notice": "Factories that clone a template contract MUST emit an event any time they set the implementation being cloned. Factories that deploy new contracts without cloning do NOT need to emit this."
      },
      "NewChild(address,address)": {
        "notice": "Whenever a new child contract is deployed, a `NewChild` event containing the new child contract address MUST be emitted."
      }
    },
    "kind": "user",
    "methods": {
      "constructor": {
        "notice": "Build the reference implementation to clone for each child."
      },
      "createChild(bytes)": {
        "notice": "Implements `IFactory`. Calls the `_createChild` hook that inheriting contracts must override. Registers child contract address such that `isChild` is `true`. Emits `NewChild` event."
      },
      "createChildTyped((address,uint256,uint256,uint256,uint256,address,uint256,uint256,uint256),((string,string,address,uint256),address,uint256),(address,uint256,(string,string,address,uint256)))": {
        "notice": "Allows calling `createChild` with TrustConfig, TrustRedeemableERC20Config and TrustRedeemableERC20PoolConfig parameters. Can use original Factory `createChild` function signature if function parameters are already encoded."
      },
      "implementation()": {
        "notice": "Template contract to clone. Deployed by the constructor."
      },
      "isChild(address)": {
        "notice": "Implements `IFactory`. Checks if address is registered as a child contract of this factory."
      }
    },
    "notice": "The `TrustFactory` contract is the only contract that the deployer uses to deploy all contracts for a single project fundraising event. It takes references to `RedeemableERC20Factory`, `RedeemableERC20PoolFactory` and `SeedERC20Factory` contracts, and builds a new `Trust` contract.",
    "version": 1
  },
  "storageLayout": {
    "storage": [
      {
        "astId": 3818,
        "contract": "contracts/trust/TrustFactory.sol:TrustFactory",
        "label": "_status",
        "offset": 0,
        "slot": "0",
        "type": "t_uint256"
      },
      {
        "astId": 10063,
        "contract": "contracts/trust/TrustFactory.sol:TrustFactory",
        "label": "contracts",
        "offset": 0,
        "slot": "1",
        "type": "t_mapping(t_address,t_bool)"
      }
    ],
    "types": {
      "t_address": {
        "encoding": "inplace",
        "label": "address",
        "numberOfBytes": "20"
      },
      "t_bool": {
        "encoding": "inplace",
        "label": "bool",
        "numberOfBytes": "1"
      },
      "t_mapping(t_address,t_bool)": {
        "encoding": "mapping",
        "key": "t_address",
        "label": "mapping(address => bool)",
        "numberOfBytes": "32",
        "value": "t_bool"
      },
      "t_uint256": {
        "encoding": "inplace",
        "label": "uint256",
        "numberOfBytes": "32"
      }
    }
  }
}