{
  "_format": "hh-sol-artifact-1",
  "contractName": "RedeemableERC20Reentrant",
  "sourceName": "contracts/test/RedeemableERC20Reentrant.sol",
  "abi": [
    {
      "inputs": [
        {
          "internalType": "contract RedeemableERC20",
          "name": "redeemableERC20Contract_",
          "type": "address"
        }
      ],
      "stateMutability": "nonpayable",
      "type": "constructor"
    },
    {
      "anonymous": false,
      "inputs": [
        {
          "indexed": true,
          "internalType": "address",
          "name": "owner",
          "type": "address"
        },
        {
          "indexed": true,
          "internalType": "address",
          "name": "spender",
          "type": "address"
        },
        {
          "indexed": false,
          "internalType": "uint256",
          "name": "value",
          "type": "uint256"
        }
      ],
      "name": "Approval",
      "type": "event"
    },
    {
      "anonymous": false,
      "inputs": [
        {
          "indexed": true,
          "internalType": "address",
          "name": "from",
          "type": "address"
        },
        {
          "indexed": true,
          "internalType": "address",
          "name": "to",
          "type": "address"
        },
        {
          "indexed": false,
          "internalType": "uint256",
          "name": "value",
          "type": "uint256"
        }
      ],
      "name": "Transfer",
      "type": "event"
    },
    {
      "inputs": [],
      "name": "DECIMALS",
      "outputs": [
        {
          "internalType": "uint8",
          "name": "",
          "type": "uint8"
        }
      ],
      "stateMutability": "view",
      "type": "function"
    },
    {
      "inputs": [],
      "name": "TOTAL_SUPPLY",
      "outputs": [
        {
          "internalType": "uint256",
          "name": "",
          "type": "uint256"
        }
      ],
      "stateMutability": "view",
      "type": "function"
    },
    {
      "inputs": [
        {
          "internalType": "address",
          "name": "account_",
          "type": "address"
        }
      ],
      "name": "addFreezable",
      "outputs": [],
      "stateMutability": "nonpayable",
      "type": "function"
    },
    {
      "inputs": [
        {
          "internalType": "address",
          "name": "owner",
          "type": "address"
        },
        {
          "internalType": "address",
          "name": "spender",
          "type": "address"
        }
      ],
      "name": "allowance",
      "outputs": [
        {
          "internalType": "uint256",
          "name": "",
          "type": "uint256"
        }
      ],
      "stateMutability": "view",
      "type": "function"
    },
    {
      "inputs": [
        {
          "internalType": "address",
          "name": "spender",
          "type": "address"
        },
        {
          "internalType": "uint256",
          "name": "amount",
          "type": "uint256"
        }
      ],
      "name": "approve",
      "outputs": [
        {
          "internalType": "bool",
          "name": "",
          "type": "bool"
        }
      ],
      "stateMutability": "nonpayable",
      "type": "function"
    },
    {
      "inputs": [
        {
          "internalType": "address",
          "name": "account",
          "type": "address"
        }
      ],
      "name": "balanceOf",
      "outputs": [
        {
          "internalType": "uint256",
          "name": "",
          "type": "uint256"
        }
      ],
      "stateMutability": "view",
      "type": "function"
    },
    {
      "inputs": [
        {
          "internalType": "uint256",
          "name": "amount",
          "type": "uint256"
        }
      ],
      "name": "burn",
      "outputs": [],
      "stateMutability": "nonpayable",
      "type": "function"
    },
    {
      "inputs": [
        {
          "internalType": "address",
          "name": "account",
          "type": "address"
        },
        {
          "internalType": "uint256",
          "name": "amount",
          "type": "uint256"
        }
      ],
      "name": "burnFrom",
      "outputs": [],
      "stateMutability": "nonpayable",
      "type": "function"
    },
    {
      "inputs": [],
      "name": "decimals",
      "outputs": [
        {
          "internalType": "uint8",
          "name": "",
          "type": "uint8"
        }
      ],
      "stateMutability": "pure",
      "type": "function"
    },
    {
      "inputs": [
        {
          "internalType": "address",
          "name": "spender",
          "type": "address"
        },
        {
          "internalType": "uint256",
          "name": "subtractedValue",
          "type": "uint256"
        }
      ],
      "name": "decreaseAllowance",
      "outputs": [
        {
          "internalType": "bool",
          "name": "",
          "type": "bool"
        }
      ],
      "stateMutability": "nonpayable",
      "type": "function"
    },
    {
      "inputs": [
        {
          "internalType": "address",
          "name": "",
          "type": "address"
        }
      ],
      "name": "freezables",
      "outputs": [
        {
          "internalType": "bool",
          "name": "",
          "type": "bool"
        }
      ],
      "stateMutability": "view",
      "type": "function"
    },
    {
      "inputs": [
        {
          "internalType": "address",
          "name": "spender",
          "type": "address"
        },
        {
          "internalType": "uint256",
          "name": "addedValue",
          "type": "uint256"
        }
      ],
      "name": "increaseAllowance",
      "outputs": [
        {
          "internalType": "bool",
          "name": "",
          "type": "bool"
        }
      ],
      "stateMutability": "nonpayable",
      "type": "function"
    },
    {
      "inputs": [],
      "name": "name",
      "outputs": [
        {
          "internalType": "string",
          "name": "",
          "type": "string"
        }
      ],
      "stateMutability": "view",
      "type": "function"
    },
    {
      "inputs": [],
      "name": "symbol",
      "outputs": [
        {
          "internalType": "string",
          "name": "",
          "type": "string"
        }
      ],
      "stateMutability": "view",
      "type": "function"
    },
    {
      "inputs": [],
      "name": "totalSupply",
      "outputs": [
        {
          "internalType": "uint256",
          "name": "",
          "type": "uint256"
        }
      ],
      "stateMutability": "view",
      "type": "function"
    },
    {
      "inputs": [
        {
          "internalType": "address",
          "name": "recipient",
          "type": "address"
        },
        {
          "internalType": "uint256",
          "name": "amount",
          "type": "uint256"
        }
      ],
      "name": "transfer",
      "outputs": [
        {
          "internalType": "bool",
          "name": "",
          "type": "bool"
        }
      ],
      "stateMutability": "nonpayable",
      "type": "function"
    },
    {
      "inputs": [
        {
          "internalType": "address",
          "name": "sender",
          "type": "address"
        },
        {
          "internalType": "address",
          "name": "recipient",
          "type": "address"
        },
        {
          "internalType": "uint256",
          "name": "amount",
          "type": "uint256"
        }
      ],
      "name": "transferFrom",
      "outputs": [
        {
          "internalType": "bool",
          "name": "",
          "type": "bool"
        }
      ],
      "stateMutability": "nonpayable",
      "type": "function"
    }
  ],
  "bytecode": "0x60806040523480156200001157600080fd5b50604051620014a6380380620014a68339810160408190526200003491620003ed565b604080518082018252600b81526a55534420436c617373696360a81b602080830191825283518085019094526005845264555344434360d81b908401528151919291620000849160039162000347565b5080516200009a90600490602084019062000347565b50620000c59150339050620000b26006600962000435565b620000bf90600a6200054f565b620000eb565b600680546001600160a01b0319166001600160a01b039290921691909117905562000603565b6001600160a01b038216620001475760405162461bcd60e51b815260206004820152601f60248201527f45524332303a206d696e7420746f20746865207a65726f20616464726573730060448201526064015b60405180910390fd5b6200015560008383620001e2565b806002600082825462000169919062000435565b90915550506001600160a01b038216600090815260208190526040812080548392906200019890849062000435565b90915550506040518181526001600160a01b038316906000907fddf252ad1be2c89b69c2b068fc378daa952ba7f163c4a11628f55a4df523b3ef9060200160405180910390a35050565b620001fa838383620002db60201b620005b51760201c565b6001600160a01b038316158015906200022057506006546001600160a01b038481169116145b15620002d6576040805160018082528183019092526000916020808301908036833701905050905030816000815181106200025f576200025f6200055d565b6001600160a01b039283166020918202929092010152600654604051637b3bef4b60e11b815291169063f677de9690620002a0908490869060040162000573565b600060405180830381600087803b158015620002bb57600080fd5b505af1158015620002d0573d6000803e3d6000fd5b50505050505b505050565b620002f3838383620002d660201b620004e11760201c565b6001600160a01b03821660009081526005602052604090205460ff1615620002d65760405162461bcd60e51b8152602060048201526006602482015265232927ad22a760d11b60448201526064016200013e565b8280546200035590620005c6565b90600052602060002090601f016020900481019282620003795760008555620003c4565b82601f106200039457805160ff1916838001178555620003c4565b82800160010185558215620003c4579182015b82811115620003c4578251825591602001919060010190620003a7565b50620003d2929150620003d6565b5090565b5b80821115620003d25760008155600101620003d7565b6000602082840312156200040057600080fd5b81516001600160a01b03811681146200041857600080fd5b9392505050565b634e487b7160e01b600052601160045260246000fd5b600082198211156200044b576200044b6200041f565b500190565b600181815b80851115620004915781600019048211156200047557620004756200041f565b808516156200048357918102915b93841c939080029062000455565b509250929050565b600082620004aa5750600162000549565b81620004b95750600062000549565b8160018114620004d25760028114620004dd57620004fd565b600191505062000549565b60ff841115620004f157620004f16200041f565b50506001821b62000549565b5060208310610133831016604e8410600b841016171562000522575081810a62000549565b6200052e838362000450565b80600019048211156200054557620005456200041f565b0290505b92915050565b600062000418838362000499565b634e487b7160e01b600052603260045260246000fd5b604080825283519082018190526000906020906060840190828701845b82811015620005b75781516001600160a01b03168452928401929084019060010162000590565b50505092019290925292915050565b600181811c90821680620005db57607f821691505b60208210811415620005fd57634e487b7160e01b600052602260045260246000fd5b50919050565b610e9380620006136000396000f3fe608060405234801561001057600080fd5b506004361061010b5760003560e01c806348422faa116100a2578063902d55a511610071578063902d55a51461025057806395d89b4114610258578063a457c2d714610260578063a9059cbb14610273578063dd62ed3e1461028657600080fd5b806348422faa146101bf5780635bb9058b146101e257806370a082311461021457806379cc67901461023d57600080fd5b80632e0f2625116100de5780632e0f262514610176578063313ce56714610190578063395093511461019757806342966c68146101aa57600080fd5b806306fdde0314610110578063095ea7b31461012e57806318160ddd1461015157806323b872dd14610163575b600080fd5b6101186102bf565b6040516101259190610b41565b60405180910390f35b61014161013c366004610bb2565b610351565b6040519015158152602001610125565b6002545b604051908152602001610125565b610141610171366004610bdc565b610368565b61017e600681565b60405160ff9091168152602001610125565b600661017e565b6101416101a5366004610bb2565b610417565b6101bd6101b8366004610c18565b610453565b005b6101416101cd366004610c31565b60056020526000908152604090205460ff1681565b6101bd6101f0366004610c31565b6001600160a01b03166000908152600560205260409020805460ff19166001179055565b610155610222366004610c31565b6001600160a01b031660009081526020819052604090205490565b6101bd61024b366004610bb2565b610460565b6101556104e6565b610118610500565b61014161026e366004610bb2565b61050f565b610141610281366004610bb2565b6105a8565b610155610294366004610c53565b6001600160a01b03918216600090815260016020908152604080832093909416825291909152205490565b6060600380546102ce90610c86565b80601f01602080910402602001604051908101604052809291908181526020018280546102fa90610c86565b80156103475780601f1061031c57610100808354040283529160200191610347565b820191906000526020600020905b81548152906001019060200180831161032a57829003601f168201915b5050505050905090565b600061035e338484610607565b5060015b92915050565b600061037584848461072b565b6001600160a01b0384166000908152600160209081526040808320338452909152902054828110156103ff5760405162461bcd60e51b815260206004820152602860248201527f45524332303a207472616e7366657220616d6f756e74206578636565647320616044820152676c6c6f77616e636560c01b60648201526084015b60405180910390fd5b61040c8533858403610607565b506001949350505050565b3360008181526001602090815260408083206001600160a01b0387168452909152812054909161035e91859061044e908690610cd7565b610607565b61045d3382610905565b50565b600061046c8333610294565b9050818110156104ca5760405162461bcd60e51b8152602060048201526024808201527f45524332303a206275726e20616d6f756e74206578636565647320616c6c6f77604482015263616e636560e01b60648201526084016103f6565b6104d78333848403610607565b6104e18383610905565b505050565b6104f260066009610cd7565b6104fd90600a610dd3565b81565b6060600480546102ce90610c86565b3360009081526001602090815260408083206001600160a01b0386168452909152812054828110156105915760405162461bcd60e51b815260206004820152602560248201527f45524332303a2064656372656173656420616c6c6f77616e63652062656c6f77604482015264207a65726f60d81b60648201526084016103f6565b61059e3385858403610607565b5060019392505050565b600061035e33848461072b565b6001600160a01b03821660009081526005602052604090205460ff16156104e15760405162461bcd60e51b8152602060048201526006602482015265232927ad22a760d11b60448201526064016103f6565b6001600160a01b0383166106695760405162461bcd60e51b8152602060048201526024808201527f45524332303a20617070726f76652066726f6d20746865207a65726f206164646044820152637265737360e01b60648201526084016103f6565b6001600160a01b0382166106ca5760405162461bcd60e51b815260206004820152602260248201527f45524332303a20617070726f766520746f20746865207a65726f206164647265604482015261737360f01b60648201526084016103f6565b6001600160a01b0383811660008181526001602090815260408083209487168084529482529182902085905590518481527f8c5be1e5ebec7d5bd14f71427d1e84f3dd0314c0f7b2291e5b200ac8c7c3b925910160405180910390a3505050565b6001600160a01b03831661078f5760405162461bcd60e51b815260206004820152602560248201527f45524332303a207472616e736665722066726f6d20746865207a65726f206164604482015264647265737360d81b60648201526084016103f6565b6001600160a01b0382166107f15760405162461bcd60e51b815260206004820152602360248201527f45524332303a207472616e7366657220746f20746865207a65726f206164647260448201526265737360e81b60648201526084016103f6565b6107fc838383610a5f565b6001600160a01b038316600090815260208190526040902054818110156108745760405162461bcd60e51b815260206004820152602660248201527f45524332303a207472616e7366657220616d6f756e7420657863656564732062604482015265616c616e636560d01b60648201526084016103f6565b6001600160a01b038085166000908152602081905260408082208585039055918516815290812080548492906108ab908490610cd7565b92505081905550826001600160a01b0316846001600160a01b03167fddf252ad1be2c89b69c2b068fc378daa952ba7f163c4a11628f55a4df523b3ef846040516108f791815260200190565b60405180910390a350505050565b6001600160a01b0382166109655760405162461bcd60e51b815260206004820152602160248201527f45524332303a206275726e2066726f6d20746865207a65726f206164647265736044820152607360f81b60648201526084016103f6565b61097182600083610a5f565b6001600160a01b038216600090815260208190526040902054818110156109e55760405162461bcd60e51b815260206004820152602260248201527f45524332303a206275726e20616d6f756e7420657863656564732062616c616e604482015261636560f01b60648201526084016103f6565b6001600160a01b0383166000908152602081905260408120838303905560028054849290610a14908490610ddf565b90915550506040518281526000906001600160a01b038516907fddf252ad1be2c89b69c2b068fc378daa952ba7f163c4a11628f55a4df523b3ef9060200160405180910390a3505050565b610a6a8383836105b5565b6001600160a01b03831615801590610a8f57506006546001600160a01b038481169116145b156104e157604080516001808252818301909252600091602080830190803683370190505090503081600081518110610aca57610aca610df6565b6001600160a01b039283166020918202929092010152600654604051637b3bef4b60e11b815291169063f677de9690610b099084908690600401610e0c565b600060405180830381600087803b158015610b2357600080fd5b505af1158015610b37573d6000803e3d6000fd5b5050505050505050565b600060208083528351808285015260005b81811015610b6e57858101830151858201604001528201610b52565b81811115610b80576000604083870101525b50601f01601f1916929092016040019392505050565b80356001600160a01b0381168114610bad57600080fd5b919050565b60008060408385031215610bc557600080fd5b610bce83610b96565b946020939093013593505050565b600080600060608486031215610bf157600080fd5b610bfa84610b96565b9250610c0860208501610b96565b9150604084013590509250925092565b600060208284031215610c2a57600080fd5b5035919050565b600060208284031215610c4357600080fd5b610c4c82610b96565b9392505050565b60008060408385031215610c6657600080fd5b610c6f83610b96565b9150610c7d60208401610b96565b90509250929050565b600181811c90821680610c9a57607f821691505b60208210811415610cbb57634e487b7160e01b600052602260045260246000fd5b50919050565b634e487b7160e01b600052601160045260246000fd5b60008219821115610cea57610cea610cc1565b500190565b600181815b80851115610d2a578160001904821115610d1057610d10610cc1565b80851615610d1d57918102915b93841c9390800290610cf4565b509250929050565b600082610d4157506001610362565b81610d4e57506000610362565b8160018114610d645760028114610d6e57610d8a565b6001915050610362565b60ff841115610d7f57610d7f610cc1565b50506001821b610362565b5060208310610133831016604e8410600b8410161715610dad575081810a610362565b610db78383610cef565b8060001904821115610dcb57610dcb610cc1565b029392505050565b6000610c4c8383610d32565b600082821015610df157610df1610cc1565b500390565b634e487b7160e01b600052603260045260246000fd5b604080825283519082018190526000906020906060840190828701845b82811015610e4e5781516001600160a01b031684529284019290840190600101610e29565b5050509201929092529291505056fea2646970667358221220492d3c6a281e4f717229c08ca848c927b511d6aff168c7c2a3ad1133fe2d66f664736f6c634300080a0033",
  "linkReferences": {},
  "deployedLinkReferences": {}
}