{
  "_format": "hh-sol-artifact-1",
  "contractName": "VerifyTier",
  "sourceName": "contracts/tier/VerifyTier.sol",
  "abi": [
    {
      "inputs": [
        {
          "internalType": "contract Verify",
          "name": "verify_",
          "type": "address"
        }
      ],
      "stateMutability": "nonpayable",
      "type": "constructor"
    },
    {
      "anonymous": false,
      "inputs": [
        {
          "indexed": true,
          "internalType": "address",
          "name": "account",
          "type": "address"
        },
        {
          "indexed": true,
          "internalType": "enum ITier.Tier",
          "name": "startTier",
          "type": "uint8"
        },
        {
          "indexed": true,
          "internalType": "enum ITier.Tier",
          "name": "endTier",
          "type": "uint8"
        }
      ],
      "name": "TierChange",
      "type": "event"
    },
    {
      "inputs": [
        {
          "internalType": "address",
          "name": "account_",
          "type": "address"
        }
      ],
      "name": "report",
      "outputs": [
        {
          "internalType": "uint256",
          "name": "",
          "type": "uint256"
        }
      ],
      "stateMutability": "view",
      "type": "function"
    },
    {
      "inputs": [
        {
          "internalType": "address",
          "name": "",
          "type": "address"
        },
        {
          "internalType": "enum ITier.Tier",
          "name": "",
          "type": "uint8"
        },
        {
          "internalType": "bytes",
          "name": "",
          "type": "bytes"
        }
      ],
      "name": "setTier",
      "outputs": [],
      "stateMutability": "pure",
      "type": "function"
    },
    {
      "inputs": [],
      "name": "verify",
      "outputs": [
        {
          "internalType": "contract Verify",
          "name": "",
          "type": "address"
        }
      ],
      "stateMutability": "view",
      "type": "function"
    }
  ],
  "bytecode": "0x60a060405234801561001057600080fd5b5060405161077038038061077083398101604081905261002f91610040565b6001600160a01b0316608052610070565b60006020828403121561005257600080fd5b81516001600160a01b038116811461006957600080fd5b9392505050565b6080516106d86100986000396000818160860152818161017d015261024501526106d86000f3fe608060405234801561001057600080fd5b50600436106100415760003560e01c806352dab69d14610046578063e053ea311461005b578063fc735e9914610081575b600080fd5b610059610054366004610438565b6100cd565b005b61006e610069366004610512565b610133565b6040519081526020015b60405180910390f35b6100a87f000000000000000000000000000000000000000000000000000000000000000081565b60405173ffffffffffffffffffffffffffffffffffffffff9091168152602001610078565b6040517f08c379a000000000000000000000000000000000000000000000000000000000815260206004820152600860248201527f5345545f54494552000000000000000000000000000000000000000000000000604482015260640160405180910390fd5b6040517f31e658a500000000000000000000000000000000000000000000000000000000815273ffffffffffffffffffffffffffffffffffffffff828116600483015260009182917f000000000000000000000000000000000000000000000000000000000000000016906331e658a590602401606060405180830381865afa1580156101c4573d6000803e3d6000fd5b505050506040513d601f19601f820116820180604052508101906101e89190610541565b90506002604080517f50ec42da000000000000000000000000000000000000000000000000000000008152835163ffffffff90811660048301526020850151811660248301529184015182166044820152439190911660648201527f000000000000000000000000000000000000000000000000000000000000000073ffffffffffffffffffffffffffffffffffffffff16906350ec42da90608401602060405180830381865afa1580156102a1573d6000803e3d6000fd5b505050506040513d601f19601f820116820180604052508101906102c591906105dc565b60038111156102d6576102d66105ad565b14156102fb576102f46000806008846020015163ffffffff16610323565b9392505050565b507fffffffffffffffffffffffffffffffffffffffffffffffffffffffffffffffff92915050565b600080600085600881111561033a5761033a6105ad565b90505b84600881111561034f5761034f6105ad565b8110156103865761036181602061062c565b63ffffffff811b199790971684881b179691508061037e81610669565b91505061033d565b509495945050505050565b803573ffffffffffffffffffffffffffffffffffffffff811681146103b557600080fd5b919050565b7f4e487b7100000000000000000000000000000000000000000000000000000000600052604160045260246000fd5b604051601f82017fffffffffffffffffffffffffffffffffffffffffffffffffffffffffffffffe016810167ffffffffffffffff81118282101715610430576104306103ba565b604052919050565b60008060006060848603121561044d57600080fd5b61045684610391565b92506020808501356009811061046b57600080fd5b9250604085013567ffffffffffffffff8082111561048857600080fd5b818701915087601f83011261049c57600080fd5b8135818111156104ae576104ae6103ba565b6104de847fffffffffffffffffffffffffffffffffffffffffffffffffffffffffffffffe0601f840116016103e9565b915080825288848285010111156104f457600080fd5b80848401858401376000848284010152508093505050509250925092565b60006020828403121561052457600080fd5b6102f482610391565b805163ffffffff811681146103b557600080fd5b60006060828403121561055357600080fd5b6040516060810181811067ffffffffffffffff82111715610576576105766103ba565b6040526105828361052d565b81526105906020840161052d565b60208201526105a16040840161052d565b60408201529392505050565b7f4e487b7100000000000000000000000000000000000000000000000000000000600052602160045260246000fd5b6000602082840312156105ee57600080fd5b8151600481106102f457600080fd5b7f4e487b7100000000000000000000000000000000000000000000000000000000600052601160045260246000fd5b6000817fffffffffffffffffffffffffffffffffffffffffffffffffffffffffffffffff0483118215151615610664576106646105fd565b500290565b60007fffffffffffffffffffffffffffffffffffffffffffffffffffffffffffffffff82141561069b5761069b6105fd565b506001019056fea264697066735822122060c676e7b1a2b0df98a7ad14a52c103389864215c693fa94266a8b3db9deac8c64736f6c634300080a0033",
  "linkReferences": {},
  "deployedLinkReferences": {}
}