{
  "_format": "hh-sol-artifact-1",
  "contractName": "SeedERC20ForceSendEther",
  "sourceName": "contracts/test/SeedERC20ForceSendEther.sol",
  "abi": [
    {
      "stateMutability": "payable",
      "type": "fallback"
    },
    {
      "inputs": [
        {
          "internalType": "contract SeedERC20",
          "name": "seedERC20Contract_",
          "type": "address"
        }
      ],
      "name": "destroy",
      "outputs": [],
      "stateMutability": "nonpayable",
      "type": "function"
    },
    {
      "stateMutability": "payable",
      "type": "receive"
    }
  ],
  "bytecode": "0x608060405234801561001057600080fd5b5060c68061001f6000396000f3fe608060405260043610601c5760003560e01c8062f55d9d14602457005b36602257005b005b348015602f57600080fd5b506022603b3660046055565b8073ffffffffffffffffffffffffffffffffffffffff8116ff5b600060208284031215606657600080fd5b813573ffffffffffffffffffffffffffffffffffffffff81168114608957600080fd5b939250505056fea264697066735822122020a4bfc65d18650dad87762c57a85ca3c79b1753e5f2a6ca28ab76ffb951c2de64736f6c634300080a0033",
  "linkReferences": {},
  "deployedLinkReferences": {}
}