{
  "_format": "hh-sol-artifact-1",
  "contractName": "RedeemableERC20",
  "sourceName": "contracts/rain-protocol/contracts/redeemableERC20/RedeemableERC20.sol",
  "abi": [
    {
      "inputs": [
        {
          "components": [
            {
              "internalType": "address",
              "name": "admin",
              "type": "address"
            },
            {
              "internalType": "string",
              "name": "name",
              "type": "string"
            },
            {
              "internalType": "string",
              "name": "symbol",
              "type": "string"
            },
            {
              "internalType": "contract ITier",
              "name": "tier",
              "type": "address"
            },
            {
              "internalType": "enum ITier.Tier",
              "name": "minimumStatus",
              "type": "uint8"
            },
            {
              "internalType": "uint256",
              "name": "totalSupply",
              "type": "uint256"
            }
          ],
          "internalType": "struct RedeemableERC20Config",
          "name": "config_",
          "type": "tuple"
        }
      ],
      "stateMutability": "nonpayable",
      "type": "constructor"
    },
    {
      "anonymous": false,
      "inputs": [
        {
          "indexed": true,
          "internalType": "address",
          "name": "owner",
          "type": "address"
        },
        {
          "indexed": true,
          "internalType": "address",
          "name": "spender",
          "type": "address"
        },
        {
          "indexed": false,
          "internalType": "uint256",
          "name": "value",
          "type": "uint256"
        }
      ],
      "name": "Approval",
      "type": "event"
    },
    {
      "anonymous": false,
      "inputs": [
        {
          "indexed": true,
          "internalType": "uint32",
          "name": "newPhaseBlock_",
          "type": "uint32"
        }
      ],
      "name": "PhaseShiftScheduled",
      "type": "event"
    },
    {
      "anonymous": false,
      "inputs": [
        {
          "indexed": true,
          "internalType": "address",
          "name": "redeemer",
          "type": "address"
        },
        {
          "indexed": true,
          "internalType": "address",
          "name": "redeemable",
          "type": "address"
        },
        {
          "indexed": false,
          "internalType": "uint256[2]",
          "name": "redeemAmounts",
          "type": "uint256[2]"
        }
      ],
      "name": "Redeem",
      "type": "event"
    },
    {
      "anonymous": false,
      "inputs": [
        {
          "indexed": true,
          "internalType": "bytes32",
          "name": "role",
          "type": "bytes32"
        },
        {
          "indexed": true,
          "internalType": "bytes32",
          "name": "previousAdminRole",
          "type": "bytes32"
        },
        {
          "indexed": true,
          "internalType": "bytes32",
          "name": "newAdminRole",
          "type": "bytes32"
        }
      ],
      "name": "RoleAdminChanged",
      "type": "event"
    },
    {
      "anonymous": false,
      "inputs": [
        {
          "indexed": true,
          "internalType": "bytes32",
          "name": "role",
          "type": "bytes32"
        },
        {
          "indexed": true,
          "internalType": "address",
          "name": "account",
          "type": "address"
        },
        {
          "indexed": true,
          "internalType": "address",
          "name": "sender",
          "type": "address"
        }
      ],
      "name": "RoleGranted",
      "type": "event"
    },
    {
      "anonymous": false,
      "inputs": [
        {
          "indexed": true,
          "internalType": "bytes32",
          "name": "role",
          "type": "bytes32"
        },
        {
          "indexed": true,
          "internalType": "address",
          "name": "account",
          "type": "address"
        },
        {
          "indexed": true,
          "internalType": "address",
          "name": "sender",
          "type": "address"
        }
      ],
      "name": "RoleRevoked",
      "type": "event"
    },
    {
      "anonymous": false,
      "inputs": [
        {
          "indexed": true,
          "internalType": "address",
          "name": "from",
          "type": "address"
        },
        {
          "indexed": true,
          "internalType": "address",
          "name": "to",
          "type": "address"
        },
        {
          "indexed": false,
          "internalType": "uint256",
          "name": "value",
          "type": "uint256"
        }
      ],
      "name": "Transfer",
      "type": "event"
    },
    {
      "inputs": [],
      "name": "DEFAULT_ADMIN_ROLE",
      "outputs": [
        {
          "internalType": "bytes32",
          "name": "",
          "type": "bytes32"
        }
      ],
      "stateMutability": "view",
      "type": "function"
    },
    {
      "inputs": [],
      "name": "DISTRIBUTOR_BURNER",
      "outputs": [
        {
          "internalType": "bytes32",
          "name": "",
          "type": "bytes32"
        }
      ],
      "stateMutability": "view",
      "type": "function"
    },
    {
      "inputs": [],
      "name": "MAX_REDEEMABLES",
      "outputs": [
        {
          "internalType": "uint8",
          "name": "",
          "type": "uint8"
        }
      ],
      "stateMutability": "view",
      "type": "function"
    },
    {
      "inputs": [],
      "name": "MINIMUM_INITIAL_SUPPLY",
      "outputs": [
        {
          "internalType": "uint256",
          "name": "",
          "type": "uint256"
        }
      ],
      "stateMutability": "view",
      "type": "function"
    },
    {
      "inputs": [],
      "name": "RECEIVER",
      "outputs": [
        {
          "internalType": "bytes32",
          "name": "",
          "type": "bytes32"
        }
      ],
      "stateMutability": "view",
      "type": "function"
    },
    {
      "inputs": [],
      "name": "REDEEMABLE_ADDER",
      "outputs": [
        {
          "internalType": "bytes32",
          "name": "",
          "type": "bytes32"
        }
      ],
      "stateMutability": "view",
      "type": "function"
    },
    {
      "inputs": [],
      "name": "SENDER",
      "outputs": [
        {
          "internalType": "bytes32",
          "name": "",
          "type": "bytes32"
        }
      ],
      "stateMutability": "view",
      "type": "function"
    },
    {
      "inputs": [],
      "name": "UNINITIALIZED",
      "outputs": [
        {
          "internalType": "uint32",
          "name": "",
          "type": "uint32"
        }
      ],
      "stateMutability": "view",
      "type": "function"
    },
    {
      "inputs": [
        {
          "internalType": "contract IERC20",
          "name": "newRedeemable_",
          "type": "address"
        }
      ],
      "name": "addRedeemable",
      "outputs": [],
      "stateMutability": "nonpayable",
      "type": "function"
    },
    {
      "inputs": [
        {
          "internalType": "address",
          "name": "owner",
          "type": "address"
        },
        {
          "internalType": "address",
          "name": "spender",
          "type": "address"
        }
      ],
      "name": "allowance",
      "outputs": [
        {
          "internalType": "uint256",
          "name": "",
          "type": "uint256"
        }
      ],
      "stateMutability": "view",
      "type": "function"
    },
    {
      "inputs": [
        {
          "internalType": "address",
          "name": "spender",
          "type": "address"
        },
        {
          "internalType": "uint256",
          "name": "amount",
          "type": "uint256"
        }
      ],
      "name": "approve",
      "outputs": [
        {
          "internalType": "bool",
          "name": "",
          "type": "bool"
        }
      ],
      "stateMutability": "nonpayable",
      "type": "function"
    },
    {
      "inputs": [
        {
          "internalType": "address",
          "name": "account",
          "type": "address"
        }
      ],
      "name": "balanceOf",
      "outputs": [
        {
          "internalType": "uint256",
          "name": "",
          "type": "uint256"
        }
      ],
      "stateMutability": "view",
      "type": "function"
    },
    {
      "inputs": [
        {
          "internalType": "uint32[8]",
          "name": "phaseBlocks_",
          "type": "uint32[8]"
        },
        {
          "internalType": "enum Phase",
          "name": "phase_",
          "type": "uint8"
        }
      ],
      "name": "blockNumberForPhase",
      "outputs": [
        {
          "internalType": "uint32",
          "name": "",
          "type": "uint32"
        }
      ],
      "stateMutability": "pure",
      "type": "function"
    },
    {
      "inputs": [
        {
          "internalType": "uint256",
          "name": "amount",
          "type": "uint256"
        }
      ],
      "name": "burn",
      "outputs": [],
      "stateMutability": "nonpayable",
      "type": "function"
    },
    {
      "inputs": [
        {
          "internalType": "address",
          "name": "distributorAccount_",
          "type": "address"
        }
      ],
      "name": "burnDistributor",
      "outputs": [],
      "stateMutability": "nonpayable",
      "type": "function"
    },
    {
      "inputs": [
        {
          "internalType": "address",
          "name": "account",
          "type": "address"
        },
        {
          "internalType": "uint256",
          "name": "amount",
          "type": "uint256"
        }
      ],
      "name": "burnFrom",
      "outputs": [],
      "stateMutability": "nonpayable",
      "type": "function"
    },
    {
      "inputs": [],
      "name": "constructionBlock",
      "outputs": [
        {
          "internalType": "uint256",
          "name": "",
          "type": "uint256"
        }
      ],
      "stateMutability": "view",
      "type": "function"
    },
    {
      "inputs": [],
      "name": "currentPhase",
      "outputs": [
        {
          "internalType": "enum Phase",
          "name": "",
          "type": "uint8"
        }
      ],
      "stateMutability": "view",
      "type": "function"
    },
    {
      "inputs": [],
      "name": "decimals",
      "outputs": [
        {
          "internalType": "uint8",
          "name": "",
          "type": "uint8"
        }
      ],
      "stateMutability": "view",
      "type": "function"
    },
    {
      "inputs": [
        {
          "internalType": "address",
          "name": "spender",
          "type": "address"
        },
        {
          "internalType": "uint256",
          "name": "subtractedValue",
          "type": "uint256"
        }
      ],
      "name": "decreaseAllowance",
      "outputs": [
        {
          "internalType": "bool",
          "name": "",
          "type": "bool"
        }
      ],
      "stateMutability": "nonpayable",
      "type": "function"
    },
    {
      "inputs": [],
      "name": "getRedeemables",
      "outputs": [
        {
          "internalType": "address[8]",
          "name": "",
          "type": "address[8]"
        }
      ],
      "stateMutability": "view",
      "type": "function"
    },
    {
      "inputs": [
        {
          "internalType": "bytes32",
          "name": "role",
          "type": "bytes32"
        }
      ],
      "name": "getRoleAdmin",
      "outputs": [
        {
          "internalType": "bytes32",
          "name": "",
          "type": "bytes32"
        }
      ],
      "stateMutability": "view",
      "type": "function"
    },
    {
      "inputs": [
        {
          "internalType": "bytes32",
          "name": "role",
          "type": "bytes32"
        },
        {
          "internalType": "uint256",
          "name": "index",
          "type": "uint256"
        }
      ],
      "name": "getRoleMember",
      "outputs": [
        {
          "internalType": "address",
          "name": "",
          "type": "address"
        }
      ],
      "stateMutability": "view",
      "type": "function"
    },
    {
      "inputs": [
        {
          "internalType": "bytes32",
          "name": "role",
          "type": "bytes32"
        }
      ],
      "name": "getRoleMemberCount",
      "outputs": [
        {
          "internalType": "uint256",
          "name": "",
          "type": "uint256"
        }
      ],
      "stateMutability": "view",
      "type": "function"
    },
    {
      "inputs": [
        {
          "internalType": "bytes32",
          "name": "role",
          "type": "bytes32"
        },
        {
          "internalType": "address",
          "name": "account",
          "type": "address"
        }
      ],
      "name": "grantRole",
      "outputs": [],
      "stateMutability": "nonpayable",
      "type": "function"
    },
    {
      "inputs": [
        {
          "internalType": "bytes32",
          "name": "role",
          "type": "bytes32"
        },
        {
          "internalType": "address",
          "name": "account",
          "type": "address"
        }
      ],
      "name": "hasRole",
      "outputs": [
        {
          "internalType": "bool",
          "name": "",
          "type": "bool"
        }
      ],
      "stateMutability": "view",
      "type": "function"
    },
    {
      "inputs": [
        {
          "internalType": "address",
          "name": "spender",
          "type": "address"
        },
        {
          "internalType": "uint256",
          "name": "addedValue",
          "type": "uint256"
        }
      ],
      "name": "increaseAllowance",
      "outputs": [
        {
          "internalType": "bool",
          "name": "",
          "type": "bool"
        }
      ],
      "stateMutability": "nonpayable",
      "type": "function"
    },
    {
      "inputs": [
        {
          "internalType": "address",
          "name": "account_",
          "type": "address"
        },
        {
          "internalType": "enum ITier.Tier",
          "name": "minimumTier_",
          "type": "uint8"
        }
      ],
      "name": "isTier",
      "outputs": [
        {
          "internalType": "bool",
          "name": "",
          "type": "bool"
        }
      ],
      "stateMutability": "view",
      "type": "function"
    },
    {
      "inputs": [],
      "name": "minimumTier",
      "outputs": [
        {
          "internalType": "enum ITier.Tier",
          "name": "",
          "type": "uint8"
        }
      ],
      "stateMutability": "view",
      "type": "function"
    },
    {
      "inputs": [],
      "name": "name",
      "outputs": [
        {
          "internalType": "string",
          "name": "",
          "type": "string"
        }
      ],
      "stateMutability": "view",
      "type": "function"
    },
    {
      "inputs": [
        {
          "internalType": "uint32[8]",
          "name": "phaseBlocks_",
          "type": "uint32[8]"
        },
        {
          "internalType": "uint32",
          "name": "blockNumber_",
          "type": "uint32"
        }
      ],
      "name": "phaseAtBlockNumber",
      "outputs": [
        {
          "internalType": "enum Phase",
          "name": "",
          "type": "uint8"
        }
      ],
      "stateMutability": "pure",
      "type": "function"
    },
    {
      "inputs": [
        {
          "internalType": "uint256",
          "name": "",
          "type": "uint256"
        }
      ],
      "name": "phaseBlocks",
      "outputs": [
        {
          "internalType": "uint32",
          "name": "",
          "type": "uint32"
        }
      ],
      "stateMutability": "view",
      "type": "function"
    },
    {
      "inputs": [
        {
          "internalType": "uint256",
          "name": "redeemAmount_",
          "type": "uint256"
        }
      ],
      "name": "redeem",
      "outputs": [],
      "stateMutability": "nonpayable",
      "type": "function"
    },
    {
      "inputs": [
        {
          "internalType": "contract IERC20[]",
          "name": "specificRedeemables_",
          "type": "address[]"
        },
        {
          "internalType": "uint256",
          "name": "redeemAmount_",
          "type": "uint256"
        }
      ],
      "name": "redeemSpecific",
      "outputs": [],
      "stateMutability": "nonpayable",
      "type": "function"
    },
    {
      "inputs": [
        {
          "internalType": "bytes32",
          "name": "role",
          "type": "bytes32"
        },
        {
          "internalType": "address",
          "name": "account",
          "type": "address"
        }
      ],
      "name": "renounceRole",
      "outputs": [],
      "stateMutability": "nonpayable",
      "type": "function"
    },
    {
      "inputs": [
        {
          "internalType": "bytes32",
          "name": "role",
          "type": "bytes32"
        },
        {
          "internalType": "address",
          "name": "account",
          "type": "address"
        }
      ],
      "name": "revokeRole",
      "outputs": [],
      "stateMutability": "nonpayable",
      "type": "function"
    },
    {
      "inputs": [],
      "name": "symbol",
      "outputs": [
        {
          "internalType": "string",
          "name": "",
          "type": "string"
        }
      ],
      "stateMutability": "view",
      "type": "function"
    },
    {
      "inputs": [],
      "name": "tierContract",
      "outputs": [
        {
          "internalType": "contract ITier",
          "name": "",
          "type": "address"
        }
      ],
      "stateMutability": "view",
      "type": "function"
    },
    {
      "inputs": [],
      "name": "totalSupply",
      "outputs": [
        {
          "internalType": "uint256",
          "name": "",
          "type": "uint256"
        }
      ],
      "stateMutability": "view",
      "type": "function"
    },
    {
      "inputs": [
        {
          "internalType": "address",
          "name": "recipient",
          "type": "address"
        },
        {
          "internalType": "uint256",
          "name": "amount",
          "type": "uint256"
        }
      ],
      "name": "transfer",
      "outputs": [
        {
          "internalType": "bool",
          "name": "",
          "type": "bool"
        }
      ],
      "stateMutability": "nonpayable",
      "type": "function"
    },
    {
      "inputs": [
        {
          "internalType": "address",
          "name": "sender",
          "type": "address"
        },
        {
          "internalType": "address",
          "name": "recipient",
          "type": "address"
        },
        {
          "internalType": "uint256",
          "name": "amount",
          "type": "uint256"
        }
      ],
      "name": "transferFrom",
      "outputs": [
        {
          "internalType": "bool",
          "name": "",
          "type": "bool"
        }
      ],
      "stateMutability": "nonpayable",
      "type": "function"
    }
  ],
  "bytecode": "0x61018060405263ffffffff608081815260a082905260c082905260e08290526101008290526101208290526101408290526101609190915262000047906001906008620006f9565b503480156200005557600080fd5b5060405162003b6a38038062003b6a833981016040819052620000789162000909565b60208181015160408301516060840151600280546001600160a01b0319166001600160a01b0390921691909117905543600355815191929091620000c391600791908501906200079c565b508051620000d99060089060208401906200079c565b50506009805460ff19166012179055506001600a5560a0810151670de0b6b3a76400001115620001265760405162461bcd60e51b81526004016200011d9062000ab9565b60405180910390fd5b6080810151600c805460ff191660018360088111156200014257fe5b0217905550805162000157906000906200018f565b8051620001759060008051602062003b4a833981519152906200018f565b805160a08201516200018891906200019f565b5062000b57565b6200019b828262000284565b5050565b6001600160a01b038216620001c85760405162461bcd60e51b81526004016200011d9062000af0565b620001d660008383620002fd565b620001f2816006546200044a60201b620013491790919060201c565b6006556001600160a01b03821660009081526004602090815260409091205462000227918390620013496200044a821b17901c565b6001600160a01b0383166000818152600460205260408082209390935591519091907fddf252ad1be2c89b69c2b068fc378daa952ba7f163c4a11628f55a4df523b3ef906200027890859062000b27565b60405180910390a35050565b600082815260208181526040909120620002a9918390620013886200047b821b17901c565b156200019b57620002b962000492565b6001600160a01b0316816001600160a01b0316837f2f8788117e7eff1d82e926ec794901d17c78024a50270940304540a733656f0d60405160405180910390a45050565b620003158383836200044560201b62000b7c1760201c565b6001600160a01b038216301415620003415760405162461bcd60e51b81526004016200011d9062000a90565b6000811180156200039d5750620003797fcf2b1209506b76f140fb1bc5fe66d6e42627c4b9703a951d65552f50f14c9ee78462000496565b806200039b57506200039b60008051602062003b4a8339815191528362000496565b155b1562000445576000620003af620004ba565b6008811115620003bb57fe5b1415620003fa57600c54620003d590839060ff1662000529565b620003f45760405162461bcd60e51b81526004016200011d9062000a17565b62000445565b600162000406620004ba565b60088111156200041257fe5b141562000443576001600160a01b03821615620003f45760405162461bcd60e51b81526004016200011d9062000a70565bfe5b505050565b600082820183811015620004725760405162461bcd60e51b81526004016200011d9062000a39565b90505b92915050565b600062000472836001600160a01b038416620005d5565b3390565b600082815260208181526040822062000472918490620013aa62000624821b17901c565b604080516101008101918290526000916200052491906001906008908286855b82829054906101000a900463ffffffff1663ffffffff1681526020019060040190602082600301049283019260010382029150808411620004da5750439450506200063b92505050565b905090565b60025460405163e053ea3160e01b8152600091620005c9916001600160a01b039091169063e053ea31906200056390879060040162000a03565b60206040518083038186803b1580156200057c57600080fd5b505afa15801562000591573d6000803e3d6000fd5b505050506040513d601f19601f82011682018060405250810190620005b79190620009ea565b836200069760201b620013cc1760201c565b60035410159392505050565b6000620005e38383620006e1565b6200061b5750815460018181018455600084815260208082209093018490558454848252828601909352604090209190915562000475565b50600062000475565b600062000472836001600160a01b038416620006e1565b6000805b60088110156200068e578381600881106200065657fe5b602002015163ffffffff168363ffffffff16101562000685578060088111156200067c57fe5b91505062000475565b6001016200063f565b50600862000472565b600080826008811115620006a757fe5b1415620006b75750600062000475565b60006001836008811115620006c857fe5b0360200290508084901c63ffffffff1691505092915050565b60009081526001919091016020526040902054151590565b6001830191839082156200078a5791602002820160005b838211156200075657835183826101000a81548163ffffffff021916908363ffffffff160217905550926020019260040160208160030104928301926001030262000710565b8015620007885782816101000a81549063ffffffff021916905560040160208160030104928301926001030262000756565b505b50620007989291506200081d565b5090565b828054600181600116156101000203166002900490600052602060002090601f016020900481019282601f10620007df57805160ff19168380011785556200080f565b828001600101855582156200080f579182015b828111156200080f578251825591602001919060010190620007f2565b50620007989291506200083b565b5b808211156200079857805463ffffffff191681556001016200081e565b5b808211156200079857600081556001016200083c565b80516001600160a01b03811681146200047557600080fd5b8051600981106200047557600080fd5b600082601f8301126200088b578081fd5b81516001600160401b03811115620008a1578182fd5b6020620008b7601f8301601f1916820162000b30565b92508183528481838601011115620008ce57600080fd5b60005b82811015620008ee578481018201518482018301528101620008d1565b82811115620009005760008284860101525b50505092915050565b6000602082840312156200091b578081fd5b81516001600160401b038082111562000932578283fd5b9083019060c0828603121562000946578283fd5b6200095260c062000b30565b6200095e868462000852565b815260208301518281111562000972578485fd5b62000980878286016200087a565b60208301525060408301518281111562000998578485fd5b620009a6878286016200087a565b604083015250620009bb866060850162000852565b6060820152620009cf86608085016200086a565b608082015260a083015160a082015280935050505092915050565b600060208284031215620009fc578081fd5b5051919050565b6001600160a01b0391909116815260200190565b60208082526008908201526726a4a72faa24a2a960c11b604082015260600190565b6020808252601b908201527f536166654d6174683a206164646974696f6e206f766572666c6f770000000000604082015260600190565b602080825260069082015265232927ad22a760d11b604082015260600190565b6020808252600f908201526e2a27a5a2a72fa9a2a7222fa9a2a62360891b604082015260600190565b60208082526016908201527f4d494e494d554d5f494e495449414c5f535550504c5900000000000000000000604082015260600190565b6020808252601f908201527f45524332303a206d696e7420746f20746865207a65726f206164647265737300604082015260600190565b90815260200190565b6040518181016001600160401b038111828210171562000b4f57600080fd5b604052919050565b612fe38062000b676000396000f3fe608060405234801561001057600080fd5b50600436106102d35760003560e01c806381e45d9a11610186578063a9059cbb116100e3578063d547741f11610097578063de1533ba11610071578063de1533ba14610578578063f1ebd5dd1461058b578063fa5070a014610593576102d3565b8063d547741f1461053f578063db006a7514610552578063dd62ed3e14610565576102d3565b8063ad7430cc116100c8578063ad7430cc14610511578063c5c97ece14610519578063ca15c8731461052c576102d3565b8063a9059cbb146104f6578063ad3cb10314610509576102d3565b80639923c94b1161013a578063a217fddf1161011f578063a217fddf146104d3578063a30872db146104db578063a457c2d7146104e3576102d3565b80639923c94b146104ad5780639e46cb42146104c0576102d3565b806391d148541161016b57806391d148541461048a57806395d89b411461049d57806396773ebe146104a5576102d3565b806381e45d9a146104625780639010d07c1461046a576102d3565b806334c1df751161023457806353bcb325116101e857806370a08231116101cd57806370a082311461042957806377544f331461043c57806379cc67901461044f576102d3565b806353bcb325146104195780636050f2f814610421576102d3565b8063395093511161021957806339509351146103d357806342966c68146103e657806345bdfa8a146103f9576102d3565b806334c1df75146103ad57806336568abe146103c0576102d3565b80631c77bb2c1161028b578063248a9ca311610270578063248a9ca3146103705780632f2ff15d14610383578063313ce56714610398576102d3565b80631c77bb2c1461034857806323b872dd1461035d576102d3565b8063095ea7b3116102bc578063095ea7b31461030b5780630f0af57f1461032b57806318160ddd14610340576102d3565b8063055ad42e146102d857806306fdde03146102f6575b600080fd5b6102e061059b565b6040516102ed9190612600565b60405180910390f35b6102fe610606565b6040516102ed9190612615565b61031e6103193660046122d7565b6106ba565b6040516102ed91906125ec565b6103336106d8565b6040516102ed91906125f7565b6103336106de565b6103506106e4565b6040516102ed919061257c565b61031e61036b36600461226a565b61076a565b61033361037e366004612488565b61080c565b6103966103913660046124a0565b610824565b005b6103a061088f565b6040516102ed9190612e43565b6102e06103bb3660046123e4565b610898565b6103966103ce3660046124a0565b6108ef565b61031e6103e13660046122d7565b610965565b6103966103f4366004612488565b6109c0565b61040c6104073660046123b3565b6109d4565b6040516102ed9190612e32565b6103a0610a1c565b610333610a21565b610333610437366004612216565b610a45565b61031e61044a3660046122aa565b610a6d565b61039661045d3660046122d7565b610b2c565b61040c610b81565b61047d6104783660046124c4565b610ba5565b6040516102ed9190612535565b61031e6104983660046124a0565b610bbd565b6102fe610bd5565b610333610c54565b61040c6104bb366004612488565b610c78565b6103966104ce366004612216565b610ca5565b610333610e4c565b61047d610e51565b61031e6104f13660046122d7565b610e6d565b61031e6105043660046122d7565b610ee2565b610333610ef6565b610333610f02565b610396610527366004612302565b610f26565b61033361053a366004612488565b611140565b61039661054d3660046124a0565b611157565b610396610560366004612488565b6111ab565b610333610573366004612232565b61121c565b610396610586366004612216565b611254565b6102e061131c565b610333611325565b6040805161010081019182905260009161060191906001906008908286855b82829054906101000a900463ffffffff1663ffffffff16815260200190600401906020826003010492830192600103820291508084116105ba579050505050505043610898565b905090565b60078054604080516020601f60027fffffffffffffffffffffffffffffffffffffffffffffffffffffffffffffffff6101006001881615020190951694909404938401819004810282018101909252828152606093909290918301828280156106b05780601f10610685576101008083540402835291602001916106b0565b820191906000526020600020905b81548152906001019060200180831161069357829003601f168201915b5050505050905090565b60006106ce6106c7611412565b8484611416565b5060015b92915050565b60035481565b60065490565b6106ec6121ec565b6106f46121ec565b60005b600b5481101561076457600b818154811061070e57fe5b60009182526020909120015473ffffffffffffffffffffffffffffffffffffffff1682826008811061073c57fe5b73ffffffffffffffffffffffffffffffffffffffff90921660209290920201526001016106f7565b50905090565b6000610777848484611525565b61080184610783611412565b6107fc85604051806060016040528060288152602001612f3d6028913973ffffffffffffffffffffffffffffffffffffffff8a166000908152600560205260408120906107ce611412565b73ffffffffffffffffffffffffffffffffffffffff16815260208101919091526040016000205491906116af565b611416565b5060015b9392505050565b6000818152602081905260409020600201545b919050565b60008281526020819052604090206002015461084290610498611412565b610881576040517f08c379a000000000000000000000000000000000000000000000000000000000815260040161087890612720565b60405180910390fd5b61088b82826116f5565b5050565b60095460ff1690565b6000805b60088110156108e5578381600881106108b157fe5b602002015163ffffffff168363ffffffff1610156108dd578060088111156108d557fe5b9150506106d2565b60010161089c565b5060089392505050565b6108f7611412565b73ffffffffffffffffffffffffffffffffffffffff168173ffffffffffffffffffffffffffffffffffffffff161461095b576040517f08c379a000000000000000000000000000000000000000000000000000000000815260040161087890612dd5565b61088b8282611778565b60006106ce610972611412565b846107fc8560056000610983611412565b73ffffffffffffffffffffffffffffffffffffffff908116825260208083019390935260409182016000908120918c168152925290205490611349565b6109d16109cb611412565b826117fb565b50565b6000808260088111156109e357fe5b116109ef576000610805565b8260018360088111156109fe57fe5b0360088110610a0957fe5b60200201602081019061080591906124fd565b600881565b7fcf2b1209506b76f140fb1bc5fe66d6e42627c4b9703a951d65552f50f14c9ee781565b73ffffffffffffffffffffffffffffffffffffffff1660009081526004602052604090205490565b6002546040517fe053ea31000000000000000000000000000000000000000000000000000000008152600091610b209173ffffffffffffffffffffffffffffffffffffffff9091169063e053ea3190610aca908790600401612535565b60206040518083038186803b158015610ae257600080fd5b505afa158015610af6573d6000803e3d6000fd5b505050506040513d601f19601f82011682018060405250810190610b1a91906124e5565b836113cc565b60035410159392505050565b6000610b5e82604051806060016040528060248152602001612f6560249139610b5786610573611412565b91906116af565b9050610b7283610b6c611412565b83611416565b610b7c83836117fb565b505050565b7fffffffffffffffffffffffffffffffffffffffffffffffffffffffffffffffff81565b6000828152602081905260408120610805908361192b565b600082815260208190526040812061080590836113aa565b60088054604080516020601f60027fffffffffffffffffffffffffffffffffffffffffffffffffffffffffffffffff6101006001881615020190951694909404938401819004810282018101909252828152606093909290918301828280156106b05780601f10610685576101008083540402835291602001916106b0565b7fa67ce9b482cd7c7b30f4cea2f7e71abe8f7040cc572c570552199c488f160ad181565b60018160088110610c8557fe5b60089182820401919006600402915054906101000a900463ffffffff1681565b610ccf7fa638e6d52802f3ab217de611c9b2d0023a709998a8ce9b01094ec3fdb3ded4e233610bbd565b610d05576040517f08c379a000000000000000000000000000000000000000000000000000000000815260040161087890612d9e565b600b54600811610d41576040517f08c379a000000000000000000000000000000000000000000000000000000000815260040161087890612d67565b60005b600b54811015610dd4578173ffffffffffffffffffffffffffffffffffffffff16600b8281548110610d7257fe5b60009182526020909120015473ffffffffffffffffffffffffffffffffffffffff161415610dcc576040517f08c379a0000000000000000000000000000000000000000000000000000000008152600401610878906128ed565b600101610d44565b50600b80546001810182556000919091527f0175b7a638427703f0dbe7bb9bbf987a2551717b34e79f33b5b1008d1fa01db90180547fffffffffffffffffffffffff00000000000000000000000000000000000000001673ffffffffffffffffffffffffffffffffffffffff92909216919091179055565b600081565b60025473ffffffffffffffffffffffffffffffffffffffff1681565b60006106ce610e7a611412565b846107fc85604051806060016040528060258152602001612f896025913960056000610ea4611412565b73ffffffffffffffffffffffffffffffffffffffff908116825260208083019390935260409182016000908120918d168152925290205491906116af565b60006106ce610eef611412565b8484611525565b670de0b6b3a764000081565b7f94201143cc0a32610f14f8f185ebb23e4ca60f1758e49668647d0879b1e81f0b81565b600180610f3161059b565b6008811115610f3c57fe5b14610f73576040517f08c379a0000000000000000000000000000000000000000000000000000000008152600401610878906128b6565b6002600a541415610fb0576040517f08c379a000000000000000000000000000000000000000000000000000000000815260040161087890612d30565b6002600a556000610fbf6106de565b9050610fcb33846117fb565b60005b8451811015611134576000858281518110610fe557fe5b60200260200101519050600061108e84611088888573ffffffffffffffffffffffffffffffffffffffff166370a08231306040518263ffffffff1660e01b81526004016110329190612535565b60206040518083038186803b15801561104a57600080fd5b505afa15801561105e573d6000803e3d6000fd5b505050506040513d601f19601f8201168201806040525081019061108291906124e5565b90611937565b9061198b565b90508173ffffffffffffffffffffffffffffffffffffffff163373ffffffffffffffffffffffffffffffffffffffff167ff8eb02c03b445447861a4fda33b7470adf3b693b314b35a1efb8203edc28d65660405180604001604052808a81526020018581525060405161110191906125c4565b60405180910390a361112a73ffffffffffffffffffffffffffffffffffffffff831633836119d7565b5050600101610fce565b50506001600a55505050565b60008181526020819052604081206106d290611a78565b60008281526020819052604090206002015461117590610498611412565b61095b576040517f08c379a0000000000000000000000000000000000000000000000000000000008152600401610878906129ef565b6109d1600b80548060200260200160405190810160405280929190818152602001828054801561121157602002820191906000526020600020905b815473ffffffffffffffffffffffffffffffffffffffff1681526001909101906020018083116111e6575b505050505082610f26565b73ffffffffffffffffffffffffffffffffffffffff918216600090815260056020908152604080832093909416825291909152205490565b60008061125f61059b565b600881111561126a57fe5b146112a1576040517f08c379a0000000000000000000000000000000000000000000000000000000008152600401610878906128b6565b6112cb7fa67ce9b482cd7c7b30f4cea2f7e71abe8f7040cc572c570552199c488f160ad133610bbd565b611301576040517f08c379a000000000000000000000000000000000000000000000000000000000815260040161087890612cf9565b61130a43611a83565b61088b8261131784610a45565b6117fb565b600c5460ff1681565b7fa638e6d52802f3ab217de611c9b2d0023a709998a8ce9b01094ec3fdb3ded4e281565b600082820183811015610805576040517f08c379a000000000000000000000000000000000000000000000000000000000815260040161087890612848565b60006108058373ffffffffffffffffffffffffffffffffffffffff8416611bf9565b60006108058373ffffffffffffffffffffffffffffffffffffffff8416611c43565b6000808260088111156113db57fe5b14156113e9575060006106d2565b600060018360088111156113f957fe5b0360200290508084901c63ffffffff1691505092915050565b3390565b73ffffffffffffffffffffffffffffffffffffffff8316611463576040517f08c379a000000000000000000000000000000000000000000000000000000000815260040161087890612c08565b73ffffffffffffffffffffffffffffffffffffffff82166114b0576040517f08c379a0000000000000000000000000000000000000000000000000000000008152600401610878906127b4565b73ffffffffffffffffffffffffffffffffffffffff80841660008181526005602090815260408083209487168084529490915290819020849055517f8c5be1e5ebec7d5bd14f71427d1e84f3dd0314c0f7b2291e5b200ac8c7c3b925906115189085906125f7565b60405180910390a3505050565b73ffffffffffffffffffffffffffffffffffffffff8316611572576040517f08c379a000000000000000000000000000000000000000000000000000000000815260040161087890612b74565b73ffffffffffffffffffffffffffffffffffffffff82166115bf576040517f08c379a0000000000000000000000000000000000000000000000000000000008152600401610878906126c3565b6115ca838383611c5b565b61161481604051806060016040528060268152602001612f176026913973ffffffffffffffffffffffffffffffffffffffff861660009081526004602052604090205491906116af565b73ffffffffffffffffffffffffffffffffffffffff80851660009081526004602052604080822093909355908416815220546116509082611349565b73ffffffffffffffffffffffffffffffffffffffff80841660008181526004602052604090819020939093559151908516907fddf252ad1be2c89b69c2b068fc378daa952ba7f163c4a11628f55a4df523b3ef906115189085906125f7565b600081848411156116ed576040517f08c379a00000000000000000000000000000000000000000000000000000000081526004016108789190612615565b505050900390565b600082815260208190526040902061170d9082611388565b1561088b5761171a611412565b73ffffffffffffffffffffffffffffffffffffffff168173ffffffffffffffffffffffffffffffffffffffff16837f2f8788117e7eff1d82e926ec794901d17c78024a50270940304540a733656f0d60405160405180910390a45050565b60008281526020819052604090206117909082611df4565b1561088b5761179d611412565b73ffffffffffffffffffffffffffffffffffffffff168173ffffffffffffffffffffffffffffffffffffffff16837ff6391f5c32d9c69d2a47ea670b442974b53935d1edc7fd64eb21e047a839171b60405160405180910390a45050565b73ffffffffffffffffffffffffffffffffffffffff8216611848576040517f08c379a000000000000000000000000000000000000000000000000000000000815260040161087890612b17565b61185482600083611c5b565b61189e81604051806060016040528060228152602001612ef56022913973ffffffffffffffffffffffffffffffffffffffff851660009081526004602052604090205491906116af565b73ffffffffffffffffffffffffffffffffffffffff83166000908152600460205260409020556006546118d19082611e16565b60065560405160009073ffffffffffffffffffffffffffffffffffffffff8416907fddf252ad1be2c89b69c2b068fc378daa952ba7f163c4a11628f55a4df523b3ef9061191f9085906125f7565b60405180910390a35050565b60006108058383611e58565b600082611946575060006106d2565b8282028284828161195357fe5b0414610805576040517f08c379a000000000000000000000000000000000000000000000000000000000815260040161087890612aba565b60008082116119c6576040517f08c379a0000000000000000000000000000000000000000000000000000000008152600401610878906129b8565b8183816119cf57fe5b049392505050565b610b7c8363a9059cbb60e01b84846040516024016119f6929190612556565b604080517fffffffffffffffffffffffffffffffffffffffffffffffffffffffffffffffe08184030181529190526020810180517bffffffffffffffffffffffffffffffffffffffffffffffffffffffff167fffffffff0000000000000000000000000000000000000000000000000000000090931692909217909152611eb7565b60006106d282611f6d565b8063ffffffff164363ffffffff161115611ac9576040517f08c379a00000000000000000000000000000000000000000000000000000000081526004016108789061277d565b63ffffffff81811610611b08576040517f08c379a00000000000000000000000000000000000000000000000000000000081526004016108789061287f565b6000611b1261059b565b6008811115611b1d57fe5b905060018160088110611b2c57fe5b60088104919091015460079091166004026101000a900463ffffffff90811614611b82576040517f08c379a000000000000000000000000000000000000000000000000000000000815260040161087890612bd1565b611b8b82611f71565b8160018260088110611b9957fe5b600891828204019190066004026101000a81548163ffffffff021916908363ffffffff1602179055508163ffffffff167f260aac5b840edc27b89fdf50e91311a413363a400959466e1049e6d071b8cee260405160405180910390a25050565b6000611c058383611c43565b611c3b575081546001818101845560008481526020808220909301849055845484825282860190935260409020919091556106d2565b5060006106d2565b60009081526001919091016020526040902054151590565b611c66838383610b7c565b73ffffffffffffffffffffffffffffffffffffffff8216301415611cb6576040517f08c379a000000000000000000000000000000000000000000000000000000000815260040161087890612a83565b600081118015611d1d5750611ceb7fcf2b1209506b76f140fb1bc5fe66d6e42627c4b9703a951d65552f50f14c9ee784610bbd565b80611d1b5750611d1b7f94201143cc0a32610f14f8f185ebb23e4ca60f1758e49668647d0879b1e81f0b83610bbd565b155b15610b7c576000611d2c61059b565b6008811115611d3757fe5b1415611d8957600c54611d4e90839060ff16610a6d565b611d84576040517f08c379a000000000000000000000000000000000000000000000000000000000815260040161087890612811565b610b7c565b6001611d9361059b565b6008811115611d9e57fe5b1415611df25773ffffffffffffffffffffffffffffffffffffffff821615611d84576040517f08c379a000000000000000000000000000000000000000000000000000000000815260040161087890612a4c565bfe5b60006108058373ffffffffffffffffffffffffffffffffffffffff8416611f96565b600082821115611e52576040517f08c379a000000000000000000000000000000000000000000000000000000000815260040161087890612924565b50900390565b81546000908210611e95576040517f08c379a000000000000000000000000000000000000000000000000000000000815260040161087890612666565b826000018281548110611ea457fe5b9060005260206000200154905092915050565b6060611f19826040518060400160405280602081526020017f5361666545524332303a206c6f772d6c6576656c2063616c6c206661696c65648152508573ffffffffffffffffffffffffffffffffffffffff1661207a9092919063ffffffff16565b805190915015610b7c5780806020019051810190611f379190612468565b610b7c576040517f08c379a000000000000000000000000000000000000000000000000000000000815260040161087890612c9c565b5490565b611f7a816109d1565b6002611f8461059b565b6008811115611f8f57fe5b106109d157fe5b600081815260018301602052604081205480156120705783547fffffffffffffffffffffffffffffffffffffffffffffffffffffffffffffffff8083019190810190600090879083908110611fe757fe5b906000526020600020015490508087600001848154811061200457fe5b60009182526020808320909101929092558281526001898101909252604090209084019055865487908061203457fe5b600190038181906000526020600020016000905590558660010160008781526020019081526020016000206000905560019450505050506106d2565b60009150506106d2565b60606120898484600085612091565b949350505050565b6060824710156120cd576040517f08c379a00000000000000000000000000000000000000000000000000000000081526004016108789061295b565b6120d685612193565b61210c576040517f08c379a000000000000000000000000000000000000000000000000000000000815260040161087890612c65565b600060608673ffffffffffffffffffffffffffffffffffffffff1685876040516121369190612519565b60006040518083038185875af1925050503d8060008114612173576040519150601f19603f3d011682016040523d82523d6000602084013e612178565b606091505b5091509150612188828286612199565b979650505050505050565b3b151590565b606083156121a8575081610805565b8251156121b85782518084602001fd5b816040517f08c379a00000000000000000000000000000000000000000000000000000000081526004016108789190612615565b6040518061010001604052806008906020820280368337509192915050565b80356106d281612eb3565b600060208284031215612227578081fd5b813561080581612eb3565b60008060408385031215612244578081fd5b823561224f81612eb3565b9150602083013561225f81612eb3565b809150509250929050565b60008060006060848603121561227e578081fd5b833561228981612eb3565b9250602084013561229981612eb3565b929592945050506040919091013590565b600080604083850312156122bc578182fd5b82356122c781612eb3565b9150602083013561225f81612ed5565b600080604083850312156122e9578182fd5b82356122f481612eb3565b946020939093013593505050565b60008060408385031215612314578182fd5b823567ffffffffffffffff8082111561232b578384fd5b818501915085601f83011261233e578384fd5b81358181111561234c578485fd5b6020915081810261235e838201612e51565b8281528381019085850183870186018b1015612378578889fd5b8896505b848710156123a25761238e8b8261220b565b83526001969096019591850191850161237c565b509997909301359750505050505050565b60008061012083850312156123c6578182fd5b6101008301848111156123d7578283fd5b8392503561225f81612ed5565b60008061012083850312156123f7578182fd5b83601f840112612405578182fd5b61010061241181612e51565b90840190808587841115612423578586fd5b855b600881101561245657813563ffffffff81168114612441578788fd5b84526020938401939190910190600101612425565b50909450509035905061225f81612ee2565b600060208284031215612479578081fd5b81518015158114610805578182fd5b600060208284031215612499578081fd5b5035919050565b600080604083850312156124b2578182fd5b82359150602083013561225f81612eb3565b600080604083850312156124d6578182fd5b50508035926020909101359150565b6000602082840312156124f6578081fd5b5051919050565b60006020828403121561250e578081fd5b813561080581612ee2565b6000825161252b818460208701612e83565b9190910192915050565b73ffffffffffffffffffffffffffffffffffffffff91909116815260200190565b73ffffffffffffffffffffffffffffffffffffffff929092168252602082015260400190565b6101008101818360005b60088110156125bb57815173ffffffffffffffffffffffffffffffffffffffff16835260209283019290910190600101612586565b50505092915050565b60408101818360005b60028110156125bb5781518352602092830192909101906001016125cd565b901515815260200190565b90815260200190565b6020810161260d83612e78565b825292915050565b6000602082528251806020840152612634816040850160208701612e83565b601f017fffffffffffffffffffffffffffffffffffffffffffffffffffffffffffffffe0169190910160400192915050565b60208082526022908201527f456e756d657261626c655365743a20696e646578206f7574206f6620626f756e60408201527f6473000000000000000000000000000000000000000000000000000000000000606082015260800190565b60208082526023908201527f45524332303a207472616e7366657220746f20746865207a65726f206164647260408201527f6573730000000000000000000000000000000000000000000000000000000000606082015260800190565b6020808252602f908201527f416363657373436f6e74726f6c3a2073656e646572206d75737420626520616e60408201527f2061646d696e20746f206772616e740000000000000000000000000000000000606082015260800190565b6020808252600f908201527f4e4558545f424c4f434b5f504153540000000000000000000000000000000000604082015260600190565b60208082526022908201527f45524332303a20617070726f766520746f20746865207a65726f20616464726560408201527f7373000000000000000000000000000000000000000000000000000000000000606082015260800190565b60208082526008908201527f4d494e5f54494552000000000000000000000000000000000000000000000000604082015260600190565b6020808252601b908201527f536166654d6174683a206164646974696f6e206f766572666c6f770000000000604082015260600190565b60208082526018908201527f4e4558545f424c4f434b5f554e494e495449414c495a45440000000000000000604082015260600190565b60208082526009908201527f4241445f50484153450000000000000000000000000000000000000000000000604082015260600190565b60208082526014908201527f4455504c49434154455f52454445454d41424c45000000000000000000000000604082015260600190565b6020808252601e908201527f536166654d6174683a207375627472616374696f6e206f766572666c6f770000604082015260600190565b60208082526026908201527f416464726573733a20696e73756666696369656e742062616c616e636520666f60408201527f722063616c6c0000000000000000000000000000000000000000000000000000606082015260800190565b6020808252601a908201527f536166654d6174683a206469766973696f6e206279207a65726f000000000000604082015260600190565b60208082526030908201527f416363657373436f6e74726f6c3a2073656e646572206d75737420626520616e60408201527f2061646d696e20746f207265766f6b6500000000000000000000000000000000606082015260800190565b60208082526006908201527f46524f5a454e0000000000000000000000000000000000000000000000000000604082015260600190565b6020808252600f908201527f544f4b454e5f53454e445f53454c460000000000000000000000000000000000604082015260600190565b60208082526021908201527f536166654d6174683a206d756c7469706c69636174696f6e206f766572666c6f60408201527f7700000000000000000000000000000000000000000000000000000000000000606082015260800190565b60208082526021908201527f45524332303a206275726e2066726f6d20746865207a65726f2061646472657360408201527f7300000000000000000000000000000000000000000000000000000000000000606082015260800190565b60208082526025908201527f45524332303a207472616e736665722066726f6d20746865207a65726f20616460408201527f6472657373000000000000000000000000000000000000000000000000000000606082015260800190565b6020808252600e908201527f4e4558545f424c4f434b5f534554000000000000000000000000000000000000604082015260600190565b60208082526024908201527f45524332303a20617070726f76652066726f6d20746865207a65726f2061646460408201527f7265737300000000000000000000000000000000000000000000000000000000606082015260800190565b6020808252601d908201527f416464726573733a2063616c6c20746f206e6f6e2d636f6e7472616374000000604082015260600190565b6020808252602a908201527f5361666545524332303a204552433230206f7065726174696f6e20646964206e60408201527f6f74207375636365656400000000000000000000000000000000000000000000606082015260800190565b60208082526017908201527f4f4e4c595f4449535452494255544f525f4255524e4552000000000000000000604082015260600190565b6020808252601f908201527f5265656e7472616e637947756172643a207265656e7472616e742063616c6c00604082015260600190565b6020808252600f908201527f4d41585f52454445454d41424c45530000000000000000000000000000000000604082015260600190565b60208082526015908201527f4f4e4c595f52454445454d41424c455f41444445520000000000000000000000604082015260600190565b6020808252602f908201527f416363657373436f6e74726f6c3a2063616e206f6e6c792072656e6f756e636560408201527f20726f6c657320666f722073656c660000000000000000000000000000000000606082015260800190565b63ffffffff91909116815260200190565b60ff91909116815260200190565b60405181810167ffffffffffffffff81118282101715612e7057600080fd5b604052919050565b806009811061081f57fe5b60005b83811015612e9e578181015183820152602001612e86565b83811115612ead576000848401525b50505050565b73ffffffffffffffffffffffffffffffffffffffff811681146109d157600080fd5b600981106109d157600080fd5b63ffffffff811681146109d157600080fdfe45524332303a206275726e20616d6f756e7420657863656564732062616c616e636545524332303a207472616e7366657220616d6f756e7420657863656564732062616c616e636545524332303a207472616e7366657220616d6f756e74206578636565647320616c6c6f77616e636545524332303a206275726e20616d6f756e74206578636565647320616c6c6f77616e636545524332303a2064656372656173656420616c6c6f77616e63652062656c6f77207a65726fa2646970667358221220f4ac24256c84e09a45c5241a7e4aacb3b0af359ef577ec62ab3e882bc132f7bd64736f6c634300060c003394201143cc0a32610f14f8f185ebb23e4ca60f1758e49668647d0879b1e81f0b",
  "linkReferences": {},
  "deployedLinkReferences": {}
}