{
  "address": "0xB12524A002451212f6F336010A41fa3b6BAbe135",
  "abi": [
    {
      "inputs": [
        {
          "components": [
            {
              "internalType": "uint256",
              "name": "maximumSaleTimeout",
              "type": "uint256"
            },
            {
              "internalType": "uint256",
              "name": "maximumCooldownDuration",
              "type": "uint256"
            },
            {
              "internalType": "contract RedeemableERC20Factory",
              "name": "redeemableERC20Factory",
              "type": "address"
            },
            {
              "internalType": "address",
              "name": "vmStateBuilder",
              "type": "address"
            }
          ],
          "internalType": "struct SaleConstructorConfig",
          "name": "config_",
          "type": "tuple"
        }
      ],
      "stateMutability": "nonpayable",
      "type": "constructor"
    },
    {
      "anonymous": false,
      "inputs": [
        {
          "indexed": false,
          "internalType": "address",
          "name": "sender",
          "type": "address"
        },
        {
          "indexed": false,
          "internalType": "address",
          "name": "implementation",
          "type": "address"
        }
      ],
      "name": "Implementation",
      "type": "event"
    },
    {
      "anonymous": false,
      "inputs": [
        {
          "indexed": false,
          "internalType": "address",
          "name": "sender",
          "type": "address"
        },
        {
          "indexed": false,
          "internalType": "address",
          "name": "child",
          "type": "address"
        }
      ],
      "name": "NewChild",
      "type": "event"
    },
    {
      "inputs": [
        {
          "internalType": "bytes",
          "name": "data_",
          "type": "bytes"
        }
      ],
      "name": "createChild",
      "outputs": [
        {
          "internalType": "address",
          "name": "",
          "type": "address"
        }
      ],
      "stateMutability": "nonpayable",
      "type": "function"
    },
    {
      "inputs": [
        {
          "components": [
            {
              "components": [
                {
                  "internalType": "bytes[]",
                  "name": "sources",
                  "type": "bytes[]"
                },
                {
                  "internalType": "uint256[]",
                  "name": "constants",
                  "type": "uint256[]"
                }
              ],
              "internalType": "struct StateConfig",
              "name": "vmStateConfig",
              "type": "tuple"
            },
            {
              "internalType": "address",
              "name": "recipient",
              "type": "address"
            },
            {
              "internalType": "address",
              "name": "reserve",
              "type": "address"
            },
            {
              "internalType": "uint256",
              "name": "saleTimeout",
              "type": "uint256"
            },
            {
              "internalType": "uint256",
              "name": "cooldownDuration",
              "type": "uint256"
            },
            {
              "internalType": "uint256",
              "name": "minimumRaise",
              "type": "uint256"
            },
            {
              "internalType": "uint256",
              "name": "dustSize",
              "type": "uint256"
            }
          ],
          "internalType": "struct SaleConfig",
          "name": "config_",
          "type": "tuple"
        },
        {
          "components": [
            {
              "components": [
                {
                  "internalType": "string",
                  "name": "name",
                  "type": "string"
                },
                {
                  "internalType": "string",
                  "name": "symbol",
                  "type": "string"
                },
                {
                  "internalType": "address",
                  "name": "distributor",
                  "type": "address"
                },
                {
                  "internalType": "uint256",
                  "name": "initialSupply",
                  "type": "uint256"
                }
              ],
              "internalType": "struct ERC20Config",
              "name": "erc20Config",
              "type": "tuple"
            },
            {
              "internalType": "address",
              "name": "tier",
              "type": "address"
            },
            {
              "internalType": "uint256",
              "name": "minimumTier",
              "type": "uint256"
            },
            {
              "internalType": "address",
              "name": "distributionEndForwardingAddress",
              "type": "address"
            }
          ],
          "internalType": "struct SaleRedeemableERC20Config",
          "name": "saleRedeemableERC20Config_",
          "type": "tuple"
        }
      ],
      "name": "createChildTyped",
      "outputs": [
        {
          "internalType": "contract Sale",
          "name": "",
          "type": "address"
        }
      ],
      "stateMutability": "nonpayable",
      "type": "function"
    },
    {
      "inputs": [
        {
          "internalType": "address",
          "name": "maybeChild_",
          "type": "address"
        }
      ],
      "name": "isChild",
      "outputs": [
        {
          "internalType": "bool",
          "name": "",
          "type": "bool"
        }
      ],
      "stateMutability": "view",
      "type": "function"
    }
  ],
  "transactionHash": "0xfeb1f7c835234ea31f171e91727442a1cdbd357c88431b51d0ed9a88eb2f724f",
  "args": [
    {
      "maximumSaleTimeout": 10000,
      "maximumCooldownDuration": 1000,
      "redeemableERC20Factory": "0x48fe1d487826D7aEc87920b19a7C19Dd19de9CCA",
      "vmStateBuilder": "0x6D6aEda4Ba6687F7a5A040875b6ba2Ef0C468696"
    }
  ],
  "numDeployments": 1,
  "solcInputHash": "055c200f462499c3452e24a9d9708423",
  "bytecode": "0x60a06040523480156200001157600080fd5b5060405162006ddb38038062006ddb833981016040819052620000349162000168565b6001600090815560405182906200004b9062000141565b81518152602080830151908201526040808301516001600160a01b03908116828401526060938401511692820192909252905190819003608001906000f0801580156200009c573d6000803e3d6000fd5b5090506001600160a01b038116620000ed5760405162461bcd60e51b815260206004820152601060248201526f182fa4a6a82622a6a2a72a20aa24a7a760811b604482015260640160405180910390fd5b604080513381526001600160a01b03831660208201527f7fac34ecf0b1b374cd9659e3d17db602659d53f1162b1f20142e6c02694aed70910160405180910390a16001600160a01b031660805250620001f0565b6159a3806200143883390190565b6001600160a01b03811681146200016557600080fd5b50565b6000608082840312156200017b57600080fd5b604051608081016001600160401b0381118282101715620001ac57634e487b7160e01b600052604160045260246000fd5b806040525082518152602083015160208201526040830151620001cf816200014f565b60408201526060830151620001e4816200014f565b60608201529392505050565b60805161122c6200020c600039600061034e015261122c6000f3fe608060405234801561001057600080fd5b50600436106100415760003560e01c80632ea72a491461004657806333504dad14610083578063fc91a89714610096575b600080fd5b6100596100543660046104e7565b6100df565b60405173ffffffffffffffffffffffffffffffffffffffff90911681526020015b60405180910390f35b610059610091366004610559565b61028d565b6100cf6100a43660046105fc565b73ffffffffffffffffffffffffffffffffffffffff1660009081526001602052604090205460ff1690565b604051901515815260200161007a565b600060026000541415610153576040517f08c379a000000000000000000000000000000000000000000000000000000000815260206004820152601f60248201527f5265656e7472616e637947756172643a207265656e7472616e742063616c6c0060448201526064015b60405180910390fd5b600260009081556101648484610333565b73ffffffffffffffffffffffffffffffffffffffff811660009081526001602052604090205490915060ff16156101f7576040517f08c379a000000000000000000000000000000000000000000000000000000000815260206004820152600f60248201527f4455504c49434154455f4348494c440000000000000000000000000000000000604482015260640161014a565b73ffffffffffffffffffffffffffffffffffffffff811660008181526001602081815260409283902080547fffffffffffffffffffffffffffffffffffffffffffffffffffffffffffffff00169092179091558151338152908101929092527f7da70c4e5387d7038610b79ca7d304caaef815826e51e67cf247135387a79bce910160405180910390a160016000559392505050565b60003073ffffffffffffffffffffffffffffffffffffffff16632ea72a4984846040516020016102be92919061095e565b6040516020818303038152906040526040518263ffffffff1660e01b81526004016102e99190610aae565b6020604051808303816000875af1158015610308573d6000803e3d6000fd5b505050506040513d601f19601f8201168201806040525081019061032c9190610ac1565b9392505050565b6000808061034384860186610ed0565b9150915060006103727f0000000000000000000000000000000000000000000000000000000000000000610405565b6040517f278a6a6d00000000000000000000000000000000000000000000000000000000815290915073ffffffffffffffffffffffffffffffffffffffff82169063278a6a6d906103c99086908690600401611077565b600060405180830381600087803b1580156103e357600080fd5b505af11580156103f7573d6000803e3d6000fd5b509298975050505050505050565b60006040517f3d602d80600a3d3981f3363d3d373d3d3d363d7300000000000000000000000081528260601b60148201527f5af43d82803e903d91602b57fd5bf3000000000000000000000000000000000060288201526037816000f091505073ffffffffffffffffffffffffffffffffffffffff81166104e2576040517f08c379a000000000000000000000000000000000000000000000000000000000815260206004820152601660248201527f455243313136373a20637265617465206661696c656400000000000000000000604482015260640161014a565b919050565b600080602083850312156104fa57600080fd5b823567ffffffffffffffff8082111561051257600080fd5b818501915085601f83011261052657600080fd5b81358181111561053557600080fd5b86602082850101111561054757600080fd5b60209290920196919550909350505050565b6000806040838503121561056c57600080fd5b823567ffffffffffffffff8082111561058457600080fd5b9084019060e0828703121561059857600080fd5b909250602084013590808211156105ae57600080fd5b508301608081860312156105c157600080fd5b809150509250929050565b73ffffffffffffffffffffffffffffffffffffffff811681146105ee57600080fd5b50565b80356104e2816105cc565b60006020828403121561060e57600080fd5b813561032c816105cc565b60008083357fffffffffffffffffffffffffffffffffffffffffffffffffffffffffffffffe184360301811261064e57600080fd5b830160208101925035905067ffffffffffffffff81111561066e57600080fd5b8060051b360383131561068057600080fd5b9250929050565b8183528181602085013750600060208284010152600060207fffffffffffffffffffffffffffffffffffffffffffffffffffffffffffffffe0601f840116840101905092915050565b60008083357fffffffffffffffffffffffffffffffffffffffffffffffffffffffffffffffe184360301811261070557600080fd5b830160208101925035905067ffffffffffffffff81111561072557600080fd5b80360383131561068057600080fd5b6000604083016107448384610619565b604086528281845260608701905060608260051b88010193508260005b838110156107bc577fffffffffffffffffffffffffffffffffffffffffffffffffffffffffffffffa089870301835261079a82866106d0565b6107a5888284610687565b975050506020928301929190910190600101610761565b50505050506107ce6020840184610619565b85830360208701528083527f07ffffffffffffffffffffffffffffffffffffffffffffffffffffffffffffff81111561080657600080fd5b60051b8082602085013760009201602001918252509392505050565b600081357fffffffffffffffffffffffffffffffffffffffffffffffffffffffffffffff8183360301811261085657600080fd5b60808452820161086681806106d0565b60808087015261087b61010087018284610687565b91505061088b60208301836106d0565b7fffffffffffffffffffffffffffffffffffffffffffffffffffffffffffffff808784030160a08801526108c0838284610687565b9250505060408201356108d2816105cc565b73ffffffffffffffffffffffffffffffffffffffff1660c0860152606082013560e0860152610903602085016105f1565b73ffffffffffffffffffffffffffffffffffffffff81166020870152915060408401356040860152610937606085016105f1565b73ffffffffffffffffffffffffffffffffffffffff8116606087015291505b949350505050565b60408152600083357fffffffffffffffffffffffffffffffffffffffffffffffffffffffffffffffc185360301811261099657600080fd5b60e060408401526109ad6101208401868301610734565b90506109bb602086016105f1565b73ffffffffffffffffffffffffffffffffffffffff1660608401526109e2604086016105f1565b73ffffffffffffffffffffffffffffffffffffffff8116608085015250606085013560a0840152608085013560c084015260a085013560e084015260c08501356101008401528281036020840152610a3a8185610822565b95945050505050565b6000815180845260005b81811015610a6957602081850181015186830182015201610a4d565b81811115610a7b576000602083870101525b50601f017fffffffffffffffffffffffffffffffffffffffffffffffffffffffffffffffe0169290920160200192915050565b60208152600061032c6020830184610a43565b600060208284031215610ad357600080fd5b815161032c816105cc565b7f4e487b7100000000000000000000000000000000000000000000000000000000600052604160045260246000fd5b6040805190810167ffffffffffffffff81118282101715610b3057610b30610ade565b60405290565b6040516080810167ffffffffffffffff81118282101715610b3057610b30610ade565b60405160e0810167ffffffffffffffff81118282101715610b3057610b30610ade565b604051601f82017fffffffffffffffffffffffffffffffffffffffffffffffffffffffffffffffe016810167ffffffffffffffff81118282101715610bc357610bc3610ade565b604052919050565b600067ffffffffffffffff821115610be557610be5610ade565b5060051b60200190565b600067ffffffffffffffff831115610c0957610c09610ade565b610c3a60207fffffffffffffffffffffffffffffffffffffffffffffffffffffffffffffffe0601f86011601610b7c565b9050828152838383011115610c4e57600080fd5b828260208301376000602084830101529392505050565b600082601f830112610c7657600080fd5b81356020610c8b610c8683610bcb565b610b7c565b82815260059290921b84018101918181019086841115610caa57600080fd5b8286015b84811015610cc55780358352918301918301610cae565b509695505050505050565b60006040808385031215610ce357600080fd5b610ceb610b0d565b9150823567ffffffffffffffff80821115610d0557600080fd5b818501915085601f830112610d1957600080fd5b81356020610d29610c8683610bcb565b82815260059290921b84018101918181019089841115610d4857600080fd5b8286015b84811015610d9457803586811115610d645760008081fd5b8701603f81018c13610d765760008081fd5b610d868c868301358b8401610bef565b845250918301918301610d4c565b5087525086810135945082851115610dab57600080fd5b610db788868901610c65565b81870152505050505092915050565b600082601f830112610dd757600080fd5b61032c83833560208501610bef565b600060808284031215610df857600080fd5b610e00610b36565b9050813567ffffffffffffffff80821115610e1a57600080fd5b9083019060808286031215610e2e57600080fd5b610e36610b36565b823582811115610e4557600080fd5b610e5187828601610dc6565b825250602083013582811115610e6657600080fd5b610e7287828601610dc6565b60208301525060408301359150610e88826105cc565b81604082015260608301356060820152808452505050610eaa602083016105f1565b602082015260408201356040820152610ec5606083016105f1565b606082015292915050565b60008060408385031215610ee357600080fd5b823567ffffffffffffffff80821115610efb57600080fd5b9084019060e08287031215610f0f57600080fd5b610f17610b59565b823582811115610f2657600080fd5b610f3288828601610cd0565b825250610f41602084016105f1565b6020820152610f52604084016105f1565b6040820152606083013560608201526080830135608082015260a083013560a082015260c083013560c0820152809450506020850135915080821115610f9757600080fd5b50610fa485828601610de6565b9150509250929050565b60008151608084528051608080860152610fcc610100860182610a43565b905060208201517fffffffffffffffffffffffffffffffffffffffffffffffffffffffffffffff808683030160a08701526110078282610a43565b915050604082015173ffffffffffffffffffffffffffffffffffffffff80821660c0880152606084015160e088015280602087015116602088015250506040840151604086015260608401519150610956606086018373ffffffffffffffffffffffffffffffffffffffff169052565b604081526000835160e0604084015261016083018151604061012086015281815180845261018093508387019150838160051b88010193506020808401935060005b82811015611105577ffffffffffffffffffffffffffffffffffffffffffffffffffffffffffffffe808987030184526110f3868651610a43565b955093810193928101926001016110b9565b50948501518785037ffffffffffffffffffffffffffffffffffffffffffffffffffffffffffffffee001610140890152805180865290860195600095810194509092505b828510156111695785518452948501946001949094019392830192611149565b8981015173ffffffffffffffffffffffffffffffffffffffff811660608a0152955060408a015173ffffffffffffffffffffffffffffffffffffffff811660808a0152955060608a015160a089015260808a015160c089015260a08a015160e089015260c08a0151610100890152878403818901525050506111eb8187610fae565b97965050505050505056fea2646970667358221220e3eef224e8797cb9b10ccecbe6ab8e1bb13cb6d44116f47500122da877eebdd264736f6c634300080a00336101006040523480156200001257600080fd5b50604051620059a3380380620059a38339810160408190526200003591620000e1565b6001600455306080908152606082810180516001600160a01b0390811660a0908152855160c05260408087018051841660e052815133815288516020808301919091528901519281019290925251831694810194909452915116928201929092527fff17a663a2bf6c40dc1bc40139e25068b0f997d33219ddf9910b87c489ef1b0e910160405180910390a15062000169565b6001600160a01b0381168114620000de57600080fd5b50565b600060808284031215620000f457600080fd5b604051608081016001600160401b03811182821017156200012557634e487b7160e01b600052604160045260246000fd5b8060405250825181526020830151602082015260408301516200014881620000c8565b604082015260608301516200015d81620000c8565b60608201529392505050565b60805160a05160c05160e051615800620001a360003960006109d80152600061051e015260006107750152600061079c01526158006000f3fe608060405234801561001057600080fd5b50600436106100ea5760003560e01c8063cd3293de1161008c578063efbe1c1c11610066578063efbe1c1c146101f7578063f2cd6c08146101ff578063f9020e33146103ab578063fc0c546a146103be57600080fd5b8063cd3293de1461017f578063d48827e9146101a8578063e0419ae3146101bb57600080fd5b8063504d14f8116100c8578063504d14f81461014457806368d1e1921461015757806370dea79a1461016f578063be9a65551461017757600080fd5b80630d548a17146100ef57806315a0ea6a1461011c578063278a6a6d14610131575b600080fd5b6101026100fd366004614506565b6103c6565b604080519283526020830191909152015b60405180910390f35b61012f61012a36600461454c565b6103e3565b005b61012f61013f3660046146ac565b6104ce565b61012f6101523660046147e6565b610bd7565b61015f610e23565b6040519015158152602001610113565b61012f610e3a565b61012f61102e565b6008545b60405173ffffffffffffffffffffffffffffffffffffffff9091168152602001610113565b61012f6101b63660046147f8565b611129565b60408051808201825260008082526020918201528151808301835260058082526004918301918252835190815290519181019190915201610113565b61012f611887565b604080516105e081018252600060208201819052818301819052606082018190526080820181905260a0820181905260c082015261289260e08201819052612986610100830152612a12610120830152612b33610140830152610160820152612bdc610180820152612ce46101a0820152612db86101c0820152612fb56101e0820152612fc0610200820152612fcb610220820152612fd6610240820152612fe161026082015261301561028082015261307b6102a08201526130e16102c08201526131156102e082015261314961030082015261317e6103208201526131d961034082015261322f6103608201526132586103808201526132af6103a08201526132dc6103c08201526133336103e082015261339e6104008201526133fb6104208201526134396104408201526134726104608201526134a66104808201526134d86104a082015261350a6104c082015261353c6104e08201526135706105008201526135c26105208201526135fb6105408201526136ad6105608201526137da6105808201526138366105a08201526138f06105c0808301919091528152905161011391906148e7565b600d5460ff166040516101139190614964565b600754610183565b6000806103da6103d4611983565b846119e0565b91509150915091565b6002600d5460ff1660038111156103fc576103fc6148fa565b14610468576040517f08c379a000000000000000000000000000000000000000000000000000000000815260206004820152600b60248201527f4e4f545f5355434345535300000000000000000000000000000000000000000060448201526064015b60405180910390fd5b73ffffffffffffffffffffffffffffffffffffffff811660009081526011602052604090205480156104ca5773ffffffffffffffffffffffffffffffffffffffff8083166000908152601160205260408120556008546104ca91168383611a81565b5050565b60006104da6001611b55565b9050801561050f57600080547fffffffffffffffffffffffffffffffffffffffffffffffffffffffffffff00ff166101001790555b61051c8360800135611ce0565b7f0000000000000000000000000000000000000000000000000000000000000000836060013511156105aa576040517f08c379a000000000000000000000000000000000000000000000000000000000815260206004820152600b60248201527f4d41585f54494d454f5554000000000000000000000000000000000000000000604482015260640161045f565b6105b86060840135426149a1565b600e5560a0830135610626576040517f08c379a000000000000000000000000000000000000000000000000000000000815260206004820152600b60248201527f4d494e5f52414953455f30000000000000000000000000000000000000000000604482015260640161045f565b8260a00135600b819055506106716040518060e00160405280600081526020016000815260200160008152602001600081526020016000815260200160008152602001600081525090565b6000808252600160208084018290526040805160e08101825280820185905260608082018690526080820186905260a0820186905260c082018690529381526002818401819052825181815294850190925293929182015b6107096040518060e00160405280600081526020016000815260200160008152602001600081526020016000815260200160008152602001600081525090565b8152602001906001900390816106c95790505090508281600081518110610732576107326149b9565b60200260200101819052508181600181518110610751576107516149b9565b6020908102919091010152600073ffffffffffffffffffffffffffffffffffffffff7f0000000000000000000000000000000000000000000000000000000000000000166317376ae07f00000000000000000000000000000000000000000000000000000000000000006107c58a806149e8565b856040518463ffffffff1660e01b81526004016107e493929190614c2e565b6000604051808303816000875af1158015610803573d6000803e3d6000fd5b505050506040513d6000823e601f3d9081017fffffffffffffffffffffffffffffffffffffffffffffffffffffffffffffffe01682016040526108499190810190614cdf565b905061085481611e0b565b600a80547fffffffffffffffffffffffff00000000000000000000000000000000000000001673ffffffffffffffffffffffffffffffffffffffff929092169190911790556108a9604088016020890161454c565b600980547fffffffffffffffffffffffff00000000000000000000000000000000000000001673ffffffffffffffffffffffffffffffffffffffff9290921691909117905560c0870135600c55600d80547fffffffffffffffffffffffffffffffffffffffffffffffffffffffffffffff0016905561092e606088016040890161454c565b73ffffffffffffffffffffffffffffffffffffffff90811660085586516040015116156109b7576040517f08c379a000000000000000000000000000000000000000000000000000000000815260206004820152600f60248201527f4449535452494255544f525f5345540000000000000000000000000000000000604482015260640161045f565b8551306040918201528651606090810151600555815160a0810183526000927f000000000000000000000000000000000000000000000000000000000000000073ffffffffffffffffffffffffffffffffffffffff1692632ea72a4992918291610a2691908e01908e0161454c565b73ffffffffffffffffffffffffffffffffffffffff1681526020018a6000015181526020018a6020015173ffffffffffffffffffffffffffffffffffffffff1681526020018a6040015181526020018a6060015173ffffffffffffffffffffffffffffffffffffffff16815250604051602001610aa39190614d56565b6040516020818303038152906040526040518263ffffffff1660e01b8152600401610ace91906148e7565b6020604051808303816000875af1158015610aed573d6000803e3d6000fd5b505050506040513d601f19601f82011682018060405250810190610b119190614e4f565b73ffffffffffffffffffffffffffffffffffffffff81166007556040519091507f1c4d4c08e04715f5f20860bc86635f62aebb8449c408e7d53d464fee566f3ff290610b629033908b908590614e6c565b60405180910390a150505050508015610bd257600080547fffffffffffffffffffffffffffffffffffffffffffffffffffffffffffff00ff169055604051600181527f7f26b83ff96e1f2b6a682f133852f6798a09c465da95921460cefb38474024989060200160405180910390a15b505050565b6002600d5460ff166003811115610bf057610bf06148fa565b1415610c58576040517f08c379a000000000000000000000000000000000000000000000000000000000815260206004820152600e60248201527f524546554e445f53554343455353000000000000000000000000000000000000604482015260640161045f565b6003600d5460ff166003811115610c7157610c716148fa565b14610c7e57610c7e611e96565b336000908152600f602090815260408083209051909291610ca191859101614fc5565b6040516020818303038152906040528051906020012081526020019081526020016000206000815480929190610cd690614fd3565b9091555060009050610cf060808301356060840135612035565b90508060066000828254610d049190615008565b92505081905550816060013560056000828254610d2191906149a1565b909155505060408201803590601190600090610d40906020870161454c565b73ffffffffffffffffffffffffffffffffffffffff1673ffffffffffffffffffffffffffffffffffffffff1681526020019081526020016000206000828254610d899190615008565b90915550506040517f92f85a40e83c8d882fe8d6e484c07c775950072962f3b22dd739834849a5a32490610dc0903390859061501f565b60405180910390a1600754610df19073ffffffffffffffffffffffffffffffffffffffff163330606086013561205d565b6104ca33610e036040850135846149a1565b60085473ffffffffffffffffffffffffffffffffffffffff169190611a81565b6000610e35610e30611983565b6120bb565b905090565b42600e5410610ea5576040517f08c379a000000000000000000000000000000000000000000000000000000000815260206004820152600d60248201527f4541524c595f54494d454f555400000000000000000000000000000000000000604482015260640161045f565b6000600d5460ff166003811115610ebe57610ebe6148fa565b1480610ee057506001600d5460ff166003811115610ede57610ede6148fa565b145b610f46576040517f08c379a000000000000000000000000000000000000000000000000000000000815260206004820152600d60248201527f414c52454144595f454e44454400000000000000000000000000000000000000604482015260640161045f565b6000600555600d80547fffffffffffffffffffffffffffffffffffffffffffffffffffffffffffffff001660031790556040513381527f71b8d288b6b795cd40378095d6a9c6466eb4a081c0238dfd691b0b1f5868f1809060200160405180910390a16007546040517f8b24259b00000000000000000000000000000000000000000000000000000000815230600482015273ffffffffffffffffffffffffffffffffffffffff90911690638b24259b90602401600060405180830381600087803b15801561101457600080fd5b505af1158015611028573d6000803e3d6000fd5b50505050565b6000600d5460ff166003811115611047576110476148fa565b146110ae576040517f08c379a000000000000000000000000000000000000000000000000000000000815260206004820152600b60248201527f4e4f545f50454e44494e47000000000000000000000000000000000000000000604482015260640161045f565b6110b9610e30611983565b61111f576040517f08c379a000000000000000000000000000000000000000000000000000000000815260206004820152600860248201527f4e4f545f4c495645000000000000000000000000000000000000000000000000604482015260640161045f565b611127612121565b565b60035460009073ffffffffffffffffffffffffffffffffffffffff16156111685760035473ffffffffffffffffffffffffffffffffffffffff16611196565b600380547fffffffffffffffffffffffff000000000000000000000000000000000000000016339081179091555b73ffffffffffffffffffffffffffffffffffffffff8116600090815260026020526040902054909150421015611228576040517f08c379a000000000000000000000000000000000000000000000000000000000815260206004820152600860248201527f434f4f4c444f574e000000000000000000000000000000000000000000000000604482015260640161045f565b60006001544261123891906149a1565b73ffffffffffffffffffffffffffffffffffffffff8316600081815260026020908152604091829020849055815192835282018390529192507fdd9ec76fd04aab7ee6b385c04a7bdf966620500e72b134bfc3f19654fae20f25910160405180910390a160026004541415611309576040517f08c379a000000000000000000000000000000000000000000000000000000000815260206004820152601f60248201527f5265656e7472616e637947756172643a207265656e7472616e742063616c6c00604482015260640161045f565b60026004556040830151611379576040517f08c379a000000000000000000000000000000000000000000000000000000000815260206004820152600960248201527f305f4d494e494d554d0000000000000000000000000000000000000000000000604482015260640161045f565b8260600151836040015111156113eb576040517f08c379a000000000000000000000000000000000000000000000000000000000815260206004820152601460248201527f4d494e494d554d5f4f5645525f44455349524544000000000000000000000000604482015260640161045f565b60006113f5611983565b9050611400816120bb565b15611431576000600d5460ff16600381111561141e5761141e6148fa565b141561142c5761142c612121565b611458565b6001600d5460ff16600381111561144a5761144a6148fa565b141561145857611458612181565b6001600d5460ff166003811115611471576114716148fa565b146114d8576040517f08c379a000000000000000000000000000000000000000000000000000000000815260206004820152600a60248201527f4e4f545f41435449564500000000000000000000000000000000000000000000604482015260640161045f565b60006114f360055486606001516122d390919063ffffffff16565b905060008061150284846119e0565b9092509050600061151383856122d3565b90508760400151811015611583576040517f08c379a000000000000000000000000000000000000000000000000000000000815260206004820152601260248201527f494e53554646494349454e545f53544f434b0000000000000000000000000000604482015260640161045f565b87608001518211156115f1576040517f08c379a000000000000000000000000000000000000000000000000000000000815260206004820152600d60248201527f4d4158494d554d5f505249434500000000000000000000000000000000000000604482015260640161045f565b60006115fd8383612035565b6040805160a081018252601080548083528d5173ffffffffffffffffffffffffffffffffffffffff166020808501919091528e015193830193909352606082018690526080820187905292935091600061165683615049565b9091555050336000908152600f60209081526040808320905190929161167e91859101615082565b60405160208183030381529060405280519060200120815260200190815260200160002060008154809291906116b390615049565b90915550506020808b01518b5173ffffffffffffffffffffffffffffffffffffffff1660009081526011909252604082208054919290916116f59084906149a1565b92505081905550826005600082825461170e9190615008565b92505081905550816006600082825461172791906149a1565b9250508190555061176433308c602001518561174391906149a1565b60085473ffffffffffffffffffffffffffffffffffffffff1692919061205d565b6007546117889073ffffffffffffffffffffffffffffffffffffffff163385611a81565b7fde28bbdf409354cf811d2e1f52147a0a2a1b89be5848c4b5a41587f63b7cfa6a338b836040516117bb939291906150d1565b60405180910390a16117cc876120bb565b1561184657600c546005541015611841576040517f08c379a000000000000000000000000000000000000000000000000000000000815260040161045f9060208082526004908201527f4455535400000000000000000000000000000000000000000000000000000000604082015260600190565b61184e565b61184e612181565b505060016004555050600380547fffffffffffffffffffffffff0000000000000000000000000000000000000000169055505050505050565b6001600d5460ff1660038111156118a0576118a06148fa565b14611907576040517f08c379a000000000000000000000000000000000000000000000000000000000815260206004820152600a60248201527f4e4f545f41435449564500000000000000000000000000000000000000000000604482015260640161045f565b611912610e30611983565b1561197b576040517f08c379a000000000000000000000000000000000000000000000000000000000815260040161045f9060208082526004908201527f4c49564500000000000000000000000000000000000000000000000000000000604082015260600190565b611127612181565b6119b56040518060a0016040528060008152602001606081526020016060815260200160608152602001600081525090565b600a54610e35906119db9073ffffffffffffffffffffffffffffffffffffffff166122e9565b612317565b60408051602080825281830190925260009182918291602082018180368337019050509050836020820152611a1781866001612483565b506000808660200151600288600001510381518110611a3857611a386149b9565b60200260200101518760200151600189600001510381518110611a5d57611a5d6149b9565b602002602001015191509150611a738760009052565b9093509150505b9250929050565b60405173ffffffffffffffffffffffffffffffffffffffff8316602482015260448101829052610bd29084907fa9059cbb00000000000000000000000000000000000000000000000000000000906064015b604080517fffffffffffffffffffffffffffffffffffffffffffffffffffffffffffffffe08184030181529190526020810180517bffffffffffffffffffffffffffffffffffffffffffffffffffffffff167fffffffff000000000000000000000000000000000000000000000000000000009093169290921790915261275a565b60008054610100900460ff1615611c0c578160ff166001148015611b785750303b155b611c04576040517f08c379a000000000000000000000000000000000000000000000000000000000815260206004820152602e60248201527f496e697469616c697a61626c653a20636f6e747261637420697320616c72656160448201527f647920696e697469616c697a6564000000000000000000000000000000000000606482015260840161045f565b506000919050565b60005460ff808416911610611ca3576040517f08c379a000000000000000000000000000000000000000000000000000000000815260206004820152602e60248201527f496e697469616c697a61626c653a20636f6e747261637420697320616c72656160448201527f647920696e697469616c697a6564000000000000000000000000000000000000606482015260840161045f565b50600080547fffffffffffffffffffffffffffffffffffffffffffffffffffffffffffffff001660ff92909216919091179055600190565b919050565b60008111611d4a576040517f08c379a000000000000000000000000000000000000000000000000000000000815260206004820152600a60248201527f434f4f4c444f574e5f3000000000000000000000000000000000000000000000604482015260640161045f565b60015463ffffffff1015611dba576040517f08c379a000000000000000000000000000000000000000000000000000000000815260206004820152600c60248201527f434f4f4c444f574e5f4d41580000000000000000000000000000000000000000604482015260640161045f565b60015415611dca57611dca615174565b600181905560408051338152602081018390527f6153539ba1c54ed4ef5b6f1fda4b7183eeaa1b5707c152abed56f61e09452521910160405180910390a150565b600080611e3683604051602001611e2291906151a3565b604051602081830303815290604052612866565b90508051602082016000f0915073ffffffffffffffffffffffffffffffffffffffff8216611e90576040517f08d4abb600000000000000000000000000000000000000000000000000000000815260040160405180910390fd5b50919050565b60035460009073ffffffffffffffffffffffffffffffffffffffff1615611ed55760035473ffffffffffffffffffffffffffffffffffffffff16611f03565b600380547fffffffffffffffffffffffff000000000000000000000000000000000000000016339081179091555b73ffffffffffffffffffffffffffffffffffffffff8116600090815260026020526040902054909150421015611f95576040517f08c379a000000000000000000000000000000000000000000000000000000000815260206004820152600860248201527f434f4f4c444f574e000000000000000000000000000000000000000000000000604482015260640161045f565b600060015442611fa591906149a1565b73ffffffffffffffffffffffffffffffffffffffff8316600081815260026020908152604091829020849055815192835282018390529192507fdd9ec76fd04aab7ee6b385c04a7bdf966620500e72b134bfc3f19654fae20f25910160405180910390a15050600380547fffffffffffffffffffffffff0000000000000000000000000000000000000000169055565b6000670de0b6b3a764000061204a83856151c9565b6120549190615235565b90505b92915050565b60405173ffffffffffffffffffffffffffffffffffffffff808516602483015283166044820152606481018290526110289085907f23b872dd0000000000000000000000000000000000000000000000000000000090608401611ad3565b6000600160055410156120d057506000919050565b6120eb60405180602001604052806000815250836000612483565b50600080836020015160018560000151038151811061210c5761210c6149b9565b60200260200101511190506120578360009052565b600d80547fffffffffffffffffffffffffffffffffffffffffffffffffffffffffffffff001660011790556040513381527f84d0447ca38875fa61115673259a210915bc1dd53a3c112d6f0790f15956a9659060200160405180910390a1565b600b54600654101560008161219757600361219a565b60025b6000600555600d805491925082917fffffffffffffffffffffffffffffffffffffffffffffffffffffffffffffff001660018360038111156121de576121de6148fa565b02179055507f9aef4e6c636914c533cde859f632ab5e2b68cfd8f06b6a2e18f89783f00072cd3382604051612214929190615270565b60405180910390a16007546040517f8b24259b00000000000000000000000000000000000000000000000000000000815230600482015273ffffffffffffffffffffffffffffffffffffffff90911690638b24259b90602401600060405180830381600087803b15801561228757600080fd5b505af115801561229b573d6000803e3d6000fd5b5050505081156104ca576009546006546008546104ca9273ffffffffffffffffffffffffffffffffffffffff91821692911690611a81565b60008183106122e25781612054565b5090919050565b60606120578260017fffffffffffffffffffffffffffffffffffffffffffffffffffffffffffffffff61396c565b6123496040518060a0016040528060008152602001606081526020016060815260200160608152602001600081525090565b61237b6040518060a0016040528060008152602001606081526020016060815260200160608152602001600081525090565b60208301805160ff8082168352606084019290925290600882901c1667ffffffffffffffff8111156123af576123af614569565b6040519080825280602002602001820160405280156123d8578160200160208202803683370190505b50602083015260ff601082901c81166080840152601882901c16606060008267ffffffffffffffff81111561240f5761240f614569565b604051908082528060200260200182016040528015612438578160200160208202803683370190505b5090506020870151602002604001870160005b8481101561247257816020820260200184015281516020018201915060018101905061244b565b505060408501525091949350505050565b60208281015183516040850151848402018301518051606087015160a088015160009687968796879695948301938284019391820290920101906002015b84891015612740576003890198508886015180601f1a975061ffff8160081c1698505060068810156126b85787612506578660200284015182526020820191506126cb565b6001881415612523576020870283015182526020820191506126cb565b60028814156125b0578c518760200210612599576040517f08c379a000000000000000000000000000000000000000000000000000000000815260206004820152600e60248201527f434f4e544558545f4c454e475448000000000000000000000000000000000000604482015260640161045f565b866020026020018d015182526020820191506126cb565b60038814156125f95760006125e7604080518082018252600080825260209182015281518083019092526005825260049082015290565b518801548352506020909101906126cb565b60048814156126155761260e8d8d848a613a54565b91506126cb565b606087612643578c60405160200161262d91906152d5565b60405160208183030381529060405290506126a2565b600188141561265c576126558d613bc4565b90506126a2565b6002881415612678576020808e015160405161262d92016153ab565b60038814156126a2578c516040805160208101929092520160405160208183030381529060405290505b8051156126b2576126b281613d01565b506126cb565b876126c7888463ffffffff8416565b9250505b60208c0151518c51111561273b576040517f08c379a000000000000000000000000000000000000000000000000000000000815260206004820152600e60248201527f535441434b5f4f564552464c4f57000000000000000000000000000000000000604482015260640161045f565b6124c1565b6020838303048c52509750505050505050505b9392505050565b60006127bc826040518060400160405280602081526020017f5361666545524332303a206c6f772d6c6576656c2063616c6c206661696c65648152508573ffffffffffffffffffffffffffffffffffffffff16613d939092919063ffffffff16565b805190915015610bd257808060200190518101906127da91906153e1565b610bd2576040517f08c379a000000000000000000000000000000000000000000000000000000000815260206004820152602a60248201527f5361666545524332303a204552433230206f7065726174696f6e20646964206e60448201527f6f74207375636365656400000000000000000000000000000000000000000000606482015260840161045f565b606081518260405160200161287c929190615403565b6040516020818303038152906040529050919050565b7fffffffffffffffffffffffffffffffffffffffffffffffffffffffffffffffc0810180517fffffffffffffffffffffffffffffffffffffffffffffffffffffffffffffffe090920180516040517f70a0823100000000000000000000000000000000000000000000000000000000815273ffffffffffffffffffffffffffffffffffffffff808316600483015292946000949390929185918416906370a08231906024015b602060405180830381865afa158015612955573d6000803e3d6000fd5b505050506040513d601f19601f82011682018060405250810190612979919061549a565b9093525092949350505050565b60008060006020840391508151905060008173ffffffffffffffffffffffffffffffffffffffff166318160ddd6040518163ffffffff1660e01b8152600401602060405180830381865afa1580156129e2573d6000803e3d6000fd5b505050506040513d601f19601f82011682018060405250810190612a06919061549a565b90925250919392505050565b7fffffffffffffffffffffffffffffffffffffffffffffffffffffffffffffffa0810180517fffffffffffffffffffffffffffffffffffffffffffffffffffffffffffffffc0830180517fffffffffffffffffffffffffffffffffffffffffffffffffffffffffffffffe0909401516040517f4ee2cd7e00000000000000000000000000000000000000000000000000000000815273ffffffffffffffffffffffffffffffffffffffff808716600483015260248201839052929560009594939092918691851690634ee2cd7e906044015b602060405180830381865afa158015612b01573d6000803e3d6000fd5b505050506040513d601f19601f82011682018060405250810190612b25919061549a565b909452509395945050505050565b7fffffffffffffffffffffffffffffffffffffffffffffffffffffffffffffffc0810180517fffffffffffffffffffffffffffffffffffffffffffffffffffffffffffffffe090920180516040517f981b24d000000000000000000000000000000000000000000000000000000000815260048101829052919360009392909190849073ffffffffffffffffffffffffffffffffffffffff84169063981b24d090602401612938565b7fffffffffffffffffffffffffffffffffffffffffffffffffffffffffffffffc0810180517fffffffffffffffffffffffffffffffffffffffffffffffffffffffffffffffe090920180516040517f6352211e00000000000000000000000000000000000000000000000000000000815260048101829052919360009392909190849073ffffffffffffffffffffffffffffffffffffffff841690636352211e90602401602060405180830381865afa158015612c9d573d6000803e3d6000fd5b505050506040513d601f19601f82011682018060405250810190612cc19190614e4f565b73ffffffffffffffffffffffffffffffffffffffff169093525092949350505050565b7fffffffffffffffffffffffffffffffffffffffffffffffffffffffffffffffa0810180517fffffffffffffffffffffffffffffffffffffffffffffffffffffffffffffffc0830180517fffffffffffffffffffffffffffffffffffffffffffffffffffffffffffffffe0909401516040517efdd58e00000000000000000000000000000000000000000000000000000000815273ffffffffffffffffffffffffffffffffffffffff80871660048301526024820183905292956000959493909291869185169062fdd58e90604401612ae4565b60008060008467ffffffffffffffff811115612dd657612dd6614569565b604051908082528060200260200182016040528015612dff578160200160208202803683370190505b50905060008567ffffffffffffffff811115612e1d57612e1d614569565b604051908082528060200260200182016040528015612e46578160200160208202803683370190505b506040870286037fffffffffffffffffffffffffffffffffffffffffffffffffffffffffffffffe081018051909550919250602080890282019085015b81831015612e9b578251815260209283019201612e83565b5050602088028101602084015b81831015612ec0578251815260209283019201612ea8565b50506040517f4e1273f40000000000000000000000000000000000000000000000000000000081526000915073ffffffffffffffffffffffffffffffffffffffff831690634e1273f490612f1a90879087906004016154b3565b600060405180830381865afa158015612f37573d6000803e3d6000fd5b505050506040513d6000823e601f3d9081017fffffffffffffffffffffffffffffffffffffffffffffffffffffffffffffffe0168201604052612f7d9190810190615516565b9050846020820160208a0281015b80821015612fa6578151835260209283019290910190612f8b565b50909998505050505050505050565b438152602001919050565b338152602001919050565b308152602001919050565b428152602001919050565b7fffffffffffffffffffffffffffffffffffffffffffffffffffffffffffffffe0810180516000919082612a068287613da2565b7fffffffffffffffffffffffffffffffffffffffffffffffffffffffffffffffc0810180517fffffffffffffffffffffffffffffffffffffffffffffffffffffffffffffffe090920180519092600092918361297982613075858a613da2565b90613e23565b7fffffffffffffffffffffffffffffffffffffffffffffffffffffffffffffffc0810180517fffffffffffffffffffffffffffffffffffffffffffffffffffffffffffffffe0909201805190926000929183612979826130db858a613da2565b90612035565b7fffffffffffffffffffffffffffffffffffffffffffffffffffffffffffffffe0810180516000919082612a068287613e38565b7fffffffffffffffffffffffffffffffffffffffffffffffffffffffffffffffe0810180516000919082612a068287613e83565b6000602083028203805b83811015613173578051801561316a578252613173565b50602001613153565b506020019392505050565b7fffffffffffffffffffffffffffffffffffffffffffffffffffffffffffffffa0810180511560200282017fffffffffffffffffffffffffffffffffffffffffffffffffffffffffffffffc090810151909152018092915050565b7fffffffffffffffffffffffffffffffffffffffffffffffffffffffffffffffe0810180517fffffffffffffffffffffffffffffffffffffffffffffffffffffffffffffffc09092018051909214909152919050565b6000602083028203805b838110156131735780516132505760008252613173565b602001613239565b7fffffffffffffffffffffffffffffffffffffffffffffffffffffffffffffffe0810180517fffffffffffffffffffffffffffffffffffffffffffffffffffffffffffffffc0909201805192909211909152919050565b7fffffffffffffffffffffffffffffffffffffffffffffffffffffffffffffffe081018051159052919050565b7fffffffffffffffffffffffffffffffffffffffffffffffffffffffffffffffe0810180517fffffffffffffffffffffffffffffffffffffffffffffffffffffffffffffffc0909201805192909210909152919050565b6020828102820380516000928201835b858210801561337157507fffffffffffffffffffffffffffffffffffffffffffffffffffffffffffffffff83105b15613390575080516020909101906133898382613ee1565b9250613343565b505081526020019392505050565b6020828102820380516000928201835b85821080156133dc57507fffffffffffffffffffffffffffffffffffffffffffffffffffffffffffffffff83105b15613390575080516020909101906133f48382613f1c565b92506133ae565b6020828102820380516000928201835b858210801561341a5750826000105b15613390575080516020909101906134328382613f4b565b925061340b565b600060208302820380516000602083015b85811015613390578051830191508282101561346557600080fd5b909150819060200161344a565b600060208302820380516000602083015b8581101561339057805191508161349957600080fd5b9181900491602001613483565b6020828102820380516000928201835b85821015613390575080516020909101906134d181846156dc565b92506134b6565b6020828102820380516000928201835b8582101561339057508051828111156134ff578092505b6020820191506134e8565b6020828102820380516000928201835b858210156133905750805182811015613531578092505b60208201915061351a565b600060208302820380516000602083015b8581101561339057805191508161356357600080fd5b918190069160200161354d565b60006020830282038051600080602084015b868110156135b35783156135ab5780519250828402915082848304146135a757600080fd5b8193505b602001613582565b50505081526020019392505050565b600060208302820380516000602083015b8581101561339057805183039150828211156135ee57600080fd5b90915081906020016135d3565b8190037fffffffffffffffffffffffffffffffffffffffffffffffffffffffffffffffc0810180517fffffffffffffffffffffffffffffffffffffffffffffffffffffffffffffffe090920180518482526040517f88d686040000000000000000000000000000000000000000000000000000000081529193600093929091908590859073ffffffffffffffffffffffffffffffffffffffff8516906388d6860490612ae490869086906004016156e8565b8190037fffffffffffffffffffffffffffffffffffffffffffffffffffffffffffffffa0810180517fffffffffffffffffffffffffffffffffffffffffffffffffffffffffffffffc08301517fffffffffffffffffffffffffffffffffffffffffffffffffffffffffffffffe090930180518582526040517fcaa0eb3b000000000000000000000000000000000000000000000000000000008152919460009493929091908690869073ffffffffffffffffffffffffffffffffffffffff86169063caa0eb3b9061378690879087908790600401615717565b602060405180830381865afa1580156137a3573d6000803e3d6000fd5b505050506040513d601f19601f820116820180604052508101906137c7919061549a565b8652505060209093019695505050505050565b7fffffffffffffffffffffffffffffffffffffffffffffffffffffffffffffffc0810180517fffffffffffffffffffffffffffffffffffffffffffffffffffffffffffffffe09092018051909260009291836129798383613f61565b6000600783901c6003600585901c16601f851683808267ffffffffffffffff81111561386457613864614569565b60405190808252806020026020018201604052801561388d578160200160208202803683370190505b509050600060206001850102880392506020840283018360005b828210156138c9578151816020018601526020820191506020810190506138a7565b505051905060006138dc83838989613fc0565b845250506020909101979650505050505050565b7fffffffffffffffffffffffffffffffffffffffffffffffffffffffffffffffc0810180517fffffffffffffffffffffffffffffffffffffffffffffffffffffffffffffffe09092018051909260009291600f80871691600488901c909116908561395d85858585614110565b90955250949695505050505050565b6060833b8061398b575050604080516020810190915260008152612753565b808411156139a9575050604080516020810190915260008152612753565b838310156139f4576040517f2c4a89fa00000000000000000000000000000000000000000000000000000000815260048101829052602481018590526044810184905260640161045f565b8383038482036000828210613a095782613a0b565b815b60408051603f83017fffffffffffffffffffffffffffffffffffffffffffffffffffffffffffffffe0168101909152818152955090508087602087018a3c505050509392505050565b600060078216600383811c16828082613a9357507fffffffffffffffffffffffffffffffffffffffffffffffffffffffffffffffff9050610100613ade565b8260011415613ab757506fffffffffffffffffffffffffffffffff90506080613ade565b8260021415613ad3575067ffffffffffffffff90506040613ade565b5063ffffffff905060205b6001600587901c0160008167ffffffffffffffff811115613b0157613b01614569565b604051908082528060200260200182016040528015613b2a578160200160208202803683370190505b50905060208082019083028a03815b8b821015613b51578151815260209182019101613b39565b505060608b015160808c015160209081029091010160005b610100811015613baf5760208502830182845b82811015613b98578051841c8a16825260209182019101613b7c565b505050613ba68e8e8b612483565b9b508501613b69565b508a985050505050505050505b949350505050565b606060008260600151905060006018846040015151901b60108560800151901b6008866020015151901b866060015151171717905060008160001b83604051602001613c1091906153ab565b604080517fffffffffffffffffffffffffffffffffffffffffffffffffffffffffffffffe081840301815290829052613c4c929160200161574c565b604051602081830303815290604052905060005b856040015151811015613cf8578186604001518281518110613c8457613c846149b9565b60200260200101515160001b87604001518381518110613ca657613ca66149b9565b6020026020010151604051602001613cc093929190615772565b604080517fffffffffffffffffffffffffffffffffffffffffffffffffffffffffffffffe08184030181529190529150600101613c60565b50949350505050565b613d9081604051602401613d1591906148e7565b604080517fffffffffffffffffffffffffffffffffffffffffffffffffffffffffffffffe08184030181529190526020810180517bffffffffffffffffffffffffffffffffffffffffffffffffffffffff167f0be77f56000000000000000000000000000000000000000000000000000000001790526141b6565b50565b6060613bbc84846000856141d7565b6000808260121415613db75783915050612057565b8260121115613de357506012829003613dd181600a6156dc565b613ddb90856151c9565b915050612057565b507fffffffffffffffffffffffffffffffffffffffffffffffffffffffffffffffee8201613e1281600a6156dc565b613ddb9085615235565b5092915050565b60008161204a670de0b6b3a7640000856151c9565b600081810b613e48575081612057565b60008260000b1315613e7057613e5f82600a6157a9565b613e6990846151c9565b9050612057565b60ff600083900316613e1281600a6156dc565b6000806012831415613e985783915050612057565b8260121115613eb257506012829003613e1281600a6156dc565b507fffffffffffffffffffffffffffffffffffffffffffffffffffffffffffffffee8201613dd181600a6156dc565b6000828201838110613ef35780613bbc565b7fffffffffffffffffffffffffffffffffffffffffffffffffffffffffffffffff949350505050565b600082613f2b57506000612057565b82820282848281613f3e57613f3e615206565b041415613ef35780613bbc565b6000818311613f5b576000612054565b50900390565b60008060015b60088111613fb8576000613f7b868361436d565b90506000613f89868461436d565b90506000613f978383613f4b565b9050613fa785600186038361441a565b94505060019092019150613f679050565b509392505050565b835160009081908190819060015b600881116141025760009250828761400757507fffffffffffffffffffffffffffffffffffffffffffffffffffffffffffffffff61400b565b5060005b60005b838110156140c0576140398c828151811061402b5761402b6149b9565b60200260200101518461436d565b95508a861161408b57886140585761405186836122d3565b9150614082565b600189141561406b5761405186836144a3565b600289148015614079575084155b15614082578591505b600194506140b8565b896140b8577fffffffffffffffffffffffffffffffffffffffffffffffffffffffffffffffff91506140c0565b60010161400e565b50836140e957507fffffffffffffffffffffffffffffffffffffffffffffffffffffffffffffffff5b6140f786600184038361441a565b955050600101613fce565b509298975050505050505050565b600082600881111561417e576040517f08c379a000000000000000000000000000000000000000000000000000000000815260206004820152600860248201527f4d41585f54494552000000000000000000000000000000000000000000000000604482015260640161045f565b6000855b858110156141aa5763ffffffff6020820290811b199890981685891b17979150600101614182565b50959695505050505050565b80516a636f6e736f6c652e6c6f67602083016000808483855afa5050505050565b606082471015614269576040517f08c379a000000000000000000000000000000000000000000000000000000000815260206004820152602660248201527f416464726573733a20696e73756666696369656e742062616c616e636520666f60448201527f722063616c6c0000000000000000000000000000000000000000000000000000606482015260840161045f565b73ffffffffffffffffffffffffffffffffffffffff85163b6142e7576040517f08c379a000000000000000000000000000000000000000000000000000000000815260206004820152601d60248201527f416464726573733a2063616c6c20746f206e6f6e2d636f6e7472616374000000604482015260640161045f565b6000808673ffffffffffffffffffffffffffffffffffffffff16858760405161431091906157b8565b60006040518083038185875af1925050503d806000811461434d576040519150601f19603f3d011682016040523d82523d6000602084013e614352565b606091505b50915091506143628282866144b3565b979650505050505050565b60008160088111156143db576040517f08c379a000000000000000000000000000000000000000000000000000000000815260206004820152600860248201527f4d41585f54494552000000000000000000000000000000000000000000000000604482015260640161045f565b826143e95760009150613e1c565b50507fffffffffffffffffffffffffffffffffffffffffffffffffffffffffffffffff016020021c63ffffffff1690565b6000826008811115614488576040517f08c379a000000000000000000000000000000000000000000000000000000000815260206004820152600860248201527f4d41585f54494552000000000000000000000000000000000000000000000000604482015260640161045f565b505063ffffffff602090920291821b199290921691901b1790565b6000818310156122e25781612054565b606083156144c2575081612753565b8251156144d25782518084602001fd5b816040517f08c379a000000000000000000000000000000000000000000000000000000000815260040161045f91906148e7565b60006020828403121561451857600080fd5b5035919050565b73ffffffffffffffffffffffffffffffffffffffff81168114613d9057600080fd5b8035611cdb8161451f565b60006020828403121561455e57600080fd5b81356127538161451f565b7f4e487b7100000000000000000000000000000000000000000000000000000000600052604160045260246000fd5b6040516080810167ffffffffffffffff811182821017156145bb576145bb614569565b60405290565b604051601f82017fffffffffffffffffffffffffffffffffffffffffffffffffffffffffffffffe016810167ffffffffffffffff8111828210171561460857614608614569565b604052919050565b600067ffffffffffffffff82111561462a5761462a614569565b50601f017fffffffffffffffffffffffffffffffffffffffffffffffffffffffffffffffe01660200190565b600082601f83011261466757600080fd5b813561467a61467582614610565b6145c1565b81815284602083860101111561468f57600080fd5b816020850160208301376000918101602001919091529392505050565b600080604083850312156146bf57600080fd5b823567ffffffffffffffff808211156146d757600080fd5b9084019060e082870312156146eb57600080fd5b9092506020840135908082111561470157600080fd5b908401906080828703121561471557600080fd5b61471d614598565b82358281111561472c57600080fd5b83016080818903121561473e57600080fd5b614746614598565b81358481111561475557600080fd5b6147618a828501614656565b82525060208201358481111561477657600080fd5b6147828a828501614656565b602083015250604082013593506147988461451f565b8360408201526060820135606082015280835250506147b960208401614541565b6020820152604083013560408201526147d460608401614541565b60608201528093505050509250929050565b600060a08284031215611e9057600080fd5b600060a0828403121561480a57600080fd5b60405160a0810181811067ffffffffffffffff8211171561482d5761482d614569565b604052823561483b8161451f565b80825250602083013560208201526040830135604082015260608301356060820152608083013560808201528091505092915050565b60005b8381101561488c578181015183820152602001614874565b838111156110285750506000910152565b600081518084526148b5816020860160208601614871565b601f017fffffffffffffffffffffffffffffffffffffffffffffffffffffffffffffffe0169290920160200192915050565b602081526000612054602083018461489d565b7f4e487b7100000000000000000000000000000000000000000000000000000000600052602160045260246000fd5b60048110614960577f4e487b7100000000000000000000000000000000000000000000000000000000600052602160045260246000fd5b9052565b602081016120578284614929565b7f4e487b7100000000000000000000000000000000000000000000000000000000600052601160045260246000fd5b600082198211156149b4576149b4614972565b500190565b7f4e487b7100000000000000000000000000000000000000000000000000000000600052603260045260246000fd5b600082357fffffffffffffffffffffffffffffffffffffffffffffffffffffffffffffffc1833603018112614a1c57600080fd5b9190910192915050565b60008083357fffffffffffffffffffffffffffffffffffffffffffffffffffffffffffffffe1843603018112614a5b57600080fd5b830160208101925035905067ffffffffffffffff811115614a7b57600080fd5b8060051b3603831315611a7a57600080fd5b8183528181602085013750600060208284010152600060207fffffffffffffffffffffffffffffffffffffffffffffffffffffffffffffffe0601f840116840101905092915050565b81835260007f07ffffffffffffffffffffffffffffffffffffffffffffffffffffffffffffff831115614b0857600080fd5b8260051b8083602087013760009401602001938452509192915050565b600060408301614b358384614a26565b604086528281845260608701905060608260051b88010193508260005b83811015614bff577fffffffffffffffffffffffffffffffffffffffffffffffffffffffffffffffa089870301835281357fffffffffffffffffffffffffffffffffffffffffffffffffffffffffffffffe1863603018112614bb357600080fd5b85018035602067ffffffffffffffff821115614bce57600080fd5b813603881315614bdd57600080fd5b614bea8983838601614a8d565b98509485019493909301925050600101614b52565b5050505050614c116020840184614a26565b8583036020870152614c24838284614ad6565b9695505050505050565b6000606073ffffffffffffffffffffffffffffffffffffffff8616835260208181850152614c5e82850187614b25565b84810360408681019190915286518083528388019284019060005b81811015614ccf578451805184528681015187850152848101518585015287810151888501526080808201519085015260a0808201519085015260c090810151908401529385019360e090920191600101614c79565b50909a9950505050505050505050565b600060208284031215614cf157600080fd5b815167ffffffffffffffff811115614d0857600080fd5b8201601f81018413614d1957600080fd5b8051614d2761467582614610565b818152856020838501011115614d3c57600080fd5b614d4d826020830160208601614871565b95945050505050565b60208152600073ffffffffffffffffffffffffffffffffffffffff808451166020840152602084015160a060408501528051608060c0860152614d9d61014086018261489d565b905060208201517fffffffffffffffffffffffffffffffffffffffffffffffffffffffffffffff408683030160e0870152614dd8828261489d565b91505082604083015116610100860152606082015161012086015260408601519250614e1c606086018473ffffffffffffffffffffffffffffffffffffffff169052565b6060860151608086015260808601519250614d4d60a086018473ffffffffffffffffffffffffffffffffffffffff169052565b600060208284031215614e6157600080fd5b81516127538161451f565b73ffffffffffffffffffffffffffffffffffffffff8416815260606020820152600083357fffffffffffffffffffffffffffffffffffffffffffffffffffffffffffffffc1853603018112614ec057600080fd5b60e06060840152614ed76101408401868301614b25565b9050614ee560208601614541565b73ffffffffffffffffffffffffffffffffffffffff166080840152614f0c60408601614541565b73ffffffffffffffffffffffffffffffffffffffff811660a085015250606085013560c0840152608085013560e084015260a085013561010084015260c085013561012084015280915050613bbc604083018473ffffffffffffffffffffffffffffffffffffffff169052565b803582526020810135614f8b8161451f565b73ffffffffffffffffffffffffffffffffffffffff1660208301526040818101359083015260608082013590830152608090810135910152565b60a081016120578284614f79565b600081614fe257614fe2614972565b507fffffffffffffffffffffffffffffffffffffffffffffffffffffffffffffffff0190565b60008282101561501a5761501a614972565b500390565b73ffffffffffffffffffffffffffffffffffffffff8316815260c081016127536020830184614f79565b60007fffffffffffffffffffffffffffffffffffffffffffffffffffffffffffffffff82141561507b5761507b614972565b5060010190565b60a0810161205782848051825273ffffffffffffffffffffffffffffffffffffffff60208201511660208301526040810151604083015260608101516060830152608081015160808301525050565b60006101608201905073ffffffffffffffffffffffffffffffffffffffff808616835280855116602084015250602084015160408301526040840151606083015260608401516080830152608084015160a0830152613bbc60c08301848051825273ffffffffffffffffffffffffffffffffffffffff60208201511660208301526040810151604083015260608101516060830152608081015160808301525050565b7f4e487b7100000000000000000000000000000000000000000000000000000000600052600160045260246000fd5b60008152600082516151bc816001850160208701614871565b9190910160010192915050565b6000817fffffffffffffffffffffffffffffffffffffffffffffffffffffffffffffffff048311821515161561520157615201614972565b500290565b7f4e487b7100000000000000000000000000000000000000000000000000000000600052601260045260246000fd5b60008261526b577f4e487b7100000000000000000000000000000000000000000000000000000000600052601260045260246000fd5b500490565b73ffffffffffffffffffffffffffffffffffffffff83168152604081016127536020830184614929565b600081518084526020808501945080840160005b838110156152ca578151875295820195908201906001016152ae565b509495945050505050565b600060208083528351818401528084015160a060408501526152fa60c085018261529a565b905060408501517fffffffffffffffffffffffffffffffffffffffffffffffffffffffffffffffe0808684030160608701528282518085528585019150858160051b860101868501945060005b82811015615373578487830301845261536182875161489d565b95880195938801939150600101615347565b5060608a01519650838982030160808a015261538f818861529a565b9650505050505050608084015160a08401528091505092915050565b815160009082906020808601845b838110156153d5578151855293820193908201906001016153b9565b50929695505050505050565b6000602082840312156153f357600080fd5b8151801515811461275357600080fd5b7f630000000000000000000000000000000000000000000000000000000000000081527fffffffff000000000000000000000000000000000000000000000000000000008360e01b1660018201527f80600e6000396000f3000000000000000000000000000000000000000000000060058201526000825161548c81600e850160208701614871565b91909101600e019392505050565b6000602082840312156154ac57600080fd5b5051919050565b604080825283519082018190526000906020906060840190828701845b8281101561550257815173ffffffffffffffffffffffffffffffffffffffff16845292840192908401906001016154d0565b50505083810382850152614c24818661529a565b6000602080838503121561552957600080fd5b825167ffffffffffffffff8082111561554157600080fd5b818501915085601f83011261555557600080fd5b81518181111561556757615567614569565b8060051b91506155788483016145c1565b818152918301840191848101908884111561559257600080fd5b938501935b838510156155b057845182529385019390850190615597565b98975050505050505050565b600181815b8085111561561557817fffffffffffffffffffffffffffffffffffffffffffffffffffffffffffffffff048211156155fb576155fb614972565b8085161561560857918102915b93841c93908002906155c1565b509250929050565b60008261562c57506001612057565b8161563957506000612057565b816001811461564f576002811461565957615675565b6001915050612057565b60ff84111561566a5761566a614972565b50506001821b612057565b5060208310610133831016604e8410600b8410161715615698575081810a612057565b6156a283836155bc565b807fffffffffffffffffffffffffffffffffffffffffffffffffffffffffffffffff048211156156d4576156d4614972565b029392505050565b6000612054838361561d565b73ffffffffffffffffffffffffffffffffffffffff83168152604060208201526000613bbc604083018461529a565b73ffffffffffffffffffffffffffffffffffffffff84168152826020820152606060408201526000614d4d606083018461529a565b82815260008251615764816020850160208701614871565b919091016020019392505050565b60008451615784818460208901614871565b8201848152835161579c816020808501908801614871565b0160200195945050505050565b600061205460ff84168361561d565b60008251614a1c81846020870161487156fea264697066735822122078425b57b61d0cf4d634d2b8a85eec102266c7dbba468b3f65c1a8ebace070a364736f6c634300080a0033",
  "devdoc": {
    "kind": "dev",
    "methods": {
      "createChild(bytes)": {
        "params": {
          "data_": "Encoded data to pass down to child contract constructor."
        },
        "returns": {
          "_0": "New child contract address."
        }
      },
      "createChildTyped(((bytes[],uint256[]),address,address,uint256,uint256,uint256,uint256),((string,string,address,uint256),address,uint256,address))": {
        "params": {
          "config_": "`SaleConfig` constructor configuration."
        },
        "returns": {
          "_0": "New `Sale` child contract."
        }
      },
      "isChild(address)": {
        "params": {
          "maybeChild_": "Address of child contract to look up."
        },
        "returns": {
          "_0": "Returns `true` if address is a contract created by this contract factory, otherwise `false`."
        }
      }
    },
    "title": "SaleFactory",
    "version": 1
  },
  "userdoc": {
    "events": {
      "Implementation(address,address)": {
        "notice": "Factories that clone a template contract MUST emit an event any time they set the implementation being cloned. Factories that deploy new contracts without cloning do NOT need to emit this."
      },
      "NewChild(address,address)": {
        "notice": "Whenever a new child contract is deployed, a `NewChild` event containing the new child contract address MUST be emitted."
      }
    },
    "kind": "user",
    "methods": {
      "constructor": {
        "notice": "Build the reference implementation to clone for each child."
      },
      "createChild(bytes)": {
        "notice": "Implements `IFactory`. Calls the `_createChild` hook that inheriting contracts must override. Registers child contract address such that `isChild` is `true`. Emits `NewChild` event."
      },
      "createChildTyped(((bytes[],uint256[]),address,address,uint256,uint256,uint256,uint256),((string,string,address,uint256),address,uint256,address))": {
        "notice": "Allows calling `createChild` with `SeedERC20Config` struct. Use original `Factory` `createChild` function signature if function parameters are already encoded."
      },
      "isChild(address)": {
        "notice": "Implements `IFactory`. Checks if address is registered as a child contract of this factory."
      }
    },
    "notice": "Factory for creating and deploying `Sale` contracts.",
    "version": 1
  },
  "storageLayout": {
    "storage": [
      {
        "astId": 1830,
        "contract": "contracts/sale/SaleFactory.sol:SaleFactory",
        "label": "_status",
        "offset": 0,
        "slot": "0",
        "type": "t_uint256"
      },
      {
        "astId": 9000,
        "contract": "contracts/sale/SaleFactory.sol:SaleFactory",
        "label": "contracts",
        "offset": 0,
        "slot": "1",
        "type": "t_mapping(t_address,t_bool)"
      }
    ],
    "types": {
      "t_address": {
        "encoding": "inplace",
        "label": "address",
        "numberOfBytes": "20"
      },
      "t_bool": {
        "encoding": "inplace",
        "label": "bool",
        "numberOfBytes": "1"
      },
      "t_mapping(t_address,t_bool)": {
        "encoding": "mapping",
        "key": "t_address",
        "label": "mapping(address => bool)",
        "numberOfBytes": "32",
        "value": "t_bool"
      },
      "t_uint256": {
        "encoding": "inplace",
        "label": "uint256",
        "numberOfBytes": "32"
      }
    }
  }
}