{
  "address": "0x9626d5cafabB4236e00F3BaE6130840fB9Ad1598",
  "abi": [
    {
      "inputs": [],
      "stateMutability": "nonpayable",
      "type": "constructor"
    },
    {
      "anonymous": false,
      "inputs": [
        {
          "indexed": false,
          "internalType": "address",
          "name": "sender",
          "type": "address"
        },
        {
          "indexed": false,
          "internalType": "address",
          "name": "implementation",
          "type": "address"
        }
      ],
      "name": "Implementation",
      "type": "event"
    },
    {
      "anonymous": false,
      "inputs": [
        {
          "indexed": false,
          "internalType": "address",
          "name": "sender",
          "type": "address"
        },
        {
          "indexed": false,
          "internalType": "address",
          "name": "child",
          "type": "address"
        }
      ],
      "name": "NewChild",
      "type": "event"
    },
    {
      "inputs": [
        {
          "internalType": "bytes",
          "name": "data_",
          "type": "bytes"
        }
      ],
      "name": "createChild",
      "outputs": [
        {
          "internalType": "address",
          "name": "",
          "type": "address"
        }
      ],
      "stateMutability": "nonpayable",
      "type": "function"
    },
    {
      "inputs": [
        {
          "internalType": "address",
          "name": "verify_",
          "type": "address"
        }
      ],
      "name": "createChildTyped",
      "outputs": [
        {
          "internalType": "contract VerifyTier",
          "name": "",
          "type": "address"
        }
      ],
      "stateMutability": "nonpayable",
      "type": "function"
    },
    {
      "inputs": [],
      "name": "implementation",
      "outputs": [
        {
          "internalType": "address",
          "name": "",
          "type": "address"
        }
      ],
      "stateMutability": "view",
      "type": "function"
    },
    {
      "inputs": [
        {
          "internalType": "address",
          "name": "maybeChild_",
          "type": "address"
        }
      ],
      "name": "isChild",
      "outputs": [
        {
          "internalType": "bool",
          "name": "",
          "type": "bool"
        }
      ],
      "stateMutability": "view",
      "type": "function"
    }
  ],
  "transactionHash": "0xa30603acced614065397b5f908733446e5f4707dcda1851f2fa3df36855cfd6a",
  "args": [],
  "numDeployments": 1,
  "solcInputHash": "055c200f462499c3452e24a9d9708423",
  "bytecode": "0x60a060405234801561001057600080fd5b506001600090815560405161002490610096565b604051809103906000f080158015610040573d6000803e3d6000fd5b50604080513381526001600160a01b03831660208201529192507f7fac34ecf0b1b374cd9659e3d17db602659d53f1162b1f20142e6c02694aed70910160405180910390a16001600160a01b03166080526100a3565b610be68061075083390190565b60805161068c6100c46000396000818160930152610377015261068c6000f3fe608060405234801561001057600080fd5b506004361061004c5760003560e01c80632ea72a49146100515780635c60da1b1461008e578063b5367451146100b5578063fc91a897146100c8575b600080fd5b61006461005f36600461050b565b610111565b60405173ffffffffffffffffffffffffffffffffffffffff90911681526020015b60405180910390f35b6100647f000000000000000000000000000000000000000000000000000000000000000081565b6100646100c33660046105a2565b6102bf565b6101016100d63660046105a2565b73ffffffffffffffffffffffffffffffffffffffff1660009081526001602052604090205460ff1690565b6040519015158152602001610085565b600060026000541415610185576040517f08c379a000000000000000000000000000000000000000000000000000000000815260206004820152601f60248201527f5265656e7472616e637947756172643a207265656e7472616e742063616c6c0060448201526064015b60405180910390fd5b60026000908155610196848461035f565b73ffffffffffffffffffffffffffffffffffffffff811660009081526001602052604090205490915060ff1615610229576040517f08c379a000000000000000000000000000000000000000000000000000000000815260206004820152600f60248201527f4455504c49434154455f4348494c440000000000000000000000000000000000604482015260640161017c565b73ffffffffffffffffffffffffffffffffffffffff811660008181526001602081815260409283902080547fffffffffffffffffffffffffffffffffffffffffffffffffffffffffffffff00169092179091558151338152908101929092527f7da70c4e5387d7038610b79ca7d304caaef815826e51e67cf247135387a79bce910160405180910390a160016000559392505050565b6040805173ffffffffffffffffffffffffffffffffffffffff831660208201526000913091632ea72a4991016040516020818303038152906040526040518263ffffffff1660e01b815260040161031691906105c6565b6020604051808303816000875af1158015610335573d6000803e3d6000fd5b505050506040513d601f19601f820116820180604052508101906103599190610639565b92915050565b60008061036e838501856105a2565b9050600061039b7f0000000000000000000000000000000000000000000000000000000000000000610429565b6040517fc4d66de800000000000000000000000000000000000000000000000000000000815273ffffffffffffffffffffffffffffffffffffffff84811660048301529192509082169063c4d66de890602401600060405180830381600087803b15801561040857600080fd5b505af115801561041c573d6000803e3d6000fd5b5092979650505050505050565b60006040517f3d602d80600a3d3981f3363d3d373d3d3d363d7300000000000000000000000081528260601b60148201527f5af43d82803e903d91602b57fd5bf3000000000000000000000000000000000060288201526037816000f091505073ffffffffffffffffffffffffffffffffffffffff8116610506576040517f08c379a000000000000000000000000000000000000000000000000000000000815260206004820152601660248201527f455243313136373a20637265617465206661696c656400000000000000000000604482015260640161017c565b919050565b6000806020838503121561051e57600080fd5b823567ffffffffffffffff8082111561053657600080fd5b818501915085601f83011261054a57600080fd5b81358181111561055957600080fd5b86602082850101111561056b57600080fd5b60209290920196919550909350505050565b73ffffffffffffffffffffffffffffffffffffffff8116811461059f57600080fd5b50565b6000602082840312156105b457600080fd5b81356105bf8161057d565b9392505050565b600060208083528351808285015260005b818110156105f3578581018301518582016040015282016105d7565b81811115610605576000604083870101525b50601f017fffffffffffffffffffffffffffffffffffffffffffffffffffffffffffffffe016929092016040019392505050565b60006020828403121561064b57600080fd5b81516105bf8161057d56fea2646970667358221220f80eb5070d292b319fba74739ae6152f9945076b230413f5fe463a844d915cfe64736f6c634300080a0033608060405234801561001057600080fd5b50610bc6806100206000396000f3fe608060405234801561001057600080fd5b506004361061004c5760003560e01c806301ffc9a71461005157806388d6860414610079578063c4d66de81461009a578063caa0eb3b146100af575b600080fd5b61006461005f3660046108ae565b6100c2565b60405190151581526020015b60405180910390f35b61008c610087366004610999565b61015b565b604051908152602001610070565b6100ad6100a8366004610a52565b61032a565b005b61008c6100bd366004610a6d565b6104d9565b60007fffffffff0000000000000000000000000000000000000000000000000000000082167f42766d3f00000000000000000000000000000000000000000000000000000000148061015557507f01ffc9a7000000000000000000000000000000000000000000000000000000007fffffffff000000000000000000000000000000000000000000000000000000008316145b92915050565b600080546040517f31e658a500000000000000000000000000000000000000000000000000000000815273ffffffffffffffffffffffffffffffffffffffff8581166004830152839262010000900416906331e658a590602401606060405180830381865afa1580156101d2573d6000803e3d6000fd5b505050506040513d601f19601f820116820180604052508101906101f69190610b0b565b600054604080517fb9bd0135000000000000000000000000000000000000000000000000000000008152835163ffffffff90811660048301526020850151811660248301529184015190911660448201524260648201529192506002916201000090910473ffffffffffffffffffffffffffffffffffffffff169063b9bd013590608401602060405180830381865afa158015610297573d6000803e3d6000fd5b505050506040513d601f19601f820116820180604052508101906102bb9190610b77565b1415610301576102f97fffffffffffffffffffffffffffffffffffffffffffffffffffffffffffffffff60006008846020015163ffffffff1661067d565b915050610155565b507fffffffffffffffffffffffffffffffffffffffffffffffffffffffffffffffff9392505050565b60006103366001610723565b9050801561036b57600080547fffffffffffffffffffffffffffffffffffffffffffffffffffffffffffff00ff166101001790555b73ffffffffffffffffffffffffffffffffffffffff82166103ed576040517f08c379a000000000000000000000000000000000000000000000000000000000815260206004820152600960248201527f305f41444452455353000000000000000000000000000000000000000000000060448201526064015b60405180910390fd5b600080547fffffffffffffffffffff0000000000000000000000000000000000000000ffff166201000073ffffffffffffffffffffffffffffffffffffffff8516908102919091179091556040805133815260208101929092527fdc90fed0326ba91706deeac7eb34ac9f8b680734f9d782864dc29704d23bed6a910160405180910390a180156104d557600080547fffffffffffffffffffffffffffffffffffffffffffffffffffffffffffff00ff169055604051600181527f7f26b83ff96e1f2b6a682f133852f6798a09c465da95921460cefb38474024989060200160405180910390a15b5050565b600080546040517f31e658a500000000000000000000000000000000000000000000000000000000815273ffffffffffffffffffffffffffffffffffffffff8781166004830152839262010000900416906331e658a590602401606060405180830381865afa158015610550573d6000803e3d6000fd5b505050506040513d601f19601f820116820180604052508101906105749190610b0b565b600054604080517fb9bd0135000000000000000000000000000000000000000000000000000000008152835163ffffffff90811660048301526020850151811660248301529184015190911660448201524260648201529192506002916201000090910473ffffffffffffffffffffffffffffffffffffffff169063b9bd013590608401602060405180830381865afa158015610615573d6000803e3d6000fd5b505050506040513d601f19601f820116820180604052508101906106399190610b77565b1415610650576020015163ffffffff169050610675565b7fffffffffffffffffffffffffffffffffffffffffffffffffffffffffffffffff9150505b949350505050565b60008260088111156106eb576040517f08c379a000000000000000000000000000000000000000000000000000000000815260206004820152600860248201527f4d41585f5449455200000000000000000000000000000000000000000000000060448201526064016103e4565b6000855b858110156107175763ffffffff6020820290811b199890981685891b179791506001016106ef565b50959695505050505050565b60008054610100900460ff16156107da578160ff1660011480156107465750303b155b6107d2576040517f08c379a000000000000000000000000000000000000000000000000000000000815260206004820152602e60248201527f496e697469616c697a61626c653a20636f6e747261637420697320616c72656160448201527f647920696e697469616c697a656400000000000000000000000000000000000060648201526084016103e4565b506000919050565b60005460ff808416911610610871576040517f08c379a000000000000000000000000000000000000000000000000000000000815260206004820152602e60248201527f496e697469616c697a61626c653a20636f6e747261637420697320616c72656160448201527f647920696e697469616c697a656400000000000000000000000000000000000060648201526084016103e4565b50600080547fffffffffffffffffffffffffffffffffffffffffffffffffffffffffffffff001660ff92909216919091179055600190565b919050565b6000602082840312156108c057600080fd5b81357fffffffff00000000000000000000000000000000000000000000000000000000811681146108f057600080fd5b9392505050565b803573ffffffffffffffffffffffffffffffffffffffff811681146108a957600080fd5b7f4e487b7100000000000000000000000000000000000000000000000000000000600052604160045260246000fd5b604051601f82017fffffffffffffffffffffffffffffffffffffffffffffffffffffffffffffffe016810167ffffffffffffffff811182821017156109915761099161091b565b604052919050565b600080604083850312156109ac57600080fd5b6109b5836108f7565b915060208084013567ffffffffffffffff808211156109d357600080fd5b818601915086601f8301126109e757600080fd5b8135818111156109f9576109f961091b565b8060051b9150610a0a84830161094a565b8181529183018401918481019089841115610a2457600080fd5b938501935b83851015610a4257843582529385019390850190610a29565b8096505050505050509250929050565b600060208284031215610a6457600080fd5b6108f0826108f7565b60008060008060608587031215610a8357600080fd5b610a8c856108f7565b935060208501359250604085013567ffffffffffffffff80821115610ab057600080fd5b818701915087601f830112610ac457600080fd5b813581811115610ad357600080fd5b8860208260051b8501011115610ae857600080fd5b95989497505060200194505050565b805163ffffffff811681146108a957600080fd5b600060608284031215610b1d57600080fd5b6040516060810181811067ffffffffffffffff82111715610b4057610b4061091b565b604052610b4c83610af7565b8152610b5a60208401610af7565b6020820152610b6b60408401610af7565b60408201529392505050565b600060208284031215610b8957600080fd5b505191905056fea2646970667358221220ad7f0bcb7feccc12173b890f13d9da97457a76b7935102054fe9808b8d0d520c64736f6c634300080a0033",
  "devdoc": {
    "kind": "dev",
    "methods": {
      "createChild(bytes)": {
        "params": {
          "data_": "Encoded data to pass down to child contract constructor."
        },
        "returns": {
          "_0": "New child contract address."
        }
      },
      "createChildTyped(address)": {
        "params": {
          "verify_": "`Verify` of the `VerifyTier` logic."
        },
        "returns": {
          "_0": "New `VerifyTier` child contract address."
        }
      },
      "isChild(address)": {
        "params": {
          "maybeChild_": "Address of child contract to look up."
        },
        "returns": {
          "_0": "Returns `true` if address is a contract created by this contract factory, otherwise `false`."
        }
      }
    },
    "title": "VerifyTierFactory",
    "version": 1
  },
  "userdoc": {
    "events": {
      "Implementation(address,address)": {
        "notice": "Factories that clone a template contract MUST emit an event any time they set the implementation being cloned. Factories that deploy new contracts without cloning do NOT need to emit this."
      },
      "NewChild(address,address)": {
        "notice": "Whenever a new child contract is deployed, a `NewChild` event containing the new child contract address MUST be emitted."
      }
    },
    "kind": "user",
    "methods": {
      "constructor": {
        "notice": "Build the reference implementation to clone for each child."
      },
      "createChild(bytes)": {
        "notice": "Implements `IFactory`. Calls the `_createChild` hook that inheriting contracts must override. Registers child contract address such that `isChild` is `true`. Emits `NewChild` event."
      },
      "createChildTyped(address)": {
        "notice": "Typed wrapper for `createChild` with `Verify`. Use original `Factory` `createChild` function signature if function parameters are already encoded."
      },
      "implementation()": {
        "notice": "Template contract to clone. Deployed by the constructor."
      },
      "isChild(address)": {
        "notice": "Implements `IFactory`. Checks if address is registered as a child contract of this factory."
      }
    },
    "notice": "Factory for creating and deploying `VerifyTier` contracts.",
    "version": 1
  },
  "storageLayout": {
    "storage": [
      {
        "astId": 1830,
        "contract": "contracts/tier/VerifyTierFactory.sol:VerifyTierFactory",
        "label": "_status",
        "offset": 0,
        "slot": "0",
        "type": "t_uint256"
      },
      {
        "astId": 9000,
        "contract": "contracts/tier/VerifyTierFactory.sol:VerifyTierFactory",
        "label": "contracts",
        "offset": 0,
        "slot": "1",
        "type": "t_mapping(t_address,t_bool)"
      }
    ],
    "types": {
      "t_address": {
        "encoding": "inplace",
        "label": "address",
        "numberOfBytes": "20"
      },
      "t_bool": {
        "encoding": "inplace",
        "label": "bool",
        "numberOfBytes": "1"
      },
      "t_mapping(t_address,t_bool)": {
        "encoding": "mapping",
        "key": "t_address",
        "label": "mapping(address => bool)",
        "numberOfBytes": "32",
        "value": "t_bool"
      },
      "t_uint256": {
        "encoding": "inplace",
        "label": "uint256",
        "numberOfBytes": "32"
      }
    }
  }
}