{
  "_format": "hh-sol-artifact-1",
  "contractName": "ERC20TransferTier",
  "sourceName": "contracts/tier/ERC20TransferTier.sol",
  "abi": [
    {
      "inputs": [
        {
          "internalType": "contract IERC20",
          "name": "erc20_",
          "type": "address"
        },
        {
          "internalType": "uint256[8]",
          "name": "tierValues_",
          "type": "uint256[8]"
        }
      ],
      "stateMutability": "nonpayable",
      "type": "constructor"
    },
    {
      "anonymous": false,
      "inputs": [
        {
          "indexed": true,
          "internalType": "address",
          "name": "account",
          "type": "address"
        },
        {
          "indexed": true,
          "internalType": "enum ITier.Tier",
          "name": "startTier",
          "type": "uint8"
        },
        {
          "indexed": true,
          "internalType": "enum ITier.Tier",
          "name": "endTier",
          "type": "uint8"
        }
      ],
      "name": "TierChange",
      "type": "event"
    },
    {
      "inputs": [],
      "name": "erc20",
      "outputs": [
        {
          "internalType": "contract IERC20",
          "name": "",
          "type": "address"
        }
      ],
      "stateMutability": "view",
      "type": "function"
    },
    {
      "inputs": [
        {
          "internalType": "address",
          "name": "account_",
          "type": "address"
        }
      ],
      "name": "report",
      "outputs": [
        {
          "internalType": "uint256",
          "name": "",
          "type": "uint256"
        }
      ],
      "stateMutability": "view",
      "type": "function"
    },
    {
      "inputs": [
        {
          "internalType": "address",
          "name": "",
          "type": "address"
        }
      ],
      "name": "reports",
      "outputs": [
        {
          "internalType": "uint256",
          "name": "",
          "type": "uint256"
        }
      ],
      "stateMutability": "view",
      "type": "function"
    },
    {
      "inputs": [
        {
          "internalType": "address",
          "name": "account_",
          "type": "address"
        },
        {
          "internalType": "enum ITier.Tier",
          "name": "endTier_",
          "type": "uint8"
        },
        {
          "internalType": "bytes",
          "name": "data_",
          "type": "bytes"
        }
      ],
      "name": "setTier",
      "outputs": [],
      "stateMutability": "nonpayable",
      "type": "function"
    },
    {
      "inputs": [],
      "name": "tierValues",
      "outputs": [
        {
          "internalType": "uint256[8]",
          "name": "tierValues_",
          "type": "uint256[8]"
        }
      ],
      "stateMutability": "view",
      "type": "function"
    }
  ],
  "bytecode": "0x6101a060405234801561001157600080fd5b506040516111213803806111218339810160408190526100309161009a565b80516080908152602082015160a0908152604083015160c0908152606084015160e090815292840151610100529083015161012052820151610140520151610160526001600160a01b03166101805261013a565b634e487b7160e01b600052604160045260246000fd5b6000806101208084860312156100af57600080fd5b83516001600160a01b03811681146100c657600080fd5b92506020603f850186136100d957600080fd5b60405161010081016001600160401b03811182821017156100fc576100fc610084565b60405291850191808784111561011157600080fd5b8287015b8481101561012c5780518252908301908301610115565b509497909650945050505050565b60805160a05160c05160e0516101005161012051610140516101605161018051610f6a6101b76000396000818160ce015281816105d601526106280152600061037f01526000610359015260006103330152600061030d015260006102e7015260006102c10152600061029b015260006102780152610f6a6000f3fe608060405234801561001057600080fd5b50600436106100675760003560e01c806370230b391161005057806370230b39146100b4578063785e9e86146100c9578063e053ea311461011557600080fd5b8063252210e31461006c57806352dab69d1461009f575b600080fd5b61008c61007a366004610bed565b60006020819052908152604090205481565b6040519081526020015b60405180910390f35b6100b26100ad366004610c37565b610128565b005b6100bc61026e565b6040516100969190610d2d565b6100f07f000000000000000000000000000000000000000000000000000000000000000081565b60405173ffffffffffffffffffffffffffffffffffffffff9091168152602001610096565b61008c610123366004610bed565b6103a6565b600082600881111561013c5761013c610d5f565b14156101a9576040517f08c379a000000000000000000000000000000000000000000000000000000000815260206004820152600d60248201527f5345545f5a45524f5f544945520000000000000000000000000000000000000060448201526064015b60405180910390fd5b60006101b4846103a6565b905060006101c28243610423565b90506101d082828643610488565b73ffffffffffffffffffffffffffffffffffffffff861660009081526020819052604090205583600881111561020857610208610d5f565b81600881111561021a5761021a610d5f565b60405173ffffffffffffffffffffffffffffffffffffffff8816907fc47100edc32c382b56a1def2d144f6ab67d8f50be6efa18b329d2e82ee875db290600090a4610267858286866104d7565b5050505050565b610276610ba5565b7f000000000000000000000000000000000000000000000000000000000000000081527f000000000000000000000000000000000000000000000000000000000000000060208201527f000000000000000000000000000000000000000000000000000000000000000060408201527f000000000000000000000000000000000000000000000000000000000000000060608201527f000000000000000000000000000000000000000000000000000000000000000060808201527f000000000000000000000000000000000000000000000000000000000000000060a08201527f000000000000000000000000000000000000000000000000000000000000000060c08201527f000000000000000000000000000000000000000000000000000000000000000060e082015290565b73ffffffffffffffffffffffffffffffffffffffff81166000908152602081905260408120546103f6577fffffffffffffffffffffffffffffffffffffffffffffffffffffffffffffffff61041d565b73ffffffffffffffffffffffffffffffffffffffff82166000908152602081905260409020545b92915050565b6000805b600881101561047d5763ffffffff8316610442826020610dec565b85901c63ffffffff16111561046b5780600881111561046357610463610d5f565b91505061041d565b8061047581610e29565b915050610427565b5060085b9392505050565b600083600881111561049c5761049c610d5f565b8360088111156104ae576104ae610d5f565b106104c4576104bf85858585610658565b6104ce565b6104ce85846106c6565b95945050505050565b8260088111156104e9576104e9610d5f565b8260088111156104fb576104fb610d5f565b1161057f573373ffffffffffffffffffffffffffffffffffffffff85161461057f576040517f08c379a000000000000000000000000000000000000000000000000000000000815260206004820152601360248201527f44454c4547415445445f544945525f4c4f53530000000000000000000000000060448201526064016101a0565b600061058a84610716565b9050600061059784610716565b9050818114156105a8575050610652565b81811115610603576105fe33306105bf8585610e62565b73ffffffffffffffffffffffffffffffffffffffff7f000000000000000000000000000000000000000000000000000000000000000016929190610778565b61064f565b61064f866106118385610e62565b73ffffffffffffffffffffffffffffffffffffffff7f0000000000000000000000000000000000000000000000000000000000000000169190610854565b50505b50505050565b600080600085600881111561066f5761066f610d5f565b90505b84600881111561068457610684610d5f565b8110156106bb57610696816020610dec565b63ffffffff811b199790971684881b17969150806106b381610e29565b915050610672565b509495945050505050565b6000808260088111156106db576106db610d5f565b6106e6906020610dec565b7fffffffffffffffffffffffffffffffffffffffffffffffffffffffffffffffff811c901b841791505092915050565b60008082600881111561072b5761072b610d5f565b1161073757600061041d565b61073f61026e565b600183600881111561075357610753610d5f565b61075d9190610e62565b6008811061076d5761076d610d8e565b602002015192915050565b60405173ffffffffffffffffffffffffffffffffffffffff808516602483015283166044820152606481018290526106529085907f23b872dd00000000000000000000000000000000000000000000000000000000906084015b604080517fffffffffffffffffffffffffffffffffffffffffffffffffffffffffffffffe08184030181529190526020810180517bffffffffffffffffffffffffffffffffffffffffffffffffffffffff167fffffffff00000000000000000000000000000000000000000000000000000000909316929092179091526108af565b60405173ffffffffffffffffffffffffffffffffffffffff83166024820152604481018290526108aa9084907fa9059cbb00000000000000000000000000000000000000000000000000000000906064016107d2565b505050565b6000610911826040518060400160405280602081526020017f5361666545524332303a206c6f772d6c6576656c2063616c6c206661696c65648152508573ffffffffffffffffffffffffffffffffffffffff166109bb9092919063ffffffff16565b8051909150156108aa578080602001905181019061092f9190610e79565b6108aa576040517f08c379a000000000000000000000000000000000000000000000000000000000815260206004820152602a60248201527f5361666545524332303a204552433230206f7065726174696f6e20646964206e60448201527f6f7420737563636565640000000000000000000000000000000000000000000060648201526084016101a0565b60606109ca84846000856109d2565b949350505050565b606082471015610a64576040517f08c379a000000000000000000000000000000000000000000000000000000000815260206004820152602660248201527f416464726573733a20696e73756666696369656e742062616c616e636520666f60448201527f722063616c6c000000000000000000000000000000000000000000000000000060648201526084016101a0565b843b610acc576040517f08c379a000000000000000000000000000000000000000000000000000000000815260206004820152601d60248201527f416464726573733a2063616c6c20746f206e6f6e2d636f6e747261637400000060448201526064016101a0565b6000808673ffffffffffffffffffffffffffffffffffffffff168587604051610af59190610ec7565b60006040518083038185875af1925050503d8060008114610b32576040519150601f19603f3d011682016040523d82523d6000602084013e610b37565b606091505b5091509150610b47828286610b52565b979650505050505050565b60608315610b61575081610481565b825115610b715782518084602001fd5b816040517f08c379a00000000000000000000000000000000000000000000000000000000081526004016101a09190610ee3565b6040518061010001604052806008906020820280368337509192915050565b803573ffffffffffffffffffffffffffffffffffffffff81168114610be857600080fd5b919050565b600060208284031215610bff57600080fd5b61048182610bc4565b7f4e487b7100000000000000000000000000000000000000000000000000000000600052604160045260246000fd5b600080600060608486031215610c4c57600080fd5b610c5584610bc4565b9250602084013560098110610c6957600080fd5b9150604084013567ffffffffffffffff80821115610c8657600080fd5b818601915086601f830112610c9a57600080fd5b813581811115610cac57610cac610c08565b604051601f82017fffffffffffffffffffffffffffffffffffffffffffffffffffffffffffffffe0908116603f01168101908382118183101715610cf257610cf2610c08565b81604052828152896020848701011115610d0b57600080fd5b8260208601602083013760006020848301015280955050505050509250925092565b6101008101818360005b6008811015610d56578151835260209283019290910190600101610d37565b50505092915050565b7f4e487b7100000000000000000000000000000000000000000000000000000000600052602160045260246000fd5b7f4e487b7100000000000000000000000000000000000000000000000000000000600052603260045260246000fd5b7f4e487b7100000000000000000000000000000000000000000000000000000000600052601160045260246000fd5b6000817fffffffffffffffffffffffffffffffffffffffffffffffffffffffffffffffff0483118215151615610e2457610e24610dbd565b500290565b60007fffffffffffffffffffffffffffffffffffffffffffffffffffffffffffffffff821415610e5b57610e5b610dbd565b5060010190565b600082821015610e7457610e74610dbd565b500390565b600060208284031215610e8b57600080fd5b8151801515811461048157600080fd5b60005b83811015610eb6578181015183820152602001610e9e565b838111156106525750506000910152565b60008251610ed9818460208701610e9b565b9190910192915050565b6020815260008251806020840152610f02816040850160208701610e9b565b601f017fffffffffffffffffffffffffffffffffffffffffffffffffffffffffffffffe016919091016040019291505056fea2646970667358221220539efffdfb93710787e070feb54b80cfec31c3eeac53bd9d0f8ef57d4929c43a64736f6c634300080a0033",
  "linkReferences": {},
  "deployedLinkReferences": {}
}