{
  "_format": "hh-sol-artifact-1",
  "contractName": "Trust",
  "sourceName": "contracts/trust/Trust.sol",
  "abi": [
    {
      "inputs": [
        {
          "components": [
            {
              "internalType": "address",
              "name": "creator",
              "type": "address"
            },
            {
              "internalType": "uint256",
              "name": "minimumCreatorRaise",
              "type": "uint256"
            },
            {
              "internalType": "contract SeedERC20Factory",
              "name": "seedERC20Factory",
              "type": "address"
            },
            {
              "internalType": "address",
              "name": "seeder",
              "type": "address"
            },
            {
              "internalType": "uint256",
              "name": "seederFee",
              "type": "uint256"
            },
            {
              "internalType": "uint16",
              "name": "seederUnits",
              "type": "uint16"
            },
            {
              "internalType": "uint16",
              "name": "seederCooldownDuration",
              "type": "uint16"
            },
            {
              "internalType": "uint256",
              "name": "redeemInit",
              "type": "uint256"
            }
          ],
          "internalType": "struct TrustConfig",
          "name": "config_",
          "type": "tuple"
        },
        {
          "components": [
            {
              "internalType": "contract RedeemableERC20Factory",
              "name": "redeemableERC20Factory",
              "type": "address"
            },
            {
              "internalType": "string",
              "name": "name",
              "type": "string"
            },
            {
              "internalType": "string",
              "name": "symbol",
              "type": "string"
            },
            {
              "internalType": "contract ITier",
              "name": "tier",
              "type": "address"
            },
            {
              "internalType": "enum ITier.Tier",
              "name": "minimumStatus",
              "type": "uint8"
            },
            {
              "internalType": "uint256",
              "name": "totalSupply",
              "type": "uint256"
            }
          ],
          "internalType": "struct TrustRedeemableERC20Config",
          "name": "trustRedeemableERC20Config_",
          "type": "tuple"
        },
        {
          "components": [
            {
              "internalType": "contract RedeemableERC20PoolFactory",
              "name": "redeemableERC20PoolFactory",
              "type": "address"
            },
            {
              "internalType": "contract IERC20",
              "name": "reserve",
              "type": "address"
            },
            {
              "internalType": "uint256",
              "name": "reserveInit",
              "type": "uint256"
            },
            {
              "internalType": "uint256",
              "name": "initialValuation",
              "type": "uint256"
            },
            {
              "internalType": "uint256",
              "name": "finalValuation",
              "type": "uint256"
            },
            {
              "internalType": "uint256",
              "name": "minimumTradingDuration",
              "type": "uint256"
            }
          ],
          "internalType": "struct TrustRedeemableERC20PoolConfig",
          "name": "trustRedeemableERC20PoolConfig_",
          "type": "tuple"
        }
      ],
      "stateMutability": "nonpayable",
      "type": "constructor"
    },
    {
      "anonymous": false,
      "inputs": [
        {
          "indexed": true,
          "internalType": "address",
          "name": "sender",
          "type": "address"
        },
        {
          "indexed": false,
          "internalType": "bytes",
          "name": "data",
          "type": "bytes"
        }
      ],
      "name": "Notice",
      "type": "event"
    },
    {
      "inputs": [],
      "name": "anonEndDistribution",
      "outputs": [],
      "stateMutability": "nonpayable",
      "type": "function"
    },
    {
      "inputs": [],
      "name": "creator",
      "outputs": [
        {
          "internalType": "address",
          "name": "",
          "type": "address"
        }
      ],
      "stateMutability": "view",
      "type": "function"
    },
    {
      "inputs": [],
      "name": "finalBalance",
      "outputs": [
        {
          "internalType": "uint256",
          "name": "",
          "type": "uint256"
        }
      ],
      "stateMutability": "view",
      "type": "function"
    },
    {
      "inputs": [],
      "name": "getContracts",
      "outputs": [
        {
          "components": [
            {
              "internalType": "address",
              "name": "reserveERC20",
              "type": "address"
            },
            {
              "internalType": "address",
              "name": "redeemableERC20",
              "type": "address"
            },
            {
              "internalType": "address",
              "name": "redeemableERC20Pool",
              "type": "address"
            },
            {
              "internalType": "address",
              "name": "seeder",
              "type": "address"
            },
            {
              "internalType": "address",
              "name": "tier",
              "type": "address"
            },
            {
              "internalType": "address",
              "name": "crp",
              "type": "address"
            },
            {
              "internalType": "address",
              "name": "pool",
              "type": "address"
            }
          ],
          "internalType": "struct TrustContracts",
          "name": "",
          "type": "tuple"
        }
      ],
      "stateMutability": "view",
      "type": "function"
    },
    {
      "inputs": [],
      "name": "getDistributionProgress",
      "outputs": [
        {
          "components": [
            {
              "internalType": "enum DistributionStatus",
              "name": "distributionStatus",
              "type": "uint8"
            },
            {
              "internalType": "uint32",
              "name": "distributionStartBlock",
              "type": "uint32"
            },
            {
              "internalType": "uint32",
              "name": "distributionEndBlock",
              "type": "uint32"
            },
            {
              "internalType": "uint256",
              "name": "poolReserveBalance",
              "type": "uint256"
            },
            {
              "internalType": "uint256",
              "name": "poolTokenBalance",
              "type": "uint256"
            },
            {
              "internalType": "uint256",
              "name": "reserveInit",
              "type": "uint256"
            },
            {
              "internalType": "uint256",
              "name": "minimumCreatorRaise",
              "type": "uint256"
            },
            {
              "internalType": "uint256",
              "name": "seederFee",
              "type": "uint256"
            },
            {
              "internalType": "uint256",
              "name": "redeemInit",
              "type": "uint256"
            }
          ],
          "internalType": "struct DistributionProgress",
          "name": "",
          "type": "tuple"
        }
      ],
      "stateMutability": "view",
      "type": "function"
    },
    {
      "inputs": [],
      "name": "getDistributionStatus",
      "outputs": [
        {
          "internalType": "enum DistributionStatus",
          "name": "",
          "type": "uint8"
        }
      ],
      "stateMutability": "view",
      "type": "function"
    },
    {
      "inputs": [],
      "name": "getTrustConfig",
      "outputs": [
        {
          "components": [
            {
              "internalType": "address",
              "name": "creator",
              "type": "address"
            },
            {
              "internalType": "uint256",
              "name": "minimumCreatorRaise",
              "type": "uint256"
            },
            {
              "internalType": "contract SeedERC20Factory",
              "name": "seedERC20Factory",
              "type": "address"
            },
            {
              "internalType": "address",
              "name": "seeder",
              "type": "address"
            },
            {
              "internalType": "uint256",
              "name": "seederFee",
              "type": "uint256"
            },
            {
              "internalType": "uint16",
              "name": "seederUnits",
              "type": "uint16"
            },
            {
              "internalType": "uint16",
              "name": "seederCooldownDuration",
              "type": "uint16"
            },
            {
              "internalType": "uint256",
              "name": "redeemInit",
              "type": "uint256"
            }
          ],
          "internalType": "struct TrustConfig",
          "name": "",
          "type": "tuple"
        }
      ],
      "stateMutability": "view",
      "type": "function"
    },
    {
      "inputs": [],
      "name": "minimumCreatorRaise",
      "outputs": [
        {
          "internalType": "uint256",
          "name": "",
          "type": "uint256"
        }
      ],
      "stateMutability": "view",
      "type": "function"
    },
    {
      "inputs": [],
      "name": "pool",
      "outputs": [
        {
          "internalType": "contract RedeemableERC20Pool",
          "name": "",
          "type": "address"
        }
      ],
      "stateMutability": "view",
      "type": "function"
    },
    {
      "inputs": [],
      "name": "redeemInit",
      "outputs": [
        {
          "internalType": "uint256",
          "name": "",
          "type": "uint256"
        }
      ],
      "stateMutability": "view",
      "type": "function"
    },
    {
      "inputs": [],
      "name": "seedERC20Factory",
      "outputs": [
        {
          "internalType": "contract SeedERC20Factory",
          "name": "",
          "type": "address"
        }
      ],
      "stateMutability": "view",
      "type": "function"
    },
    {
      "inputs": [],
      "name": "seeder",
      "outputs": [
        {
          "internalType": "address",
          "name": "",
          "type": "address"
        }
      ],
      "stateMutability": "view",
      "type": "function"
    },
    {
      "inputs": [],
      "name": "seederCooldownDuration",
      "outputs": [
        {
          "internalType": "uint16",
          "name": "",
          "type": "uint16"
        }
      ],
      "stateMutability": "view",
      "type": "function"
    },
    {
      "inputs": [],
      "name": "seederFee",
      "outputs": [
        {
          "internalType": "uint256",
          "name": "",
          "type": "uint256"
        }
      ],
      "stateMutability": "view",
      "type": "function"
    },
    {
      "inputs": [],
      "name": "seederUnits",
      "outputs": [
        {
          "internalType": "uint16",
          "name": "",
          "type": "uint16"
        }
      ],
      "stateMutability": "view",
      "type": "function"
    },
    {
      "inputs": [
        {
          "internalType": "bytes",
          "name": "data_",
          "type": "bytes"
        }
      ],
      "name": "sendNotice",
      "outputs": [],
      "stateMutability": "nonpayable",
      "type": "function"
    },
    {
      "inputs": [],
      "name": "successBalance",
      "outputs": [
        {
          "internalType": "uint256",
          "name": "",
          "type": "uint256"
        }
      ],
      "stateMutability": "view",
      "type": "function"
    },
    {
      "inputs": [],
      "name": "token",
      "outputs": [
        {
          "internalType": "contract RedeemableERC20",
          "name": "",
          "type": "address"
        }
      ],
      "stateMutability": "view",
      "type": "function"
    }
  ],
  "bytecode": "0x6101e06040523480156200001257600080fd5b50604051620040cb380380620040cb833981016040819052620000359162001306565b600160005582516001600160a01b0316620000835760405162461bcd60e51b8152602060048201526009602482015268043524541544f525f360bc1b60448201526064015b60405180910390fd5b80604001518260a001511015620000d05760405162461bcd60e51b815260206004820152601060248201526f4d494e5f544f4b454e5f535550504c5960801b60448201526064016200007a565b600083602001518460e0015185608001518460400151620000f29190620013f9565b620000fe9190620013f9565b6200010a9190620013f9565b84516001600160a01b0390811660809081528087015160e090815260a08089015161ffff9081166101005260c0808b01519091166101205291890151610140526020808a01519091526040808a01518516610160526101808690528851815193840182523084528983015192840192909252888101519083015260608881015185169083015287830151949550600094931692632ea72a49928201906008811115620001ba57620001ba62001420565b815260a0880151602091820152604051620001d792910162001464565b6040516020818303038152906040526040518263ffffffff1660e01b815260040162000204919062001502565b6020604051808303816000875af115801562000224573d6000803e3d6000fd5b505050506040513d601f19601f820116820180604052508101906200024a919062001517565b9050600083600001516001600160a01b0316632ea72a496040518060c0016040528087602001516001600160a01b03168152602001856001600160a01b031681526020018760400151815260200187606001518152602001876080015181526020018760a001518152506040516020016200030d919081516001600160a01b0390811682526020808401519091169082015260408083015190820152606080830151908201526080808301519082015260a0918201519181019190915260c00190565b6040516020818303038152906040526040518263ffffffff1660e01b81526004016200033a919062001502565b6020604051808303816000875af11580156200035a573d6000803e3d6000fd5b505050506040513d601f19601f8201168201806040525081019062000380919062001517565b6001600160a01b038084166101a05281166101c081905260408051636d00234760e01b815290519293508592636d002347916004808201926020929091908290030181865afa158015620003d8573d6000803e3d6000fd5b505050506040513d601f19601f82011682018060405250810190620003fe919062001537565b10156200044e5760405162461bcd60e51b815260206004820152601360248201527f4d494e5f46494e414c5f56414c554154494f4e0000000000000000000000000060448201526064016200007a565b60608601516001600160a01b031662000661578560a0015161ffff1684604001516200047b919062001567565b15620004ca5760405162461bcd60e51b815260206004820152601560248201527f534545445f50524943455f4d554c5449504c494552000000000000000000000060448201526064016200007a565b85604001516001600160a01b0316632ea72a496040518060e0016040528087602001516001600160a01b03168152602001846001600160a01b031681526020018960a0015161ffff16856001600160a01b031663bb0699726040518163ffffffff1660e01b8152600401602060405180830381865afa15801562000552573d6000803e3d6000fd5b505050506040513d601f19601f8201168201806040525081019062000578919062001537565b6200058491906200157e565b81526020018960a0015161ffff1681526020018960c0015161ffff16815260200160405180602001604052806000815250815260200160405180602001604052806000815250815250604051602001620005df919062001595565b6040516020818303038152906040526040518263ffffffff1660e01b81526004016200060c919062001502565b6020604051808303816000875af11580156200062c573d6000803e3d6000fd5b505050506040513d601f19601f8201168201806040525081019062000652919062001517565b6001600160a01b031660608701525b85606001516001600160a01b031660c0816001600160a01b031681525050816001600160a01b0316632f2ff15d836001600160a01b031663ad7430cc6040518163ffffffff1660e01b8152600401602060405180830381865afa158015620006cd573d6000803e3d6000fd5b505050506040513d601f19601f82011682018060405250810190620006f3919062001537565b836001600160a01b0316633fd8108e6040518163ffffffff1660e01b8152600401602060405180830381865afa15801562000732573d6000803e3d6000fd5b505050506040513d601f19601f8201168201806040525081019062000758919062001517565b6001600160a01b0316630a1659406040518163ffffffff1660e01b8152600401602060405180830381865afa15801562000796573d6000803e3d6000fd5b505050506040513d601f19601f82011682018060405250810190620007bc919062001517565b6040516001600160e01b031960e085901b16815260048101929092526001600160a01b03166024820152604401600060405180830381600087803b1580156200080457600080fd5b505af115801562000819573d6000803e3d6000fd5b50505050816001600160a01b0316632f2ff15d836001600160a01b031663ad7430cc6040518163ffffffff1660e01b8152600401602060405180830381865afa1580156200086b573d6000803e3d6000fd5b505050506040513d601f19601f8201168201806040525081019062000891919062001537565b836001600160a01b0316633fd8108e6040518163ffffffff1660e01b8152600401602060405180830381865afa158015620008d0573d6000803e3d6000fd5b505050506040513d601f19601f82011682018060405250810190620008f6919062001517565b6040516001600160e01b031960e085901b16815260048101929092526001600160a01b03166024820152604401600060405180830381600087803b1580156200093e57600080fd5b505af115801562000953573d6000803e3d6000fd5b50505050816001600160a01b0316632f2ff15d836001600160a01b031663ad7430cc6040518163ffffffff1660e01b8152600401602060405180830381865afa158015620009a5573d6000803e3d6000fd5b505050506040513d601f19601f82011682018060405250810190620009cb919062001537565b6040516001600160e01b031960e084901b16815260048101919091526001600160a01b0384166024820152604401600060405180830381600087803b15801562000a1457600080fd5b505af115801562000a29573d6000803e3d6000fd5b50505050816001600160a01b0316632f2ff15d836001600160a01b0316636050f2f86040518163ffffffff1660e01b8152600401602060405180830381865afa15801562000a7b573d6000803e3d6000fd5b505050506040513d601f19601f8201168201806040525081019062000aa1919062001537565b836001600160a01b0316633fd8108e6040518163ffffffff1660e01b8152600401602060405180830381865afa15801562000ae0573d6000803e3d6000fd5b505050506040513d601f19601f8201168201806040525081019062000b06919062001517565b6040516001600160e01b031960e085901b16815260048101929092526001600160a01b03166024820152604401600060405180830381600087803b15801562000b4e57600080fd5b505af115801562000b63573d6000803e3d6000fd5b50505050816001600160a01b0316632f2ff15d836001600160a01b03166396773ebe6040518163ffffffff1660e01b8152600401602060405180830381865afa15801562000bb5573d6000803e3d6000fd5b505050506040513d601f19601f8201168201806040525081019062000bdb919062001537565b6040516001600160e01b031960e084901b1681526004810191909152306024820152604401600060405180830381600087803b15801562000c1b57600080fd5b505af115801562000c30573d6000803e3d6000fd5b5050505060208401516040516301c7781f60e11b81526001600160a01b0391821660048201529083169063038ef03e90602401600060405180830381600087803b15801562000c7e57600080fd5b505af115801562000c93573d6000803e3d6000fd5b50505050816001600160a01b03166336568abe836001600160a01b031663a217fddf6040518163ffffffff1660e01b8152600401602060405180830381865afa15801562000ce5573d6000803e3d6000fd5b505050506040513d601f19601f8201168201806040525081019062000d0b919062001537565b6040516001600160e01b031960e084901b1681526004810191909152306024820152604401600060405180830381600087803b15801562000d4b57600080fd5b505af115801562000d60573d6000803e3d6000fd5b5050505062000d8d818660a00151846001600160a01b031662000d9960201b62002085179092919060201c565b5050505050506200166d565b604080516001600160a01b038416602482015260448082018490528251808303909101815260649091019091526020810180516001600160e01b0390811663a9059cbb60e01b1790915262000df191859162000df616565b505050565b600062000e52826040518060400160405280602081526020017f5361666545524332303a206c6f772d6c6576656c2063616c6c206661696c6564815250856001600160a01b031662000ed460201b62002117179092919060201c565b80519091501562000df1578080602001905181019062000e7391906200162b565b62000df15760405162461bcd60e51b815260206004820152602a60248201527f5361666545524332303a204552433230206f7065726174696f6e20646964206e6044820152691bdd081cdd58d8d9595960b21b60648201526084016200007a565b606062000ee5848460008562000eef565b90505b9392505050565b60608247101562000f525760405162461bcd60e51b815260206004820152602660248201527f416464726573733a20696e73756666696369656e742062616c616e636520666f6044820152651c8818d85b1b60d21b60648201526084016200007a565b843b62000fa25760405162461bcd60e51b815260206004820152601d60248201527f416464726573733a2063616c6c20746f206e6f6e2d636f6e747261637400000060448201526064016200007a565b600080866001600160a01b0316858760405162000fc091906200164f565b60006040518083038185875af1925050503d806000811462000fff576040519150601f19603f3d011682016040523d82523d6000602084013e62001004565b606091505b5090925090506200101782828662001022565b979650505050505050565b606083156200103357508162000ee8565b825115620010445782518084602001fd5b8160405162461bcd60e51b81526004016200007a919062001502565b634e487b7160e01b600052604160045260246000fd5b60405160c081016001600160401b03811182821017156200109b576200109b62001060565b60405290565b60405161010081016001600160401b03811182821017156200109b576200109b62001060565b6001600160a01b0381168114620010dd57600080fd5b50565b8051620010ed81620010c7565b919050565b805161ffff81168114620010ed57600080fd5b60005b838110156200112257818101518382015260200162001108565b8381111562001132576000848401525b50505050565b600082601f8301126200114a57600080fd5b81516001600160401b038082111562001167576200116762001060565b604051601f8301601f19908116603f0116810190828211818310171562001192576200119262001060565b81604052838152866020858801011115620011ac57600080fd5b620011bf84602083016020890162001105565b9695505050505050565b805160098110620010ed57600080fd5b600060c08284031215620011ec57600080fd5b620011f662001076565b90506200120382620010e0565b815260208201516001600160401b03808211156200122057600080fd5b6200122e8583860162001138565b602084015260408401519150808211156200124857600080fd5b50620012578482850162001138565b6040830152506200126b60608301620010e0565b60608201526200127e60808301620011c9565b608082015260a082015160a082015292915050565b600060c08284031215620012a657600080fd5b620012b062001076565b90508151620012bf81620010c7565b81526020820151620012d181620010c7565b8060208301525060408201516040820152606082015160608201526080820151608082015260a082015160a082015292915050565b60008060008385036101e08112156200131e57600080fd5b610100808212156200132f57600080fd5b62001339620010a1565b915085516200134881620010c7565b8252602086810151908301526200136260408701620010e0565b60408301526200137560608701620010e0565b6060830152608086015160808301526200139260a08701620010f2565b60a0830152620013a560c08701620010f2565b60c083015260e086810151908301528501519093506001600160401b03811115620013cf57600080fd5b620013dd86828701620011d9565b925050620013f085610120860162001293565b90509250925092565b600082198211156200141b57634e487b7160e01b600052601160045260246000fd5b500190565b634e487b7160e01b600052602160045260246000fd5b600081518084526200145081602086016020860162001105565b601f01601f19169290920160200192915050565b60208152600060018060a01b03808451166020840152602084015160c060408501526200149560e085018262001436565b90506040850151601f19858303016060860152620014b4828262001436565b9150508160608601511660808501526080850151915060098210620014e957634e487b7160e01b600052602160045260246000fd5b60a08481019290925293015160c0909201919091525090565b60208152600062000ee8602083018462001436565b6000602082840312156200152a57600080fd5b815162000ee881620010c7565b6000602082840312156200154a57600080fd5b5051919050565b634e487b7160e01b600052601260045260246000fd5b60008262001579576200157962001551565b500690565b60008262001590576200159062001551565b500490565b60208152600060018060a01b03808451166020840152806020850151166040840152506040830151606083015261ffff60608401511660808301526080830151620015e660a084018261ffff169052565b5060a083015160e060c08401526200160361010084018262001436565b905060c0840151601f198483030160e085015262001622828262001436565b95945050505050565b6000602082840312156200163e57600080fd5b8151801515811462000ee857600080fd5b600082516200166381846020870162001105565b9190910192915050565b60805160a05160c05160e05161010051610120516101405161016051610180516101a0516101c05161288762001844600039600081816101ec015281816106ab01528181610755015281816108e5015281816109a101528181610b1e01528181610bc801528181610d5601528181610e7a01528181610fce0152818161109f0152818161110c01528181611258015281816112d20152818161137d0152818161140c015281816114d6015281816116b9015281816117d701528181611a2a01528181611ae701528181611b6b01528181611cbb01528181611da101528181611ec30152611f6d0152600081816105bc01528181610965015281816112360152818161193e01528181611d650152611e190152600081816101b701528181610f1701526115c001526000818161013f01526104910152600081816103120152818161058301528181610f6f0152611c4b015260008181610339015261055901526000818161023a015261052f01526000818161027d0152818161050901528181610f430152611c250152600081816102a4015281816104cd0152818161107d0152611ddd0152600081816102130152818161046b0152611bff0152600081816101900152818161042f0152610fac01526128876000f3fe608060405234801561001057600080fd5b50600436106101355760003560e01c806374b16202116100b2578063a4f383aa11610081578063c3a2a93a11610066578063c3a2a93a1461035b578063cd813af6146103dd578063fc0c546a146105b757600080fd5b8063a4f383aa1461030d578063bcc9e0c11461033457600080fd5b806374b16202146102c657806379c4985c146102db578063a1b140b6146102e3578063a49ab8c7146102f857600080fd5b806318afd94f116101095780632129e25a116100ee5780632129e25a1461026f57806336aeae5514610278578063684931ed1461029f57600080fd5b806318afd94f1461020e5780631cd8bed01461023557600080fd5b8062bde6ef1461013a57806302d05d3f1461018b5780630ee81cb6146101b257806316f0115b146101e7575b600080fd5b6101617f000000000000000000000000000000000000000000000000000000000000000081565b60405173ffffffffffffffffffffffffffffffffffffffff90911681526020015b60405180910390f35b6101617f000000000000000000000000000000000000000000000000000000000000000081565b6101d97f000000000000000000000000000000000000000000000000000000000000000081565b604051908152602001610182565b6101617f000000000000000000000000000000000000000000000000000000000000000081565b6101d97f000000000000000000000000000000000000000000000000000000000000000081565b61025c7f000000000000000000000000000000000000000000000000000000000000000081565b60405161ffff9091168152602001610182565b6101d960015481565b6101d97f000000000000000000000000000000000000000000000000000000000000000081565b6101617f000000000000000000000000000000000000000000000000000000000000000081565b6102d96102d436600461243e565b6105de565b005b6102d961062f565b6102eb6112cd565b6040516101829190612577565b610300611659565b604051610182919061258b565b6101d97f000000000000000000000000000000000000000000000000000000000000000081565b61025c7f000000000000000000000000000000000000000000000000000000000000000081565b610363611c75565b6040516101829190600060e08201905073ffffffffffffffffffffffffffffffffffffffff8084511683528060208501511660208401528060408501511660408401528060608501511660608401528060808501511660808401528060a08501511660a08401528060c08501511660c08401525092915050565b6105aa6040805161010081018252600080825260208201819052918101829052606081018290526080810182905260a0810182905260c0810182905260e08101919091526040518061010001604052807f000000000000000000000000000000000000000000000000000000000000000073ffffffffffffffffffffffffffffffffffffffff1681526020017f000000000000000000000000000000000000000000000000000000000000000081526020017f000000000000000000000000000000000000000000000000000000000000000073ffffffffffffffffffffffffffffffffffffffff1681526020017f000000000000000000000000000000000000000000000000000000000000000073ffffffffffffffffffffffffffffffffffffffff1681526020017f000000000000000000000000000000000000000000000000000000000000000081526020017f000000000000000000000000000000000000000000000000000000000000000061ffff1681526020017f000000000000000000000000000000000000000000000000000000000000000061ffff1681526020017f0000000000000000000000000000000000000000000000000000000000000000815250905090565b6040516101829190612603565b6101617f000000000000000000000000000000000000000000000000000000000000000081565b3373ffffffffffffffffffffffffffffffffffffffff167fea379bbdcc225e5e950001d58c5e3b98454bf5ab56ed1122d384b3954e42592a826040516106249190612700565b60405180910390a250565b600260005414156106a1576040517f08c379a000000000000000000000000000000000000000000000000000000000815260206004820152601f60248201527f5265656e7472616e637947756172643a207265656e7472616e742063616c6c0060448201526064015b60405180910390fd5b60026000819055507f000000000000000000000000000000000000000000000000000000000000000073ffffffffffffffffffffffffffffffffffffffff1663cd3293de6040518163ffffffff1660e01b8152600401602060405180830381865afa158015610714573d6000803e3d6000fd5b505050506040513d601f19601f820116820180604052508101906107389190612738565b73ffffffffffffffffffffffffffffffffffffffff166370a082317f000000000000000000000000000000000000000000000000000000000000000073ffffffffffffffffffffffffffffffffffffffff16633fd8108e6040518163ffffffff1660e01b8152600401602060405180830381865afa1580156107be573d6000803e3d6000fd5b505050506040513d601f19601f820116820180604052508101906107e29190612738565b73ffffffffffffffffffffffffffffffffffffffff1663b64ef17b6040518163ffffffff1660e01b8152600401602060405180830381865afa15801561082c573d6000803e3d6000fd5b505050506040513d601f19601f820116820180604052508101906108509190612738565b6040517fffffffff0000000000000000000000000000000000000000000000000000000060e084901b16815273ffffffffffffffffffffffffffffffffffffffff9091166004820152602401602060405180830381865afa1580156108b9573d6000803e3d6000fd5b505050506040513d601f19601f820116820180604052508101906108dd9190612755565b6001819055507f000000000000000000000000000000000000000000000000000000000000000073ffffffffffffffffffffffffffffffffffffffff1663e52ecbfb6040518163ffffffff1660e01b8152600401600060405180830381600087803b15801561094b57600080fd5b505af115801561095f573d6000803e3d6000fd5b505050507f000000000000000000000000000000000000000000000000000000000000000073ffffffffffffffffffffffffffffffffffffffff1663de1533ba7f000000000000000000000000000000000000000000000000000000000000000073ffffffffffffffffffffffffffffffffffffffff16633fd8108e6040518163ffffffff1660e01b8152600401602060405180830381865afa158015610a0a573d6000803e3d6000fd5b505050506040513d601f19601f82011682018060405250810190610a2e9190612738565b73ffffffffffffffffffffffffffffffffffffffff1663b64ef17b6040518163ffffffff1660e01b8152600401602060405180830381865afa158015610a78573d6000803e3d6000fd5b505050506040513d601f19601f82011682018060405250810190610a9c9190612738565b6040517fffffffff0000000000000000000000000000000000000000000000000000000060e084901b16815273ffffffffffffffffffffffffffffffffffffffff9091166004820152602401600060405180830381600087803b158015610b0257600080fd5b505af1158015610b16573d6000803e3d6000fd5b5050505060007f000000000000000000000000000000000000000000000000000000000000000073ffffffffffffffffffffffffffffffffffffffff1663cd3293de6040518163ffffffff1660e01b8152600401602060405180830381865afa158015610b87573d6000803e3d6000fd5b505050506040513d601f19601f82011682018060405250810190610bab9190612738565b73ffffffffffffffffffffffffffffffffffffffff166370a082317f000000000000000000000000000000000000000000000000000000000000000073ffffffffffffffffffffffffffffffffffffffff16633fd8108e6040518163ffffffff1660e01b8152600401602060405180830381865afa158015610c31573d6000803e3d6000fd5b505050506040513d601f19601f82011682018060405250810190610c559190612738565b73ffffffffffffffffffffffffffffffffffffffff1663b64ef17b6040518163ffffffff1660e01b8152600401602060405180830381865afa158015610c9f573d6000803e3d6000fd5b505050506040513d601f19601f82011682018060405250810190610cc39190612738565b6040517fffffffff0000000000000000000000000000000000000000000000000000000060e084901b16815273ffffffffffffffffffffffffffffffffffffffff9091166004820152602401602060405180830381865afa158015610d2c573d6000803e3d6000fd5b505050506040513d601f19601f82011682018060405250810190610d509190612755565b905060007f000000000000000000000000000000000000000000000000000000000000000073ffffffffffffffffffffffffffffffffffffffff1663cd3293de6040518163ffffffff1660e01b8152600401602060405180830381865afa158015610dbf573d6000803e3d6000fd5b505050506040513d601f19601f82011682018060405250810190610de39190612738565b6040517f70a0823100000000000000000000000000000000000000000000000000000000815230600482015273ffffffffffffffffffffffffffffffffffffffff91909116906370a0823190602401602060405180830381865afa158015610e4f573d6000803e3d6000fd5b505050506040513d601f19601f82011682018060405250810190610e739190612755565b90506000827f000000000000000000000000000000000000000000000000000000000000000073ffffffffffffffffffffffffffffffffffffffff1663bb0699726040518163ffffffff1660e01b8152600401602060405180830381865afa158015610ee3573d6000803e3d6000fd5b505050506040513d601f19601f82011682018060405250810190610f079190612755565b610f11919061279d565b905060007f000000000000000000000000000000000000000000000000000000000000000060015410610fa157610f687f0000000000000000000000000000000000000000000000000000000000000000836127b4565b9150610f947f0000000000000000000000000000000000000000000000000000000000000000836127b4565b610f9e908461279d565b90505b8015611078576110787f0000000000000000000000000000000000000000000000000000000000000000827f000000000000000000000000000000000000000000000000000000000000000073ffffffffffffffffffffffffffffffffffffffff1663cd3293de6040518163ffffffff1660e01b8152600401602060405180830381865afa158015611037573d6000803e3d6000fd5b505050506040513d601f19601f8201168201806040525081019061105b9190612738565b73ffffffffffffffffffffffffffffffffffffffff169190612085565b6111087f0000000000000000000000000000000000000000000000000000000000000000837f000000000000000000000000000000000000000000000000000000000000000073ffffffffffffffffffffffffffffffffffffffff1663cd3293de6040518163ffffffff1660e01b8152600401602060405180830381865afa158015611037573d6000803e3d6000fd5b60007f000000000000000000000000000000000000000000000000000000000000000073ffffffffffffffffffffffffffffffffffffffff1663cd3293de6040518163ffffffff1660e01b8152600401602060405180830381865afa158015611175573d6000803e3d6000fd5b505050506040513d601f19601f820116820180604052508101906111999190612738565b6040517f70a0823100000000000000000000000000000000000000000000000000000000815230600482015273ffffffffffffffffffffffffffffffffffffffff91909116906370a0823190602401602060405180830381865afa158015611205573d6000803e3d6000fd5b505050506040513d601f19601f820116820180604052508101906112299190612755565b905080156112c1576112c17f0000000000000000000000000000000000000000000000000000000000000000827f000000000000000000000000000000000000000000000000000000000000000073ffffffffffffffffffffffffffffffffffffffff1663cd3293de6040518163ffffffff1660e01b8152600401602060405180830381865afa158015611037573d6000803e3d6000fd5b50506001600055505050565b6000807f000000000000000000000000000000000000000000000000000000000000000073ffffffffffffffffffffffffffffffffffffffff1663055ad42e6040518163ffffffff1660e01b8152600401602060405180830381865afa15801561133b573d6000803e3d6000fd5b505050506040513d601f19601f8201168201806040525081019061135f91906127cc565b905060008160088111156113755761137561250d565b1415611560577f000000000000000000000000000000000000000000000000000000000000000073ffffffffffffffffffffffffffffffffffffffff1663bb0699726040518163ffffffff1660e01b8152600401602060405180830381865afa1580156113e6573d6000803e3d6000fd5b505050506040513d601f19601f8201168201806040525081019061140a9190612755565b7f000000000000000000000000000000000000000000000000000000000000000073ffffffffffffffffffffffffffffffffffffffff1663cd3293de6040518163ffffffff1660e01b8152600401602060405180830381865afa158015611475573d6000803e3d6000fd5b505050506040513d601f19601f820116820180604052508101906114999190612738565b6040517f70a0823100000000000000000000000000000000000000000000000000000000815273ffffffffffffffffffffffffffffffffffffffff7f00000000000000000000000000000000000000000000000000000000000000008116600483015291909116906370a0823190602401602060405180830381865afa158015611527573d6000803e3d6000fd5b505050506040513d601f19601f8201168201806040525081019061154b9190612755565b1061155857600191505090565b600091505090565b60018160088111156115745761157461250d565b141561158257600291505090565b60028160088111156115965761159661250d565b14156115a457600391505090565b60038160088111156115b8576115b861250d565b14156115f7577f0000000000000000000000000000000000000000000000000000000000000000600154106115ef57600491505090565b600591505090565b6040517f08c379a000000000000000000000000000000000000000000000000000000000815260206004820152601260248201527f554e4b4e4f574e5f504f4f4c5f504841534500000000000000000000000000006044820152606401610698565b6116b56040805161012081019091528060008152602001600063ffffffff168152602001600063ffffffff1681526020016000815260200160008152602001600081526020016000815260200160008152602001600081525090565b60007f000000000000000000000000000000000000000000000000000000000000000073ffffffffffffffffffffffffffffffffffffffff16633fd8108e6040518163ffffffff1660e01b8152600401602060405180830381865afa158015611722573d6000803e3d6000fd5b505050506040513d601f19601f820116820180604052508101906117469190612738565b73ffffffffffffffffffffffffffffffffffffffff1663b64ef17b6040518163ffffffff1660e01b8152600401602060405180830381865afa158015611790573d6000803e3d6000fd5b505050506040513d601f19601f820116820180604052508101906117b49190612738565b905060008073ffffffffffffffffffffffffffffffffffffffff8316156119b2577f000000000000000000000000000000000000000000000000000000000000000073ffffffffffffffffffffffffffffffffffffffff1663cd3293de6040518163ffffffff1660e01b8152600401602060405180830381865afa158015611840573d6000803e3d6000fd5b505050506040513d601f19601f820116820180604052508101906118649190612738565b6040517f70a0823100000000000000000000000000000000000000000000000000000000815273ffffffffffffffffffffffffffffffffffffffff858116600483015291909116906370a0823190602401602060405180830381865afa1580156118d2573d6000803e3d6000fd5b505050506040513d601f19601f820116820180604052508101906118f69190612755565b6040517f70a0823100000000000000000000000000000000000000000000000000000000815273ffffffffffffffffffffffffffffffffffffffff85811660048301529193507f0000000000000000000000000000000000000000000000000000000000000000909116906370a0823190602401602060405180830381865afa158015611987573d6000803e3d6000fd5b505050506040513d601f19601f820116820180604052508101906119ab9190612755565b90506119b9565b5060009050805b6040518061012001604052806119cd6112cd565b60058111156119de576119de61250d565b81526040517f9923c94b0000000000000000000000000000000000000000000000000000000081526000600482015260209091019073ffffffffffffffffffffffffffffffffffffffff7f00000000000000000000000000000000000000000000000000000000000000001690639923c94b90602401602060405180830381865afa158015611a71573d6000803e3d6000fd5b505050506040513d601f19601f82011682018060405250810190611a9591906127ed565b63ffffffff1681526040517f9923c94b0000000000000000000000000000000000000000000000000000000081526001600482015260209091019073ffffffffffffffffffffffffffffffffffffffff7f00000000000000000000000000000000000000000000000000000000000000001690639923c94b90602401602060405180830381865afa158015611b2e573d6000803e3d6000fd5b505050506040513d601f19601f82011682018060405250810190611b5291906127ed565b63ffffffff1681526020018381526020018281526020017f000000000000000000000000000000000000000000000000000000000000000073ffffffffffffffffffffffffffffffffffffffff1663bb0699726040518163ffffffff1660e01b8152600401602060405180830381865afa158015611bd4573d6000803e3d6000fd5b505050506040513d601f19601f82011682018060405250810190611bf89190612755565b81526020017f000000000000000000000000000000000000000000000000000000000000000081526020017f000000000000000000000000000000000000000000000000000000000000000081526020017f0000000000000000000000000000000000000000000000000000000000000000815250935050505090565b6040805160e081018252600080825260208201819052918101829052606081018290526080810182905260a0810182905260c08101919091526040518060e001604052807f000000000000000000000000000000000000000000000000000000000000000073ffffffffffffffffffffffffffffffffffffffff1663cd3293de6040518163ffffffff1660e01b8152600401602060405180830381865afa158015611d24573d6000803e3d6000fd5b505050506040513d601f19601f82011682018060405250810190611d489190612738565b73ffffffffffffffffffffffffffffffffffffffff1681526020017f000000000000000000000000000000000000000000000000000000000000000073ffffffffffffffffffffffffffffffffffffffff1681526020017f000000000000000000000000000000000000000000000000000000000000000073ffffffffffffffffffffffffffffffffffffffff1681526020017f000000000000000000000000000000000000000000000000000000000000000073ffffffffffffffffffffffffffffffffffffffff1681526020017f000000000000000000000000000000000000000000000000000000000000000073ffffffffffffffffffffffffffffffffffffffff1663a30872db6040518163ffffffff1660e01b8152600401602060405180830381865afa158015611e82573d6000803e3d6000fd5b505050506040513d601f19601f82011682018060405250810190611ea69190612738565b73ffffffffffffffffffffffffffffffffffffffff1681526020017f000000000000000000000000000000000000000000000000000000000000000073ffffffffffffffffffffffffffffffffffffffff16633fd8108e6040518163ffffffff1660e01b8152600401602060405180830381865afa158015611f2c573d6000803e3d6000fd5b505050506040513d601f19601f82011682018060405250810190611f509190612738565b73ffffffffffffffffffffffffffffffffffffffff1681526020017f000000000000000000000000000000000000000000000000000000000000000073ffffffffffffffffffffffffffffffffffffffff16633fd8108e6040518163ffffffff1660e01b8152600401602060405180830381865afa158015611fd6573d6000803e3d6000fd5b505050506040513d601f19601f82011682018060405250810190611ffa9190612738565b73ffffffffffffffffffffffffffffffffffffffff1663b64ef17b6040518163ffffffff1660e01b8152600401602060405180830381865afa158015612044573d6000803e3d6000fd5b505050506040513d601f19601f820116820180604052508101906120689190612738565b73ffffffffffffffffffffffffffffffffffffffff169052919050565b6040805173ffffffffffffffffffffffffffffffffffffffff8416602482015260448082018490528251808303909101815260649091019091526020810180517bffffffffffffffffffffffffffffffffffffffffffffffffffffffff167fa9059cbb00000000000000000000000000000000000000000000000000000000179052612112908490612130565b505050565b6060612126848460008561223c565b90505b9392505050565b6000612192826040518060400160405280602081526020017f5361666545524332303a206c6f772d6c6576656c2063616c6c206661696c65648152508573ffffffffffffffffffffffffffffffffffffffff166121179092919063ffffffff16565b80519091501561211257808060200190518101906121b09190612813565b612112576040517f08c379a000000000000000000000000000000000000000000000000000000000815260206004820152602a60248201527f5361666545524332303a204552433230206f7065726174696f6e20646964206e60448201527f6f742073756363656564000000000000000000000000000000000000000000006064820152608401610698565b6060824710156122ce576040517f08c379a000000000000000000000000000000000000000000000000000000000815260206004820152602660248201527f416464726573733a20696e73756666696369656e742062616c616e636520666f60448201527f722063616c6c00000000000000000000000000000000000000000000000000006064820152608401610698565b843b612336576040517f08c379a000000000000000000000000000000000000000000000000000000000815260206004820152601d60248201527f416464726573733a2063616c6c20746f206e6f6e2d636f6e74726163740000006044820152606401610698565b6000808673ffffffffffffffffffffffffffffffffffffffff16858760405161235f9190612835565b60006040518083038185875af1925050503d806000811461239c576040519150601f19603f3d011682016040523d82523d6000602084013e6123a1565b606091505b50915091506123b18282866123bc565b979650505050505050565b606083156123cb575081612129565b8251156123db5782518084602001fd5b816040517f08c379a00000000000000000000000000000000000000000000000000000000081526004016106989190612700565b7f4e487b7100000000000000000000000000000000000000000000000000000000600052604160045260246000fd5b60006020828403121561245057600080fd5b813567ffffffffffffffff8082111561246857600080fd5b818401915084601f83011261247c57600080fd5b81358181111561248e5761248e61240f565b604051601f82017fffffffffffffffffffffffffffffffffffffffffffffffffffffffffffffffe0908116603f011681019083821181831017156124d4576124d461240f565b816040528281528760208487010111156124ed57600080fd5b826020860160208301376000928101602001929092525095945050505050565b7f4e487b7100000000000000000000000000000000000000000000000000000000600052602160045260246000fd5b60068110612573577f4e487b7100000000000000000000000000000000000000000000000000000000600052602160045260246000fd5b9052565b60208101612585828461253c565b92915050565b60006101208201905061259f82845161253c565b602083015163ffffffff80821660208501528060408601511660408501525050606083015160608301526080830151608083015260a083015160a083015260c083015160c083015260e083015160e083015261010080840151818401525092915050565b60006101008201905073ffffffffffffffffffffffffffffffffffffffff80845116835260208401516020840152806040850151166040840152806060850151166060840152506080830151608083015261ffff60a08401511660a083015260c083015161267760c084018261ffff169052565b5060e092830151919092015290565b60005b838110156126a1578181015183820152602001612689565b838111156126b0576000848401525b50505050565b600081518084526126ce816020860160208601612686565b601f017fffffffffffffffffffffffffffffffffffffffffffffffffffffffffffffffe0169290920160200192915050565b60208152600061212960208301846126b6565b73ffffffffffffffffffffffffffffffffffffffff8116811461273557600080fd5b50565b60006020828403121561274a57600080fd5b815161212981612713565b60006020828403121561276757600080fd5b5051919050565b7f4e487b7100000000000000000000000000000000000000000000000000000000600052601160045260246000fd5b6000828210156127af576127af61276e565b500390565b600082198211156127c7576127c761276e565b500190565b6000602082840312156127de57600080fd5b81516009811061212957600080fd5b6000602082840312156127ff57600080fd5b815163ffffffff8116811461212957600080fd5b60006020828403121561282557600080fd5b8151801515811461212957600080fd5b60008251612847818460208701612686565b919091019291505056fea2646970667358221220176273031c06d8fb4a2cc4af47cebbaf84139c625a94b5f09a9874da6b02382f64736f6c634300080a0033",
  "linkReferences": {},
  "deployedLinkReferences": {}
}