{
  "_format": "hh-sol-artifact-1",
  "contractName": "Trust",
  "sourceName": "contracts/trust/Trust.sol",
  "abi": [
    {
      "inputs": [
        {
          "components": [
            {
              "internalType": "address",
              "name": "creator",
              "type": "address"
            },
            {
              "internalType": "uint256",
              "name": "minimumCreatorRaise",
              "type": "uint256"
            },
            {
              "internalType": "contract SeedERC20Factory",
              "name": "seedERC20Factory",
              "type": "address"
            },
            {
              "internalType": "address",
              "name": "seeder",
              "type": "address"
            },
            {
              "internalType": "uint256",
              "name": "seederFee",
              "type": "uint256"
            },
            {
              "internalType": "uint16",
              "name": "seederUnits",
              "type": "uint16"
            },
            {
              "internalType": "uint16",
              "name": "seederCooldownDuration",
              "type": "uint16"
            },
            {
              "internalType": "uint256",
              "name": "redeemInit",
              "type": "uint256"
            },
            {
              "components": [
                {
                  "internalType": "string",
                  "name": "name",
                  "type": "string"
                },
                {
                  "internalType": "string",
                  "name": "symbol",
                  "type": "string"
                }
              ],
              "internalType": "struct ERC20Config",
              "name": "seedERC20Config",
              "type": "tuple"
            }
          ],
          "internalType": "struct TrustConfig",
          "name": "config_",
          "type": "tuple"
        },
        {
          "components": [
            {
              "internalType": "contract RedeemableERC20Factory",
              "name": "redeemableERC20Factory",
              "type": "address"
            },
            {
              "components": [
                {
                  "internalType": "string",
                  "name": "name",
                  "type": "string"
                },
                {
                  "internalType": "string",
                  "name": "symbol",
                  "type": "string"
                }
              ],
              "internalType": "struct ERC20Config",
              "name": "erc20Config",
              "type": "tuple"
            },
            {
              "internalType": "contract ITier",
              "name": "tier",
              "type": "address"
            },
            {
              "internalType": "enum ITier.Tier",
              "name": "minimumStatus",
              "type": "uint8"
            },
            {
              "internalType": "uint256",
              "name": "totalSupply",
              "type": "uint256"
            }
          ],
          "internalType": "struct TrustRedeemableERC20Config",
          "name": "trustRedeemableERC20Config_",
          "type": "tuple"
        },
        {
          "components": [
            {
              "internalType": "contract RedeemableERC20PoolFactory",
              "name": "redeemableERC20PoolFactory",
              "type": "address"
            },
            {
              "internalType": "contract IERC20",
              "name": "reserve",
              "type": "address"
            },
            {
              "internalType": "uint256",
              "name": "reserveInit",
              "type": "uint256"
            },
            {
              "internalType": "uint256",
              "name": "initialValuation",
              "type": "uint256"
            },
            {
              "internalType": "uint256",
              "name": "finalValuation",
              "type": "uint256"
            },
            {
              "internalType": "uint256",
              "name": "minimumTradingDuration",
              "type": "uint256"
            }
          ],
          "internalType": "struct TrustRedeemableERC20PoolConfig",
          "name": "trustRedeemableERC20PoolConfig_",
          "type": "tuple"
        }
      ],
      "stateMutability": "nonpayable",
      "type": "constructor"
    },
    {
      "anonymous": false,
      "inputs": [
        {
          "indexed": true,
          "internalType": "address",
          "name": "sender",
          "type": "address"
        },
        {
          "indexed": false,
          "internalType": "bytes",
          "name": "data",
          "type": "bytes"
        }
      ],
      "name": "Notice",
      "type": "event"
    },
    {
      "inputs": [],
      "name": "anonEndDistribution",
      "outputs": [],
      "stateMutability": "nonpayable",
      "type": "function"
    },
    {
      "inputs": [],
      "name": "creator",
      "outputs": [
        {
          "internalType": "address",
          "name": "",
          "type": "address"
        }
      ],
      "stateMutability": "view",
      "type": "function"
    },
    {
      "inputs": [],
      "name": "finalBalance",
      "outputs": [
        {
          "internalType": "uint256",
          "name": "",
          "type": "uint256"
        }
      ],
      "stateMutability": "view",
      "type": "function"
    },
    {
      "inputs": [],
      "name": "getContracts",
      "outputs": [
        {
          "components": [
            {
              "internalType": "address",
              "name": "reserveERC20",
              "type": "address"
            },
            {
              "internalType": "address",
              "name": "redeemableERC20",
              "type": "address"
            },
            {
              "internalType": "address",
              "name": "redeemableERC20Pool",
              "type": "address"
            },
            {
              "internalType": "address",
              "name": "seeder",
              "type": "address"
            },
            {
              "internalType": "address",
              "name": "tier",
              "type": "address"
            },
            {
              "internalType": "address",
              "name": "crp",
              "type": "address"
            },
            {
              "internalType": "address",
              "name": "pool",
              "type": "address"
            }
          ],
          "internalType": "struct TrustContracts",
          "name": "",
          "type": "tuple"
        }
      ],
      "stateMutability": "view",
      "type": "function"
    },
    {
      "inputs": [],
      "name": "getDistributionProgress",
      "outputs": [
        {
          "components": [
            {
              "internalType": "enum DistributionStatus",
              "name": "distributionStatus",
              "type": "uint8"
            },
            {
              "internalType": "uint32",
              "name": "distributionStartBlock",
              "type": "uint32"
            },
            {
              "internalType": "uint32",
              "name": "distributionEndBlock",
              "type": "uint32"
            },
            {
              "internalType": "uint256",
              "name": "poolReserveBalance",
              "type": "uint256"
            },
            {
              "internalType": "uint256",
              "name": "poolTokenBalance",
              "type": "uint256"
            },
            {
              "internalType": "uint256",
              "name": "reserveInit",
              "type": "uint256"
            },
            {
              "internalType": "uint256",
              "name": "minimumCreatorRaise",
              "type": "uint256"
            },
            {
              "internalType": "uint256",
              "name": "seederFee",
              "type": "uint256"
            },
            {
              "internalType": "uint256",
              "name": "redeemInit",
              "type": "uint256"
            }
          ],
          "internalType": "struct DistributionProgress",
          "name": "",
          "type": "tuple"
        }
      ],
      "stateMutability": "view",
      "type": "function"
    },
    {
      "inputs": [],
      "name": "getDistributionStatus",
      "outputs": [
        {
          "internalType": "enum DistributionStatus",
          "name": "",
          "type": "uint8"
        }
      ],
      "stateMutability": "view",
      "type": "function"
    },
    {
      "inputs": [],
      "name": "minimumCreatorRaise",
      "outputs": [
        {
          "internalType": "uint256",
          "name": "",
          "type": "uint256"
        }
      ],
      "stateMutability": "view",
      "type": "function"
    },
    {
      "inputs": [],
      "name": "pool",
      "outputs": [
        {
          "internalType": "contract RedeemableERC20Pool",
          "name": "",
          "type": "address"
        }
      ],
      "stateMutability": "view",
      "type": "function"
    },
    {
      "inputs": [],
      "name": "redeemInit",
      "outputs": [
        {
          "internalType": "uint256",
          "name": "",
          "type": "uint256"
        }
      ],
      "stateMutability": "view",
      "type": "function"
    },
    {
      "inputs": [],
      "name": "seedERC20Factory",
      "outputs": [
        {
          "internalType": "contract SeedERC20Factory",
          "name": "",
          "type": "address"
        }
      ],
      "stateMutability": "view",
      "type": "function"
    },
    {
      "inputs": [],
      "name": "seeder",
      "outputs": [
        {
          "internalType": "address",
          "name": "",
          "type": "address"
        }
      ],
      "stateMutability": "view",
      "type": "function"
    },
    {
      "inputs": [],
      "name": "seederCooldownDuration",
      "outputs": [
        {
          "internalType": "uint16",
          "name": "",
          "type": "uint16"
        }
      ],
      "stateMutability": "view",
      "type": "function"
    },
    {
      "inputs": [],
      "name": "seederFee",
      "outputs": [
        {
          "internalType": "uint256",
          "name": "",
          "type": "uint256"
        }
      ],
      "stateMutability": "view",
      "type": "function"
    },
    {
      "inputs": [],
      "name": "seederUnits",
      "outputs": [
        {
          "internalType": "uint16",
          "name": "",
          "type": "uint16"
        }
      ],
      "stateMutability": "view",
      "type": "function"
    },
    {
      "inputs": [
        {
          "internalType": "bytes",
          "name": "data_",
          "type": "bytes"
        }
      ],
      "name": "sendNotice",
      "outputs": [],
      "stateMutability": "nonpayable",
      "type": "function"
    },
    {
      "inputs": [],
      "name": "successBalance",
      "outputs": [
        {
          "internalType": "uint256",
          "name": "",
          "type": "uint256"
        }
      ],
      "stateMutability": "view",
      "type": "function"
    },
    {
      "inputs": [],
      "name": "token",
      "outputs": [
        {
          "internalType": "contract RedeemableERC20",
          "name": "",
          "type": "address"
        }
      ],
      "stateMutability": "view",
      "type": "function"
    }
  ],
  "bytecode": "0x6101e06040523480156200001257600080fd5b5060405162003ea138038062003ea183398101604081905262000035916200135d565b600160005582516001600160a01b0316620000835760405162461bcd60e51b8152602060048201526009602482015268043524541544f525f360bc1b60448201526064015b60405180910390fd5b806040015182608001511015620000d05760405162461bcd60e51b815260206004820152601060248201526f4d494e5f544f4b454e5f535550504c5960801b60448201526064016200007a565b600083602001518460e0015185608001518460400151620000f291906200148d565b620000fe91906200148d565b6200010a91906200148d565b84516001600160a01b03908116608090815286015160e090815260a08088015161ffff9081166101005260c08901511661012052908701516101405260208088015182526040808901518416610160526101808590528751815193840182523084528883015192840192909252878101518416908301526060878101519495506000949190931692632ea72a499291908201906008811115620001b157620001b1620014b4565b81526080880151602091820152604051620001ce92910162001533565b6040516020818303038152906040526040518263ffffffff1660e01b8152600401620001fb9190620015b1565b6020604051808303816000875af11580156200021b573d6000803e3d6000fd5b505050506040513d601f19601f82011682018060405250810190620002419190620015c6565b9050600083600001516001600160a01b0316632ea72a496040518060c0016040528087602001516001600160a01b03168152602001856001600160a01b031681526020018760400151815260200187606001518152602001876080015181526020018760a0015181525060405160200162000304919081516001600160a01b0390811682526020808401519091169082015260408083015190820152606080830151908201526080808301519082015260a0918201519181019190915260c00190565b6040516020818303038152906040526040518263ffffffff1660e01b8152600401620003319190620015b1565b6020604051808303816000875af115801562000351573d6000803e3d6000fd5b505050506040513d601f19601f82011682018060405250810190620003779190620015c6565b6001600160a01b038084166101a05281166101c081905260408051636d00234760e01b815290519293508592636d002347916004808201926020929091908290030181865afa158015620003cf573d6000803e3d6000fd5b505050506040513d601f19601f82011682018060405250810190620003f59190620015e6565b1015620004455760405162461bcd60e51b815260206004820152601360248201527f4d494e5f46494e414c5f56414c554154494f4e0000000000000000000000000060448201526064016200007a565b60608601516001600160a01b031662000639578560a0015161ffff16846040015162000472919062001616565b15620004c15760405162461bcd60e51b815260206004820152601560248201527f534545445f50524943455f4d554c5449504c494552000000000000000000000060448201526064016200007a565b85604001516001600160a01b0316632ea72a496040518060c0016040528087602001516001600160a01b03168152602001846001600160a01b031681526020018960a0015161ffff16856001600160a01b031663bb0699726040518163ffffffff1660e01b8152600401602060405180830381865afa15801562000549573d6000803e3d6000fd5b505050506040513d601f19601f820116820180604052508101906200056f9190620015e6565b6200057b91906200162d565b81526020018960a0015161ffff1681526020018960c0015161ffff168152602001896101000151815250604051602001620005b7919062001644565b6040516020818303038152906040526040518263ffffffff1660e01b8152600401620005e49190620015b1565b6020604051808303816000875af115801562000604573d6000803e3d6000fd5b505050506040513d601f19601f820116820180604052508101906200062a9190620015c6565b6001600160a01b031660608701525b85606001516001600160a01b031660c0816001600160a01b031681525050816001600160a01b0316632f2ff15d836001600160a01b031663ad7430cc6040518163ffffffff1660e01b8152600401602060405180830381865afa158015620006a5573d6000803e3d6000fd5b505050506040513d601f19601f82011682018060405250810190620006cb9190620015e6565b836001600160a01b0316633fd8108e6040518163ffffffff1660e01b8152600401602060405180830381865afa1580156200070a573d6000803e3d6000fd5b505050506040513d601f19601f82011682018060405250810190620007309190620015c6565b6001600160a01b0316630a1659406040518163ffffffff1660e01b8152600401602060405180830381865afa1580156200076e573d6000803e3d6000fd5b505050506040513d601f19601f82011682018060405250810190620007949190620015c6565b6040516001600160e01b031960e085901b16815260048101929092526001600160a01b03166024820152604401600060405180830381600087803b158015620007dc57600080fd5b505af1158015620007f1573d6000803e3d6000fd5b50505050816001600160a01b0316632f2ff15d836001600160a01b031663ad7430cc6040518163ffffffff1660e01b8152600401602060405180830381865afa15801562000843573d6000803e3d6000fd5b505050506040513d601f19601f82011682018060405250810190620008699190620015e6565b836001600160a01b0316633fd8108e6040518163ffffffff1660e01b8152600401602060405180830381865afa158015620008a8573d6000803e3d6000fd5b505050506040513d601f19601f82011682018060405250810190620008ce9190620015c6565b6040516001600160e01b031960e085901b16815260048101929092526001600160a01b03166024820152604401600060405180830381600087803b1580156200091657600080fd5b505af11580156200092b573d6000803e3d6000fd5b50505050816001600160a01b0316632f2ff15d836001600160a01b031663ad7430cc6040518163ffffffff1660e01b8152600401602060405180830381865afa1580156200097d573d6000803e3d6000fd5b505050506040513d601f19601f82011682018060405250810190620009a39190620015e6565b6040516001600160e01b031960e084901b16815260048101919091526001600160a01b0384166024820152604401600060405180830381600087803b158015620009ec57600080fd5b505af115801562000a01573d6000803e3d6000fd5b50505050816001600160a01b0316632f2ff15d836001600160a01b0316636050f2f86040518163ffffffff1660e01b8152600401602060405180830381865afa15801562000a53573d6000803e3d6000fd5b505050506040513d601f19601f8201168201806040525081019062000a799190620015e6565b836001600160a01b0316633fd8108e6040518163ffffffff1660e01b8152600401602060405180830381865afa15801562000ab8573d6000803e3d6000fd5b505050506040513d601f19601f8201168201806040525081019062000ade9190620015c6565b6040516001600160e01b031960e085901b16815260048101929092526001600160a01b03166024820152604401600060405180830381600087803b15801562000b2657600080fd5b505af115801562000b3b573d6000803e3d6000fd5b50505050816001600160a01b0316632f2ff15d836001600160a01b03166396773ebe6040518163ffffffff1660e01b8152600401602060405180830381865afa15801562000b8d573d6000803e3d6000fd5b505050506040513d601f19601f8201168201806040525081019062000bb39190620015e6565b6040516001600160e01b031960e084901b1681526004810191909152306024820152604401600060405180830381600087803b15801562000bf357600080fd5b505af115801562000c08573d6000803e3d6000fd5b5050505060208401516040516301c7781f60e11b81526001600160a01b0391821660048201529083169063038ef03e90602401600060405180830381600087803b15801562000c5657600080fd5b505af115801562000c6b573d6000803e3d6000fd5b50505050816001600160a01b03166336568abe836001600160a01b031663a217fddf6040518163ffffffff1660e01b8152600401602060405180830381865afa15801562000cbd573d6000803e3d6000fd5b505050506040513d601f19601f8201168201806040525081019062000ce39190620015e6565b6040516001600160e01b031960e084901b1681526004810191909152306024820152604401600060405180830381600087803b15801562000d2357600080fd5b505af115801562000d38573d6000803e3d6000fd5b5050505062000d65818660800151846001600160a01b031662000d7160201b62001e90179092919060201c565b505050505050620016f3565b604080516001600160a01b038416602482015260448082018490528251808303909101815260649091019091526020810180516001600160e01b0390811663a9059cbb60e01b1790915262000dc991859162000dce16565b505050565b600062000e2a826040518060400160405280602081526020017f5361666545524332303a206c6f772d6c6576656c2063616c6c206661696c6564815250856001600160a01b031662000eac60201b62001f22179092919060201c565b80519091501562000dc9578080602001905181019062000e4b9190620016b1565b62000dc95760405162461bcd60e51b815260206004820152602a60248201527f5361666545524332303a204552433230206f7065726174696f6e20646964206e6044820152691bdd081cdd58d8d9595960b21b60648201526084016200007a565b606062000ebd848460008562000ec7565b90505b9392505050565b60608247101562000f2a5760405162461bcd60e51b815260206004820152602660248201527f416464726573733a20696e73756666696369656e742062616c616e636520666f6044820152651c8818d85b1b60d21b60648201526084016200007a565b843b62000f7a5760405162461bcd60e51b815260206004820152601d60248201527f416464726573733a2063616c6c20746f206e6f6e2d636f6e747261637400000060448201526064016200007a565b600080866001600160a01b0316858760405162000f989190620016d5565b60006040518083038185875af1925050503d806000811462000fd7576040519150601f19603f3d011682016040523d82523d6000602084013e62000fdc565b606091505b50909250905062000fef82828662000ffa565b979650505050505050565b606083156200100b57508162000ec0565b8251156200101c5782518084602001fd5b8160405162461bcd60e51b81526004016200007a9190620015b1565b634e487b7160e01b600052604160045260246000fd5b60405161012081016001600160401b038111828210171562001074576200107462001038565b60405290565b6001600160a01b03811681146200109057600080fd5b50565b8051620010a0816200107a565b919050565b805161ffff81168114620010a057600080fd5b60005b83811015620010d5578181015183820152602001620010bb565b83811115620010e5576000848401525b50505050565b600082601f830112620010fd57600080fd5b81516001600160401b03808211156200111a576200111a62001038565b604051601f8301601f19908116603f0116810190828211818310171562001145576200114562001038565b816040528381528660208588010111156200115f57600080fd5b62001172846020830160208901620010b8565b9695505050505050565b6000604082840312156200118f57600080fd5b604080519081016001600160401b038082118383101715620011b557620011b562001038565b816040528293508451915080821115620011ce57600080fd5b620011dc86838701620010eb565b83526020850151915080821115620011f357600080fd5b506200120285828601620010eb565b6020830152505092915050565b600060a082840312156200122257600080fd5b60405160a081016001600160401b03808211838310171562001248576200124862001038565b81604052829350845191506200125e826200107a565b908252602084015190808211156200127557600080fd5b5062001284858286016200117c565b60208301525060408301516200129a816200107a565b6040820152606083015160098110620012b257600080fd5b6060820152608092830151920191909152919050565b600060c08284031215620012db57600080fd5b60405160c081016001600160401b038111828210171562001300576200130062001038565b8060405250809150825162001315816200107a565b8152602083015162001327816200107a565b8060208301525060408301516040820152606083015160608201526080830151608082015260a083015160a08201525092915050565b60008060006101008085870312156200137557600080fd5b84516001600160401b03808211156200138d57600080fd5b908601906101208289031215620013a357600080fd5b620013ad6200104e565b620013b88362001093565b815260208301516020820152620013d26040840162001093565b6040820152620013e56060840162001093565b6060820152608083015160808201526200140260a08401620010a5565b60a08201526200141560c08401620010a5565b60c082015260e083015160e082015283830151828111156200143657600080fd5b620014448a8286016200117c565b85830152508096505060208701519250808311156200146257600080fd5b505062001472868287016200120f565b925050620014848560408601620012c8565b90509250925092565b60008219821115620014af57634e487b7160e01b600052601160045260246000fd5b500190565b634e487b7160e01b600052602160045260246000fd5b60008151808452620014e4816020860160208601620010b8565b601f01601f19169290920160200192915050565b60008151604084526200150f6040850182620014ca565b9050602083015184820360208601526200152a8282620014ca565b95945050505050565b60208152600060018060a01b03808451166020840152602084015160a060408501526200156460c0850182620014f8565b905081604086015116606085015260608501519150600982106200159857634e487b7160e01b600052602160045260246000fd5b60808481019290925293015160a0909201919091525090565b60208152600062000ec06020830184620014ca565b600060208284031215620015d957600080fd5b815162000ec0816200107a565b600060208284031215620015f957600080fd5b5051919050565b634e487b7160e01b600052601260045260246000fd5b60008262001628576200162862001600565b500690565b6000826200163f576200163f62001600565b500490565b60208152600060018060a01b038084511660208401528060208501511660408401525060408301516060830152606083015161ffff80821660808501528060808601511660a0850152505060a083015160c080840152620016a960e0840182620014f8565b949350505050565b600060208284031215620016c457600080fd5b8151801515811462000ec057600080fd5b60008251620016e9818460208701620010b8565b9190910192915050565b60805160a05160c05160e05161010051610120516101405161016051610180516101a0516101c05161260f62001892600039600081816101d1015281816104b601528181610560015281816106f0015281816107ac01528181610929015281816109d301528181610b6101528181610c8501528181610dd901528181610eaa01528181610f1701528181611063015281816110dd0152818161118801528181611217015281816112e1015281816114c4015281816115e201528181611835015281816118f20152818161197601528181611ac601528181611bac01528181611cce0152611d780152600081816103c701528181610770015281816110410152818161174901528181611b700152611c2401526000818161019c01528181610d2201526113cb015260006101240152600081816102f701528181610d7a0152611a560152600061031e0152600061021f01526000818161026201528181610d4e0152611a3001526000818161028901528181610e880152611be80152600081816101f80152611a0a0152600081816101750152610db7015261260f6000f3fe608060405234801561001057600080fd5b506004361061011a5760003560e01c8063684931ed116100b2578063a49ab8c711610081578063bcc9e0c111610066578063bcc9e0c114610319578063c3a2a93a14610340578063fc0c546a146103c257600080fd5b8063a49ab8c7146102dd578063a4f383aa146102f257600080fd5b8063684931ed1461028457806374b16202146102ab57806379c4985c146102c0578063a1b140b6146102c857600080fd5b806318afd94f116100ee57806318afd94f146101f35780631cd8bed01461021a5780632129e25a1461025457806336aeae551461025d57600080fd5b8062bde6ef1461011f57806302d05d3f146101705780630ee81cb61461019757806316f0115b146101cc575b600080fd5b6101467f000000000000000000000000000000000000000000000000000000000000000081565b60405173ffffffffffffffffffffffffffffffffffffffff90911681526020015b60405180910390f35b6101467f000000000000000000000000000000000000000000000000000000000000000081565b6101be7f000000000000000000000000000000000000000000000000000000000000000081565b604051908152602001610167565b6101467f000000000000000000000000000000000000000000000000000000000000000081565b6101be7f000000000000000000000000000000000000000000000000000000000000000081565b6102417f000000000000000000000000000000000000000000000000000000000000000081565b60405161ffff9091168152602001610167565b6101be60015481565b6101be7f000000000000000000000000000000000000000000000000000000000000000081565b6101467f000000000000000000000000000000000000000000000000000000000000000081565b6102be6102b9366004612249565b6103e9565b005b6102be61043a565b6102d06110d8565b6040516101679190612382565b6102e5611464565b6040516101679190612396565b6101be7f000000000000000000000000000000000000000000000000000000000000000081565b6102417f000000000000000000000000000000000000000000000000000000000000000081565b610348611a80565b6040516101679190600060e08201905073ffffffffffffffffffffffffffffffffffffffff8084511683528060208501511660208401528060408501511660408401528060608501511660608401528060808501511660808401528060a08501511660a08401528060c08501511660c08401525092915050565b6101467f000000000000000000000000000000000000000000000000000000000000000081565b3373ffffffffffffffffffffffffffffffffffffffff167fea379bbdcc225e5e950001d58c5e3b98454bf5ab56ed1122d384b3954e42592a8260405161042f9190612488565b60405180910390a250565b600260005414156104ac576040517f08c379a000000000000000000000000000000000000000000000000000000000815260206004820152601f60248201527f5265656e7472616e637947756172643a207265656e7472616e742063616c6c0060448201526064015b60405180910390fd5b60026000819055507f000000000000000000000000000000000000000000000000000000000000000073ffffffffffffffffffffffffffffffffffffffff1663cd3293de6040518163ffffffff1660e01b8152600401602060405180830381865afa15801561051f573d6000803e3d6000fd5b505050506040513d601f19601f8201168201806040525081019061054391906124c0565b73ffffffffffffffffffffffffffffffffffffffff166370a082317f000000000000000000000000000000000000000000000000000000000000000073ffffffffffffffffffffffffffffffffffffffff16633fd8108e6040518163ffffffff1660e01b8152600401602060405180830381865afa1580156105c9573d6000803e3d6000fd5b505050506040513d601f19601f820116820180604052508101906105ed91906124c0565b73ffffffffffffffffffffffffffffffffffffffff1663b64ef17b6040518163ffffffff1660e01b8152600401602060405180830381865afa158015610637573d6000803e3d6000fd5b505050506040513d601f19601f8201168201806040525081019061065b91906124c0565b6040517fffffffff0000000000000000000000000000000000000000000000000000000060e084901b16815273ffffffffffffffffffffffffffffffffffffffff9091166004820152602401602060405180830381865afa1580156106c4573d6000803e3d6000fd5b505050506040513d601f19601f820116820180604052508101906106e891906124dd565b6001819055507f000000000000000000000000000000000000000000000000000000000000000073ffffffffffffffffffffffffffffffffffffffff1663e52ecbfb6040518163ffffffff1660e01b8152600401600060405180830381600087803b15801561075657600080fd5b505af115801561076a573d6000803e3d6000fd5b505050507f000000000000000000000000000000000000000000000000000000000000000073ffffffffffffffffffffffffffffffffffffffff1663de1533ba7f000000000000000000000000000000000000000000000000000000000000000073ffffffffffffffffffffffffffffffffffffffff16633fd8108e6040518163ffffffff1660e01b8152600401602060405180830381865afa158015610815573d6000803e3d6000fd5b505050506040513d601f19601f8201168201806040525081019061083991906124c0565b73ffffffffffffffffffffffffffffffffffffffff1663b64ef17b6040518163ffffffff1660e01b8152600401602060405180830381865afa158015610883573d6000803e3d6000fd5b505050506040513d601f19601f820116820180604052508101906108a791906124c0565b6040517fffffffff0000000000000000000000000000000000000000000000000000000060e084901b16815273ffffffffffffffffffffffffffffffffffffffff9091166004820152602401600060405180830381600087803b15801561090d57600080fd5b505af1158015610921573d6000803e3d6000fd5b5050505060007f000000000000000000000000000000000000000000000000000000000000000073ffffffffffffffffffffffffffffffffffffffff1663cd3293de6040518163ffffffff1660e01b8152600401602060405180830381865afa158015610992573d6000803e3d6000fd5b505050506040513d601f19601f820116820180604052508101906109b691906124c0565b73ffffffffffffffffffffffffffffffffffffffff166370a082317f000000000000000000000000000000000000000000000000000000000000000073ffffffffffffffffffffffffffffffffffffffff16633fd8108e6040518163ffffffff1660e01b8152600401602060405180830381865afa158015610a3c573d6000803e3d6000fd5b505050506040513d601f19601f82011682018060405250810190610a6091906124c0565b73ffffffffffffffffffffffffffffffffffffffff1663b64ef17b6040518163ffffffff1660e01b8152600401602060405180830381865afa158015610aaa573d6000803e3d6000fd5b505050506040513d601f19601f82011682018060405250810190610ace91906124c0565b6040517fffffffff0000000000000000000000000000000000000000000000000000000060e084901b16815273ffffffffffffffffffffffffffffffffffffffff9091166004820152602401602060405180830381865afa158015610b37573d6000803e3d6000fd5b505050506040513d601f19601f82011682018060405250810190610b5b91906124dd565b905060007f000000000000000000000000000000000000000000000000000000000000000073ffffffffffffffffffffffffffffffffffffffff1663cd3293de6040518163ffffffff1660e01b8152600401602060405180830381865afa158015610bca573d6000803e3d6000fd5b505050506040513d601f19601f82011682018060405250810190610bee91906124c0565b6040517f70a0823100000000000000000000000000000000000000000000000000000000815230600482015273ffffffffffffffffffffffffffffffffffffffff91909116906370a0823190602401602060405180830381865afa158015610c5a573d6000803e3d6000fd5b505050506040513d601f19601f82011682018060405250810190610c7e91906124dd565b90506000827f000000000000000000000000000000000000000000000000000000000000000073ffffffffffffffffffffffffffffffffffffffff1663bb0699726040518163ffffffff1660e01b8152600401602060405180830381865afa158015610cee573d6000803e3d6000fd5b505050506040513d601f19601f82011682018060405250810190610d1291906124dd565b610d1c9190612525565b905060007f000000000000000000000000000000000000000000000000000000000000000060015410610dac57610d737f00000000000000000000000000000000000000000000000000000000000000008361253c565b9150610d9f7f00000000000000000000000000000000000000000000000000000000000000008361253c565b610da99084612525565b90505b8015610e8357610e837f0000000000000000000000000000000000000000000000000000000000000000827f000000000000000000000000000000000000000000000000000000000000000073ffffffffffffffffffffffffffffffffffffffff1663cd3293de6040518163ffffffff1660e01b8152600401602060405180830381865afa158015610e42573d6000803e3d6000fd5b505050506040513d601f19601f82011682018060405250810190610e6691906124c0565b73ffffffffffffffffffffffffffffffffffffffff169190611e90565b610f137f0000000000000000000000000000000000000000000000000000000000000000837f000000000000000000000000000000000000000000000000000000000000000073ffffffffffffffffffffffffffffffffffffffff1663cd3293de6040518163ffffffff1660e01b8152600401602060405180830381865afa158015610e42573d6000803e3d6000fd5b60007f000000000000000000000000000000000000000000000000000000000000000073ffffffffffffffffffffffffffffffffffffffff1663cd3293de6040518163ffffffff1660e01b8152600401602060405180830381865afa158015610f80573d6000803e3d6000fd5b505050506040513d601f19601f82011682018060405250810190610fa491906124c0565b6040517f70a0823100000000000000000000000000000000000000000000000000000000815230600482015273ffffffffffffffffffffffffffffffffffffffff91909116906370a0823190602401602060405180830381865afa158015611010573d6000803e3d6000fd5b505050506040513d601f19601f8201168201806040525081019061103491906124dd565b905080156110cc576110cc7f0000000000000000000000000000000000000000000000000000000000000000827f000000000000000000000000000000000000000000000000000000000000000073ffffffffffffffffffffffffffffffffffffffff1663cd3293de6040518163ffffffff1660e01b8152600401602060405180830381865afa158015610e42573d6000803e3d6000fd5b50506001600055505050565b6000807f000000000000000000000000000000000000000000000000000000000000000073ffffffffffffffffffffffffffffffffffffffff1663055ad42e6040518163ffffffff1660e01b8152600401602060405180830381865afa158015611146573d6000803e3d6000fd5b505050506040513d601f19601f8201168201806040525081019061116a9190612554565b9050600081600881111561118057611180612318565b141561136b577f000000000000000000000000000000000000000000000000000000000000000073ffffffffffffffffffffffffffffffffffffffff1663bb0699726040518163ffffffff1660e01b8152600401602060405180830381865afa1580156111f1573d6000803e3d6000fd5b505050506040513d601f19601f8201168201806040525081019061121591906124dd565b7f000000000000000000000000000000000000000000000000000000000000000073ffffffffffffffffffffffffffffffffffffffff1663cd3293de6040518163ffffffff1660e01b8152600401602060405180830381865afa158015611280573d6000803e3d6000fd5b505050506040513d601f19601f820116820180604052508101906112a491906124c0565b6040517f70a0823100000000000000000000000000000000000000000000000000000000815273ffffffffffffffffffffffffffffffffffffffff7f00000000000000000000000000000000000000000000000000000000000000008116600483015291909116906370a0823190602401602060405180830381865afa158015611332573d6000803e3d6000fd5b505050506040513d601f19601f8201168201806040525081019061135691906124dd565b1061136357600191505090565b600091505090565b600181600881111561137f5761137f612318565b141561138d57600291505090565b60028160088111156113a1576113a1612318565b14156113af57600391505090565b60038160088111156113c3576113c3612318565b1415611402577f0000000000000000000000000000000000000000000000000000000000000000600154106113fa57600491505090565b600591505090565b6040517f08c379a000000000000000000000000000000000000000000000000000000000815260206004820152601260248201527f554e4b4e4f574e5f504f4f4c5f5048415345000000000000000000000000000060448201526064016104a3565b6114c06040805161012081019091528060008152602001600063ffffffff168152602001600063ffffffff1681526020016000815260200160008152602001600081526020016000815260200160008152602001600081525090565b60007f000000000000000000000000000000000000000000000000000000000000000073ffffffffffffffffffffffffffffffffffffffff16633fd8108e6040518163ffffffff1660e01b8152600401602060405180830381865afa15801561152d573d6000803e3d6000fd5b505050506040513d601f19601f8201168201806040525081019061155191906124c0565b73ffffffffffffffffffffffffffffffffffffffff1663b64ef17b6040518163ffffffff1660e01b8152600401602060405180830381865afa15801561159b573d6000803e3d6000fd5b505050506040513d601f19601f820116820180604052508101906115bf91906124c0565b905060008073ffffffffffffffffffffffffffffffffffffffff8316156117bd577f000000000000000000000000000000000000000000000000000000000000000073ffffffffffffffffffffffffffffffffffffffff1663cd3293de6040518163ffffffff1660e01b8152600401602060405180830381865afa15801561164b573d6000803e3d6000fd5b505050506040513d601f19601f8201168201806040525081019061166f91906124c0565b6040517f70a0823100000000000000000000000000000000000000000000000000000000815273ffffffffffffffffffffffffffffffffffffffff858116600483015291909116906370a0823190602401602060405180830381865afa1580156116dd573d6000803e3d6000fd5b505050506040513d601f19601f8201168201806040525081019061170191906124dd565b6040517f70a0823100000000000000000000000000000000000000000000000000000000815273ffffffffffffffffffffffffffffffffffffffff85811660048301529193507f0000000000000000000000000000000000000000000000000000000000000000909116906370a0823190602401602060405180830381865afa158015611792573d6000803e3d6000fd5b505050506040513d601f19601f820116820180604052508101906117b691906124dd565b90506117c4565b5060009050805b6040518061012001604052806117d86110d8565b60058111156117e9576117e9612318565b81526040517f9923c94b0000000000000000000000000000000000000000000000000000000081526000600482015260209091019073ffffffffffffffffffffffffffffffffffffffff7f00000000000000000000000000000000000000000000000000000000000000001690639923c94b90602401602060405180830381865afa15801561187c573d6000803e3d6000fd5b505050506040513d601f19601f820116820180604052508101906118a09190612575565b63ffffffff1681526040517f9923c94b0000000000000000000000000000000000000000000000000000000081526001600482015260209091019073ffffffffffffffffffffffffffffffffffffffff7f00000000000000000000000000000000000000000000000000000000000000001690639923c94b90602401602060405180830381865afa158015611939573d6000803e3d6000fd5b505050506040513d601f19601f8201168201806040525081019061195d9190612575565b63ffffffff1681526020018381526020018281526020017f000000000000000000000000000000000000000000000000000000000000000073ffffffffffffffffffffffffffffffffffffffff1663bb0699726040518163ffffffff1660e01b8152600401602060405180830381865afa1580156119df573d6000803e3d6000fd5b505050506040513d601f19601f82011682018060405250810190611a0391906124dd565b81526020017f000000000000000000000000000000000000000000000000000000000000000081526020017f000000000000000000000000000000000000000000000000000000000000000081526020017f0000000000000000000000000000000000000000000000000000000000000000815250935050505090565b6040805160e081018252600080825260208201819052918101829052606081018290526080810182905260a0810182905260c08101919091526040518060e001604052807f000000000000000000000000000000000000000000000000000000000000000073ffffffffffffffffffffffffffffffffffffffff1663cd3293de6040518163ffffffff1660e01b8152600401602060405180830381865afa158015611b2f573d6000803e3d6000fd5b505050506040513d601f19601f82011682018060405250810190611b5391906124c0565b73ffffffffffffffffffffffffffffffffffffffff1681526020017f000000000000000000000000000000000000000000000000000000000000000073ffffffffffffffffffffffffffffffffffffffff1681526020017f000000000000000000000000000000000000000000000000000000000000000073ffffffffffffffffffffffffffffffffffffffff1681526020017f000000000000000000000000000000000000000000000000000000000000000073ffffffffffffffffffffffffffffffffffffffff1681526020017f000000000000000000000000000000000000000000000000000000000000000073ffffffffffffffffffffffffffffffffffffffff1663a30872db6040518163ffffffff1660e01b8152600401602060405180830381865afa158015611c8d573d6000803e3d6000fd5b505050506040513d601f19601f82011682018060405250810190611cb191906124c0565b73ffffffffffffffffffffffffffffffffffffffff1681526020017f000000000000000000000000000000000000000000000000000000000000000073ffffffffffffffffffffffffffffffffffffffff16633fd8108e6040518163ffffffff1660e01b8152600401602060405180830381865afa158015611d37573d6000803e3d6000fd5b505050506040513d601f19601f82011682018060405250810190611d5b91906124c0565b73ffffffffffffffffffffffffffffffffffffffff1681526020017f000000000000000000000000000000000000000000000000000000000000000073ffffffffffffffffffffffffffffffffffffffff16633fd8108e6040518163ffffffff1660e01b8152600401602060405180830381865afa158015611de1573d6000803e3d6000fd5b505050506040513d601f19601f82011682018060405250810190611e0591906124c0565b73ffffffffffffffffffffffffffffffffffffffff1663b64ef17b6040518163ffffffff1660e01b8152600401602060405180830381865afa158015611e4f573d6000803e3d6000fd5b505050506040513d601f19601f82011682018060405250810190611e7391906124c0565b73ffffffffffffffffffffffffffffffffffffffff169052919050565b6040805173ffffffffffffffffffffffffffffffffffffffff8416602482015260448082018490528251808303909101815260649091019091526020810180517bffffffffffffffffffffffffffffffffffffffffffffffffffffffff167fa9059cbb00000000000000000000000000000000000000000000000000000000179052611f1d908490611f3b565b505050565b6060611f318484600085612047565b90505b9392505050565b6000611f9d826040518060400160405280602081526020017f5361666545524332303a206c6f772d6c6576656c2063616c6c206661696c65648152508573ffffffffffffffffffffffffffffffffffffffff16611f229092919063ffffffff16565b805190915015611f1d5780806020019051810190611fbb919061259b565b611f1d576040517f08c379a000000000000000000000000000000000000000000000000000000000815260206004820152602a60248201527f5361666545524332303a204552433230206f7065726174696f6e20646964206e60448201527f6f7420737563636565640000000000000000000000000000000000000000000060648201526084016104a3565b6060824710156120d9576040517f08c379a000000000000000000000000000000000000000000000000000000000815260206004820152602660248201527f416464726573733a20696e73756666696369656e742062616c616e636520666f60448201527f722063616c6c000000000000000000000000000000000000000000000000000060648201526084016104a3565b843b612141576040517f08c379a000000000000000000000000000000000000000000000000000000000815260206004820152601d60248201527f416464726573733a2063616c6c20746f206e6f6e2d636f6e747261637400000060448201526064016104a3565b6000808673ffffffffffffffffffffffffffffffffffffffff16858760405161216a91906125bd565b60006040518083038185875af1925050503d80600081146121a7576040519150601f19603f3d011682016040523d82523d6000602084013e6121ac565b606091505b50915091506121bc8282866121c7565b979650505050505050565b606083156121d6575081611f34565b8251156121e65782518084602001fd5b816040517f08c379a00000000000000000000000000000000000000000000000000000000081526004016104a39190612488565b7f4e487b7100000000000000000000000000000000000000000000000000000000600052604160045260246000fd5b60006020828403121561225b57600080fd5b813567ffffffffffffffff8082111561227357600080fd5b818401915084601f83011261228757600080fd5b8135818111156122995761229961221a565b604051601f82017fffffffffffffffffffffffffffffffffffffffffffffffffffffffffffffffe0908116603f011681019083821181831017156122df576122df61221a565b816040528281528760208487010111156122f857600080fd5b826020860160208301376000928101602001929092525095945050505050565b7f4e487b7100000000000000000000000000000000000000000000000000000000600052602160045260246000fd5b6006811061237e577f4e487b7100000000000000000000000000000000000000000000000000000000600052602160045260246000fd5b9052565b602081016123908284612347565b92915050565b6000610120820190506123aa828451612347565b602083015163ffffffff80821660208501528060408601511660408501525050606083015160608301526080830151608083015260a083015160a083015260c083015160c083015260e083015160e083015261010080840151818401525092915050565b60005b83811015612429578181015183820152602001612411565b83811115612438576000848401525b50505050565b6000815180845261245681602086016020860161240e565b601f017fffffffffffffffffffffffffffffffffffffffffffffffffffffffffffffffe0169290920160200192915050565b602081526000611f34602083018461243e565b73ffffffffffffffffffffffffffffffffffffffff811681146124bd57600080fd5b50565b6000602082840312156124d257600080fd5b8151611f348161249b565b6000602082840312156124ef57600080fd5b5051919050565b7f4e487b7100000000000000000000000000000000000000000000000000000000600052601160045260246000fd5b600082821015612537576125376124f6565b500390565b6000821982111561254f5761254f6124f6565b500190565b60006020828403121561256657600080fd5b815160098110611f3457600080fd5b60006020828403121561258757600080fd5b815163ffffffff81168114611f3457600080fd5b6000602082840312156125ad57600080fd5b81518015158114611f3457600080fd5b600082516125cf81846020870161240e565b919091019291505056fea26469706673582212209fee60b88c05c592b3e59578d2123f020497b43da383ab33d91f43ad49168cf664736f6c634300080a0033",
  "linkReferences": {},
  "deployedLinkReferences": {}
}