{
  "address": "0x53f9810AF32AC48b04DEbc6e8f32fC245eB88cE5",
  "abi": [
    {
      "inputs": [],
      "stateMutability": "nonpayable",
      "type": "constructor"
    },
    {
      "anonymous": false,
      "inputs": [
        {
          "indexed": false,
          "internalType": "address",
          "name": "sender",
          "type": "address"
        },
        {
          "indexed": false,
          "internalType": "address",
          "name": "implementation",
          "type": "address"
        }
      ],
      "name": "Implementation",
      "type": "event"
    },
    {
      "anonymous": false,
      "inputs": [
        {
          "indexed": false,
          "internalType": "address",
          "name": "sender",
          "type": "address"
        },
        {
          "indexed": false,
          "internalType": "address",
          "name": "child",
          "type": "address"
        }
      ],
      "name": "NewChild",
      "type": "event"
    },
    {
      "inputs": [
        {
          "internalType": "bytes",
          "name": "data_",
          "type": "bytes"
        }
      ],
      "name": "createChild",
      "outputs": [
        {
          "internalType": "address",
          "name": "",
          "type": "address"
        }
      ],
      "stateMutability": "nonpayable",
      "type": "function"
    },
    {
      "inputs": [
        {
          "components": [
            {
              "internalType": "string",
              "name": "name",
              "type": "string"
            },
            {
              "internalType": "string",
              "name": "symbol",
              "type": "string"
            },
            {
              "internalType": "string",
              "name": "description",
              "type": "string"
            },
            {
              "internalType": "string",
              "name": "animationUrl",
              "type": "string"
            },
            {
              "internalType": "string",
              "name": "imageUrl",
              "type": "string"
            },
            {
              "internalType": "bytes32",
              "name": "animationHash",
              "type": "bytes32"
            },
            {
              "internalType": "bytes32",
              "name": "imageHash",
              "type": "bytes32"
            }
          ],
          "internalType": "struct GatedNFT.Config",
          "name": "config_",
          "type": "tuple"
        },
        {
          "internalType": "contract ITier",
          "name": "tier_",
          "type": "address"
        },
        {
          "internalType": "uint256",
          "name": "minimumStatus_",
          "type": "uint256"
        },
        {
          "internalType": "uint256",
          "name": "maxPerAddress_",
          "type": "uint256"
        },
        {
          "internalType": "enum GatedNFT.Transferrable",
          "name": "transferrable_",
          "type": "uint8"
        },
        {
          "internalType": "uint256",
          "name": "maxMintable_",
          "type": "uint256"
        },
        {
          "internalType": "address",
          "name": "royaltyRecipient_",
          "type": "address"
        },
        {
          "internalType": "uint256",
          "name": "royaltyBPS",
          "type": "uint256"
        }
      ],
      "name": "createChildTyped",
      "outputs": [
        {
          "internalType": "contract GatedNFT",
          "name": "",
          "type": "address"
        }
      ],
      "stateMutability": "nonpayable",
      "type": "function"
    },
    {
      "inputs": [
        {
          "internalType": "address",
          "name": "maybeChild_",
          "type": "address"
        }
      ],
      "name": "isChild",
      "outputs": [
        {
          "internalType": "bool",
          "name": "",
          "type": "bool"
        }
      ],
      "stateMutability": "view",
      "type": "function"
    }
  ],
  "transactionHash": "0xaf5b27aceabb1e22973a72b77dc0553058beacc22d25e7ed89edabf6fdbfd210",
  "args": [],
  "numDeployments": 1,
  "solcInputHash": "51f8c0eb364ac8ebbc6da111363b0c63",
  "bytecode": "0x60a060405234801561001057600080fd5b506001600090815560405161002490610096565b604051809103906000f080158015610040573d6000803e3d6000fd5b50604080513381526001600160a01b03831660208201529192507f7fac34ecf0b1b374cd9659e3d17db602659d53f1162b1f20142e6c02694aed70910160405180910390a16001600160a01b03166080526100a3565b61354b80610c5e83390190565b608051610ba06100be60003960006103770152610ba06000f3fe608060405234801561001057600080fd5b50600436106100415760003560e01c80632ea72a4914610046578063eec513d014610083578063fc91a89714610096575b600080fd5b610059610054366004610525565b6100df565b60405173ffffffffffffffffffffffffffffffffffffffff90911681526020015b60405180910390f35b6100596100913660046107c0565b61028d565b6100cf6100a436600461085c565b73ffffffffffffffffffffffffffffffffffffffff1660009081526001602052604090205460ff1690565b604051901515815260200161007a565b600060026000541415610153576040517f08c379a000000000000000000000000000000000000000000000000000000000815260206004820152601f60248201527f5265656e7472616e637947756172643a207265656e7472616e742063616c6c0060448201526064015b60405180910390fd5b600260009081556101648484610347565b73ffffffffffffffffffffffffffffffffffffffff811660009081526001602052604090205490915060ff16156101f7576040517f08c379a000000000000000000000000000000000000000000000000000000000815260206004820152600f60248201527f4455504c49434154455f4348494c440000000000000000000000000000000000604482015260640161014a565b73ffffffffffffffffffffffffffffffffffffffff811660008181526001602081815260409283902080547fffffffffffffffffffffffffffffffffffffffffffffffffffffffffffffff00169092179091558151338152908101929092527f7da70c4e5387d7038610b79ca7d304caaef815826e51e67cf247135387a79bce910160405180910390a160016000559392505050565b60003073ffffffffffffffffffffffffffffffffffffffff16632ea72a49338b8b8b8b8b8b8b8b6040516020016102cc99989796959493929190610926565b6040516020818303038152906040526040518263ffffffff1660e01b81526004016102f79190610a8b565b6020604051808303816000875af1158015610316573d6000803e3d6000fd5b505050506040513d601f19601f8201168201806040525081019061033a9190610a9e565b9998505050505050505050565b600080808080808080808061035e8b8d018d610abb565b985098509850985098509850985098509850600061039b7f0000000000000000000000000000000000000000000000000000000000000000610443565b6040517f911e29e300000000000000000000000000000000000000000000000000000000815290915073ffffffffffffffffffffffffffffffffffffffff82169063911e29e390610400908d908d908d908d908d908d908d908d908d90600401610926565b600060405180830381600087803b15801561041a57600080fd5b505af115801561042e573d6000803e3d6000fd5b50929f9e505050505050505050505050505050565b60006040517f3d602d80600a3d3981f3363d3d373d3d3d363d7300000000000000000000000081528260601b60148201527f5af43d82803e903d91602b57fd5bf3000000000000000000000000000000000060288201526037816000f091505073ffffffffffffffffffffffffffffffffffffffff8116610520576040517f08c379a000000000000000000000000000000000000000000000000000000000815260206004820152601660248201527f455243313136373a20637265617465206661696c656400000000000000000000604482015260640161014a565b919050565b6000806020838503121561053857600080fd5b823567ffffffffffffffff8082111561055057600080fd5b818501915085601f83011261056457600080fd5b81358181111561057357600080fd5b86602082850101111561058557600080fd5b60209290920196919550909350505050565b7f4e487b7100000000000000000000000000000000000000000000000000000000600052604160045260246000fd5b60405160e0810167ffffffffffffffff811182821017156105e9576105e9610597565b60405290565b600082601f83011261060057600080fd5b813567ffffffffffffffff8082111561061b5761061b610597565b604051601f83017fffffffffffffffffffffffffffffffffffffffffffffffffffffffffffffffe0908116603f0116810190828211818310171561066157610661610597565b8160405283815286602085880101111561067a57600080fd5b836020870160208301376000602085830101528094505050505092915050565b600060e082840312156106ac57600080fd5b6106b46105c6565b9050813567ffffffffffffffff808211156106ce57600080fd5b6106da858386016105ef565b835260208401359150808211156106f057600080fd5b6106fc858386016105ef565b6020840152604084013591508082111561071557600080fd5b610721858386016105ef565b6040840152606084013591508082111561073a57600080fd5b610746858386016105ef565b6060840152608084013591508082111561075f57600080fd5b5061076c848285016105ef565b60808301525060a082013560a082015260c082013560c082015292915050565b73ffffffffffffffffffffffffffffffffffffffff811681146107ae57600080fd5b50565b80356003811061052057600080fd5b600080600080600080600080610100898b0312156107dd57600080fd5b883567ffffffffffffffff8111156107f457600080fd5b6108008b828c0161069a565b98505060208901356108118161078c565b9650604089013595506060890135945061082d60808a016107b1565b935060a0890135925060c08901356108448161078c565b8092505060e089013590509295985092959890939650565b60006020828403121561086e57600080fd5b81356108798161078c565b9392505050565b6000815180845260005b818110156108a65760208185018101518683018201520161088a565b818111156108b8576000602083870101525b50601f017fffffffffffffffffffffffffffffffffffffffffffffffffffffffffffffffe0169290920160200192915050565b60038110610922577f4e487b7100000000000000000000000000000000000000000000000000000000600052602160045260246000fd5b9052565b600061012073ffffffffffffffffffffffffffffffffffffffff8c1683528060208401528a5160e082850152610960610200850182610880565b91505060208b01517ffffffffffffffffffffffffffffffffffffffffffffffffffffffffffffffee0808584030161014086015261099e8383610880565b925060408d0151915080858403016101608601526109bc8383610880565b925060608d0151915080858403016101808601526109da8383610880565b925060808d0151915080858403016101a0860152506109f98282610880565b60a08d01516101c086015260c08d01516101e086015273ffffffffffffffffffffffffffffffffffffffff8c1660408601529250610a35915050565b876060830152866080830152610a4e60a08301876108eb565b8460c0830152610a7660e083018573ffffffffffffffffffffffffffffffffffffffff169052565b826101008301529a9950505050505050505050565b6020815260006108796020830184610880565b600060208284031215610ab057600080fd5b81516108798161078c565b60008060008060008060008060006101208a8c031215610ada57600080fd5b8935610ae58161078c565b985060208a013567ffffffffffffffff811115610b0157600080fd5b610b0d8c828d0161069a565b98505060408a0135610b1e8161078c565b965060608a0135955060808a01359450610b3a60a08b016107b1565b935060c08a0135925060e08a0135610b518161078c565b809250506101008a01359050929598509295985092959856fea2646970667358221220f471f4cb7b15057db412636e1aef069502de8be49184214c1f8a73d8343a69c464736f6c634300080a0033608060405234801561001057600080fd5b5061352b806100206000396000f3fe608060405234801561001057600080fd5b50600436106101825760003560e01c80636a627842116100d857806395d89b411161008c578063c87b56dd11610066578063c87b56dd1461035f578063e985e9c514610372578063f2fde38b146103bb57600080fd5b806395d89b4114610331578063a22cb46514610339578063b88d4fde1461034c57600080fd5b8063715018a6116100bd578063715018a6146102f85780638da5cb5b14610300578063911e29e31461031e57600080fd5b80636a627842146102d257806370a08231146102e557600080fd5b806316f4d0221161013a5780632a55205a116101145780632a55205a1461026d57806342842e0e146102ac5780636352211e146102bf57600080fd5b806316f4d0221461022457806318160ddd1461024457806323b872dd1461025a57600080fd5b8063081812fc1161016b578063081812fc146101c4578063095ea7b3146101fc5780630fc499f51461021157600080fd5b806301ffc9a71461018757806306fdde03146101af575b600080fd5b61019a6101953660046128fe565b6103ce565b60405190151581526020015b60405180910390f35b6101b761042a565b6040516101a69190612998565b6101d76101d23660046129ab565b6104bc565b60405173ffffffffffffffffffffffffffffffffffffffff90911681526020016101a6565b61020f61020a3660046129f6565b61059b565b005b61020f61021f366004612a22565b610753565b60d1546101d79073ffffffffffffffffffffffffffffffffffffffff1681565b61024c6108f0565b6040519081526020016101a6565b61020f610268366004612a3f565b61090c565b61028061027b366004612a80565b6109ad565b6040805173ffffffffffffffffffffffffffffffffffffffff90931683526020830191909152016101a6565b61020f6102ba366004612a3f565b610a34565b6101d76102cd3660046129ab565b610a4f565b61024c6102e0366004612a22565b610b01565b61024c6102f3366004612a22565b610d12565b61020f610de0565b60975473ffffffffffffffffffffffffffffffffffffffff166101d7565b61020f61032c366004612bbd565b610e6d565b6101b76111f8565b61020f610347366004612d3c565b611207565b61020f61035a366004612d7a565b611216565b6101b761036d3660046129ab565b6112be565b61019a610380366004612dfa565b73ffffffffffffffffffffffffffffffffffffffff9182166000908152606a6020908152604080832093909416825291909152205460ff1690565b61020f6103c9366004612a22565b611354565b60007f2a55205a000000000000000000000000000000000000000000000000000000007fffffffff0000000000000000000000000000000000000000000000000000000083161480610424575061042482611484565b92915050565b60606065805461043990612e28565b80601f016020809104026020016040519081016040528092919081815260200182805461046590612e28565b80156104b25780601f10610487576101008083540402835291602001916104b2565b820191906000526020600020905b81548152906001019060200180831161049557829003601f168201915b5050505050905090565b60008181526067602052604081205473ffffffffffffffffffffffffffffffffffffffff16610572576040517f08c379a000000000000000000000000000000000000000000000000000000000815260206004820152602c60248201527f4552433732313a20617070726f76656420717565727920666f72206e6f6e657860448201527f697374656e7420746f6b656e000000000000000000000000000000000000000060648201526084015b60405180910390fd5b5060009081526069602052604090205473ffffffffffffffffffffffffffffffffffffffff1690565b60006105a682610a4f565b90508073ffffffffffffffffffffffffffffffffffffffff168373ffffffffffffffffffffffffffffffffffffffff161415610664576040517f08c379a000000000000000000000000000000000000000000000000000000000815260206004820152602160248201527f4552433732313a20617070726f76616c20746f2063757272656e74206f776e6560448201527f72000000000000000000000000000000000000000000000000000000000000006064820152608401610569565b3373ffffffffffffffffffffffffffffffffffffffff821614806106b8575073ffffffffffffffffffffffffffffffffffffffff81166000908152606a6020908152604080832033845290915290205460ff165b610744576040517f08c379a000000000000000000000000000000000000000000000000000000000815260206004820152603860248201527f4552433732313a20617070726f76652063616c6c6572206973206e6f74206f7760448201527f6e6572206e6f7220617070726f76656420666f7220616c6c00000000000000006064820152608401610569565b61074e8383611567565b505050565b73ffffffffffffffffffffffffffffffffffffffff81166107d0576040517f08c379a000000000000000000000000000000000000000000000000000000000815260206004820152601d60248201527f526563697069656e742063616e6e6f74206265203020616464726573730000006044820152606401610569565b60d65473ffffffffffffffffffffffffffffffffffffffff163314610877576040517f08c379a000000000000000000000000000000000000000000000000000000000815260206004820152602160248201527f4f6e6c792063757272656e7420726563697069656e742063616e20757064617460448201527f65000000000000000000000000000000000000000000000000000000000000006064820152608401610569565b60d680547fffffffffffffffffffffffff00000000000000000000000000000000000000001673ffffffffffffffffffffffffffffffffffffffff83169081179091556040519081527fe8fc99c58149b88bd3261c7bfa0257cb6276c555f2afc047f7b9bcfa4b2d05e79060200160405180910390a150565b600060016108fd60c95490565b6109079190612eab565b905090565b6109163382611607565b6109a2576040517f08c379a000000000000000000000000000000000000000000000000000000000815260206004820152603160248201527f4552433732313a207472616e736665722063616c6c6572206973206e6f74206f60448201527f776e6572206e6f7220617070726f7665640000000000000000000000000000006064820152608401610569565b61074e838383611777565b60d654600090819073ffffffffffffffffffffffffffffffffffffffff166109f157505060d65473ffffffffffffffffffffffffffffffffffffffff166000610a2d565b60d65460d75473ffffffffffffffffffffffffffffffffffffffff9091169061271090610a1e9086612ec2565b610a289190612eff565b915091505b9250929050565b61074e83838360405180602001604052806000815250611216565b60008181526067602052604081205473ffffffffffffffffffffffffffffffffffffffff1680610424576040517f08c379a000000000000000000000000000000000000000000000000000000000815260206004820152602960248201527f4552433732313a206f776e657220717565727920666f72206e6f6e657869737460448201527f656e7420746f6b656e00000000000000000000000000000000000000000000006064820152608401610569565b60d25460d1546040517fe053ea3100000000000000000000000000000000000000000000000000000000815273ffffffffffffffffffffffffffffffffffffffff848116600483015260009392610ba69291169063e053ea31906024015b602060405180830381865afa158015610b7c573d6000803e3d6000fd5b505050506040513d601f19601f82011682018060405250810190610ba09190612f3a565b4361195a565b1015610c0e576040517f08c379a000000000000000000000000000000000000000000000000000000000815260206004820152601d60248201527f41646472657373206d697373696e6720726571756972656420746965720000006044820152606401610569565b60d354610c1a83610d12565b10610c81576040517f08c379a000000000000000000000000000000000000000000000000000000000815260206004820152601f60248201527f41646472657373206861732065786861757374656420616c6c6f77616e6365006044820152606401610569565b6000610c8c60c95490565b905060d554811115610cfa576040517f08c379a000000000000000000000000000000000000000000000000000000000815260206004820152601660248201527f546f74616c20737570706c7920657868617573746564000000000000000000006044820152606401610569565b610d048382611994565b61042460c980546001019055565b600073ffffffffffffffffffffffffffffffffffffffff8216610db7576040517f08c379a000000000000000000000000000000000000000000000000000000000815260206004820152602a60248201527f4552433732313a2062616c616e636520717565727920666f7220746865207a6560448201527f726f2061646472657373000000000000000000000000000000000000000000006064820152608401610569565b5073ffffffffffffffffffffffffffffffffffffffff1660009081526068602052604090205490565b60975473ffffffffffffffffffffffffffffffffffffffff163314610e61576040517f08c379a000000000000000000000000000000000000000000000000000000000815260206004820181905260248201527f4f776e61626c653a2063616c6c6572206973206e6f7420746865206f776e65726044820152606401610569565b610e6b60006119ae565b565b600054610100900460ff16610e885760005460ff1615610e8c565b303b155b610f18576040517f08c379a000000000000000000000000000000000000000000000000000000000815260206004820152602e60248201527f496e697469616c697a61626c653a20636f6e747261637420697320616c72656160448201527f647920696e697469616c697a65640000000000000000000000000000000000006064820152608401610569565b600054610100900460ff16158015610f5757600080547fffffffffffffffffffffffffffffffffffffffffffffffffffffffffffff0000166101011790555b73ffffffffffffffffffffffffffffffffffffffff8316610fd4576040517f08c379a000000000000000000000000000000000000000000000000000000000815260206004820152601d60248201527f526563697069656e742063616e6e6f74206265203020616464726573730000006044820152606401610569565b610fe689600001518a60200151611a25565b610fee611ac6565b610ff78a611354565b60d180547fffffffffffffffffffffffff00000000000000000000000000000000000000001673ffffffffffffffffffffffffffffffffffffffff8a16179055885180518a9160ca91611051918391602090910190612837565b50602082810151805161106a9260018501920190612837565b5060408201518051611086916002840191602090910190612837565b50606082015180516110a2916003840191602090910190612837565b50608082015180516110be916004840191602090910190612837565b5060a0820151600582015560c09091015160069091015560d287905560d386905560d480548691907fffffffffffffffffffffffffffffffffffffffffffffffffffffffffffffff0016600183600281111561111c5761111c612f53565b021790555060d584905560d680547fffffffffffffffffffffffff00000000000000000000000000000000000000001673ffffffffffffffffffffffffffffffffffffffff851617905560d782905560c9805460010190557fd85dcc7cee7af91644138b69b9dea25e7697ddbe6a27aa23720ab19a86581f40308b8b8b8b8b8b8b8b8b6040516111b59a99989796959493929190612fbd565b60405180910390a180156111ec57600080547fffffffffffffffffffffffffffffffffffffffffffffffffffffffffffff00ff1690555b50505050505050505050565b60606066805461043990612e28565b611212338383611b65565b5050565b6112203383611607565b6112ac576040517f08c379a000000000000000000000000000000000000000000000000000000000815260206004820152603160248201527f4552433732313a207472616e736665722063616c6c6572206973206e6f74206f60448201527f776e6572206e6f7220617070726f7665640000000000000000000000000000006064820152608401610569565b6112b884848484611c93565b50505050565b60008181526067602052604090205460609073ffffffffffffffffffffffffffffffffffffffff1661134c576040517f08c379a000000000000000000000000000000000000000000000000000000000815260206004820152601160248201527f4e6f6e6578697374656e7420746f6b656e0000000000000000000000000000006044820152606401610569565b610424611d36565b60975473ffffffffffffffffffffffffffffffffffffffff1633146113d5576040517f08c379a000000000000000000000000000000000000000000000000000000000815260206004820181905260248201527f4f776e61626c653a2063616c6c6572206973206e6f7420746865206f776e65726044820152606401610569565b73ffffffffffffffffffffffffffffffffffffffff8116611478576040517f08c379a000000000000000000000000000000000000000000000000000000000815260206004820152602660248201527f4f776e61626c653a206e6577206f776e657220697320746865207a65726f206160448201527f64647265737300000000000000000000000000000000000000000000000000006064820152608401610569565b611481816119ae565b50565b60007fffffffff0000000000000000000000000000000000000000000000000000000082167f80ac58cd00000000000000000000000000000000000000000000000000000000148061151757507fffffffff0000000000000000000000000000000000000000000000000000000082167f5b5e139f00000000000000000000000000000000000000000000000000000000145b8061042457507f01ffc9a7000000000000000000000000000000000000000000000000000000007fffffffff00000000000000000000000000000000000000000000000000000000831614610424565b600081815260696020526040902080547fffffffffffffffffffffffff00000000000000000000000000000000000000001673ffffffffffffffffffffffffffffffffffffffff841690811790915581906115c182610a4f565b73ffffffffffffffffffffffffffffffffffffffff167f8c5be1e5ebec7d5bd14f71427d1e84f3dd0314c0f7b2291e5b200ac8c7c3b92560405160405180910390a45050565b60008181526067602052604081205473ffffffffffffffffffffffffffffffffffffffff166116b8576040517f08c379a000000000000000000000000000000000000000000000000000000000815260206004820152602c60248201527f4552433732313a206f70657261746f7220717565727920666f72206e6f6e657860448201527f697374656e7420746f6b656e00000000000000000000000000000000000000006064820152608401610569565b60006116c383610a4f565b90508073ffffffffffffffffffffffffffffffffffffffff168473ffffffffffffffffffffffffffffffffffffffff16148061173257508373ffffffffffffffffffffffffffffffffffffffff1661171a846104bc565b73ffffffffffffffffffffffffffffffffffffffff16145b8061176f575073ffffffffffffffffffffffffffffffffffffffff8082166000908152606a602090815260408083209388168352929052205460ff165b949350505050565b600060d45460ff16600281111561179057611790612f53565b14156117f8576040517f08c379a000000000000000000000000000000000000000000000000000000000815260206004820152601660248201527f5472616e73666572206e6f7420737570706f72746564000000000000000000006044820152606401610569565b600260d45460ff16600281111561181157611811612f53565b14156118dc5760d25460d1546040517fe053ea3100000000000000000000000000000000000000000000000000000000815273ffffffffffffffffffffffffffffffffffffffff858116600483015261187492169063e053ea3190602401610b5f565b10156118dc576040517f08c379a000000000000000000000000000000000000000000000000000000000815260206004820152601d60248201527f41646472657373206d697373696e6720726571756972656420746965720000006044820152606401610569565b60d3546118e883610d12565b1061194f576040517f08c379a000000000000000000000000000000000000000000000000000000000815260206004820152601f60248201527f41646472657373206861732065786861757374656420616c6c6f77616e6365006044820152606401610569565b61074e838383611d91565b6000805b600881101561198a57828160200285901c63ffffffff161115611982579050610424565b60010161195e565b5060089392505050565b611212828260405180602001604052806000815250611ff8565b6097805473ffffffffffffffffffffffffffffffffffffffff8381167fffffffffffffffffffffffff0000000000000000000000000000000000000000831681179093556040519116919082907f8be0079c531659141344cd1fd0a4f28419497f9722a3daafe3b4186f6b6457e090600090a35050565b600054610100900460ff16611abc576040517f08c379a000000000000000000000000000000000000000000000000000000000815260206004820152602b60248201527f496e697469616c697a61626c653a20636f6e7472616374206973206e6f74206960448201527f6e697469616c697a696e670000000000000000000000000000000000000000006064820152608401610569565b611212828261209b565b600054610100900460ff16611b5d576040517f08c379a000000000000000000000000000000000000000000000000000000000815260206004820152602b60248201527f496e697469616c697a61626c653a20636f6e7472616374206973206e6f74206960448201527f6e697469616c697a696e670000000000000000000000000000000000000000006064820152608401610569565b610e6b612159565b8173ffffffffffffffffffffffffffffffffffffffff168373ffffffffffffffffffffffffffffffffffffffff161415611bfb576040517f08c379a000000000000000000000000000000000000000000000000000000000815260206004820152601960248201527f4552433732313a20617070726f766520746f2063616c6c6572000000000000006044820152606401610569565b73ffffffffffffffffffffffffffffffffffffffff8381166000818152606a602090815260408083209487168084529482529182902080547fffffffffffffffffffffffffffffffffffffffffffffffffffffffffffffff001686151590811790915591519182527f17307eab39ab6107e8899845ad3d59bd9653f200f220920489ca2b5937696c31910160405180910390a3505050565b611c9e848484611777565b611caa848484846121f9565b6112b8576040517f08c379a000000000000000000000000000000000000000000000000000000000815260206004820152603260248201527f4552433732313a207472616e7366657220746f206e6f6e20455243373231526560448201527f63656976657220696d706c656d656e74657200000000000000000000000000006064820152608401610569565b6060611d6d60ca60cc611d476123e9565b604051602001611d59939291906131ff565b60405160208183030381529060405261249c565b604051602001611d7d91906132d0565b604051602081830303815290604052905090565b8273ffffffffffffffffffffffffffffffffffffffff16611db182610a4f565b73ffffffffffffffffffffffffffffffffffffffff1614611e54576040517f08c379a000000000000000000000000000000000000000000000000000000000815260206004820152602560248201527f4552433732313a207472616e736665722066726f6d20696e636f72726563742060448201527f6f776e65720000000000000000000000000000000000000000000000000000006064820152608401610569565b73ffffffffffffffffffffffffffffffffffffffff8216611ef6576040517f08c379a0000000000000000000000000000000000000000000000000000000008152602060048201526024808201527f4552433732313a207472616e7366657220746f20746865207a65726f2061646460448201527f72657373000000000000000000000000000000000000000000000000000000006064820152608401610569565b611f01600082611567565b73ffffffffffffffffffffffffffffffffffffffff83166000908152606860205260408120805460019290611f37908490612eab565b909155505073ffffffffffffffffffffffffffffffffffffffff82166000908152606860205260408120805460019290611f72908490613315565b909155505060008181526067602052604080822080547fffffffffffffffffffffffff00000000000000000000000000000000000000001673ffffffffffffffffffffffffffffffffffffffff86811691821790925591518493918716917fddf252ad1be2c89b69c2b068fc378daa952ba7f163c4a11628f55a4df523b3ef91a4505050565b6120028383612675565b61200f60008484846121f9565b61074e576040517f08c379a000000000000000000000000000000000000000000000000000000000815260206004820152603260248201527f4552433732313a207472616e7366657220746f206e6f6e20455243373231526560448201527f63656976657220696d706c656d656e74657200000000000000000000000000006064820152608401610569565b600054610100900460ff16612132576040517f08c379a000000000000000000000000000000000000000000000000000000000815260206004820152602b60248201527f496e697469616c697a61626c653a20636f6e7472616374206973206e6f74206960448201527f6e697469616c697a696e670000000000000000000000000000000000000000006064820152608401610569565b8151612145906065906020850190612837565b50805161074e906066906020840190612837565b600054610100900460ff166121f0576040517f08c379a000000000000000000000000000000000000000000000000000000000815260206004820152602b60248201527f496e697469616c697a61626c653a20636f6e7472616374206973206e6f74206960448201527f6e697469616c697a696e670000000000000000000000000000000000000000006064820152608401610569565b610e6b336119ae565b600073ffffffffffffffffffffffffffffffffffffffff84163b156123de576040517f150b7a0200000000000000000000000000000000000000000000000000000000815273ffffffffffffffffffffffffffffffffffffffff85169063150b7a029061227090339089908890889060040161332d565b6020604051808303816000875af19250505080156122c9575060408051601f3d9081017fffffffffffffffffffffffffffffffffffffffffffffffffffffffffffffffe01682019092526122c691810190613376565b60015b612393573d8080156122f7576040519150601f19603f3d011682016040523d82523d6000602084013e6122fc565b606091505b50805161238b576040517f08c379a000000000000000000000000000000000000000000000000000000000815260206004820152603260248201527f4552433732313a207472616e7366657220746f206e6f6e20455243373231526560448201527f63656976657220696d706c656d656e74657200000000000000000000000000006064820152608401610569565b805181602001fd5b7fffffffff00000000000000000000000000000000000000000000000000000000167f150b7a020000000000000000000000000000000000000000000000000000000014905061176f565b506001949350505050565b606060008060ca60040180546123fe90612e28565b905011905060008060ca600301805461241690612e28565b90501190508180156124255750805b156124555760405161243f9060ce9060cd90602001613393565b6040516020818303038152906040529250505090565b811561246d5760405161243f9060ce90602001613424565b80156124855760405161243f9060cd90602001613483565b604051806020016040528060008152509250505090565b60608151600014156124bc57505060408051602081019091526000815290565b60006040518060600160405280604081526020016134b660409139905060006003845160026124eb9190613315565b6124f59190612eff565b612500906004612ec2565b9050600061250f826020613315565b67ffffffffffffffff81111561252757612527612aa2565b6040519080825280601f01601f191660200182016040528015612551576020820181803683370190505b509050818152600183018586518101602084015b818310156125bd576003830192508251603f8160121c168501518253600182019150603f81600c1c168501518253600182019150603f8160061c168501518253600182019150603f8116850151825350600101612565565b6003895106600181146125d7576002811461262157612667565b7f3d3d0000000000000000000000000000000000000000000000000000000000007ffffffffffffffffffffffffffffffffffffffffffffffffffffffffffffffffe830152612667565b7f3d000000000000000000000000000000000000000000000000000000000000007fffffffffffffffffffffffffffffffffffffffffffffffffffffffffffffffff8301525b509398975050505050505050565b73ffffffffffffffffffffffffffffffffffffffff82166126f2576040517f08c379a000000000000000000000000000000000000000000000000000000000815260206004820181905260248201527f4552433732313a206d696e7420746f20746865207a65726f20616464726573736044820152606401610569565b60008181526067602052604090205473ffffffffffffffffffffffffffffffffffffffff161561277e576040517f08c379a000000000000000000000000000000000000000000000000000000000815260206004820152601c60248201527f4552433732313a20746f6b656e20616c7265616479206d696e746564000000006044820152606401610569565b73ffffffffffffffffffffffffffffffffffffffff821660009081526068602052604081208054600192906127b4908490613315565b909155505060008181526067602052604080822080547fffffffffffffffffffffffff00000000000000000000000000000000000000001673ffffffffffffffffffffffffffffffffffffffff861690811790915590518392907fddf252ad1be2c89b69c2b068fc378daa952ba7f163c4a11628f55a4df523b3ef908290a45050565b82805461284390612e28565b90600052602060002090601f01602090048101928261286557600085556128ab565b82601f1061287e57805160ff19168380011785556128ab565b828001600101855582156128ab579182015b828111156128ab578251825591602001919060010190612890565b506128b79291506128bb565b5090565b5b808211156128b757600081556001016128bc565b7fffffffff000000000000000000000000000000000000000000000000000000008116811461148157600080fd5b60006020828403121561291057600080fd5b813561291b816128d0565b9392505050565b60005b8381101561293d578181015183820152602001612925565b838111156112b85750506000910152565b60008151808452612966816020860160208601612922565b601f017fffffffffffffffffffffffffffffffffffffffffffffffffffffffffffffffe0169290920160200192915050565b60208152600061291b602083018461294e565b6000602082840312156129bd57600080fd5b5035919050565b73ffffffffffffffffffffffffffffffffffffffff8116811461148157600080fd5b80356129f1816129c4565b919050565b60008060408385031215612a0957600080fd5b8235612a14816129c4565b946020939093013593505050565b600060208284031215612a3457600080fd5b813561291b816129c4565b600080600060608486031215612a5457600080fd5b8335612a5f816129c4565b92506020840135612a6f816129c4565b929592945050506040919091013590565b60008060408385031215612a9357600080fd5b50508035926020909101359150565b7f4e487b7100000000000000000000000000000000000000000000000000000000600052604160045260246000fd5b60405160e0810167ffffffffffffffff81118282101715612af457612af4612aa2565b60405290565b600067ffffffffffffffff80841115612b1557612b15612aa2565b604051601f85017fffffffffffffffffffffffffffffffffffffffffffffffffffffffffffffffe0908116603f01168101908282118183101715612b5b57612b5b612aa2565b81604052809350858152868686011115612b7457600080fd5b858560208301376000602087830101525050509392505050565b600082601f830112612b9f57600080fd5b61291b83833560208501612afa565b8035600381106129f157600080fd5b60008060008060008060008060006101208a8c031215612bdc57600080fd5b8935612be7816129c4565b985060208a013567ffffffffffffffff80821115612c0457600080fd5b908b019060e0828e031215612c1857600080fd5b612c20612ad1565b823582811115612c2f57600080fd5b612c3b8f828601612b8e565b825250602083013582811115612c5057600080fd5b612c5c8f828601612b8e565b602083015250604083013582811115612c7457600080fd5b612c808f828601612b8e565b604083015250606083013582811115612c9857600080fd5b612ca48f828601612b8e565b606083015250608083013582811115612cbc57600080fd5b612cc88f828601612b8e565b60808301525060a083013560a082015260c083013560c0820152809a50505050612cf460408b016129e6565b965060608a0135955060808a01359450612d1060a08b01612bae565b935060c08a01359250612d2560e08b016129e6565b91506101008a013590509295985092959850929598565b60008060408385031215612d4f57600080fd5b8235612d5a816129c4565b915060208301358015158114612d6f57600080fd5b809150509250929050565b60008060008060808587031215612d9057600080fd5b8435612d9b816129c4565b93506020850135612dab816129c4565b925060408501359150606085013567ffffffffffffffff811115612dce57600080fd5b8501601f81018713612ddf57600080fd5b612dee87823560208401612afa565b91505092959194509250565b60008060408385031215612e0d57600080fd5b8235612e18816129c4565b91506020830135612d6f816129c4565b600181811c90821680612e3c57607f821691505b60208210811415612e76577f4e487b7100000000000000000000000000000000000000000000000000000000600052602260045260246000fd5b50919050565b7f4e487b7100000000000000000000000000000000000000000000000000000000600052601160045260246000fd5b600082821015612ebd57612ebd612e7c565b500390565b6000817fffffffffffffffffffffffffffffffffffffffffffffffffffffffffffffffff0483118215151615612efa57612efa612e7c565b500290565b600082612f35577f4e487b7100000000000000000000000000000000000000000000000000000000600052601260045260246000fd5b500490565b600060208284031215612f4c57600080fd5b5051919050565b7f4e487b7100000000000000000000000000000000000000000000000000000000600052602160045260246000fd5b60038110612fb9577f4e487b7100000000000000000000000000000000000000000000000000000000600052602160045260246000fd5b9052565b600061014073ffffffffffffffffffffffffffffffffffffffff808e168452808d166020850152508060408401528a5160e08285015261300161022085018261294e565b91505060208b01517ffffffffffffffffffffffffffffffffffffffffffffffffffffffffffffffec0808584030161016086015261303f838361294e565b925060408d01519150808584030161018086015261305d838361294e565b925060608d0151915080858403016101a086015261307b838361294e565b925060808d0151915080858403016101c08601525061309a828261294e565b60a08d01516101e086015260c08d015161020086015273ffffffffffffffffffffffffffffffffffffffff8c16606086015292506130d6915050565b8760808301528660a08301526130ef60c0830187612f82565b8460e083015261311861010083018573ffffffffffffffffffffffffffffffffffffffff169052565b826101208301529b9a5050505050505050505050565b8054600090600181811c908083168061314857607f831692505b6020808410821415613183577f4e487b7100000000000000000000000000000000000000000000000000000000600052602260045260246000fd5b81801561319757600181146131c6576131f3565b7fffffffffffffffffffffffffffffffffffffffffffffffffffffffffffffff008616895284890196506131f3565b60008881526020902060005b868110156131eb5781548b8201529085019083016131d2565b505084890196505b50505050505092915050565b7f7b226e616d65223a20220000000000000000000000000000000000000000000081526000613231600a83018661312e565b7f222c20226465736372697074696f6e223a2022000000000000000000000000008152613261601382018661312e565b90507f220000000000000000000000000000000000000000000000000000000000000081528351613299816001840160208801612922565b7f7d000000000000000000000000000000000000000000000000000000000000006001929091019182015260020195945050505050565b7f646174613a6170706c69636174696f6e2f6a736f6e3b6261736536342c00000081526000825161330881601d850160208701612922565b91909101601d0192915050565b6000821982111561332857613328612e7c565b500190565b600073ffffffffffffffffffffffffffffffffffffffff80871683528086166020840152508360408301526080606083015261336c608083018461294e565b9695505050505050565b60006020828403121561338857600080fd5b815161291b816128d0565b7f2c2022696d616765223a20220000000000000000000000000000000000000000815260006133c5600c83018561312e565b7f222c2022616e696d6174696f6e5f75726c223a2022000000000000000000000081526133f5601582018561312e565b7f2200000000000000000000000000000000000000000000000000000000000000815260010195945050505050565b7f2c2022696d616765223a2022000000000000000000000000000000000000000081526000613456600c83018461312e565b7f220000000000000000000000000000000000000000000000000000000000000081526001019392505050565b7f2c2022616e696d6174696f6e5f75726c223a202200000000000000000000000081526000613456601483018461312e56fe4142434445464748494a4b4c4d4e4f505152535455565758595a6162636465666768696a6b6c6d6e6f707172737475767778797a303132333435363738392b2fa2646970667358221220aa91fffe016684114ae588f1dc7fb76b331009e5351e3c768f70c8b2c8dce14464736f6c634300080a0033",
  "devdoc": {
    "kind": "dev",
    "methods": {
      "createChild(bytes)": {
        "params": {
          "data_": "Encoded data to pass down to child contract constructor."
        },
        "returns": {
          "_0": "New child contract address."
        }
      },
      "isChild(address)": {
        "params": {
          "maybeChild_": "Address of child contract to look up."
        },
        "returns": {
          "_0": "Returns `true` if address is a contract created by this contract factory, otherwise `false`."
        }
      }
    },
    "version": 1
  },
  "userdoc": {
    "events": {
      "Implementation(address,address)": {
        "notice": "Factories that clone a template contract MUST emit an event any time they set the implementation being cloned. Factories that deploy new contracts without cloning do NOT need to emit this."
      },
      "NewChild(address,address)": {
        "notice": "Whenever a new child contract is deployed, a `NewChild` event containing the new child contract address MUST be emitted."
      }
    },
    "kind": "user",
    "methods": {
      "createChild(bytes)": {
        "notice": "Implements `IFactory`. Calls the `_createChild` hook that inheriting contracts must override. Registers child contract address such that `isChild` is `true`. Emits `NewChild` event."
      },
      "isChild(address)": {
        "notice": "Implements `IFactory`. Checks if address is registered as a child contract of this factory."
      }
    },
    "version": 1
  },
  "storageLayout": {
    "storage": [
      {
        "astId": 3818,
        "contract": "contracts/rain-statusfi/GatedNFTFactory.sol:GatedNFTFactory",
        "label": "_status",
        "offset": 0,
        "slot": "0",
        "type": "t_uint256"
      },
      {
        "astId": 15,
        "contract": "contracts/rain-statusfi/GatedNFTFactory.sol:GatedNFTFactory",
        "label": "contracts",
        "offset": 0,
        "slot": "1",
        "type": "t_mapping(t_address,t_bool)"
      }
    ],
    "types": {
      "t_address": {
        "encoding": "inplace",
        "label": "address",
        "numberOfBytes": "20"
      },
      "t_bool": {
        "encoding": "inplace",
        "label": "bool",
        "numberOfBytes": "1"
      },
      "t_mapping(t_address,t_bool)": {
        "encoding": "mapping",
        "key": "t_address",
        "label": "mapping(address => bool)",
        "numberOfBytes": "32",
        "value": "t_bool"
      },
      "t_uint256": {
        "encoding": "inplace",
        "label": "uint256",
        "numberOfBytes": "32"
      }
    }
  }
}